{
  "contractName": "Farm",
  "abi": [
    {
      "inputs": [
        {
          "internalType": "contract Token",
          "name": "_token",
          "type": "address"
        }
      ],
      "stateMutability": "nonpayable",
      "type": "constructor"
    },
    {
      "anonymous": false,
      "inputs": [
        {
          "indexed": true,
          "internalType": "address",
          "name": "_address",
          "type": "address"
        }
      ],
      "name": "FarmCreated",
      "type": "event"
    },
    {
      "anonymous": false,
      "inputs": [
        {
          "indexed": true,
          "internalType": "address",
          "name": "_address",
          "type": "address"
        }
      ],
      "name": "FarmSynced",
      "type": "event"
    },
    {
      "inputs": [],
      "name": "createFarm",
      "outputs": [],
      "stateMutability": "nonpayable",
      "type": "function"
    },
    {
      "inputs": [],
      "name": "getLevel",
      "outputs": [
        {
          "internalType": "uint256",
          "name": "level",
          "type": "uint256"
        }
      ],
      "stateMutability": "view",
      "type": "function",
      "constant": true
    },
    {
      "inputs": [
        {
          "components": [
            {
              "internalType": "enum Farm.Action",
              "name": "action",
              "type": "uint8"
            },
            {
              "internalType": "enum Farm.Fruit",
              "name": "commodity",
              "type": "uint8"
            },
            {
              "internalType": "uint256",
              "name": "timestamp",
              "type": "uint256"
            },
            {
              "internalType": "uint256",
              "name": "landIndex",
              "type": "uint256"
            },
            {
              "internalType": "uint256",
              "name": "createdAt",
              "type": "uint256"
            }
          ],
          "internalType": "struct Farm.Transaction[]",
          "name": "_transactions",
          "type": "tuple[]"
        }
      ],
      "name": "buyMoreSpace",
      "outputs": [],
      "stateMutability": "nonpayable",
      "type": "function"
    },
    {
      "inputs": [],
      "name": "getLand",
      "outputs": [
        {
          "components": [
            {
              "internalType": "enum Farm.Fruit",
              "name": "commodity",
              "type": "uint8"
            },
            {
              "internalType": "uint256",
              "name": "createdAt",
              "type": "uint256"
            }
          ],
          "internalType": "struct Farm.Square[]",
          "name": "",
          "type": "tuple[]"
        }
      ],
      "stateMutability": "view",
      "type": "function",
      "constant": true
    },
    {
      "inputs": [
        {
          "components": [
            {
              "internalType": "enum Farm.Action",
              "name": "action",
              "type": "uint8"
            },
            {
              "internalType": "enum Farm.Fruit",
              "name": "commodity",
              "type": "uint8"
            },
            {
              "internalType": "uint256",
              "name": "timestamp",
              "type": "uint256"
            },
            {
              "internalType": "uint256",
              "name": "landIndex",
              "type": "uint256"
            },
            {
              "internalType": "uint256",
              "name": "createdAt",
              "type": "uint256"
            }
          ],
          "internalType": "struct Farm.Transaction[]",
          "name": "_transactions",
          "type": "tuple[]"
        }
      ],
      "name": "sync",
      "outputs": [
        {
          "components": [
            {
              "components": [
                {
                  "internalType": "enum Farm.Fruit",
                  "name": "commodity",
                  "type": "uint8"
                },
                {
                  "internalType": "uint256",
                  "name": "createdAt",
                  "type": "uint256"
                }
              ],
              "internalType": "struct Farm.Square[]",
              "name": "land",
              "type": "tuple[]"
            },
            {
              "internalType": "uint256",
              "name": "balance",
              "type": "uint256"
            },
            {
              "components": [
                {
                  "internalType": "enum Farm.Action",
                  "name": "action",
                  "type": "uint8"
                },
                {
                  "internalType": "enum Farm.Fruit",
                  "name": "commodity",
                  "type": "uint8"
                },
                {
                  "internalType": "uint256",
                  "name": "timestamp",
                  "type": "uint256"
                },
                {
                  "internalType": "uint256",
                  "name": "landIndex",
                  "type": "uint256"
                },
                {
                  "internalType": "uint256",
                  "name": "createdAt",
                  "type": "uint256"
                }
              ],
              "internalType": "struct Farm.Transaction[]",
              "name": "transactions",
              "type": "tuple[]"
            }
          ],
          "internalType": "struct Farm.Farm",
          "name": "",
          "type": "tuple"
        }
      ],
      "stateMutability": "nonpayable",
      "type": "function"
    },
    {
      "inputs": [],
      "name": "getConversion",
      "outputs": [
        {
          "internalType": "uint256",
          "name": "conversion",
          "type": "uint256"
        }
      ],
      "stateMutability": "view",
      "type": "function",
      "constant": true
    },
    {
      "inputs": [
        {
          "internalType": "uint256",
          "name": "dollars",
          "type": "uint256"
        }
      ],
      "name": "dollarToFMC",
      "outputs": [
        {
          "internalType": "uint256",
          "name": "fmc",
          "type": "uint256"
        }
      ],
      "stateMutability": "view",
      "type": "function",
      "constant": true
    },
    {
      "inputs": [
        {
          "internalType": "uint256",
          "name": "fmc",
          "type": "uint256"
        }
      ],
      "name": "FMCToDollar",
      "outputs": [
        {
          "internalType": "uint256",
          "name": "dollars",
          "type": "uint256"
        }
      ],
      "stateMutability": "view",
      "type": "function",
      "constant": true
    },
    {
      "inputs": [],
      "name": "getBalance",
      "outputs": [
        {
          "internalType": "uint256",
          "name": "balance",
          "type": "uint256"
        }
      ],
      "stateMutability": "view",
      "type": "function",
      "constant": true
    },
    {
      "inputs": [
        {
          "components": [
            {
              "internalType": "enum Farm.Action",
              "name": "action",
              "type": "uint8"
            },
            {
              "internalType": "enum Farm.Fruit",
              "name": "commodity",
              "type": "uint8"
            },
            {
              "internalType": "uint256",
              "name": "timestamp",
              "type": "uint256"
            },
            {
              "internalType": "uint256",
              "name": "landIndex",
              "type": "uint256"
            },
            {
              "internalType": "uint256",
              "name": "createdAt",
              "type": "uint256"
            }
          ],
          "internalType": "struct Farm.Transaction[]",
          "name": "_transactions",
          "type": "tuple[]"
        },
        {
          "internalType": "enum Farm.Fruit",
          "name": "_commodity",
          "type": "uint8"
        },
        {
          "internalType": "uint256",
          "name": "landIndex",
          "type": "uint256"
        }
      ],
      "name": "plant",
      "outputs": [
        {
          "components": [
            {
              "components": [
                {
                  "internalType": "enum Farm.Fruit",
                  "name": "commodity",
                  "type": "uint8"
                },
                {
                  "internalType": "uint256",
                  "name": "createdAt",
                  "type": "uint256"
                }
              ],
              "internalType": "struct Farm.Square[]",
              "name": "land",
              "type": "tuple[]"
            },
            {
              "internalType": "uint256",
              "name": "balance",
              "type": "uint256"
            },
            {
              "components": [
                {
                  "internalType": "enum Farm.Action",
                  "name": "action",
                  "type": "uint8"
                },
                {
                  "internalType": "enum Farm.Fruit",
                  "name": "commodity",
                  "type": "uint8"
                },
                {
                  "internalType": "uint256",
                  "name": "timestamp",
                  "type": "uint256"
                },
                {
                  "internalType": "uint256",
                  "name": "landIndex",
                  "type": "uint256"
                },
                {
                  "internalType": "uint256",
                  "name": "createdAt",
                  "type": "uint256"
                }
              ],
              "internalType": "struct Farm.Transaction[]",
              "name": "transactions",
              "type": "tuple[]"
            }
          ],
          "internalType": "struct Farm.Farm",
          "name": "farm",
          "type": "tuple"
        }
      ],
      "stateMutability": "view",
      "type": "function",
      "constant": true
    },
    {
      "inputs": [
        {
          "components": [
            {
              "internalType": "enum Farm.Action",
              "name": "action",
              "type": "uint8"
            },
            {
              "internalType": "enum Farm.Fruit",
              "name": "commodity",
              "type": "uint8"
            },
            {
              "internalType": "uint256",
              "name": "timestamp",
              "type": "uint256"
            },
            {
              "internalType": "uint256",
              "name": "landIndex",
              "type": "uint256"
            },
            {
              "internalType": "uint256",
              "name": "createdAt",
              "type": "uint256"
            }
          ],
          "internalType": "struct Farm.Transaction[]",
          "name": "_transactions",
          "type": "tuple[]"
        },
        {
          "internalType": "enum Farm.Fruit",
          "name": "_commodity",
          "type": "uint8"
        },
        {
          "internalType": "uint256",
          "name": "landIndex",
          "type": "uint256"
        }
      ],
      "name": "harvest",
      "outputs": [
        {
          "components": [
            {
              "components": [
                {
                  "internalType": "enum Farm.Fruit",
                  "name": "commodity",
                  "type": "uint8"
                },
                {
                  "internalType": "uint256",
                  "name": "createdAt",
                  "type": "uint256"
                }
              ],
              "internalType": "struct Farm.Square[]",
              "name": "land",
              "type": "tuple[]"
            },
            {
              "internalType": "uint256",
              "name": "balance",
              "type": "uint256"
            },
            {
              "components": [
                {
                  "internalType": "enum Farm.Action",
                  "name": "action",
                  "type": "uint8"
                },
                {
                  "internalType": "enum Farm.Fruit",
                  "name": "commodity",
                  "type": "uint8"
                },
                {
                  "internalType": "uint256",
                  "name": "timestamp",
                  "type": "uint256"
                },
                {
                  "internalType": "uint256",
                  "name": "landIndex",
                  "type": "uint256"
                },
                {
                  "internalType": "uint256",
                  "name": "createdAt",
                  "type": "uint256"
                }
              ],
              "internalType": "struct Farm.Transaction[]",
              "name": "transactions",
              "type": "tuple[]"
            }
          ],
          "internalType": "struct Farm.Farm",
          "name": "farm",
          "type": "tuple"
        }
      ],
      "stateMutability": "view",
      "type": "function",
      "constant": true
    },
    {
      "inputs": [],
      "name": "getPrices",
      "outputs": [
        {
          "components": [
            {
              "internalType": "uint256",
              "name": "apples",
              "type": "uint256"
            },
            {
              "internalType": "uint256",
              "name": "avocados",
              "type": "uint256"
            },
            {
              "internalType": "uint256",
              "name": "timestamp",
              "type": "uint256"
            },
            {
              "internalType": "uint256",
              "name": "previousTimestamp",
              "type": "uint256"
            }
          ],
          "internalType": "struct Farm.Prices",
          "name": "price",
          "type": "tuple"
        }
      ],
      "stateMutability": "view",
      "type": "function",
      "constant": true
    },
    {
      "inputs": [],
      "name": "getApplePrice",
      "outputs": [
        {
          "internalType": "uint256",
          "name": "price",
          "type": "uint256"
        }
      ],
      "stateMutability": "view",
      "type": "function",
      "constant": true
    },
    {
      "inputs": [],
      "name": "getAvocadoPrice",
      "outputs": [
        {
          "internalType": "uint256",
          "name": "price",
          "type": "uint256"
        }
      ],
      "stateMutability": "view",
      "type": "function",
      "constant": true
    }
  ],
  "bytecode": "0x60806040526045600155600060025560026005556101f460065561012c600755620f42406009553480156200003357600080fd5b5060405162002e8238038062002e8283398181016040528101906200005991906200011c565b806000806101000a81548173ffffffffffffffffffffffffffffffffffffffff021916908373ffffffffffffffffffffffffffffffffffffffff160217905550604051806080016040528060648152602001610190815260200142815260200160008152506008600060015481526020019081526020016000206000820151816000015560208201518160010155604082015181600201556060820151816003015590505050620001aa565b600081519050620001168162000190565b92915050565b6000602082840312156200012f57600080fd5b60006200013f8482850162000105565b91505092915050565b6000620001558262000170565b9050919050565b6000620001698262000148565b9050919050565b600073ffffffffffffffffffffffffffffffffffffffff82169050919050565b6200019b816200015c565b8114620001a757600080fd5b50565b612cc880620001ba6000396000f3fe608060405234801561001057600080fd5b50600436106100ea5760003560e01c8063b4d641dc1161008c578063bd9a548b11610066578063bd9a548b1461024f578063cc709ca71461026d578063d60039ff1461029d578063f6837650146102b9576100ea565b8063b4d641dc146101d1578063ba7d808a14610201578063bc337f7814610231576100ea565b8063524a273a116100c8578063524a273a146101475780635690314c14610177578063900a6d3c14610195578063a5985e8c146101b3576100ea565b806312065fe0146100ef5780631d5ec3cb1461010d578063218e55e414610117575b600080fd5b6100f76102d7565b60405161010491906129cb565b60405180910390f35b610115610394565b005b610131600480360381019061012c9190612262565b6106d2565b60405161013e91906129cb565b60405180910390f35b610161600480360381019061015c91906121fb565b6106fa565b60405161016e919061298e565b60405180910390f35b61017f6107bd565b60405161018c919061286a565b60405180910390f35b61019d610890565b6040516101aa91906129cb565b60405180910390f35b6101bb6108d5565b6040516101c891906129cb565b60405180910390f35b6101eb60048036038101906101e691906121ba565b610929565b6040516101f8919061298e565b60405180910390f35b61021b600480360381019061021691906121fb565b610c37565b604051610228919061298e565b60405180910390f35b610239610cf9565b60405161024691906129cb565b60405180910390f35b610257610d19565b60405161026491906129b0565b60405180910390f35b61028760048036038101906102829190612262565b610d6e565b60405161029491906129cb565b60405180910390f35b6102b760048036038101906102b291906121ba565b610d96565b005b6102c16110ca565b6040516102ce91906129cb565b60405180910390f35b60008060008054906101000a900473ffffffffffffffffffffffffffffffffffffffff1673ffffffffffffffffffffffffffffffffffffffff166370a08231336040518263ffffffff1660e01b81526004016103339190612826565b60206040518083038186803b15801561034b57600080fd5b505afa15801561035f573d6000803e3d6000fd5b505050506040513d601f19601f82011682018060405250810190610383919061228b565b905061038e816106d2565b91505090565b6000600360003373ffffffffffffffffffffffffffffffffffffffff1673ffffffffffffffffffffffffffffffffffffffff1681526020019081526020016000208054905014610419576040517f08c379a0000000000000000000000000000000000000000000000000000000008152600401610410906128ae565b60405180910390fd5b6000600360003373ffffffffffffffffffffffffffffffffffffffff1673ffffffffffffffffffffffffffffffffffffffff1681526020019081526020016000209050600060405180604001604052806000600781111561047657fe5b815260200160008152509050600060405180604001604052806001600781111561049c57fe5b81526020014281525090508282908060018154018082558091505060019003906000526020600020906002020160009091909190915060008201518160000160006101000a81548160ff021916908360078111156104f657fe5b02179055506020820151816001015550508281908060018154018082558091505060019003906000526020600020906002020160009091909190915060008201518160000160006101000a81548160ff0219169083600781111561055657fe5b02179055506020820151816001015550508281908060018154018082558091505060019003906000526020600020906002020160009091909190915060008201518160000160006101000a81548160ff021916908360078111156105b657fe5b02179055506020820151816001015550508281908060018154018082558091505060019003906000526020600020906002020160009091909190915060008201518160000160006101000a81548160ff0219169083600781111561061657fe5b02179055506020820151816001015550508282908060018154018082558091505060019003906000526020600020906002020160009091909190915060008201518160000160006101000a81548160ff0219169083600781111561067657fe5b021790555060208201518160010155505060603373ffffffffffffffffffffffffffffffffffffffff167f46963f16723a084f2199eb74021bd97647aa6c8960612a9a031ce509d40d4ca760405160405180910390a250505050565b6000806106dd610890565b905060006064840290508181816106f057fe5b0492505050919050565b610702611fba565b6000600860006001548152602001908152602001600020604051806080016040529081600082015481526020016001820154815260200160028201548152602001600382015481525050905060006040518060a001604052806000600181111561076857fe5b815260200186600781111561077957fe5b81526020018360400151815260200185815260200142815250905060006107a087836110ea565b905060006107ad826111ac565b9050809450505050509392505050565b6060600360003373ffffffffffffffffffffffffffffffffffffffff1673ffffffffffffffffffffffffffffffffffffffff168152602001908152602001600020805480602002602001604051908101604052809291908181526020016000905b8282101561088757838290600052602060002090600202016040518060400160405290816000820160009054906101000a900460ff16600781111561085f57fe5b600781111561086a57fe5b81526020016001820154815250508152602001906001019061081e565b50505050905090565b60008060025414156108a65760095490506108d2565b60006108b36002546116e6565b90506009548111156108c95760019150506108d2565b80600954039150505b90565b600080600460003373ffffffffffffffffffffffffffffffffffffffff1673ffffffffffffffffffffffffffffffffffffffff1681526020019081526020016000205490506109238161172b565b91505090565b610931611fba565b600061093b6102d7565b90506000610948846111ac565b90506000600360003373ffffffffffffffffffffffffffffffffffffffff1673ffffffffffffffffffffffffffffffffffffffff168152602001908152602001600020905060005b826000015151811015610a1057826000015181815181106109ad57fe5b60200260200101518282815481106109c157fe5b906000526020600020906002020160008201518160000160006101000a81548160ff021916908360078111156109f357fe5b021790555060208201518160010155905050600181019050610990565b508282602001511115610ac95760008383602001510390506000610a3382610d6e565b905060008054906101000a900473ffffffffffffffffffffffffffffffffffffffff1673ffffffffffffffffffffffffffffffffffffffff166340c10f1933836040518363ffffffff1660e01b8152600401610a90929190612841565b600060405180830381600087803b158015610aaa57600080fd5b505af1158015610abe573d6000803e3d6000fd5b505050505050610b7e565b8282602001511015610b7d5760008260200151840390506000610aeb82610d6e565b905060008054906101000a900473ffffffffffffffffffffffffffffffffffffffff1673ffffffffffffffffffffffffffffffffffffffff16639dc29fac33836040518363ffffffff1660e01b8152600401610b48929190612841565b600060405180830381600087803b158015610b6257600080fd5b505af1158015610b76573d6000803e3d6000fd5b5050505050505b5b6000610b89866117a8565b905080600460003373ffffffffffffffffffffffffffffffffffffffff1673ffffffffffffffffffffffffffffffffffffffff16815260200190815260200160002060008282540192505081905550806002600082825401925050819055503373ffffffffffffffffffffffffffffffffffffffff167fbe35fe23c13a419d565edccb8c8bdedc160c5b9a82873e431b545080d6f3c68860405160405180910390a282945050505050919050565b610c3f611fba565b6000600860006001548152602001908152602001600020604051806080016040529081600082015481526020016001820154815260200160028201548152602001600382015481525050905060006040518060a00160405280600180811115610ca457fe5b8152602001866007811115610cb557fe5b8152602001836040015181526020018581526020014281525090506000610cdc87836110ea565b90506000610ce9826111ac565b9050809450505050509392505050565b600060086000600154815260200190815260200160002060010154905090565b610d21611fdb565b600860006001548152602001908152602001600020604051806080016040529081600082015481526020016001820154815260200160028201548152602001600382015481525050905090565b600080610d79610890565b90506000818402905060648181610d8c57fe5b0492505050919050565b6000610da182610929565b90506000600360003373ffffffffffffffffffffffffffffffffffffffff1673ffffffffffffffffffffffffffffffffffffffff1681526020019081526020016000208054905011610e28576040517f08c379a0000000000000000000000000000000000000000000000000000000008152600401610e1f906128ee565b60405180910390fd5b6011600360003373ffffffffffffffffffffffffffffffffffffffff1673ffffffffffffffffffffffffffffffffffffffff168152602001908152602001600020805490501115610eae576040517f08c379a0000000000000000000000000000000000000000000000000000000008152600401610ea59061294e565b60405180910390fd5b6000600360003373ffffffffffffffffffffffffffffffffffffffff1673ffffffffffffffffffffffffffffffffffffffff16815260200190815260200160002090506000600390506000610f06838054905061182d565b90506000610f1382611872565b90506000610f39604051806060016040528060248152602001612c3d60249139836119c2565b905082866020015110158190610f85576040517f08c379a0000000000000000000000000000000000000000000000000000000008152600401610f7c919061288c565b60405180910390fd5b506000604051806040016040528060006007811115610fa057fe5b81526020016000815250905060005b85811015611024578682908060018154018082558091505060019003906000526020600020906002020160009091909190915060008201518160000160006101000a81548160ff0219169083600781111561100657fe5b02179055506020820151816001015550508080600101915050610faf565b50600061103085610d6e565b905060008054906101000a900473ffffffffffffffffffffffffffffffffffffffff1673ffffffffffffffffffffffffffffffffffffffff16639dc29fac33836040518363ffffffff1660e01b815260040161108d929190612841565b600060405180830381600087803b1580156110a757600080fd5b505af11580156110bb573d6000803e3d6000fd5b50505050505050505050505050565b600060086000600154815260200190815260200160002060000154905090565b60606000600184510167ffffffffffffffff8111801561110957600080fd5b5060405190808252806020026020018201604052801561114357816020015b611130612003565b8152602001906001900390816111285790505b50905060005b84518110156111885784818151811061115e57fe5b602002602001015182828151811061117257fe5b6020026020010181905250600181019050611149565b50828185518151811061119757fe5b60200260200101819052508091505092915050565b6111b4611fba565b6000600360003373ffffffffffffffffffffffffffffffffffffffff1673ffffffffffffffffffffffffffffffffffffffff1681526020019081526020016000208054905011611239576040517f08c379a0000000000000000000000000000000000000000000000000000000008152600401611230906128ee565b60405180910390fd5b6000600360003373ffffffffffffffffffffffffffffffffffffffff1673ffffffffffffffffffffffffffffffffffffffff168152602001908152602001600020805480602002602001604051908101604052809291908181526020016000905b8282101561130357838290600052602060002090600202016040518060400160405290816000820160009054906101000a900460ff1660078111156112db57fe5b60078111156112e657fe5b81526020016001820154815250508152602001906001019061129a565b50505050905060006113136102d7565b90506000600460003373ffffffffffffffffffffffffffffffffffffffff1673ffffffffffffffffffffffffffffffffffffffff16815260200190815260200160002054905060005b85518110156116c05760006113708361172b565b9050600087838151811061138057fe5b602002602001015190508060200151600781111561139a57fe5b8210156113dc576040517f08c379a00000000000000000000000000000000000000000000000000000000081526004016113d39061292e565b60405180910390fd5b6000600860008360400151815260200190815260200160002060405180608001604052908160008201548152602001600182015481526020016002820154815260200160038201548152505090506000600181111561143757fe5b8260000151600181111561144757fe5b141561150657600061145d8284602001516119ee565b9050808710156114a2576040517f08c379a0000000000000000000000000000000000000000000000000000000008152600401611499906128ce565b60405180910390fd5b6114b58188611b5790919063ffffffff16565b965060006040518060400160405280856020015160078111156114d457fe5b81526020018560800151815250905080898560600151815181106114f457fe5b602002602001018190525050506116b0565b60018081111561151257fe5b8260000151600181111561152257fe5b14156116af5760008783606001518151811061153a57fe5b602002602001015190508260200151600781111561155457fe5b8160000151600781111561156457fe5b146115a4576040517f08c379a000000000000000000000000000000000000000000000000000000000815260040161159b9061290e565b60405180910390fd5b600081602001514203905060006115ba82611872565b905060006115e0604051806060016040528060328152602001612c6160329139836119c2565b905060006115f18760200151611ba1565b90508084118290611638576040517f08c379a000000000000000000000000000000000000000000000000000000000815260040161162f919061288c565b60405180910390fd5b50600060405180604001604052806000600781111561165357fe5b815260200160008152509050808d89606001518151811061167057fe5b6020026020010181905250600061168b888a60200151611d08565b90506116a0818e611e7290919063ffffffff16565b9c50828c019b50505050505050505b5b505050808060010191505061135c565b506040518060600160405280848152602001838152602001868152509350505050919050565b600080600260018401816116f657fe5b0490508291505b818110156117255780915060028182858161171457fe5b04018161171d57fe5b0490506116fd565b50919050565b6000600382101561173f57600190506117a3565b603282101561175157600290506117a3565b61035282101561176457600390506117a3565b611b5882101561177757600490506117a3565b61492082101561178a57600590506117a3565b620245b882101561179e57600690506117a3565b600790505b919050565b6000806000905060005b8351811015611820576001808111156117c757fe5b8482815181106117d357fe5b60200260200101516000015160018111156117ea57fe5b1415611815576118108482815181106117ff57fe5b602002602001015160200151611ba1565b820191505b6001810190506117b2565b50600a8102915050919050565b60006005821161184157611388905061186d565b600882116118535761c350905061186d565b600b8211611866576207a120905061186d565b624c4b4090505b919050565b606060008214156118ba576040518060400160405280600181526020017f300000000000000000000000000000000000000000000000000000000000000081525090506119bd565b600082905060005b600082146118e4578080600101915050600a82816118dc57fe5b0491506118c2565b60008167ffffffffffffffff811180156118fd57600080fd5b506040519080825280601f01601f1916602001820160405280156119305781602001600182028036833780820191505090505b50905060008290505b600086146119b5576001810390506000600a80888161195457fe5b04028703603001905060008160f81b90508084848151811061197257fe5b60200101907effffffffffffffffffffffffffffffffffffffffffffffffffffffffffffff1916908160001a905350600a88816119ab57fe5b0497505050611939565b819450505050505b919050565b606082826040516020016119d7929190612802565b604051602081830303815290604052905092915050565b6000600160078111156119fd57fe5b826007811115611a0957fe5b1415611a185760059050611b51565b60026007811115611a2557fe5b826007811115611a3157fe5b1415611a4057600a9050611b51565b60036007811115611a4d57fe5b826007811115611a5957fe5b1415611a685760029050611b51565b60046007811115611a7557fe5b826007811115611a8157fe5b1415611a905760649050611b51565b60056007811115611a9d57fe5b826007811115611aa957fe5b1415611ab9576101f49050611b51565b60066007811115611ac657fe5b826007811115611ad257fe5b1415611ae2576113889050611b51565b600780811115611aee57fe5b826007811115611afa57fe5b1415611b0b57620186a09050611b51565b6000611b4c576040517f08c379a0000000000000000000000000000000000000000000000000000000008152600401611b439061296e565b60405180910390fd5b600090505b92915050565b6000611b9983836040518060400160405280601e81526020017f536166654d6174683a207375627472616374696f6e206f766572666c6f770000815250611efa565b905092915050565b600060016007811115611bb057fe5b826007811115611bbc57fe5b1415611bcb5760019050611d03565b60026007811115611bd857fe5b826007811115611be457fe5b1415611bf35760039050611d03565b60036007811115611c0057fe5b826007811115611c0c57fe5b1415611c1b5760089050611d03565b60046007811115611c2857fe5b826007811115611c3457fe5b1415611c435760189050611d03565b60056007811115611c5057fe5b826007811115611c5c57fe5b1415611c6b5760489050611d03565b60066007811115611c7857fe5b826007811115611c8457fe5b1415611c935760a89050611d03565b600780811115611c9f57fe5b826007811115611cab57fe5b1415611cbb576102a09050611d03565b6000611cfc576040517f08c379a0000000000000000000000000000000000000000000000000000000008152600401611cf39061296e565b60405180910390fd5b6298967f90505b919050565b600060016007811115611d1757fe5b826007811115611d2357fe5b1415611d3257600a9050611e6c565b60026007811115611d3f57fe5b826007811115611d4b57fe5b1415611d5a5760289050611e6c565b60036007811115611d6757fe5b826007811115611d7357fe5b1415611d825760c89050611e6c565b60046007811115611d8f57fe5b826007811115611d9b57fe5b1415611dab576102ee9050611e6c565b60056007811115611db857fe5b826007811115611dc457fe5b1415611dd457610a8c9050611e6c565b60066007811115611de157fe5b826007811115611ded57fe5b1415611dfd576127109050611e6c565b600780811115611e0957fe5b826007811115611e1557fe5b1415611e26576201f20c9050611e6c565b6000611e67576040517f08c379a0000000000000000000000000000000000000000000000000000000008152600401611e5e9061296e565b60405180910390fd5b600090505b92915050565b600080828401905083811015611ef0576040517f08c379a000000000000000000000000000000000000000000000000000000000815260040180806020018281038252601b8152602001807f536166654d6174683a206164646974696f6e206f766572666c6f77000000000081525060200191505060405180910390fd5b8091505092915050565b6000838311158290611fa7576040517f08c379a00000000000000000000000000000000000000000000000000000000081526004018080602001828103825283818151815260200191508051906020019080838360005b83811015611f6c578082015181840152602081019050611f51565b50505050905090810190601f168015611f995780820380516001836020036101000a031916815260200191505b509250505060405180910390fd5b5060008385039050809150509392505050565b60405180606001604052806060815260200160008152602001606081525090565b6040518060800160405280600081526020016000815260200160008152602001600081525090565b6040518060a001604052806000600181111561201b57fe5b81526020016000600781111561202d57fe5b81526020016000815260200160008152602001600081525090565b600061205b61205684612a17565b6129e6565b905080838252602082019050828560a086028201111561207a57600080fd5b60005b858110156120aa57816120908882612108565b845260208401935060a0830192505060018101905061207d565b5050509392505050565b600082601f8301126120c557600080fd5b81356120d5848260208601612048565b91505092915050565b6000813590506120ed81612c05565b92915050565b60008135905061210281612c15565b92915050565b600060a0828403121561211a57600080fd5b61212460a06129e6565b90506000612134848285016120de565b6000830152506020612148848285016120f3565b602083015250604061215c84828501612190565b604083015250606061217084828501612190565b606083015250608061218484828501612190565b60808301525092915050565b60008135905061219f81612c25565b92915050565b6000815190506121b481612c25565b92915050565b6000602082840312156121cc57600080fd5b600082013567ffffffffffffffff8111156121e657600080fd5b6121f2848285016120b4565b91505092915050565b60008060006060848603121561221057600080fd5b600084013567ffffffffffffffff81111561222a57600080fd5b612236868287016120b4565b9350506020612247868287016120f3565b925050604061225886828701612190565b9150509250925092565b60006020828403121561227457600080fd5b600061228284828501612190565b91505092915050565b60006020828403121561229d57600080fd5b60006122ab848285016121a5565b91505092915050565b60006122c0838361274d565b60408301905092915050565b60006122d8838361277c565b60a08301905092915050565b6122ed81612b3d565b82525050565b60006122fe82612a63565b6123088185612a9e565b935061231383612a43565b8060005b8381101561234457815161232b88826122b4565b975061233683612a84565b925050600181019050612317565b5085935050505092915050565b600061235c82612a63565b6123668185612aaf565b935061237183612a43565b8060005b838110156123a257815161238988826122b4565b975061239483612a84565b925050600181019050612375565b5085935050505092915050565b60006123ba82612a6e565b6123c48185612ac0565b93506123cf83612a53565b8060005b838110156124005781516123e788826122cc565b97506123f283612a91565b9250506001810190506123d3565b5085935050505092915050565b61241681612b4f565b82525050565b61242581612b61565b82525050565b600061243682612a79565b6124408185612ad1565b9350612450818560208601612b97565b61245981612bcc565b840191505092915050565b600061246f82612a79565b6124798185612ae2565b9350612489818560208601612b97565b80840191505092915050565b60006124a2601383612ad1565b91507f4661726d20616c726561647920657869737473000000000000000000000000006000830152602082019050919050565b60006124e2602b83612ad1565b91507f496e76616c6964206661726d3a204e6f7420656e6f756768206d6f6e6579207460008301527f6f206275792073656564730000000000000000000000000000000000000000006020830152604082019050919050565b6000612548601383612ad1565b91507f4661726d20646f6573206e6f74206578697374000000000000000000000000006000830152602082019050919050565b6000612588601d83612ad1565b91507f496e76616c6964206661726d3a204e6f206672756974206578697374730000006000830152602082019050919050565b60006125c8603283612ad1565b91507f596f7520617265206e6f7420657870657269656e63656420656e6f756768207460008301527f6f20706c616e74207468697320667275697400000000000000000000000000006020830152604082019050919050565b600061262e601c83612ad1565b91507f4661726d2063616e206e6f742067726f7720616e7920626967676572000000006000830152602082019050919050565b600061266e600d83612ad1565b91507f496e76616c6964206672756974000000000000000000000000000000000000006000830152602082019050919050565b600060608301600083015184820360008601526126be82826122f3565b91505060208301516126d360208601826127e4565b50604083015184820360408601526126eb82826123af565b9150508091505092915050565b60808201600082015161270e60008501826127e4565b50602082015161272160208501826127e4565b50604082015161273460408501826127e4565b50606082015161274760608501826127e4565b50505050565b604082016000820151612763600085018261241c565b50602082015161277660208501826127e4565b50505050565b60a082016000820151612792600085018261240d565b5060208201516127a5602085018261241c565b5060408201516127b860408501826127e4565b5060608201516127cb60608501826127e4565b5060808201516127de60808501826127e4565b50505050565b6127ed81612b33565b82525050565b6127fc81612b33565b82525050565b600061280e8285612464565b915061281a8284612464565b91508190509392505050565b600060208201905061283b60008301846122e4565b92915050565b600060408201905061285660008301856122e4565b61286360208301846127f3565b9392505050565b600060208201905081810360008301526128848184612351565b905092915050565b600060208201905081810360008301526128a6818461242b565b905092915050565b600060208201905081810360008301526128c781612495565b9050919050565b600060208201905081810360008301526128e7816124d5565b9050919050565b600060208201905081810360008301526129078161253b565b9050919050565b600060208201905081810360008301526129278161257b565b9050919050565b60006020820190508181036000830152612947816125bb565b9050919050565b6000602082019050818103600083015261296781612621565b9050919050565b6000602082019050818103600083015261298781612661565b9050919050565b600060208201905081810360008301526129a881846126a1565b905092915050565b60006080820190506129c560008301846126f8565b92915050565b60006020820190506129e060008301846127f3565b92915050565b6000604051905081810181811067ffffffffffffffff82111715612a0d57612a0c612bca565b5b8060405250919050565b600067ffffffffffffffff821115612a3257612a31612bca565b5b602082029050602081019050919050565b6000819050602082019050919050565b6000819050602082019050919050565b600081519050919050565b600081519050919050565b600081519050919050565b6000602082019050919050565b6000602082019050919050565b600082825260208201905092915050565b600082825260208201905092915050565b600082825260208201905092915050565b600082825260208201905092915050565b600081905092915050565b6000819050612afb82612bdd565b919050565b6000819050612b0e82612bf1565b919050565b600073ffffffffffffffffffffffffffffffffffffffff82169050919050565b6000819050919050565b6000612b4882612b73565b9050919050565b6000612b5a82612aed565b9050919050565b6000612b6c82612b00565b9050919050565b6000612b7e82612b85565b9050919050565b6000612b9082612b13565b9050919050565b60005b83811015612bb5578082015181840152602081019050612b9a565b83811115612bc4576000848401525b50505050565bfe5b6000601f19601f8301169050919050565b60028110612bee57612bed612bca565b5b50565b60088110612c0257612c01612bca565b5b50565b60028110612c1257600080fd5b50565b60088110612c2257600080fd5b50565b612c2e81612b33565b8114612c3957600080fd5b5056fe4e6f7420656e6f756768206d6f6e657920746f20627579206e6577206669656c64733a20496e76616c6964206661726d3a20546865206672756974206973206e6f7420726970652c20706c6561736520776169743a20a264697066735822122073b8e52681fd322b24474d083fc12afb9317e45cbbdc765de32a3e8e349d30e864736f6c63430007060033",
  "immutableReferences": {},
  "source": "pragma solidity >=0.6.0 <0.8.0;\r\npragma experimental ABIEncoderV2;\r\n\r\nimport \"@openzeppelin/contracts/math/Math.sol\";\r\nimport \"./Token.sol\";\r\n\r\ncontract Farm {\r\n    using SafeMath for uint256;\r\n\r\n    //assign Token contract to variable\r\n    Token private token;\r\n    uint NOW_TIMESTAMP = 69;\r\n    uint totalHoursHarvested = 0;\r\n    //uint DECIMAL_PLACES = 2;\r\n\r\n    struct Square {\r\n        Fruit commodity;\r\n        uint createdAt;\r\n    }\r\n\r\n    mapping(address => Square[]) fields;\r\n    mapping(address => uint) playersExperience;\r\n\r\n    //pass as constructor argument deployed Token contract\r\n    constructor(Token _token) public {\r\n        //assign token deployed contract to variable\r\n        token = _token;\r\n\r\n        // Initial prices\r\n        market[NOW_TIMESTAMP] = Prices({\r\n            apples: 100, \r\n            avocados: 400,\r\n            timestamp: block.timestamp,\r\n            previousTimestamp: 0\r\n        });\r\n    }\r\n\r\n    event FarmCreated(address indexed _address);\r\n    event FarmSynced(address indexed _address);\r\n\r\n    function createFarm() public {\r\n        require(fields[msg.sender].length == 0, \"Farm already exists\");\r\n\r\n        Square[] storage land = fields[msg.sender];\r\n        Square memory empty = Square(Fruit.None, 0);\r\n        Square memory apple = Square(Fruit.Apple, block.timestamp);\r\n\r\n        land.push(empty);\r\n        land.push(apple);\r\n        land.push(apple);\r\n        land.push(apple);\r\n        land.push(empty);\r\n\r\n        Transaction[] memory transactions;\r\n\r\n        //Emit an event\r\n        emit FarmCreated(msg.sender);\r\n    }\r\n\r\n    function sqrt(uint x) private pure returns (uint y) {\r\n        uint z = (x + 1) / 2;\r\n        y = x;\r\n        while (z < y) {\r\n            y = z;\r\n            z = (x / z + z) / 2;\r\n        }\r\n    }\r\n\r\n    function experienceToLevel(uint experience) private view returns (uint level) {\r\n        if (experience < 3) {\r\n            return 1;\r\n        } else if (experience < 50) {\r\n            return 2;\r\n        } else if (experience < 850) {\r\n            return 3;\r\n        } else if (experience < 7000) {\r\n            return 4;\r\n        } else if (experience < 18720) {\r\n            return 5;\r\n        } else if (experience < 148920) {\r\n            return 6;\r\n        }\r\n\r\n        return 7;\r\n    }\r\n\r\n    function getLevel() public view returns (uint level) {\r\n        uint experience = playersExperience[msg.sender];\r\n\r\n        return experienceToLevel(experience);\r\n    }\r\n\r\n    function getLandPrice(uint landSize) private view returns (uint price) {\r\n        if (landSize <= 5) {\r\n            return 50 * 100;\r\n        } else if (landSize <= 8) {\r\n            return 500 * 100;\r\n        } else if (landSize <= 11) {\r\n            return 5000 * 100;\r\n        }\r\n\r\n        return 50000 * 100;\r\n    }\r\n\r\n    function buyMoreSpace(Transaction[] memory _transactions) public {\r\n        Farm memory farm = sync(_transactions);\r\n        require(fields[msg.sender].length > 0, \"Farm does not exist\");\r\n        require(fields[msg.sender].length <= 17, \"Farm can not grow any bigger\");\r\n\r\n        Square[] storage land = fields[msg.sender];\r\n        uint newFields = 3;\r\n\r\n        uint price = getLandPrice(land.length);\r\n        string memory priceString = uint2str(price);\r\n        string memory message = concatenate(\"Not enough money to buy new fields: \", priceString);\r\n        require(farm.balance >= price, message);\r\n\r\n        Square memory empty = Square(Fruit.None, 0);\r\n        // Do not bother rearranging the array - it is already in a strange square!\r\n        for (uint index = 0; index < newFields; index++) {\r\n            land.push(empty);\r\n        }\r\n\r\n\r\n        // TODO - Add the new spots\r\n        uint fmc = dollarToFMC(price);\r\n        token.burn(msg.sender, fmc);\r\n    }\r\n\r\n    function getLand() public view returns (Square[] memory) {\r\n        return fields[msg.sender];\r\n    }\r\n\r\n    enum Action { Plant, Harvest }\r\n    uint FRUIT_COUNT = 2;\r\n    enum Fruit { None, Apple, Avocado, Banana, Coconut, Pineapple, Money, Diamond }\r\n\r\n    struct Transaction { \r\n        Action action;\r\n        Fruit commodity;\r\n        // Unique prices key\r\n        uint timestamp;\r\n        uint landIndex;\r\n        uint createdAt;\r\n    }\r\n\r\n    uint MAX_AVOCADO_PRICE = 500;\r\n    uint MIN_AVOCADO_PRICE = 300;\r\n\r\n    struct Prices {\r\n        uint apples;\r\n        uint avocados;\r\n        uint timestamp;\r\n        uint previousTimestamp;\r\n    }\r\n     \r\n    mapping(uint => Prices) market;\r\n\r\n    struct Farm {\r\n        Square[] land;\r\n        uint balance;\r\n        Transaction[] transactions;\r\n    }\r\n\r\n    function getHarvestHours(Fruit _commodity) private view returns (uint) {\r\n        if (_commodity == Fruit.Apple) {\r\n            return 1;\r\n        } else if (_commodity == Fruit.Avocado) {\r\n            return 3;\r\n        } else if (_commodity == Fruit.Banana) {\r\n            return 8;\r\n        } else if (_commodity == Fruit.Coconut) {\r\n            // 1 Day\r\n            return 24;\r\n        } else if (_commodity == Fruit.Pineapple) {\r\n            // 3 days\r\n            return 72;\r\n        } else if (_commodity == Fruit.Money) {\r\n            // 1 week\r\n            return 168;\r\n        } else if (_commodity == Fruit.Diamond) {\r\n            // 4 weeks\r\n            return 672;\r\n        }\r\n\r\n        require(false, \"Invalid fruit\");\r\n        return 9999999;\r\n    }\r\n\r\n    function getSeedPrice(Prices memory prices, Fruit _commodity) private view returns (uint price) {\r\n        if (_commodity == Fruit.Apple) {\r\n            // $0.05\r\n            return 5;\r\n        } else if (_commodity == Fruit.Avocado) {\r\n            // $0.10\r\n            return 10;\r\n        } else if (_commodity == Fruit.Banana) {\r\n            // $0.20\r\n            return 2;\r\n        } else if (_commodity == Fruit.Coconut) {\r\n            // $1\r\n            return 100;\r\n        } else if (_commodity == Fruit.Pineapple) {\r\n            // $5\r\n            return 500;\r\n        } else if (_commodity == Fruit.Money) {\r\n            // $50\r\n            return 5000;\r\n        } else if (_commodity == Fruit.Diamond) {\r\n            // $1000\r\n            return 100000;\r\n        }\r\n\r\n        require(false, \"Invalid fruit\");\r\n\r\n        return 0;\r\n    }\r\n\r\n    function getFruitPrice(Prices memory prices, Fruit _commodity) private view returns (uint price) {\r\n        if (_commodity == Fruit.Apple) {\r\n            // $0.10\r\n            return 10;\r\n        } else if (_commodity == Fruit.Avocado) {\r\n            // $0.40\r\n            return 40;\r\n        } else if (_commodity == Fruit.Banana) {\r\n            // $2\r\n            return 200;\r\n        } else if (_commodity == Fruit.Coconut) {\r\n            // $7.5\r\n            return 750;\r\n        } else if (_commodity == Fruit.Pineapple) {\r\n            // $27\r\n            return 2700;\r\n        } else if (_commodity == Fruit.Money) {\r\n            // $100\r\n            return 10000;\r\n        } else if (_commodity == Fruit.Diamond) {\r\n            // $1275\r\n            return 127500;\r\n        }\r\n\r\n        require(false, \"Invalid fruit\");\r\n\r\n        return 0;\r\n    }\r\n\r\n    function concatenate(\r\n        string memory a,\r\n        string memory b)\r\n        internal\r\n        pure\r\n        returns(string memory) {\r\n            return string(abi.encodePacked(a, b));\r\n        }\r\n\r\n    function uint2str(uint _i) internal pure returns (string memory _uintAsString) {\r\n        if (_i == 0) {\r\n            return \"0\";\r\n        }\r\n        uint j = _i;\r\n        uint len;\r\n        while (j != 0) {\r\n            len++;\r\n            j /= 10;\r\n        }\r\n        bytes memory bstr = new bytes(len);\r\n        uint k = len;\r\n        while (_i != 0) {\r\n            k = k-1;\r\n            uint8 temp = (48 + uint8(_i - _i / 10 * 10));\r\n            bytes1 b1 = bytes1(temp);\r\n            bstr[k] = b1;\r\n            _i /= 10;\r\n        }\r\n        return string(bstr);\r\n    }\r\n\r\n    function buildFarm(Transaction[] memory _transactions) private view returns (Farm memory currentFarm) {\r\n        require(fields[msg.sender].length > 0, \"Farm does not exist\");\r\n\r\n        Square[] memory land = fields[msg.sender];\r\n        uint balance = getBalance();\r\n        uint experience = playersExperience[msg.sender];\r\n\r\n        for (uint index = 0; index < _transactions.length; index++) {\r\n            uint level = experienceToLevel(experience);\r\n\r\n            Transaction memory transaction = _transactions[index];\r\n            require(level >= uint(transaction.commodity), \"You are not experienced enough to plant this fruit\");\r\n\r\n            Prices memory prices = market[transaction.timestamp];\r\n            \r\n            if (transaction.action == Action.Plant) {\r\n                uint price = getSeedPrice(prices, transaction.commodity);\r\n\r\n                require(balance >= price, \"Invalid farm: Not enough money to buy seeds\");\r\n                balance = balance.sub(price);\r\n\r\n                Square memory plantedSeed = Square({\r\n                    commodity: transaction.commodity,\r\n                    // TODO - When they sync the far6 will be at the time of the farm :(\r\n                    createdAt: transaction.createdAt\r\n                });\r\n                land[transaction.landIndex] = plantedSeed;\r\n            } else if (transaction.action == Action.Harvest) {\r\n                Square memory square = land[transaction.landIndex];\r\n                require(square.commodity == transaction.commodity, \"Invalid farm: No fruit exists\");\r\n\r\n                uint duration = block.timestamp - square.createdAt;\r\n                string memory durationString = uint2str(duration);\r\n                string memory message = concatenate(\"Invalid farm: The fruit is not ripe, please wait: \", durationString);\r\n                uint hoursToHarvest = getHarvestHours(transaction.commodity);\r\n                require(duration > hoursToHarvest, message);\r\n\r\n                // Clear the land\r\n                Square memory emptyLand = Square(Fruit.None, 0);\r\n                land[transaction.landIndex] = emptyLand;\r\n\r\n                uint price = getFruitPrice(prices, transaction.commodity);\r\n\r\n                balance = balance.add(price);\r\n                experience += hoursToHarvest;\r\n            }\r\n        }\r\n\r\n        return Farm({\r\n            land: land,\r\n            balance: balance,\r\n            transactions: _transactions\r\n        });\r\n    }\r\n\r\n    function clamp(uint value, uint minimum, uint maximum) private pure returns (uint clamped) {\r\n        if (value < minimum) {\r\n            return minimum;\r\n        }\r\n\r\n        if (value > maximum) {\r\n            return maximum;\r\n        }\r\n\r\n        return value;\r\n    }\r\n\r\n    // Assume the proportional number of transactions is what influences price\r\n    // Since at the time of transaction, they will likely be buying something and have sold all their seeds\r\n    // function moveTheMarket(Transaction[] memory _transactions) public {\r\n    //     uint apples = 0;\r\n    //     uint avocados = 0;\r\n\r\n    //     // What is the biggest mover?\r\n    //     for (uint i=0; i < _transactions.length; i += 1) {\r\n    //         if (_transactions[i].commodity == Fruit.Apple) {\r\n    //             apples += 1;\r\n    //         } else if ( _transactions[i].commodity == Fruit.Avocado) {\r\n    //             avocados += 1;\r\n    //         }\r\n    //     }\r\n\r\n    //     uint totalFruitTransactions = apples + avocados;\r\n\r\n    //     if (totalFruitTransactions == 0) {\r\n    //         // TODO still update the timestamps being used\r\n    //         return;\r\n    //     }\r\n\r\n    //     // Percentage of transactions that were apples\r\n    //     uint applePercentage = 0;\r\n    //     if (apples > 0) {\r\n    //         applePercentage = totalFruitTransactions * 100;\r\n    //     } \r\n    //     uint avocadoPercentage = 0;\r\n    //     if (avocados > 0) {\r\n    //         // 35%\r\n    //         avocadoPercentage = avocados / totalFruitTransactions * 100;\r\n    //     } \r\n\r\n    //     // 30%\r\n    //     uint expectedTransactions = 100 / FRUIT_COUNT;\r\n\r\n    //     // 5% \r\n    //     int avocadoChange = int(avocadoPercentage) - int(expectedTransactions);\r\n\r\n\r\n    //     //TODO even out the price from the previous hour - store transactions in the last hour?\r\n    //     int transactionCount = 1;\r\n    //     uint tenMinutesAgo = block.timestamp - (60 * 10);\r\n    //     Prices memory prices = market[NOW_TIMESTAMP];\r\n    //     while (prices.timestamp > tenMinutesAgo) {\r\n    //         transactionCount++;\r\n            \r\n    //         // Endless loop if we do not have this???\r\n    //         if (transactionCount >= 2) {\r\n    //             break;\r\n    //         }\r\n\r\n    //         // Back to the beginining\r\n    //         if (prices.previousTimestamp == 0) {\r\n    //             break;\r\n    //         }\r\n\r\n    //         prices = market[prices.previousTimestamp];\r\n    //     }\r\n\r\n    //     Prices memory currentPrices = market[NOW_TIMESTAMP];\r\n\r\n    //     // To avoid major market shifts, divide it\r\n    //     int MARKET_IMPACT = 10;\r\n    //     // 5% / 3 Transactions = 1.8%\r\n    //     int relativeAvocadoChange = avocadoChange / transactionCount / MARKET_IMPACT;\r\n    //     // 98.2% - we want to decrease it a little.\r\n    //     int percentage = 100 - relativeAvocadoChange;\r\n    //     // $5.23\r\n    //     uint avocadoPrice = currentPrices.avocados * uint(percentage) / 100;\r\n    //     // $5\r\n    //     uint clampedAvocadoPrice = clamp(avocadoPrice, MIN_AVOCADO_PRICE, MAX_AVOCADO_PRICE);\r\n\r\n    //     market[currentPrices.timestamp] = currentPrices;\r\n    //     market[NOW_TIMESTAMP] = Prices({\r\n    //         // Staple crop\r\n    //         apples: 100,\r\n    //         avocados: clampedAvocadoPrice,\r\n    //         timestamp: block.timestamp,\r\n    //         previousTimestamp: currentPrices.timestamp\r\n    //     });\r\n    // }\r\n\r\n    function getHoursHarvested(Transaction[] memory _transactions) private view returns (uint) {\r\n        uint secondsHarvested = 0;\r\n        for (uint i=0; i < _transactions.length; i += 1) {\r\n            if (_transactions[i].action == Action.Harvest) {\r\n                secondsHarvested = secondsHarvested + getHarvestHours(_transactions[i].commodity);\r\n            }\r\n        }\r\n\r\n        // Solidity uses integer division, which is equivalent to floored division.\r\n        // TESTING - return secondsHarvested / 3600;\r\n        return secondsHarvested * 10;\r\n    }\r\n\r\n    function sync(Transaction[] memory _transactions) public returns (Farm memory) {\r\n        uint balance = getBalance();\r\n        Farm memory farm = buildFarm(_transactions);\r\n\r\n        // Update the land\r\n        Square[] storage land = fields[msg.sender];\r\n        for (uint i=0; i < farm.land.length; i += 1) {\r\n            land[i] = farm.land[i];\r\n        }\r\n\r\n\r\n        // Update the balance - mint or burn\r\n        if (farm.balance > balance) {\r\n            uint profit = farm.balance - balance;\r\n            uint fmc = dollarToFMC(profit);\r\n            token.mint(msg.sender, fmc);\r\n        } else if (farm.balance < balance) {\r\n            uint loss = balance - farm.balance;\r\n            uint fmc = dollarToFMC(loss);\r\n            token.burn(msg.sender, fmc);\r\n        }\r\n\r\n        uint hoursFarmed = getHoursHarvested(_transactions);\r\n        playersExperience[msg.sender] += hoursFarmed;\r\n\r\n        totalHoursHarvested += hoursFarmed;\r\n\r\n        emit FarmSynced(msg.sender);\r\n        return farm;\r\n    }\r\n\r\n    // TODO - store the conversion & prices together on chain\r\n    // With 25 fields 24/7 for 1 year a user would harvest 219000 hours\r\n    // This would need 4 million harvesters to get to this threshold\r\n    uint ORIGINAL_CONVERSION = 1000000;\r\n\r\n    function getConversion() public view returns (uint conversion) {\r\n        if (totalHoursHarvested == 0) {\r\n            return ORIGINAL_CONVERSION;\r\n        }\r\n\r\n        uint hourRoot = sqrt(totalHoursHarvested);\r\n\r\n        // We are at the maximum conversion rate, now it is 1:1\r\n        // This is when 1e+12 hours have been harvested\r\n        if (hourRoot > ORIGINAL_CONVERSION) {\r\n            return 1;\r\n        }\r\n\r\n        return ORIGINAL_CONVERSION - hourRoot;\r\n    }\r\n\r\n    function dollarToFMC(uint dollars) public view returns (uint fmc) {\r\n        uint conversion = getConversion();\r\n        uint realFMC = dollars * conversion;\r\n\r\n        // Remove the decimal points\r\n        return realFMC / 100;\r\n    }\r\n\r\n    // Decimal places to multiple by 100\r\n    function FMCToDollar(uint fmc) public view returns (uint dollars) {\r\n        uint conversion = getConversion();\r\n        uint fmcWithDecimals = fmc * 100;\r\n        return fmcWithDecimals / conversion;\r\n    }\r\n\r\n    function getBalance() public view returns (uint balance) {\r\n        uint fmc = token.balanceOf(msg.sender);\r\n        return FMCToDollar(fmc);\r\n    }\r\n\r\n    function addTransaction(Transaction[] memory _transactions, Transaction memory _transaction) private view returns (Transaction[] memory) {\r\n        Transaction[] memory newTransactions = new Transaction[](_transactions.length + 1);\r\n        for (uint i=0; i < _transactions.length; i += 1) {\r\n            newTransactions[i] = _transactions[i];\r\n        }\r\n\r\n        // Add the new transaction\r\n        newTransactions[_transactions.length] = _transaction;\r\n\r\n        return newTransactions;\r\n    }\r\n\r\n    function plant(Transaction[] memory _transactions, Fruit _commodity, uint landIndex) public view returns (Farm memory farm) {\r\n        Prices memory currentPrices = market[NOW_TIMESTAMP];\r\n        Transaction memory plantAppleTransaction = Transaction({\r\n            action: Action.Plant,\r\n            commodity: _commodity,\r\n            timestamp: currentPrices.timestamp,\r\n            landIndex: landIndex,\r\n            createdAt: block.timestamp\r\n        });\r\n        Transaction[] memory newTransactions = addTransaction(_transactions, plantAppleTransaction);\r\n\r\n        Farm memory updatedFarm = buildFarm(newTransactions);\r\n        return (updatedFarm);\r\n    }\r\n\r\n    function harvest(Transaction[] memory _transactions, Fruit _commodity, uint landIndex) public view returns (Farm memory farm) {\r\n        // Add the new transaction\r\n        Prices memory currentPrices = market[NOW_TIMESTAMP];\r\n        Transaction memory plantAppleTransaction = Transaction({\r\n            action: Action.Harvest,\r\n            commodity: _commodity,\r\n            timestamp: currentPrices.timestamp,\r\n            landIndex: landIndex,\r\n            createdAt: block.timestamp\r\n        });\r\n        Transaction[] memory newTransactions = addTransaction(_transactions, plantAppleTransaction);\r\n\r\n        Farm memory updatedFarm = buildFarm(newTransactions);\r\n        return (updatedFarm);\r\n    }\r\n\r\n    function getPrices() public view returns (Prices memory price) {\r\n        return market[NOW_TIMESTAMP];\r\n    }\r\n\r\n    function getApplePrice() public view returns (uint price) {\r\n        return market[NOW_TIMESTAMP].apples;\r\n    }\r\n\r\n    function getAvocadoPrice() public view returns (uint price) {\r\n        return market[NOW_TIMESTAMP].avocados;\r\n    }\r\n}\r\n",
  "sourcePath": "/Users/adamhannigan/Documents/workspace/fruit-market/src/contracts/Farm.sol",
  "compiler": {
    "name": "solc",
    "version": "0.7.6+commit.7338295f.Emscripten.clang"
  },
  "schemaVersion": "3.4.0",
  "updatedAt": "2021-05-23T04:04:25.008Z",
  "networkType": "ethereum",
  "devdoc": {
    "kind": "dev",
    "methods": {},
    "version": 1
  },
  "userdoc": {
    "kind": "user",
    "methods": {},
    "version": 1
  }
}