{
  "contractName": "Farm",
  "abi": [
    {
      "inputs": [
        {
          "internalType": "contract Token",
          "name": "_token",
          "type": "address"
        }
      ],
      "stateMutability": "nonpayable",
      "type": "constructor"
    },
    {
      "anonymous": false,
      "inputs": [
        {
          "indexed": true,
          "internalType": "address",
          "name": "_address",
          "type": "address"
        }
      ],
      "name": "FarmCreated",
      "type": "event"
    },
    {
      "anonymous": false,
      "inputs": [
        {
          "indexed": true,
          "internalType": "address",
          "name": "_address",
          "type": "address"
        }
      ],
      "name": "FarmSynced",
      "type": "event"
    },
    {
      "inputs": [],
      "name": "createFarm",
      "outputs": [],
      "stateMutability": "nonpayable",
      "type": "function"
    },
    {
      "inputs": [],
      "name": "lastSyncedAt",
      "outputs": [
        {
          "internalType": "uint256",
          "name": "",
          "type": "uint256"
        }
      ],
      "stateMutability": "view",
      "type": "function",
      "constant": true
    },
    {
      "inputs": [],
      "name": "getLand",
      "outputs": [
        {
          "components": [
            {
              "internalType": "enum Farm.Fruit",
              "name": "fruit",
              "type": "uint8"
            },
            {
              "internalType": "uint256",
              "name": "createdAt",
              "type": "uint256"
            }
          ],
          "internalType": "struct Farm.Square[]",
          "name": "",
          "type": "tuple[]"
        }
      ],
      "stateMutability": "view",
      "type": "function",
      "constant": true
    },
    {
      "inputs": [
        {
          "components": [
            {
              "internalType": "enum Farm.Action",
              "name": "action",
              "type": "uint8"
            },
            {
              "internalType": "enum Farm.Fruit",
              "name": "fruit",
              "type": "uint8"
            },
            {
              "internalType": "uint256",
              "name": "landIndex",
              "type": "uint256"
            },
            {
              "internalType": "uint256",
              "name": "createdAt",
              "type": "uint256"
            }
          ],
          "internalType": "struct Farm.Event[]",
          "name": "_events",
          "type": "tuple[]"
        }
      ],
      "name": "buildFarm",
      "outputs": [
        {
          "components": [
            {
              "components": [
                {
                  "internalType": "enum Farm.Fruit",
                  "name": "fruit",
                  "type": "uint8"
                },
                {
                  "internalType": "uint256",
                  "name": "createdAt",
                  "type": "uint256"
                }
              ],
              "internalType": "struct Farm.Square[]",
              "name": "land",
              "type": "tuple[]"
            },
            {
              "internalType": "uint256",
              "name": "balance",
              "type": "uint256"
            }
          ],
          "internalType": "struct Farm.Farm",
          "name": "currentFarm",
          "type": "tuple"
        }
      ],
      "stateMutability": "view",
      "type": "function",
      "constant": true
    },
    {
      "inputs": [
        {
          "components": [
            {
              "internalType": "enum Farm.Action",
              "name": "action",
              "type": "uint8"
            },
            {
              "internalType": "enum Farm.Fruit",
              "name": "fruit",
              "type": "uint8"
            },
            {
              "internalType": "uint256",
              "name": "landIndex",
              "type": "uint256"
            },
            {
              "internalType": "uint256",
              "name": "createdAt",
              "type": "uint256"
            }
          ],
          "internalType": "struct Farm.Event[]",
          "name": "_events",
          "type": "tuple[]"
        }
      ],
      "name": "sync",
      "outputs": [
        {
          "components": [
            {
              "components": [
                {
                  "internalType": "enum Farm.Fruit",
                  "name": "fruit",
                  "type": "uint8"
                },
                {
                  "internalType": "uint256",
                  "name": "createdAt",
                  "type": "uint256"
                }
              ],
              "internalType": "struct Farm.Square[]",
              "name": "land",
              "type": "tuple[]"
            },
            {
              "internalType": "uint256",
              "name": "balance",
              "type": "uint256"
            }
          ],
          "internalType": "struct Farm.Farm",
          "name": "",
          "type": "tuple"
        }
      ],
      "stateMutability": "nonpayable",
      "type": "function"
    },
    {
      "inputs": [],
      "name": "levelUp",
      "outputs": [],
      "stateMutability": "nonpayable",
      "type": "function"
    },
    {
      "inputs": [
        {
          "internalType": "uint256",
          "name": "price",
          "type": "uint256"
        }
      ],
      "name": "getMarketPrice",
      "outputs": [
        {
          "internalType": "uint256",
          "name": "conversion",
          "type": "uint256"
        }
      ],
      "stateMutability": "view",
      "type": "function",
      "constant": true
    },
    {
      "inputs": [],
      "name": "getNow",
      "outputs": [
        {
          "internalType": "uint256",
          "name": "time",
          "type": "uint256"
        }
      ],
      "stateMutability": "view",
      "type": "function",
      "constant": true
    }
  ],
  "bytecode": "0x60806040526107086003553480156200001757600080fd5b50604051620030ea380380620030ea83398181016040528101906200003d91906200009b565b806000806101000a81548173ffffffffffffffffffffffffffffffffffffffff021916908373ffffffffffffffffffffffffffffffffffffffff1602179055505062000129565b60008151905062000095816200010f565b92915050565b600060208284031215620000ae57600080fd5b6000620000be8482850162000084565b91505092915050565b6000620000d482620000ef565b9050919050565b6000620000e882620000c7565b9050919050565b600073ffffffffffffffffffffffffffffffffffffffff82169050919050565b6200011a81620000db565b81146200012657600080fd5b50565b612fb180620001396000396000f3fe608060405234801561001057600080fd5b50600436106100885760003560e01c8063775778401161005b57806377577840146100dd5780638928378e1461010d578063bbe4fd501461013d578063d53f9c9b1461015b57610088565b80631d5ec3cb1461008d578063285532dd146100975780634ea1ecf9146100b55780635690314c146100bf575b600080fd5b61009561018b565b005b61009f61050c565b6040516100ac9190612d0b565b60405180910390f35b6100bd610553565b005b6100c7610a88565b6040516100d49190612b45565b60405180910390f35b6100f760048036038101906100f291906124ab565b610b5b565b6040516101049190612ce9565b60405180910390f35b610127600480360381019061012291906124ec565b611180565b6040516101349190612d0b565b60405180910390f35b61014561119f565b6040516101529190612d0b565b60405180910390f35b610175600480360381019061017091906124ab565b6111a7565b6040516101829190612ce9565b60405180910390f35b6000600260003373ffffffffffffffffffffffffffffffffffffffff1673ffffffffffffffffffffffffffffffffffffffff16815260200190815260200160002054905060008114610212576040517f08c379a000000000000000000000000000000000000000000000000000000000815260040161020990612b89565b60405180910390fd5b6000600160003373ffffffffffffffffffffffffffffffffffffffff1673ffffffffffffffffffffffffffffffffffffffff1681526020019081526020016000209050600060405180604001604052806000600781111561026f57fe5b8152602001428152509050600060405180604001604052806001600781111561029457fe5b81526020014281525090508282908060018154018082558091505060019003906000526020600020906002020160009091909190915060008201518160000160006101000a81548160ff021916908360078111156102ee57fe5b02179055506020820151816001015550508281908060018154018082558091505060019003906000526020600020906002020160009091909190915060008201518160000160006101000a81548160ff0219169083600781111561034e57fe5b02179055506020820151816001015550508281908060018154018082558091505060019003906000526020600020906002020160009091909190915060008201518160000160006101000a81548160ff021916908360078111156103ae57fe5b02179055506020820151816001015550508281908060018154018082558091505060019003906000526020600020906002020160009091909190915060008201518160000160006101000a81548160ff0219169083600781111561040e57fe5b02179055506020820151816001015550508282908060018154018082558091505060019003906000526020600020906002020160009091909190915060008201518160000160006101000a81548160ff0219169083600781111561046e57fe5b021790555060208201518160010155505042600260003373ffffffffffffffffffffffffffffffffffffffff1673ffffffffffffffffffffffffffffffffffffffff168152602001908152602001600020819055503373ffffffffffffffffffffffffffffffffffffffff167f46963f16723a084f2199eb74021bd97647aa6c8960612a9a031ce509d40d4ca760405160405180910390a250505050565b6000600260003373ffffffffffffffffffffffffffffffffffffffff1673ffffffffffffffffffffffffffffffffffffffff16815260200190815260200160002054905090565b600061055d61050c565b1161059d576040517f08c379a000000000000000000000000000000000000000000000000000000000815260040161059490612c69565b60405180910390fd5b6011600160003373ffffffffffffffffffffffffffffffffffffffff1673ffffffffffffffffffffffffffffffffffffffff168152602001908152602001600020805490501115610623576040517f08c379a000000000000000000000000000000000000000000000000000000000815260040161061a90612c49565b60405180910390fd5b6000600160003373ffffffffffffffffffffffffffffffffffffffff1673ffffffffffffffffffffffffffffffffffffffff1681526020019081526020016000209050600061067061157e565b90506000610681838054905061175b565b9050600061068e82611180565b9050600061069b82611857565b905060006106de6040518060400160405280601e81526020017f4e6f7420656e6f756768206d6f6e657920746f206c6576656c2075703a200000815250836119a7565b905060008060009054906101000a900473ffffffffffffffffffffffffffffffffffffffff1673ffffffffffffffffffffffffffffffffffffffff166370a08231336040518263ffffffff1660e01b815260040161073c9190612ad8565b60206040518083038186803b15801561075457600080fd5b505afa158015610768573d6000803e3d6000fd5b505050506040513d601f19601f8201168201806040525081019061078c9190612515565b90508381101582906107d4576040517f08c379a00000000000000000000000000000000000000000000000000000000081526004016107cb9190612b67565b60405180910390fd5b5060006040518060400160405280600060078111156107ef57fe5b815260200142815250905060005b6003811015610873578882908060018154018082558091505060019003906000526020600020906002020160009091909190915060008201518160000160006101000a81548160ff0219169083600781111561085557fe5b021790555060208201518160010155505080806001019150506107fd565b5060008054906101000a900473ffffffffffffffffffffffffffffffffffffffff1673ffffffffffffffffffffffffffffffffffffffff16639dc29fac33876040518363ffffffff1660e01b81526004016108cf929190612af3565b600060405180830381600087803b1580156108e957600080fd5b505af11580156108fd573d6000803e3d6000fd5b5050505060006005868161090d57fe5b04905060008054906101000a900473ffffffffffffffffffffffffffffffffffffffff1673ffffffffffffffffffffffffffffffffffffffff166340c10f1960008054906101000a900473ffffffffffffffffffffffffffffffffffffffff1673ffffffffffffffffffffffffffffffffffffffff1663893d20e86040518163ffffffff1660e01b815260040160206040518083038186803b1580156109b257600080fd5b505afa1580156109c6573d6000803e3d6000fd5b505050506040513d601f19601f820116820180604052508101906109ea9190612482565b836040518363ffffffff1660e01b8152600401610a08929190612b1c565b600060405180830381600087803b158015610a2257600080fd5b505af1158015610a36573d6000803e3d6000fd5b505050503373ffffffffffffffffffffffffffffffffffffffff167fbe35fe23c13a419d565edccb8c8bdedc160c5b9a82873e431b545080d6f3c68860405160405180910390a2505050505050505050565b6060600160003373ffffffffffffffffffffffffffffffffffffffff1673ffffffffffffffffffffffffffffffffffffffff168152602001908152602001600020805480602002602001604051908101604052809291908181526020016000905b82821015610b5257838290600052602060002090600202016040518060400160405290816000820160009054906101000a900460ff166007811115610b2a57fe5b6007811115610b3557fe5b815260200160018201548152505081526020019060010190610ae9565b50505050905090565b610b636122e0565b6000600160003373ffffffffffffffffffffffffffffffffffffffff1673ffffffffffffffffffffffffffffffffffffffff168152602001908152602001600020805480602002602001604051908101604052809291908181526020016000905b82821015610c2d57838290600052602060002090600202016040518060400160405290816000820160009054906101000a900460ff166007811115610c0557fe5b6007811115610c1057fe5b815260200160018201548152505081526020019060010190610bc4565b50505050905060008060009054906101000a900473ffffffffffffffffffffffffffffffffffffffff1673ffffffffffffffffffffffffffffffffffffffff166370a08231336040518263ffffffff1660e01b8152600401610c8f9190612ad8565b60206040518083038186803b158015610ca757600080fd5b505afa158015610cbb573d6000803e3d6000fd5b505050506040513d601f19601f82011682018060405250810190610cdf9190612515565b90506000610ceb61157e565b905060005b8551811015611160576000868281518110610d0757fe5b602002602001015190506000600354420390508082606001511015610d61576040517f08c379a0000000000000000000000000000000000000000000000000000000008152600401610d5890612c89565b60405180910390fd5b610d6961050c565b82606001511015610daf576040517f08c379a0000000000000000000000000000000000000000000000000000000008152600401610da690612be9565b60405180910390fd5b4282606001511115610df6576040517f08c379a0000000000000000000000000000000000000000000000000000000008152600401610ded90612c29565b60405180910390fd5b6000831115610e6157876001840381518110610e0e57fe5b60200260200101516060015182606001511015610e60576040517f08c379a0000000000000000000000000000000000000000000000000000000008152600401610e5790612bc9565b60405180910390fd5b5b60006001811115610e6e57fe5b82600001516001811115610e7e57fe5b1415610f9a57610e9182602001516119d3565b86511015610ed4576040517f08c379a0000000000000000000000000000000000000000000000000000000008152600401610ecb90612ca9565b60405180910390fd5b6000610ee38360200151611b29565b90506000610ef082611180565b905080871015610f35576040517f08c379a0000000000000000000000000000000000000000000000000000000008152600401610f2c90612c09565b60405180910390fd5b610f488188611d8190919063ffffffff16565b96506000604051806040016040528086602001516007811115610f6757fe5b8152602001866060015181525090508089866040015181518110610f8757fe5b6020026020010181905250505050611151565b600180811115610fa657fe5b82600001516001811115610fb657fe5b141561115057600086836040015181518110610fce57fe5b6020026020010151905060006007811115610fe557fe5b81600001516007811115610ff557fe5b1415611036576040517f08c379a000000000000000000000000000000000000000000000000000000000815260040161102d90612ba9565b60405180910390fd5b60008160200151846060015103905060006110548360000151611dcb565b90506000611063838303611857565b90506000611089604051806060016040528060248152602001612f5860249139836119a7565b90508284101581906110d1576040517f08c379a00000000000000000000000000000000000000000000000000000000081526004016110c89190612b67565b60405180910390fd5b5060006040518060400160405280600060078111156110ec57fe5b815260200160008152509050808c89604001518151811061110957fe5b602002602001018190525060006111238760000151611f32565b9050600061113082611180565b9050611145818e61219890919063ffffffff16565b9c5050505050505050505b5b50508080600101915050610cf0565b506040518060400160405280848152602001838152509350505050919050565b60008061118b61157e565b905080838161119657fe5b04915050919050565b600042905090565b6111af6122e0565b60006111b961050c565b116111f9576040517f08c379a00000000000000000000000000000000000000000000000000000000081526004016111f090612c69565b60405180910390fd5b60008060009054906101000a900473ffffffffffffffffffffffffffffffffffffffff1673ffffffffffffffffffffffffffffffffffffffff166370a08231336040518263ffffffff1660e01b81526004016112559190612ad8565b60206040518083038186803b15801561126d57600080fd5b505afa158015611281573d6000803e3d6000fd5b505050506040513d601f19601f820116820180604052508101906112a59190612515565b905060006112b284610b5b565b90506000600160003373ffffffffffffffffffffffffffffffffffffffff1673ffffffffffffffffffffffffffffffffffffffff168152602001908152602001600020905060005b82600001515181101561137a578260000151818151811061131757fe5b602002602001015182828154811061132b57fe5b906000526020600020906002020160008201518160000160006101000a81548160ff0219169083600781111561135d57fe5b0217905550602082015181600101559050506001810190506112fa565b5082826020015111156114355760006113a0848460200151611d8190919063ffffffff16565b905060008054906101000a900473ffffffffffffffffffffffffffffffffffffffff1673ffffffffffffffffffffffffffffffffffffffff166340c10f1933836040518363ffffffff1660e01b81526004016113fd929190612af3565b600060405180830381600087803b15801561141757600080fd5b505af115801561142b573d6000803e3d6000fd5b50505050506114ec565b82826020015110156114eb57600061145a836020015185611d8190919063ffffffff16565b905060008054906101000a900473ffffffffffffffffffffffffffffffffffffffff1673ffffffffffffffffffffffffffffffffffffffff16639dc29fac33836040518363ffffffff1660e01b81526004016114b7929190612af3565b600060405180830381600087803b1580156114d157600080fd5b505af11580156114e5573d6000803e3d6000fd5b50505050505b5b42600260003373ffffffffffffffffffffffffffffffffffffffff1673ffffffffffffffffffffffffffffffffffffffff168152602001908152602001600020819055503373ffffffffffffffffffffffffffffffffffffffff167fbe35fe23c13a419d565edccb8c8bdedc160c5b9a82873e431b545080d6f3c68860405160405180910390a2819350505050919050565b60008060008054906101000a900473ffffffffffffffffffffffffffffffffffffffff1673ffffffffffffffffffffffffffffffffffffffff1663313ce5676040518163ffffffff1660e01b815260040160206040518083038186803b1580156115e757600080fd5b505afa1580156115fb573d6000803e3d6000fd5b505050506040513d601f19601f8201168201806040525081019061161f919061253e565b60ff16905060008060009054906101000a900473ffffffffffffffffffffffffffffffffffffffff1673ffffffffffffffffffffffffffffffffffffffff166318160ddd6040518163ffffffff1660e01b815260040160206040518083038186803b15801561168d57600080fd5b505afa1580156116a1573d6000803e3d6000fd5b505050506040513d601f19601f820116820180604052508101906116c59190612515565b905081600a0a620f4240028110156116e257600192505050611758565b81600a0a612710028110156116fc57600a92505050611758565b81600a0a620186a00281101561171757606492505050611758565b81600a0a620186a002811015611733576103e892505050611758565b81600a0a620186a00281101561174f5761271092505050611758565b620186a0925050505b90565b60008060008054906101000a900473ffffffffffffffffffffffffffffffffffffffff1673ffffffffffffffffffffffffffffffffffffffff1663313ce5676040518163ffffffff1660e01b815260040160206040518083038186803b1580156117c457600080fd5b505afa1580156117d8573d6000803e3d6000fd5b505050506040513d601f19601f820116820180604052508101906117fc919061253e565b60ff169050600583116118185780600a0a600102915050611852565b6008831161182f5780600a0a600502915050611852565b600b83116118465780600a0a603202915050611852565b80600a0a611388029150505b919050565b6060600082141561189f576040518060400160405280600181526020017f300000000000000000000000000000000000000000000000000000000000000081525090506119a2565b600082905060005b600082146118c9578080600101915050600a82816118c157fe5b0491506118a7565b60008167ffffffffffffffff811180156118e257600080fd5b506040519080825280601f01601f1916602001820160405280156119155781602001600182028036833780820191505090505b50905060008290505b6000861461199a576001810390506000600a80888161193957fe5b04028703603001905060008160f81b90508084848151811061195757fe5b60200101907effffffffffffffffffffffffffffffffffffffffffffffffffffffffffffff1916908160001a905350600a888161199057fe5b049750505061191e565b819450505050505b919050565b606082826040516020016119bc929190612ab4565b604051602081830303815290604052905092915050565b6000600160078111156119e257fe5b8260078111156119ee57fe5b1480611a10575060026007811115611a0257fe5b826007811115611a0e57fe5b145b15611a1e5760059050611b24565b60036007811115611a2b57fe5b826007811115611a3757fe5b1480611a59575060046007811115611a4b57fe5b826007811115611a5757fe5b145b15611a675760089050611b24565b60056007811115611a7457fe5b826007811115611a8057fe5b1415611a8f57600b9050611b24565b60066007811115611a9c57fe5b826007811115611aa857fe5b1415611ab757600e9050611b24565b600780811115611ac357fe5b826007811115611acf57fe5b1415611ade5760119050611b24565b6000611b1f576040517f08c379a0000000000000000000000000000000000000000000000000000000008152600401611b1690612cc9565b60405180910390fd5b606390505b919050565b60008060008054906101000a900473ffffffffffffffffffffffffffffffffffffffff1673ffffffffffffffffffffffffffffffffffffffff1663313ce5676040518163ffffffff1660e01b815260040160206040518083038186803b158015611b9257600080fd5b505afa158015611ba6573d6000803e3d6000fd5b505050506040513d601f19601f82011682018060405250810190611bca919061253e565b60ff16905060016007811115611bdc57fe5b836007811115611be857fe5b1415611c0757606481600a0a60010281611bfe57fe5b04915050611d7c565b60026007811115611c1457fe5b836007811115611c2057fe5b1415611c3f57606481600a0a60060281611c3657fe5b04915050611d7c565b60036007811115611c4c57fe5b836007811115611c5857fe5b1415611c7757606481600a0a60140281611c6e57fe5b04915050611d7c565b60046007811115611c8457fe5b836007811115611c9057fe5b1415611ca55780600a0a600102915050611d7c565b60056007811115611cb257fe5b836007811115611cbe57fe5b1415611cd35780600a0a600202915050611d7c565b60066007811115611ce057fe5b836007811115611cec57fe5b1415611d015780600a0a600a02915050611d7c565b600780811115611d0d57fe5b836007811115611d1957fe5b1415611d2e5780600a0a60c802915050611d7c565b6000611d6f576040517f08c379a0000000000000000000000000000000000000000000000000000000008152600401611d6690612cc9565b60405180910390fd5b80600a0a620186a0029150505b919050565b6000611dc383836040518060400160405280601e81526020017f536166654d6174683a207375627472616374696f6e206f766572666c6f770000815250612220565b905092915050565b600060016007811115611dda57fe5b826007811115611de657fe5b1415611df55760019050611f2d565b60026007811115611e0257fe5b826007811115611e0e57fe5b1415611e1d5760039050611f2d565b60036007811115611e2a57fe5b826007811115611e3657fe5b1415611e455760089050611f2d565b60046007811115611e5257fe5b826007811115611e5e57fe5b1415611e6d5760189050611f2d565b60056007811115611e7a57fe5b826007811115611e8657fe5b1415611e955760489050611f2d565b60066007811115611ea257fe5b826007811115611eae57fe5b1415611ebd5760a89050611f2d565b600780811115611ec957fe5b826007811115611ed557fe5b1415611ee5576102a09050611f2d565b6000611f26576040517f08c379a0000000000000000000000000000000000000000000000000000000008152600401611f1d90612cc9565b60405180910390fd5b6298967f90505b919050565b60008060008054906101000a900473ffffffffffffffffffffffffffffffffffffffff1673ffffffffffffffffffffffffffffffffffffffff1663313ce5676040518163ffffffff1660e01b815260040160206040518083038186803b158015611f9b57600080fd5b505afa158015611faf573d6000803e3d6000fd5b505050506040513d601f19601f82011682018060405250810190611fd3919061253e565b60ff16905060016007811115611fe557fe5b836007811115611ff157fe5b141561201057606481600a0a6002028161200757fe5b04915050612193565b6002600781111561201d57fe5b83600781111561202957fe5b141561204857606481600a0a600c028161203f57fe5b04915050612193565b6003600781111561205557fe5b83600781111561206157fe5b141561208057606481600a0a6038028161207757fe5b04915050612193565b6004600781111561208d57fe5b83600781111561209957fe5b14156120b857606481600a0a60e602816120af57fe5b04915050612193565b600560078111156120c557fe5b8360078111156120d157fe5b14156120f157606481600a0a61028002816120e857fe5b04915050612193565b600660078111156120fe57fe5b83600781111561210a57fe5b141561211f5780600a0a601402915050612193565b60078081111561212b57fe5b83600781111561213757fe5b141561214c5780600a0a60fa02915050612193565b600061218d576040517f08c379a000000000000000000000000000000000000000000000000000000000815260040161218490612cc9565b60405180910390fd5b60009150505b919050565b600080828401905083811015612216576040517f08c379a000000000000000000000000000000000000000000000000000000000815260040180806020018281038252601b8152602001807f536166654d6174683a206164646974696f6e206f766572666c6f77000000000081525060200191505060405180910390fd5b8091505092915050565b60008383111582906122cd576040517f08c379a00000000000000000000000000000000000000000000000000000000081526004018080602001828103825283818151815260200191508051906020019080838360005b83811015612292578082015181840152602081019050612277565b50505050905090810190601f1680156122bf5780820380516001836020036101000a031916815260200191505b509250505060405180910390fd5b5060008385039050809150509392505050565b604051806040016040528060608152602001600081525090565b600061230d61230884612d57565b612d26565b9050808382526020820190508285608086028201111561232c57600080fd5b60005b8581101561235c578161234288826123cf565b84526020840193506080830192505060018101905061232f565b5050509392505050565b60008151905061237581612ef2565b92915050565b600082601f83011261238c57600080fd5b813561239c8482602086016122fa565b91505092915050565b6000813590506123b481612f09565b92915050565b6000813590506123c981612f19565b92915050565b6000608082840312156123e157600080fd5b6123eb6080612d26565b905060006123fb848285016123a5565b600083015250602061240f848285016123ba565b602083015250604061242384828501612443565b604083015250606061243784828501612443565b60608301525092915050565b60008135905061245281612f29565b92915050565b60008151905061246781612f29565b92915050565b60008151905061247c81612f40565b92915050565b60006020828403121561249457600080fd5b60006124a284828501612366565b91505092915050565b6000602082840312156124bd57600080fd5b600082013567ffffffffffffffff8111156124d757600080fd5b6124e38482850161237b565b91505092915050565b6000602082840312156124fe57600080fd5b600061250c84828501612443565b91505092915050565b60006020828403121561252757600080fd5b600061253584828501612458565b91505092915050565b60006020828403121561255057600080fd5b600061255e8482850161246d565b91505092915050565b60006125738383612a67565b60408301905092915050565b61258881612e50565b82525050565b61259781612df4565b82525050565b60006125a882612d93565b6125b28185612db6565b93506125bd83612d83565b8060005b838110156125ee5781516125d58882612567565b97506125e083612da9565b9250506001810190506125c1565b5085935050505092915050565b600061260682612d93565b6126108185612dc7565b935061261b83612d83565b8060005b8381101561264c5781516126338882612567565b975061263e83612da9565b92505060018101905061261f565b5085935050505092915050565b61266281612e62565b82525050565b600061267382612d9e565b61267d8185612dd8565b935061268d818560208601612e98565b61269681612ecd565b840191505092915050565b60006126ac82612d9e565b6126b68185612de9565b93506126c6818560208601612e98565b80840191505092915050565b60006126df601383612dd8565b91507f4661726d20616c726561647920657869737473000000000000000000000000006000830152602082019050919050565b600061271f601d83612dd8565b91507f4e6f206672756974206578697374732061742074686973206669656c640000006000830152602082019050919050565b600061275f601783612dd8565b91507f4576656e747320617265206e6f7420696e206f726465720000000000000000006000830152602082019050919050565b600061279f602983612dd8565b91507f596f752063616e206e6f7420706572666f726d20616e20616374696f6e20696e60008301527f20746865207061737400000000000000000000000000000000000000000000006020830152604082019050919050565b6000612805601c83612dd8565b91507f4e6f7420656e6f756768206d6f6e657920746f206275792073656564000000006000830152602082019050919050565b6000612845602b83612dd8565b91507f596f752063616e206e6f7420706572666f726d20616e20616374696f6e20696e60008301527f20746865206675747572650000000000000000000000000000000000000000006020830152604082019050919050565b60006128ab601c83612dd8565b91507f596f752061726520617420746865206d6178696d756d206c6576656c000000006000830152602082019050919050565b60006128eb601383612dd8565b91507f4661726d20646f6573206e6f74206578697374000000000000000000000000006000830152602082019050919050565b600061292b602183612dd8565b91507f4576656e74732063616e206f6e6c79206265203330206d696e75746573206f6c60008301527f64000000000000000000000000000000000000000000000000000000000000006020830152604082019050919050565b6000612991603b83612dd8565b91507f596f7572206661726d206973206e6f7420726561647920746f20706c616e742060008301527f746869732066727569742e204c6576656c2075702066697273742e00000000006020830152604082019050919050565b60006129f7600d83612dd8565b91507f496e76616c6964206672756974000000000000000000000000000000000000006000830152602082019050919050565b60006040830160008301518482036000860152612a47828261259d565b9150506020830151612a5c6020860182612a96565b508091505092915050565b604082016000820151612a7d6000850182612659565b506020820151612a906020850182612a96565b50505050565b612a9f81612e39565b82525050565b612aae81612e39565b82525050565b6000612ac082856126a1565b9150612acc82846126a1565b91508190509392505050565b6000602082019050612aed600083018461257f565b92915050565b6000604082019050612b08600083018561257f565b612b156020830184612aa5565b9392505050565b6000604082019050612b31600083018561258e565b612b3e6020830184612aa5565b9392505050565b60006020820190508181036000830152612b5f81846125fb565b905092915050565b60006020820190508181036000830152612b818184612668565b905092915050565b60006020820190508181036000830152612ba2816126d2565b9050919050565b60006020820190508181036000830152612bc281612712565b9050919050565b60006020820190508181036000830152612be281612752565b9050919050565b60006020820190508181036000830152612c0281612792565b9050919050565b60006020820190508181036000830152612c22816127f8565b9050919050565b60006020820190508181036000830152612c4281612838565b9050919050565b60006020820190508181036000830152612c628161289e565b9050919050565b60006020820190508181036000830152612c82816128de565b9050919050565b60006020820190508181036000830152612ca28161291e565b9050919050565b60006020820190508181036000830152612cc281612984565b9050919050565b60006020820190508181036000830152612ce2816129ea565b9050919050565b60006020820190508181036000830152612d038184612a2a565b905092915050565b6000602082019050612d206000830184612aa5565b92915050565b6000604051905081810181811067ffffffffffffffff82111715612d4d57612d4c612ecb565b5b8060405250919050565b600067ffffffffffffffff821115612d7257612d71612ecb565b5b602082029050602081019050919050565b6000819050602082019050919050565b600081519050919050565b600081519050919050565b6000602082019050919050565b600082825260208201905092915050565b600082825260208201905092915050565b600082825260208201905092915050565b600081905092915050565b6000612dff82612e19565b9050919050565b6000819050612e1482612ede565b919050565b600073ffffffffffffffffffffffffffffffffffffffff82169050919050565b6000819050919050565b600060ff82169050919050565b6000612e5b82612e74565b9050919050565b6000612e6d82612e06565b9050919050565b6000612e7f82612e86565b9050919050565b6000612e9182612e19565b9050919050565b60005b83811015612eb6578082015181840152602081019050612e9b565b83811115612ec5576000848401525b50505050565bfe5b6000601f19601f8301169050919050565b60088110612eef57612eee612ecb565b5b50565b612efb81612df4565b8114612f0657600080fd5b50565b60028110612f1657600080fd5b50565b60088110612f2657600080fd5b50565b612f3281612e39565b8114612f3d57600080fd5b50565b612f4981612e43565b8114612f5457600080fd5b5056fe546865206672756974206973206e6f7420726970652c20706c6561736520776169743a20a26469706673582212205a63db3e82e329f2ce5ec56cf8520076438fe7f62adbd59dbe827344dd14503d64736f6c63430007060033",
  "immutableReferences": {},
  "source": "pragma solidity >=0.6.0 <0.8.0;\r\npragma experimental ABIEncoderV2;\r\n\r\nimport \"@openzeppelin/contracts/math/Math.sol\";\r\nimport \"./Token.sol\";\r\n\r\ncontract Farm {\r\n    using SafeMath for uint256;\r\n\r\n    Token private token;\r\n\r\n    struct Square {\r\n        Fruit fruit;\r\n        uint createdAt;\r\n    }\r\n\r\n    mapping(address => Square[]) fields;\r\n    mapping(address => uint) syncedAt;\r\n\r\n    constructor(Token _token) public {\r\n        token = _token;\r\n    }\r\n\r\n    event FarmCreated(address indexed _address);\r\n    event FarmSynced(address indexed _address);\r\n\r\n    function createFarm() public {\r\n        uint synced = syncedAt[msg.sender];\r\n        require(synced == 0, \"Farm already exists\");\r\n\r\n        Square[] storage land = fields[msg.sender];\r\n        Square memory empty = Square({\r\n            fruit: Fruit.None,\r\n            createdAt: block.timestamp\r\n        });\r\n        Square memory apple = Square({\r\n            fruit: Fruit.Apple,\r\n            createdAt: block.timestamp\r\n        });\r\n\r\n        // Each farmer starts with 5 fields & 3 apples\r\n        land.push(empty);\r\n        land.push(apple);\r\n        land.push(apple);\r\n        land.push(apple);\r\n        land.push(empty);\r\n\r\n        syncedAt[msg.sender] = block.timestamp;\r\n\r\n        //Emit an event\r\n        emit FarmCreated(msg.sender);\r\n    }\r\n    \r\n    function lastSyncedAt() public view returns(uint) {\r\n        return syncedAt[msg.sender];\r\n    }\r\n\r\n\r\n    function getLand() public view returns (Square[] memory) {\r\n        return fields[msg.sender];\r\n    }\r\n\r\n    enum Action { Plant, Harvest }\r\n    enum Fruit { None, Apple, Avocado, Banana, Coconut, Pineapple, Money, Diamond }\r\n\r\n    struct Event { \r\n        Action action;\r\n        Fruit fruit;\r\n        uint landIndex;\r\n        uint createdAt;\r\n    }\r\n\r\n    struct Farm {\r\n        Square[] land;\r\n        uint balance;\r\n    }\r\n\r\n    function getHarvestHours(Fruit _fruit) private view returns (uint) {\r\n        if (_fruit == Fruit.Apple) {\r\n            return 1;\r\n        } else if (_fruit == Fruit.Avocado) {\r\n            return 3;\r\n        } else if (_fruit == Fruit.Banana) {\r\n            return 8;\r\n        } else if (_fruit == Fruit.Coconut) {\r\n            // 1 Day\r\n            return 24;\r\n        } else if (_fruit == Fruit.Pineapple) {\r\n            // 3 days\r\n            return 72;\r\n        } else if (_fruit == Fruit.Money) {\r\n            // 1 week\r\n            return 168;\r\n        } else if (_fruit == Fruit.Diamond) {\r\n            // 4 weeks\r\n            return 672;\r\n        }\r\n\r\n        require(false, \"Invalid fruit\");\r\n        return 9999999;\r\n    }\r\n\r\n    function getSeedPrice(Fruit _fruit) private view returns (uint price) {\r\n        uint decimals = token.decimals();\r\n\r\n        if (_fruit == Fruit.Apple) {\r\n            //$0.01\r\n            return 1 * 10**decimals / 100;\r\n        } else if (_fruit == Fruit.Avocado) {\r\n            // $0.06\r\n            return 6 * 10**decimals / 100;\r\n        } else if (_fruit == Fruit.Banana) {\r\n            // $0.20\r\n            return 20 * 10**decimals / 100;\r\n        } else if (_fruit == Fruit.Coconut) {\r\n            // $1\r\n            return 1 * 10**decimals;\r\n        } else if (_fruit == Fruit.Pineapple) {\r\n            // $2\r\n            return 2 * 10**decimals;\r\n        } else if (_fruit == Fruit.Money) {\r\n            // $10\r\n            return 10 * 10**decimals;\r\n        } else if (_fruit == Fruit.Diamond) {\r\n            // $200\r\n            return 200 * 10**decimals;\r\n        }\r\n\r\n        require(false, \"Invalid fruit\");\r\n\r\n        return 100000 * 10**decimals;\r\n    }\r\n\r\n    function getFruitPrice(Fruit _fruit) private view returns (uint price) {\r\n        uint decimals = token.decimals();\r\n\r\n        if (_fruit == Fruit.Apple) {\r\n            // $0.02\r\n            return 2 * 10**decimals / 100;\r\n        } else if (_fruit == Fruit.Avocado) {\r\n            // $0.12\r\n            return 12 * 10**decimals / 100;\r\n        } else if (_fruit == Fruit.Banana) {\r\n            // $0.56\r\n            return 56 * 10**decimals / 100;\r\n        } else if (_fruit == Fruit.Coconut) {\r\n            // $2.30\r\n            return 230 * 10**decimals / 100;\r\n        } else if (_fruit == Fruit.Pineapple) {\r\n            // $6.40\r\n            return 640 * 10**decimals / 100;\r\n        } else if (_fruit == Fruit.Money) {\r\n            // $20\r\n            return 20 * 10**decimals;\r\n        } else if (_fruit == Fruit.Diamond) {\r\n            // $250\r\n            return 250 * 10**decimals;\r\n        }\r\n\r\n        require(false, \"Invalid fruit\");\r\n\r\n        return 0;\r\n    }\r\n    \r\n    function requiredLandSize(Fruit _fruit) private view returns (uint size) {\r\n        if (_fruit == Fruit.Apple || _fruit == Fruit.Avocado) {\r\n            return 5;\r\n        } else if (_fruit == Fruit.Banana || _fruit == Fruit.Coconut) {\r\n            return 8;\r\n        } else if (_fruit == Fruit.Pineapple) {\r\n            return 11;\r\n        } else if (_fruit == Fruit.Money) {\r\n            return 14;\r\n        } else if (_fruit == Fruit.Diamond) {\r\n            return 17;\r\n        }\r\n\r\n        require(false, \"Invalid fruit\");\r\n\r\n        return 99;\r\n    }\r\n    \r\n       \r\n    function getLandPrice(uint landSize) private view returns (uint price) {\r\n        uint decimals = token.decimals();\r\n        if (landSize <= 5) {\r\n            // $1\r\n            return 1 * 10**decimals;\r\n        } else if (landSize <= 8) {\r\n            // $5\r\n            return 5 * 10**decimals;\r\n        } else if (landSize <= 11) {\r\n            // $50\r\n            return 50 * 10**decimals;\r\n        }\r\n        \r\n        return 5000 * 10**decimals;\r\n    }\r\n\r\n\r\n    function concatenate(\r\n        string memory a,\r\n        string memory b)\r\n        internal\r\n        pure\r\n        returns(string memory) {\r\n            return string(abi.encodePacked(a, b));\r\n        }\r\n\r\n    function uint2str(uint _i) internal pure returns (string memory _uintAsString) {\r\n        if (_i == 0) {\r\n            return \"0\";\r\n        }\r\n        uint j = _i;\r\n        uint len;\r\n        while (j != 0) {\r\n            len++;\r\n            j /= 10;\r\n        }\r\n        bytes memory bstr = new bytes(len);\r\n        uint k = len;\r\n        while (_i != 0) {\r\n            k = k-1;\r\n            uint8 temp = (48 + uint8(_i - _i / 10 * 10));\r\n            bytes1 b1 = bytes1(temp);\r\n            bstr[k] = b1;\r\n            _i /= 10;\r\n        }\r\n        return string(bstr);\r\n    }\r\n    \r\n    modifier hasFarm {\r\n        require(lastSyncedAt() > 0, \"Farm does not exist\");\r\n        _;\r\n    }\r\n     \r\n    uint private THIRTY_MINUTES = 30 * 60;\r\n\r\n    function buildFarm(Event[] memory _events) public view returns (Farm memory currentFarm) {\r\n        Square[] memory land = fields[msg.sender];\r\n        uint balance = token.balanceOf(msg.sender);\r\n        \r\n        // Provide them the conversion at the time of planting\r\n        uint conversion = getMarketRate();\r\n\r\n        for (uint index = 0; index < _events.length; index++) {\r\n            Event memory farmEvent = _events[index];\r\n\r\n            uint thirtyMinutesAgo = block.timestamp - THIRTY_MINUTES; \r\n            require(farmEvent.createdAt >= thirtyMinutesAgo, \"Events can only be 30 minutes old\");\r\n            \r\n            require(farmEvent.createdAt >= lastSyncedAt(), \"You can not perform an action in the past\");\r\n            require(farmEvent.createdAt <= block.timestamp, \"You can not perform an action in the future\");\r\n\r\n            if (index > 0) {\r\n                require(farmEvent.createdAt >= _events[index - 1].createdAt, \"Events are not in order\");\r\n            }\r\n\r\n\r\n            if (farmEvent.action == Action.Plant) {\r\n                require(land.length >= requiredLandSize(farmEvent.fruit), \"Your farm is not ready to plant this fruit. Level up first.\");\r\n                \r\n                uint price = getSeedPrice(farmEvent.fruit);\r\n                uint fmcPrice = getMarketPrice(price);\r\n                require(balance >= fmcPrice, \"Not enough money to buy seed\");\r\n\r\n                balance = balance.sub(fmcPrice);\r\n\r\n                Square memory plantedSeed = Square({\r\n                    fruit: farmEvent.fruit,\r\n                    createdAt: farmEvent.createdAt\r\n                });\r\n                land[farmEvent.landIndex] = plantedSeed;\r\n            } else if (farmEvent.action == Action.Harvest) {\r\n                Square memory square = land[farmEvent.landIndex];\r\n                require(square.fruit != Fruit.None, \"No fruit exists at this field\");\r\n\r\n                // Currently seconds\r\n                uint duration = farmEvent.createdAt - square.createdAt;\r\n                uint hoursToHarvest = getHarvestHours(square.fruit);\r\n                string memory durationString = uint2str(hoursToHarvest - duration);\r\n                string memory message = concatenate(\"The fruit is not ripe, please wait: \", durationString);\r\n                require(duration >= hoursToHarvest, message);\r\n\r\n                // Clear the land\r\n                Square memory emptyLand = Square({\r\n                    fruit: Fruit.None,\r\n                    createdAt: 0\r\n                });\r\n                land[farmEvent.landIndex] = emptyLand;\r\n\r\n                uint price = getFruitPrice(square.fruit);\r\n                uint fmcPrice = getMarketPrice(price);\r\n\r\n                balance = balance.add(fmcPrice);\r\n            }\r\n        }\r\n\r\n        return Farm({\r\n            land: land,\r\n            balance: balance\r\n        });\r\n    }\r\n\r\n\r\n    function sync(Event[] memory _events) public hasFarm returns (Farm memory) {\r\n        uint balance = token.balanceOf(msg.sender);\r\n        Farm memory farm = buildFarm(_events);\r\n\r\n        // Update the land\r\n        Square[] storage land = fields[msg.sender];\r\n        for (uint i=0; i < farm.land.length; i += 1) {\r\n            land[i] = farm.land[i];\r\n        }\r\n\r\n\r\n        // Update the balance - mint or burn\r\n        if (farm.balance > balance) {\r\n            uint profit = farm.balance.sub(balance);\r\n            token.mint(msg.sender, profit);\r\n        } else if (farm.balance < balance) {\r\n            uint loss = balance.sub(farm.balance);\r\n            token.burn(msg.sender, loss);\r\n        }\r\n\r\n        syncedAt[msg.sender] = block.timestamp;\r\n\r\n        emit FarmSynced(msg.sender);\r\n        return farm;\r\n    }\r\n\r\n    function levelUp() public hasFarm {\r\n        require(fields[msg.sender].length <= 17, \"You are at the maximum level\");\r\n\r\n        Square[] storage land = fields[msg.sender];\r\n\r\n        uint conversion = getMarketRate();\r\n\r\n        uint price = getLandPrice(land.length);\r\n        uint fmcPrice = getMarketPrice(price);\r\n        string memory priceString = uint2str(fmcPrice);\r\n        string memory message = concatenate(\"Not enough money to level up: \", priceString);\r\n\r\n        uint balance = token.balanceOf(msg.sender);\r\n        require(balance >= fmcPrice, message);\r\n\r\n        Square memory empty = Square({\r\n            fruit: Fruit.None,\r\n            createdAt: block.timestamp\r\n        });\r\n\r\n        // Do not bother rearranging the array - it is already in a strange square - Add 3 fields\r\n        for (uint index = 0; index < 3; index++) {\r\n            land.push(empty);\r\n        }\r\n\r\n        token.burn(msg.sender, fmcPrice);\r\n\r\n        // Land tax - An additional 5% of profit goes to developers & designers of Fruit Market\r\n        uint commission = fmcPrice / 5;\r\n        token.mint(token.getOwner(), commission);\r\n\r\n        emit FarmSynced(msg.sender);\r\n    }\r\n\r\n    // How many FMC do you get per dollar\r\n    function getMarketRate() private view returns (uint conversion) {\r\n        uint decimals = token.decimals();\r\n        uint totalSupply = token.totalSupply();\r\n\r\n        // Less than 100, 000 FMC tokens\r\n        if (totalSupply < (1000000 * 10**decimals)) {\r\n            // 1 Farm Dollar gets you a FMC token\r\n            return 1;\r\n        }\r\n\r\n        // Less than 1, 000, 000 FMC tokens\r\n        if (totalSupply < (10000 * 10**decimals)) {\r\n            return 10;\r\n        }\r\n        // Less than 10, 000, 000 FMC tokens\r\n        if (totalSupply < (100000 * 10**decimals)) {\r\n            return 100;\r\n        }\r\n\r\n        // Less than 100, 000, 000 FMC tokens\r\n        if (totalSupply < (100000 * 10**decimals)) {\r\n            return 1000;\r\n        }\r\n\r\n        // Less than 1, 000, 000, 000 FMC tokens\r\n        if (totalSupply < (100000 * 10**decimals)) {\r\n            return 10000;\r\n        }\r\n\r\n        // 1 Farm Dollar gets you a 0.00001 of FMC\r\n        //return 10**(decimals-5);\r\n        return 100000;\r\n    }\r\n\r\n    function getMarketPrice(uint price) public view returns (uint conversion) {\r\n        uint marketRate = getMarketRate();\r\n\r\n        return price / marketRate;\r\n    }\r\n\r\n    function getNow() public view returns (uint time) {\r\n        return block.timestamp;\r\n    }\r\n\r\n\r\n\r\n    // // Append a event to the list\r\n    // function addEvent(Event[] memory _events, Event memory _event) private view returns (Event[] memory) {\r\n    //     Event[] memory newEvents = new Event[](_events.length + 1);\r\n    //     for (uint i=0; i < _events.length; i += 1) {\r\n    //         newEvents[i] = _events[i];\r\n    //     }\r\n\r\n    //     // Add the new event\r\n    //     newEvents[_events.length] = _event;\r\n\r\n    //     return newEvents;\r\n    // }\r\n\r\n    // function plant(Event[] memory _events, Fruit _fruit, uint landIndex) public hasFarm view returns (Farm memory farm) {\r\n    //     Event memory plantAppleEvent = Event({\r\n    //         action: Action.Plant,\r\n    //         fruit: _fruit,\r\n    //         landIndex: landIndex,\r\n    //         createdAt: block.timestamp\r\n    //     });\r\n    //     Event[] memory newEvents = addEvent(_events, plantAppleEvent);\r\n\r\n    //     Farm memory updatedFarm = buildFarm(newEvents);\r\n    //     return (updatedFarm);\r\n    // }\r\n\r\n    // function harvest(Event[] memory _events, Fruit _fruit, uint landIndex) public hasFarm view returns (Farm memory farm) {\r\n    //     // Add the new event\r\n    //     Event memory plantAppleEvent = Event({\r\n    //         action: Action.Harvest,\r\n    //         fruit: _fruit,\r\n    //         landIndex: landIndex,\r\n    //         createdAt: block.timestamp\r\n    //     });\r\n    //     Event[] memory newEvents = addEvent(_events, plantAppleEvent);\r\n\r\n    //     Farm memory updatedFarm = buildFarm(newEvents);\r\n    //     return (updatedFarm);\r\n    // }\r\n}\r\n",
  "sourcePath": "/Users/adamhannigan/Documents/workspace/fruit-market/src/contracts/Farm.sol",
  "compiler": {
    "name": "solc",
    "version": "0.7.6+commit.7338295f.Emscripten.clang"
  },
  "schemaVersion": "3.4.0",
  "updatedAt": "2021-06-08T07:54:34.208Z",
  "networkType": "ethereum",
  "devdoc": {
    "kind": "dev",
    "methods": {},
    "version": 1
  },
  "userdoc": {
    "kind": "user",
    "methods": {},
    "version": 1
  }
}