{
  "contractName": "Farm",
  "abi": [
    {
      "inputs": [
        {
          "internalType": "contract Token",
          "name": "_token",
          "type": "address"
        }
      ],
      "stateMutability": "nonpayable",
      "type": "constructor"
    },
    {
      "inputs": [],
      "name": "createFarm",
      "outputs": [],
      "stateMutability": "nonpayable",
      "type": "function"
    },
    {
      "inputs": [],
      "name": "getInventory",
      "outputs": [
        {
          "components": [
            {
              "internalType": "bool",
              "name": "isInitialized",
              "type": "bool"
            },
            {
              "internalType": "uint256",
              "name": "apples",
              "type": "uint256"
            },
            {
              "internalType": "uint256",
              "name": "avocados",
              "type": "uint256"
            }
          ],
          "internalType": "struct Farm.Inventory",
          "name": "",
          "type": "tuple"
        }
      ],
      "stateMutability": "view",
      "type": "function"
    },
    {
      "inputs": [],
      "name": "getLand",
      "outputs": [
        {
          "components": [
            {
              "internalType": "enum Farm.Commodity",
              "name": "commodity",
              "type": "uint8"
            },
            {
              "internalType": "uint256",
              "name": "createdAt",
              "type": "uint256"
            }
          ],
          "internalType": "struct Farm.Square[]",
          "name": "",
          "type": "tuple[]"
        }
      ],
      "stateMutability": "view",
      "type": "function"
    },
    {
      "inputs": [
        {
          "components": [
            {
              "internalType": "enum Farm.Action",
              "name": "action",
              "type": "uint8"
            },
            {
              "internalType": "enum Farm.Commodity",
              "name": "commodity",
              "type": "uint8"
            },
            {
              "internalType": "uint256",
              "name": "timestamp",
              "type": "uint256"
            },
            {
              "internalType": "uint256",
              "name": "landIndex",
              "type": "uint256"
            }
          ],
          "internalType": "struct Farm.Transaction[]",
          "name": "_transactions",
          "type": "tuple[]"
        }
      ],
      "name": "moveTheMarket",
      "outputs": [],
      "stateMutability": "nonpayable",
      "type": "function"
    },
    {
      "inputs": [
        {
          "components": [
            {
              "internalType": "enum Farm.Action",
              "name": "action",
              "type": "uint8"
            },
            {
              "internalType": "enum Farm.Commodity",
              "name": "commodity",
              "type": "uint8"
            },
            {
              "internalType": "uint256",
              "name": "timestamp",
              "type": "uint256"
            },
            {
              "internalType": "uint256",
              "name": "landIndex",
              "type": "uint256"
            }
          ],
          "internalType": "struct Farm.Transaction[]",
          "name": "_transactions",
          "type": "tuple[]"
        }
      ],
      "name": "sync",
      "outputs": [],
      "stateMutability": "nonpayable",
      "type": "function"
    },
    {
      "inputs": [
        {
          "components": [
            {
              "internalType": "enum Farm.Action",
              "name": "action",
              "type": "uint8"
            },
            {
              "internalType": "enum Farm.Commodity",
              "name": "commodity",
              "type": "uint8"
            },
            {
              "internalType": "uint256",
              "name": "timestamp",
              "type": "uint256"
            },
            {
              "internalType": "uint256",
              "name": "landIndex",
              "type": "uint256"
            }
          ],
          "internalType": "struct Farm.Transaction[]",
          "name": "_transactions",
          "type": "tuple[]"
        }
      ],
      "name": "buyAppleSeed",
      "outputs": [
        {
          "components": [
            {
              "components": [
                {
                  "internalType": "bool",
                  "name": "isInitialized",
                  "type": "bool"
                },
                {
                  "internalType": "uint256",
                  "name": "apples",
                  "type": "uint256"
                },
                {
                  "internalType": "uint256",
                  "name": "avocados",
                  "type": "uint256"
                }
              ],
              "internalType": "struct Farm.Inventory",
              "name": "inventory",
              "type": "tuple"
            },
            {
              "components": [
                {
                  "internalType": "enum Farm.Commodity",
                  "name": "commodity",
                  "type": "uint8"
                },
                {
                  "internalType": "uint256",
                  "name": "createdAt",
                  "type": "uint256"
                }
              ],
              "internalType": "struct Farm.Square[]",
              "name": "land",
              "type": "tuple[]"
            },
            {
              "internalType": "uint256",
              "name": "balance",
              "type": "uint256"
            },
            {
              "components": [
                {
                  "internalType": "enum Farm.Action",
                  "name": "action",
                  "type": "uint8"
                },
                {
                  "internalType": "enum Farm.Commodity",
                  "name": "commodity",
                  "type": "uint8"
                },
                {
                  "internalType": "uint256",
                  "name": "timestamp",
                  "type": "uint256"
                },
                {
                  "internalType": "uint256",
                  "name": "landIndex",
                  "type": "uint256"
                }
              ],
              "internalType": "struct Farm.Transaction[]",
              "name": "transactions",
              "type": "tuple[]"
            }
          ],
          "internalType": "struct Farm.Farm",
          "name": "farm",
          "type": "tuple"
        },
        {
          "internalType": "uint256",
          "name": "price",
          "type": "uint256"
        }
      ],
      "stateMutability": "view",
      "type": "function"
    },
    {
      "inputs": [
        {
          "components": [
            {
              "internalType": "enum Farm.Action",
              "name": "action",
              "type": "uint8"
            },
            {
              "internalType": "enum Farm.Commodity",
              "name": "commodity",
              "type": "uint8"
            },
            {
              "internalType": "uint256",
              "name": "timestamp",
              "type": "uint256"
            },
            {
              "internalType": "uint256",
              "name": "landIndex",
              "type": "uint256"
            }
          ],
          "internalType": "struct Farm.Transaction[]",
          "name": "_transactions",
          "type": "tuple[]"
        }
      ],
      "name": "sellAppleSeed",
      "outputs": [
        {
          "components": [
            {
              "components": [
                {
                  "internalType": "bool",
                  "name": "isInitialized",
                  "type": "bool"
                },
                {
                  "internalType": "uint256",
                  "name": "apples",
                  "type": "uint256"
                },
                {
                  "internalType": "uint256",
                  "name": "avocados",
                  "type": "uint256"
                }
              ],
              "internalType": "struct Farm.Inventory",
              "name": "inventory",
              "type": "tuple"
            },
            {
              "components": [
                {
                  "internalType": "enum Farm.Commodity",
                  "name": "commodity",
                  "type": "uint8"
                },
                {
                  "internalType": "uint256",
                  "name": "createdAt",
                  "type": "uint256"
                }
              ],
              "internalType": "struct Farm.Square[]",
              "name": "land",
              "type": "tuple[]"
            },
            {
              "internalType": "uint256",
              "name": "balance",
              "type": "uint256"
            },
            {
              "components": [
                {
                  "internalType": "enum Farm.Action",
                  "name": "action",
                  "type": "uint8"
                },
                {
                  "internalType": "enum Farm.Commodity",
                  "name": "commodity",
                  "type": "uint8"
                },
                {
                  "internalType": "uint256",
                  "name": "timestamp",
                  "type": "uint256"
                },
                {
                  "internalType": "uint256",
                  "name": "landIndex",
                  "type": "uint256"
                }
              ],
              "internalType": "struct Farm.Transaction[]",
              "name": "transactions",
              "type": "tuple[]"
            }
          ],
          "internalType": "struct Farm.Farm",
          "name": "farm",
          "type": "tuple"
        },
        {
          "internalType": "uint256",
          "name": "price",
          "type": "uint256"
        }
      ],
      "stateMutability": "view",
      "type": "function"
    },
    {
      "inputs": [
        {
          "components": [
            {
              "internalType": "enum Farm.Action",
              "name": "action",
              "type": "uint8"
            },
            {
              "internalType": "enum Farm.Commodity",
              "name": "commodity",
              "type": "uint8"
            },
            {
              "internalType": "uint256",
              "name": "timestamp",
              "type": "uint256"
            },
            {
              "internalType": "uint256",
              "name": "landIndex",
              "type": "uint256"
            }
          ],
          "internalType": "struct Farm.Transaction[]",
          "name": "_transactions",
          "type": "tuple[]"
        },
        {
          "internalType": "uint256",
          "name": "landIndex",
          "type": "uint256"
        }
      ],
      "name": "plantAppleSeed",
      "outputs": [
        {
          "components": [
            {
              "components": [
                {
                  "internalType": "bool",
                  "name": "isInitialized",
                  "type": "bool"
                },
                {
                  "internalType": "uint256",
                  "name": "apples",
                  "type": "uint256"
                },
                {
                  "internalType": "uint256",
                  "name": "avocados",
                  "type": "uint256"
                }
              ],
              "internalType": "struct Farm.Inventory",
              "name": "inventory",
              "type": "tuple"
            },
            {
              "components": [
                {
                  "internalType": "enum Farm.Commodity",
                  "name": "commodity",
                  "type": "uint8"
                },
                {
                  "internalType": "uint256",
                  "name": "createdAt",
                  "type": "uint256"
                }
              ],
              "internalType": "struct Farm.Square[]",
              "name": "land",
              "type": "tuple[]"
            },
            {
              "internalType": "uint256",
              "name": "balance",
              "type": "uint256"
            },
            {
              "components": [
                {
                  "internalType": "enum Farm.Action",
                  "name": "action",
                  "type": "uint8"
                },
                {
                  "internalType": "enum Farm.Commodity",
                  "name": "commodity",
                  "type": "uint8"
                },
                {
                  "internalType": "uint256",
                  "name": "timestamp",
                  "type": "uint256"
                },
                {
                  "internalType": "uint256",
                  "name": "landIndex",
                  "type": "uint256"
                }
              ],
              "internalType": "struct Farm.Transaction[]",
              "name": "transactions",
              "type": "tuple[]"
            }
          ],
          "internalType": "struct Farm.Farm",
          "name": "farm",
          "type": "tuple"
        }
      ],
      "stateMutability": "view",
      "type": "function"
    },
    {
      "inputs": [
        {
          "components": [
            {
              "internalType": "enum Farm.Action",
              "name": "action",
              "type": "uint8"
            },
            {
              "internalType": "enum Farm.Commodity",
              "name": "commodity",
              "type": "uint8"
            },
            {
              "internalType": "uint256",
              "name": "timestamp",
              "type": "uint256"
            },
            {
              "internalType": "uint256",
              "name": "landIndex",
              "type": "uint256"
            }
          ],
          "internalType": "struct Farm.Transaction[]",
          "name": "_transactions",
          "type": "tuple[]"
        },
        {
          "internalType": "uint256",
          "name": "landIndex",
          "type": "uint256"
        }
      ],
      "name": "harvestAppleSeed",
      "outputs": [
        {
          "components": [
            {
              "components": [
                {
                  "internalType": "bool",
                  "name": "isInitialized",
                  "type": "bool"
                },
                {
                  "internalType": "uint256",
                  "name": "apples",
                  "type": "uint256"
                },
                {
                  "internalType": "uint256",
                  "name": "avocados",
                  "type": "uint256"
                }
              ],
              "internalType": "struct Farm.Inventory",
              "name": "inventory",
              "type": "tuple"
            },
            {
              "components": [
                {
                  "internalType": "enum Farm.Commodity",
                  "name": "commodity",
                  "type": "uint8"
                },
                {
                  "internalType": "uint256",
                  "name": "createdAt",
                  "type": "uint256"
                }
              ],
              "internalType": "struct Farm.Square[]",
              "name": "land",
              "type": "tuple[]"
            },
            {
              "internalType": "uint256",
              "name": "balance",
              "type": "uint256"
            },
            {
              "components": [
                {
                  "internalType": "enum Farm.Action",
                  "name": "action",
                  "type": "uint8"
                },
                {
                  "internalType": "enum Farm.Commodity",
                  "name": "commodity",
                  "type": "uint8"
                },
                {
                  "internalType": "uint256",
                  "name": "timestamp",
                  "type": "uint256"
                },
                {
                  "internalType": "uint256",
                  "name": "landIndex",
                  "type": "uint256"
                }
              ],
              "internalType": "struct Farm.Transaction[]",
              "name": "transactions",
              "type": "tuple[]"
            }
          ],
          "internalType": "struct Farm.Farm",
          "name": "farm",
          "type": "tuple"
        }
      ],
      "stateMutability": "view",
      "type": "function"
    },
    {
      "inputs": [
        {
          "components": [
            {
              "internalType": "enum Farm.Action",
              "name": "action",
              "type": "uint8"
            },
            {
              "internalType": "enum Farm.Commodity",
              "name": "commodity",
              "type": "uint8"
            },
            {
              "internalType": "uint256",
              "name": "timestamp",
              "type": "uint256"
            },
            {
              "internalType": "uint256",
              "name": "landIndex",
              "type": "uint256"
            }
          ],
          "internalType": "struct Farm.Transaction[]",
          "name": "_transactions",
          "type": "tuple[]"
        }
      ],
      "name": "buyAvocadoSeed",
      "outputs": [
        {
          "components": [
            {
              "components": [
                {
                  "internalType": "bool",
                  "name": "isInitialized",
                  "type": "bool"
                },
                {
                  "internalType": "uint256",
                  "name": "apples",
                  "type": "uint256"
                },
                {
                  "internalType": "uint256",
                  "name": "avocados",
                  "type": "uint256"
                }
              ],
              "internalType": "struct Farm.Inventory",
              "name": "inventory",
              "type": "tuple"
            },
            {
              "components": [
                {
                  "internalType": "enum Farm.Commodity",
                  "name": "commodity",
                  "type": "uint8"
                },
                {
                  "internalType": "uint256",
                  "name": "createdAt",
                  "type": "uint256"
                }
              ],
              "internalType": "struct Farm.Square[]",
              "name": "land",
              "type": "tuple[]"
            },
            {
              "internalType": "uint256",
              "name": "balance",
              "type": "uint256"
            },
            {
              "components": [
                {
                  "internalType": "enum Farm.Action",
                  "name": "action",
                  "type": "uint8"
                },
                {
                  "internalType": "enum Farm.Commodity",
                  "name": "commodity",
                  "type": "uint8"
                },
                {
                  "internalType": "uint256",
                  "name": "timestamp",
                  "type": "uint256"
                },
                {
                  "internalType": "uint256",
                  "name": "landIndex",
                  "type": "uint256"
                }
              ],
              "internalType": "struct Farm.Transaction[]",
              "name": "transactions",
              "type": "tuple[]"
            }
          ],
          "internalType": "struct Farm.Farm",
          "name": "farm",
          "type": "tuple"
        },
        {
          "internalType": "uint256",
          "name": "price",
          "type": "uint256"
        }
      ],
      "stateMutability": "view",
      "type": "function"
    },
    {
      "inputs": [
        {
          "components": [
            {
              "internalType": "enum Farm.Action",
              "name": "action",
              "type": "uint8"
            },
            {
              "internalType": "enum Farm.Commodity",
              "name": "commodity",
              "type": "uint8"
            },
            {
              "internalType": "uint256",
              "name": "timestamp",
              "type": "uint256"
            },
            {
              "internalType": "uint256",
              "name": "landIndex",
              "type": "uint256"
            }
          ],
          "internalType": "struct Farm.Transaction[]",
          "name": "_transactions",
          "type": "tuple[]"
        }
      ],
      "name": "sellAvocadoSeed",
      "outputs": [
        {
          "components": [
            {
              "components": [
                {
                  "internalType": "bool",
                  "name": "isInitialized",
                  "type": "bool"
                },
                {
                  "internalType": "uint256",
                  "name": "apples",
                  "type": "uint256"
                },
                {
                  "internalType": "uint256",
                  "name": "avocados",
                  "type": "uint256"
                }
              ],
              "internalType": "struct Farm.Inventory",
              "name": "inventory",
              "type": "tuple"
            },
            {
              "components": [
                {
                  "internalType": "enum Farm.Commodity",
                  "name": "commodity",
                  "type": "uint8"
                },
                {
                  "internalType": "uint256",
                  "name": "createdAt",
                  "type": "uint256"
                }
              ],
              "internalType": "struct Farm.Square[]",
              "name": "land",
              "type": "tuple[]"
            },
            {
              "internalType": "uint256",
              "name": "balance",
              "type": "uint256"
            },
            {
              "components": [
                {
                  "internalType": "enum Farm.Action",
                  "name": "action",
                  "type": "uint8"
                },
                {
                  "internalType": "enum Farm.Commodity",
                  "name": "commodity",
                  "type": "uint8"
                },
                {
                  "internalType": "uint256",
                  "name": "timestamp",
                  "type": "uint256"
                },
                {
                  "internalType": "uint256",
                  "name": "landIndex",
                  "type": "uint256"
                }
              ],
              "internalType": "struct Farm.Transaction[]",
              "name": "transactions",
              "type": "tuple[]"
            }
          ],
          "internalType": "struct Farm.Farm",
          "name": "farm",
          "type": "tuple"
        },
        {
          "internalType": "uint256",
          "name": "price",
          "type": "uint256"
        }
      ],
      "stateMutability": "view",
      "type": "function"
    },
    {
      "inputs": [],
      "name": "getPrices",
      "outputs": [
        {
          "components": [
            {
              "internalType": "uint256",
              "name": "apples",
              "type": "uint256"
            },
            {
              "internalType": "uint256",
              "name": "avocados",
              "type": "uint256"
            },
            {
              "internalType": "uint256",
              "name": "timestamp",
              "type": "uint256"
            },
            {
              "internalType": "uint256",
              "name": "previousTimestamp",
              "type": "uint256"
            }
          ],
          "internalType": "struct Farm.Prices",
          "name": "price",
          "type": "tuple"
        }
      ],
      "stateMutability": "view",
      "type": "function"
    },
    {
      "inputs": [],
      "name": "getApplePrice",
      "outputs": [
        {
          "internalType": "uint256",
          "name": "price",
          "type": "uint256"
        }
      ],
      "stateMutability": "view",
      "type": "function"
    },
    {
      "inputs": [],
      "name": "getAvocadoPrice",
      "outputs": [
        {
          "internalType": "uint256",
          "name": "price",
          "type": "uint256"
        }
      ],
      "stateMutability": "view",
      "type": "function"
    }
  ],
  "bytecode": "0x608060405260456001556002805560026005556101f460065561012c60075561ea606009553480156200003157600080fd5b50604051620029a9380380620029a983398181016040528101906200005791906200011c565b806000806101000a81548173ffffffffffffffffffffffffffffffffffffffff021916908373ffffffffffffffffffffffffffffffffffffffff1602179055506040518060800160405280606481526020016103e88152602001600154815260200160008152506008600060015481526020019081526020016000206000820151816000015560208201518160010155604082015181600201556060820151816003015590505050620001aa565b600081519050620001168162000190565b92915050565b6000602082840312156200012f57600080fd5b60006200013f8482850162000105565b91505092915050565b6000620001558262000170565b9050919050565b6000620001698262000148565b9050919050565b600073ffffffffffffffffffffffffffffffffffffffff82169050919050565b6200019b816200015c565b8114620001a757600080fd5b50565b6127ef80620001ba6000396000f3fe608060405234801561001057600080fd5b50600436106100ea5760003560e01c8063868314fa1161008c578063bd9a548b11610066578063bd9a548b14610262578063d53f9c9b14610280578063e2adea271461029c578063f6837650146102cd576100ea565b8063868314fa146101e3578063942da5dc14610213578063bc337f7814610244576100ea565b80635d7f850c116100c85780635d7f850c14610133578063689efec41461015157806384dad3a914610181578063865b74d0146101b2576100ea565b80630f804b25146100ef5780631d5ec3cb1461010b5780635690314c14610115575b600080fd5b61010960048036038101906101049190611dcd565b6102eb565b005b6101136105cf565b005b61011d610796565b60405161012a919061242c565b60405180910390f35b61013b610869565b6040516101489190612560565b60405180910390f35b61016b60048036038101906101669190611e0e565b6108ef565b604051610178919061250e565b60405180910390f35b61019b60048036038101906101969190611dcd565b6109ac565b6040516101a9929190612530565b60405180910390f35b6101cc60048036038101906101c79190611dcd565b610a71565b6040516101da929190612530565b60405180910390f35b6101fd60048036038101906101f89190611e0e565b610b36565b60405161020a919061250e565b60405180910390f35b61022d60048036038101906102289190611dcd565b610bf3565b60405161023b929190612530565b60405180910390f35b61024c610cb8565b6040516102599190612596565b60405180910390f35b61026a610cd8565b604051610277919061257b565b60405180910390f35b61029a60048036038101906102959190611dcd565b610d2d565b005b6102b660048036038101906102b19190611dcd565b61105e565b6040516102c4929190612530565b60405180910390f35b6102d5611123565b6040516102e29190612596565b60405180910390f35b60008060005b8351811015610384576000600281111561030757fe5b84828151811061031357fe5b602002602001015160200151600281111561032a57fe5b141561033b57600183019250610379565b6000600281111561034857fe5b84828151811061035457fe5b602002602001015160200151600281111561036b57fe5b1415610378576001820191505b5b6001810190506102f1565b50600081830190506000606482858161039957fe5b04029050600060648385816103aa57fe5b04029050600060646005546001816103be57fe5b04029050600081840390506000828403905060008061025842039050600060086000600154815260200190815260200160002060405180608001604052908160008201548152602001600182015481526020016002820154815260200160038201548152505090505b81816040015111156104a25782806001019350506000816060015114610498576008600082606001518152602001908152602001600020604051806080016040529081600082015481526020016001820154815260200160028201548152602001600382015481525050905061049d565b6104a2565b610427565b6000600860006001548152602001908152602001600020604051806080016040529081600082015481526020016001820154815260200160028201548152602001600382015481525050905060008486816104f957fe5b049050600061051382846020015102600754600654611143565b905082600860008560400151815260200190815260200160002060008201518160000155602082015181600101556040820151816002015560608201518160030155905050604051806080016040528060018152602001828152602001428152602001846040015181525060086000600154815260200190815260200160002060008201518160000155602082015181600101556040820151816002015560608201518160030155905050505050505050505050505050505050565b600360003373ffffffffffffffffffffffffffffffffffffffff1673ffffffffffffffffffffffffffffffffffffffff16815260200190815260200160002060000160009054906101000a900460ff161561065f576040517f08c379a0000000000000000000000000000000000000000000000000000000008152600401610656906124ee565b60405180910390fd5b6000600360003373ffffffffffffffffffffffffffffffffffffffff1673ffffffffffffffffffffffffffffffffffffffff168152602001908152602001600020905060018160000160006101000a81548160ff021916908315150217905550600181600101819055506000600460003373ffffffffffffffffffffffffffffffffffffffff1673ffffffffffffffffffffffffffffffffffffffff16815260200190815260200160002090506000604051806040016040528060028081111561072557fe5b8152602001600081525090508181908060018154018082558091505060019003906000526020600020906002020160009091909190915060008201518160000160006101000a81548160ff0219169083600281111561078057fe5b0217905550602082015181600101555050505050565b6060600460003373ffffffffffffffffffffffffffffffffffffffff1673ffffffffffffffffffffffffffffffffffffffff168152602001908152602001600020805480602002602001604051908101604052809291908181526020016000905b8282101561086057838290600052602060002090600202016040518060400160405290816000820160009054906101000a900460ff16600281111561083857fe5b600281111561084357fe5b8152602001600182015481525050815260200190600101906107f7565b50505050905090565b610871611bb8565b600360003373ffffffffffffffffffffffffffffffffffffffff1673ffffffffffffffffffffffffffffffffffffffff1681526020019081526020016000206040518060600160405290816000820160009054906101000a900460ff1615151515815260200160018201548152602001600282015481525050905090565b6108f7611bdb565b600060086000600154815260200190815260200160002060405180608001604052908160008201548152602001600182015481526020016002820154815260200160038201548152505090506000604051806080016040528060038081111561095c57fe5b81526020016000600281111561096e57fe5b8152602001836040015181526020016000815250905060006109908683611170565b9050600061099d82611232565b90508094505050505092915050565b6109b4611bdb565b60008060086000600154815260200190815260200160002060405180608001604052908160008201548152602001600182015481526020016002820154815260200160038201548152505090506000604051806080016040528060006003811115610a1b57fe5b815260200160016002811115610a2d57fe5b815260200183604001518152602001600081525090506000610a4f8683611170565b90506000610a5c82611232565b90508084600001519550955050505050915091565b610a79611bdb565b60008060086000600154815260200190815260200160002060405180608001604052908160008201548152602001600182015481526020016002820154815260200160038201548152505090506000604051806080016040528060006003811115610ae057fe5b815260200160006002811115610af257fe5b815260200183604001518152602001600081525090506000610b148683611170565b90506000610b2182611232565b90508084600001519550955050505050915091565b610b3e611bdb565b600060086000600154815260200190815260200160002060405180608001604052908160008201548152602001600182015481526020016002820154815260200160038201548152505090506000604051806080016040528060026003811115610ba457fe5b815260200160006002811115610bb657fe5b8152602001836040015181526020018581525090506000610bd78683611170565b90506000610be482611232565b90508094505050505092915050565b610bfb611bdb565b60008060086000600154815260200190815260200160002060405180608001604052908160008201548152602001600182015481526020016002820154815260200160038201548152505090506000604051806080016040528060016003811115610c6257fe5b815260200160006002811115610c7457fe5b815260200183604001518152602001600081525090506000610c968683611170565b90506000610ca382611232565b90508084600001519550955050505050915091565b600060086000600154815260200190815260200160002060010154905090565b610ce0611c09565b600860006001548152602001908152602001600020604051806080016040529081600082015481526020016001820154815260200160028201548152602001600382015481525050905090565b60008060009054906101000a900473ffffffffffffffffffffffffffffffffffffffff1673ffffffffffffffffffffffffffffffffffffffff166370a08231336040518263ffffffff1660e01b8152600401610d8991906123e8565b60206040518083038186803b158015610da157600080fd5b505afa158015610db5573d6000803e3d6000fd5b505050506040513d601f19601f82011682018060405250810190610dd99190611e62565b90506000610de683611232565b90506000600360003373ffffffffffffffffffffffffffffffffffffffff1673ffffffffffffffffffffffffffffffffffffffff168152602001908152602001600020905081600001516020015181600101819055506000600460003373ffffffffffffffffffffffffffffffffffffffff1673ffffffffffffffffffffffffffffffffffffffff16815260200190815260200160002090508260200151600081518110610e9057fe5b602002602001015181600081548110610ea557fe5b906000526020600020906002020160008201518160000160006101000a81548160ff02191690836002811115610ed757fe5b02179055506020820151816001015590505060008484604001510390506000811315610f8f5760008054906101000a900473ffffffffffffffffffffffffffffffffffffffff1673ffffffffffffffffffffffffffffffffffffffff166340c10f1933836040518363ffffffff1660e01b8152600401610f58929190612403565b600060405180830381600087803b158015610f7257600080fd5b505af1158015610f86573d6000803e3d6000fd5b5050505061104d565b600081121561104c576000817fffffffffffffffffffffffffffffffffffffffffffffffffffffffffffffffff02905060008054906101000a900473ffffffffffffffffffffffffffffffffffffffff1673ffffffffffffffffffffffffffffffffffffffff166342966c68826040518263ffffffff1660e01b81526004016110189190612596565b600060405180830381600087803b15801561103257600080fd5b505af1158015611046573d6000803e3d6000fd5b50505050505b5b611056866102eb565b505050505050565b611066611bdb565b600080600860006001548152602001908152602001600020604051806080016040529081600082015481526020016001820154815260200160028201548152602001600382015481525050905060006040518060800160405280600160038111156110cd57fe5b8152602001600160028111156110df57fe5b8152602001836040015181526020016000815250905060006111018683611170565b9050600061110e82611232565b90508084600001519550955050505050915091565b600060086000600154815260200190815260200160002060000154905090565b60008284101561115557829050611169565b8184111561116557819050611169565b8390505b9392505050565b60606000600184510167ffffffffffffffff8111801561118f57600080fd5b506040519080825280602002602001820160405280156111c957816020015b6111b6611c31565b8152602001906001900390816111ae5790505b50905060005b845181101561120e578481815181106111e457fe5b60200260200101518282815181106111f857fe5b60200260200101819052506001810190506111cf565b50828185518151811061121d57fe5b60200260200101819052508091505092915050565b61123a611bdb565b6000600360003373ffffffffffffffffffffffffffffffffffffffff1673ffffffffffffffffffffffffffffffffffffffff1681526020019081526020016000206040518060600160405290816000820160009054906101000a900460ff161515151581526020016001820154815260200160028201548152505090506000600460003373ffffffffffffffffffffffffffffffffffffffff1673ffffffffffffffffffffffffffffffffffffffff168152602001908152602001600020805480602002602001604051908101604052809291908181526020016000905b8282101561138157838290600052602060002090600202016040518060400160405290816000820160009054906101000a900460ff16600281111561135957fe5b600281111561136457fe5b815260200160018201548152505081526020019060010190611318565b50505050905060008060009054906101000a900473ffffffffffffffffffffffffffffffffffffffff1673ffffffffffffffffffffffffffffffffffffffff166370a08231336040518263ffffffff1660e01b81526004016113e391906123e8565b60206040518083038186803b1580156113fb57600080fd5b505afa15801561140f573d6000803e3d6000fd5b505050506040513d601f19601f820116820180604052508101906114339190611e62565b905060005b855181101561181457600086828151811061144f57fe5b6020026020010151905060006008600083604001518152602001908152602001600020604051806080016040529081600082015481526020016001820154815260200160028201548152602001600382015481525050905060006114b7878460200151611840565b905060006114c98385602001516118a2565b9050600160038111156114d857fe5b846000015160038111156114e857fe5b141561155f578160011115611532576040517f08c379a0000000000000000000000000000000000000000000000000000000008152600401611529906124ae565b60405180910390fd5b611543888560200151600180611904565b97506115588187611a2690919063ffffffff16565b9550611803565b6000600381111561156c57fe5b8460000151600381111561157c57fe5b14156115f357808610156115c5576040517f08c379a00000000000000000000000000000000000000000000000000000000081526004016115bc9061244e565b60405180910390fd5b6115d88187611aae90919063ffffffff16565b95506115ec88856020015160006001611904565b9750611802565b6002600381111561160057fe5b8460000151600381111561161057fe5b14156116ba5760008211611659576040517f08c379a00000000000000000000000000000000000000000000000000000000081526004016116509061246e565b60405180910390fd5b600060405180604001604052808660200151600281111561167657fe5b815260200186604001518152509050808886606001518151811061169657fe5b60200260200101819052506116b2898660200151600180611904565b985050611801565b6003808111156116c657fe5b846000015160038111156116d657fe5b1415611800576000878560600151815181106116ee57fe5b602002602001015190508460200151600281111561170857fe5b8160000151600281111561171857fe5b14611758576040517f08c379a000000000000000000000000000000000000000000000000000000000815260040161174f9061248e565b60405180910390fd5b600081602001514203905060095481116117a7576040517f08c379a000000000000000000000000000000000000000000000000000000000815260040161179e906124ce565b60405180910390fd5b600060405180604001604052806002808111156117c057fe5b815260200160008152509050808a8860600151815181106117dd57fe5b60200260200101819052506117fa8b886020015160006002611904565b9a505050505b5b5b5b505050508080600101915050611438565b506040518060800160405280848152602001838152602001828152602001868152509350505050919050565b600080600281111561184e57fe5b82600281111561185a57fe5b141561186c578260200151905061189c565b6001600281111561187957fe5b82600281111561188557fe5b1415611897578260400151905061189c565b600090505b92915050565b60008060028111156118b057fe5b8260028111156118bc57fe5b14156118ce57826000015190506118fe565b600160028111156118db57fe5b8260028111156118e757fe5b14156118f957826020015190506118fe565b600090505b92915050565b61190c611bb8565b6000600281111561191957fe5b84600281111561192557fe5b1415611995576000600181111561193857fe5b83600181111561194457fe5b141561196f57611961828660200151611a2690919063ffffffff16565b856020018181525050611990565b611986828660200151611aae90919063ffffffff16565b8560200181815250505b611a1b565b600160028111156119a257fe5b8460028111156119ae57fe5b1415611a1a57600060018111156119c157fe5b8360018111156119cd57fe5b14156119f8576119ea828660400151611a2690919063ffffffff16565b856040018181525050611a19565b611a0f828660400151611aae90919063ffffffff16565b8560400181815250505b5b5b849050949350505050565b600080828401905083811015611aa4576040517f08c379a000000000000000000000000000000000000000000000000000000000815260040180806020018281038252601b8152602001807f536166654d6174683a206164646974696f6e206f766572666c6f77000000000081525060200191505060405180910390fd5b8091505092915050565b6000611af083836040518060400160405280601e81526020017f536166654d6174683a207375627472616374696f6e206f766572666c6f770000815250611af8565b905092915050565b6000838311158290611ba5576040517f08c379a00000000000000000000000000000000000000000000000000000000081526004018080602001828103825283818151815260200191508051906020019080838360005b83811015611b6a578082015181840152602081019050611b4f565b50505050905090810190601f168015611b975780820380516001836020036101000a031916815260200191505b509250505060405180910390fd5b5060008385039050809150509392505050565b604051806060016040528060001515815260200160008152602001600081525090565b6040518060800160405280611bee611bb8565b81526020016060815260200160008152602001606081525090565b6040518060800160405280600081526020016000815260200160008152602001600081525090565b604051806080016040528060006003811115611c4957fe5b815260200160006002811115611c5b57fe5b815260200160008152602001600081525090565b6000611c82611c7d846125e2565b6125b1565b90508083825260208201905082856080860282011115611ca157600080fd5b60005b85811015611cd15781611cb78882611d2f565b845260208401935060808301925050600181019050611ca4565b5050509392505050565b600082601f830112611cec57600080fd5b8135611cfc848260208601611c6f565b91505092915050565b600081359050611d1481612782565b92915050565b600081359050611d2981612792565b92915050565b600060808284031215611d4157600080fd5b611d4b60806125b1565b90506000611d5b84828501611d05565b6000830152506020611d6f84828501611d1a565b6020830152506040611d8384828501611da3565b6040830152506060611d9784828501611da3565b60608301525092915050565b600081359050611db2816127a2565b92915050565b600081519050611dc7816127a2565b92915050565b600060208284031215611ddf57600080fd5b600082013567ffffffffffffffff811115611df957600080fd5b611e0584828501611cdb565b91505092915050565b60008060408385031215611e2157600080fd5b600083013567ffffffffffffffff811115611e3b57600080fd5b611e4785828601611cdb565b9250506020611e5885828601611da3565b9150509250929050565b600060208284031215611e7457600080fd5b6000611e8284828501611db8565b91505092915050565b6000611e978383612346565b60408301905092915050565b6000611eaf8383612375565b60808301905092915050565b611ec4816126fe565b82525050565b6000611ed58261262e565b611edf818561265e565b9350611eea8361260e565b8060005b83811015611f1b578151611f028882611e8b565b9750611f0d83612644565b925050600181019050611eee565b5085935050505092915050565b6000611f338261262e565b611f3d818561266f565b9350611f488361260e565b8060005b83811015611f79578151611f608882611e8b565b9750611f6b83612644565b925050600181019050611f4c565b5085935050505092915050565b6000611f9182612639565b611f9b8185612680565b9350611fa68361261e565b8060005b83811015611fd7578151611fbe8882611ea3565b9750611fc983612651565b925050600181019050611faa565b5085935050505092915050565b611fed816126a2565b82525050565b611ffc81612710565b82525050565b61200b81612722565b82525050565b600061201e602b83612691565b91507f496e76616c6964206661726d3a204e6f7420656e6f756768206d6f6e6579207460008301527f6f206275792073656564730000000000000000000000000000000000000000006020830152604082019050919050565b6000612084602783612691565b91507f496e76616c6964206661726d3a204e6f7420656e6f756768207365656473207460008301527f6f20706c616e74000000000000000000000000000000000000000000000000006020830152604082019050919050565b60006120ea601d83612691565b91507f496e76616c6964206661726d3a204e6f206672756974206578697374730000006000830152602082019050919050565b600061212a601e83612691565b91507f496e76616c6964206661726d3a204e6f20736565647320746f2073656c6c00006000830152602082019050919050565b600061216a602383612691565b91507f496e76616c6964206661726d3a20546865206672756974206973206e6f74207260008301527f69706500000000000000000000000000000000000000000000000000000000006020830152604082019050919050565b60006121d0601883612691565b91507f496e76656e746f727920616c72656164792065786973747300000000000000006000830152602082019050919050565b600060c08301600083015161221b600086018261226d565b50602083015184820360608601526122338282611eca565b915050604083015161224860808601826123ca565b50606083015184820360a08601526122608282611f86565b9150508091505092915050565b6060820160008201516122836000850182611fe4565b50602082015161229660208501826123ca565b5060408201516122a960408501826123ca565b50505050565b6060820160008201516122c56000850182611fe4565b5060208201516122d860208501826123ca565b5060408201516122eb60408501826123ca565b50505050565b60808201600082015161230760008501826123ca565b50602082015161231a60208501826123ca565b50604082015161232d60408501826123ca565b50606082015161234060608501826123ca565b50505050565b60408201600082015161235c6000850182612002565b50602082015161236f60208501826123ca565b50505050565b60808201600082015161238b6000850182611ff3565b50602082015161239e6020850182612002565b5060408201516123b160408501826123ca565b5060608201516123c460608501826123ca565b50505050565b6123d3816126f4565b82525050565b6123e2816126f4565b82525050565b60006020820190506123fd6000830184611ebb565b92915050565b60006040820190506124186000830185611ebb565b61242560208301846123d9565b9392505050565b600060208201905081810360008301526124468184611f28565b905092915050565b6000602082019050818103600083015261246781612011565b9050919050565b6000602082019050818103600083015261248781612077565b9050919050565b600060208201905081810360008301526124a7816120dd565b9050919050565b600060208201905081810360008301526124c78161211d565b9050919050565b600060208201905081810360008301526124e78161215d565b9050919050565b60006020820190508181036000830152612507816121c3565b9050919050565b600060208201905081810360008301526125288184612203565b905092915050565b6000604082019050818103600083015261254a8185612203565b905061255960208301846123d9565b9392505050565b600060608201905061257560008301846122af565b92915050565b600060808201905061259060008301846122f1565b92915050565b60006020820190506125ab60008301846123d9565b92915050565b6000604051905081810181811067ffffffffffffffff821117156125d8576125d7612758565b5b8060405250919050565b600067ffffffffffffffff8211156125fd576125fc612758565b5b602082029050602081019050919050565b6000819050602082019050919050565b6000819050602082019050919050565b600081519050919050565b600081519050919050565b6000602082019050919050565b6000602082019050919050565b600082825260208201905092915050565b600082825260208201905092915050565b600082825260208201905092915050565b600082825260208201905092915050565b60008115159050919050565b60008190506126bc8261275a565b919050565b60008190506126cf8261276e565b919050565b600073ffffffffffffffffffffffffffffffffffffffff82169050919050565b6000819050919050565b600061270982612734565b9050919050565b600061271b826126ae565b9050919050565b600061272d826126c1565b9050919050565b600061273f82612746565b9050919050565b6000612751826126d4565b9050919050565bfe5b6004811061276b5761276a612758565b5b50565b6003811061277f5761277e612758565b5b50565b6004811061278f57600080fd5b50565b6003811061279f57600080fd5b50565b6127ab816126f4565b81146127b657600080fd5b5056fea264697066735822122033c7628de68099696aa85adb404647642c12896a3edefb524508c38a21357c8464736f6c63430007060033",
  "immutableReferences": {},
  "source": "pragma solidity >=0.6.0 <0.8.0;\r\npragma experimental ABIEncoderV2;\r\n\r\nimport \"@openzeppelin/contracts/math/Math.sol\";\r\nimport \"./Token.sol\";\r\n\r\ncontract Farm {\r\n    using SafeMath for uint256;\r\n\r\n    //assign Token contract to variable\r\n    Token private token;\r\n    uint NOW_TIMESTAMP = 69;\r\n    uint DECIMAL_PLACES = 2;\r\n\r\n    struct Square {\r\n        Commodity commodity;\r\n        uint createdAt;\r\n    }\r\n\r\n    struct Inventory {\r\n        bool isInitialized;\r\n        uint apples;\r\n        uint avocados;\r\n    }\r\n\r\n\r\n    mapping(address => Inventory) inventories;\r\n    mapping(address => Square[]) fields;\r\n\r\n    //pass as constructor argument deployed Token contract\r\n    constructor(Token _token) public {\r\n        //assign token deployed contract to variable\r\n        token = _token;\r\n\r\n        // Initial prices\r\n        market[NOW_TIMESTAMP] = Prices({\r\n            apples: 100, \r\n            avocados: 1000,\r\n            timestamp: NOW_TIMESTAMP,\r\n            previousTimestamp: 0\r\n        });\r\n    }\r\n\r\n    function createFarm() public {\r\n        require(!inventories[msg.sender].isInitialized, \"Inventory already exists\");\r\n\r\n        Inventory storage inventory = inventories[msg.sender];\r\n        inventory.isInitialized = true;\r\n        inventory.apples = 1;\r\n\r\n        // Farm only has 1 block\r\n        Square[] storage land = fields[msg.sender];\r\n        Square memory empty = Square(Commodity.Empty, 0);\r\n        land.push(empty);\r\n    }\r\n\r\n    function getInventory() public view returns (Inventory memory) {\r\n        return inventories[msg.sender];\r\n    }\r\n\r\n    function getLand() public view returns (Square[] memory) {\r\n        return fields[msg.sender];\r\n    }\r\n\r\n    enum Action { Buy, Sell, Plant, Harvest }\r\n    uint FRUIT_COUNT = 2;\r\n    enum Commodity { AppleSeed, AvocadoSeed, Empty }\r\n\r\n    struct Transaction { \r\n        Action action;\r\n        Commodity commodity;\r\n        uint timestamp;\r\n        uint landIndex;\r\n    }\r\n\r\n    uint MAX_AVOCADO_PRICE = 500;\r\n    uint MIN_AVOCADO_PRICE = 300;\r\n\r\n    struct Prices {\r\n        uint apples;\r\n        uint avocados;\r\n        uint timestamp;\r\n        uint previousTimestamp;\r\n    }\r\n     \r\n    mapping(uint => Prices) market;\r\n\r\n    struct Farm {\r\n        Inventory inventory;\r\n        Square[] land;\r\n        uint balance;\r\n        Transaction[] transactions;\r\n    }\r\n\r\n    uint APPLE_HARVEST_MILLSECONDS = 60 * 1000;\r\n\r\n    function getSeedFromInventory(Inventory memory _inventory, Commodity _commodity) private view returns (uint count) {\r\n        if (_commodity == Commodity.AppleSeed) {\r\n            return _inventory.apples;\r\n        } else if (_commodity == Commodity.AvocadoSeed) {\r\n            return _inventory.avocados;\r\n        }\r\n\r\n        return 0;\r\n    }\r\n\r\n    function getFruitPrice(Prices memory prices, Commodity _commodity) private view returns (uint price) {\r\n        if (_commodity == Commodity.AppleSeed) {\r\n            return prices.apples;\r\n        } else if (_commodity == Commodity.AvocadoSeed) {\r\n            return prices.avocados;\r\n        }\r\n\r\n        return 0;\r\n    }\r\n\r\n    enum InventoryAction {\r\n        Add,\r\n        Subtract\r\n    }\r\n\r\n    function updateInventory(Inventory memory _inventory, Commodity _commodity, InventoryAction _action, uint _change) private view returns (Inventory memory) {\r\n        if (_commodity == Commodity.AppleSeed) {\r\n            if (_action == InventoryAction.Add) {\r\n                _inventory.apples = _inventory.apples.add(_change);\r\n            } else {\r\n                _inventory.apples = _inventory.apples.sub(_change);\r\n            }\r\n        } else if (_commodity == Commodity.AvocadoSeed) {\r\n            if (_action == InventoryAction.Add) {\r\n                _inventory.avocados = _inventory.avocados.add(_change);\r\n            } else {\r\n                _inventory.avocados = _inventory.avocados.sub(_change);\r\n            }\r\n        }\r\n\r\n        return _inventory;\r\n    }\r\n\r\n    function buildFarm(Transaction[] memory _transactions) private view returns (Farm memory currentFarm) {\r\n        Inventory memory inventory = inventories[msg.sender];\r\n        Square[] memory land = fields[msg.sender];\r\n        uint balance = token.balanceOf(msg.sender);\r\n\r\n        for (uint index = 0; index < _transactions.length; index++) {\r\n            Transaction memory transaction = _transactions[index];\r\n            Prices memory prices = market[transaction.timestamp];\r\n            \r\n            uint seedCount = getSeedFromInventory(inventory, transaction.commodity);\r\n            uint price = getFruitPrice(prices, transaction.commodity);\r\n\r\n            if (transaction.action == Action.Sell) {\r\n                require(1 <= seedCount, \"Invalid farm: No seeds to sell\");\r\n\r\n                inventory = updateInventory(inventory, transaction.commodity, InventoryAction.Subtract, 1);\r\n                balance = balance.add(price);\r\n            } else if (transaction.action == Action.Buy) {\r\n                require(balance >= price, \"Invalid farm: Not enough money to buy seeds\");\r\n\r\n                balance = balance.sub(price);\r\n                inventory = updateInventory(inventory, transaction.commodity, InventoryAction.Add, 1);\r\n            } else if (transaction.action == Action.Plant) {\r\n                require(seedCount > 0, \"Invalid farm: Not enough seeds to plant\");\r\n\r\n                Square memory plantedSeed = Square(transaction.commodity, transaction.timestamp);\r\n                land[transaction.landIndex] = plantedSeed;\r\n                inventory = updateInventory(inventory, transaction.commodity, InventoryAction.Subtract, 1);\r\n            } else if (transaction.action == Action.Harvest) {\r\n                Square memory square = land[transaction.landIndex];\r\n                require(square.commodity == transaction.commodity, \"Invalid farm: No fruit exists\");\r\n\r\n                uint duration = block.timestamp - square.createdAt;\r\n                require(duration > APPLE_HARVEST_MILLSECONDS, \"Invalid farm: The fruit is not ripe\");\r\n\r\n                // Clear the land\r\n                Square memory emptyLand = Square(Commodity.Empty, 0);\r\n                land[transaction.landIndex] = emptyLand;\r\n                inventory = updateInventory(inventory, transaction.commodity, InventoryAction.Add, 2);\r\n            }\r\n        }\r\n\r\n        return Farm({\r\n            inventory: inventory,\r\n            land: land,\r\n            balance: balance,\r\n            transactions: _transactions\r\n        });\r\n    }\r\n\r\n    function clamp(uint value, uint minimum, uint maximum) private pure returns (uint clamped) {\r\n        if (value < minimum) {\r\n            return minimum;\r\n        }\r\n\r\n        if (value > maximum) {\r\n            return maximum;\r\n        }\r\n\r\n        return value;\r\n    }\r\n\r\n    // Assume the proportional number of transactions is what influences price\r\n    // Since at the time of transaction, they will likely be buying something and have sold all their seeds\r\n    function moveTheMarket(Transaction[] memory _transactions) public {\r\n        uint apples = 0;\r\n        uint avocados = 0;\r\n\r\n        // What is the biggest mover?\r\n        for (uint i=0; i < _transactions.length; i += 1) {\r\n            if ( _transactions[i].commodity == Commodity.AppleSeed) {\r\n                apples += 1;\r\n            } else if ( _transactions[i].commodity == Commodity.AppleSeed) {\r\n                avocados += 1;\r\n            }\r\n        }\r\n\r\n        uint totalFruitTransactions = apples + avocados;\r\n\r\n        // Percentage of transactions that were apples\r\n        uint applePercentage = apples / totalFruitTransactions * 100;\r\n        uint avocadoPercentage = avocados / totalFruitTransactions * 100;\r\n        uint expectedTransactions = 1 / FRUIT_COUNT * 100;\r\n\r\n        uint appleChange = applePercentage - expectedTransactions;\r\n        uint avocadoChange = avocadoPercentage - expectedTransactions;\r\n\r\n\r\n        // TODO even out the price from the previous hour - store transactions in the last hour?\r\n        uint transactionCount = 0;\r\n        uint tenMinutesAgo = block.timestamp - (60 * 10);\r\n        Prices memory prices = market[NOW_TIMESTAMP];\r\n        while (prices.timestamp > tenMinutesAgo) {\r\n            transactionCount++;\r\n            \r\n            if (prices.previousTimestamp != 0) {\r\n                prices = market[prices.previousTimestamp];\r\n            } else {\r\n                break;\r\n            }\r\n        }\r\n\r\n        Prices memory currentPrices = market[NOW_TIMESTAMP];\r\n\r\n        // Apples are staple, they always stay at 1 FMC\r\n        uint relativeAvocadoChange = avocadoChange / transactionCount;\r\n        uint newAvocadoPrice = clamp(currentPrices.avocados * relativeAvocadoChange, MIN_AVOCADO_PRICE, MAX_AVOCADO_PRICE);\r\n\r\n        market[currentPrices.timestamp] = currentPrices;\r\n        market[NOW_TIMESTAMP] = Prices({\r\n            apples: 1,\r\n            avocados: newAvocadoPrice,\r\n            timestamp: block.timestamp,\r\n            previousTimestamp: currentPrices.timestamp\r\n        });\r\n    }\r\n\r\n    function sync(Transaction[] memory _transactions) public {\r\n        uint balance = token.balanceOf(msg.sender);\r\n        Farm memory farm = buildFarm(_transactions);\r\n\r\n        // Update the inventory\r\n        Inventory storage oldInventory = inventories[msg.sender];\r\n\r\n        oldInventory.apples = farm.inventory.apples;\r\n\r\n        // TODO support more land\r\n        Square[] storage land = fields[msg.sender];\r\n        land[0] = farm.land[0];\r\n\r\n\r\n        // Update the users FMC - mint or burn\r\n        int balanceChange = int(farm.balance) - int(balance);\r\n        if (balanceChange > 0) {\r\n            token.mint(msg.sender, uint(balanceChange));\r\n        } else if (balanceChange < 0) {\r\n            int amountToBurn = -1 * int(balanceChange);\r\n            token.burn(uint(amountToBurn));\r\n        }\r\n\r\n        moveTheMarket(_transactions);\r\n    }\r\n\r\n    function addTransaction(Transaction[] memory _transactions, Transaction memory _transaction) private view returns (Transaction[] memory) {\r\n        Transaction[] memory newTransactions = new Transaction[](_transactions.length + 1);\r\n        for (uint i=0; i < _transactions.length; i += 1) {\r\n            newTransactions[i] = _transactions[i];\r\n        }\r\n\r\n        // Add the new transaction\r\n        newTransactions[_transactions.length] = _transaction;\r\n\r\n        return newTransactions;\r\n    }\r\n\r\n    function buyAppleSeed(Transaction[] memory _transactions) public view returns (Farm memory farm, uint price) {\r\n        Prices memory currentPrices = market[NOW_TIMESTAMP];\r\n        Transaction memory buyAppleTransaction = Transaction(Action.Buy, Commodity.AppleSeed, currentPrices.timestamp, 0);\r\n        Transaction[] memory newTransactions = addTransaction(_transactions, buyAppleTransaction);\r\n\r\n\r\n        Farm memory updatedFarm = buildFarm(newTransactions);\r\n        return (updatedFarm,currentPrices.apples);\r\n    }\r\n\r\n    function sellAppleSeed(Transaction[] memory _transactions) public view returns (Farm memory farm, uint price) {\r\n        Prices memory currentPrices = market[NOW_TIMESTAMP];\r\n        Transaction memory sellAppleTransaction = Transaction(Action.Sell, Commodity.AppleSeed, currentPrices.timestamp, 0);\r\n        Transaction[] memory newTransactions = addTransaction(_transactions, sellAppleTransaction);\r\n\r\n\r\n        Farm memory updatedFarm = buildFarm(newTransactions);\r\n        return (updatedFarm, currentPrices.apples);\r\n    }\r\n\r\n    function plantAppleSeed(Transaction[] memory _transactions, uint landIndex) public view returns (Farm memory farm) {\r\n        Prices memory currentPrices = market[NOW_TIMESTAMP];\r\n        Transaction memory plantAppleTransaction = Transaction(Action.Plant, Commodity.AppleSeed, currentPrices.timestamp, landIndex);\r\n        Transaction[] memory newTransactions = addTransaction(_transactions, plantAppleTransaction);\r\n\r\n        Farm memory updatedFarm = buildFarm(newTransactions);\r\n        return (updatedFarm);\r\n    }\r\n\r\n    function harvestAppleSeed(Transaction[] memory _transactions, uint landIndex) public view returns (Farm memory farm) {\r\n        // Add the new transaction\r\n        Prices memory currentPrices = market[NOW_TIMESTAMP];\r\n        Transaction memory plantAppleTransaction = Transaction(Action.Harvest, Commodity.AppleSeed, currentPrices.timestamp, 0);\r\n        Transaction[] memory newTransactions = addTransaction(_transactions, plantAppleTransaction);\r\n\r\n        Farm memory updatedFarm = buildFarm(newTransactions);\r\n        return (updatedFarm);\r\n    }\r\n\r\n    function buyAvocadoSeed(Transaction[] memory _transactions) public view returns (Farm memory farm, uint price) {\r\n        Prices memory currentPrices = market[NOW_TIMESTAMP];\r\n        Transaction memory buyAppleTransaction = Transaction(Action.Buy, Commodity.AvocadoSeed, currentPrices.timestamp, 0);\r\n        Transaction[] memory newTransactions = addTransaction(_transactions, buyAppleTransaction);\r\n\r\n\r\n        Farm memory updatedFarm = buildFarm(newTransactions);\r\n        return (updatedFarm,currentPrices.apples);\r\n    }\r\n\r\n    function sellAvocadoSeed(Transaction[] memory _transactions) public view returns (Farm memory farm, uint price) {\r\n        Prices memory currentPrices = market[NOW_TIMESTAMP];\r\n        Transaction memory sellAppleTransaction = Transaction(Action.Sell, Commodity.AvocadoSeed, currentPrices.timestamp, 0);\r\n        Transaction[] memory newTransactions = addTransaction(_transactions, sellAppleTransaction);\r\n\r\n\r\n        Farm memory updatedFarm = buildFarm(newTransactions);\r\n        return (updatedFarm, currentPrices.apples);\r\n    }\r\n\r\n    function getPrices() public view returns (Prices memory price) {\r\n        return market[NOW_TIMESTAMP];\r\n    }\r\n\r\n    function getApplePrice() public view returns (uint price) {\r\n        return market[NOW_TIMESTAMP].apples;\r\n    }\r\n\r\n    function getAvocadoPrice() public view returns (uint price) {\r\n        return market[NOW_TIMESTAMP].avocados;\r\n    }\r\n}\r\n",
  "sourcePath": "/Users/adamhannigan/Documents/workspace/fruit-market/src/contracts/Farm.sol",
  "compiler": {
    "name": "solc",
    "version": "0.7.6+commit.7338295f.Emscripten.clang"
  },
  "schemaVersion": "3.3.3",
  "updatedAt": "2021-05-09T01:48:14.427Z",
  "devdoc": {
    "kind": "dev",
    "methods": {},
    "version": 1
  },
  "userdoc": {
    "kind": "user",
    "methods": {},
    "version": 1
  }
}