{
  "contractName": "Farm",
  "abi": [
    {
      "inputs": [
        {
          "internalType": "contract Token",
          "name": "_token",
          "type": "address"
        }
      ],
      "stateMutability": "nonpayable",
      "type": "constructor"
    },
    {
      "anonymous": false,
      "inputs": [
        {
          "indexed": true,
          "internalType": "address",
          "name": "_address",
          "type": "address"
        }
      ],
      "name": "FarmCreated",
      "type": "event"
    },
    {
      "anonymous": false,
      "inputs": [
        {
          "indexed": true,
          "internalType": "address",
          "name": "_address",
          "type": "address"
        }
      ],
      "name": "FarmSynced",
      "type": "event"
    },
    {
      "inputs": [],
      "name": "createFarm",
      "outputs": [],
      "stateMutability": "nonpayable",
      "type": "function"
    },
    {
      "inputs": [],
      "name": "lastSyncedAt",
      "outputs": [
        {
          "internalType": "uint256",
          "name": "",
          "type": "uint256"
        }
      ],
      "stateMutability": "view",
      "type": "function"
    },
    {
      "inputs": [],
      "name": "getLand",
      "outputs": [
        {
          "components": [
            {
              "internalType": "enum Farm.Fruit",
              "name": "fruit",
              "type": "uint8"
            },
            {
              "internalType": "uint256",
              "name": "createdAt",
              "type": "uint256"
            }
          ],
          "internalType": "struct Farm.Square[]",
          "name": "",
          "type": "tuple[]"
        }
      ],
      "stateMutability": "view",
      "type": "function"
    },
    {
      "inputs": [
        {
          "components": [
            {
              "internalType": "enum Farm.Action",
              "name": "action",
              "type": "uint8"
            },
            {
              "internalType": "enum Farm.Fruit",
              "name": "fruit",
              "type": "uint8"
            },
            {
              "internalType": "uint256",
              "name": "landIndex",
              "type": "uint256"
            },
            {
              "internalType": "uint256",
              "name": "createdAt",
              "type": "uint256"
            }
          ],
          "internalType": "struct Farm.Event[]",
          "name": "_events",
          "type": "tuple[]"
        }
      ],
      "name": "buildFarm",
      "outputs": [
        {
          "components": [
            {
              "components": [
                {
                  "internalType": "enum Farm.Fruit",
                  "name": "fruit",
                  "type": "uint8"
                },
                {
                  "internalType": "uint256",
                  "name": "createdAt",
                  "type": "uint256"
                }
              ],
              "internalType": "struct Farm.Square[]",
              "name": "land",
              "type": "tuple[]"
            },
            {
              "internalType": "uint256",
              "name": "balance",
              "type": "uint256"
            }
          ],
          "internalType": "struct Farm.Farm",
          "name": "currentFarm",
          "type": "tuple"
        }
      ],
      "stateMutability": "view",
      "type": "function"
    },
    {
      "inputs": [
        {
          "components": [
            {
              "internalType": "enum Farm.Action",
              "name": "action",
              "type": "uint8"
            },
            {
              "internalType": "enum Farm.Fruit",
              "name": "fruit",
              "type": "uint8"
            },
            {
              "internalType": "uint256",
              "name": "landIndex",
              "type": "uint256"
            },
            {
              "internalType": "uint256",
              "name": "createdAt",
              "type": "uint256"
            }
          ],
          "internalType": "struct Farm.Event[]",
          "name": "_events",
          "type": "tuple[]"
        }
      ],
      "name": "sync",
      "outputs": [
        {
          "components": [
            {
              "components": [
                {
                  "internalType": "enum Farm.Fruit",
                  "name": "fruit",
                  "type": "uint8"
                },
                {
                  "internalType": "uint256",
                  "name": "createdAt",
                  "type": "uint256"
                }
              ],
              "internalType": "struct Farm.Square[]",
              "name": "land",
              "type": "tuple[]"
            },
            {
              "internalType": "uint256",
              "name": "balance",
              "type": "uint256"
            }
          ],
          "internalType": "struct Farm.Farm",
          "name": "",
          "type": "tuple"
        }
      ],
      "stateMutability": "nonpayable",
      "type": "function"
    },
    {
      "inputs": [],
      "name": "levelUp",
      "outputs": [],
      "stateMutability": "nonpayable",
      "type": "function"
    },
    {
      "inputs": [
        {
          "internalType": "uint256",
          "name": "price",
          "type": "uint256"
        }
      ],
      "name": "getMarketPrice",
      "outputs": [
        {
          "internalType": "uint256",
          "name": "conversion",
          "type": "uint256"
        }
      ],
      "stateMutability": "view",
      "type": "function"
    },
    {
      "inputs": [],
      "name": "getNow",
      "outputs": [
        {
          "internalType": "uint256",
          "name": "time",
          "type": "uint256"
        }
      ],
      "stateMutability": "view",
      "type": "function"
    }
  ],
  "bytecode": "0x60806040526107086003553480156200001757600080fd5b5060405162002d6438038062002d6483398181016040528101906200003d91906200009b565b806000806101000a81548173ffffffffffffffffffffffffffffffffffffffff021916908373ffffffffffffffffffffffffffffffffffffffff1602179055505062000129565b60008151905062000095816200010f565b92915050565b600060208284031215620000ae57600080fd5b6000620000be8482850162000084565b91505092915050565b6000620000d482620000ef565b9050919050565b6000620000e882620000c7565b9050919050565b600073ffffffffffffffffffffffffffffffffffffffff82169050919050565b6200011a81620000db565b81146200012657600080fd5b50565b612c2b80620001396000396000f3fe608060405234801561001057600080fd5b50600436106100885760003560e01c8063775778401161005b57806377577840146100dd5780638928378e1461010d578063bbe4fd501461013d578063d53f9c9b1461015b57610088565b80631d5ec3cb1461008d578063285532dd146100975780634ea1ecf9146100b55780635690314c146100bf575b600080fd5b61009561018b565b005b61009f61050c565b6040516100ac9190612a03565b60405180910390f35b6100bd610553565b005b6100c7610a25565b6040516100d4919061283f565b60405180910390f35b6100f760048036038101906100f2919061228b565b610af8565b60405161010491906129e1565b60405180910390f35b610127600480360381019061012291906122cc565b6110d5565b6040516101349190612a03565b60405180910390f35b6101456110f4565b6040516101529190612a03565b60405180910390f35b6101756004803603810190610170919061228b565b6110fc565b60405161018291906129e1565b60405180910390f35b6000600260003373ffffffffffffffffffffffffffffffffffffffff1673ffffffffffffffffffffffffffffffffffffffff16815260200190815260200160002054905060008114610212576040517f08c379a000000000000000000000000000000000000000000000000000000000815260040161020990612881565b60405180910390fd5b6000600160003373ffffffffffffffffffffffffffffffffffffffff1673ffffffffffffffffffffffffffffffffffffffff1681526020019081526020016000209050600060405180604001604052806000600781111561026f57fe5b8152602001428152509050600060405180604001604052806001600781111561029457fe5b81526020014281525090508282908060018154018082558091505060019003906000526020600020906002020160009091909190915060008201518160000160006101000a81548160ff021916908360078111156102ee57fe5b02179055506020820151816001015550508281908060018154018082558091505060019003906000526020600020906002020160009091909190915060008201518160000160006101000a81548160ff0219169083600781111561034e57fe5b02179055506020820151816001015550508281908060018154018082558091505060019003906000526020600020906002020160009091909190915060008201518160000160006101000a81548160ff021916908360078111156103ae57fe5b02179055506020820151816001015550508281908060018154018082558091505060019003906000526020600020906002020160009091909190915060008201518160000160006101000a81548160ff0219169083600781111561040e57fe5b02179055506020820151816001015550508282908060018154018082558091505060019003906000526020600020906002020160009091909190915060008201518160000160006101000a81548160ff0219169083600781111561046e57fe5b021790555060208201518160010155505042600260003373ffffffffffffffffffffffffffffffffffffffff1673ffffffffffffffffffffffffffffffffffffffff168152602001908152602001600020819055503373ffffffffffffffffffffffffffffffffffffffff167f46963f16723a084f2199eb74021bd97647aa6c8960612a9a031ce509d40d4ca760405160405180910390a250505050565b6000600260003373ffffffffffffffffffffffffffffffffffffffff1673ffffffffffffffffffffffffffffffffffffffff16815260200190815260200160002054905090565b600061055d61050c565b1161059d576040517f08c379a0000000000000000000000000000000000000000000000000000000008152600401610594906129c1565b60405180910390fd5b6011600160003373ffffffffffffffffffffffffffffffffffffffff1673ffffffffffffffffffffffffffffffffffffffff168152602001908152602001600020805490501115610623576040517f08c379a000000000000000000000000000000000000000000000000000000000815260040161061a906128e1565b60405180910390fd5b6000600160003373ffffffffffffffffffffffffffffffffffffffff1673ffffffffffffffffffffffffffffffffffffffff1681526020019081526020016000209050600061067582805490506114d3565b90506000610682826110d5565b905060008060009054906101000a900473ffffffffffffffffffffffffffffffffffffffff1673ffffffffffffffffffffffffffffffffffffffff166370a08231336040518263ffffffff1660e01b81526004016106e091906127d2565b60206040518083038186803b1580156106f857600080fd5b505afa15801561070c573d6000803e3d6000fd5b505050506040513d601f19601f8201168201806040525081019061073091906122f5565b905081811015610775576040517f08c379a000000000000000000000000000000000000000000000000000000000815260040161076c90612861565b60405180910390fd5b600060405180604001604052806000600781111561078f57fe5b815260200142815250905060005b6003811015610813578582908060018154018082558091505060019003906000526020600020906002020160009091909190915060008201518160000160006101000a81548160ff021916908360078111156107f557fe5b0217905550602082015181600101555050808060010191505061079d565b5060008054906101000a900473ffffffffffffffffffffffffffffffffffffffff1673ffffffffffffffffffffffffffffffffffffffff16639dc29fac33856040518363ffffffff1660e01b815260040161086f9291906127ed565b600060405180830381600087803b15801561088957600080fd5b505af115801561089d573d6000803e3d6000fd5b505050506000600584816108ad57fe5b04905060008054906101000a900473ffffffffffffffffffffffffffffffffffffffff1673ffffffffffffffffffffffffffffffffffffffff166340c10f1960008054906101000a900473ffffffffffffffffffffffffffffffffffffffff1673ffffffffffffffffffffffffffffffffffffffff1663893d20e86040518163ffffffff1660e01b815260040160206040518083038186803b15801561095257600080fd5b505afa158015610966573d6000803e3d6000fd5b505050506040513d601f19601f8201168201806040525081019061098a9190612262565b836040518363ffffffff1660e01b81526004016109a8929190612816565b600060405180830381600087803b1580156109c257600080fd5b505af11580156109d6573d6000803e3d6000fd5b505050503373ffffffffffffffffffffffffffffffffffffffff167fbe35fe23c13a419d565edccb8c8bdedc160c5b9a82873e431b545080d6f3c68860405160405180910390a2505050505050565b6060600160003373ffffffffffffffffffffffffffffffffffffffff1673ffffffffffffffffffffffffffffffffffffffff168152602001908152602001600020805480602002602001604051908101604052809291908181526020016000905b82821015610aef57838290600052602060002090600202016040518060400160405290816000820160009054906101000a900460ff166007811115610ac757fe5b6007811115610ad257fe5b815260200160018201548152505081526020019060010190610a86565b50505050905090565b610b006120c0565b6000600160003373ffffffffffffffffffffffffffffffffffffffff1673ffffffffffffffffffffffffffffffffffffffff168152602001908152602001600020805480602002602001604051908101604052809291908181526020016000905b82821015610bca57838290600052602060002090600202016040518060400160405290816000820160009054906101000a900460ff166007811115610ba257fe5b6007811115610bad57fe5b815260200160018201548152505081526020019060010190610b61565b50505050905060008060009054906101000a900473ffffffffffffffffffffffffffffffffffffffff1673ffffffffffffffffffffffffffffffffffffffff166370a08231336040518263ffffffff1660e01b8152600401610c2c91906127d2565b60206040518083038186803b158015610c4457600080fd5b505afa158015610c58573d6000803e3d6000fd5b505050506040513d601f19601f82011682018060405250810190610c7c91906122f5565b905060005b84518110156110b6576000858281518110610c9857fe5b602002602001015190506000600354420390508082606001511015610cf2576040517f08c379a0000000000000000000000000000000000000000000000000000000008152600401610ce990612941565b60405180910390fd5b610cfa61050c565b82606001511015610d40576040517f08c379a0000000000000000000000000000000000000000000000000000000008152600401610d37906128a1565b60405180910390fd5b4282606001511115610d87576040517f08c379a0000000000000000000000000000000000000000000000000000000008152600401610d7e90612901565b60405180910390fd5b6000831115610df257866001840381518110610d9f57fe5b60200260200101516060015182606001511015610df1576040517f08c379a0000000000000000000000000000000000000000000000000000000008152600401610de890612921565b60405180910390fd5b5b60006001811115610dff57fe5b82600001516001811115610e0f57fe5b1415610f2b57610e2282602001516115ce565b85511015610e65576040517f08c379a0000000000000000000000000000000000000000000000000000000008152600401610e5c90612981565b60405180910390fd5b6000610e748360200151611724565b90506000610e81826110d5565b905080861015610ec6576040517f08c379a0000000000000000000000000000000000000000000000000000000008152600401610ebd90612861565b60405180910390fd5b610ed9818761197c90919063ffffffff16565b95506000604051806040016040528086602001516007811115610ef857fe5b8152602001866060015181525090508088866040015181518110610f1857fe5b60200260200101819052505050506110a7565b600180811115610f3757fe5b82600001516001811115610f4757fe5b14156110a657600085836040015181518110610f5f57fe5b6020026020010151905060006007811115610f7657fe5b81600001516007811115610f8657fe5b1415610fc7576040517f08c379a0000000000000000000000000000000000000000000000000000000008152600401610fbe906129a1565b60405180910390fd5b6000816020015184606001510390506000610fe583600001516119c6565b90508082101561102a576040517f08c379a000000000000000000000000000000000000000000000000000000000815260040161102190612961565b60405180910390fd5b600060405180604001604052806000600781111561104457fe5b815260200160008152509050808987604001518151811061106157fe5b6020026020010181905250600061107b8560000151611b2d565b90506000611088826110d5565b905061109d818b611d9390919063ffffffff16565b99505050505050505b5b50508080600101915050610c81565b5060405180604001604052808381526020018281525092505050919050565b6000806110e0611e1b565b90508083816110eb57fe5b04915050919050565b600042905090565b6111046120c0565b600061110e61050c565b1161114e576040517f08c379a0000000000000000000000000000000000000000000000000000000008152600401611145906129c1565b60405180910390fd5b60008060009054906101000a900473ffffffffffffffffffffffffffffffffffffffff1673ffffffffffffffffffffffffffffffffffffffff166370a08231336040518263ffffffff1660e01b81526004016111aa91906127d2565b60206040518083038186803b1580156111c257600080fd5b505afa1580156111d6573d6000803e3d6000fd5b505050506040513d601f19601f820116820180604052508101906111fa91906122f5565b9050600061120784610af8565b90506000600160003373ffffffffffffffffffffffffffffffffffffffff1673ffffffffffffffffffffffffffffffffffffffff168152602001908152602001600020905060005b8260000151518110156112cf578260000151818151811061126c57fe5b602002602001015182828154811061128057fe5b906000526020600020906002020160008201518160000160006101000a81548160ff021916908360078111156112b257fe5b02179055506020820151816001015590505060018101905061124f565b50828260200151111561138a5760006112f584846020015161197c90919063ffffffff16565b905060008054906101000a900473ffffffffffffffffffffffffffffffffffffffff1673ffffffffffffffffffffffffffffffffffffffff166340c10f1933836040518363ffffffff1660e01b81526004016113529291906127ed565b600060405180830381600087803b15801561136c57600080fd5b505af1158015611380573d6000803e3d6000fd5b5050505050611441565b82826020015110156114405760006113af83602001518561197c90919063ffffffff16565b905060008054906101000a900473ffffffffffffffffffffffffffffffffffffffff1673ffffffffffffffffffffffffffffffffffffffff16639dc29fac33836040518363ffffffff1660e01b815260040161140c9291906127ed565b600060405180830381600087803b15801561142657600080fd5b505af115801561143a573d6000803e3d6000fd5b50505050505b5b42600260003373ffffffffffffffffffffffffffffffffffffffff1673ffffffffffffffffffffffffffffffffffffffff168152602001908152602001600020819055503373ffffffffffffffffffffffffffffffffffffffff167fbe35fe23c13a419d565edccb8c8bdedc160c5b9a82873e431b545080d6f3c68860405160405180910390a2819350505050919050565b60008060008054906101000a900473ffffffffffffffffffffffffffffffffffffffff1673ffffffffffffffffffffffffffffffffffffffff1663313ce5676040518163ffffffff1660e01b815260040160206040518083038186803b15801561153c57600080fd5b505afa158015611550573d6000803e3d6000fd5b505050506040513d601f19601f82011682018060405250810190611574919061231e565b60ff169050600583116115905780600a0a6001029150506115c9565b600883116115a75780600a0a600a029150506115c9565b600b83116115be5780600a0a6032029150506115c9565b80600a0a60fa029150505b919050565b6000600160078111156115dd57fe5b8260078111156115e957fe5b148061160b5750600260078111156115fd57fe5b82600781111561160957fe5b145b15611619576005905061171f565b6003600781111561162657fe5b82600781111561163257fe5b148061165457506004600781111561164657fe5b82600781111561165257fe5b145b15611662576008905061171f565b6005600781111561166f57fe5b82600781111561167b57fe5b141561168a57600b905061171f565b6006600781111561169757fe5b8260078111156116a357fe5b14156116b257600e905061171f565b6007808111156116be57fe5b8260078111156116ca57fe5b14156116d9576011905061171f565b600061171a576040517f08c379a0000000000000000000000000000000000000000000000000000000008152600401611711906128c1565b60405180910390fd5b606390505b919050565b60008060008054906101000a900473ffffffffffffffffffffffffffffffffffffffff1673ffffffffffffffffffffffffffffffffffffffff1663313ce5676040518163ffffffff1660e01b815260040160206040518083038186803b15801561178d57600080fd5b505afa1580156117a1573d6000803e3d6000fd5b505050506040513d601f19601f820116820180604052508101906117c5919061231e565b60ff169050600160078111156117d757fe5b8360078111156117e357fe5b141561180257606481600a0a600102816117f957fe5b04915050611977565b6002600781111561180f57fe5b83600781111561181b57fe5b141561183a57606481600a0a6006028161183157fe5b04915050611977565b6003600781111561184757fe5b83600781111561185357fe5b141561187257606481600a0a6014028161186957fe5b04915050611977565b6004600781111561187f57fe5b83600781111561188b57fe5b14156118a05780600a0a600102915050611977565b600560078111156118ad57fe5b8360078111156118b957fe5b14156118ce5780600a0a600202915050611977565b600660078111156118db57fe5b8360078111156118e757fe5b14156118fc5780600a0a600a02915050611977565b60078081111561190857fe5b83600781111561191457fe5b14156119295780600a0a60c802915050611977565b600061196a576040517f08c379a0000000000000000000000000000000000000000000000000000000008152600401611961906128c1565b60405180910390fd5b80600a0a620186a0029150505b919050565b60006119be83836040518060400160405280601e81526020017f536166654d6174683a207375627472616374696f6e206f766572666c6f770000815250612000565b905092915050565b6000600160078111156119d557fe5b8260078111156119e157fe5b14156119f05760019050611b28565b600260078111156119fd57fe5b826007811115611a0957fe5b1415611a185760039050611b28565b60036007811115611a2557fe5b826007811115611a3157fe5b1415611a405760089050611b28565b60046007811115611a4d57fe5b826007811115611a5957fe5b1415611a685760189050611b28565b60056007811115611a7557fe5b826007811115611a8157fe5b1415611a905760489050611b28565b60066007811115611a9d57fe5b826007811115611aa957fe5b1415611ab85760a89050611b28565b600780811115611ac457fe5b826007811115611ad057fe5b1415611ae0576102a09050611b28565b6000611b21576040517f08c379a0000000000000000000000000000000000000000000000000000000008152600401611b18906128c1565b60405180910390fd5b6298967f90505b919050565b60008060008054906101000a900473ffffffffffffffffffffffffffffffffffffffff1673ffffffffffffffffffffffffffffffffffffffff1663313ce5676040518163ffffffff1660e01b815260040160206040518083038186803b158015611b9657600080fd5b505afa158015611baa573d6000803e3d6000fd5b505050506040513d601f19601f82011682018060405250810190611bce919061231e565b60ff16905060016007811115611be057fe5b836007811115611bec57fe5b1415611c0b57606481600a0a60020281611c0257fe5b04915050611d8e565b60026007811115611c1857fe5b836007811115611c2457fe5b1415611c4357606481600a0a600c0281611c3a57fe5b04915050611d8e565b60036007811115611c5057fe5b836007811115611c5c57fe5b1415611c7b57606481600a0a60380281611c7257fe5b04915050611d8e565b60046007811115611c8857fe5b836007811115611c9457fe5b1415611cb357606481600a0a60e60281611caa57fe5b04915050611d8e565b60056007811115611cc057fe5b836007811115611ccc57fe5b1415611cec57606481600a0a6102800281611ce357fe5b04915050611d8e565b60066007811115611cf957fe5b836007811115611d0557fe5b1415611d1a5780600a0a601402915050611d8e565b600780811115611d2657fe5b836007811115611d3257fe5b1415611d475780600a0a60fa02915050611d8e565b6000611d88576040517f08c379a0000000000000000000000000000000000000000000000000000000008152600401611d7f906128c1565b60405180910390fd5b60009150505b919050565b600080828401905083811015611e11576040517f08c379a000000000000000000000000000000000000000000000000000000000815260040180806020018281038252601b8152602001807f536166654d6174683a206164646974696f6e206f766572666c6f77000000000081525060200191505060405180910390fd5b8091505092915050565b60008060008054906101000a900473ffffffffffffffffffffffffffffffffffffffff1673ffffffffffffffffffffffffffffffffffffffff1663313ce5676040518163ffffffff1660e01b815260040160206040518083038186803b158015611e8457600080fd5b505afa158015611e98573d6000803e3d6000fd5b505050506040513d601f19601f82011682018060405250810190611ebc919061231e565b60ff16905060008060009054906101000a900473ffffffffffffffffffffffffffffffffffffffff1673ffffffffffffffffffffffffffffffffffffffff166318160ddd6040518163ffffffff1660e01b815260040160206040518083038186803b158015611f2a57600080fd5b505afa158015611f3e573d6000803e3d6000fd5b505050506040513d601f19601f82011682018060405250810190611f6291906122f5565b905081600a0a620f424002811015611f7f57600192505050611ffd565b81600a0a61271002811015611f9957600a92505050611ffd565b81600a0a620186a002811015611fb457606492505050611ffd565b81600a0a620186a002811015611fd0576103e892505050611ffd565b81600a0a620186a002811015611fec5761271092505050611ffd565b6127108181611ff757fe5b04925050505b90565b60008383111582906120ad576040517f08c379a00000000000000000000000000000000000000000000000000000000081526004018080602001828103825283818151815260200191508051906020019080838360005b83811015612072578082015181840152602081019050612057565b50505050905090810190601f16801561209f5780820380516001836020036101000a031916815260200191505b509250505060405180910390fd5b5060008385039050809150509392505050565b604051806040016040528060608152602001600081525090565b60006120ed6120e884612a4f565b612a1e565b9050808382526020820190508285608086028201111561210c57600080fd5b60005b8581101561213c578161212288826121af565b84526020840193506080830192505060018101905061210f565b5050509392505050565b60008151905061215581612b90565b92915050565b600082601f83011261216c57600080fd5b813561217c8482602086016120da565b91505092915050565b60008135905061219481612ba7565b92915050565b6000813590506121a981612bb7565b92915050565b6000608082840312156121c157600080fd5b6121cb6080612a1e565b905060006121db84828501612185565b60008301525060206121ef8482850161219a565b602083015250604061220384828501612223565b604083015250606061221784828501612223565b60608301525092915050565b60008135905061223281612bc7565b92915050565b60008151905061224781612bc7565b92915050565b60008151905061225c81612bde565b92915050565b60006020828403121561227457600080fd5b600061228284828501612146565b91505092915050565b60006020828403121561229d57600080fd5b600082013567ffffffffffffffff8111156122b757600080fd5b6122c38482850161215b565b91505092915050565b6000602082840312156122de57600080fd5b60006122ec84828501612223565b91505092915050565b60006020828403121561230757600080fd5b600061231584828501612238565b91505092915050565b60006020828403121561233057600080fd5b600061233e8482850161224d565b91505092915050565b60006123538383612785565b60408301905092915050565b61236881612b32565b82525050565b61237781612ad6565b82525050565b600061238882612a8b565b6123928185612aa3565b935061239d83612a7b565b8060005b838110156123ce5781516123b58882612347565b97506123c083612a96565b9250506001810190506123a1565b5085935050505092915050565b60006123e682612a8b565b6123f08185612ab4565b93506123fb83612a7b565b8060005b8381101561242c5781516124138882612347565b975061241e83612a96565b9250506001810190506123ff565b5085935050505092915050565b61244281612b44565b82525050565b6000612455601283612ac5565b91507f494e53554646494349454e545f46554e445300000000000000000000000000006000830152602082019050919050565b6000612495600b83612ac5565b91507f4641524d5f4558495354530000000000000000000000000000000000000000006000830152602082019050919050565b60006124d5600d83612ac5565b91507f4556454e545f494e5f50415354000000000000000000000000000000000000006000830152602082019050919050565b6000612515600d83612ac5565b91507f494e56414c49445f4652554954000000000000000000000000000000000000006000830152602082019050919050565b6000612555600983612ac5565b91507f4d41585f4c4556454c00000000000000000000000000000000000000000000006000830152602082019050919050565b6000612595600f83612ac5565b91507f4556454e545f494e5f46555455524500000000000000000000000000000000006000830152602082019050919050565b60006125d5600d83612ac5565b91507f494e56414c49445f4f52444552000000000000000000000000000000000000006000830152602082019050919050565b6000612615600d83612ac5565b91507f4556454e545f45585049524544000000000000000000000000000000000000006000830152602082019050919050565b6000612655600883612ac5565b91507f4e4f545f524950450000000000000000000000000000000000000000000000006000830152602082019050919050565b6000612695600d83612ac5565b91507f494e56414c49445f4c4556454c000000000000000000000000000000000000006000830152602082019050919050565b60006126d5600883612ac5565b91507f4e4f5f46525549540000000000000000000000000000000000000000000000006000830152602082019050919050565b6000612715600783612ac5565b91507f4e4f5f4641524d000000000000000000000000000000000000000000000000006000830152602082019050919050565b60006040830160008301518482036000860152612765828261237d565b915050602083015161277a60208601826127b4565b508091505092915050565b60408201600082015161279b6000850182612439565b5060208201516127ae60208501826127b4565b50505050565b6127bd81612b1b565b82525050565b6127cc81612b1b565b82525050565b60006020820190506127e7600083018461235f565b92915050565b6000604082019050612802600083018561235f565b61280f60208301846127c3565b9392505050565b600060408201905061282b600083018561236e565b61283860208301846127c3565b9392505050565b6000602082019050818103600083015261285981846123db565b905092915050565b6000602082019050818103600083015261287a81612448565b9050919050565b6000602082019050818103600083015261289a81612488565b9050919050565b600060208201905081810360008301526128ba816124c8565b9050919050565b600060208201905081810360008301526128da81612508565b9050919050565b600060208201905081810360008301526128fa81612548565b9050919050565b6000602082019050818103600083015261291a81612588565b9050919050565b6000602082019050818103600083015261293a816125c8565b9050919050565b6000602082019050818103600083015261295a81612608565b9050919050565b6000602082019050818103600083015261297a81612648565b9050919050565b6000602082019050818103600083015261299a81612688565b9050919050565b600060208201905081810360008301526129ba816126c8565b9050919050565b600060208201905081810360008301526129da81612708565b9050919050565b600060208201905081810360008301526129fb8184612748565b905092915050565b6000602082019050612a1860008301846127c3565b92915050565b6000604051905081810181811067ffffffffffffffff82111715612a4557612a44612b7a565b5b8060405250919050565b600067ffffffffffffffff821115612a6a57612a69612b7a565b5b602082029050602081019050919050565b6000819050602082019050919050565b600081519050919050565b6000602082019050919050565b600082825260208201905092915050565b600082825260208201905092915050565b600082825260208201905092915050565b6000612ae182612afb565b9050919050565b6000819050612af682612b7c565b919050565b600073ffffffffffffffffffffffffffffffffffffffff82169050919050565b6000819050919050565b600060ff82169050919050565b6000612b3d82612b56565b9050919050565b6000612b4f82612ae8565b9050919050565b6000612b6182612b68565b9050919050565b6000612b7382612afb565b9050919050565bfe5b60088110612b8d57612b8c612b7a565b5b50565b612b9981612ad6565b8114612ba457600080fd5b50565b60028110612bb457600080fd5b50565b60088110612bc457600080fd5b50565b612bd081612b1b565b8114612bdb57600080fd5b50565b612be781612b25565b8114612bf257600080fd5b5056fea2646970667358221220a769f811fc2b219d0282a535a873089d67c1fb241d654742cabb16a2120001da64736f6c63430007060033",
  "immutableReferences": {},
  "source": "pragma solidity >=0.6.0 <0.8.0;\r\npragma experimental ABIEncoderV2;\r\n\r\nimport \"@openzeppelin/contracts/math/Math.sol\";\r\nimport \"./Token.sol\";\r\n\r\ncontract Farm {\r\n    using SafeMath for uint256;\r\n\r\n    Token private token;\r\n\r\n    struct Square {\r\n        Fruit fruit;\r\n        uint createdAt;\r\n    }\r\n\r\n    mapping(address => Square[]) fields;\r\n    mapping(address => uint) syncedAt;\r\n\r\n    constructor(Token _token) public {\r\n        token = _token;\r\n    }\r\n\r\n    event FarmCreated(address indexed _address);\r\n    event FarmSynced(address indexed _address);\r\n\r\n    function createFarm() public {\r\n        uint synced = syncedAt[msg.sender];\r\n        require(synced == 0, \"FARM_EXISTS\");\r\n\r\n        Square[] storage land = fields[msg.sender];\r\n        Square memory empty = Square({\r\n            fruit: Fruit.None,\r\n            createdAt: block.timestamp\r\n        });\r\n        Square memory apple = Square({\r\n            fruit: Fruit.Apple,\r\n            createdAt: block.timestamp\r\n        });\r\n\r\n        // Each farmer starts with 5 fields & 3 apples\r\n        land.push(empty);\r\n        land.push(apple);\r\n        land.push(apple);\r\n        land.push(apple);\r\n        land.push(empty);\r\n\r\n        syncedAt[msg.sender] = block.timestamp;\r\n\r\n        //Emit an event\r\n        emit FarmCreated(msg.sender);\r\n    }\r\n    \r\n    function lastSyncedAt() public view returns(uint) {\r\n        return syncedAt[msg.sender];\r\n    }\r\n\r\n\r\n    function getLand() public view returns (Square[] memory) {\r\n        return fields[msg.sender];\r\n    }\r\n\r\n    enum Action { Plant, Harvest }\r\n    enum Fruit { None, Apple, Avocado, Banana, Coconut, Pineapple, Money, Diamond }\r\n\r\n    struct Event { \r\n        Action action;\r\n        Fruit fruit;\r\n        uint landIndex;\r\n        uint createdAt;\r\n    }\r\n\r\n    struct Farm {\r\n        Square[] land;\r\n        uint balance;\r\n    }\r\n\r\n    function getHarvestHours(Fruit _fruit) private view returns (uint) {\r\n        if (_fruit == Fruit.Apple) {\r\n            return 1;\r\n        } else if (_fruit == Fruit.Avocado) {\r\n            return 3;\r\n        } else if (_fruit == Fruit.Banana) {\r\n            return 8;\r\n        } else if (_fruit == Fruit.Coconut) {\r\n            // 1 Day\r\n            return 24;\r\n        } else if (_fruit == Fruit.Pineapple) {\r\n            // 3 days\r\n            return 72;\r\n        } else if (_fruit == Fruit.Money) {\r\n            // 1 week\r\n            return 168;\r\n        } else if (_fruit == Fruit.Diamond) {\r\n            // 4 weeks\r\n            return 672;\r\n        }\r\n\r\n        require(false, \"INVALID_FRUIT\");\r\n        return 9999999;\r\n    }\r\n\r\n    function getSeedPrice(Fruit _fruit) private view returns (uint price) {\r\n        uint decimals = token.decimals();\r\n\r\n        if (_fruit == Fruit.Apple) {\r\n            //$0.01\r\n            return 1 * 10**decimals / 100;\r\n        } else if (_fruit == Fruit.Avocado) {\r\n            // $0.06\r\n            return 6 * 10**decimals / 100;\r\n        } else if (_fruit == Fruit.Banana) {\r\n            // $0.20\r\n            return 20 * 10**decimals / 100;\r\n        } else if (_fruit == Fruit.Coconut) {\r\n            // $1\r\n            return 1 * 10**decimals;\r\n        } else if (_fruit == Fruit.Pineapple) {\r\n            // $2\r\n            return 2 * 10**decimals;\r\n        } else if (_fruit == Fruit.Money) {\r\n            // $10\r\n            return 10 * 10**decimals;\r\n        } else if (_fruit == Fruit.Diamond) {\r\n            // $200\r\n            return 200 * 10**decimals;\r\n        }\r\n\r\n        require(false, \"INVALID_FRUIT\");\r\n\r\n        return 100000 * 10**decimals;\r\n    }\r\n\r\n    function getFruitPrice(Fruit _fruit) private view returns (uint price) {\r\n        uint decimals = token.decimals();\r\n\r\n        if (_fruit == Fruit.Apple) {\r\n            // $0.02\r\n            return 2 * 10**decimals / 100;\r\n        } else if (_fruit == Fruit.Avocado) {\r\n            // $0.12\r\n            return 12 * 10**decimals / 100;\r\n        } else if (_fruit == Fruit.Banana) {\r\n            // $0.56\r\n            return 56 * 10**decimals / 100;\r\n        } else if (_fruit == Fruit.Coconut) {\r\n            // $2.30\r\n            return 230 * 10**decimals / 100;\r\n        } else if (_fruit == Fruit.Pineapple) {\r\n            // $6.40\r\n            return 640 * 10**decimals / 100;\r\n        } else if (_fruit == Fruit.Money) {\r\n            // $20\r\n            return 20 * 10**decimals;\r\n        } else if (_fruit == Fruit.Diamond) {\r\n            // $250\r\n            return 250 * 10**decimals;\r\n        }\r\n\r\n        require(false, \"INVALID_FRUIT\");\r\n\r\n        return 0;\r\n    }\r\n    \r\n    function requiredLandSize(Fruit _fruit) private view returns (uint size) {\r\n        if (_fruit == Fruit.Apple || _fruit == Fruit.Avocado) {\r\n            return 5;\r\n        } else if (_fruit == Fruit.Banana || _fruit == Fruit.Coconut) {\r\n            return 8;\r\n        } else if (_fruit == Fruit.Pineapple) {\r\n            return 11;\r\n        } else if (_fruit == Fruit.Money) {\r\n            return 14;\r\n        } else if (_fruit == Fruit.Diamond) {\r\n            return 17;\r\n        }\r\n\r\n        require(false, \"INVALID_FRUIT\");\r\n\r\n        return 99;\r\n    }\r\n    \r\n       \r\n    function getLandPrice(uint landSize) private view returns (uint price) {\r\n        uint decimals = token.decimals();\r\n        if (landSize <= 5) {\r\n            // $1\r\n            return 1 * 10**decimals;\r\n        } else if (landSize <= 8) {\r\n            // $10\r\n            return 10 * 10**decimals;\r\n        } else if (landSize <= 11) {\r\n            // $100\r\n            return 50 * 10**decimals;\r\n        }\r\n        \r\n        return 250 * 10**decimals;\r\n    }\r\n\r\n    modifier hasFarm {\r\n        require(lastSyncedAt() > 0, \"NO_FARM\");\r\n        _;\r\n    }\r\n     \r\n    uint private THIRTY_MINUTES = 30 * 60;\r\n\r\n    function buildFarm(Event[] memory _events) public view returns (Farm memory currentFarm) {\r\n        Square[] memory land = fields[msg.sender];\r\n        uint balance = token.balanceOf(msg.sender);\r\n        \r\n        for (uint index = 0; index < _events.length; index++) {\r\n            Event memory farmEvent = _events[index];\r\n\r\n            uint thirtyMinutesAgo = block.timestamp - THIRTY_MINUTES; \r\n            require(farmEvent.createdAt >= thirtyMinutesAgo, \"EVENT_EXPIRED\");\r\n            require(farmEvent.createdAt >= lastSyncedAt(), \"EVENT_IN_PAST\");\r\n            require(farmEvent.createdAt <= block.timestamp, \"EVENT_IN_FUTURE\");\r\n\r\n            if (index > 0) {\r\n                require(farmEvent.createdAt >= _events[index - 1].createdAt, \"INVALID_ORDER\");\r\n            }\r\n\r\n\r\n            if (farmEvent.action == Action.Plant) {\r\n                require(land.length >= requiredLandSize(farmEvent.fruit), \"INVALID_LEVEL\");\r\n                \r\n                uint price = getSeedPrice(farmEvent.fruit);\r\n                uint fmcPrice = getMarketPrice(price);\r\n                require(balance >= fmcPrice, \"INSUFFICIENT_FUNDS\");\r\n\r\n                balance = balance.sub(fmcPrice);\r\n\r\n                Square memory plantedSeed = Square({\r\n                    fruit: farmEvent.fruit,\r\n                    createdAt: farmEvent.createdAt\r\n                });\r\n                land[farmEvent.landIndex] = plantedSeed;\r\n            } else if (farmEvent.action == Action.Harvest) {\r\n                Square memory square = land[farmEvent.landIndex];\r\n                require(square.fruit != Fruit.None, \"NO_FRUIT\");\r\n\r\n                // Currently seconds\r\n                uint duration = farmEvent.createdAt - square.createdAt;\r\n                uint hoursToHarvest = getHarvestHours(square.fruit);\r\n                require(duration >= hoursToHarvest, \"NOT_RIPE\");\r\n\r\n                // Clear the land\r\n                Square memory emptyLand = Square({\r\n                    fruit: Fruit.None,\r\n                    createdAt: 0\r\n                });\r\n                land[farmEvent.landIndex] = emptyLand;\r\n\r\n                uint price = getFruitPrice(square.fruit);\r\n                uint fmcPrice = getMarketPrice(price);\r\n\r\n                balance = balance.add(fmcPrice);\r\n            }\r\n        }\r\n\r\n        return Farm({\r\n            land: land,\r\n            balance: balance\r\n        });\r\n    }\r\n\r\n\r\n    function sync(Event[] memory _events) public hasFarm returns (Farm memory) {\r\n        uint balance = token.balanceOf(msg.sender);\r\n        Farm memory farm = buildFarm(_events);\r\n\r\n        // Update the land\r\n        Square[] storage land = fields[msg.sender];\r\n        for (uint i=0; i < farm.land.length; i += 1) {\r\n            land[i] = farm.land[i];\r\n        }\r\n\r\n        // Update the balance - mint or burn\r\n        if (farm.balance > balance) {\r\n            uint profit = farm.balance.sub(balance);\r\n            token.mint(msg.sender, profit);\r\n        } else if (farm.balance < balance) {\r\n            uint loss = balance.sub(farm.balance);\r\n            token.burn(msg.sender, loss);\r\n        }\r\n\r\n        syncedAt[msg.sender] = block.timestamp;\r\n\r\n        emit FarmSynced(msg.sender);\r\n        return farm;\r\n    }\r\n\r\n    function levelUp() public hasFarm {\r\n        require(fields[msg.sender].length <= 17, \"MAX_LEVEL\");\r\n\r\n        Square[] storage land = fields[msg.sender];\r\n\r\n        uint price = getLandPrice(land.length);\r\n        uint fmcPrice = getMarketPrice(price);\r\n        uint balance = token.balanceOf(msg.sender);\r\n\r\n        require(balance >= fmcPrice, \"INSUFFICIENT_FUNDS\");\r\n\r\n        Square memory empty = Square({\r\n            fruit: Fruit.None,\r\n            createdAt: block.timestamp\r\n        });\r\n\r\n        // Do not bother rearranging the array - it is already in a strange square - Add 3 fields\r\n        for (uint index = 0; index < 3; index++) {\r\n            land.push(empty);\r\n        }\r\n\r\n        token.burn(msg.sender, fmcPrice);\r\n\r\n        // Land tax - An additional 5% of profit goes to developers & designers of Fruit Market\r\n        uint commission = fmcPrice / 5;\r\n        token.mint(token.getOwner(), commission);\r\n\r\n        emit FarmSynced(msg.sender);\r\n    }\r\n\r\n    // How many FMC do you get per dollar\r\n    function getMarketRate() private view returns (uint conversion) {\r\n        uint decimals = token.decimals();\r\n        uint totalSupply = token.totalSupply();\r\n\r\n        // Less than 10, 000 FMC tokens\r\n        if (totalSupply < (1000000 * 10**decimals)) {\r\n            // 1 Farm Dollar gets you a FMC token\r\n            return 1;\r\n        }\r\n\r\n        // Less than 100, 000 FMC tokens\r\n        if (totalSupply < (10000 * 10**decimals)) {\r\n            return 10;\r\n        }\r\n        // Less than 1, 000, 000 FMC tokens\r\n        if (totalSupply < (100000 * 10**decimals)) {\r\n            return 100;\r\n        }\r\n\r\n        // Less than 10, 000, 000 FMC tokens\r\n        if (totalSupply < (100000 * 10**decimals)) {\r\n            return 1000;\r\n        }\r\n\r\n        // Less than 100, 000, 000 FMC tokens\r\n        if (totalSupply < (100000 * 10**decimals)) {\r\n            return 10000;\r\n        }\r\n\r\n        // 1 Farm Dollar gets you a 0.00001 of FMC - Linear growth from here\r\n        return totalSupply / 10000;\r\n    }\r\n\r\n    function getMarketPrice(uint price) public view returns (uint conversion) {\r\n        uint marketRate = getMarketRate();\r\n\r\n        return price / marketRate;\r\n    }\r\n\r\n    function getNow() public view returns (uint time) {\r\n        return block.timestamp;\r\n    }\r\n}\r\n",
  "sourcePath": "/Users/adamhannigan/Documents/workspace/fruit-market/src/contracts/Farm.sol",
  "compiler": {
    "name": "solc",
    "version": "0.7.6+commit.7338295f.Emscripten.clang"
  },
  "schemaVersion": "3.4.0",
  "updatedAt": "2021-06-08T11:14:45.327Z",
  "devdoc": {
    "kind": "dev",
    "methods": {},
    "version": 1
  },
  "userdoc": {
    "kind": "user",
    "methods": {},
    "version": 1
  }
}