{
  "contractName": "Farm",
  "abi": [
    {
      "inputs": [
        {
          "internalType": "contract Token",
          "name": "_token",
          "type": "address"
        }
      ],
      "stateMutability": "nonpayable",
      "type": "constructor"
    },
    {
      "anonymous": false,
      "inputs": [
        {
          "indexed": true,
          "internalType": "address",
          "name": "_address",
          "type": "address"
        }
      ],
      "name": "FarmCreated",
      "type": "event"
    },
    {
      "anonymous": false,
      "inputs": [
        {
          "indexed": true,
          "internalType": "address",
          "name": "_address",
          "type": "address"
        }
      ],
      "name": "FarmSynced",
      "type": "event"
    },
    {
      "inputs": [],
      "name": "createFarm",
      "outputs": [],
      "stateMutability": "nonpayable",
      "type": "function"
    },
    {
      "inputs": [
        {
          "components": [
            {
              "internalType": "enum Farm.Action",
              "name": "action",
              "type": "uint8"
            },
            {
              "internalType": "enum Farm.Commodity",
              "name": "commodity",
              "type": "uint8"
            },
            {
              "internalType": "uint256",
              "name": "timestamp",
              "type": "uint256"
            },
            {
              "internalType": "uint256",
              "name": "landIndex",
              "type": "uint256"
            },
            {
              "internalType": "uint256",
              "name": "createdAt",
              "type": "uint256"
            }
          ],
          "internalType": "struct Farm.Transaction[]",
          "name": "_transactions",
          "type": "tuple[]"
        }
      ],
      "name": "buyMoreSpace",
      "outputs": [],
      "stateMutability": "nonpayable",
      "type": "function"
    },
    {
      "inputs": [],
      "name": "getInventory",
      "outputs": [
        {
          "components": [
            {
              "internalType": "bool",
              "name": "isInitialized",
              "type": "bool"
            },
            {
              "internalType": "uint256",
              "name": "apples",
              "type": "uint256"
            },
            {
              "internalType": "uint256",
              "name": "avocados",
              "type": "uint256"
            }
          ],
          "internalType": "struct Farm.Inventory",
          "name": "",
          "type": "tuple"
        }
      ],
      "stateMutability": "view",
      "type": "function",
      "constant": true
    },
    {
      "inputs": [],
      "name": "getLand",
      "outputs": [
        {
          "components": [
            {
              "internalType": "enum Farm.Commodity",
              "name": "commodity",
              "type": "uint8"
            },
            {
              "internalType": "uint256",
              "name": "createdAt",
              "type": "uint256"
            }
          ],
          "internalType": "struct Farm.Square[]",
          "name": "",
          "type": "tuple[]"
        }
      ],
      "stateMutability": "view",
      "type": "function",
      "constant": true
    },
    {
      "inputs": [
        {
          "components": [
            {
              "internalType": "enum Farm.Action",
              "name": "action",
              "type": "uint8"
            },
            {
              "internalType": "enum Farm.Commodity",
              "name": "commodity",
              "type": "uint8"
            },
            {
              "internalType": "uint256",
              "name": "timestamp",
              "type": "uint256"
            },
            {
              "internalType": "uint256",
              "name": "landIndex",
              "type": "uint256"
            },
            {
              "internalType": "uint256",
              "name": "createdAt",
              "type": "uint256"
            }
          ],
          "internalType": "struct Farm.Transaction[]",
          "name": "_transactions",
          "type": "tuple[]"
        }
      ],
      "name": "moveTheMarket",
      "outputs": [],
      "stateMutability": "nonpayable",
      "type": "function"
    },
    {
      "inputs": [
        {
          "components": [
            {
              "internalType": "enum Farm.Action",
              "name": "action",
              "type": "uint8"
            },
            {
              "internalType": "enum Farm.Commodity",
              "name": "commodity",
              "type": "uint8"
            },
            {
              "internalType": "uint256",
              "name": "timestamp",
              "type": "uint256"
            },
            {
              "internalType": "uint256",
              "name": "landIndex",
              "type": "uint256"
            },
            {
              "internalType": "uint256",
              "name": "createdAt",
              "type": "uint256"
            }
          ],
          "internalType": "struct Farm.Transaction[]",
          "name": "_transactions",
          "type": "tuple[]"
        }
      ],
      "name": "sync",
      "outputs": [
        {
          "components": [
            {
              "components": [
                {
                  "internalType": "bool",
                  "name": "isInitialized",
                  "type": "bool"
                },
                {
                  "internalType": "uint256",
                  "name": "apples",
                  "type": "uint256"
                },
                {
                  "internalType": "uint256",
                  "name": "avocados",
                  "type": "uint256"
                }
              ],
              "internalType": "struct Farm.Inventory",
              "name": "inventory",
              "type": "tuple"
            },
            {
              "components": [
                {
                  "internalType": "enum Farm.Commodity",
                  "name": "commodity",
                  "type": "uint8"
                },
                {
                  "internalType": "uint256",
                  "name": "createdAt",
                  "type": "uint256"
                }
              ],
              "internalType": "struct Farm.Square[]",
              "name": "land",
              "type": "tuple[]"
            },
            {
              "internalType": "uint256",
              "name": "balance",
              "type": "uint256"
            },
            {
              "components": [
                {
                  "internalType": "enum Farm.Action",
                  "name": "action",
                  "type": "uint8"
                },
                {
                  "internalType": "enum Farm.Commodity",
                  "name": "commodity",
                  "type": "uint8"
                },
                {
                  "internalType": "uint256",
                  "name": "timestamp",
                  "type": "uint256"
                },
                {
                  "internalType": "uint256",
                  "name": "landIndex",
                  "type": "uint256"
                },
                {
                  "internalType": "uint256",
                  "name": "createdAt",
                  "type": "uint256"
                }
              ],
              "internalType": "struct Farm.Transaction[]",
              "name": "transactions",
              "type": "tuple[]"
            }
          ],
          "internalType": "struct Farm.Farm",
          "name": "",
          "type": "tuple"
        }
      ],
      "stateMutability": "nonpayable",
      "type": "function"
    },
    {
      "inputs": [],
      "name": "getBalance",
      "outputs": [
        {
          "internalType": "uint256",
          "name": "balance",
          "type": "uint256"
        }
      ],
      "stateMutability": "view",
      "type": "function",
      "constant": true
    },
    {
      "inputs": [
        {
          "components": [
            {
              "internalType": "enum Farm.Action",
              "name": "action",
              "type": "uint8"
            },
            {
              "internalType": "enum Farm.Commodity",
              "name": "commodity",
              "type": "uint8"
            },
            {
              "internalType": "uint256",
              "name": "timestamp",
              "type": "uint256"
            },
            {
              "internalType": "uint256",
              "name": "landIndex",
              "type": "uint256"
            },
            {
              "internalType": "uint256",
              "name": "createdAt",
              "type": "uint256"
            }
          ],
          "internalType": "struct Farm.Transaction[]",
          "name": "_transactions",
          "type": "tuple[]"
        },
        {
          "internalType": "enum Farm.Commodity",
          "name": "_commodity",
          "type": "uint8"
        }
      ],
      "name": "buy",
      "outputs": [
        {
          "components": [
            {
              "components": [
                {
                  "internalType": "bool",
                  "name": "isInitialized",
                  "type": "bool"
                },
                {
                  "internalType": "uint256",
                  "name": "apples",
                  "type": "uint256"
                },
                {
                  "internalType": "uint256",
                  "name": "avocados",
                  "type": "uint256"
                }
              ],
              "internalType": "struct Farm.Inventory",
              "name": "inventory",
              "type": "tuple"
            },
            {
              "components": [
                {
                  "internalType": "enum Farm.Commodity",
                  "name": "commodity",
                  "type": "uint8"
                },
                {
                  "internalType": "uint256",
                  "name": "createdAt",
                  "type": "uint256"
                }
              ],
              "internalType": "struct Farm.Square[]",
              "name": "land",
              "type": "tuple[]"
            },
            {
              "internalType": "uint256",
              "name": "balance",
              "type": "uint256"
            },
            {
              "components": [
                {
                  "internalType": "enum Farm.Action",
                  "name": "action",
                  "type": "uint8"
                },
                {
                  "internalType": "enum Farm.Commodity",
                  "name": "commodity",
                  "type": "uint8"
                },
                {
                  "internalType": "uint256",
                  "name": "timestamp",
                  "type": "uint256"
                },
                {
                  "internalType": "uint256",
                  "name": "landIndex",
                  "type": "uint256"
                },
                {
                  "internalType": "uint256",
                  "name": "createdAt",
                  "type": "uint256"
                }
              ],
              "internalType": "struct Farm.Transaction[]",
              "name": "transactions",
              "type": "tuple[]"
            }
          ],
          "internalType": "struct Farm.Farm",
          "name": "farm",
          "type": "tuple"
        },
        {
          "internalType": "uint256",
          "name": "price",
          "type": "uint256"
        }
      ],
      "stateMutability": "view",
      "type": "function",
      "constant": true
    },
    {
      "inputs": [
        {
          "components": [
            {
              "internalType": "enum Farm.Action",
              "name": "action",
              "type": "uint8"
            },
            {
              "internalType": "enum Farm.Commodity",
              "name": "commodity",
              "type": "uint8"
            },
            {
              "internalType": "uint256",
              "name": "timestamp",
              "type": "uint256"
            },
            {
              "internalType": "uint256",
              "name": "landIndex",
              "type": "uint256"
            },
            {
              "internalType": "uint256",
              "name": "createdAt",
              "type": "uint256"
            }
          ],
          "internalType": "struct Farm.Transaction[]",
          "name": "_transactions",
          "type": "tuple[]"
        },
        {
          "internalType": "enum Farm.Commodity",
          "name": "_commodity",
          "type": "uint8"
        }
      ],
      "name": "sell",
      "outputs": [
        {
          "components": [
            {
              "components": [
                {
                  "internalType": "bool",
                  "name": "isInitialized",
                  "type": "bool"
                },
                {
                  "internalType": "uint256",
                  "name": "apples",
                  "type": "uint256"
                },
                {
                  "internalType": "uint256",
                  "name": "avocados",
                  "type": "uint256"
                }
              ],
              "internalType": "struct Farm.Inventory",
              "name": "inventory",
              "type": "tuple"
            },
            {
              "components": [
                {
                  "internalType": "enum Farm.Commodity",
                  "name": "commodity",
                  "type": "uint8"
                },
                {
                  "internalType": "uint256",
                  "name": "createdAt",
                  "type": "uint256"
                }
              ],
              "internalType": "struct Farm.Square[]",
              "name": "land",
              "type": "tuple[]"
            },
            {
              "internalType": "uint256",
              "name": "balance",
              "type": "uint256"
            },
            {
              "components": [
                {
                  "internalType": "enum Farm.Action",
                  "name": "action",
                  "type": "uint8"
                },
                {
                  "internalType": "enum Farm.Commodity",
                  "name": "commodity",
                  "type": "uint8"
                },
                {
                  "internalType": "uint256",
                  "name": "timestamp",
                  "type": "uint256"
                },
                {
                  "internalType": "uint256",
                  "name": "landIndex",
                  "type": "uint256"
                },
                {
                  "internalType": "uint256",
                  "name": "createdAt",
                  "type": "uint256"
                }
              ],
              "internalType": "struct Farm.Transaction[]",
              "name": "transactions",
              "type": "tuple[]"
            }
          ],
          "internalType": "struct Farm.Farm",
          "name": "farm",
          "type": "tuple"
        },
        {
          "internalType": "uint256",
          "name": "price",
          "type": "uint256"
        }
      ],
      "stateMutability": "view",
      "type": "function",
      "constant": true
    },
    {
      "inputs": [
        {
          "components": [
            {
              "internalType": "enum Farm.Action",
              "name": "action",
              "type": "uint8"
            },
            {
              "internalType": "enum Farm.Commodity",
              "name": "commodity",
              "type": "uint8"
            },
            {
              "internalType": "uint256",
              "name": "timestamp",
              "type": "uint256"
            },
            {
              "internalType": "uint256",
              "name": "landIndex",
              "type": "uint256"
            },
            {
              "internalType": "uint256",
              "name": "createdAt",
              "type": "uint256"
            }
          ],
          "internalType": "struct Farm.Transaction[]",
          "name": "_transactions",
          "type": "tuple[]"
        },
        {
          "internalType": "enum Farm.Commodity",
          "name": "_commodity",
          "type": "uint8"
        },
        {
          "internalType": "uint256",
          "name": "landIndex",
          "type": "uint256"
        }
      ],
      "name": "plant",
      "outputs": [
        {
          "components": [
            {
              "components": [
                {
                  "internalType": "bool",
                  "name": "isInitialized",
                  "type": "bool"
                },
                {
                  "internalType": "uint256",
                  "name": "apples",
                  "type": "uint256"
                },
                {
                  "internalType": "uint256",
                  "name": "avocados",
                  "type": "uint256"
                }
              ],
              "internalType": "struct Farm.Inventory",
              "name": "inventory",
              "type": "tuple"
            },
            {
              "components": [
                {
                  "internalType": "enum Farm.Commodity",
                  "name": "commodity",
                  "type": "uint8"
                },
                {
                  "internalType": "uint256",
                  "name": "createdAt",
                  "type": "uint256"
                }
              ],
              "internalType": "struct Farm.Square[]",
              "name": "land",
              "type": "tuple[]"
            },
            {
              "internalType": "uint256",
              "name": "balance",
              "type": "uint256"
            },
            {
              "components": [
                {
                  "internalType": "enum Farm.Action",
                  "name": "action",
                  "type": "uint8"
                },
                {
                  "internalType": "enum Farm.Commodity",
                  "name": "commodity",
                  "type": "uint8"
                },
                {
                  "internalType": "uint256",
                  "name": "timestamp",
                  "type": "uint256"
                },
                {
                  "internalType": "uint256",
                  "name": "landIndex",
                  "type": "uint256"
                },
                {
                  "internalType": "uint256",
                  "name": "createdAt",
                  "type": "uint256"
                }
              ],
              "internalType": "struct Farm.Transaction[]",
              "name": "transactions",
              "type": "tuple[]"
            }
          ],
          "internalType": "struct Farm.Farm",
          "name": "farm",
          "type": "tuple"
        }
      ],
      "stateMutability": "view",
      "type": "function",
      "constant": true
    },
    {
      "inputs": [
        {
          "components": [
            {
              "internalType": "enum Farm.Action",
              "name": "action",
              "type": "uint8"
            },
            {
              "internalType": "enum Farm.Commodity",
              "name": "commodity",
              "type": "uint8"
            },
            {
              "internalType": "uint256",
              "name": "timestamp",
              "type": "uint256"
            },
            {
              "internalType": "uint256",
              "name": "landIndex",
              "type": "uint256"
            },
            {
              "internalType": "uint256",
              "name": "createdAt",
              "type": "uint256"
            }
          ],
          "internalType": "struct Farm.Transaction[]",
          "name": "_transactions",
          "type": "tuple[]"
        },
        {
          "internalType": "enum Farm.Commodity",
          "name": "_commodity",
          "type": "uint8"
        },
        {
          "internalType": "uint256",
          "name": "landIndex",
          "type": "uint256"
        }
      ],
      "name": "harvest",
      "outputs": [
        {
          "components": [
            {
              "components": [
                {
                  "internalType": "bool",
                  "name": "isInitialized",
                  "type": "bool"
                },
                {
                  "internalType": "uint256",
                  "name": "apples",
                  "type": "uint256"
                },
                {
                  "internalType": "uint256",
                  "name": "avocados",
                  "type": "uint256"
                }
              ],
              "internalType": "struct Farm.Inventory",
              "name": "inventory",
              "type": "tuple"
            },
            {
              "components": [
                {
                  "internalType": "enum Farm.Commodity",
                  "name": "commodity",
                  "type": "uint8"
                },
                {
                  "internalType": "uint256",
                  "name": "createdAt",
                  "type": "uint256"
                }
              ],
              "internalType": "struct Farm.Square[]",
              "name": "land",
              "type": "tuple[]"
            },
            {
              "internalType": "uint256",
              "name": "balance",
              "type": "uint256"
            },
            {
              "components": [
                {
                  "internalType": "enum Farm.Action",
                  "name": "action",
                  "type": "uint8"
                },
                {
                  "internalType": "enum Farm.Commodity",
                  "name": "commodity",
                  "type": "uint8"
                },
                {
                  "internalType": "uint256",
                  "name": "timestamp",
                  "type": "uint256"
                },
                {
                  "internalType": "uint256",
                  "name": "landIndex",
                  "type": "uint256"
                },
                {
                  "internalType": "uint256",
                  "name": "createdAt",
                  "type": "uint256"
                }
              ],
              "internalType": "struct Farm.Transaction[]",
              "name": "transactions",
              "type": "tuple[]"
            }
          ],
          "internalType": "struct Farm.Farm",
          "name": "farm",
          "type": "tuple"
        }
      ],
      "stateMutability": "view",
      "type": "function",
      "constant": true
    },
    {
      "inputs": [],
      "name": "getPrices",
      "outputs": [
        {
          "components": [
            {
              "internalType": "uint256",
              "name": "apples",
              "type": "uint256"
            },
            {
              "internalType": "uint256",
              "name": "avocados",
              "type": "uint256"
            },
            {
              "internalType": "uint256",
              "name": "timestamp",
              "type": "uint256"
            },
            {
              "internalType": "uint256",
              "name": "previousTimestamp",
              "type": "uint256"
            }
          ],
          "internalType": "struct Farm.Prices",
          "name": "price",
          "type": "tuple"
        }
      ],
      "stateMutability": "view",
      "type": "function",
      "constant": true
    },
    {
      "inputs": [],
      "name": "getApplePrice",
      "outputs": [
        {
          "internalType": "uint256",
          "name": "price",
          "type": "uint256"
        }
      ],
      "stateMutability": "view",
      "type": "function",
      "constant": true
    },
    {
      "inputs": [],
      "name": "getAvocadoPrice",
      "outputs": [
        {
          "internalType": "uint256",
          "name": "price",
          "type": "uint256"
        }
      ],
      "stateMutability": "view",
      "type": "function",
      "constant": true
    }
  ],
  "bytecode": "0x60806040526045600155600960045560026005556101f460065561012c60075560066009553480156200003157600080fd5b50604051620031993803806200319983398181016040528101906200005791906200011a565b806000806101000a81548173ffffffffffffffffffffffffffffffffffffffff021916908373ffffffffffffffffffffffffffffffffffffffff160217905550604051806080016040528060648152602001610190815260200142815260200160008152506008600060015481526020019081526020016000206000820151816000015560208201518160010155604082015181600201556060820151816003015590505050620001a8565b60008151905062000114816200018e565b92915050565b6000602082840312156200012d57600080fd5b60006200013d8482850162000103565b91505092915050565b600062000153826200016e565b9050919050565b6000620001678262000146565b9050919050565b600073ffffffffffffffffffffffffffffffffffffffff82169050919050565b62000199816200015a565b8114620001a557600080fd5b50565b612fe180620001b86000396000f3fe608060405234801561001057600080fd5b50600436106100ea5760003560e01c8063b4d641dc1161008c578063bd9a548b11610066578063bd9a548b1461024e578063bf78606e1461026c578063d60039ff1461029d578063f6837650146102b9576100ea565b8063b4d641dc146101d0578063ba7d808a14610200578063bc337f7814610230576100ea565b80635690314c116100c85780635690314c146101475780635d7f850c146101655780636163ec3214610183578063864ccb781461019f576100ea565b806312065fe0146100ef5780631d5ec3cb1461010d578063524a273a14610117575b600080fd5b6100f76102d7565b6040516101049190612cd8565b60405180910390f35b610115610388565b005b610131600480360381019061012c91906124a0565b61065f565b60405161013e9190612c50565b60405180910390f35b61014f610722565b60405161015c9190612b4c565b60405180910390f35b61016d6107f5565b60405161017a9190612ca2565b60405180910390f35b61019d6004803603810190610198919061240b565b61087b565b005b6101b960048036038101906101b4919061244c565b610ba6565b6040516101c7929190612c72565b60405180910390f35b6101ea60048036038101906101e5919061240b565b610c72565b6040516101f79190612c50565b60405180910390f35b61021a600480360381019061021591906124a0565b610ff9565b6040516102279190612c50565b60405180910390f35b6102386110bb565b6040516102459190612cd8565b60405180910390f35b6102566110db565b6040516102639190612cbd565b60405180910390f35b6102866004803603810190610281919061244c565b611130565b604051610294929190612c72565b60405180910390f35b6102b760048036038101906102b2919061240b565b6111fc565b005b6102c1611506565b6040516102ce9190612cd8565b60405180910390f35b60008060009054906101000a900473ffffffffffffffffffffffffffffffffffffffff1673ffffffffffffffffffffffffffffffffffffffff166370a08231336040518263ffffffff1660e01b81526004016103339190612b08565b60206040518083038186803b15801561034b57600080fd5b505afa15801561035f573d6000803e3d6000fd5b505050506040513d601f19601f820116820180604052508101906103839190612507565b905090565b600260003373ffffffffffffffffffffffffffffffffffffffff1673ffffffffffffffffffffffffffffffffffffffff16815260200190815260200160002060000160009054906101000a900460ff1615610418576040517f08c379a000000000000000000000000000000000000000000000000000000000815260040161040f90612c30565b60405180910390fd5b6000600260003373ffffffffffffffffffffffffffffffffffffffff1673ffffffffffffffffffffffffffffffffffffffff168152602001908152602001600020905060018160000160006101000a81548160ff021916908315150217905550600181600101819055506000600360003373ffffffffffffffffffffffffffffffffffffffff1673ffffffffffffffffffffffffffffffffffffffff1681526020019081526020016000209050600060405180604001604052806002808111156104de57fe5b81526020016000815250905060005b600454811015610564578282908060018154018082558091505060019003906000526020600020906002020160009091909190915060008201518160000160006101000a81548160ff0219169083600281111561054657fe5b021790555060208201518160010155505080806001019150506104ed565b5060008060009054906101000a900473ffffffffffffffffffffffffffffffffffffffff1673ffffffffffffffffffffffffffffffffffffffff166370a08231336040518263ffffffff1660e01b81526004016105c19190612b08565b60206040518083038186803b1580156105d957600080fd5b505afa1580156105ed573d6000803e3d6000fd5b505050506040513d601f19601f820116820180604052508101906106119190612507565b905060603373ffffffffffffffffffffffffffffffffffffffff167f46963f16723a084f2199eb74021bd97647aa6c8960612a9a031ce509d40d4ca760405160405180910390a25050505050565b6106676121db565b6000600860006001548152602001908152602001600020604051806080016040529081600082015481526020016001820154815260200160028201548152602001600382015481525050905060006040518060a00160405280600260038111156106cd57fe5b81526020018660028111156106de57fe5b81526020018360400151815260200185815260200142815250905060006107058783611526565b90506000610712826115e8565b9050809450505050509392505050565b6060600360003373ffffffffffffffffffffffffffffffffffffffff1673ffffffffffffffffffffffffffffffffffffffff168152602001908152602001600020805480602002602001604051908101604052809291908181526020016000905b828210156107ec57838290600052602060002090600202016040518060400160405290816000820160009054906101000a900460ff1660028111156107c457fe5b60028111156107cf57fe5b815260200160018201548152505081526020019060010190610783565b50505050905090565b6107fd612209565b600260003373ffffffffffffffffffffffffffffffffffffffff1673ffffffffffffffffffffffffffffffffffffffff1681526020019081526020016000206040518060600160405290816000820160009054906101000a900460ff1615151515815260200160018201548152602001600282015481525050905090565b60008060005b8351811015610914576000600281111561089757fe5b8482815181106108a357fe5b60200260200101516020015160028111156108ba57fe5b14156108cb57600183019250610909565b600160028111156108d857fe5b8482815181106108e457fe5b60200260200101516020015160028111156108fb57fe5b1415610908576001820191505b5b600181019050610881565b5060008183019050600081141561092d57505050610ba3565b60008084111561093e576064820290505b60008084111561095857606483858161095357fe5b040290505b600060055460648161096657fe5b04905060008183039050600060019050600061025842039050600060086000600154815260200190815260200160002060405180608001604052908160008201548152602001600182015481526020016002820154815260200160038201548152505090505b8181604001511115610a50578280600101935050600283126109ed57610a50565b6000816060015114156109ff57610a50565b600860008260600151815260200190815260200160002060405180608001604052908160008201548152602001600182015481526020016002820154815260200160038201548152505090506109cc565b600060086000600154815260200190815260200160002060405180608001604052908160008201548152602001600182015481526020016002820154815260200160038201548152505090506000600a9050600081868881610aae57fe5b0581610ab657fe5b0590506000816064039050600060648286602001510281610ad357fe5b0490506000610ae782600754600654611c75565b905085600860008860400151815260200190815260200160002060008201518160000155602082015181600101556040820151816002015560608201518160030155905050604051806080016040528060648152602001828152602001428152602001876040015181525060086000600154815260200190815260200160002060008201518160000155602082015181600101556040820151816002015560608201518160030155905050505050505050505050505050505050505b50565b610bae6121db565b600080600860006001548152602001908152602001600020604051806080016040529081600082015481526020016001820154815260200160028201548152602001600382015481525050905060006040518060a0016040528060006003811115610c1557fe5b8152602001866002811115610c2657fe5b815260200183604001518152602001600081526020014281525090506000610c4e8783611526565b90506000610c5b826115e8565b905080846000015195509550505050509250929050565b610c7a6121db565b60008060009054906101000a900473ffffffffffffffffffffffffffffffffffffffff1673ffffffffffffffffffffffffffffffffffffffff166370a08231336040518263ffffffff1660e01b8152600401610cd69190612b08565b60206040518083038186803b158015610cee57600080fd5b505afa158015610d02573d6000803e3d6000fd5b505050506040513d601f19601f82011682018060405250810190610d269190612507565b90506000610d33846115e8565b90506000600260003373ffffffffffffffffffffffffffffffffffffffff1673ffffffffffffffffffffffffffffffffffffffff168152602001908152602001600020905081600001516020015181600101819055506000600360003373ffffffffffffffffffffffffffffffffffffffff1673ffffffffffffffffffffffffffffffffffffffff168152602001908152602001600020905060005b836020015151811015610e4f5783602001518181518110610dec57fe5b6020026020010151828281548110610e0057fe5b906000526020600020906002020160008201518160000160006101000a81548160ff02191690836002811115610e3257fe5b021790555060208201518160010155905050600181019050610dcf565b508383604001511115610efa57600084846040015103905060008054906101000a900473ffffffffffffffffffffffffffffffffffffffff1673ffffffffffffffffffffffffffffffffffffffff166340c10f1933836040518363ffffffff1660e01b8152600401610ec2929190612b23565b600060405180830381600087803b158015610edc57600080fd5b505af1158015610ef0573d6000803e3d6000fd5b5050505050610fa1565b8383604001511015610fa057600083604001518503905060008054906101000a900473ffffffffffffffffffffffffffffffffffffffff1673ffffffffffffffffffffffffffffffffffffffff16639dc29fac33836040518363ffffffff1660e01b8152600401610f6c929190612b23565b600060405180830381600087803b158015610f8657600080fd5b505af1158015610f9a573d6000803e3d6000fd5b50505050505b5b610faa8661087b565b3373ffffffffffffffffffffffffffffffffffffffff167fbe35fe23c13a419d565edccb8c8bdedc160c5b9a82873e431b545080d6f3c68860405160405180910390a282945050505050919050565b6110016121db565b6000600860006001548152602001908152602001600020604051806080016040529081600082015481526020016001820154815260200160028201548152602001600382015481525050905060006040518060a0016040528060038081111561106657fe5b815260200186600281111561107757fe5b815260200183604001518152602001858152602001428152509050600061109e8783611526565b905060006110ab826115e8565b9050809450505050509392505050565b600060086000600154815260200190815260200160002060010154905090565b6110e361222c565b600860006001548152602001908152602001600020604051806080016040529081600082015481526020016001820154815260200160028201548152602001600382015481525050905090565b6111386121db565b600080600860006001548152602001908152602001600020604051806080016040529081600082015481526020016001820154815260200160028201548152602001600382015481525050905060006040518060a001604052806001600381111561119f57fe5b81526020018660028111156111b057fe5b8152602001836040015181526020016000815260200142815250905060006111d88783611526565b905060006111e5826115e8565b905080846000015195509550505050509250929050565b600061120782610c72565b90506000600260003373ffffffffffffffffffffffffffffffffffffffff1673ffffffffffffffffffffffffffffffffffffffff1681526020019081526020016000206040518060600160405290816000820160009054906101000a900460ff1615151515815260200160018201548152602001600282015481525050905080600001516112ca576040517f08c379a00000000000000000000000000000000000000000000000000000000081526004016112c190612bd0565b60405180910390fd5b6000600360003373ffffffffffffffffffffffffffffffffffffffff1673ffffffffffffffffffffffffffffffffffffffff16815260200190815260200160002090506000600161131e8380549050611ca2565b019050600081820290506000611341848054905083611ce790919063ffffffff16565b90506000600a600385038318029050600061135b82611d31565b90506000611381604051806060016040528060248152602001612f566024913983611e81565b9050828960400151101581906113cd576040517f08c379a00000000000000000000000000000000000000000000000000000000081526004016113c49190612b6e565b60405180910390fd5b50600060405180604001604052806002808111156113e757fe5b81526020016000815250905060005b8581101561146b578882908060018154018082558091505060019003906000526020600020906002020160009091909190915060008201518160000160006101000a81548160ff0219169083600281111561144d57fe5b021790555060208201518160010155505080806001019150506113f6565b5060008054906101000a900473ffffffffffffffffffffffffffffffffffffffff1673ffffffffffffffffffffffffffffffffffffffff16639dc29fac33866040518363ffffffff1660e01b81526004016114c7929190612b23565b600060405180830381600087803b1580156114e157600080fd5b505af11580156114f5573d6000803e3d6000fd5b505050505050505050505050505050565b600060086000600154815260200190815260200160002060000154905090565b60606000600184510167ffffffffffffffff8111801561154557600080fd5b5060405190808252806020026020018201604052801561157f57816020015b61156c612254565b8152602001906001900390816115645790505b50905060005b84518110156115c45784818151811061159a57fe5b60200260200101518282815181106115ae57fe5b6020026020010181905250600181019050611585565b5082818551815181106115d357fe5b60200260200101819052508091505092915050565b6115f06121db565b6000600260003373ffffffffffffffffffffffffffffffffffffffff1673ffffffffffffffffffffffffffffffffffffffff1681526020019081526020016000206040518060600160405290816000820160009054906101000a900460ff1615151515815260200160018201548152602001600282015481525050905080600001516116b1576040517f08c379a00000000000000000000000000000000000000000000000000000000081526004016116a890612bd0565b60405180910390fd5b6000600360003373ffffffffffffffffffffffffffffffffffffffff1673ffffffffffffffffffffffffffffffffffffffff168152602001908152602001600020805480602002602001604051908101604052809291908181526020016000905b8282101561177b57838290600052602060002090600202016040518060400160405290816000820160009054906101000a900460ff16600281111561175357fe5b600281111561175e57fe5b815260200160018201548152505081526020019060010190611712565b50505050905060008060009054906101000a900473ffffffffffffffffffffffffffffffffffffffff1673ffffffffffffffffffffffffffffffffffffffff166370a08231336040518263ffffffff1660e01b81526004016117dd9190612b08565b60206040518083038186803b1580156117f557600080fd5b505afa158015611809573d6000803e3d6000fd5b505050506040513d601f19601f8201168201806040525081019061182d9190612507565b905060005b8551811015611c4957600086828151811061184957fe5b6020026020010151905060006008600083604001518152602001908152602001600020604051806080016040529081600082015481526020016001820154815260200160028201548152602001600382015481525050905060006118b1878460200151611ead565b905060006118c3838560200151611f0f565b9050600160038111156118d257fe5b846000015160038111156118e257fe5b141561195a57816001111561192c576040517f08c379a000000000000000000000000000000000000000000000000000000000815260040161192390612c10565b60405180910390fd5b61193d888560200151600180611f71565b975061195360648761209390919063ffffffff16565b9550611c38565b6000600381111561196757fe5b8460000151600381111561197757fe5b14156119ef57808610156119c0576040517f08c379a00000000000000000000000000000000000000000000000000000000081526004016119b790612b90565b60405180910390fd5b6119d4606487611ce790919063ffffffff16565b95506119e888856020015160006001611f71565b9750611c37565b600260038111156119fc57fe5b84600001516003811115611a0c57fe5b1415611ab65760008211611a55576040517f08c379a0000000000000000000000000000000000000000000000000000000008152600401611a4c90612bb0565b60405180910390fd5b6000604051806040016040528086602001516002811115611a7257fe5b8152602001866080015181525090508088866060015181518110611a9257fe5b6020026020010181905250611aae898660200151600180611f71565b985050611c36565b600380811115611ac257fe5b84600001516003811115611ad257fe5b1415611c3557600087856060015181518110611aea57fe5b6020026020010151905084602001516002811115611b0457fe5b81600001516002811115611b1457fe5b14611b54576040517f08c379a0000000000000000000000000000000000000000000000000000000008152600401611b4b90612bf0565b60405180910390fd5b60008160200151420390506000611b6a82611d31565b90506000611b90604051806060016040528060328152602001612f7a6032913983611e81565b905060095483118190611bd9576040517f08c379a0000000000000000000000000000000000000000000000000000000008152600401611bd09190612b6e565b60405180910390fd5b5060006040518060400160405280600280811115611bf357fe5b815260200160008152509050808c8a6060015181518110611c1057fe5b6020026020010181905250611c2d8d8a6020015160006002611f71565b9c5050505050505b5b5b5b505050508080600101915050611832565b506040518060800160405280848152602001838152602001828152602001868152509350505050919050565b600082841015611c8757829050611c9b565b81841115611c9757819050611c9b565b8390505b9392505050565b60008060026001840181611cb257fe5b0490508291505b81811015611ce157809150600281828581611cd057fe5b040181611cd957fe5b049050611cb9565b50919050565b6000611d2983836040518060400160405280601e81526020017f536166654d6174683a207375627472616374696f6e206f766572666c6f77000081525061211b565b905092915050565b60606000821415611d79576040518060400160405280600181526020017f30000000000000000000000000000000000000000000000000000000000000008152509050611e7c565b600082905060005b60008214611da3578080600101915050600a8281611d9b57fe5b049150611d81565b60008167ffffffffffffffff81118015611dbc57600080fd5b506040519080825280601f01601f191660200182016040528015611def5781602001600182028036833780820191505090505b50905060008290505b60008614611e74576001810390506000600a808881611e1357fe5b04028703603001905060008160f81b905080848481518110611e3157fe5b60200101907effffffffffffffffffffffffffffffffffffffffffffffffffffffffffffff1916908160001a905350600a8881611e6a57fe5b0497505050611df8565b819450505050505b919050565b60608282604051602001611e96929190612ae4565b604051602081830303815290604052905092915050565b6000806002811115611ebb57fe5b826002811115611ec757fe5b1415611ed95782602001519050611f09565b60016002811115611ee657fe5b826002811115611ef257fe5b1415611f045782604001519050611f09565b600090505b92915050565b6000806002811115611f1d57fe5b826002811115611f2957fe5b1415611f3b5782600001519050611f6b565b60016002811115611f4857fe5b826002811115611f5457fe5b1415611f665782602001519050611f6b565b600090505b92915050565b611f79612209565b60006002811115611f8657fe5b846002811115611f9257fe5b14156120025760006001811115611fa557fe5b836001811115611fb157fe5b1415611fdc57611fce82866020015161209390919063ffffffff16565b856020018181525050611ffd565b611ff3828660200151611ce790919063ffffffff16565b8560200181815250505b612088565b6001600281111561200f57fe5b84600281111561201b57fe5b1415612087576000600181111561202e57fe5b83600181111561203a57fe5b14156120655761205782866040015161209390919063ffffffff16565b856040018181525050612086565b61207c828660400151611ce790919063ffffffff16565b8560400181815250505b5b5b849050949350505050565b600080828401905083811015612111576040517f08c379a000000000000000000000000000000000000000000000000000000000815260040180806020018281038252601b8152602001807f536166654d6174683a206164646974696f6e206f766572666c6f77000000000081525060200191505060405180910390fd5b8091505092915050565b60008383111582906121c8576040517f08c379a00000000000000000000000000000000000000000000000000000000081526004018080602001828103825283818151815260200191508051906020019080838360005b8381101561218d578082015181840152602081019050612172565b50505050905090810190601f1680156121ba5780820380516001836020036101000a031916815260200191505b509250505060405180910390fd5b5060008385039050809150509392505050565b60405180608001604052806121ee612209565b81526020016060815260200160008152602001606081525090565b604051806060016040528060001515815260200160008152602001600081525090565b6040518060800160405280600081526020016000815260200160008152602001600081525090565b6040518060a001604052806000600381111561226c57fe5b81526020016000600281111561227e57fe5b81526020016000815260200160008152602001600081525090565b60006122ac6122a784612d24565b612cf3565b905080838252602082019050828560a08602820111156122cb57600080fd5b60005b858110156122fb57816122e18882612359565b845260208401935060a083019250506001810190506122ce565b5050509392505050565b600082601f83011261231657600080fd5b8135612326848260208601612299565b91505092915050565b60008135905061233e81612f1e565b92915050565b60008135905061235381612f2e565b92915050565b600060a0828403121561236b57600080fd5b61237560a0612cf3565b905060006123858482850161232f565b600083015250602061239984828501612344565b60208301525060406123ad848285016123e1565b60408301525060606123c1848285016123e1565b60608301525060806123d5848285016123e1565b60808301525092915050565b6000813590506123f081612f3e565b92915050565b60008151905061240581612f3e565b92915050565b60006020828403121561241d57600080fd5b600082013567ffffffffffffffff81111561243757600080fd5b61244384828501612305565b91505092915050565b6000806040838503121561245f57600080fd5b600083013567ffffffffffffffff81111561247957600080fd5b61248585828601612305565b925050602061249685828601612344565b9150509250929050565b6000806000606084860312156124b557600080fd5b600084013567ffffffffffffffff8111156124cf57600080fd5b6124db86828701612305565b93505060206124ec86828701612344565b92505060406124fd868287016123e1565b9150509250925092565b60006020828403121561251957600080fd5b6000612527848285016123f6565b91505092915050565b600061253c8383612a2f565b60408301905092915050565b60006125548383612a5e565b60a08301905092915050565b61256981612e56565b82525050565b600061257a82612d70565b6125848185612dab565b935061258f83612d50565b8060005b838110156125c05781516125a78882612530565b97506125b283612d91565b925050600181019050612593565b5085935050505092915050565b60006125d882612d70565b6125e28185612dbc565b93506125ed83612d50565b8060005b8381101561261e5781516126058882612530565b975061261083612d91565b9250506001810190506125f1565b5085935050505092915050565b600061263682612d7b565b6126408185612dcd565b935061264b83612d60565b8060005b8381101561267c5781516126638882612548565b975061266e83612d9e565b92505060018101905061264f565b5085935050505092915050565b61269281612dfa565b82525050565b6126a181612e68565b82525050565b6126b081612e7a565b82525050565b60006126c182612d86565b6126cb8185612dde565b93506126db818560208601612eb0565b6126e481612ee5565b840191505092915050565b60006126fa82612d86565b6127048185612def565b9350612714818560208601612eb0565b80840191505092915050565b600061272d602b83612dde565b91507f496e76616c6964206661726d3a204e6f7420656e6f756768206d6f6e6579207460008301527f6f206275792073656564730000000000000000000000000000000000000000006020830152604082019050919050565b6000612793602783612dde565b91507f496e76616c6964206661726d3a204e6f7420656e6f756768207365656473207460008301527f6f20706c616e74000000000000000000000000000000000000000000000000006020830152604082019050919050565b60006127f9601383612dde565b91507f4661726d20646f6573206e6f74206578697374000000000000000000000000006000830152602082019050919050565b6000612839601d83612dde565b91507f496e76616c6964206661726d3a204e6f206672756974206578697374730000006000830152602082019050919050565b6000612879601e83612dde565b91507f496e76616c6964206661726d3a204e6f20736565647320746f2073656c6c00006000830152602082019050919050565b60006128b9601883612dde565b91507f496e76656e746f727920616c72656164792065786973747300000000000000006000830152602082019050919050565b600060c0830160008301516129046000860182612956565b506020830151848203606086015261291c828261256f565b91505060408301516129316080860182612ac6565b50606083015184820360a0860152612949828261262b565b9150508091505092915050565b60608201600082015161296c6000850182612689565b50602082015161297f6020850182612ac6565b5060408201516129926040850182612ac6565b50505050565b6060820160008201516129ae6000850182612689565b5060208201516129c16020850182612ac6565b5060408201516129d46040850182612ac6565b50505050565b6080820160008201516129f06000850182612ac6565b506020820151612a036020850182612ac6565b506040820151612a166040850182612ac6565b506060820151612a296060850182612ac6565b50505050565b604082016000820151612a4560008501826126a7565b506020820151612a586020850182612ac6565b50505050565b60a082016000820151612a746000850182612698565b506020820151612a8760208501826126a7565b506040820151612a9a6040850182612ac6565b506060820151612aad6060850182612ac6565b506080820151612ac06080850182612ac6565b50505050565b612acf81612e4c565b82525050565b612ade81612e4c565b82525050565b6000612af082856126ef565b9150612afc82846126ef565b91508190509392505050565b6000602082019050612b1d6000830184612560565b92915050565b6000604082019050612b386000830185612560565b612b456020830184612ad5565b9392505050565b60006020820190508181036000830152612b6681846125cd565b905092915050565b60006020820190508181036000830152612b8881846126b6565b905092915050565b60006020820190508181036000830152612ba981612720565b9050919050565b60006020820190508181036000830152612bc981612786565b9050919050565b60006020820190508181036000830152612be9816127ec565b9050919050565b60006020820190508181036000830152612c098161282c565b9050919050565b60006020820190508181036000830152612c298161286c565b9050919050565b60006020820190508181036000830152612c49816128ac565b9050919050565b60006020820190508181036000830152612c6a81846128ec565b905092915050565b60006040820190508181036000830152612c8c81856128ec565b9050612c9b6020830184612ad5565b9392505050565b6000606082019050612cb76000830184612998565b92915050565b6000608082019050612cd260008301846129da565b92915050565b6000602082019050612ced6000830184612ad5565b92915050565b6000604051905081810181811067ffffffffffffffff82111715612d1a57612d19612ee3565b5b8060405250919050565b600067ffffffffffffffff821115612d3f57612d3e612ee3565b5b602082029050602081019050919050565b6000819050602082019050919050565b6000819050602082019050919050565b600081519050919050565b600081519050919050565b600081519050919050565b6000602082019050919050565b6000602082019050919050565b600082825260208201905092915050565b600082825260208201905092915050565b600082825260208201905092915050565b600082825260208201905092915050565b600081905092915050565b60008115159050919050565b6000819050612e1482612ef6565b919050565b6000819050612e2782612f0a565b919050565b600073ffffffffffffffffffffffffffffffffffffffff82169050919050565b6000819050919050565b6000612e6182612e8c565b9050919050565b6000612e7382612e06565b9050919050565b6000612e8582612e19565b9050919050565b6000612e9782612e9e565b9050919050565b6000612ea982612e2c565b9050919050565b60005b83811015612ece578082015181840152602081019050612eb3565b83811115612edd576000848401525b50505050565bfe5b6000601f19601f8301169050919050565b60048110612f0757612f06612ee3565b5b50565b60038110612f1b57612f1a612ee3565b5b50565b60048110612f2b57600080fd5b50565b60038110612f3b57600080fd5b50565b612f4781612e4c565b8114612f5257600080fd5b5056fe4e6f7420656e6f756768206d6f6e657920746f20627579206e6577206669656c64733a20496e76616c6964206661726d3a20546865206672756974206973206e6f7420726970652c20706c6561736520776169743a20a2646970667358221220e8c24b2a35dd414070ec741354996972b9bebe8017a484ac62894a186d06235b64736f6c63430007060033",
  "immutableReferences": {},
  "source": "pragma solidity >=0.6.0 <0.8.0;\r\npragma experimental ABIEncoderV2;\r\n\r\nimport \"@openzeppelin/contracts/math/Math.sol\";\r\nimport \"./Token.sol\";\r\n\r\ncontract Farm {\r\n    using SafeMath for uint256;\r\n\r\n    //assign Token contract to variable\r\n    Token private token;\r\n    uint NOW_TIMESTAMP = 69;\r\n    //uint DECIMAL_PLACES = 2;\r\n\r\n    struct Square {\r\n        Commodity commodity;\r\n        uint createdAt;\r\n    }\r\n\r\n    struct Inventory {\r\n        bool isInitialized;\r\n        uint apples;\r\n        uint avocados;\r\n    }\r\n\r\n\r\n    mapping(address => Inventory) inventories;\r\n    mapping(address => Square[]) fields;\r\n\r\n    //pass as constructor argument deployed Token contract\r\n    constructor(Token _token) public {\r\n        //assign token deployed contract to variable\r\n        token = _token;\r\n\r\n        // Initial prices\r\n        market[NOW_TIMESTAMP] = Prices({\r\n            apples: 100, \r\n            avocados: 400,\r\n            timestamp: block.timestamp,\r\n            previousTimestamp: 0\r\n        });\r\n    }\r\n\r\n    uint INITIAL_FIELD_COUNT = 9;\r\n\r\n    event FarmCreated(address indexed _address);\r\n    event FarmSynced(address indexed _address);\r\n\r\n    function createFarm() public {\r\n        require(!inventories[msg.sender].isInitialized, \"Inventory already exists\");\r\n\r\n        Inventory storage inventory = inventories[msg.sender];\r\n        inventory.isInitialized = true;\r\n        inventory.apples = 1;\r\n\r\n        // Farm only has 1 block\r\n        Square[] storage land = fields[msg.sender];\r\n        Square memory empty = Square(Commodity.Empty, 0);\r\n        for (uint index = 0; index < INITIAL_FIELD_COUNT; index++) {\r\n            land.push(empty);\r\n        }\r\n\r\n        uint balance = token.balanceOf(msg.sender);\r\n        Transaction[] memory transactions;\r\n\r\n        //Emit an event\r\n        emit FarmCreated(msg.sender);\r\n    }\r\n\r\n    function sqrt(uint x) private returns (uint y) {\r\n        uint z = (x + 1) / 2;\r\n        y = x;\r\n        while (z < y) {\r\n            y = z;\r\n            z = (x / z + z) / 2;\r\n        }\r\n    }\r\n\r\n    function buyMoreSpace(Transaction[] memory _transactions) public {\r\n        Farm memory farm = sync(_transactions);\r\n        Inventory memory inventory = inventories[msg.sender];\r\n        require(inventory.isInitialized, \"Farm does not exist\");\r\n\r\n        Square[] storage land = fields[msg.sender];\r\n        // 4\r\n        uint newWidth = sqrt(land.length) + 1;\r\n        // 16\r\n        uint newSize = newWidth * newWidth;\r\n        uint newFields = newSize.sub(land.length);\r\n\r\n        // TODO safemath\r\n        uint price = (newFields ^ (newWidth - 3)) * 10;\r\n\r\n        string memory priceString = uint2str(price);\r\n        string memory message = concatenate(\"Not enough money to buy new fields: \", priceString);\r\n        require(farm.balance >= price, message);\r\n\r\n        Square memory empty = Square(Commodity.Empty, 0);\r\n        // Do not bother rearranging the array - it is already in a strange square!\r\n        for (uint index = 0; index < newFields; index++) {\r\n            land.push(empty);\r\n        }\r\n\r\n\r\n        // TODO - Add the new spots\r\n        token.burn(msg.sender, price);\r\n    }\r\n\r\n    function getInventory() public view returns (Inventory memory) {\r\n        return inventories[msg.sender];\r\n    }\r\n\r\n    function getLand() public view returns (Square[] memory) {\r\n        return fields[msg.sender];\r\n    }\r\n\r\n    enum Action { Buy, Sell, Plant, Harvest }\r\n    uint FRUIT_COUNT = 2;\r\n    enum Commodity { AppleSeed, AvocadoSeed, Empty }\r\n\r\n    struct Transaction { \r\n        Action action;\r\n        Commodity commodity;\r\n        // Unique prices key\r\n        uint timestamp;\r\n        uint landIndex;\r\n        uint createdAt;\r\n    }\r\n\r\n    uint MAX_AVOCADO_PRICE = 500;\r\n    uint MIN_AVOCADO_PRICE = 300;\r\n\r\n    struct Prices {\r\n        uint apples;\r\n        uint avocados;\r\n        uint timestamp;\r\n        uint previousTimestamp;\r\n    }\r\n     \r\n    mapping(uint => Prices) market;\r\n\r\n    struct Farm {\r\n        Inventory inventory;\r\n        Square[] land;\r\n        uint balance;\r\n        Transaction[] transactions;\r\n    }\r\n\r\n    uint APPLE_HARVEST_SECONDS = 6;\r\n\r\n    function getSeedFromInventory(Inventory memory _inventory, Commodity _commodity) private view returns (uint count) {\r\n        if (_commodity == Commodity.AppleSeed) {\r\n            return _inventory.apples;\r\n        } else if (_commodity == Commodity.AvocadoSeed) {\r\n            return _inventory.avocados;\r\n        }\r\n\r\n        return 0;\r\n    }\r\n\r\n    function getFruitPrice(Prices memory prices, Commodity _commodity) private view returns (uint price) {\r\n        if (_commodity == Commodity.AppleSeed) {\r\n            return prices.apples;\r\n        } else if (_commodity == Commodity.AvocadoSeed) {\r\n            return prices.avocados;\r\n        }\r\n\r\n        return 0;\r\n    }\r\n\r\n    enum InventoryAction {\r\n        Add,\r\n        Subtract\r\n    }\r\n\r\n    function updateInventory(Inventory memory _inventory, Commodity _commodity, InventoryAction _action, uint _change) private view returns (Inventory memory) {\r\n        if (_commodity == Commodity.AppleSeed) {\r\n            if (_action == InventoryAction.Add) {\r\n                _inventory.apples = _inventory.apples.add(_change);\r\n            } else {\r\n                _inventory.apples = _inventory.apples.sub(_change);\r\n            }\r\n        } else if (_commodity == Commodity.AvocadoSeed) {\r\n            if (_action == InventoryAction.Add) {\r\n                _inventory.avocados = _inventory.avocados.add(_change);\r\n            } else {\r\n                _inventory.avocados = _inventory.avocados.sub(_change);\r\n            }\r\n        }\r\n\r\n        return _inventory;\r\n    }\r\n\r\n    function concatenate(\r\n        string memory a,\r\n        string memory b)\r\n        internal\r\n        pure\r\n        returns(string memory) {\r\n            return string(abi.encodePacked(a, b));\r\n        }\r\n\r\n    function uint2str(uint _i) internal pure returns (string memory _uintAsString) {\r\n        if (_i == 0) {\r\n            return \"0\";\r\n        }\r\n        uint j = _i;\r\n        uint len;\r\n        while (j != 0) {\r\n            len++;\r\n            j /= 10;\r\n        }\r\n        bytes memory bstr = new bytes(len);\r\n        uint k = len;\r\n        while (_i != 0) {\r\n            k = k-1;\r\n            uint8 temp = (48 + uint8(_i - _i / 10 * 10));\r\n            bytes1 b1 = bytes1(temp);\r\n            bstr[k] = b1;\r\n            _i /= 10;\r\n        }\r\n        return string(bstr);\r\n    }\r\n\r\n    function buildFarm(Transaction[] memory _transactions) private view returns (Farm memory currentFarm) {\r\n        Inventory memory inventory = inventories[msg.sender];\r\n\r\n        require(inventory.isInitialized, \"Farm does not exist\");\r\n\r\n        Square[] memory land = fields[msg.sender];\r\n        uint balance = token.balanceOf(msg.sender);\r\n\r\n        for (uint index = 0; index < _transactions.length; index++) {\r\n            Transaction memory transaction = _transactions[index];\r\n            Prices memory prices = market[transaction.timestamp];\r\n            \r\n            uint seedCount = getSeedFromInventory(inventory, transaction.commodity);\r\n            uint price = getFruitPrice(prices, transaction.commodity);\r\n\r\n            if (transaction.action == Action.Sell) {\r\n                require(1 <= seedCount, \"Invalid farm: No seeds to sell\");\r\n\r\n                inventory = updateInventory(inventory, transaction.commodity, InventoryAction.Subtract, 1);\r\n                // TODO USE REAL PRICES\r\n                balance = balance.add(100);\r\n            } else if (transaction.action == Action.Buy) {\r\n                require(balance >= price, \"Invalid farm: Not enough money to buy seeds\");\r\n\r\n                // TODO USE REAL PRICES\r\n                balance = balance.sub(100);\r\n                inventory = updateInventory(inventory, transaction.commodity, InventoryAction.Add, 1);\r\n            } else if (transaction.action == Action.Plant) {\r\n                require(seedCount > 0, \"Invalid farm: Not enough seeds to plant\");\r\n\r\n\r\n                Square memory plantedSeed = Square({\r\n                    commodity: transaction.commodity,\r\n                    // TODO - When they sync the farm, this will be at the time of the farm :(\r\n                    createdAt: transaction.createdAt\r\n                });\r\n                land[transaction.landIndex] = plantedSeed;\r\n                inventory = updateInventory(inventory, transaction.commodity, InventoryAction.Subtract, 1);\r\n            } else if (transaction.action == Action.Harvest) {\r\n                Square memory square = land[transaction.landIndex];\r\n                require(square.commodity == transaction.commodity, \"Invalid farm: No fruit exists\");\r\n\r\n                uint duration = block.timestamp - square.createdAt;\r\n                string memory durationString = uint2str(duration);\r\n                string memory message = concatenate(\"Invalid farm: The fruit is not ripe, please wait: \", durationString);\r\n                // TODO - normal times\r\n                require(duration > APPLE_HARVEST_SECONDS, message);\r\n\r\n                // Clear the land\r\n                Square memory emptyLand = Square(Commodity.Empty, 0);\r\n                land[transaction.landIndex] = emptyLand;\r\n                inventory = updateInventory(inventory, transaction.commodity, InventoryAction.Add, 2);\r\n            }\r\n        }\r\n\r\n        return Farm({\r\n            inventory: inventory,\r\n            land: land,\r\n            balance: balance,\r\n            transactions: _transactions\r\n        });\r\n    }\r\n\r\n    function clamp(uint value, uint minimum, uint maximum) private pure returns (uint clamped) {\r\n        if (value < minimum) {\r\n            return minimum;\r\n        }\r\n\r\n        if (value > maximum) {\r\n            return maximum;\r\n        }\r\n\r\n        return value;\r\n    }\r\n\r\n    // Assume the proportional number of transactions is what influences price\r\n    // Since at the time of transaction, they will likely be buying something and have sold all their seeds\r\n    function moveTheMarket(Transaction[] memory _transactions) public {\r\n        uint apples = 0;\r\n        uint avocados = 0;\r\n\r\n        // What is the biggest mover?\r\n        for (uint i=0; i < _transactions.length; i += 1) {\r\n            if (_transactions[i].commodity == Commodity.AppleSeed) {\r\n                apples += 1;\r\n            } else if ( _transactions[i].commodity == Commodity.AvocadoSeed) {\r\n                avocados += 1;\r\n            }\r\n        }\r\n\r\n        uint totalFruitTransactions = apples + avocados;\r\n\r\n        if (totalFruitTransactions == 0) {\r\n            // TODO still update the timestamps being used\r\n            return;\r\n        }\r\n\r\n        // Percentage of transactions that were apples\r\n        uint applePercentage = 0;\r\n        if (apples > 0) {\r\n            applePercentage = totalFruitTransactions * 100;\r\n        } \r\n        uint avocadoPercentage = 0;\r\n        if (avocados > 0) {\r\n            // 35%\r\n            avocadoPercentage = avocados / totalFruitTransactions * 100;\r\n        } \r\n\r\n        // 30%\r\n        uint expectedTransactions = 100 / FRUIT_COUNT;\r\n\r\n        // 5% \r\n        int avocadoChange = int(avocadoPercentage) - int(expectedTransactions);\r\n\r\n\r\n        //TODO even out the price from the previous hour - store transactions in the last hour?\r\n        int transactionCount = 1;\r\n        uint tenMinutesAgo = block.timestamp - (60 * 10);\r\n        Prices memory prices = market[NOW_TIMESTAMP];\r\n        while (prices.timestamp > tenMinutesAgo) {\r\n            transactionCount++;\r\n            \r\n            // Endless loop if we do not have this???\r\n            if (transactionCount >= 2) {\r\n                break;\r\n            }\r\n\r\n            // Back to the beginining\r\n            if (prices.previousTimestamp == 0) {\r\n                break;\r\n            }\r\n\r\n            prices = market[prices.previousTimestamp];\r\n        }\r\n\r\n        Prices memory currentPrices = market[NOW_TIMESTAMP];\r\n\r\n        // To avoid major market shifts, divide it\r\n        int MARKET_IMPACT = 10;\r\n        // 5% / 3 Transactions = 1.8%\r\n        int relativeAvocadoChange = avocadoChange / transactionCount / MARKET_IMPACT;\r\n        // 98.2% - we want to decrease it a little.\r\n        int percentage = 100 - relativeAvocadoChange;\r\n        // $5.23\r\n        uint avocadoPrice = currentPrices.avocados * uint(percentage) / 100;\r\n        // $5\r\n        uint clampedAvocadoPrice = clamp(avocadoPrice, MIN_AVOCADO_PRICE, MAX_AVOCADO_PRICE);\r\n\r\n        market[currentPrices.timestamp] = currentPrices;\r\n        market[NOW_TIMESTAMP] = Prices({\r\n            // Staple crop\r\n            apples: 100,\r\n            avocados: clampedAvocadoPrice,\r\n            timestamp: block.timestamp,\r\n            previousTimestamp: currentPrices.timestamp\r\n        });\r\n    }\r\n\r\n    function sync(Transaction[] memory _transactions) public returns (Farm memory) {\r\n        uint balance = token.balanceOf(msg.sender);\r\n        Farm memory farm = buildFarm(_transactions);\r\n\r\n        // Update the inventory\r\n        Inventory storage oldInventory = inventories[msg.sender];\r\n        oldInventory.apples = farm.inventory.apples;\r\n\r\n        // Update the land\r\n        Square[] storage land = fields[msg.sender];\r\n        for (uint i=0; i < farm.land.length; i += 1) {\r\n            land[i] = farm.land[i];\r\n        }\r\n\r\n\r\n        // Update the balance - mint or burn\r\n        if (farm.balance > balance) {\r\n            uint profit = farm.balance - balance;\r\n            token.mint(msg.sender, profit);\r\n        } else if (farm.balance < balance) {\r\n            uint loss = balance - farm.balance;\r\n            token.burn(msg.sender, loss);\r\n        }\r\n\r\n        moveTheMarket(_transactions);\r\n        emit FarmSynced(msg.sender);\r\n        return farm;\r\n    }\r\n\r\n    function getBalance() public view returns (uint balance) {\r\n        return token.balanceOf(msg.sender);\r\n    }\r\n\r\n    function addTransaction(Transaction[] memory _transactions, Transaction memory _transaction) private view returns (Transaction[] memory) {\r\n        Transaction[] memory newTransactions = new Transaction[](_transactions.length + 1);\r\n        for (uint i=0; i < _transactions.length; i += 1) {\r\n            newTransactions[i] = _transactions[i];\r\n        }\r\n\r\n        // Add the new transaction\r\n        newTransactions[_transactions.length] = _transaction;\r\n\r\n        return newTransactions;\r\n    }\r\n\r\n    function buy(Transaction[] memory _transactions, Commodity _commodity) public view returns (Farm memory farm, uint price) {\r\n        Prices memory currentPrices = market[NOW_TIMESTAMP];\r\n        Transaction memory buyAppleTransaction = Transaction({\r\n            action: Action.Buy,\r\n            commodity: _commodity,\r\n            timestamp: currentPrices.timestamp,\r\n            landIndex: 0,\r\n            createdAt: block.timestamp\r\n        });\r\n        Transaction[] memory newTransactions = addTransaction(_transactions, buyAppleTransaction);\r\n\r\n\r\n        Farm memory updatedFarm = buildFarm(newTransactions);\r\n        return (updatedFarm,currentPrices.apples);\r\n    }\r\n\r\n    function sell(Transaction[] memory _transactions, Commodity _commodity) public view returns (Farm memory farm, uint price) {\r\n        Prices memory currentPrices = market[NOW_TIMESTAMP];\r\n        Transaction memory sellAppleTransaction = Transaction({\r\n            action: Action.Sell,\r\n            commodity: _commodity,\r\n            timestamp: currentPrices.timestamp,\r\n            landIndex: 0,\r\n            createdAt: block.timestamp\r\n        });\r\n        Transaction[] memory newTransactions = addTransaction(_transactions, sellAppleTransaction);\r\n\r\n\r\n        Farm memory updatedFarm = buildFarm(newTransactions);\r\n        return (updatedFarm, currentPrices.apples);\r\n    }\r\n\r\n    function plant(Transaction[] memory _transactions, Commodity _commodity, uint landIndex) public view returns (Farm memory farm) {\r\n        Prices memory currentPrices = market[NOW_TIMESTAMP];\r\n        Transaction memory plantAppleTransaction = Transaction({\r\n            action: Action.Plant,\r\n            commodity: _commodity,\r\n            timestamp: currentPrices.timestamp,\r\n            landIndex: landIndex,\r\n            createdAt: block.timestamp\r\n        });\r\n        Transaction[] memory newTransactions = addTransaction(_transactions, plantAppleTransaction);\r\n\r\n        Farm memory updatedFarm = buildFarm(newTransactions);\r\n        return (updatedFarm);\r\n    }\r\n\r\n    function harvest(Transaction[] memory _transactions, Commodity _commodity, uint landIndex) public view returns (Farm memory farm) {\r\n        // Add the new transaction\r\n        Prices memory currentPrices = market[NOW_TIMESTAMP];\r\n        Transaction memory plantAppleTransaction = Transaction({\r\n            action: Action.Harvest,\r\n            commodity: _commodity,\r\n            timestamp: currentPrices.timestamp,\r\n            landIndex: landIndex,\r\n            createdAt: block.timestamp\r\n        });\r\n        Transaction[] memory newTransactions = addTransaction(_transactions, plantAppleTransaction);\r\n\r\n        Farm memory updatedFarm = buildFarm(newTransactions);\r\n        return (updatedFarm);\r\n    }\r\n\r\n    function getPrices() public view returns (Prices memory price) {\r\n        return market[NOW_TIMESTAMP];\r\n    }\r\n\r\n    function getApplePrice() public view returns (uint price) {\r\n        return market[NOW_TIMESTAMP].apples;\r\n    }\r\n\r\n    function getAvocadoPrice() public view returns (uint price) {\r\n        return market[NOW_TIMESTAMP].avocados;\r\n    }\r\n}\r\n",
  "sourcePath": "/Users/adamhannigan/Documents/workspace/fruit-market/src/contracts/Farm.sol",
  "compiler": {
    "name": "solc",
    "version": "0.7.6+commit.7338295f.Emscripten.clang"
  },
  "schemaVersion": "3.4.0",
  "updatedAt": "2021-05-18T10:20:04.252Z",
  "networkType": "ethereum",
  "devdoc": {
    "kind": "dev",
    "methods": {},
    "version": 1
  },
  "userdoc": {
    "kind": "user",
    "methods": {},
    "version": 1
  }
}