{
  "contractName": "Farm",
  "abi": [
    {
      "inputs": [
        {
          "internalType": "contract Token",
          "name": "_token",
          "type": "address"
        }
      ],
      "stateMutability": "nonpayable",
      "type": "constructor"
    },
    {
      "anonymous": false,
      "inputs": [
        {
          "indexed": true,
          "internalType": "address",
          "name": "_address",
          "type": "address"
        }
      ],
      "name": "FarmCreated",
      "type": "event"
    },
    {
      "anonymous": false,
      "inputs": [
        {
          "indexed": true,
          "internalType": "address",
          "name": "_address",
          "type": "address"
        }
      ],
      "name": "FarmSynced",
      "type": "event"
    },
    {
      "inputs": [],
      "name": "createFarm",
      "outputs": [],
      "stateMutability": "nonpayable",
      "type": "function"
    },
    {
      "inputs": [],
      "name": "lastSyncedAt",
      "outputs": [
        {
          "internalType": "uint256",
          "name": "",
          "type": "uint256"
        }
      ],
      "stateMutability": "view",
      "type": "function",
      "constant": true
    },
    {
      "inputs": [],
      "name": "getLand",
      "outputs": [
        {
          "components": [
            {
              "internalType": "enum Farm.Fruit",
              "name": "fruit",
              "type": "uint8"
            },
            {
              "internalType": "uint256",
              "name": "createdAt",
              "type": "uint256"
            }
          ],
          "internalType": "struct Farm.Square[]",
          "name": "",
          "type": "tuple[]"
        }
      ],
      "stateMutability": "view",
      "type": "function",
      "constant": true
    },
    {
      "inputs": [
        {
          "components": [
            {
              "internalType": "enum Farm.Action",
              "name": "action",
              "type": "uint8"
            },
            {
              "internalType": "enum Farm.Fruit",
              "name": "fruit",
              "type": "uint8"
            },
            {
              "internalType": "uint256",
              "name": "landIndex",
              "type": "uint256"
            },
            {
              "internalType": "uint256",
              "name": "createdAt",
              "type": "uint256"
            }
          ],
          "internalType": "struct Farm.Transaction[]",
          "name": "_transactions",
          "type": "tuple[]"
        }
      ],
      "name": "sync",
      "outputs": [
        {
          "components": [
            {
              "components": [
                {
                  "internalType": "enum Farm.Fruit",
                  "name": "fruit",
                  "type": "uint8"
                },
                {
                  "internalType": "uint256",
                  "name": "createdAt",
                  "type": "uint256"
                }
              ],
              "internalType": "struct Farm.Square[]",
              "name": "land",
              "type": "tuple[]"
            },
            {
              "internalType": "uint256",
              "name": "balance",
              "type": "uint256"
            },
            {
              "components": [
                {
                  "internalType": "enum Farm.Action",
                  "name": "action",
                  "type": "uint8"
                },
                {
                  "internalType": "enum Farm.Fruit",
                  "name": "fruit",
                  "type": "uint8"
                },
                {
                  "internalType": "uint256",
                  "name": "landIndex",
                  "type": "uint256"
                },
                {
                  "internalType": "uint256",
                  "name": "createdAt",
                  "type": "uint256"
                }
              ],
              "internalType": "struct Farm.Transaction[]",
              "name": "transactions",
              "type": "tuple[]"
            }
          ],
          "internalType": "struct Farm.Farm",
          "name": "",
          "type": "tuple"
        }
      ],
      "stateMutability": "nonpayable",
      "type": "function"
    },
    {
      "inputs": [],
      "name": "levelUp",
      "outputs": [],
      "stateMutability": "nonpayable",
      "type": "function"
    },
    {
      "inputs": [
        {
          "internalType": "uint256",
          "name": "price",
          "type": "uint256"
        }
      ],
      "name": "getMarketPrice",
      "outputs": [
        {
          "internalType": "uint256",
          "name": "conversion",
          "type": "uint256"
        }
      ],
      "stateMutability": "view",
      "type": "function",
      "constant": true
    },
    {
      "inputs": [
        {
          "components": [
            {
              "internalType": "enum Farm.Action",
              "name": "action",
              "type": "uint8"
            },
            {
              "internalType": "enum Farm.Fruit",
              "name": "fruit",
              "type": "uint8"
            },
            {
              "internalType": "uint256",
              "name": "landIndex",
              "type": "uint256"
            },
            {
              "internalType": "uint256",
              "name": "createdAt",
              "type": "uint256"
            }
          ],
          "internalType": "struct Farm.Transaction[]",
          "name": "_transactions",
          "type": "tuple[]"
        },
        {
          "internalType": "enum Farm.Fruit",
          "name": "_fruit",
          "type": "uint8"
        },
        {
          "internalType": "uint256",
          "name": "landIndex",
          "type": "uint256"
        }
      ],
      "name": "plant",
      "outputs": [
        {
          "components": [
            {
              "components": [
                {
                  "internalType": "enum Farm.Fruit",
                  "name": "fruit",
                  "type": "uint8"
                },
                {
                  "internalType": "uint256",
                  "name": "createdAt",
                  "type": "uint256"
                }
              ],
              "internalType": "struct Farm.Square[]",
              "name": "land",
              "type": "tuple[]"
            },
            {
              "internalType": "uint256",
              "name": "balance",
              "type": "uint256"
            },
            {
              "components": [
                {
                  "internalType": "enum Farm.Action",
                  "name": "action",
                  "type": "uint8"
                },
                {
                  "internalType": "enum Farm.Fruit",
                  "name": "fruit",
                  "type": "uint8"
                },
                {
                  "internalType": "uint256",
                  "name": "landIndex",
                  "type": "uint256"
                },
                {
                  "internalType": "uint256",
                  "name": "createdAt",
                  "type": "uint256"
                }
              ],
              "internalType": "struct Farm.Transaction[]",
              "name": "transactions",
              "type": "tuple[]"
            }
          ],
          "internalType": "struct Farm.Farm",
          "name": "farm",
          "type": "tuple"
        }
      ],
      "stateMutability": "view",
      "type": "function",
      "constant": true
    },
    {
      "inputs": [
        {
          "components": [
            {
              "internalType": "enum Farm.Action",
              "name": "action",
              "type": "uint8"
            },
            {
              "internalType": "enum Farm.Fruit",
              "name": "fruit",
              "type": "uint8"
            },
            {
              "internalType": "uint256",
              "name": "landIndex",
              "type": "uint256"
            },
            {
              "internalType": "uint256",
              "name": "createdAt",
              "type": "uint256"
            }
          ],
          "internalType": "struct Farm.Transaction[]",
          "name": "_transactions",
          "type": "tuple[]"
        },
        {
          "internalType": "enum Farm.Fruit",
          "name": "_fruit",
          "type": "uint8"
        },
        {
          "internalType": "uint256",
          "name": "landIndex",
          "type": "uint256"
        }
      ],
      "name": "harvest",
      "outputs": [
        {
          "components": [
            {
              "components": [
                {
                  "internalType": "enum Farm.Fruit",
                  "name": "fruit",
                  "type": "uint8"
                },
                {
                  "internalType": "uint256",
                  "name": "createdAt",
                  "type": "uint256"
                }
              ],
              "internalType": "struct Farm.Square[]",
              "name": "land",
              "type": "tuple[]"
            },
            {
              "internalType": "uint256",
              "name": "balance",
              "type": "uint256"
            },
            {
              "components": [
                {
                  "internalType": "enum Farm.Action",
                  "name": "action",
                  "type": "uint8"
                },
                {
                  "internalType": "enum Farm.Fruit",
                  "name": "fruit",
                  "type": "uint8"
                },
                {
                  "internalType": "uint256",
                  "name": "landIndex",
                  "type": "uint256"
                },
                {
                  "internalType": "uint256",
                  "name": "createdAt",
                  "type": "uint256"
                }
              ],
              "internalType": "struct Farm.Transaction[]",
              "name": "transactions",
              "type": "tuple[]"
            }
          ],
          "internalType": "struct Farm.Farm",
          "name": "farm",
          "type": "tuple"
        }
      ],
      "stateMutability": "view",
      "type": "function",
      "constant": true
    }
  ],
  "bytecode": "0x60806040526107086003553480156200001757600080fd5b506040516200353e3803806200353e83398181016040528101906200003d91906200009b565b806000806101000a81548173ffffffffffffffffffffffffffffffffffffffff021916908373ffffffffffffffffffffffffffffffffffffffff1602179055505062000129565b60008151905062000095816200010f565b92915050565b600060208284031215620000ae57600080fd5b6000620000be8482850162000084565b91505092915050565b6000620000d482620000ef565b9050919050565b6000620000e882620000c7565b9050919050565b600073ffffffffffffffffffffffffffffffffffffffff82169050919050565b6200011a81620000db565b81146200012657600080fd5b50565b61340580620001396000396000f3fe608060405234801561001057600080fd5b50600436106100885760003560e01c80638928378e1161005b5780638928378e146100dd578063aa5f6e0f1461010d578063d53f9c9b1461013d578063f1bbda041461016d57610088565b80631d5ec3cb1461008d578063285532dd146100975780634ea1ecf9146100b55780635690314c146100bf575b600080fd5b61009561019d565b005b61009f610521565b6040516100ac91906130ed565b60405180910390f35b6100bd610568565b005b6100c7610a9d565b6040516100d49190612f27565b60405180910390f35b6100f760048036038101906100f291906127da565b610b70565b60405161010491906130ed565b60405180910390f35b61012760048036038101906101229190612773565b610b8f565b60405161013491906130cb565b60405180910390f35b61015760048036038101906101529190612732565b610c44565b60405161016491906130cb565b60405180910390f35b61018760048036038101906101829190612773565b61101b565b60405161019491906130cb565b60405180910390f35b6000600260003373ffffffffffffffffffffffffffffffffffffffff1673ffffffffffffffffffffffffffffffffffffffff16815260200190815260200160002054905060008114610224576040517f08c379a000000000000000000000000000000000000000000000000000000000815260040161021b90612f6b565b60405180910390fd5b6000600160003373ffffffffffffffffffffffffffffffffffffffff1673ffffffffffffffffffffffffffffffffffffffff1681526020019081526020016000209050600060405180604001604052806000600781111561028157fe5b815260200142815250905060006040518060400160405280600160078111156102a657fe5b81526020014281525090508282908060018154018082558091505060019003906000526020600020906002020160009091909190915060008201518160000160006101000a81548160ff0219169083600781111561030057fe5b02179055506020820151816001015550508281908060018154018082558091505060019003906000526020600020906002020160009091909190915060008201518160000160006101000a81548160ff0219169083600781111561036057fe5b02179055506020820151816001015550508281908060018154018082558091505060019003906000526020600020906002020160009091909190915060008201518160000160006101000a81548160ff021916908360078111156103c057fe5b02179055506020820151816001015550508281908060018154018082558091505060019003906000526020600020906002020160009091909190915060008201518160000160006101000a81548160ff0219169083600781111561042057fe5b02179055506020820151816001015550508282908060018154018082558091505060019003906000526020600020906002020160009091909190915060008201518160000160006101000a81548160ff0219169083600781111561048057fe5b0217905550602082015181600101555050606042600260003373ffffffffffffffffffffffffffffffffffffffff1673ffffffffffffffffffffffffffffffffffffffff168152602001908152602001600020819055503373ffffffffffffffffffffffffffffffffffffffff167f46963f16723a084f2199eb74021bd97647aa6c8960612a9a031ce509d40d4ca760405160405180910390a25050505050565b6000600260003373ffffffffffffffffffffffffffffffffffffffff1673ffffffffffffffffffffffffffffffffffffffff16815260200190815260200160002054905090565b6000610572610521565b116105b2576040517f08c379a00000000000000000000000000000000000000000000000000000000081526004016105a99061304b565b60405180910390fd5b6011600160003373ffffffffffffffffffffffffffffffffffffffff1673ffffffffffffffffffffffffffffffffffffffff168152602001908152602001600020805490501115610638576040517f08c379a000000000000000000000000000000000000000000000000000000000815260040161062f9061302b565b60405180910390fd5b6000600160003373ffffffffffffffffffffffffffffffffffffffff1673ffffffffffffffffffffffffffffffffffffffff168152602001908152602001600020905060006106856110d1565b9050600061069683805490506112ae565b905060006106a382610b70565b905060006106b0826113aa565b905060006106f36040518060400160405280601e81526020017f4e6f7420656e6f756768206d6f6e657920746f206c6576656c2075703a200000815250836114fa565b905060008060009054906101000a900473ffffffffffffffffffffffffffffffffffffffff1673ffffffffffffffffffffffffffffffffffffffff166370a08231336040518263ffffffff1660e01b81526004016107519190612eba565b60206040518083038186803b15801561076957600080fd5b505afa15801561077d573d6000803e3d6000fd5b505050506040513d601f19601f820116820180604052508101906107a19190612803565b90508381101582906107e9576040517f08c379a00000000000000000000000000000000000000000000000000000000081526004016107e09190612f49565b60405180910390fd5b50600060405180604001604052806000600781111561080457fe5b815260200142815250905060005b6003811015610888578882908060018154018082558091505060019003906000526020600020906002020160009091909190915060008201518160000160006101000a81548160ff0219169083600781111561086a57fe5b02179055506020820151816001015550508080600101915050610812565b5060008054906101000a900473ffffffffffffffffffffffffffffffffffffffff1673ffffffffffffffffffffffffffffffffffffffff16639dc29fac33876040518363ffffffff1660e01b81526004016108e4929190612ed5565b600060405180830381600087803b1580156108fe57600080fd5b505af1158015610912573d6000803e3d6000fd5b5050505060006005868161092257fe5b04905060008054906101000a900473ffffffffffffffffffffffffffffffffffffffff1673ffffffffffffffffffffffffffffffffffffffff166340c10f1960008054906101000a900473ffffffffffffffffffffffffffffffffffffffff1673ffffffffffffffffffffffffffffffffffffffff1663893d20e86040518163ffffffff1660e01b815260040160206040518083038186803b1580156109c757600080fd5b505afa1580156109db573d6000803e3d6000fd5b505050506040513d601f19601f820116820180604052508101906109ff9190612709565b836040518363ffffffff1660e01b8152600401610a1d929190612efe565b600060405180830381600087803b158015610a3757600080fd5b505af1158015610a4b573d6000803e3d6000fd5b505050503373ffffffffffffffffffffffffffffffffffffffff167fbe35fe23c13a419d565edccb8c8bdedc160c5b9a82873e431b545080d6f3c68860405160405180910390a2505050505050505050565b6060600160003373ffffffffffffffffffffffffffffffffffffffff1673ffffffffffffffffffffffffffffffffffffffff168152602001908152602001600020805480602002602001604051908101604052809291908181526020016000905b82821015610b6757838290600052602060002090600202016040518060400160405290816000820160009054906101000a900460ff166007811115610b3f57fe5b6007811115610b4a57fe5b815260200160018201548152505081526020019060010190610afe565b50505050905090565b600080610b7b6110d1565b9050808381610b8657fe5b04915050919050565b610b97612522565b6000610ba1610521565b11610be1576040517f08c379a0000000000000000000000000000000000000000000000000000000008152600401610bd89061304b565b60405180910390fd5b60006040518060800160405280600180811115610bfa57fe5b8152602001856007811115610c0b57fe5b81526020018481526020014281525090506000610c288683611526565b90506000610c35826115e8565b90508093505050509392505050565b610c4c612522565b6000610c56610521565b11610c96576040517f08c379a0000000000000000000000000000000000000000000000000000000008152600401610c8d9061304b565b60405180910390fd5b60008060009054906101000a900473ffffffffffffffffffffffffffffffffffffffff1673ffffffffffffffffffffffffffffffffffffffff166370a08231336040518263ffffffff1660e01b8152600401610cf29190612eba565b60206040518083038186803b158015610d0a57600080fd5b505afa158015610d1e573d6000803e3d6000fd5b505050506040513d601f19601f82011682018060405250810190610d429190612803565b90506000610d4f846115e8565b90506000600160003373ffffffffffffffffffffffffffffffffffffffff1673ffffffffffffffffffffffffffffffffffffffff168152602001908152602001600020905060005b826000015151811015610e175782600001518181518110610db457fe5b6020026020010151828281548110610dc857fe5b906000526020600020906002020160008201518160000160006101000a81548160ff02191690836007811115610dfa57fe5b021790555060208201518160010155905050600181019050610d97565b508282602001511115610ed2576000610e3d848460200151611c1590919063ffffffff16565b905060008054906101000a900473ffffffffffffffffffffffffffffffffffffffff1673ffffffffffffffffffffffffffffffffffffffff166340c10f1933836040518363ffffffff1660e01b8152600401610e9a929190612ed5565b600060405180830381600087803b158015610eb457600080fd5b505af1158015610ec8573d6000803e3d6000fd5b5050505050610f89565b8282602001511015610f88576000610ef7836020015185611c1590919063ffffffff16565b905060008054906101000a900473ffffffffffffffffffffffffffffffffffffffff1673ffffffffffffffffffffffffffffffffffffffff16639dc29fac33836040518363ffffffff1660e01b8152600401610f54929190612ed5565b600060405180830381600087803b158015610f6e57600080fd5b505af1158015610f82573d6000803e3d6000fd5b50505050505b5b42600260003373ffffffffffffffffffffffffffffffffffffffff1673ffffffffffffffffffffffffffffffffffffffff168152602001908152602001600020819055503373ffffffffffffffffffffffffffffffffffffffff167fbe35fe23c13a419d565edccb8c8bdedc160c5b9a82873e431b545080d6f3c68860405160405180910390a2819350505050919050565b611023612522565b600061102d610521565b1161106d576040517f08c379a00000000000000000000000000000000000000000000000000000000081526004016110649061304b565b60405180910390fd5b600060405180608001604052806000600181111561108757fe5b815260200185600781111561109857fe5b815260200184815260200142815250905060006110b58683611526565b905060006110c2826115e8565b90508093505050509392505050565b60008060008054906101000a900473ffffffffffffffffffffffffffffffffffffffff1673ffffffffffffffffffffffffffffffffffffffff1663313ce5676040518163ffffffff1660e01b815260040160206040518083038186803b15801561113a57600080fd5b505afa15801561114e573d6000803e3d6000fd5b505050506040513d601f19601f82011682018060405250810190611172919061282c565b60ff16905060008060009054906101000a900473ffffffffffffffffffffffffffffffffffffffff1673ffffffffffffffffffffffffffffffffffffffff166318160ddd6040518163ffffffff1660e01b815260040160206040518083038186803b1580156111e057600080fd5b505afa1580156111f4573d6000803e3d6000fd5b505050506040513d601f19601f820116820180604052508101906112189190612803565b905081600a0a620f424002811015611235576001925050506112ab565b81600a0a6127100281101561124f57600a925050506112ab565b81600a0a620186a00281101561126a576064925050506112ab565b81600a0a620186a002811015611286576103e8925050506112ab565b81600a0a620186a0028110156112a257612710925050506112ab565b620186a0925050505b90565b60008060008054906101000a900473ffffffffffffffffffffffffffffffffffffffff1673ffffffffffffffffffffffffffffffffffffffff1663313ce5676040518163ffffffff1660e01b815260040160206040518083038186803b15801561131757600080fd5b505afa15801561132b573d6000803e3d6000fd5b505050506040513d601f19601f8201168201806040525081019061134f919061282c565b60ff1690506005831161136b5780600a0a6001029150506113a5565b600883116113825780600a0a6005029150506113a5565b600b83116113995780600a0a6032029150506113a5565b80600a0a6101f4029150505b919050565b606060008214156113f2576040518060400160405280600181526020017f300000000000000000000000000000000000000000000000000000000000000081525090506114f5565b600082905060005b6000821461141c578080600101915050600a828161141457fe5b0491506113fa565b60008167ffffffffffffffff8111801561143557600080fd5b506040519080825280601f01601f1916602001820160405280156114685781602001600182028036833780820191505090505b50905060008290505b600086146114ed576001810390506000600a80888161148c57fe5b04028703603001905060008160f81b9050808484815181106114aa57fe5b60200101907effffffffffffffffffffffffffffffffffffffffffffffffffffffffffffff1916908160001a905350600a88816114e357fe5b0497505050611471565b819450505050505b919050565b6060828260405160200161150f929190612e96565b604051602081830303815290604052905092915050565b60606000600184510167ffffffffffffffff8111801561154557600080fd5b5060405190808252806020026020018201604052801561157f57816020015b61156c612543565b8152602001906001900390816115645790505b50905060005b84518110156115c45784818151811061159a57fe5b60200260200101518282815181106115ae57fe5b6020026020010181905250600181019050611585565b5082818551815181106115d357fe5b60200260200101819052508091505092915050565b6115f0612522565b6000600160003373ffffffffffffffffffffffffffffffffffffffff1673ffffffffffffffffffffffffffffffffffffffff168152602001908152602001600020805480602002602001604051908101604052809291908181526020016000905b828210156116ba57838290600052602060002090600202016040518060400160405290816000820160009054906101000a900460ff16600781111561169257fe5b600781111561169d57fe5b815260200160018201548152505081526020019060010190611651565b50505050905060008060009054906101000a900473ffffffffffffffffffffffffffffffffffffffff1673ffffffffffffffffffffffffffffffffffffffff166370a08231336040518263ffffffff1660e01b815260040161171c9190612eba565b60206040518083038186803b15801561173457600080fd5b505afa158015611748573d6000803e3d6000fd5b505050506040513d601f19601f8201168201806040525081019061176c9190612803565b905060006117786110d1565b905060005b8551811015611bef57600086828151811061179457fe5b6020026020010151905060006003544203905080826060015110156117ee576040517f08c379a00000000000000000000000000000000000000000000000000000000081526004016117e5906130ab565b60405180910390fd5b6117f6610521565b8260600151101561183c576040517f08c379a000000000000000000000000000000000000000000000000000000000815260040161183390612fcb565b60405180910390fd5b4282606001511115611883576040517f08c379a000000000000000000000000000000000000000000000000000000000815260040161187a9061300b565b60405180910390fd5b60008311156118ee5787600184038151811061189b57fe5b602002602001015160600151826060015110156118ed576040517f08c379a00000000000000000000000000000000000000000000000000000000081526004016118e490612fab565b60405180910390fd5b5b6118fb8260200151611c5f565b8651101561193e576040517f08c379a00000000000000000000000000000000000000000000000000000000081526004016119359061306b565b60405180910390fd5b6000600181111561194b57fe5b8260000151600181111561195b57fe5b1415611a275760006119708360200151611db5565b9050600061197d82610b70565b9050808710156119c2576040517f08c379a00000000000000000000000000000000000000000000000000000000081526004016119b990612feb565b60405180910390fd5b6119d58188611c1590919063ffffffff16565b965060006040518060400160405280866020015160078111156119f457fe5b8152602001866060015181525090508089866040015181518110611a1457fe5b6020026020010181905250505050611be0565b600180811115611a3357fe5b82600001516001811115611a4357fe5b1415611bdf57600086836040015181518110611a5b57fe5b6020026020010151905082602001516007811115611a7557fe5b81600001516007811115611a8557fe5b14611ac5576040517f08c379a0000000000000000000000000000000000000000000000000000000008152600401611abc90612f8b565b60405180910390fd5b6000816020015184606001510390506000611ae3856020015161200d565b90506000611af28383036113aa565b90506000611b186040518060600160405280602481526020016133ac60249139836114fa565b9050828410158190611b60576040517f08c379a0000000000000000000000000000000000000000000000000000000008152600401611b579190612f49565b60405180910390fd5b506000604051806040016040528060006007811115611b7b57fe5b815260200160008152509050808c896040015181518110611b9857fe5b60200260200101819052506000611bb28960200151612174565b90506000611bbf82610b70565b9050611bd4818e6123da90919063ffffffff16565b9c5050505050505050505b5b5050808060010191505061177d565b506040518060600160405280848152602001838152602001868152509350505050919050565b6000611c5783836040518060400160405280601e81526020017f536166654d6174683a207375627472616374696f6e206f766572666c6f770000815250612462565b905092915050565b600060016007811115611c6e57fe5b826007811115611c7a57fe5b1480611c9c575060026007811115611c8e57fe5b826007811115611c9a57fe5b145b15611caa5760059050611db0565b60036007811115611cb757fe5b826007811115611cc357fe5b1480611ce5575060046007811115611cd757fe5b826007811115611ce357fe5b145b15611cf35760089050611db0565b60056007811115611d0057fe5b826007811115611d0c57fe5b1415611d1b57600b9050611db0565b60066007811115611d2857fe5b826007811115611d3457fe5b1415611d4357600e9050611db0565b600780811115611d4f57fe5b826007811115611d5b57fe5b1415611d6a5760119050611db0565b6000611dab576040517f08c379a0000000000000000000000000000000000000000000000000000000008152600401611da29061308b565b60405180910390fd5b606390505b919050565b60008060008054906101000a900473ffffffffffffffffffffffffffffffffffffffff1673ffffffffffffffffffffffffffffffffffffffff1663313ce5676040518163ffffffff1660e01b815260040160206040518083038186803b158015611e1e57600080fd5b505afa158015611e32573d6000803e3d6000fd5b505050506040513d601f19601f82011682018060405250810190611e56919061282c565b60ff16905060016007811115611e6857fe5b836007811115611e7457fe5b1415611e9357606481600a0a60010281611e8a57fe5b04915050612008565b60026007811115611ea057fe5b836007811115611eac57fe5b1415611ecb57606481600a0a60060281611ec257fe5b04915050612008565b60036007811115611ed857fe5b836007811115611ee457fe5b1415611f0357606481600a0a60140281611efa57fe5b04915050612008565b60046007811115611f1057fe5b836007811115611f1c57fe5b1415611f315780600a0a600102915050612008565b60056007811115611f3e57fe5b836007811115611f4a57fe5b1415611f5f5780600a0a600202915050612008565b60066007811115611f6c57fe5b836007811115611f7857fe5b1415611f8d5780600a0a600a02915050612008565b600780811115611f9957fe5b836007811115611fa557fe5b1415611fba5780600a0a60c802915050612008565b6000611ffb576040517f08c379a0000000000000000000000000000000000000000000000000000000008152600401611ff29061308b565b60405180910390fd5b80600a0a620186a0029150505b919050565b60006001600781111561201c57fe5b82600781111561202857fe5b1415612037576001905061216f565b6002600781111561204457fe5b82600781111561205057fe5b141561205f576003905061216f565b6003600781111561206c57fe5b82600781111561207857fe5b1415612087576008905061216f565b6004600781111561209457fe5b8260078111156120a057fe5b14156120af576018905061216f565b600560078111156120bc57fe5b8260078111156120c857fe5b14156120d7576048905061216f565b600660078111156120e457fe5b8260078111156120f057fe5b14156120ff5760a8905061216f565b60078081111561210b57fe5b82600781111561211757fe5b1415612127576102a0905061216f565b6000612168576040517f08c379a000000000000000000000000000000000000000000000000000000000815260040161215f9061308b565b60405180910390fd5b6298967f90505b919050565b60008060008054906101000a900473ffffffffffffffffffffffffffffffffffffffff1673ffffffffffffffffffffffffffffffffffffffff1663313ce5676040518163ffffffff1660e01b815260040160206040518083038186803b1580156121dd57600080fd5b505afa1580156121f1573d6000803e3d6000fd5b505050506040513d601f19601f82011682018060405250810190612215919061282c565b60ff1690506001600781111561222757fe5b83600781111561223357fe5b141561225257606481600a0a6002028161224957fe5b049150506123d5565b6002600781111561225f57fe5b83600781111561226b57fe5b141561228a57606481600a0a600c028161228157fe5b049150506123d5565b6003600781111561229757fe5b8360078111156122a357fe5b14156122c257606481600a0a603802816122b957fe5b049150506123d5565b600460078111156122cf57fe5b8360078111156122db57fe5b14156122fa57606481600a0a60e602816122f157fe5b049150506123d5565b6005600781111561230757fe5b83600781111561231357fe5b141561233357606481600a0a610280028161232a57fe5b049150506123d5565b6006600781111561234057fe5b83600781111561234c57fe5b14156123615780600a0a6014029150506123d5565b60078081111561236d57fe5b83600781111561237957fe5b141561238e5780600a0a60fa029150506123d5565b60006123cf576040517f08c379a00000000000000000000000000000000000000000000000000000000081526004016123c69061308b565b60405180910390fd5b60009150505b919050565b600080828401905083811015612458576040517f08c379a000000000000000000000000000000000000000000000000000000000815260040180806020018281038252601b8152602001807f536166654d6174683a206164646974696f6e206f766572666c6f77000000000081525060200191505060405180910390fd5b8091505092915050565b600083831115829061250f576040517f08c379a00000000000000000000000000000000000000000000000000000000081526004018080602001828103825283818151815260200191508051906020019080838360005b838110156124d45780820151818401526020810190506124b9565b50505050905090810190601f1680156125015780820380516001836020036101000a031916815260200191505b509250505060405180910390fd5b5060008385039050809150509392505050565b60405180606001604052806060815260200160008152602001606081525090565b60405180608001604052806000600181111561255b57fe5b81526020016000600781111561256d57fe5b815260200160008152602001600081525090565b600061259461258f84613139565b613108565b905080838252602082019050828560808602820111156125b357600080fd5b60005b858110156125e357816125c98882612656565b8452602084019350608083019250506001810190506125b6565b5050509392505050565b6000815190506125fc81613346565b92915050565b600082601f83011261261357600080fd5b8135612623848260208601612581565b91505092915050565b60008135905061263b8161335d565b92915050565b6000813590506126508161336d565b92915050565b60006080828403121561266857600080fd5b6126726080613108565b905060006126828482850161262c565b600083015250602061269684828501612641565b60208301525060406126aa848285016126ca565b60408301525060606126be848285016126ca565b60608301525092915050565b6000813590506126d98161337d565b92915050565b6000815190506126ee8161337d565b92915050565b60008151905061270381613394565b92915050565b60006020828403121561271b57600080fd5b6000612729848285016125ed565b91505092915050565b60006020828403121561274457600080fd5b600082013567ffffffffffffffff81111561275e57600080fd5b61276a84828501612602565b91505092915050565b60008060006060848603121561278857600080fd5b600084013567ffffffffffffffff8111156127a257600080fd5b6127ae86828701612602565b93505060206127bf86828701612641565b92505060406127d0868287016126ca565b9150509250925092565b6000602082840312156127ec57600080fd5b60006127fa848285016126ca565b91505092915050565b60006020828403121561281557600080fd5b6000612823848285016126df565b91505092915050565b60006020828403121561283e57600080fd5b600061284c848285016126f4565b91505092915050565b60006128618383612df4565b60408301905092915050565b60006128798383612e23565b60808301905092915050565b61288e8161327e565b82525050565b61289d8161320f565b82525050565b60006128ae82613185565b6128b881856131c0565b93506128c383613165565b8060005b838110156128f45781516128db8882612855565b97506128e6836131a6565b9250506001810190506128c7565b5085935050505092915050565b600061290c82613185565b61291681856131d1565b935061292183613165565b8060005b838110156129525781516129398882612855565b9750612944836131a6565b925050600181019050612925565b5085935050505092915050565b600061296a82613190565b61297481856131e2565b935061297f83613175565b8060005b838110156129b0578151612997888261286d565b97506129a2836131b3565b925050600181019050612983565b5085935050505092915050565b6129c681613290565b82525050565b6129d5816132a2565b82525050565b60006129e68261319b565b6129f081856131f3565b9350612a008185602086016132d8565b612a098161330d565b840191505092915050565b6000612a1f8261319b565b612a298185613204565b9350612a398185602086016132d8565b80840191505092915050565b6000612a526013836131f3565b91507f4661726d20616c726561647920657869737473000000000000000000000000006000830152602082019050919050565b6000612a92601d836131f3565b91507f4e6f206672756974206578697374732061742074686973206669656c640000006000830152602082019050919050565b6000612ad2601d836131f3565b91507f5472616e73616374696f6e7320617265206e6f7420696e206f726465720000006000830152602082019050919050565b6000612b126029836131f3565b91507f596f752063616e206e6f7420706572666f726d20616e20616374696f6e20696e60008301527f20746865207061737400000000000000000000000000000000000000000000006020830152604082019050919050565b6000612b78601c836131f3565b91507f4e6f7420656e6f756768206d6f6e657920746f206275792073656564000000006000830152602082019050919050565b6000612bb8602b836131f3565b91507f596f752063616e206e6f7420706572666f726d20616e20616374696f6e20696e60008301527f20746865206675747572650000000000000000000000000000000000000000006020830152604082019050919050565b6000612c1e601c836131f3565b91507f596f752061726520617420746865206d6178696d756d206c6576656c000000006000830152602082019050919050565b6000612c5e6013836131f3565b91507f4661726d20646f6573206e6f74206578697374000000000000000000000000006000830152602082019050919050565b6000612c9e603b836131f3565b91507f596f7572206661726d206973206e6f7420726561647920746f20706c616e742060008301527f746869732066727569742e204c6576656c2075702066697273742e00000000006020830152604082019050919050565b6000612d04600d836131f3565b91507f496e76616c6964206672756974000000000000000000000000000000000000006000830152602082019050919050565b6000612d446027836131f3565b91507f5472616e73616374696f6e732063616e206f6e6c79206265203330206d696e7560008301527f746573206f6c64000000000000000000000000000000000000000000000000006020830152604082019050919050565b60006060830160008301518482036000860152612dba82826128a3565b9150506020830151612dcf6020860182612e78565b5060408301518482036040860152612de7828261295f565b9150508091505092915050565b604082016000820151612e0a60008501826129cc565b506020820151612e1d6020850182612e78565b50505050565b608082016000820151612e3960008501826129bd565b506020820151612e4c60208501826129cc565b506040820151612e5f6040850182612e78565b506060820151612e726060850182612e78565b50505050565b612e8181613267565b82525050565b612e9081613267565b82525050565b6000612ea28285612a14565b9150612eae8284612a14565b91508190509392505050565b6000602082019050612ecf6000830184612885565b92915050565b6000604082019050612eea6000830185612885565b612ef76020830184612e87565b9392505050565b6000604082019050612f136000830185612894565b612f206020830184612e87565b9392505050565b60006020820190508181036000830152612f418184612901565b905092915050565b60006020820190508181036000830152612f6381846129db565b905092915050565b60006020820190508181036000830152612f8481612a45565b9050919050565b60006020820190508181036000830152612fa481612a85565b9050919050565b60006020820190508181036000830152612fc481612ac5565b9050919050565b60006020820190508181036000830152612fe481612b05565b9050919050565b6000602082019050818103600083015261300481612b6b565b9050919050565b6000602082019050818103600083015261302481612bab565b9050919050565b6000602082019050818103600083015261304481612c11565b9050919050565b6000602082019050818103600083015261306481612c51565b9050919050565b6000602082019050818103600083015261308481612c91565b9050919050565b600060208201905081810360008301526130a481612cf7565b9050919050565b600060208201905081810360008301526130c481612d37565b9050919050565b600060208201905081810360008301526130e58184612d9d565b905092915050565b60006020820190506131026000830184612e87565b92915050565b6000604051905081810181811067ffffffffffffffff8211171561312f5761312e61330b565b5b8060405250919050565b600067ffffffffffffffff8211156131545761315361330b565b5b602082029050602081019050919050565b6000819050602082019050919050565b6000819050602082019050919050565b600081519050919050565b600081519050919050565b600081519050919050565b6000602082019050919050565b6000602082019050919050565b600082825260208201905092915050565b600082825260208201905092915050565b600082825260208201905092915050565b600082825260208201905092915050565b600081905092915050565b600061321a82613247565b9050919050565b600081905061322f8261331e565b919050565b600081905061324282613332565b919050565b600073ffffffffffffffffffffffffffffffffffffffff82169050919050565b6000819050919050565b600060ff82169050919050565b6000613289826132b4565b9050919050565b600061329b82613221565b9050919050565b60006132ad82613234565b9050919050565b60006132bf826132c6565b9050919050565b60006132d182613247565b9050919050565b60005b838110156132f65780820151818401526020810190506132db565b83811115613305576000848401525b50505050565bfe5b6000601f19601f8301169050919050565b6002811061332f5761332e61330b565b5b50565b600881106133435761334261330b565b5b50565b61334f8161320f565b811461335a57600080fd5b50565b6002811061336a57600080fd5b50565b6008811061337a57600080fd5b50565b61338681613267565b811461339157600080fd5b50565b61339d81613271565b81146133a857600080fd5b5056fe546865206672756974206973206e6f7420726970652c20706c6561736520776169743a20a26469706673582212200cd2a0a148d318803a2365a90d4b72b6cf913cf5fd995ea8d597a48d59a9fcfc64736f6c63430007060033",
  "immutableReferences": {},
  "source": "pragma solidity >=0.6.0 <0.8.0;\r\npragma experimental ABIEncoderV2;\r\n\r\nimport \"@openzeppelin/contracts/math/Math.sol\";\r\nimport \"./Token.sol\";\r\n\r\ncontract Farm {\r\n    using SafeMath for uint256;\r\n\r\n    Token private token;\r\n\r\n    struct Square {\r\n        Fruit fruit;\r\n        uint createdAt;\r\n    }\r\n\r\n    mapping(address => Square[]) fields;\r\n    mapping(address => uint) syncedAt;\r\n\r\n    constructor(Token _token) public {\r\n        token = _token;\r\n    }\r\n\r\n    event FarmCreated(address indexed _address);\r\n    event FarmSynced(address indexed _address);\r\n\r\n    function createFarm() public {\r\n        uint synced = syncedAt[msg.sender];\r\n        require(synced == 0, \"Farm already exists\");\r\n\r\n        Square[] storage land = fields[msg.sender];\r\n        Square memory empty = Square({\r\n            fruit: Fruit.None,\r\n            createdAt: block.timestamp\r\n        });\r\n        Square memory apple = Square({\r\n            fruit: Fruit.Apple,\r\n            createdAt: block.timestamp\r\n        });\r\n\r\n        // Each farmer starts with 5 fields & 3 apples\r\n        land.push(empty);\r\n        land.push(apple);\r\n        land.push(apple);\r\n        land.push(apple);\r\n        land.push(empty);\r\n\r\n        Transaction[] memory transactions;\r\n\r\n        syncedAt[msg.sender] = block.timestamp;\r\n\r\n        //Emit an event\r\n        emit FarmCreated(msg.sender);\r\n    }\r\n    \r\n    function lastSyncedAt() public view returns(uint) {\r\n        return syncedAt[msg.sender];\r\n    }\r\n\r\n\r\n    function getLand() public view returns (Square[] memory) {\r\n        return fields[msg.sender];\r\n    }\r\n\r\n    enum Action { Plant, Harvest }\r\n    enum Fruit { None, Apple, Avocado, Banana, Coconut, Pineapple, Money, Diamond }\r\n\r\n    struct Transaction { \r\n        Action action;\r\n        Fruit fruit;\r\n        uint landIndex;\r\n        uint createdAt;\r\n    }\r\n\r\n    struct Farm {\r\n        Square[] land;\r\n        uint balance;\r\n        Transaction[] transactions;\r\n    }\r\n\r\n    function getHarvestHours(Fruit _fruit) private view returns (uint) {\r\n        if (_fruit == Fruit.Apple) {\r\n            return 1;\r\n        } else if (_fruit == Fruit.Avocado) {\r\n            return 3;\r\n        } else if (_fruit == Fruit.Banana) {\r\n            return 8;\r\n        } else if (_fruit == Fruit.Coconut) {\r\n            // 1 Day\r\n            return 24;\r\n        } else if (_fruit == Fruit.Pineapple) {\r\n            // 3 days\r\n            return 72;\r\n        } else if (_fruit == Fruit.Money) {\r\n            // 1 week\r\n            return 168;\r\n        } else if (_fruit == Fruit.Diamond) {\r\n            // 4 weeks\r\n            return 672;\r\n        }\r\n\r\n        require(false, \"Invalid fruit\");\r\n        return 9999999;\r\n    }\r\n\r\n    function getSeedPrice(Fruit _fruit) private view returns (uint price) {\r\n        uint decimals = token.decimals();\r\n\r\n        if (_fruit == Fruit.Apple) {\r\n            //$0.01\r\n            return 1 * 10**decimals / 100;\r\n        } else if (_fruit == Fruit.Avocado) {\r\n            // $0.06\r\n            return 6 * 10**decimals / 100;\r\n        } else if (_fruit == Fruit.Banana) {\r\n            // $0.20\r\n            return 20 * 10**decimals / 100;\r\n        } else if (_fruit == Fruit.Coconut) {\r\n            // $1\r\n            return 1 * 10**decimals;\r\n        } else if (_fruit == Fruit.Pineapple) {\r\n            // $2\r\n            return 2 * 10**decimals;\r\n        } else if (_fruit == Fruit.Money) {\r\n            // $10\r\n            return 10 * 10**decimals;\r\n        } else if (_fruit == Fruit.Diamond) {\r\n            // $200\r\n            return 200 * 10**decimals;\r\n        }\r\n\r\n        require(false, \"Invalid fruit\");\r\n\r\n        return 100000 * 10**decimals;\r\n    }\r\n\r\n    function getFruitPrice(Fruit _fruit) private view returns (uint price) {\r\n        uint decimals = token.decimals();\r\n\r\n        if (_fruit == Fruit.Apple) {\r\n            // $0.02\r\n            return 2 * 10**decimals / 100;\r\n        } else if (_fruit == Fruit.Avocado) {\r\n            // $0.12\r\n            return 12 * 10**decimals / 100;\r\n        } else if (_fruit == Fruit.Banana) {\r\n            // $0.56\r\n            return 56 * 10**decimals / 100;\r\n        } else if (_fruit == Fruit.Coconut) {\r\n            // $2.30\r\n            return 230 * 10**decimals / 100;\r\n        } else if (_fruit == Fruit.Pineapple) {\r\n            // $6.40\r\n            return 640 * 10**decimals / 100;\r\n        } else if (_fruit == Fruit.Money) {\r\n            // $20\r\n            return 20 * 10**decimals;\r\n        } else if (_fruit == Fruit.Diamond) {\r\n            // $250\r\n            return 250 * 10**decimals;\r\n        }\r\n\r\n        require(false, \"Invalid fruit\");\r\n\r\n        return 0;\r\n    }\r\n    \r\n    function requiredLandSize(Fruit _fruit) private view returns (uint size) {\r\n        if (_fruit == Fruit.Apple || _fruit == Fruit.Avocado) {\r\n            return 5;\r\n        } else if (_fruit == Fruit.Banana || _fruit == Fruit.Coconut) {\r\n            return 8;\r\n        } else if (_fruit == Fruit.Pineapple) {\r\n            return 11;\r\n        } else if (_fruit == Fruit.Money) {\r\n            return 14;\r\n        } else if (_fruit == Fruit.Diamond) {\r\n            return 17;\r\n        }\r\n\r\n        require(false, \"Invalid fruit\");\r\n\r\n        return 99;\r\n    }\r\n    \r\n       \r\n    function getLandPrice(uint landSize) private view returns (uint price) {\r\n        uint decimals = token.decimals();\r\n        if (landSize <= 5) {\r\n            // $1 - 10 hours of planting avocados on 5 fields\r\n            return 1 * 10**decimals;\r\n        } else if (landSize <= 8) {\r\n            // $25 - 6 days planting coconuts on 8 fields\r\n            return 5 * 10**decimals;\r\n        } else if (landSize <= 11) {\r\n            // $50 - 4 weeks planting pineapples on 11 fields\r\n            return 50 * 10**decimals;\r\n        }\r\n        \r\n        // $8400 - 3 months of planting Money trees on 14 fields\r\n        return 500 * 10**decimals;\r\n    }\r\n\r\n\r\n    function concatenate(\r\n        string memory a,\r\n        string memory b)\r\n        internal\r\n        pure\r\n        returns(string memory) {\r\n            return string(abi.encodePacked(a, b));\r\n        }\r\n\r\n    function uint2str(uint _i) internal pure returns (string memory _uintAsString) {\r\n        if (_i == 0) {\r\n            return \"0\";\r\n        }\r\n        uint j = _i;\r\n        uint len;\r\n        while (j != 0) {\r\n            len++;\r\n            j /= 10;\r\n        }\r\n        bytes memory bstr = new bytes(len);\r\n        uint k = len;\r\n        while (_i != 0) {\r\n            k = k-1;\r\n            uint8 temp = (48 + uint8(_i - _i / 10 * 10));\r\n            bytes1 b1 = bytes1(temp);\r\n            bstr[k] = b1;\r\n            _i /= 10;\r\n        }\r\n        return string(bstr);\r\n    }\r\n    \r\n    modifier hasFarm {\r\n        require(lastSyncedAt() > 0, \"Farm does not exist\");\r\n        _;\r\n    }\r\n     \r\n    uint private THIRTY_MINUTES = 30 * 60;\r\n\r\n    function buildFarm(Transaction[] memory _transactions) private view returns (Farm memory currentFarm) {\r\n        Square[] memory land = fields[msg.sender];\r\n        uint balance = token.balanceOf(msg.sender);\r\n        \r\n        // Provide them the conversion at the time of planting\r\n        uint conversion = getMarketRate();\r\n\r\n        for (uint index = 0; index < _transactions.length; index++) {\r\n            Transaction memory transaction = _transactions[index];\r\n\r\n            uint thirtyMinutesAgo = block.timestamp - THIRTY_MINUTES; \r\n            require(transaction.createdAt >= thirtyMinutesAgo, \"Transactions can only be 30 minutes old\");\r\n            \r\n            require(transaction.createdAt >= lastSyncedAt(), \"You can not perform an action in the past\");\r\n            require(transaction.createdAt <= block.timestamp, \"You can not perform an action in the future\");\r\n\r\n            if (index > 0) {\r\n                require(transaction.createdAt >= _transactions[index - 1].createdAt, \"Transactions are not in order\");\r\n            }\r\n\r\n            require(land.length >= requiredLandSize(transaction.fruit), \"Your farm is not ready to plant this fruit. Level up first.\");\r\n\r\n            if (transaction.action == Action.Plant) {\r\n                uint price = getSeedPrice(transaction.fruit);\r\n                uint fmcPrice = getMarketPrice(price);\r\n                require(balance >= fmcPrice, \"Not enough money to buy seed\");\r\n\r\n                balance = balance.sub(fmcPrice);\r\n\r\n                Square memory plantedSeed = Square({\r\n                    fruit: transaction.fruit,\r\n                    createdAt: transaction.createdAt\r\n                });\r\n                land[transaction.landIndex] = plantedSeed;\r\n            } else if (transaction.action == Action.Harvest) {\r\n                Square memory square = land[transaction.landIndex];\r\n                require(square.fruit == transaction.fruit, \"No fruit exists at this field\");\r\n\r\n                // Currently seconds\r\n                uint duration = transaction.createdAt - square.createdAt;\r\n                uint hoursToHarvest = getHarvestHours(transaction.fruit);\r\n                string memory durationString = uint2str(hoursToHarvest - duration);\r\n                string memory message = concatenate(\"The fruit is not ripe, please wait: \", durationString);\r\n                require(duration >= hoursToHarvest, message);\r\n\r\n                // Clear the land\r\n                Square memory emptyLand = Square({\r\n                    fruit: Fruit.None,\r\n                    createdAt: 0\r\n                });\r\n                land[transaction.landIndex] = emptyLand;\r\n\r\n                uint price = getFruitPrice(transaction.fruit);\r\n                uint fmcPrice = getMarketPrice(price);\r\n\r\n                balance = balance.add(fmcPrice);\r\n            }\r\n        }\r\n\r\n        return Farm({\r\n            land: land,\r\n            balance: balance,\r\n            transactions: _transactions\r\n        });\r\n    }\r\n\r\n\r\n    function sync(Transaction[] memory _transactions) public hasFarm returns (Farm memory) {\r\n        uint balance = token.balanceOf(msg.sender);\r\n        Farm memory farm = buildFarm(_transactions);\r\n\r\n        // Update the land\r\n        Square[] storage land = fields[msg.sender];\r\n        for (uint i=0; i < farm.land.length; i += 1) {\r\n            land[i] = farm.land[i];\r\n        }\r\n\r\n\r\n        // Update the balance - mint or burn\r\n        if (farm.balance > balance) {\r\n            uint profit = farm.balance.sub(balance);\r\n            token.mint(msg.sender, profit);\r\n        } else if (farm.balance < balance) {\r\n            uint loss = balance.sub(farm.balance);\r\n            token.burn(msg.sender, loss);\r\n        }\r\n\r\n        syncedAt[msg.sender] = block.timestamp;\r\n\r\n        emit FarmSynced(msg.sender);\r\n        return farm;\r\n    }\r\n\r\n    function levelUp() public hasFarm {\r\n        require(fields[msg.sender].length <= 17, \"You are at the maximum level\");\r\n\r\n        Square[] storage land = fields[msg.sender];\r\n\r\n        uint conversion = getMarketRate();\r\n\r\n        uint price = getLandPrice(land.length);\r\n        uint fmcPrice = getMarketPrice(price);\r\n        string memory priceString = uint2str(fmcPrice);\r\n        string memory message = concatenate(\"Not enough money to level up: \", priceString);\r\n\r\n        uint balance = token.balanceOf(msg.sender);\r\n        require(balance >= fmcPrice, message);\r\n\r\n        Square memory empty = Square({\r\n            fruit: Fruit.None,\r\n            createdAt: block.timestamp\r\n        });\r\n\r\n        // Do not bother rearranging the array - it is already in a strange square - Add 3 fields\r\n        for (uint index = 0; index < 3; index++) {\r\n            land.push(empty);\r\n        }\r\n\r\n        token.burn(msg.sender, fmcPrice);\r\n\r\n        // Land tax - An additional 5% of profit goes to developers & designers of Fruit Market\r\n        uint commission = fmcPrice / 5;\r\n        token.mint(token.getOwner(), commission);\r\n\r\n        emit FarmSynced(msg.sender);\r\n    }\r\n\r\n    // How many FMC do you get per dollar\r\n    function getMarketRate() private view returns (uint conversion) {\r\n        uint decimals = token.decimals();\r\n        uint totalSupply = token.totalSupply();\r\n\r\n        // Less than 100, 000 FMC tokens\r\n        if (totalSupply < (1000000 * 10**decimals)) {\r\n            // 1 Farm Dollar gets you a FMC token\r\n            return 1;\r\n        }\r\n\r\n        // Less than 1, 000, 000 FMC tokens\r\n        if (totalSupply < (10000 * 10**decimals)) {\r\n            return 10;\r\n        }\r\n        // Less than 10, 000, 000 FMC tokens\r\n        if (totalSupply < (100000 * 10**decimals)) {\r\n            return 100;\r\n        }\r\n\r\n        // Less than 100, 000, 000 FMC tokens\r\n        if (totalSupply < (100000 * 10**decimals)) {\r\n            return 1000;\r\n        }\r\n\r\n        // Less than 1, 000, 000, 000 FMC tokens\r\n        if (totalSupply < (100000 * 10**decimals)) {\r\n            return 10000;\r\n        }\r\n\r\n        // 1 Farm Dollar gets you a 0.00001 of FMC\r\n        //return 10**(decimals-5);\r\n        return 100000;\r\n    }\r\n\r\n    function getMarketPrice(uint price) public view returns (uint conversion) {\r\n        uint marketRate = getMarketRate();\r\n\r\n        return price / marketRate;\r\n    }\r\n\r\n\r\n\r\n    // Append a transaction to the list\r\n    function addTransaction(Transaction[] memory _transactions, Transaction memory _transaction) private view returns (Transaction[] memory) {\r\n        Transaction[] memory newTransactions = new Transaction[](_transactions.length + 1);\r\n        for (uint i=0; i < _transactions.length; i += 1) {\r\n            newTransactions[i] = _transactions[i];\r\n        }\r\n\r\n        // Add the new transaction\r\n        newTransactions[_transactions.length] = _transaction;\r\n\r\n        return newTransactions;\r\n    }\r\n\r\n    function plant(Transaction[] memory _transactions, Fruit _fruit, uint landIndex) public hasFarm view returns (Farm memory farm) {\r\n        Transaction memory plantAppleTransaction = Transaction({\r\n            action: Action.Plant,\r\n            fruit: _fruit,\r\n            landIndex: landIndex,\r\n            createdAt: block.timestamp\r\n        });\r\n        Transaction[] memory newTransactions = addTransaction(_transactions, plantAppleTransaction);\r\n\r\n        Farm memory updatedFarm = buildFarm(newTransactions);\r\n        return (updatedFarm);\r\n    }\r\n\r\n    function harvest(Transaction[] memory _transactions, Fruit _fruit, uint landIndex) public hasFarm view returns (Farm memory farm) {\r\n        // Add the new transaction\r\n        Transaction memory plantAppleTransaction = Transaction({\r\n            action: Action.Harvest,\r\n            fruit: _fruit,\r\n            landIndex: landIndex,\r\n            createdAt: block.timestamp\r\n        });\r\n        Transaction[] memory newTransactions = addTransaction(_transactions, plantAppleTransaction);\r\n\r\n        Farm memory updatedFarm = buildFarm(newTransactions);\r\n        return (updatedFarm);\r\n    }\r\n}\r\n",
  "sourcePath": "/Users/adamhannigan/Documents/workspace/fruit-market/src/contracts/Farm.sol",
  "compiler": {
    "name": "solc",
    "version": "0.7.6+commit.7338295f.Emscripten.clang"
  },
  "schemaVersion": "3.4.0",
  "updatedAt": "2021-06-06T07:58:21.605Z",
  "networkType": "ethereum",
  "devdoc": {
    "kind": "dev",
    "methods": {},
    "version": 1
  },
  "userdoc": {
    "kind": "user",
    "methods": {},
    "version": 1
  }
}