{
  "contractName": "Farm",
  "abi": [
    {
      "inputs": [
        {
          "internalType": "contract Token",
          "name": "_token",
          "type": "address"
        }
      ],
      "stateMutability": "nonpayable",
      "type": "constructor"
    },
    {
      "anonymous": false,
      "inputs": [
        {
          "indexed": true,
          "internalType": "address",
          "name": "_address",
          "type": "address"
        }
      ],
      "name": "FarmCreated",
      "type": "event"
    },
    {
      "anonymous": false,
      "inputs": [
        {
          "indexed": true,
          "internalType": "address",
          "name": "_address",
          "type": "address"
        }
      ],
      "name": "FarmSynced",
      "type": "event"
    },
    {
      "inputs": [],
      "name": "createFarm",
      "outputs": [],
      "stateMutability": "nonpayable",
      "type": "function"
    },
    {
      "inputs": [],
      "name": "lastSyncedAt",
      "outputs": [
        {
          "internalType": "uint256",
          "name": "",
          "type": "uint256"
        }
      ],
      "stateMutability": "view",
      "type": "function",
      "constant": true
    },
    {
      "inputs": [],
      "name": "getLand",
      "outputs": [
        {
          "components": [
            {
              "internalType": "enum Farm.Fruit",
              "name": "commodity",
              "type": "uint8"
            },
            {
              "internalType": "uint256",
              "name": "createdAt",
              "type": "uint256"
            }
          ],
          "internalType": "struct Farm.Square[]",
          "name": "",
          "type": "tuple[]"
        }
      ],
      "stateMutability": "view",
      "type": "function",
      "constant": true
    },
    {
      "inputs": [
        {
          "components": [
            {
              "internalType": "enum Farm.Action",
              "name": "action",
              "type": "uint8"
            },
            {
              "internalType": "enum Farm.Fruit",
              "name": "commodity",
              "type": "uint8"
            },
            {
              "internalType": "uint256",
              "name": "landIndex",
              "type": "uint256"
            },
            {
              "internalType": "uint256",
              "name": "createdAt",
              "type": "uint256"
            }
          ],
          "internalType": "struct Farm.Transaction[]",
          "name": "_transactions",
          "type": "tuple[]"
        }
      ],
      "name": "sync",
      "outputs": [
        {
          "components": [
            {
              "components": [
                {
                  "internalType": "enum Farm.Fruit",
                  "name": "commodity",
                  "type": "uint8"
                },
                {
                  "internalType": "uint256",
                  "name": "createdAt",
                  "type": "uint256"
                }
              ],
              "internalType": "struct Farm.Square[]",
              "name": "land",
              "type": "tuple[]"
            },
            {
              "internalType": "uint256",
              "name": "balance",
              "type": "uint256"
            },
            {
              "components": [
                {
                  "internalType": "enum Farm.Action",
                  "name": "action",
                  "type": "uint8"
                },
                {
                  "internalType": "enum Farm.Fruit",
                  "name": "commodity",
                  "type": "uint8"
                },
                {
                  "internalType": "uint256",
                  "name": "landIndex",
                  "type": "uint256"
                },
                {
                  "internalType": "uint256",
                  "name": "createdAt",
                  "type": "uint256"
                }
              ],
              "internalType": "struct Farm.Transaction[]",
              "name": "transactions",
              "type": "tuple[]"
            }
          ],
          "internalType": "struct Farm.Farm",
          "name": "",
          "type": "tuple"
        }
      ],
      "stateMutability": "nonpayable",
      "type": "function"
    },
    {
      "inputs": [],
      "name": "levelUp",
      "outputs": [],
      "stateMutability": "nonpayable",
      "type": "function"
    },
    {
      "inputs": [],
      "name": "getConversion",
      "outputs": [
        {
          "internalType": "uint256",
          "name": "conversion",
          "type": "uint256"
        }
      ],
      "stateMutability": "view",
      "type": "function",
      "constant": true
    },
    {
      "inputs": [
        {
          "internalType": "uint256",
          "name": "dollars",
          "type": "uint256"
        }
      ],
      "name": "dollarToFMC",
      "outputs": [
        {
          "internalType": "uint256",
          "name": "fmc",
          "type": "uint256"
        }
      ],
      "stateMutability": "view",
      "type": "function",
      "constant": true
    },
    {
      "inputs": [
        {
          "internalType": "uint256",
          "name": "fmc",
          "type": "uint256"
        }
      ],
      "name": "FMCToDollar",
      "outputs": [
        {
          "internalType": "uint256",
          "name": "dollars",
          "type": "uint256"
        }
      ],
      "stateMutability": "view",
      "type": "function",
      "constant": true
    },
    {
      "inputs": [],
      "name": "getBalance",
      "outputs": [
        {
          "internalType": "uint256",
          "name": "balance",
          "type": "uint256"
        }
      ],
      "stateMutability": "view",
      "type": "function",
      "constant": true
    },
    {
      "inputs": [
        {
          "components": [
            {
              "internalType": "enum Farm.Action",
              "name": "action",
              "type": "uint8"
            },
            {
              "internalType": "enum Farm.Fruit",
              "name": "commodity",
              "type": "uint8"
            },
            {
              "internalType": "uint256",
              "name": "landIndex",
              "type": "uint256"
            },
            {
              "internalType": "uint256",
              "name": "createdAt",
              "type": "uint256"
            }
          ],
          "internalType": "struct Farm.Transaction[]",
          "name": "_transactions",
          "type": "tuple[]"
        },
        {
          "internalType": "enum Farm.Fruit",
          "name": "_commodity",
          "type": "uint8"
        },
        {
          "internalType": "uint256",
          "name": "landIndex",
          "type": "uint256"
        }
      ],
      "name": "plant",
      "outputs": [
        {
          "components": [
            {
              "components": [
                {
                  "internalType": "enum Farm.Fruit",
                  "name": "commodity",
                  "type": "uint8"
                },
                {
                  "internalType": "uint256",
                  "name": "createdAt",
                  "type": "uint256"
                }
              ],
              "internalType": "struct Farm.Square[]",
              "name": "land",
              "type": "tuple[]"
            },
            {
              "internalType": "uint256",
              "name": "balance",
              "type": "uint256"
            },
            {
              "components": [
                {
                  "internalType": "enum Farm.Action",
                  "name": "action",
                  "type": "uint8"
                },
                {
                  "internalType": "enum Farm.Fruit",
                  "name": "commodity",
                  "type": "uint8"
                },
                {
                  "internalType": "uint256",
                  "name": "landIndex",
                  "type": "uint256"
                },
                {
                  "internalType": "uint256",
                  "name": "createdAt",
                  "type": "uint256"
                }
              ],
              "internalType": "struct Farm.Transaction[]",
              "name": "transactions",
              "type": "tuple[]"
            }
          ],
          "internalType": "struct Farm.Farm",
          "name": "farm",
          "type": "tuple"
        }
      ],
      "stateMutability": "view",
      "type": "function",
      "constant": true
    },
    {
      "inputs": [
        {
          "components": [
            {
              "internalType": "enum Farm.Action",
              "name": "action",
              "type": "uint8"
            },
            {
              "internalType": "enum Farm.Fruit",
              "name": "commodity",
              "type": "uint8"
            },
            {
              "internalType": "uint256",
              "name": "landIndex",
              "type": "uint256"
            },
            {
              "internalType": "uint256",
              "name": "createdAt",
              "type": "uint256"
            }
          ],
          "internalType": "struct Farm.Transaction[]",
          "name": "_transactions",
          "type": "tuple[]"
        },
        {
          "internalType": "enum Farm.Fruit",
          "name": "_commodity",
          "type": "uint8"
        },
        {
          "internalType": "uint256",
          "name": "landIndex",
          "type": "uint256"
        }
      ],
      "name": "harvest",
      "outputs": [
        {
          "components": [
            {
              "components": [
                {
                  "internalType": "enum Farm.Fruit",
                  "name": "commodity",
                  "type": "uint8"
                },
                {
                  "internalType": "uint256",
                  "name": "createdAt",
                  "type": "uint256"
                }
              ],
              "internalType": "struct Farm.Square[]",
              "name": "land",
              "type": "tuple[]"
            },
            {
              "internalType": "uint256",
              "name": "balance",
              "type": "uint256"
            },
            {
              "components": [
                {
                  "internalType": "enum Farm.Action",
                  "name": "action",
                  "type": "uint8"
                },
                {
                  "internalType": "enum Farm.Fruit",
                  "name": "commodity",
                  "type": "uint8"
                },
                {
                  "internalType": "uint256",
                  "name": "landIndex",
                  "type": "uint256"
                },
                {
                  "internalType": "uint256",
                  "name": "createdAt",
                  "type": "uint256"
                }
              ],
              "internalType": "struct Farm.Transaction[]",
              "name": "transactions",
              "type": "tuple[]"
            }
          ],
          "internalType": "struct Farm.Farm",
          "name": "farm",
          "type": "tuple"
        }
      ],
      "stateMutability": "view",
      "type": "function",
      "constant": true
    }
  ],
  "bytecode": "0x60806040526000600155620186a06004553480156200001d57600080fd5b5060405162003002380380620030028339818101604052810190620000439190620000a1565b806000806101000a81548173ffffffffffffffffffffffffffffffffffffffff021916908373ffffffffffffffffffffffffffffffffffffffff160217905550506200012f565b6000815190506200009b8162000115565b92915050565b600060208284031215620000b457600080fd5b6000620000c4848285016200008a565b91505092915050565b6000620000da82620000f5565b9050919050565b6000620000ee82620000cd565b9050919050565b600073ffffffffffffffffffffffffffffffffffffffff82169050919050565b6200012081620000e1565b81146200012c57600080fd5b50565b612ec3806200013f6000396000f3fe608060405234801561001057600080fd5b50600436106100a95760003560e01c80635690314c116100715780635690314c1461012e578063900a6d3c1461014c578063aa5f6e0f1461016a578063cc709ca71461019a578063d53f9c9b146101ca578063f1bbda04146101fa576100a9565b806312065fe0146100ae5780631d5ec3cb146100cc578063218e55e4146100d6578063285532dd146101065780634ea1ecf914610124575b600080fd5b6100b661022a565b6040516100c39190612bc1565b60405180910390f35b6100d46102e7565b005b6100f060048036038101906100eb919061235d565b61066c565b6040516100fd9190612bc1565b60405180910390f35b61010e610694565b60405161011b9190612bc1565b60405180910390f35b61012c6106db565b005b610136610a66565b6040516101439190612a1b565b60405180910390f35b610154610b39565b6040516101619190612bc1565b60405180910390f35b610184600480360381019061017f91906122f6565b610b7e565b6040516101919190612b9f565b60405180910390f35b6101b460048036038101906101af919061235d565b610be9565b6040516101c19190612bc1565b60405180910390f35b6101e460048036038101906101df91906122b5565b610c11565b6040516101f19190612b9f565b60405180910390f35b610214600480360381019061020f91906122f6565b61104a565b6040516102219190612b9f565b60405180910390f35b60008060008054906101000a900473ffffffffffffffffffffffffffffffffffffffff1673ffffffffffffffffffffffffffffffffffffffff166370a08231336040518263ffffffff1660e01b815260040161028691906129ae565b60206040518083038186803b15801561029e57600080fd5b505afa1580156102b2573d6000803e3d6000fd5b505050506040513d601f19601f820116820180604052508101906102d69190612386565b90506102e18161066c565b91505090565b6000600360003373ffffffffffffffffffffffffffffffffffffffff1673ffffffffffffffffffffffffffffffffffffffff1681526020019081526020016000205490506000811461036e576040517f08c379a000000000000000000000000000000000000000000000000000000000815260040161036590612a5f565b60405180910390fd5b6000600260003373ffffffffffffffffffffffffffffffffffffffff1673ffffffffffffffffffffffffffffffffffffffff168152602001908152602001600020905060006040518060400160405280600060078111156103cb57fe5b81526020016000815250905060006040518060400160405280600160078111156103f157fe5b81526020014281525090508282908060018154018082558091505060019003906000526020600020906002020160009091909190915060008201518160000160006101000a81548160ff0219169083600781111561044b57fe5b02179055506020820151816001015550508281908060018154018082558091505060019003906000526020600020906002020160009091909190915060008201518160000160006101000a81548160ff021916908360078111156104ab57fe5b02179055506020820151816001015550508281908060018154018082558091505060019003906000526020600020906002020160009091909190915060008201518160000160006101000a81548160ff0219169083600781111561050b57fe5b02179055506020820151816001015550508281908060018154018082558091505060019003906000526020600020906002020160009091909190915060008201518160000160006101000a81548160ff0219169083600781111561056b57fe5b02179055506020820151816001015550508282908060018154018082558091505060019003906000526020600020906002020160009091909190915060008201518160000160006101000a81548160ff021916908360078111156105cb57fe5b0217905550602082015181600101555050606042600360003373ffffffffffffffffffffffffffffffffffffffff1673ffffffffffffffffffffffffffffffffffffffff168152602001908152602001600020819055503373ffffffffffffffffffffffffffffffffffffffff167f46963f16723a084f2199eb74021bd97647aa6c8960612a9a031ce509d40d4ca760405160405180910390a25050505050565b600080610677610b39565b9050600060648402905081818161068a57fe5b0492505050919050565b6000600360003373ffffffffffffffffffffffffffffffffffffffff1673ffffffffffffffffffffffffffffffffffffffff16815260200190815260200160002054905090565b6000600360003373ffffffffffffffffffffffffffffffffffffffff1673ffffffffffffffffffffffffffffffffffffffff16815260200190815260200160002054905060008111610762576040517f08c379a000000000000000000000000000000000000000000000000000000000815260040161075990612b1f565b60405180910390fd5b6011600260003373ffffffffffffffffffffffffffffffffffffffff1673ffffffffffffffffffffffffffffffffffffffff1681526020019081526020016000208054905011156107e8576040517f08c379a00000000000000000000000000000000000000000000000000000000081526004016107df90612aff565b60405180910390fd5b6000600260003373ffffffffffffffffffffffffffffffffffffffff1673ffffffffffffffffffffffffffffffffffffffff1681526020019081526020016000209050600061083a82805490506110b6565b90506000610847826110fc565b9050600061088a6040518060400160405280601e81526020017f4e6f7420656e6f756768206d6f6e657920746f206c6576656c2075703a2000008152508361124c565b9050600061089661022a565b90508381101582906108de576040517f08c379a00000000000000000000000000000000000000000000000000000000081526004016108d59190612a3d565b60405180910390fd5b5060006040518060400160405280600060078111156108f957fe5b81526020016000815250905060005b600381101561097e578682908060018154018082558091505060019003906000526020600020906002020160009091909190915060008201518160000160006101000a81548160ff0219169083600781111561096057fe5b02179055506020820151816001015550508080600101915050610908565b50600061098a86610be9565b905060008054906101000a900473ffffffffffffffffffffffffffffffffffffffff1673ffffffffffffffffffffffffffffffffffffffff16639dc29fac33836040518363ffffffff1660e01b81526004016109e79291906129c9565b600060405180830381600087803b158015610a0157600080fd5b505af1158015610a15573d6000803e3d6000fd5b505050503373ffffffffffffffffffffffffffffffffffffffff167fbe35fe23c13a419d565edccb8c8bdedc160c5b9a82873e431b545080d6f3c68860405160405180910390a25050505050505050565b6060600260003373ffffffffffffffffffffffffffffffffffffffff1673ffffffffffffffffffffffffffffffffffffffff168152602001908152602001600020805480602002602001604051908101604052809291908181526020016000905b82821015610b3057838290600052602060002090600202016040518060400160405290816000820160009054906101000a900460ff166007811115610b0857fe5b6007811115610b1357fe5b815260200160018201548152505081526020019060010190610ac7565b50505050905090565b6000806001541415610b4f576004549050610b7b565b6000610b5c600154611278565b9050600454811115610b72576001915050610b7b565b80600454039150505b90565b610b866120ba565b60006040518060800160405280600180811115610b9f57fe5b8152602001856007811115610bb057fe5b81526020018481526020014281525090506000610bcd86836112bd565b90506000610bda8261137f565b90508093505050509392505050565b600080610bf4610b39565b90506000818402905060648181610c0757fe5b0492505050919050565b610c196120ba565b6000610c2361022a565b90506000610c308461137f565b90506000600260003373ffffffffffffffffffffffffffffffffffffffff1673ffffffffffffffffffffffffffffffffffffffff168152602001908152602001600020905060005b826000015151811015610cf85782600001518181518110610c9557fe5b6020026020010151828281548110610ca957fe5b906000526020600020906002020160008201518160000160006101000a81548160ff02191690836007811115610cdb57fe5b021790555060208201518160010155905050600181019050610c78565b508282602001511115610eeb5760008383602001510390506000610d1b82610be9565b905060008054906101000a900473ffffffffffffffffffffffffffffffffffffffff1673ffffffffffffffffffffffffffffffffffffffff166340c10f1933836040518363ffffffff1660e01b8152600401610d789291906129c9565b600060405180830381600087803b158015610d9257600080fd5b505af1158015610da6573d6000803e3d6000fd5b50505050600060058281610db657fe5b04905060008054906101000a900473ffffffffffffffffffffffffffffffffffffffff1673ffffffffffffffffffffffffffffffffffffffff166340c10f1960008054906101000a900473ffffffffffffffffffffffffffffffffffffffff1673ffffffffffffffffffffffffffffffffffffffff1663893d20e86040518163ffffffff1660e01b815260040160206040518083038186803b158015610e5b57600080fd5b505afa158015610e6f573d6000803e3d6000fd5b505050506040513d601f19601f82011682018060405250810190610e93919061228c565b836040518363ffffffff1660e01b8152600401610eb19291906129f2565b600060405180830381600087803b158015610ecb57600080fd5b505af1158015610edf573d6000803e3d6000fd5b50505050505050610fa0565b8282602001511015610f9f5760008260200151840390506000610f0d82610be9565b905060008054906101000a900473ffffffffffffffffffffffffffffffffffffffff1673ffffffffffffffffffffffffffffffffffffffff16639dc29fac33836040518363ffffffff1660e01b8152600401610f6a9291906129c9565b600060405180830381600087803b158015610f8457600080fd5b505af1158015610f98573d6000803e3d6000fd5b5050505050505b5b610fa985611911565b60016000828254019250508190555042600360003373ffffffffffffffffffffffffffffffffffffffff1673ffffffffffffffffffffffffffffffffffffffff168152602001908152602001600020819055503373ffffffffffffffffffffffffffffffffffffffff167fbe35fe23c13a419d565edccb8c8bdedc160c5b9a82873e431b545080d6f3c68860405160405180910390a2819350505050919050565b6110526120ba565b600060405180608001604052806000600181111561106c57fe5b815260200185600781111561107d57fe5b8152602001848152602001428152509050600061109a86836112bd565b905060006110a78261137f565b90508093505050509392505050565b6000600582116110ca576101f490506110f7565b600882116110dd576203d09090506110f7565b600b82116110f0576207a12090506110f7565b62802c8090505b919050565b60606000821415611144576040518060400160405280600181526020017f30000000000000000000000000000000000000000000000000000000000000008152509050611247565b600082905060005b6000821461116e578080600101915050600a828161116657fe5b04915061114c565b60008167ffffffffffffffff8111801561118757600080fd5b506040519080825280601f01601f1916602001820160405280156111ba5781602001600182028036833780820191505090505b50905060008290505b6000861461123f576001810390506000600a8088816111de57fe5b04028703603001905060008160f81b9050808484815181106111fc57fe5b60200101907effffffffffffffffffffffffffffffffffffffffffffffffffffffffffffff1916908160001a905350600a888161123557fe5b04975050506111c3565b819450505050505b919050565b6060828260405160200161126192919061298a565b604051602081830303815290604052905092915050565b6000806002600184018161128857fe5b0490508291505b818110156112b7578091506002818285816112a657fe5b0401816112af57fe5b04905061128f565b50919050565b60606000600184510167ffffffffffffffff811180156112dc57600080fd5b5060405190808252806020026020018201604052801561131657816020015b6113036120db565b8152602001906001900390816112fb5790505b50905060005b845181101561135b5784818151811061133157fe5b602002602001015182828151811061134557fe5b602002602001018190525060018101905061131c565b50828185518151811061136a57fe5b60200260200101819052508091505092915050565b6113876120ba565b6000600360003373ffffffffffffffffffffffffffffffffffffffff1673ffffffffffffffffffffffffffffffffffffffff1681526020019081526020016000205490506000811161140e576040517f08c379a000000000000000000000000000000000000000000000000000000000815260040161140590612b1f565b60405180910390fd5b6000600260003373ffffffffffffffffffffffffffffffffffffffff1673ffffffffffffffffffffffffffffffffffffffff168152602001908152602001600020805480602002602001604051908101604052809291908181526020016000905b828210156114d857838290600052602060002090600202016040518060400160405290816000820160009054906101000a900460ff1660078111156114b057fe5b60078111156114bb57fe5b81526020016001820154815250508152602001906001019061146f565b50505050905060006114e861022a565b905060005b85518110156118eb57600086828151811061150457fe5b602002602001015190508481606001511015611555576040517f08c379a000000000000000000000000000000000000000000000000000000000815260040161154c90612a9f565b60405180910390fd5b428160600151111561159c576040517f08c379a000000000000000000000000000000000000000000000000000000000815260040161159390612adf565b60405180910390fd5b6000821115611607578660018303815181106115b457fe5b60200260200101516060015181606001511015611606576040517f08c379a00000000000000000000000000000000000000000000000000000000081526004016115fd90612a7f565b60405180910390fd5b5b6116148160200151611996565b84511015611657576040517f08c379a000000000000000000000000000000000000000000000000000000000815260040161164e90612b5f565b60405180910390fd5b6000600181111561166457fe5b8160000151600181111561167457fe5b14156117325760006116898260200151611aec565b9050808410156116ce576040517f08c379a00000000000000000000000000000000000000000000000000000000081526004016116c590612abf565b60405180910390fd5b6116e18185611c5790919063ffffffff16565b9350600060405180604001604052808460200151600781111561170057fe5b815260200184606001518152509050808684604001518151811061172057fe5b602002602001018190525050506118dd565b60018081111561173e57fe5b8160000151600181111561174e57fe5b14156118dc5760008482604001518151811061176657fe5b602002602001015190508160200151600781111561178057fe5b8160000151600781111561179057fe5b146117d0576040517f08c379a00000000000000000000000000000000000000000000000000000000081526004016117c790612b3f565b60405180910390fd5b60008160200151836060015103905060006117ee8460200151611ca1565b905060006117fd8383036110fc565b90506000611823604051806060016040528060328152602001612e5c603291398361124c565b905082841015819061186b576040517f08c379a00000000000000000000000000000000000000000000000000000000081526004016118629190612a3d565b60405180910390fd5b50600060405180604001604052806000600781111561188657fe5b815260200160008152509050808a8860400151815181106118a357fe5b602002602001018190525060006118bd8860200151611e08565b90506118d2818b611f7290919063ffffffff16565b9950505050505050505b5b5080806001019150506114ed565b506040518060600160405280838152602001828152602001868152509350505050919050565b6000806000905060005b83518110156119895760018081111561193057fe5b84828151811061193c57fe5b602002602001015160000151600181111561195357fe5b141561197e5761197984828151811061196857fe5b602002602001015160200151611ca1565b820191505b60018101905061191b565b50600a8102915050919050565b6000600160078111156119a557fe5b8260078111156119b157fe5b14806119d35750600260078111156119c557fe5b8260078111156119d157fe5b145b156119e15760059050611ae7565b600360078111156119ee57fe5b8260078111156119fa57fe5b1480611a1c575060046007811115611a0e57fe5b826007811115611a1a57fe5b145b15611a2a5760089050611ae7565b60056007811115611a3757fe5b826007811115611a4357fe5b1415611a5257600b9050611ae7565b60066007811115611a5f57fe5b826007811115611a6b57fe5b1415611a7a57600e9050611ae7565b600780811115611a8657fe5b826007811115611a9257fe5b1415611aa15760119050611ae7565b6000611ae2576040517f08c379a0000000000000000000000000000000000000000000000000000000008152600401611ad990612b7f565b60405180910390fd5b606390505b919050565b600060016007811115611afb57fe5b826007811115611b0757fe5b1415611b165760059050611c52565b60026007811115611b2357fe5b826007811115611b2f57fe5b1415611b3e57601e9050611c52565b60036007811115611b4b57fe5b826007811115611b5757fe5b1415611b665760649050611c52565b60046007811115611b7357fe5b826007811115611b7f57fe5b1415611b8f576101f49050611c52565b60056007811115611b9c57fe5b826007811115611ba857fe5b1415611bb8576103e89050611c52565b60066007811115611bc557fe5b826007811115611bd157fe5b1415611be1576113889050611c52565b600780811115611bed57fe5b826007811115611bf957fe5b1415611c0a57620186a09050611c52565b6000611c4b576040517f08c379a0000000000000000000000000000000000000000000000000000000008152600401611c4290612b7f565b60405180910390fd5b620186a090505b919050565b6000611c9983836040518060400160405280601e81526020017f536166654d6174683a207375627472616374696f6e206f766572666c6f770000815250611ffa565b905092915050565b600060016007811115611cb057fe5b826007811115611cbc57fe5b1415611ccb5760019050611e03565b60026007811115611cd857fe5b826007811115611ce457fe5b1415611cf35760039050611e03565b60036007811115611d0057fe5b826007811115611d0c57fe5b1415611d1b5760089050611e03565b60046007811115611d2857fe5b826007811115611d3457fe5b1415611d435760189050611e03565b60056007811115611d5057fe5b826007811115611d5c57fe5b1415611d6b5760489050611e03565b60066007811115611d7857fe5b826007811115611d8457fe5b1415611d935760a89050611e03565b600780811115611d9f57fe5b826007811115611dab57fe5b1415611dbb576102a09050611e03565b6000611dfc576040517f08c379a0000000000000000000000000000000000000000000000000000000008152600401611df390612b7f565b60405180910390fd5b6298967f90505b919050565b600060016007811115611e1757fe5b826007811115611e2357fe5b1415611e3257600a9050611f6d565b60026007811115611e3f57fe5b826007811115611e4b57fe5b1415611e5a57603c9050611f6d565b60036007811115611e6757fe5b826007811115611e7357fe5b1415611e83576101189050611f6d565b60046007811115611e9057fe5b826007811115611e9c57fe5b1415611eac5761047e9050611f6d565b60056007811115611eb957fe5b826007811115611ec557fe5b1415611ed557610c809050611f6d565b60066007811115611ee257fe5b826007811115611eee57fe5b1415611efe576127109050611f6d565b600780811115611f0a57fe5b826007811115611f1657fe5b1415611f27576201f20c9050611f6d565b6000611f68576040517f08c379a0000000000000000000000000000000000000000000000000000000008152600401611f5f90612b7f565b60405180910390fd5b600090505b919050565b600080828401905083811015611ff0576040517f08c379a000000000000000000000000000000000000000000000000000000000815260040180806020018281038252601b8152602001807f536166654d6174683a206164646974696f6e206f766572666c6f77000000000081525060200191505060405180910390fd5b8091505092915050565b60008383111582906120a7576040517f08c379a00000000000000000000000000000000000000000000000000000000081526004018080602001828103825283818151815260200191508051906020019080838360005b8381101561206c578082015181840152602081019050612051565b50505050905090810190601f1680156120995780820380516001836020036101000a031916815260200191505b509250505060405180910390fd5b5060008385039050809150509392505050565b60405180606001604052806060815260200160008152602001606081525090565b6040518060800160405280600060018111156120f357fe5b81526020016000600781111561210557fe5b815260200160008152602001600081525090565b600061212c61212784612c0d565b612bdc565b9050808382526020820190508285608086028201111561214b57600080fd5b60005b8581101561217b578161216188826121ee565b84526020840193506080830192505060018101905061214e565b5050509392505050565b60008151905061219481612e0d565b92915050565b600082601f8301126121ab57600080fd5b81356121bb848260208601612119565b91505092915050565b6000813590506121d381612e24565b92915050565b6000813590506121e881612e34565b92915050565b60006080828403121561220057600080fd5b61220a6080612bdc565b9050600061221a848285016121c4565b600083015250602061222e848285016121d9565b602083015250604061224284828501612262565b604083015250606061225684828501612262565b60608301525092915050565b60008135905061227181612e44565b92915050565b60008151905061228681612e44565b92915050565b60006020828403121561229e57600080fd5b60006122ac84828501612185565b91505092915050565b6000602082840312156122c757600080fd5b600082013567ffffffffffffffff8111156122e157600080fd5b6122ed8482850161219a565b91505092915050565b60008060006060848603121561230b57600080fd5b600084013567ffffffffffffffff81111561232557600080fd5b6123318682870161219a565b9350506020612342868287016121d9565b925050604061235386828701612262565b9150509250925092565b60006020828403121561236f57600080fd5b600061237d84828501612262565b91505092915050565b60006020828403121561239857600080fd5b60006123a684828501612277565b91505092915050565b60006123bb83836128e8565b60408301905092915050565b60006123d38383612917565b60808301905092915050565b6123e881612d45565b82525050565b6123f781612ce3565b82525050565b600061240882612c59565b6124128185612c94565b935061241d83612c39565b8060005b8381101561244e57815161243588826123af565b975061244083612c7a565b925050600181019050612421565b5085935050505092915050565b600061246682612c59565b6124708185612ca5565b935061247b83612c39565b8060005b838110156124ac57815161249388826123af565b975061249e83612c7a565b92505060018101905061247f565b5085935050505092915050565b60006124c482612c64565b6124ce8185612cb6565b93506124d983612c49565b8060005b8381101561250a5781516124f188826123c7565b97506124fc83612c87565b9250506001810190506124dd565b5085935050505092915050565b61252081612d57565b82525050565b61252f81612d69565b82525050565b600061254082612c6f565b61254a8185612cc7565b935061255a818560208601612d9f565b61256381612dd4565b840191505092915050565b600061257982612c6f565b6125838185612cd8565b9350612593818560208601612d9f565b80840191505092915050565b60006125ac601383612cc7565b91507f4661726d20616c726561647920657869737473000000000000000000000000006000830152602082019050919050565b60006125ec601d83612cc7565b91507f5472616e73616374696f6e7320617265206e6f7420696e206f726465720000006000830152602082019050919050565b600061262c602983612cc7565b91507f596f752063616e206e6f7420706572666f726d20616e20616374696f6e20696e60008301527f20746865207061737400000000000000000000000000000000000000000000006020830152604082019050919050565b6000612692601c83612cc7565b91507f4e6f7420656e6f756768206d6f6e657920746f206275792073656564000000006000830152602082019050919050565b60006126d2602b83612cc7565b91507f596f752063616e206e6f7420706572666f726d20616e20616374696f6e20696e60008301527f20746865206675747572650000000000000000000000000000000000000000006020830152604082019050919050565b6000612738601c83612cc7565b91507f596f752061726520617420746865206d6178696d756d206c6576656c000000006000830152602082019050919050565b6000612778601383612cc7565b91507f4661726d20646f6573206e6f74206578697374000000000000000000000000006000830152602082019050919050565b60006127b8601d83612cc7565b91507f496e76616c6964206661726d3a204e6f206672756974206578697374730000006000830152602082019050919050565b60006127f8603b83612cc7565b91507f596f7572206661726d206973206e6f7420726561647920746f20706c616e742060008301527f746869732066727569742e204c6576656c2075702066697273742e00000000006020830152604082019050919050565b600061285e600d83612cc7565b91507f496e76616c6964206672756974000000000000000000000000000000000000006000830152602082019050919050565b600060608301600083015184820360008601526128ae82826123fd565b91505060208301516128c3602086018261296c565b50604083015184820360408601526128db82826124b9565b9150508091505092915050565b6040820160008201516128fe6000850182612526565b506020820151612911602085018261296c565b50505050565b60808201600082015161292d6000850182612517565b5060208201516129406020850182612526565b506040820151612953604085018261296c565b506060820151612966606085018261296c565b50505050565b61297581612d3b565b82525050565b61298481612d3b565b82525050565b6000612996828561256e565b91506129a2828461256e565b91508190509392505050565b60006020820190506129c360008301846123df565b92915050565b60006040820190506129de60008301856123df565b6129eb602083018461297b565b9392505050565b6000604082019050612a0760008301856123ee565b612a14602083018461297b565b9392505050565b60006020820190508181036000830152612a35818461245b565b905092915050565b60006020820190508181036000830152612a578184612535565b905092915050565b60006020820190508181036000830152612a788161259f565b9050919050565b60006020820190508181036000830152612a98816125df565b9050919050565b60006020820190508181036000830152612ab88161261f565b9050919050565b60006020820190508181036000830152612ad881612685565b9050919050565b60006020820190508181036000830152612af8816126c5565b9050919050565b60006020820190508181036000830152612b188161272b565b9050919050565b60006020820190508181036000830152612b388161276b565b9050919050565b60006020820190508181036000830152612b58816127ab565b9050919050565b60006020820190508181036000830152612b78816127eb565b9050919050565b60006020820190508181036000830152612b9881612851565b9050919050565b60006020820190508181036000830152612bb98184612891565b905092915050565b6000602082019050612bd6600083018461297b565b92915050565b6000604051905081810181811067ffffffffffffffff82111715612c0357612c02612dd2565b5b8060405250919050565b600067ffffffffffffffff821115612c2857612c27612dd2565b5b602082029050602081019050919050565b6000819050602082019050919050565b6000819050602082019050919050565b600081519050919050565b600081519050919050565b600081519050919050565b6000602082019050919050565b6000602082019050919050565b600082825260208201905092915050565b600082825260208201905092915050565b600082825260208201905092915050565b600082825260208201905092915050565b600081905092915050565b6000612cee82612d1b565b9050919050565b6000819050612d0382612de5565b919050565b6000819050612d1682612df9565b919050565b600073ffffffffffffffffffffffffffffffffffffffff82169050919050565b6000819050919050565b6000612d5082612d7b565b9050919050565b6000612d6282612cf5565b9050919050565b6000612d7482612d08565b9050919050565b6000612d8682612d8d565b9050919050565b6000612d9882612d1b565b9050919050565b60005b83811015612dbd578082015181840152602081019050612da2565b83811115612dcc576000848401525b50505050565bfe5b6000601f19601f8301169050919050565b60028110612df657612df5612dd2565b5b50565b60088110612e0a57612e09612dd2565b5b50565b612e1681612ce3565b8114612e2157600080fd5b50565b60028110612e3157600080fd5b50565b60088110612e4157600080fd5b50565b612e4d81612d3b565b8114612e5857600080fd5b5056fe496e76616c6964206661726d3a20546865206672756974206973206e6f7420726970652c20706c6561736520776169743a20a26469706673582212200b5378eaab8afd6b331d5656adb958ebc51c1637ab4ca6cd61e87e70825d477f64736f6c63430007060033",
  "immutableReferences": {},
  "source": "pragma solidity >=0.6.0 <0.8.0;\r\npragma experimental ABIEncoderV2;\r\n\r\nimport \"@openzeppelin/contracts/math/Math.sol\";\r\nimport \"./Token.sol\";\r\n\r\ncontract Farm {\r\n    using SafeMath for uint256;\r\n\r\n    Token private token;\r\n    uint private totalHoursHarvested = 0;\r\n\r\n    struct Square {\r\n        Fruit commodity;\r\n        uint createdAt;\r\n    }\r\n\r\n    mapping(address => Square[]) fields;\r\n    mapping(address => uint) syncedAt;\r\n\r\n    constructor(Token _token) public {\r\n        token = _token;\r\n    }\r\n\r\n    event FarmCreated(address indexed _address);\r\n    event FarmSynced(address indexed _address);\r\n\r\n    function createFarm() public {\r\n        uint synced = syncedAt[msg.sender];\r\n        require(synced == 0, \"Farm already exists\");\r\n\r\n        Square[] storage land = fields[msg.sender];\r\n        Square memory empty = Square(Fruit.None, 0);\r\n        Square memory apple = Square(Fruit.Apple, block.timestamp);\r\n\r\n        // Each farmer starts with 5 fields & 3 apples\r\n        land.push(empty);\r\n        land.push(apple);\r\n        land.push(apple);\r\n        land.push(apple);\r\n        land.push(empty);\r\n\r\n        Transaction[] memory transactions;\r\n\r\n        syncedAt[msg.sender] = block.timestamp;\r\n\r\n        //Emit an event\r\n        emit FarmCreated(msg.sender);\r\n    }\r\n    \r\n    function lastSyncedAt() public view returns(uint) {\r\n        return syncedAt[msg.sender];\r\n    }\r\n\r\n\r\n    function getLand() public view returns (Square[] memory) {\r\n        return fields[msg.sender];\r\n    }\r\n\r\n    enum Action { Plant, Harvest }\r\n    enum Fruit { None, Apple, Avocado, Banana, Coconut, Pineapple, Money, Diamond }\r\n\r\n    struct Transaction { \r\n        Action action;\r\n        Fruit commodity;\r\n        uint landIndex;\r\n        uint createdAt;\r\n    }\r\n\r\n    struct Farm {\r\n        Square[] land;\r\n        uint balance;\r\n        Transaction[] transactions;\r\n    }\r\n\r\n    function getHarvestHours(Fruit _commodity) private view returns (uint) {\r\n        if (_commodity == Fruit.Apple) {\r\n            return 1;\r\n        } else if (_commodity == Fruit.Avocado) {\r\n            return 3;\r\n        } else if (_commodity == Fruit.Banana) {\r\n            return 8;\r\n        } else if (_commodity == Fruit.Coconut) {\r\n            // 1 Day\r\n            return 24;\r\n        } else if (_commodity == Fruit.Pineapple) {\r\n            // 3 days\r\n            return 72;\r\n        } else if (_commodity == Fruit.Money) {\r\n            // 1 week\r\n            return 168;\r\n        } else if (_commodity == Fruit.Diamond) {\r\n            // 4 weeks\r\n            return 672;\r\n        }\r\n\r\n        require(false, \"Invalid fruit\");\r\n        return 9999999;\r\n    }\r\n\r\n    function getSeedPrice(Fruit _commodity) private view returns (uint price) {\r\n        if (_commodity == Fruit.Apple) {\r\n            // $0.05\r\n            return 5;\r\n        } else if (_commodity == Fruit.Avocado) {\r\n            // $0.30\r\n            return 30;\r\n        } else if (_commodity == Fruit.Banana) {\r\n            // $1\r\n            return 100;\r\n        } else if (_commodity == Fruit.Coconut) {\r\n            // $5\r\n            return 500;\r\n        } else if (_commodity == Fruit.Pineapple) {\r\n            // $10\r\n            return 1000;\r\n        } else if (_commodity == Fruit.Money) {\r\n            // $50\r\n            return 5000;\r\n        } else if (_commodity == Fruit.Diamond) {\r\n            // $1000\r\n            return 100000;\r\n        }\r\n\r\n        require(false, \"Invalid fruit\");\r\n\r\n        return 100000;\r\n    }\r\n\r\n    function getFruitPrice(Fruit _commodity) private view returns (uint price) {\r\n        if (_commodity == Fruit.Apple) {\r\n            // $0.10\r\n            return 10;\r\n        } else if (_commodity == Fruit.Avocado) {\r\n            // $0.60\r\n            return 60;\r\n        } else if (_commodity == Fruit.Banana) {\r\n            // $2.8\r\n            return 280;\r\n        } else if (_commodity == Fruit.Coconut) {\r\n            // $11.5\r\n            return 1150;\r\n        } else if (_commodity == Fruit.Pineapple) {\r\n            // $32\r\n            return 3200;\r\n        } else if (_commodity == Fruit.Money) {\r\n            // $100\r\n            return 10000;\r\n        } else if (_commodity == Fruit.Diamond) {\r\n            // $1275\r\n            return 127500;\r\n        }\r\n\r\n        require(false, \"Invalid fruit\");\r\n\r\n        return 0;\r\n    }\r\n    \r\n    function requiredLandSize(Fruit _commodity) private view returns (uint size) {\r\n        if (_commodity == Fruit.Apple || _commodity == Fruit.Avocado) {\r\n            return 5;\r\n        } else if (_commodity == Fruit.Banana || _commodity == Fruit.Coconut) {\r\n            return 8;\r\n        } else if (_commodity == Fruit.Pineapple) {\r\n            return 11;\r\n        } else if (_commodity == Fruit.Money) {\r\n            return 14;\r\n        } else if (_commodity == Fruit.Diamond) {\r\n            // $32\r\n            return 17;\r\n        }\r\n\r\n        require(false, \"Invalid fruit\");\r\n\r\n        return 99;\r\n    }\r\n    \r\n       \r\n    function getLandPrice(uint landSize) private view returns (uint price) {\r\n        if (landSize <= 5) {\r\n            // $5 - 10 hours of planting avocados on 5 fields\r\n            return 500;\r\n        } else if (landSize <= 8) {\r\n            // $250 - 6 days planting coconuts on 8 fields\r\n            return 250000;\r\n        } else if (landSize <= 11) {\r\n            // $2000 - 4 weeks planting pineapples on 11 fields\r\n            return 500000;\r\n        }\r\n        \r\n        // $8400 - 3 months of planting Money trees on 14 fields\r\n        return 8400000;\r\n    }\r\n\r\n\r\n    function concatenate(\r\n        string memory a,\r\n        string memory b)\r\n        internal\r\n        pure\r\n        returns(string memory) {\r\n            return string(abi.encodePacked(a, b));\r\n        }\r\n\r\n    function uint2str(uint _i) internal pure returns (string memory _uintAsString) {\r\n        if (_i == 0) {\r\n            return \"0\";\r\n        }\r\n        uint j = _i;\r\n        uint len;\r\n        while (j != 0) {\r\n            len++;\r\n            j /= 10;\r\n        }\r\n        bytes memory bstr = new bytes(len);\r\n        uint k = len;\r\n        while (_i != 0) {\r\n            k = k-1;\r\n            uint8 temp = (48 + uint8(_i - _i / 10 * 10));\r\n            bytes1 b1 = bytes1(temp);\r\n            bstr[k] = b1;\r\n            _i /= 10;\r\n        }\r\n        return string(bstr);\r\n    }\r\n\r\n    function buildFarm(Transaction[] memory _transactions) private view returns (Farm memory currentFarm) {\r\n        uint lastSyncedAt = syncedAt[msg.sender];\r\n        require(lastSyncedAt > 0, \"Farm does not exist\");\r\n\r\n        Square[] memory land = fields[msg.sender];\r\n        uint balance = getBalance();\r\n\r\n        for (uint index = 0; index < _transactions.length; index++) {\r\n            Transaction memory transaction = _transactions[index];\r\n\r\n            // Fraud protection\r\n            require(transaction.createdAt >= lastSyncedAt, \"You can not perform an action in the past\");\r\n            require(transaction.createdAt <= block.timestamp, \"You can not perform an action in the future\");\r\n            if (index > 0) {\r\n                require(transaction.createdAt >= _transactions[index - 1].createdAt, \"Transactions are not in order\");\r\n            }\r\n\r\n            require(land.length >= requiredLandSize(transaction.commodity), \"Your farm is not ready to plant this fruit. Level up first.\");\r\n\r\n            if (transaction.action == Action.Plant) {\r\n                uint price = getSeedPrice(transaction.commodity);\r\n                require(balance >= price, \"Not enough money to buy seed\");\r\n\r\n                balance = balance.sub(price);\r\n\r\n                Square memory plantedSeed = Square({\r\n                    commodity: transaction.commodity,\r\n                    createdAt: transaction.createdAt\r\n                });\r\n                land[transaction.landIndex] = plantedSeed;\r\n            } else if (transaction.action == Action.Harvest) {\r\n                Square memory square = land[transaction.landIndex];\r\n                require(square.commodity == transaction.commodity, \"Invalid farm: No fruit exists\");\r\n\r\n                // Currently seconds\r\n                uint duration = transaction.createdAt - square.createdAt;\r\n                uint hoursToHarvest = getHarvestHours(transaction.commodity);\r\n                string memory durationString = uint2str(hoursToHarvest - duration);\r\n                string memory message = concatenate(\"Invalid farm: The fruit is not ripe, please wait: \", durationString);\r\n                require(duration >= hoursToHarvest, message);\r\n\r\n                // Clear the land\r\n                Square memory emptyLand = Square(Fruit.None, 0);\r\n                land[transaction.landIndex] = emptyLand;\r\n\r\n                uint price = getFruitPrice(transaction.commodity);\r\n\r\n                balance = balance.add(price);\r\n            }\r\n        }\r\n\r\n        return Farm({\r\n            land: land,\r\n            balance: balance,\r\n            transactions: _transactions\r\n        });\r\n    }\r\n\r\n\r\n    function getHoursHarvested(Transaction[] memory _transactions) private view returns (uint) {\r\n        uint secondsHarvested = 0;\r\n        for (uint i=0; i < _transactions.length; i += 1) {\r\n            if (_transactions[i].action == Action.Harvest) {\r\n                secondsHarvested = secondsHarvested + getHarvestHours(_transactions[i].commodity);\r\n            }\r\n        }\r\n\r\n        // Solidity uses integer division, which is equivalent to floored division.\r\n        // TESTING - return secondsHarvested / 3600;\r\n        return secondsHarvested * 10;\r\n    }\r\n\r\n    function sync(Transaction[] memory _transactions) public returns (Farm memory) {\r\n        uint balance = getBalance();\r\n        Farm memory farm = buildFarm(_transactions);\r\n\r\n        // Update the land\r\n        Square[] storage land = fields[msg.sender];\r\n        for (uint i=0; i < farm.land.length; i += 1) {\r\n            land[i] = farm.land[i];\r\n        }\r\n\r\n\r\n        // Update the balance - mint or burn\r\n        if (farm.balance > balance) {\r\n            uint profit = farm.balance - balance;\r\n            uint fmc = dollarToFMC(profit);\r\n            token.mint(msg.sender, fmc);\r\n            \r\n            // An additional 5% of profit goes to developers & designers of Fruit Market\r\n            uint commission = fmc / 5;\r\n            token.mint(token.getOwner(), commission);\r\n        } else if (farm.balance < balance) {\r\n            uint loss = balance - farm.balance;\r\n            uint fmc = dollarToFMC(loss);\r\n            token.burn(msg.sender, fmc);\r\n        }\r\n\r\n        totalHoursHarvested += getHoursHarvested(_transactions);\r\n\r\n        syncedAt[msg.sender] = block.timestamp;\r\n\r\n        emit FarmSynced(msg.sender);\r\n        return farm;\r\n    }\r\n    \r\n     \r\n    function levelUp() public {\r\n        // TODO modifier\r\n        uint lastSyncedAt = syncedAt[msg.sender];\r\n        require(lastSyncedAt > 0, \"Farm does not exist\");\r\n        \r\n        require(fields[msg.sender].length <= 17, \"You are at the maximum level\");\r\n\r\n        Square[] storage land = fields[msg.sender];\r\n\r\n        uint price = getLandPrice(land.length);\r\n        string memory priceString = uint2str(price);\r\n        string memory message = concatenate(\"Not enough money to level up: \", priceString);\r\n        uint balance = getBalance();\r\n        require(balance >= price, message);\r\n\r\n        Square memory empty = Square(Fruit.None, 0);\r\n\r\n        // Do not bother rearranging the array - it is already in a strange square - Add 3 fields\r\n        for (uint index = 0; index < 3; index++) {\r\n            land.push(empty);\r\n        }\r\n\r\n        uint fmc = dollarToFMC(price);\r\n        token.burn(msg.sender, fmc);\r\n\r\n        emit FarmSynced(msg.sender);\r\n    }\r\n\r\n\r\n    function sqrt(uint x) private pure returns (uint y) {\r\n        uint z = (x + 1) / 2;\r\n        y = x;\r\n        while (z < y) {\r\n            y = z;\r\n            z = (x / z + z) / 2;\r\n        }\r\n    }\r\n    \r\n    \r\n    // With 17 fields 24/7 for 1 year a user would harvest 148920 hours\r\n    // This is when 29784000000 hours have been harvested - I.e. 200,000 diamond farmers for 1 year 24/7\r\n    uint ORIGINAL_CONVERSION = 100000;\r\n    \r\n    function getConversion() public view returns (uint conversion) {\r\n        if (totalHoursHarvested == 0) {\r\n            return ORIGINAL_CONVERSION;\r\n        }\r\n\r\n        uint hourRoot = sqrt(totalHoursHarvested);\r\n\r\n        // We are at the maximum conversion rate, now it is 1:1\r\n        if (hourRoot > ORIGINAL_CONVERSION) {\r\n            return 1;\r\n        }\r\n\r\n        return ORIGINAL_CONVERSION - hourRoot;\r\n    }\r\n\r\n    function dollarToFMC(uint dollars) public view returns (uint fmc) {\r\n        uint conversion = getConversion();\r\n        uint realFMC = dollars * conversion;\r\n\r\n        // Remove the decimal places\r\n        return realFMC / 100;\r\n    }\r\n\r\n    function FMCToDollar(uint fmc) public view returns (uint dollars) {\r\n        uint conversion = getConversion();\r\n        \r\n        //Add decimal places\r\n        uint fmcWithDecimals = fmc * 100;\r\n        return fmcWithDecimals / conversion;\r\n    }\r\n\r\n    function getBalance() public view returns (uint balance) {\r\n        uint fmc = token.balanceOf(msg.sender);\r\n        return FMCToDollar(fmc);\r\n    }\r\n\r\n    // Append a transaction to the list\r\n    function addTransaction(Transaction[] memory _transactions, Transaction memory _transaction) private view returns (Transaction[] memory) {\r\n        Transaction[] memory newTransactions = new Transaction[](_transactions.length + 1);\r\n        for (uint i=0; i < _transactions.length; i += 1) {\r\n            newTransactions[i] = _transactions[i];\r\n        }\r\n\r\n        // Add the new transaction\r\n        newTransactions[_transactions.length] = _transaction;\r\n\r\n        return newTransactions;\r\n    }\r\n\r\n    function plant(Transaction[] memory _transactions, Fruit _commodity, uint landIndex) public view returns (Farm memory farm) {\r\n        Transaction memory plantAppleTransaction = Transaction({\r\n            action: Action.Plant,\r\n            commodity: _commodity,\r\n            landIndex: landIndex,\r\n            createdAt: block.timestamp\r\n        });\r\n        Transaction[] memory newTransactions = addTransaction(_transactions, plantAppleTransaction);\r\n\r\n        Farm memory updatedFarm = buildFarm(newTransactions);\r\n        return (updatedFarm);\r\n    }\r\n\r\n    function harvest(Transaction[] memory _transactions, Fruit _commodity, uint landIndex) public view returns (Farm memory farm) {\r\n        // Add the new transaction\r\n        Transaction memory plantAppleTransaction = Transaction({\r\n            action: Action.Harvest,\r\n            commodity: _commodity,\r\n            landIndex: landIndex,\r\n            createdAt: block.timestamp\r\n        });\r\n        Transaction[] memory newTransactions = addTransaction(_transactions, plantAppleTransaction);\r\n\r\n        Farm memory updatedFarm = buildFarm(newTransactions);\r\n        return (updatedFarm);\r\n    }\r\n}\r\n",
  "sourcePath": "/Users/adamhannigan/Documents/workspace/fruit-market/src/contracts/Farm.sol",
  "compiler": {
    "name": "solc",
    "version": "0.7.6+commit.7338295f.Emscripten.clang"
  },
  "schemaVersion": "3.4.0",
  "updatedAt": "2021-05-30T07:57:34.543Z",
  "networkType": "ethereum",
  "devdoc": {
    "kind": "dev",
    "methods": {},
    "version": 1
  },
  "userdoc": {
    "kind": "user",
    "methods": {},
    "version": 1
  }
}