{
  "contractName": "Farm",
  "abi": [
    {
      "inputs": [
        {
          "internalType": "contract Token",
          "name": "_token",
          "type": "address"
        }
      ],
      "stateMutability": "nonpayable",
      "type": "constructor"
    },
    {
      "anonymous": false,
      "inputs": [
        {
          "indexed": true,
          "internalType": "address",
          "name": "_address",
          "type": "address"
        }
      ],
      "name": "FarmCreated",
      "type": "event"
    },
    {
      "anonymous": false,
      "inputs": [
        {
          "indexed": true,
          "internalType": "address",
          "name": "_address",
          "type": "address"
        }
      ],
      "name": "FarmSynced",
      "type": "event"
    },
    {
      "inputs": [],
      "name": "createFarm",
      "outputs": [],
      "stateMutability": "nonpayable",
      "type": "function"
    },
    {
      "inputs": [],
      "name": "lastSyncedAt",
      "outputs": [
        {
          "internalType": "uint256",
          "name": "",
          "type": "uint256"
        }
      ],
      "stateMutability": "view",
      "type": "function",
      "constant": true
    },
    {
      "inputs": [],
      "name": "getLand",
      "outputs": [
        {
          "components": [
            {
              "internalType": "enum Farm.Fruit",
              "name": "fruit",
              "type": "uint8"
            },
            {
              "internalType": "uint256",
              "name": "createdAt",
              "type": "uint256"
            }
          ],
          "internalType": "struct Farm.Square[]",
          "name": "",
          "type": "tuple[]"
        }
      ],
      "stateMutability": "view",
      "type": "function",
      "constant": true
    },
    {
      "inputs": [
        {
          "components": [
            {
              "internalType": "enum Farm.Action",
              "name": "action",
              "type": "uint8"
            },
            {
              "internalType": "enum Farm.Fruit",
              "name": "fruit",
              "type": "uint8"
            },
            {
              "internalType": "uint256",
              "name": "landIndex",
              "type": "uint256"
            },
            {
              "internalType": "uint256",
              "name": "createdAt",
              "type": "uint256"
            }
          ],
          "internalType": "struct Farm.Transaction[]",
          "name": "_transactions",
          "type": "tuple[]"
        }
      ],
      "name": "sync",
      "outputs": [
        {
          "components": [
            {
              "components": [
                {
                  "internalType": "enum Farm.Fruit",
                  "name": "fruit",
                  "type": "uint8"
                },
                {
                  "internalType": "uint256",
                  "name": "createdAt",
                  "type": "uint256"
                }
              ],
              "internalType": "struct Farm.Square[]",
              "name": "land",
              "type": "tuple[]"
            },
            {
              "internalType": "uint256",
              "name": "balance",
              "type": "uint256"
            },
            {
              "components": [
                {
                  "internalType": "enum Farm.Action",
                  "name": "action",
                  "type": "uint8"
                },
                {
                  "internalType": "enum Farm.Fruit",
                  "name": "fruit",
                  "type": "uint8"
                },
                {
                  "internalType": "uint256",
                  "name": "landIndex",
                  "type": "uint256"
                },
                {
                  "internalType": "uint256",
                  "name": "createdAt",
                  "type": "uint256"
                }
              ],
              "internalType": "struct Farm.Transaction[]",
              "name": "transactions",
              "type": "tuple[]"
            }
          ],
          "internalType": "struct Farm.Farm",
          "name": "",
          "type": "tuple"
        }
      ],
      "stateMutability": "nonpayable",
      "type": "function"
    },
    {
      "inputs": [],
      "name": "levelUp",
      "outputs": [],
      "stateMutability": "nonpayable",
      "type": "function"
    },
    {
      "inputs": [],
      "name": "getMarketRate",
      "outputs": [
        {
          "internalType": "uint256",
          "name": "conversion",
          "type": "uint256"
        }
      ],
      "stateMutability": "view",
      "type": "function",
      "constant": true
    },
    {
      "inputs": [
        {
          "components": [
            {
              "internalType": "enum Farm.Action",
              "name": "action",
              "type": "uint8"
            },
            {
              "internalType": "enum Farm.Fruit",
              "name": "fruit",
              "type": "uint8"
            },
            {
              "internalType": "uint256",
              "name": "landIndex",
              "type": "uint256"
            },
            {
              "internalType": "uint256",
              "name": "createdAt",
              "type": "uint256"
            }
          ],
          "internalType": "struct Farm.Transaction[]",
          "name": "_transactions",
          "type": "tuple[]"
        },
        {
          "internalType": "enum Farm.Fruit",
          "name": "_fruit",
          "type": "uint8"
        },
        {
          "internalType": "uint256",
          "name": "landIndex",
          "type": "uint256"
        }
      ],
      "name": "plant",
      "outputs": [
        {
          "components": [
            {
              "components": [
                {
                  "internalType": "enum Farm.Fruit",
                  "name": "fruit",
                  "type": "uint8"
                },
                {
                  "internalType": "uint256",
                  "name": "createdAt",
                  "type": "uint256"
                }
              ],
              "internalType": "struct Farm.Square[]",
              "name": "land",
              "type": "tuple[]"
            },
            {
              "internalType": "uint256",
              "name": "balance",
              "type": "uint256"
            },
            {
              "components": [
                {
                  "internalType": "enum Farm.Action",
                  "name": "action",
                  "type": "uint8"
                },
                {
                  "internalType": "enum Farm.Fruit",
                  "name": "fruit",
                  "type": "uint8"
                },
                {
                  "internalType": "uint256",
                  "name": "landIndex",
                  "type": "uint256"
                },
                {
                  "internalType": "uint256",
                  "name": "createdAt",
                  "type": "uint256"
                }
              ],
              "internalType": "struct Farm.Transaction[]",
              "name": "transactions",
              "type": "tuple[]"
            }
          ],
          "internalType": "struct Farm.Farm",
          "name": "farm",
          "type": "tuple"
        }
      ],
      "stateMutability": "view",
      "type": "function",
      "constant": true
    },
    {
      "inputs": [
        {
          "components": [
            {
              "internalType": "enum Farm.Action",
              "name": "action",
              "type": "uint8"
            },
            {
              "internalType": "enum Farm.Fruit",
              "name": "fruit",
              "type": "uint8"
            },
            {
              "internalType": "uint256",
              "name": "landIndex",
              "type": "uint256"
            },
            {
              "internalType": "uint256",
              "name": "createdAt",
              "type": "uint256"
            }
          ],
          "internalType": "struct Farm.Transaction[]",
          "name": "_transactions",
          "type": "tuple[]"
        },
        {
          "internalType": "enum Farm.Fruit",
          "name": "_fruit",
          "type": "uint8"
        },
        {
          "internalType": "uint256",
          "name": "landIndex",
          "type": "uint256"
        }
      ],
      "name": "harvest",
      "outputs": [
        {
          "components": [
            {
              "components": [
                {
                  "internalType": "enum Farm.Fruit",
                  "name": "fruit",
                  "type": "uint8"
                },
                {
                  "internalType": "uint256",
                  "name": "createdAt",
                  "type": "uint256"
                }
              ],
              "internalType": "struct Farm.Square[]",
              "name": "land",
              "type": "tuple[]"
            },
            {
              "internalType": "uint256",
              "name": "balance",
              "type": "uint256"
            },
            {
              "components": [
                {
                  "internalType": "enum Farm.Action",
                  "name": "action",
                  "type": "uint8"
                },
                {
                  "internalType": "enum Farm.Fruit",
                  "name": "fruit",
                  "type": "uint8"
                },
                {
                  "internalType": "uint256",
                  "name": "landIndex",
                  "type": "uint256"
                },
                {
                  "internalType": "uint256",
                  "name": "createdAt",
                  "type": "uint256"
                }
              ],
              "internalType": "struct Farm.Transaction[]",
              "name": "transactions",
              "type": "tuple[]"
            }
          ],
          "internalType": "struct Farm.Farm",
          "name": "farm",
          "type": "tuple"
        }
      ],
      "stateMutability": "view",
      "type": "function",
      "constant": true
    }
  ],
  "bytecode": "0x60806040523480156200001157600080fd5b50604051620033fb380380620033fb833981810160405281019062000037919062000095565b806000806101000a81548173ffffffffffffffffffffffffffffffffffffffff021916908373ffffffffffffffffffffffffffffffffffffffff1602179055505062000123565b6000815190506200008f8162000109565b92915050565b600060208284031215620000a857600080fd5b6000620000b8848285016200007e565b91505092915050565b6000620000ce82620000e9565b9050919050565b6000620000e282620000c1565b9050919050565b600073ffffffffffffffffffffffffffffffffffffffff82169050919050565b6200011481620000d5565b81146200012057600080fd5b50565b6132c880620001336000396000f3fe608060405234801561001057600080fd5b50600436106100885760003560e01c8063861a1cad1161005b578063861a1cad146100dd578063aa5f6e0f146100fb578063d53f9c9b1461012b578063f1bbda041461015b57610088565b80631d5ec3cb1461008d578063285532dd146100975780634ea1ecf9146100b55780635690314c146100bf575b600080fd5b61009561018b565b005b61009f61050f565b6040516100ac9190612fa2565b60405180910390f35b6100bd610556565b005b6100c7610aca565b6040516100d49190612dfc565b60405180910390f35b6100e5610b9d565b6040516100f29190612fa2565b60405180910390f35b610115600480360381019061011091906126d7565b610d7a565b6040516101229190612f80565b60405180910390f35b61014560048036038101906101409190612696565b610de5565b6040516101529190612f80565b60405180910390f35b610175600480360381019061017091906126d7565b611172565b6040516101829190612f80565b60405180910390f35b6000600260003373ffffffffffffffffffffffffffffffffffffffff1673ffffffffffffffffffffffffffffffffffffffff16815260200190815260200160002054905060008114610212576040517f08c379a000000000000000000000000000000000000000000000000000000000815260040161020990612e40565b60405180910390fd5b6000600160003373ffffffffffffffffffffffffffffffffffffffff1673ffffffffffffffffffffffffffffffffffffffff1681526020019081526020016000209050600060405180604001604052806000600781111561026f57fe5b8152602001428152509050600060405180604001604052806001600781111561029457fe5b81526020014281525090508282908060018154018082558091505060019003906000526020600020906002020160009091909190915060008201518160000160006101000a81548160ff021916908360078111156102ee57fe5b02179055506020820151816001015550508281908060018154018082558091505060019003906000526020600020906002020160009091909190915060008201518160000160006101000a81548160ff0219169083600781111561034e57fe5b02179055506020820151816001015550508281908060018154018082558091505060019003906000526020600020906002020160009091909190915060008201518160000160006101000a81548160ff021916908360078111156103ae57fe5b02179055506020820151816001015550508281908060018154018082558091505060019003906000526020600020906002020160009091909190915060008201518160000160006101000a81548160ff0219169083600781111561040e57fe5b02179055506020820151816001015550508282908060018154018082558091505060019003906000526020600020906002020160009091909190915060008201518160000160006101000a81548160ff0219169083600781111561046e57fe5b0217905550602082015181600101555050606042600260003373ffffffffffffffffffffffffffffffffffffffff1673ffffffffffffffffffffffffffffffffffffffff168152602001908152602001600020819055503373ffffffffffffffffffffffffffffffffffffffff167f46963f16723a084f2199eb74021bd97647aa6c8960612a9a031ce509d40d4ca760405160405180910390a25050505050565b6000600260003373ffffffffffffffffffffffffffffffffffffffff1673ffffffffffffffffffffffffffffffffffffffff16815260200190815260200160002054905090565b6000600260003373ffffffffffffffffffffffffffffffffffffffff1673ffffffffffffffffffffffffffffffffffffffff168152602001908152602001600020549050600081116105dd576040517f08c379a00000000000000000000000000000000000000000000000000000000081526004016105d490612f00565b60405180910390fd5b6011600160003373ffffffffffffffffffffffffffffffffffffffff1673ffffffffffffffffffffffffffffffffffffffff168152602001908152602001600020805490501115610663576040517f08c379a000000000000000000000000000000000000000000000000000000000815260040161065a90612ee0565b60405180910390fd5b6000600160003373ffffffffffffffffffffffffffffffffffffffff1673ffffffffffffffffffffffffffffffffffffffff168152602001908152602001600020905060006106b0610b9d565b905060006106c183805490506111de565b905060008282816106ce57fe5b04905060006106dc826112dc565b9050600061071f6040518060400160405280601e81526020017f4e6f7420656e6f756768206d6f6e657920746f206c6576656c2075703a2000008152508361142c565b905060008060009054906101000a900473ffffffffffffffffffffffffffffffffffffffff1673ffffffffffffffffffffffffffffffffffffffff166370a08231336040518263ffffffff1660e01b815260040161077d9190612d8f565b60206040518083038186803b15801561079557600080fd5b505afa1580156107a9573d6000803e3d6000fd5b505050506040513d601f19601f820116820180604052508101906107cd919061273e565b9050838110158290610815576040517f08c379a000000000000000000000000000000000000000000000000000000000815260040161080c9190612e1e565b60405180910390fd5b50600060405180604001604052806000600781111561083057fe5b815260200142815250905060005b60038110156108b4578882908060018154018082558091505060019003906000526020600020906002020160009091909190915060008201518160000160006101000a81548160ff0219169083600781111561089657fe5b0217905550602082015181600101555050808060010191505061083e565b5060008054906101000a900473ffffffffffffffffffffffffffffffffffffffff1673ffffffffffffffffffffffffffffffffffffffff16639dc29fac33876040518363ffffffff1660e01b8152600401610910929190612daa565b600060405180830381600087803b15801561092a57600080fd5b505af115801561093e573d6000803e3d6000fd5b5050505060006005868161094e57fe5b04905060008054906101000a900473ffffffffffffffffffffffffffffffffffffffff1673ffffffffffffffffffffffffffffffffffffffff166340c10f1960008054906101000a900473ffffffffffffffffffffffffffffffffffffffff1673ffffffffffffffffffffffffffffffffffffffff1663893d20e86040518163ffffffff1660e01b815260040160206040518083038186803b1580156109f357600080fd5b505afa158015610a07573d6000803e3d6000fd5b505050506040513d601f19601f82011682018060405250810190610a2b919061266d565b836040518363ffffffff1660e01b8152600401610a49929190612dd3565b600060405180830381600087803b158015610a6357600080fd5b505af1158015610a77573d6000803e3d6000fd5b505050503373ffffffffffffffffffffffffffffffffffffffff167fbe35fe23c13a419d565edccb8c8bdedc160c5b9a82873e431b545080d6f3c68860405160405180910390a250505050505050505050565b6060600160003373ffffffffffffffffffffffffffffffffffffffff1673ffffffffffffffffffffffffffffffffffffffff168152602001908152602001600020805480602002602001604051908101604052809291908181526020016000905b82821015610b9457838290600052602060002090600202016040518060400160405290816000820160009054906101000a900460ff166007811115610b6c57fe5b6007811115610b7757fe5b815260200160018201548152505081526020019060010190610b2b565b50505050905090565b60008060008054906101000a900473ffffffffffffffffffffffffffffffffffffffff1673ffffffffffffffffffffffffffffffffffffffff166318160ddd6040518163ffffffff1660e01b815260040160206040518083038186803b158015610c0657600080fd5b505afa158015610c1a573d6000803e3d6000fd5b505050506040513d601f19601f82011682018060405250810190610c3e919061273e565b905060008060009054906101000a900473ffffffffffffffffffffffffffffffffffffffff1673ffffffffffffffffffffffffffffffffffffffff1663313ce5676040518163ffffffff1660e01b815260040160206040518083038186803b158015610ca957600080fd5b505afa158015610cbd573d6000803e3d6000fd5b505050506040513d601f19601f82011682018060405250810190610ce19190612767565b60ff16905080600a0a620f424002821015610d0157600192505050610d77565b80600a0a61271002821015610d1b57600a92505050610d77565b80600a0a620186a002821015610d3657606492505050610d77565b80600a0a620186a002821015610d52576103e892505050610d77565b80600a0a620186a002821015610d6e5761271092505050610d77565b620186a0925050505b90565b610d82612486565b60006040518060800160405280600180811115610d9b57fe5b8152602001856007811115610dac57fe5b81526020018481526020014281525090506000610dc98683611458565b90506000610dd68261151a565b90508093505050509392505050565b610ded612486565b60008060009054906101000a900473ffffffffffffffffffffffffffffffffffffffff1673ffffffffffffffffffffffffffffffffffffffff166370a08231336040518263ffffffff1660e01b8152600401610e499190612d8f565b60206040518083038186803b158015610e6157600080fd5b505afa158015610e75573d6000803e3d6000fd5b505050506040513d601f19601f82011682018060405250810190610e99919061273e565b90506000610ea68461151a565b90506000600160003373ffffffffffffffffffffffffffffffffffffffff1673ffffffffffffffffffffffffffffffffffffffff168152602001908152602001600020905060005b826000015151811015610f6e5782600001518181518110610f0b57fe5b6020026020010151828281548110610f1f57fe5b906000526020600020906002020160008201518160000160006101000a81548160ff02191690836007811115610f5157fe5b021790555060208201518160010155905050600181019050610eee565b508282602001511115611029576000610f94848460200151611b7990919063ffffffff16565b905060008054906101000a900473ffffffffffffffffffffffffffffffffffffffff1673ffffffffffffffffffffffffffffffffffffffff166340c10f1933836040518363ffffffff1660e01b8152600401610ff1929190612daa565b600060405180830381600087803b15801561100b57600080fd5b505af115801561101f573d6000803e3d6000fd5b50505050506110e0565b82826020015110156110df57600061104e836020015185611b7990919063ffffffff16565b905060008054906101000a900473ffffffffffffffffffffffffffffffffffffffff1673ffffffffffffffffffffffffffffffffffffffff16639dc29fac33836040518363ffffffff1660e01b81526004016110ab929190612daa565b600060405180830381600087803b1580156110c557600080fd5b505af11580156110d9573d6000803e3d6000fd5b50505050505b5b42600260003373ffffffffffffffffffffffffffffffffffffffff1673ffffffffffffffffffffffffffffffffffffffff168152602001908152602001600020819055503373ffffffffffffffffffffffffffffffffffffffff167fbe35fe23c13a419d565edccb8c8bdedc160c5b9a82873e431b545080d6f3c68860405160405180910390a2819350505050919050565b61117a612486565b600060405180608001604052806000600181111561119457fe5b81526020018560078111156111a557fe5b815260200184815260200142815250905060006111c28683611458565b905060006111cf8261151a565b90508093505050509392505050565b60008060008054906101000a900473ffffffffffffffffffffffffffffffffffffffff1673ffffffffffffffffffffffffffffffffffffffff1663313ce5676040518163ffffffff1660e01b815260040160206040518083038186803b15801561124757600080fd5b505afa15801561125b573d6000803e3d6000fd5b505050506040513d601f19601f8201168201806040525081019061127f9190612767565b60ff1690506005831161129b5780600a0a6005029150506112d7565b600883116112b35780600a0a6109c4029150506112d7565b600b83116112cb5780600a0a611388029150506112d7565b80600a0a6120d0029150505b919050565b60606000821415611324576040518060400160405280600181526020017f30000000000000000000000000000000000000000000000000000000000000008152509050611427565b600082905060005b6000821461134e578080600101915050600a828161134657fe5b04915061132c565b60008167ffffffffffffffff8111801561136757600080fd5b506040519080825280601f01601f19166020018201604052801561139a5781602001600182028036833780820191505090505b50905060008290505b6000861461141f576001810390506000600a8088816113be57fe5b04028703603001905060008160f81b9050808484815181106113dc57fe5b60200101907effffffffffffffffffffffffffffffffffffffffffffffffffffffffffffff1916908160001a905350600a888161141557fe5b04975050506113a3565b819450505050505b919050565b60608282604051602001611441929190612d6b565b604051602081830303815290604052905092915050565b60606000600184510167ffffffffffffffff8111801561147757600080fd5b506040519080825280602002602001820160405280156114b157816020015b61149e6124a7565b8152602001906001900390816114965790505b50905060005b84518110156114f6578481815181106114cc57fe5b60200260200101518282815181106114e057fe5b60200260200101819052506001810190506114b7565b50828185518151811061150557fe5b60200260200101819052508091505092915050565b611522612486565b6000600260003373ffffffffffffffffffffffffffffffffffffffff1673ffffffffffffffffffffffffffffffffffffffff168152602001908152602001600020549050600081116115a9576040517f08c379a00000000000000000000000000000000000000000000000000000000081526004016115a090612f00565b60405180910390fd5b6000600160003373ffffffffffffffffffffffffffffffffffffffff1673ffffffffffffffffffffffffffffffffffffffff168152602001908152602001600020805480602002602001604051908101604052809291908181526020016000905b8282101561167357838290600052602060002090600202016040518060400160405290816000820160009054906101000a900460ff16600781111561164b57fe5b600781111561165657fe5b81526020016001820154815250508152602001906001019061160a565b50505050905060008060009054906101000a900473ffffffffffffffffffffffffffffffffffffffff1673ffffffffffffffffffffffffffffffffffffffff166370a08231336040518263ffffffff1660e01b81526004016116d59190612d8f565b60206040518083038186803b1580156116ed57600080fd5b505afa158015611701573d6000803e3d6000fd5b505050506040513d601f19601f82011682018060405250810190611725919061273e565b90506000611731610b9d565b905060005b8651811015611b5257600087828151811061174d57fe5b60200260200101519050858160600151101561179e576040517f08c379a000000000000000000000000000000000000000000000000000000000815260040161179590612e80565b60405180910390fd5b42816060015111156117e5576040517f08c379a00000000000000000000000000000000000000000000000000000000081526004016117dc90612ec0565b60405180910390fd5b6000821115611850578760018303815181106117fd57fe5b6020026020010151606001518160600151101561184f576040517f08c379a000000000000000000000000000000000000000000000000000000000815260040161184690612e60565b60405180910390fd5b5b61185d8160200151611bc3565b855110156118a0576040517f08c379a000000000000000000000000000000000000000000000000000000000815260040161189790612f40565b60405180910390fd5b600060018111156118ad57fe5b816000015160018111156118bd57fe5b141561198a5760006118d28260200151611d19565b905060008482816118df57fe5b04905080861015611925576040517f08c379a000000000000000000000000000000000000000000000000000000000815260040161191c90612ea0565b60405180910390fd5b6119388187611b7990919063ffffffff16565b9550600060405180604001604052808560200151600781111561195757fe5b815260200185606001518152509050808885604001518151811061197757fe5b6020026020010181905250505050611b44565b60018081111561199657fe5b816000015160018111156119a657fe5b1415611b43576000858260400151815181106119be57fe5b60200260200101519050816020015160078111156119d857fe5b816000015160078111156119e857fe5b14611a28576040517f08c379a0000000000000000000000000000000000000000000000000000000008152600401611a1f90612f20565b60405180910390fd5b6000816020015183606001510390506000611a468460200151611f71565b90506000611a558383036112dc565b90506000611a7b604051806060016040528060328152602001613261603291398361142c565b9050828410158190611ac3576040517f08c379a0000000000000000000000000000000000000000000000000000000008152600401611aba9190612e1e565b60405180910390fd5b506000604051806040016040528060006007811115611ade57fe5b815260200160008152509050808b886040015181518110611afb57fe5b60200260200101819052506000611b1588602001516120d8565b905060008a8281611b2257fe5b049050611b38818d61233e90919063ffffffff16565b9b5050505050505050505b5b508080600101915050611736565b50604051806060016040528084815260200183815260200187815250945050505050919050565b6000611bbb83836040518060400160405280601e81526020017f536166654d6174683a207375627472616374696f6e206f766572666c6f7700008152506123c6565b905092915050565b600060016007811115611bd257fe5b826007811115611bde57fe5b1480611c00575060026007811115611bf257fe5b826007811115611bfe57fe5b145b15611c0e5760059050611d14565b60036007811115611c1b57fe5b826007811115611c2757fe5b1480611c49575060046007811115611c3b57fe5b826007811115611c4757fe5b145b15611c575760089050611d14565b60056007811115611c6457fe5b826007811115611c7057fe5b1415611c7f57600b9050611d14565b60066007811115611c8c57fe5b826007811115611c9857fe5b1415611ca757600e9050611d14565b600780811115611cb357fe5b826007811115611cbf57fe5b1415611cce5760119050611d14565b6000611d0f576040517f08c379a0000000000000000000000000000000000000000000000000000000008152600401611d0690612f60565b60405180910390fd5b606390505b919050565b60008060008054906101000a900473ffffffffffffffffffffffffffffffffffffffff1673ffffffffffffffffffffffffffffffffffffffff1663313ce5676040518163ffffffff1660e01b815260040160206040518083038186803b158015611d8257600080fd5b505afa158015611d96573d6000803e3d6000fd5b505050506040513d601f19601f82011682018060405250810190611dba9190612767565b60ff16905060016007811115611dcc57fe5b836007811115611dd857fe5b1415611df757606481600a0a60010281611dee57fe5b04915050611f6c565b60026007811115611e0457fe5b836007811115611e1057fe5b1415611e2f57606481600a0a60060281611e2657fe5b04915050611f6c565b60036007811115611e3c57fe5b836007811115611e4857fe5b1415611e6757606481600a0a60140281611e5e57fe5b04915050611f6c565b60046007811115611e7457fe5b836007811115611e8057fe5b1415611e955780600a0a600102915050611f6c565b60056007811115611ea257fe5b836007811115611eae57fe5b1415611ec35780600a0a600202915050611f6c565b60066007811115611ed057fe5b836007811115611edc57fe5b1415611ef15780600a0a600a02915050611f6c565b600780811115611efd57fe5b836007811115611f0957fe5b1415611f1e5780600a0a60c802915050611f6c565b6000611f5f576040517f08c379a0000000000000000000000000000000000000000000000000000000008152600401611f5690612f60565b60405180910390fd5b80600a0a620186a0029150505b919050565b600060016007811115611f8057fe5b826007811115611f8c57fe5b1415611f9b57600190506120d3565b60026007811115611fa857fe5b826007811115611fb457fe5b1415611fc357600390506120d3565b60036007811115611fd057fe5b826007811115611fdc57fe5b1415611feb57600890506120d3565b60046007811115611ff857fe5b82600781111561200457fe5b141561201357601890506120d3565b6005600781111561202057fe5b82600781111561202c57fe5b141561203b57604890506120d3565b6006600781111561204857fe5b82600781111561205457fe5b14156120635760a890506120d3565b60078081111561206f57fe5b82600781111561207b57fe5b141561208b576102a090506120d3565b60006120cc576040517f08c379a00000000000000000000000000000000000000000000000000000000081526004016120c390612f60565b60405180910390fd5b6298967f90505b919050565b60008060008054906101000a900473ffffffffffffffffffffffffffffffffffffffff1673ffffffffffffffffffffffffffffffffffffffff1663313ce5676040518163ffffffff1660e01b815260040160206040518083038186803b15801561214157600080fd5b505afa158015612155573d6000803e3d6000fd5b505050506040513d601f19601f820116820180604052508101906121799190612767565b60ff1690506001600781111561218b57fe5b83600781111561219757fe5b14156121b657606481600a0a600202816121ad57fe5b04915050612339565b600260078111156121c357fe5b8360078111156121cf57fe5b14156121ee57606481600a0a600c02816121e557fe5b04915050612339565b600360078111156121fb57fe5b83600781111561220757fe5b141561222657606481600a0a6038028161221d57fe5b04915050612339565b6004600781111561223357fe5b83600781111561223f57fe5b141561225e57606481600a0a60e6028161225557fe5b04915050612339565b6005600781111561226b57fe5b83600781111561227757fe5b141561229757606481600a0a610280028161228e57fe5b04915050612339565b600660078111156122a457fe5b8360078111156122b057fe5b14156122c55780600a0a601402915050612339565b6007808111156122d157fe5b8360078111156122dd57fe5b14156122f25780600a0a60fa02915050612339565b6000612333576040517f08c379a000000000000000000000000000000000000000000000000000000000815260040161232a90612f60565b60405180910390fd5b60009150505b919050565b6000808284019050838110156123bc576040517f08c379a000000000000000000000000000000000000000000000000000000000815260040180806020018281038252601b8152602001807f536166654d6174683a206164646974696f6e206f766572666c6f77000000000081525060200191505060405180910390fd5b8091505092915050565b6000838311158290612473576040517f08c379a00000000000000000000000000000000000000000000000000000000081526004018080602001828103825283818151815260200191508051906020019080838360005b8381101561243857808201518184015260208101905061241d565b50505050905090810190601f1680156124655780820380516001836020036101000a031916815260200191505b509250505060405180910390fd5b5060008385039050809150509392505050565b60405180606001604052806060815260200160008152602001606081525090565b6040518060800160405280600060018111156124bf57fe5b8152602001600060078111156124d157fe5b815260200160008152602001600081525090565b60006124f86124f384612fee565b612fbd565b9050808382526020820190508285608086028201111561251757600080fd5b60005b85811015612547578161252d88826125ba565b84526020840193506080830192505060018101905061251a565b5050509392505050565b600081519050612560816131fb565b92915050565b600082601f83011261257757600080fd5b81356125878482602086016124e5565b91505092915050565b60008135905061259f81613212565b92915050565b6000813590506125b481613222565b92915050565b6000608082840312156125cc57600080fd5b6125d66080612fbd565b905060006125e684828501612590565b60008301525060206125fa848285016125a5565b602083015250604061260e8482850161262e565b60408301525060606126228482850161262e565b60608301525092915050565b60008135905061263d81613232565b92915050565b60008151905061265281613232565b92915050565b60008151905061266781613249565b92915050565b60006020828403121561267f57600080fd5b600061268d84828501612551565b91505092915050565b6000602082840312156126a857600080fd5b600082013567ffffffffffffffff8111156126c257600080fd5b6126ce84828501612566565b91505092915050565b6000806000606084860312156126ec57600080fd5b600084013567ffffffffffffffff81111561270657600080fd5b61271286828701612566565b9350506020612723868287016125a5565b92505060406127348682870161262e565b9150509250925092565b60006020828403121561275057600080fd5b600061275e84828501612643565b91505092915050565b60006020828403121561277957600080fd5b600061278784828501612658565b91505092915050565b600061279c8383612cc9565b60408301905092915050565b60006127b48383612cf8565b60808301905092915050565b6127c981613133565b82525050565b6127d8816130c4565b82525050565b60006127e98261303a565b6127f38185613075565b93506127fe8361301a565b8060005b8381101561282f5781516128168882612790565b97506128218361305b565b925050600181019050612802565b5085935050505092915050565b60006128478261303a565b6128518185613086565b935061285c8361301a565b8060005b8381101561288d5781516128748882612790565b975061287f8361305b565b925050600181019050612860565b5085935050505092915050565b60006128a582613045565b6128af8185613097565b93506128ba8361302a565b8060005b838110156128eb5781516128d288826127a8565b97506128dd83613068565b9250506001810190506128be565b5085935050505092915050565b61290181613145565b82525050565b61291081613157565b82525050565b600061292182613050565b61292b81856130a8565b935061293b81856020860161318d565b612944816131c2565b840191505092915050565b600061295a82613050565b61296481856130b9565b935061297481856020860161318d565b80840191505092915050565b600061298d6013836130a8565b91507f4661726d20616c726561647920657869737473000000000000000000000000006000830152602082019050919050565b60006129cd601d836130a8565b91507f5472616e73616374696f6e7320617265206e6f7420696e206f726465720000006000830152602082019050919050565b6000612a0d6029836130a8565b91507f596f752063616e206e6f7420706572666f726d20616e20616374696f6e20696e60008301527f20746865207061737400000000000000000000000000000000000000000000006020830152604082019050919050565b6000612a73601c836130a8565b91507f4e6f7420656e6f756768206d6f6e657920746f206275792073656564000000006000830152602082019050919050565b6000612ab3602b836130a8565b91507f596f752063616e206e6f7420706572666f726d20616e20616374696f6e20696e60008301527f20746865206675747572650000000000000000000000000000000000000000006020830152604082019050919050565b6000612b19601c836130a8565b91507f596f752061726520617420746865206d6178696d756d206c6576656c000000006000830152602082019050919050565b6000612b596013836130a8565b91507f4661726d20646f6573206e6f74206578697374000000000000000000000000006000830152602082019050919050565b6000612b99601d836130a8565b91507f496e76616c6964206661726d3a204e6f206672756974206578697374730000006000830152602082019050919050565b6000612bd9603b836130a8565b91507f596f7572206661726d206973206e6f7420726561647920746f20706c616e742060008301527f746869732066727569742e204c6576656c2075702066697273742e00000000006020830152604082019050919050565b6000612c3f600d836130a8565b91507f496e76616c6964206672756974000000000000000000000000000000000000006000830152602082019050919050565b60006060830160008301518482036000860152612c8f82826127de565b9150506020830151612ca46020860182612d4d565b5060408301518482036040860152612cbc828261289a565b9150508091505092915050565b604082016000820151612cdf6000850182612907565b506020820151612cf26020850182612d4d565b50505050565b608082016000820151612d0e60008501826128f8565b506020820151612d216020850182612907565b506040820151612d346040850182612d4d565b506060820151612d476060850182612d4d565b50505050565b612d568161311c565b82525050565b612d658161311c565b82525050565b6000612d77828561294f565b9150612d83828461294f565b91508190509392505050565b6000602082019050612da460008301846127c0565b92915050565b6000604082019050612dbf60008301856127c0565b612dcc6020830184612d5c565b9392505050565b6000604082019050612de860008301856127cf565b612df56020830184612d5c565b9392505050565b60006020820190508181036000830152612e16818461283c565b905092915050565b60006020820190508181036000830152612e388184612916565b905092915050565b60006020820190508181036000830152612e5981612980565b9050919050565b60006020820190508181036000830152612e79816129c0565b9050919050565b60006020820190508181036000830152612e9981612a00565b9050919050565b60006020820190508181036000830152612eb981612a66565b9050919050565b60006020820190508181036000830152612ed981612aa6565b9050919050565b60006020820190508181036000830152612ef981612b0c565b9050919050565b60006020820190508181036000830152612f1981612b4c565b9050919050565b60006020820190508181036000830152612f3981612b8c565b9050919050565b60006020820190508181036000830152612f5981612bcc565b9050919050565b60006020820190508181036000830152612f7981612c32565b9050919050565b60006020820190508181036000830152612f9a8184612c72565b905092915050565b6000602082019050612fb76000830184612d5c565b92915050565b6000604051905081810181811067ffffffffffffffff82111715612fe457612fe36131c0565b5b8060405250919050565b600067ffffffffffffffff821115613009576130086131c0565b5b602082029050602081019050919050565b6000819050602082019050919050565b6000819050602082019050919050565b600081519050919050565b600081519050919050565b600081519050919050565b6000602082019050919050565b6000602082019050919050565b600082825260208201905092915050565b600082825260208201905092915050565b600082825260208201905092915050565b600082825260208201905092915050565b600081905092915050565b60006130cf826130fc565b9050919050565b60008190506130e4826131d3565b919050565b60008190506130f7826131e7565b919050565b600073ffffffffffffffffffffffffffffffffffffffff82169050919050565b6000819050919050565b600060ff82169050919050565b600061313e82613169565b9050919050565b6000613150826130d6565b9050919050565b6000613162826130e9565b9050919050565b60006131748261317b565b9050919050565b6000613186826130fc565b9050919050565b60005b838110156131ab578082015181840152602081019050613190565b838111156131ba576000848401525b50505050565bfe5b6000601f19601f8301169050919050565b600281106131e4576131e36131c0565b5b50565b600881106131f8576131f76131c0565b5b50565b613204816130c4565b811461320f57600080fd5b50565b6002811061321f57600080fd5b50565b6008811061322f57600080fd5b50565b61323b8161311c565b811461324657600080fd5b50565b61325281613126565b811461325d57600080fd5b5056fe496e76616c6964206661726d3a20546865206672756974206973206e6f7420726970652c20706c6561736520776169743a20a2646970667358221220a59c524aa7d765c92d4a9cf56513155885603d6bb1f8e2d99628bf095d32bb9e64736f6c63430007060033",
  "immutableReferences": {},
  "source": "pragma solidity >=0.6.0 <0.8.0;\r\npragma experimental ABIEncoderV2;\r\n\r\nimport \"@openzeppelin/contracts/math/Math.sol\";\r\nimport \"./Token.sol\";\r\n\r\ncontract Farm {\r\n    using SafeMath for uint256;\r\n\r\n    Token private token;\r\n\r\n    struct Square {\r\n        Fruit fruit;\r\n        uint createdAt;\r\n    }\r\n\r\n    mapping(address => Square[]) fields;\r\n    mapping(address => uint) syncedAt;\r\n\r\n    constructor(Token _token) public {\r\n        token = _token;\r\n    }\r\n\r\n    event FarmCreated(address indexed _address);\r\n    event FarmSynced(address indexed _address);\r\n\r\n    function createFarm() public {\r\n        uint synced = syncedAt[msg.sender];\r\n        require(synced == 0, \"Farm already exists\");\r\n\r\n        Square[] storage land = fields[msg.sender];\r\n        Square memory empty = Square({\r\n            fruit: Fruit.None,\r\n            createdAt: block.timestamp\r\n        });\r\n        Square memory apple = Square({\r\n            fruit: Fruit.Apple,\r\n            createdAt: block.timestamp\r\n        });\r\n\r\n        // Each farmer starts with 5 fields & 3 apples\r\n        land.push(empty);\r\n        land.push(apple);\r\n        land.push(apple);\r\n        land.push(apple);\r\n        land.push(empty);\r\n\r\n        Transaction[] memory transactions;\r\n\r\n        syncedAt[msg.sender] = block.timestamp;\r\n\r\n        //Emit an event\r\n        emit FarmCreated(msg.sender);\r\n    }\r\n    \r\n    function lastSyncedAt() public view returns(uint) {\r\n        return syncedAt[msg.sender];\r\n    }\r\n\r\n\r\n    function getLand() public view returns (Square[] memory) {\r\n        return fields[msg.sender];\r\n    }\r\n\r\n    enum Action { Plant, Harvest }\r\n    enum Fruit { None, Apple, Avocado, Banana, Coconut, Pineapple, Money, Diamond }\r\n\r\n    struct Transaction { \r\n        Action action;\r\n        Fruit fruit;\r\n        uint landIndex;\r\n        uint createdAt;\r\n    }\r\n\r\n    struct Farm {\r\n        Square[] land;\r\n        uint balance;\r\n        Transaction[] transactions;\r\n    }\r\n\r\n    function getHarvestHours(Fruit _fruit) private view returns (uint) {\r\n        if (_fruit == Fruit.Apple) {\r\n            return 1;\r\n        } else if (_fruit == Fruit.Avocado) {\r\n            return 3;\r\n        } else if (_fruit == Fruit.Banana) {\r\n            return 8;\r\n        } else if (_fruit == Fruit.Coconut) {\r\n            // 1 Day\r\n            return 24;\r\n        } else if (_fruit == Fruit.Pineapple) {\r\n            // 3 days\r\n            return 72;\r\n        } else if (_fruit == Fruit.Money) {\r\n            // 1 week\r\n            return 168;\r\n        } else if (_fruit == Fruit.Diamond) {\r\n            // 4 weeks\r\n            return 672;\r\n        }\r\n\r\n        require(false, \"Invalid fruit\");\r\n        return 9999999;\r\n    }\r\n\r\n    function getSeedPrice(Fruit _fruit) private view returns (uint price) {\r\n        uint decimals = token.decimals();\r\n\r\n        if (_fruit == Fruit.Apple) {\r\n            //$0.01\r\n            return 1 * 10**decimals / 100;\r\n        } else if (_fruit == Fruit.Avocado) {\r\n            // $0.06\r\n            return 6 * 10**decimals / 100;\r\n        } else if (_fruit == Fruit.Banana) {\r\n            // $0.20\r\n            return 20 * 10**decimals / 100;\r\n        } else if (_fruit == Fruit.Coconut) {\r\n            // $1\r\n            return 1 * 10**decimals;\r\n        } else if (_fruit == Fruit.Pineapple) {\r\n            // $2\r\n            return 2 * 10**decimals;\r\n        } else if (_fruit == Fruit.Money) {\r\n            // $10\r\n            return 10 * 10**decimals;\r\n        } else if (_fruit == Fruit.Diamond) {\r\n            // $200\r\n            return 200 * 10**decimals;\r\n        }\r\n\r\n        require(false, \"Invalid fruit\");\r\n\r\n        return 100000 * 10**decimals;\r\n    }\r\n\r\n    function getFruitPrice(Fruit _fruit) private view returns (uint price) {\r\n        uint decimals = token.decimals();\r\n\r\n        if (_fruit == Fruit.Apple) {\r\n            // $0.02\r\n            return 2 * 10**decimals / 100;\r\n        } else if (_fruit == Fruit.Avocado) {\r\n            // $0.12\r\n            return 12 * 10**decimals / 100;\r\n        } else if (_fruit == Fruit.Banana) {\r\n            // $0.56\r\n            return 56 * 10**decimals / 100;\r\n        } else if (_fruit == Fruit.Coconut) {\r\n            // $2.30\r\n            return 230 * 10**decimals / 100;\r\n        } else if (_fruit == Fruit.Pineapple) {\r\n            // $6.40\r\n            return 640 * 10**decimals / 100;\r\n        } else if (_fruit == Fruit.Money) {\r\n            // $20\r\n            return 20 * 10**decimals;\r\n        } else if (_fruit == Fruit.Diamond) {\r\n            // $250\r\n            return 250 * 10**decimals;\r\n        }\r\n\r\n        require(false, \"Invalid fruit\");\r\n\r\n        return 0;\r\n    }\r\n    \r\n    function requiredLandSize(Fruit _fruit) private view returns (uint size) {\r\n        if (_fruit == Fruit.Apple || _fruit == Fruit.Avocado) {\r\n            return 5;\r\n        } else if (_fruit == Fruit.Banana || _fruit == Fruit.Coconut) {\r\n            return 8;\r\n        } else if (_fruit == Fruit.Pineapple) {\r\n            return 11;\r\n        } else if (_fruit == Fruit.Money) {\r\n            return 14;\r\n        } else if (_fruit == Fruit.Diamond) {\r\n            return 17;\r\n        }\r\n\r\n        require(false, \"Invalid fruit\");\r\n\r\n        return 99;\r\n    }\r\n    \r\n       \r\n    function getLandPrice(uint landSize) private view returns (uint price) {\r\n        uint decimals = token.decimals();\r\n        if (landSize <= 5) {\r\n            // $5 - 10 hours of planting avocados on 5 fields\r\n            return 5 * 10**decimals;\r\n        } else if (landSize <= 8) {\r\n            // $250 - 6 days planting coconuts on 8 fields\r\n            return 2500 * 10**decimals;\r\n        } else if (landSize <= 11) {\r\n            // $5000 - 4 weeks planting pineapples on 11 fields\r\n            return 5000 * 10**decimals;\r\n        }\r\n        \r\n        // $8400 - 3 months of planting Money trees on 14 fields\r\n        return 8400 * 10**decimals;\r\n    }\r\n\r\n\r\n    function concatenate(\r\n        string memory a,\r\n        string memory b)\r\n        internal\r\n        pure\r\n        returns(string memory) {\r\n            return string(abi.encodePacked(a, b));\r\n        }\r\n\r\n    function uint2str(uint _i) internal pure returns (string memory _uintAsString) {\r\n        if (_i == 0) {\r\n            return \"0\";\r\n        }\r\n        uint j = _i;\r\n        uint len;\r\n        while (j != 0) {\r\n            len++;\r\n            j /= 10;\r\n        }\r\n        bytes memory bstr = new bytes(len);\r\n        uint k = len;\r\n        while (_i != 0) {\r\n            k = k-1;\r\n            uint8 temp = (48 + uint8(_i - _i / 10 * 10));\r\n            bytes1 b1 = bytes1(temp);\r\n            bstr[k] = b1;\r\n            _i /= 10;\r\n        }\r\n        return string(bstr);\r\n    }\r\n\r\n    function buildFarm(Transaction[] memory _transactions) private view returns (Farm memory currentFarm) {\r\n        uint lastSyncedAt = syncedAt[msg.sender];\r\n        require(lastSyncedAt > 0, \"Farm does not exist\");\r\n\r\n        Square[] memory land = fields[msg.sender];\r\n        uint balance = token.balanceOf(msg.sender);\r\n        \r\n        // Provide them the conversion at the time of planting\r\n        uint conversion = getMarketRate();\r\n\r\n        for (uint index = 0; index < _transactions.length; index++) {\r\n            Transaction memory transaction = _transactions[index];\r\n\r\n            // TODO - you cannot perform a transaction in the last hour\r\n\r\n            require(transaction.createdAt >= lastSyncedAt, \"You can not perform an action in the past\");\r\n            require(transaction.createdAt <= block.timestamp, \"You can not perform an action in the future\");\r\n            if (index > 0) {\r\n                require(transaction.createdAt >= _transactions[index - 1].createdAt, \"Transactions are not in order\");\r\n            }\r\n\r\n            require(land.length >= requiredLandSize(transaction.fruit), \"Your farm is not ready to plant this fruit. Level up first.\");\r\n\r\n            if (transaction.action == Action.Plant) {\r\n                uint price = getSeedPrice(transaction.fruit);\r\n                uint fmcPrice = price / conversion;\r\n                require(balance >= fmcPrice, \"Not enough money to buy seed\");\r\n\r\n                balance = balance.sub(fmcPrice);\r\n\r\n                Square memory plantedSeed = Square({\r\n                    fruit: transaction.fruit,\r\n                    createdAt: transaction.createdAt\r\n                });\r\n                land[transaction.landIndex] = plantedSeed;\r\n            } else if (transaction.action == Action.Harvest) {\r\n                Square memory square = land[transaction.landIndex];\r\n                require(square.fruit == transaction.fruit, \"Invalid farm: No fruit exists\");\r\n\r\n                // Currently seconds\r\n                uint duration = transaction.createdAt - square.createdAt;\r\n                uint hoursToHarvest = getHarvestHours(transaction.fruit);\r\n                string memory durationString = uint2str(hoursToHarvest - duration);\r\n                string memory message = concatenate(\"Invalid farm: The fruit is not ripe, please wait: \", durationString);\r\n                require(duration >= hoursToHarvest, message);\r\n\r\n                // Clear the land\r\n                Square memory emptyLand = Square({\r\n                    fruit: Fruit.None,\r\n                    createdAt: 0\r\n                });\r\n                land[transaction.landIndex] = emptyLand;\r\n\r\n                uint price = getFruitPrice(transaction.fruit);\r\n                uint fmcPrice = price / conversion;\r\n\r\n                balance = balance.add(fmcPrice);\r\n            }\r\n        }\r\n\r\n        return Farm({\r\n            land: land,\r\n            balance: balance,\r\n            transactions: _transactions\r\n        });\r\n    }\r\n\r\n\r\n    function sync(Transaction[] memory _transactions) public returns (Farm memory) {\r\n        uint balance = token.balanceOf(msg.sender);\r\n        Farm memory farm = buildFarm(_transactions);\r\n\r\n        // Update the land\r\n        Square[] storage land = fields[msg.sender];\r\n        for (uint i=0; i < farm.land.length; i += 1) {\r\n            land[i] = farm.land[i];\r\n        }\r\n\r\n\r\n        // Update the balance - mint or burn\r\n        if (farm.balance > balance) {\r\n            uint profit = farm.balance.sub(balance);\r\n            token.mint(msg.sender, profit);\r\n        } else if (farm.balance < balance) {\r\n            uint loss = balance.sub(farm.balance);\r\n            token.burn(msg.sender, loss);\r\n        }\r\n\r\n        syncedAt[msg.sender] = block.timestamp;\r\n\r\n        emit FarmSynced(msg.sender);\r\n        return farm;\r\n    }\r\n    \r\n     \r\n    function levelUp() public {\r\n        // TODO modifier\r\n        uint lastSyncedAt = syncedAt[msg.sender];\r\n        require(lastSyncedAt > 0, \"Farm does not exist\");\r\n        \r\n        require(fields[msg.sender].length <= 17, \"You are at the maximum level\");\r\n\r\n        Square[] storage land = fields[msg.sender];\r\n\r\n        uint conversion = getMarketRate();\r\n\r\n        uint price = getLandPrice(land.length);\r\n        uint fmcPrice = price / conversion;\r\n        string memory priceString = uint2str(fmcPrice);\r\n        string memory message = concatenate(\"Not enough money to level up: \", priceString);\r\n\r\n        uint balance = token.balanceOf(msg.sender);\r\n        require(balance >= fmcPrice, message);\r\n\r\n        Square memory empty = Square({\r\n            fruit: Fruit.None,\r\n            createdAt: block.timestamp\r\n        });\r\n\r\n        // Do not bother rearranging the array - it is already in a strange square - Add 3 fields\r\n        for (uint index = 0; index < 3; index++) {\r\n            land.push(empty);\r\n        }\r\n\r\n        token.burn(msg.sender, fmcPrice);\r\n\r\n        // Land tax - An additional 5% of profit goes to developers & designers of Fruit Market\r\n        uint commission = fmcPrice / 5;\r\n        token.mint(token.getOwner(), commission);\r\n\r\n        emit FarmSynced(msg.sender);\r\n    }\r\n\r\n    // FMC -> Dollars. How many FMC do you get per dollar\r\n    function getMarketRate() public view returns (uint conversion) {\r\n        // ERC decimal places\r\n        uint totalSupply = token.totalSupply();\r\n        uint decimals = token.decimals();\r\n\r\n        // Less than 100, 000 FMC tokens\r\n        if (totalSupply < (1000000 * 10**decimals)) {\r\n            // 1 Farm Dollar gets you a FMC token\r\n            return 1;\r\n            //return 10**decimals;\r\n        }\r\n\r\n        // Less than 1, 000, 000 FMC tokens\r\n        if (totalSupply < (10000 * 10**decimals)) {\r\n            return 10;\r\n            // 1 Farm Dollar gets you a 0.1 of FMC\r\n            //return 10**(decimals-1);\r\n        }\r\n        // Less than 10, 000, 000 FMC tokens\r\n        if (totalSupply < (100000 * 10**decimals)) {\r\n            return 100;\r\n            // 1 Farm Dollar gets you a 0.01 of FMC\r\n            //return 10**(decimals-2);\r\n        }\r\n\r\n        // Less than 100, 000, 000 FMC tokens\r\n        if (totalSupply < (100000 * 10**decimals)) {\r\n            // 1 Farm Dollar gets you a 0.001 of FMC\r\n            //return 10**(decimals-3);\r\n            return 1000;\r\n        }\r\n\r\n        // Less than 1, 000, 000, 000 FMC tokens\r\n        if (totalSupply < (100000 * 10**decimals)) {\r\n            // 1 Farm Dollar gets you a 0.0001 of FMC\r\n            //return 10**(decimals-4);\r\n            return 10000;\r\n        }\r\n\r\n        // 1 Farm Dollar gets you a 0.00001 of FMC\r\n        //return 10**(decimals-5);\r\n        return 100000;\r\n    }\r\n\r\n    // Append a transaction to the list\r\n    function addTransaction(Transaction[] memory _transactions, Transaction memory _transaction) private view returns (Transaction[] memory) {\r\n        Transaction[] memory newTransactions = new Transaction[](_transactions.length + 1);\r\n        for (uint i=0; i < _transactions.length; i += 1) {\r\n            newTransactions[i] = _transactions[i];\r\n        }\r\n\r\n        // Add the new transaction\r\n        newTransactions[_transactions.length] = _transaction;\r\n\r\n        return newTransactions;\r\n    }\r\n\r\n    function plant(Transaction[] memory _transactions, Fruit _fruit, uint landIndex) public view returns (Farm memory farm) {\r\n        Transaction memory plantAppleTransaction = Transaction({\r\n            action: Action.Plant,\r\n            fruit: _fruit,\r\n            landIndex: landIndex,\r\n            createdAt: block.timestamp\r\n        });\r\n        Transaction[] memory newTransactions = addTransaction(_transactions, plantAppleTransaction);\r\n\r\n        Farm memory updatedFarm = buildFarm(newTransactions);\r\n        return (updatedFarm);\r\n    }\r\n\r\n    function harvest(Transaction[] memory _transactions, Fruit _fruit, uint landIndex) public view returns (Farm memory farm) {\r\n        // Add the new transaction\r\n        Transaction memory plantAppleTransaction = Transaction({\r\n            action: Action.Harvest,\r\n            fruit: _fruit,\r\n            landIndex: landIndex,\r\n            createdAt: block.timestamp\r\n        });\r\n        Transaction[] memory newTransactions = addTransaction(_transactions, plantAppleTransaction);\r\n\r\n        Farm memory updatedFarm = buildFarm(newTransactions);\r\n        return (updatedFarm);\r\n    }\r\n}\r\n",
  "sourcePath": "/Users/adamhannigan/Documents/workspace/fruit-market/src/contracts/Farm.sol",
  "compiler": {
    "name": "solc",
    "version": "0.7.6+commit.7338295f.Emscripten.clang"
  },
  "schemaVersion": "3.4.0",
  "updatedAt": "2021-06-02T21:41:01.300Z",
  "networkType": "ethereum",
  "devdoc": {
    "kind": "dev",
    "methods": {},
    "version": 1
  },
  "userdoc": {
    "kind": "user",
    "methods": {},
    "version": 1
  }
}