{
  "contractName": "Farm",
  "abi": [
    {
      "inputs": [
        {
          "internalType": "contract Token",
          "name": "_token",
          "type": "address"
        }
      ],
      "stateMutability": "nonpayable",
      "type": "constructor"
    },
    {
      "inputs": [],
      "name": "createFarm",
      "outputs": [
        {
          "components": [
            {
              "components": [
                {
                  "internalType": "bool",
                  "name": "isInitialized",
                  "type": "bool"
                },
                {
                  "internalType": "uint256",
                  "name": "apples",
                  "type": "uint256"
                },
                {
                  "internalType": "uint256",
                  "name": "avocados",
                  "type": "uint256"
                }
              ],
              "internalType": "struct Farm.Inventory",
              "name": "inventory",
              "type": "tuple"
            },
            {
              "components": [
                {
                  "internalType": "enum Farm.Commodity",
                  "name": "commodity",
                  "type": "uint8"
                },
                {
                  "internalType": "uint256",
                  "name": "createdAt",
                  "type": "uint256"
                }
              ],
              "internalType": "struct Farm.Square[]",
              "name": "land",
              "type": "tuple[]"
            },
            {
              "internalType": "uint256",
              "name": "balance",
              "type": "uint256"
            },
            {
              "components": [
                {
                  "internalType": "enum Farm.Action",
                  "name": "action",
                  "type": "uint8"
                },
                {
                  "internalType": "enum Farm.Commodity",
                  "name": "commodity",
                  "type": "uint8"
                },
                {
                  "internalType": "uint256",
                  "name": "timestamp",
                  "type": "uint256"
                },
                {
                  "internalType": "uint256",
                  "name": "landIndex",
                  "type": "uint256"
                }
              ],
              "internalType": "struct Farm.Transaction[]",
              "name": "transactions",
              "type": "tuple[]"
            }
          ],
          "internalType": "struct Farm.Farm",
          "name": "currentFarm",
          "type": "tuple"
        }
      ],
      "stateMutability": "nonpayable",
      "type": "function"
    },
    {
      "inputs": [],
      "name": "getInventory",
      "outputs": [
        {
          "components": [
            {
              "internalType": "bool",
              "name": "isInitialized",
              "type": "bool"
            },
            {
              "internalType": "uint256",
              "name": "apples",
              "type": "uint256"
            },
            {
              "internalType": "uint256",
              "name": "avocados",
              "type": "uint256"
            }
          ],
          "internalType": "struct Farm.Inventory",
          "name": "",
          "type": "tuple"
        }
      ],
      "stateMutability": "view",
      "type": "function",
      "constant": true
    },
    {
      "inputs": [],
      "name": "getLand",
      "outputs": [
        {
          "components": [
            {
              "internalType": "enum Farm.Commodity",
              "name": "commodity",
              "type": "uint8"
            },
            {
              "internalType": "uint256",
              "name": "createdAt",
              "type": "uint256"
            }
          ],
          "internalType": "struct Farm.Square[]",
          "name": "",
          "type": "tuple[]"
        }
      ],
      "stateMutability": "view",
      "type": "function",
      "constant": true
    },
    {
      "inputs": [
        {
          "components": [
            {
              "internalType": "enum Farm.Action",
              "name": "action",
              "type": "uint8"
            },
            {
              "internalType": "enum Farm.Commodity",
              "name": "commodity",
              "type": "uint8"
            },
            {
              "internalType": "uint256",
              "name": "timestamp",
              "type": "uint256"
            },
            {
              "internalType": "uint256",
              "name": "landIndex",
              "type": "uint256"
            }
          ],
          "internalType": "struct Farm.Transaction[]",
          "name": "_transactions",
          "type": "tuple[]"
        }
      ],
      "name": "moveTheMarket",
      "outputs": [],
      "stateMutability": "nonpayable",
      "type": "function"
    },
    {
      "inputs": [
        {
          "components": [
            {
              "internalType": "enum Farm.Action",
              "name": "action",
              "type": "uint8"
            },
            {
              "internalType": "enum Farm.Commodity",
              "name": "commodity",
              "type": "uint8"
            },
            {
              "internalType": "uint256",
              "name": "timestamp",
              "type": "uint256"
            },
            {
              "internalType": "uint256",
              "name": "landIndex",
              "type": "uint256"
            }
          ],
          "internalType": "struct Farm.Transaction[]",
          "name": "_transactions",
          "type": "tuple[]"
        }
      ],
      "name": "sync",
      "outputs": [],
      "stateMutability": "nonpayable",
      "type": "function"
    },
    {
      "inputs": [
        {
          "components": [
            {
              "internalType": "enum Farm.Action",
              "name": "action",
              "type": "uint8"
            },
            {
              "internalType": "enum Farm.Commodity",
              "name": "commodity",
              "type": "uint8"
            },
            {
              "internalType": "uint256",
              "name": "timestamp",
              "type": "uint256"
            },
            {
              "internalType": "uint256",
              "name": "landIndex",
              "type": "uint256"
            }
          ],
          "internalType": "struct Farm.Transaction[]",
          "name": "_transactions",
          "type": "tuple[]"
        }
      ],
      "name": "buyAppleSeed",
      "outputs": [
        {
          "components": [
            {
              "components": [
                {
                  "internalType": "bool",
                  "name": "isInitialized",
                  "type": "bool"
                },
                {
                  "internalType": "uint256",
                  "name": "apples",
                  "type": "uint256"
                },
                {
                  "internalType": "uint256",
                  "name": "avocados",
                  "type": "uint256"
                }
              ],
              "internalType": "struct Farm.Inventory",
              "name": "inventory",
              "type": "tuple"
            },
            {
              "components": [
                {
                  "internalType": "enum Farm.Commodity",
                  "name": "commodity",
                  "type": "uint8"
                },
                {
                  "internalType": "uint256",
                  "name": "createdAt",
                  "type": "uint256"
                }
              ],
              "internalType": "struct Farm.Square[]",
              "name": "land",
              "type": "tuple[]"
            },
            {
              "internalType": "uint256",
              "name": "balance",
              "type": "uint256"
            },
            {
              "components": [
                {
                  "internalType": "enum Farm.Action",
                  "name": "action",
                  "type": "uint8"
                },
                {
                  "internalType": "enum Farm.Commodity",
                  "name": "commodity",
                  "type": "uint8"
                },
                {
                  "internalType": "uint256",
                  "name": "timestamp",
                  "type": "uint256"
                },
                {
                  "internalType": "uint256",
                  "name": "landIndex",
                  "type": "uint256"
                }
              ],
              "internalType": "struct Farm.Transaction[]",
              "name": "transactions",
              "type": "tuple[]"
            }
          ],
          "internalType": "struct Farm.Farm",
          "name": "farm",
          "type": "tuple"
        },
        {
          "internalType": "uint256",
          "name": "price",
          "type": "uint256"
        }
      ],
      "stateMutability": "view",
      "type": "function",
      "constant": true
    },
    {
      "inputs": [
        {
          "components": [
            {
              "internalType": "enum Farm.Action",
              "name": "action",
              "type": "uint8"
            },
            {
              "internalType": "enum Farm.Commodity",
              "name": "commodity",
              "type": "uint8"
            },
            {
              "internalType": "uint256",
              "name": "timestamp",
              "type": "uint256"
            },
            {
              "internalType": "uint256",
              "name": "landIndex",
              "type": "uint256"
            }
          ],
          "internalType": "struct Farm.Transaction[]",
          "name": "_transactions",
          "type": "tuple[]"
        }
      ],
      "name": "sellAppleSeed",
      "outputs": [
        {
          "components": [
            {
              "components": [
                {
                  "internalType": "bool",
                  "name": "isInitialized",
                  "type": "bool"
                },
                {
                  "internalType": "uint256",
                  "name": "apples",
                  "type": "uint256"
                },
                {
                  "internalType": "uint256",
                  "name": "avocados",
                  "type": "uint256"
                }
              ],
              "internalType": "struct Farm.Inventory",
              "name": "inventory",
              "type": "tuple"
            },
            {
              "components": [
                {
                  "internalType": "enum Farm.Commodity",
                  "name": "commodity",
                  "type": "uint8"
                },
                {
                  "internalType": "uint256",
                  "name": "createdAt",
                  "type": "uint256"
                }
              ],
              "internalType": "struct Farm.Square[]",
              "name": "land",
              "type": "tuple[]"
            },
            {
              "internalType": "uint256",
              "name": "balance",
              "type": "uint256"
            },
            {
              "components": [
                {
                  "internalType": "enum Farm.Action",
                  "name": "action",
                  "type": "uint8"
                },
                {
                  "internalType": "enum Farm.Commodity",
                  "name": "commodity",
                  "type": "uint8"
                },
                {
                  "internalType": "uint256",
                  "name": "timestamp",
                  "type": "uint256"
                },
                {
                  "internalType": "uint256",
                  "name": "landIndex",
                  "type": "uint256"
                }
              ],
              "internalType": "struct Farm.Transaction[]",
              "name": "transactions",
              "type": "tuple[]"
            }
          ],
          "internalType": "struct Farm.Farm",
          "name": "farm",
          "type": "tuple"
        },
        {
          "internalType": "uint256",
          "name": "price",
          "type": "uint256"
        }
      ],
      "stateMutability": "view",
      "type": "function",
      "constant": true
    },
    {
      "inputs": [
        {
          "components": [
            {
              "internalType": "enum Farm.Action",
              "name": "action",
              "type": "uint8"
            },
            {
              "internalType": "enum Farm.Commodity",
              "name": "commodity",
              "type": "uint8"
            },
            {
              "internalType": "uint256",
              "name": "timestamp",
              "type": "uint256"
            },
            {
              "internalType": "uint256",
              "name": "landIndex",
              "type": "uint256"
            }
          ],
          "internalType": "struct Farm.Transaction[]",
          "name": "_transactions",
          "type": "tuple[]"
        },
        {
          "internalType": "uint256",
          "name": "landIndex",
          "type": "uint256"
        }
      ],
      "name": "plantAppleSeed",
      "outputs": [
        {
          "components": [
            {
              "components": [
                {
                  "internalType": "bool",
                  "name": "isInitialized",
                  "type": "bool"
                },
                {
                  "internalType": "uint256",
                  "name": "apples",
                  "type": "uint256"
                },
                {
                  "internalType": "uint256",
                  "name": "avocados",
                  "type": "uint256"
                }
              ],
              "internalType": "struct Farm.Inventory",
              "name": "inventory",
              "type": "tuple"
            },
            {
              "components": [
                {
                  "internalType": "enum Farm.Commodity",
                  "name": "commodity",
                  "type": "uint8"
                },
                {
                  "internalType": "uint256",
                  "name": "createdAt",
                  "type": "uint256"
                }
              ],
              "internalType": "struct Farm.Square[]",
              "name": "land",
              "type": "tuple[]"
            },
            {
              "internalType": "uint256",
              "name": "balance",
              "type": "uint256"
            },
            {
              "components": [
                {
                  "internalType": "enum Farm.Action",
                  "name": "action",
                  "type": "uint8"
                },
                {
                  "internalType": "enum Farm.Commodity",
                  "name": "commodity",
                  "type": "uint8"
                },
                {
                  "internalType": "uint256",
                  "name": "timestamp",
                  "type": "uint256"
                },
                {
                  "internalType": "uint256",
                  "name": "landIndex",
                  "type": "uint256"
                }
              ],
              "internalType": "struct Farm.Transaction[]",
              "name": "transactions",
              "type": "tuple[]"
            }
          ],
          "internalType": "struct Farm.Farm",
          "name": "farm",
          "type": "tuple"
        }
      ],
      "stateMutability": "view",
      "type": "function",
      "constant": true
    },
    {
      "inputs": [
        {
          "components": [
            {
              "internalType": "enum Farm.Action",
              "name": "action",
              "type": "uint8"
            },
            {
              "internalType": "enum Farm.Commodity",
              "name": "commodity",
              "type": "uint8"
            },
            {
              "internalType": "uint256",
              "name": "timestamp",
              "type": "uint256"
            },
            {
              "internalType": "uint256",
              "name": "landIndex",
              "type": "uint256"
            }
          ],
          "internalType": "struct Farm.Transaction[]",
          "name": "_transactions",
          "type": "tuple[]"
        },
        {
          "internalType": "uint256",
          "name": "landIndex",
          "type": "uint256"
        }
      ],
      "name": "harvestAppleSeed",
      "outputs": [
        {
          "components": [
            {
              "components": [
                {
                  "internalType": "bool",
                  "name": "isInitialized",
                  "type": "bool"
                },
                {
                  "internalType": "uint256",
                  "name": "apples",
                  "type": "uint256"
                },
                {
                  "internalType": "uint256",
                  "name": "avocados",
                  "type": "uint256"
                }
              ],
              "internalType": "struct Farm.Inventory",
              "name": "inventory",
              "type": "tuple"
            },
            {
              "components": [
                {
                  "internalType": "enum Farm.Commodity",
                  "name": "commodity",
                  "type": "uint8"
                },
                {
                  "internalType": "uint256",
                  "name": "createdAt",
                  "type": "uint256"
                }
              ],
              "internalType": "struct Farm.Square[]",
              "name": "land",
              "type": "tuple[]"
            },
            {
              "internalType": "uint256",
              "name": "balance",
              "type": "uint256"
            },
            {
              "components": [
                {
                  "internalType": "enum Farm.Action",
                  "name": "action",
                  "type": "uint8"
                },
                {
                  "internalType": "enum Farm.Commodity",
                  "name": "commodity",
                  "type": "uint8"
                },
                {
                  "internalType": "uint256",
                  "name": "timestamp",
                  "type": "uint256"
                },
                {
                  "internalType": "uint256",
                  "name": "landIndex",
                  "type": "uint256"
                }
              ],
              "internalType": "struct Farm.Transaction[]",
              "name": "transactions",
              "type": "tuple[]"
            }
          ],
          "internalType": "struct Farm.Farm",
          "name": "farm",
          "type": "tuple"
        }
      ],
      "stateMutability": "view",
      "type": "function",
      "constant": true
    },
    {
      "inputs": [
        {
          "components": [
            {
              "internalType": "enum Farm.Action",
              "name": "action",
              "type": "uint8"
            },
            {
              "internalType": "enum Farm.Commodity",
              "name": "commodity",
              "type": "uint8"
            },
            {
              "internalType": "uint256",
              "name": "timestamp",
              "type": "uint256"
            },
            {
              "internalType": "uint256",
              "name": "landIndex",
              "type": "uint256"
            }
          ],
          "internalType": "struct Farm.Transaction[]",
          "name": "_transactions",
          "type": "tuple[]"
        }
      ],
      "name": "buyAvocadoSeed",
      "outputs": [
        {
          "components": [
            {
              "components": [
                {
                  "internalType": "bool",
                  "name": "isInitialized",
                  "type": "bool"
                },
                {
                  "internalType": "uint256",
                  "name": "apples",
                  "type": "uint256"
                },
                {
                  "internalType": "uint256",
                  "name": "avocados",
                  "type": "uint256"
                }
              ],
              "internalType": "struct Farm.Inventory",
              "name": "inventory",
              "type": "tuple"
            },
            {
              "components": [
                {
                  "internalType": "enum Farm.Commodity",
                  "name": "commodity",
                  "type": "uint8"
                },
                {
                  "internalType": "uint256",
                  "name": "createdAt",
                  "type": "uint256"
                }
              ],
              "internalType": "struct Farm.Square[]",
              "name": "land",
              "type": "tuple[]"
            },
            {
              "internalType": "uint256",
              "name": "balance",
              "type": "uint256"
            },
            {
              "components": [
                {
                  "internalType": "enum Farm.Action",
                  "name": "action",
                  "type": "uint8"
                },
                {
                  "internalType": "enum Farm.Commodity",
                  "name": "commodity",
                  "type": "uint8"
                },
                {
                  "internalType": "uint256",
                  "name": "timestamp",
                  "type": "uint256"
                },
                {
                  "internalType": "uint256",
                  "name": "landIndex",
                  "type": "uint256"
                }
              ],
              "internalType": "struct Farm.Transaction[]",
              "name": "transactions",
              "type": "tuple[]"
            }
          ],
          "internalType": "struct Farm.Farm",
          "name": "farm",
          "type": "tuple"
        },
        {
          "internalType": "uint256",
          "name": "price",
          "type": "uint256"
        }
      ],
      "stateMutability": "view",
      "type": "function",
      "constant": true
    },
    {
      "inputs": [
        {
          "components": [
            {
              "internalType": "enum Farm.Action",
              "name": "action",
              "type": "uint8"
            },
            {
              "internalType": "enum Farm.Commodity",
              "name": "commodity",
              "type": "uint8"
            },
            {
              "internalType": "uint256",
              "name": "timestamp",
              "type": "uint256"
            },
            {
              "internalType": "uint256",
              "name": "landIndex",
              "type": "uint256"
            }
          ],
          "internalType": "struct Farm.Transaction[]",
          "name": "_transactions",
          "type": "tuple[]"
        }
      ],
      "name": "sellAvocadoSeed",
      "outputs": [
        {
          "components": [
            {
              "components": [
                {
                  "internalType": "bool",
                  "name": "isInitialized",
                  "type": "bool"
                },
                {
                  "internalType": "uint256",
                  "name": "apples",
                  "type": "uint256"
                },
                {
                  "internalType": "uint256",
                  "name": "avocados",
                  "type": "uint256"
                }
              ],
              "internalType": "struct Farm.Inventory",
              "name": "inventory",
              "type": "tuple"
            },
            {
              "components": [
                {
                  "internalType": "enum Farm.Commodity",
                  "name": "commodity",
                  "type": "uint8"
                },
                {
                  "internalType": "uint256",
                  "name": "createdAt",
                  "type": "uint256"
                }
              ],
              "internalType": "struct Farm.Square[]",
              "name": "land",
              "type": "tuple[]"
            },
            {
              "internalType": "uint256",
              "name": "balance",
              "type": "uint256"
            },
            {
              "components": [
                {
                  "internalType": "enum Farm.Action",
                  "name": "action",
                  "type": "uint8"
                },
                {
                  "internalType": "enum Farm.Commodity",
                  "name": "commodity",
                  "type": "uint8"
                },
                {
                  "internalType": "uint256",
                  "name": "timestamp",
                  "type": "uint256"
                },
                {
                  "internalType": "uint256",
                  "name": "landIndex",
                  "type": "uint256"
                }
              ],
              "internalType": "struct Farm.Transaction[]",
              "name": "transactions",
              "type": "tuple[]"
            }
          ],
          "internalType": "struct Farm.Farm",
          "name": "farm",
          "type": "tuple"
        },
        {
          "internalType": "uint256",
          "name": "price",
          "type": "uint256"
        }
      ],
      "stateMutability": "view",
      "type": "function",
      "constant": true
    },
    {
      "inputs": [],
      "name": "getPrices",
      "outputs": [
        {
          "components": [
            {
              "internalType": "uint256",
              "name": "apples",
              "type": "uint256"
            },
            {
              "internalType": "uint256",
              "name": "avocados",
              "type": "uint256"
            },
            {
              "internalType": "uint256",
              "name": "timestamp",
              "type": "uint256"
            },
            {
              "internalType": "uint256",
              "name": "previousTimestamp",
              "type": "uint256"
            }
          ],
          "internalType": "struct Farm.Prices",
          "name": "price",
          "type": "tuple"
        }
      ],
      "stateMutability": "view",
      "type": "function",
      "constant": true
    },
    {
      "inputs": [],
      "name": "getApplePrice",
      "outputs": [
        {
          "internalType": "uint256",
          "name": "price",
          "type": "uint256"
        }
      ],
      "stateMutability": "view",
      "type": "function",
      "constant": true
    },
    {
      "inputs": [],
      "name": "getAvocadoPrice",
      "outputs": [
        {
          "internalType": "uint256",
          "name": "price",
          "type": "uint256"
        }
      ],
      "stateMutability": "view",
      "type": "function",
      "constant": true
    }
  ],
  "bytecode": "0x6080604052604560015560028055600960055560026006556101f460075561012c60085561ea60600a553480156200003657600080fd5b5060405162002c5738038062002c5783398181016040528101906200005c919062000121565b806000806101000a81548173ffffffffffffffffffffffffffffffffffffffff021916908373ffffffffffffffffffffffffffffffffffffffff1602179055506040518060800160405280606481526020016101908152602001600154815260200160008152506009600060015481526020019081526020016000206000820151816000015560208201518160010155604082015181600201556060820151816003015590505050620001af565b6000815190506200011b8162000195565b92915050565b6000602082840312156200013457600080fd5b600062000144848285016200010a565b91505092915050565b60006200015a8262000175565b9050919050565b60006200016e826200014d565b9050919050565b600073ffffffffffffffffffffffffffffffffffffffff82169050919050565b620001a08162000161565b8114620001ac57600080fd5b50565b612a9880620001bf6000396000f3fe608060405234801561001057600080fd5b50600436106100ea5760003560e01c8063868314fa1161008c578063bd9a548b11610066578063bd9a548b14610276578063d53f9c9b14610294578063e2adea27146102b0578063f6837650146102e1576100ea565b8063868314fa146101f7578063942da5dc14610227578063bc337f7814610258576100ea565b80635d7f850c116100c85780635d7f850c14610147578063689efec41461016557806384dad3a914610195578063865b74d0146101c6576100ea565b80630f804b25146100ef5780631d5ec3cb1461010b5780635690314c14610129575b600080fd5b61010960048036038101906101049190612016565b6102ff565b005b61011361062a565b60405161012091906127b7565b60405180910390f35b6101316109b1565b60405161013e91906126b5565b60405180910390f35b61014f610a84565b60405161015c9190612809565b60405180910390f35b61017f600480360381019061017a9190612057565b610b0a565b60405161018c91906127b7565b60405180910390f35b6101af60048036038101906101aa9190612016565b610bc7565b6040516101bd9291906127d9565b60405180910390f35b6101e060048036038101906101db9190612016565b610c8c565b6040516101ee9291906127d9565b60405180910390f35b610211600480360381019061020c9190612057565b610d51565b60405161021e91906127b7565b60405180910390f35b610241600480360381019061023c9190612016565b610e0e565b60405161024f9291906127d9565b60405180910390f35b610260610ed3565b60405161026d919061283f565b60405180910390f35b61027e610ef3565b60405161028b9190612824565b60405180910390f35b6102ae60048036038101906102a99190612016565b610f48565b005b6102ca60048036038101906102c59190612016565b611263565b6040516102d89291906127d9565b60405180910390f35b6102e9611328565b6040516102f6919061283f565b60405180910390f35b60008060005b8351811015610398576000600281111561031b57fe5b84828151811061032757fe5b602002602001015160200151600281111561033e57fe5b141561034f5760018301925061038d565b6001600281111561035c57fe5b84828151811061036857fe5b602002602001015160200151600281111561037f57fe5b141561038c576001820191505b5b600181019050610305565b506000818301905060008114156103b157505050610627565b6000808411156103c2576064820290505b6000808411156103dc5760648385816103d757fe5b040290505b60006006546064816103ea57fe5b04905060008183039050600060019050600061025842039050600060096000600154815260200190815260200160002060405180608001604052908160008201548152602001600182015481526020016002820154815260200160038201548152505090505b81816040015111156104d457828060010193505060028312610471576104d4565b600081606001511415610483576104d4565b60096000826060015181526020019081526020016000206040518060800160405290816000820154815260200160018201548152602001600282015481526020016003820154815250509050610450565b600060096000600154815260200190815260200160002060405180608001604052908160008201548152602001600182015481526020016002820154815260200160038201548152505090506000600a905060008186888161053257fe5b058161053a57fe5b059050600081606403905060006064828660200151028161055757fe5b049050600061056b82600854600754611348565b905085600960008860400151815260200190815260200160002060008201518160000155602082015181600101556040820151816002015560608201518160030155905050604051806080016040528060648152602001828152602001428152602001876040015181525060096000600154815260200190815260200160002060008201518160000155602082015181600101556040820151816002015560608201518160030155905050505050505050505050505050505050505b50565b610632611e01565b600360003373ffffffffffffffffffffffffffffffffffffffff1673ffffffffffffffffffffffffffffffffffffffff16815260200190815260200160002060000160009054906101000a900460ff16156106c2576040517f08c379a00000000000000000000000000000000000000000000000000000000081526004016106b990612797565b60405180910390fd5b6000600360003373ffffffffffffffffffffffffffffffffffffffff1673ffffffffffffffffffffffffffffffffffffffff168152602001908152602001600020905060018160000160006101000a81548160ff021916908315150217905550600181600101819055506000600460003373ffffffffffffffffffffffffffffffffffffffff1673ffffffffffffffffffffffffffffffffffffffff16815260200190815260200160002090506000604051806040016040528060028081111561078857fe5b81526020016000815250905060005b60055481101561080e578282908060018154018082558091505060019003906000526020600020906002020160009091909190915060008201518160000160006101000a81548160ff021916908360028111156107f057fe5b02179055506020820151816001015550508080600101915050610797565b5060008060009054906101000a900473ffffffffffffffffffffffffffffffffffffffff1673ffffffffffffffffffffffffffffffffffffffff166370a08231336040518263ffffffff1660e01b815260040161086b9190612671565b60206040518083038186803b15801561088357600080fd5b505afa158015610897573d6000803e3d6000fd5b505050506040513d601f19601f820116820180604052508101906108bb91906120ab565b905060606040518060800160405280866040518060600160405290816000820160009054906101000a900460ff1615151515815260200160018201548152602001600282015481525050815260200185805480602002602001604051908101604052809291908181526020016000905b8282101561099457838290600052602060002090600202016040518060400160405290816000820160009054906101000a900460ff16600281111561096c57fe5b600281111561097757fe5b81526020016001820154815250508152602001906001019061092b565b505050508152602001838152602001828152509550505050505090565b6060600460003373ffffffffffffffffffffffffffffffffffffffff1673ffffffffffffffffffffffffffffffffffffffff168152602001908152602001600020805480602002602001604051908101604052809291908181526020016000905b82821015610a7b57838290600052602060002090600202016040518060400160405290816000820160009054906101000a900460ff166002811115610a5357fe5b6002811115610a5e57fe5b815260200160018201548152505081526020019060010190610a12565b50505050905090565b610a8c611e2f565b600360003373ffffffffffffffffffffffffffffffffffffffff1673ffffffffffffffffffffffffffffffffffffffff1681526020019081526020016000206040518060600160405290816000820160009054906101000a900460ff1615151515815260200160018201548152602001600282015481525050905090565b610b12611e01565b6000600960006001548152602001908152602001600020604051806080016040529081600082015481526020016001820154815260200160028201548152602001600382015481525050905060006040518060800160405280600380811115610b7757fe5b815260200160006002811115610b8957fe5b815260200183604001518152602001600081525090506000610bab8683611375565b90506000610bb882611437565b90508094505050505092915050565b610bcf611e01565b60008060096000600154815260200190815260200160002060405180608001604052908160008201548152602001600182015481526020016002820154815260200160038201548152505090506000604051806080016040528060006003811115610c3657fe5b815260200160016002811115610c4857fe5b815260200183604001518152602001600081525090506000610c6a8683611375565b90506000610c7782611437565b90508084600001519550955050505050915091565b610c94611e01565b60008060096000600154815260200190815260200160002060405180608001604052908160008201548152602001600182015481526020016002820154815260200160038201548152505090506000604051806080016040528060006003811115610cfb57fe5b815260200160006002811115610d0d57fe5b815260200183604001518152602001600081525090506000610d2f8683611375565b90506000610d3c82611437565b90508084600001519550955050505050915091565b610d59611e01565b600060096000600154815260200190815260200160002060405180608001604052908160008201548152602001600182015481526020016002820154815260200160038201548152505090506000604051806080016040528060026003811115610dbf57fe5b815260200160006002811115610dd157fe5b8152602001836040015181526020018581525090506000610df28683611375565b90506000610dff82611437565b90508094505050505092915050565b610e16611e01565b60008060096000600154815260200190815260200160002060405180608001604052908160008201548152602001600182015481526020016002820154815260200160038201548152505090506000604051806080016040528060016003811115610e7d57fe5b815260200160006002811115610e8f57fe5b815260200183604001518152602001600081525090506000610eb18683611375565b90506000610ebe82611437565b90508084600001519550955050505050915091565b600060096000600154815260200190815260200160002060010154905090565b610efb611e52565b600960006001548152602001908152602001600020604051806080016040529081600082015481526020016001820154815260200160028201548152602001600382015481525050905090565b60008060009054906101000a900473ffffffffffffffffffffffffffffffffffffffff1673ffffffffffffffffffffffffffffffffffffffff166370a08231336040518263ffffffff1660e01b8152600401610fa49190612671565b60206040518083038186803b158015610fbc57600080fd5b505afa158015610fd0573d6000803e3d6000fd5b505050506040513d601f19601f82011682018060405250810190610ff491906120ab565b9050600061100183611437565b90506000600360003373ffffffffffffffffffffffffffffffffffffffff1673ffffffffffffffffffffffffffffffffffffffff168152602001908152602001600020905081600001516020015181600101819055506000600460003373ffffffffffffffffffffffffffffffffffffffff1673ffffffffffffffffffffffffffffffffffffffff168152602001908152602001600020905082602001516000815181106110ab57fe5b6020026020010151816000815481106110c057fe5b906000526020600020906002020160008201518160000160006101000a81548160ff021916908360028111156110f257fe5b02179055506020820151816001015590505082604001518411156111ae57600083604001518503905060008054906101000a900473ffffffffffffffffffffffffffffffffffffffff1673ffffffffffffffffffffffffffffffffffffffff166340c10f1933836040518363ffffffff1660e01b815260040161117692919061268c565b600060405180830381600087803b15801561119057600080fd5b505af11580156111a4573d6000803e3d6000fd5b5050505050611253565b838360400151111561125257600084846040015103905060008054906101000a900473ffffffffffffffffffffffffffffffffffffffff1673ffffffffffffffffffffffffffffffffffffffff166342966c68826040518263ffffffff1660e01b815260040161121e919061283f565b600060405180830381600087803b15801561123857600080fd5b505af115801561124c573d6000803e3d6000fd5b50505050505b5b61125c856102ff565b5050505050565b61126b611e01565b600080600960006001548152602001908152602001600020604051806080016040529081600082015481526020016001820154815260200160028201548152602001600382015481525050905060006040518060800160405280600160038111156112d257fe5b8152602001600160028111156112e457fe5b8152602001836040015181526020016000815250905060006113068683611375565b9050600061131382611437565b90508084600001519550955050505050915091565b600060096000600154815260200190815260200160002060000154905090565b60008284101561135a5782905061136e565b8184111561136a5781905061136e565b8390505b9392505050565b60606000600184510167ffffffffffffffff8111801561139457600080fd5b506040519080825280602002602001820160405280156113ce57816020015b6113bb611e7a565b8152602001906001900390816113b35790505b50905060005b8451811015611413578481815181106113e957fe5b60200260200101518282815181106113fd57fe5b60200260200101819052506001810190506113d4565b50828185518151811061142257fe5b60200260200101819052508091505092915050565b61143f611e01565b6000600360003373ffffffffffffffffffffffffffffffffffffffff1673ffffffffffffffffffffffffffffffffffffffff1681526020019081526020016000206040518060600160405290816000820160009054906101000a900460ff161515151581526020016001820154815260200160028201548152505090508060000151611500576040517f08c379a00000000000000000000000000000000000000000000000000000000081526004016114f790612717565b60405180910390fd5b6000600460003373ffffffffffffffffffffffffffffffffffffffff1673ffffffffffffffffffffffffffffffffffffffff168152602001908152602001600020805480602002602001604051908101604052809291908181526020016000905b828210156115ca57838290600052602060002090600202016040518060400160405290816000820160009054906101000a900460ff1660028111156115a257fe5b60028111156115ad57fe5b815260200160018201548152505081526020019060010190611561565b50505050905060008060009054906101000a900473ffffffffffffffffffffffffffffffffffffffff1673ffffffffffffffffffffffffffffffffffffffff166370a08231336040518263ffffffff1660e01b815260040161162c9190612671565b60206040518083038186803b15801561164457600080fd5b505afa158015611658573d6000803e3d6000fd5b505050506040513d601f19601f8201168201806040525081019061167c91906120ab565b905060005b8551811015611a5d57600086828151811061169857fe5b602002602001015190506000600960008360400151815260200190815260200160002060405180608001604052908160008201548152602001600182015481526020016002820154815260200160038201548152505090506000611700878460200151611a89565b90506000611712838560200151611aeb565b90506001600381111561172157fe5b8460000151600381111561173157fe5b14156117a857816001111561177b576040517f08c379a000000000000000000000000000000000000000000000000000000000815260040161177290612757565b60405180910390fd5b61178c888560200151600180611b4d565b97506117a18187611c6f90919063ffffffff16565b9550611a4c565b600060038111156117b557fe5b846000015160038111156117c557fe5b141561183c578086101561180e576040517f08c379a0000000000000000000000000000000000000000000000000000000008152600401611805906126d7565b60405180910390fd5b6118218187611cf790919063ffffffff16565b955061183588856020015160006001611b4d565b9750611a4b565b6002600381111561184957fe5b8460000151600381111561185957fe5b141561190357600082116118a2576040517f08c379a0000000000000000000000000000000000000000000000000000000008152600401611899906126f7565b60405180910390fd5b60006040518060400160405280866020015160028111156118bf57fe5b81526020018660400151815250905080888660600151815181106118df57fe5b60200260200101819052506118fb898660200151600180611b4d565b985050611a4a565b60038081111561190f57fe5b8460000151600381111561191f57fe5b1415611a495760008785606001518151811061193757fe5b602002602001015190508460200151600281111561195157fe5b8160000151600281111561196157fe5b146119a1576040517f08c379a000000000000000000000000000000000000000000000000000000000815260040161199890612737565b60405180910390fd5b6000816020015142039050600a5481116119f0576040517f08c379a00000000000000000000000000000000000000000000000000000000081526004016119e790612777565b60405180910390fd5b60006040518060400160405280600280811115611a0957fe5b815260200160008152509050808a886060015181518110611a2657fe5b6020026020010181905250611a438b886020015160006002611b4d565b9a505050505b5b5b5b505050508080600101915050611681565b506040518060800160405280848152602001838152602001828152602001868152509350505050919050565b6000806002811115611a9757fe5b826002811115611aa357fe5b1415611ab55782602001519050611ae5565b60016002811115611ac257fe5b826002811115611ace57fe5b1415611ae05782604001519050611ae5565b600090505b92915050565b6000806002811115611af957fe5b826002811115611b0557fe5b1415611b175782600001519050611b47565b60016002811115611b2457fe5b826002811115611b3057fe5b1415611b425782602001519050611b47565b600090505b92915050565b611b55611e2f565b60006002811115611b6257fe5b846002811115611b6e57fe5b1415611bde5760006001811115611b8157fe5b836001811115611b8d57fe5b1415611bb857611baa828660200151611c6f90919063ffffffff16565b856020018181525050611bd9565b611bcf828660200151611cf790919063ffffffff16565b8560200181815250505b611c64565b60016002811115611beb57fe5b846002811115611bf757fe5b1415611c635760006001811115611c0a57fe5b836001811115611c1657fe5b1415611c4157611c33828660400151611c6f90919063ffffffff16565b856040018181525050611c62565b611c58828660400151611cf790919063ffffffff16565b8560400181815250505b5b5b849050949350505050565b600080828401905083811015611ced576040517f08c379a000000000000000000000000000000000000000000000000000000000815260040180806020018281038252601b8152602001807f536166654d6174683a206164646974696f6e206f766572666c6f77000000000081525060200191505060405180910390fd5b8091505092915050565b6000611d3983836040518060400160405280601e81526020017f536166654d6174683a207375627472616374696f6e206f766572666c6f770000815250611d41565b905092915050565b6000838311158290611dee576040517f08c379a00000000000000000000000000000000000000000000000000000000081526004018080602001828103825283818151815260200191508051906020019080838360005b83811015611db3578082015181840152602081019050611d98565b50505050905090810190601f168015611de05780820380516001836020036101000a031916815260200191505b509250505060405180910390fd5b5060008385039050809150509392505050565b6040518060800160405280611e14611e2f565b81526020016060815260200160008152602001606081525090565b604051806060016040528060001515815260200160008152602001600081525090565b6040518060800160405280600081526020016000815260200160008152602001600081525090565b604051806080016040528060006003811115611e9257fe5b815260200160006002811115611ea457fe5b815260200160008152602001600081525090565b6000611ecb611ec68461288b565b61285a565b90508083825260208201905082856080860282011115611eea57600080fd5b60005b85811015611f1a5781611f008882611f78565b845260208401935060808301925050600181019050611eed565b5050509392505050565b600082601f830112611f3557600080fd5b8135611f45848260208601611eb8565b91505092915050565b600081359050611f5d81612a2b565b92915050565b600081359050611f7281612a3b565b92915050565b600060808284031215611f8a57600080fd5b611f94608061285a565b90506000611fa484828501611f4e565b6000830152506020611fb884828501611f63565b6020830152506040611fcc84828501611fec565b6040830152506060611fe084828501611fec565b60608301525092915050565b600081359050611ffb81612a4b565b92915050565b60008151905061201081612a4b565b92915050565b60006020828403121561202857600080fd5b600082013567ffffffffffffffff81111561204257600080fd5b61204e84828501611f24565b91505092915050565b6000806040838503121561206a57600080fd5b600083013567ffffffffffffffff81111561208457600080fd5b61209085828601611f24565b92505060206120a185828601611fec565b9150509250929050565b6000602082840312156120bd57600080fd5b60006120cb84828501612001565b91505092915050565b60006120e083836125cf565b60408301905092915050565b60006120f883836125fe565b60808301905092915050565b61210d816129a7565b82525050565b600061211e826128d7565b6121288185612907565b9350612133836128b7565b8060005b8381101561216457815161214b88826120d4565b9750612156836128ed565b925050600181019050612137565b5085935050505092915050565b600061217c826128d7565b6121868185612918565b9350612191836128b7565b8060005b838110156121c25781516121a988826120d4565b97506121b4836128ed565b925050600181019050612195565b5085935050505092915050565b60006121da826128e2565b6121e48185612929565b93506121ef836128c7565b8060005b8381101561222057815161220788826120ec565b9750612212836128fa565b9250506001810190506121f3565b5085935050505092915050565b6122368161294b565b82525050565b612245816129b9565b82525050565b612254816129cb565b82525050565b6000612267602b8361293a565b91507f496e76616c6964206661726d3a204e6f7420656e6f756768206d6f6e6579207460008301527f6f206275792073656564730000000000000000000000000000000000000000006020830152604082019050919050565b60006122cd60278361293a565b91507f496e76616c6964206661726d3a204e6f7420656e6f756768207365656473207460008301527f6f20706c616e74000000000000000000000000000000000000000000000000006020830152604082019050919050565b600061233360138361293a565b91507f4661726d20646f6573206e6f74206578697374000000000000000000000000006000830152602082019050919050565b6000612373601d8361293a565b91507f496e76616c6964206661726d3a204e6f206672756974206578697374730000006000830152602082019050919050565b60006123b3601e8361293a565b91507f496e76616c6964206661726d3a204e6f20736565647320746f2073656c6c00006000830152602082019050919050565b60006123f360238361293a565b91507f496e76616c6964206661726d3a20546865206672756974206973206e6f74207260008301527f69706500000000000000000000000000000000000000000000000000000000006020830152604082019050919050565b600061245960188361293a565b91507f496e76656e746f727920616c72656164792065786973747300000000000000006000830152602082019050919050565b600060c0830160008301516124a460008601826124f6565b50602083015184820360608601526124bc8282612113565b91505060408301516124d16080860182612653565b50606083015184820360a08601526124e982826121cf565b9150508091505092915050565b60608201600082015161250c600085018261222d565b50602082015161251f6020850182612653565b5060408201516125326040850182612653565b50505050565b60608201600082015161254e600085018261222d565b5060208201516125616020850182612653565b5060408201516125746040850182612653565b50505050565b6080820160008201516125906000850182612653565b5060208201516125a36020850182612653565b5060408201516125b66040850182612653565b5060608201516125c96060850182612653565b50505050565b6040820160008201516125e5600085018261224b565b5060208201516125f86020850182612653565b50505050565b608082016000820151612614600085018261223c565b506020820151612627602085018261224b565b50604082015161263a6040850182612653565b50606082015161264d6060850182612653565b50505050565b61265c8161299d565b82525050565b61266b8161299d565b82525050565b60006020820190506126866000830184612104565b92915050565b60006040820190506126a16000830185612104565b6126ae6020830184612662565b9392505050565b600060208201905081810360008301526126cf8184612171565b905092915050565b600060208201905081810360008301526126f08161225a565b9050919050565b60006020820190508181036000830152612710816122c0565b9050919050565b6000602082019050818103600083015261273081612326565b9050919050565b6000602082019050818103600083015261275081612366565b9050919050565b60006020820190508181036000830152612770816123a6565b9050919050565b60006020820190508181036000830152612790816123e6565b9050919050565b600060208201905081810360008301526127b08161244c565b9050919050565b600060208201905081810360008301526127d1818461248c565b905092915050565b600060408201905081810360008301526127f3818561248c565b90506128026020830184612662565b9392505050565b600060608201905061281e6000830184612538565b92915050565b6000608082019050612839600083018461257a565b92915050565b60006020820190506128546000830184612662565b92915050565b6000604051905081810181811067ffffffffffffffff8211171561288157612880612a01565b5b8060405250919050565b600067ffffffffffffffff8211156128a6576128a5612a01565b5b602082029050602081019050919050565b6000819050602082019050919050565b6000819050602082019050919050565b600081519050919050565b600081519050919050565b6000602082019050919050565b6000602082019050919050565b600082825260208201905092915050565b600082825260208201905092915050565b600082825260208201905092915050565b600082825260208201905092915050565b60008115159050919050565b600081905061296582612a03565b919050565b600081905061297882612a17565b919050565b600073ffffffffffffffffffffffffffffffffffffffff82169050919050565b6000819050919050565b60006129b2826129dd565b9050919050565b60006129c482612957565b9050919050565b60006129d68261296a565b9050919050565b60006129e8826129ef565b9050919050565b60006129fa8261297d565b9050919050565bfe5b60048110612a1457612a13612a01565b5b50565b60038110612a2857612a27612a01565b5b50565b60048110612a3857600080fd5b50565b60038110612a4857600080fd5b50565b612a548161299d565b8114612a5f57600080fd5b5056fea2646970667358221220db9fdddddcb30823fa763bf1bc0cde2b6a647067e6052af7f07c28a96b673b8064736f6c63430007060033",
  "immutableReferences": {},
  "source": "pragma solidity >=0.6.0 <0.8.0;\r\npragma experimental ABIEncoderV2;\r\n\r\nimport \"@openzeppelin/contracts/math/Math.sol\";\r\nimport \"./Token.sol\";\r\n\r\ncontract Farm {\r\n    using SafeMath for uint256;\r\n\r\n    //assign Token contract to variable\r\n    Token private token;\r\n    uint NOW_TIMESTAMP = 69;\r\n    uint DECIMAL_PLACES = 2;\r\n\r\n    struct Square {\r\n        Commodity commodity;\r\n        uint createdAt;\r\n    }\r\n\r\n    struct Inventory {\r\n        bool isInitialized;\r\n        uint apples;\r\n        uint avocados;\r\n    }\r\n\r\n\r\n    mapping(address => Inventory) inventories;\r\n    mapping(address => Square[]) fields;\r\n\r\n    //pass as constructor argument deployed Token contract\r\n    constructor(Token _token) public {\r\n        //assign token deployed contract to variable\r\n        token = _token;\r\n\r\n        // Initial prices\r\n        market[NOW_TIMESTAMP] = Prices({\r\n            apples: 100, \r\n            avocados: 400,\r\n            timestamp: NOW_TIMESTAMP,\r\n            previousTimestamp: 0\r\n        });\r\n    }\r\n\r\n    uint INITIAL_FIELD_COUNT = 9;\r\n\r\n    function createFarm() public returns (Farm memory currentFarm) {\r\n        require(!inventories[msg.sender].isInitialized, \"Inventory already exists\");\r\n\r\n        Inventory storage inventory = inventories[msg.sender];\r\n        inventory.isInitialized = true;\r\n        inventory.apples = 1;\r\n\r\n        // Farm only has 1 block\r\n        Square[] storage land = fields[msg.sender];\r\n        Square memory empty = Square(Commodity.Empty, 0);\r\n        for (uint index = 0; index < INITIAL_FIELD_COUNT; index++) {\r\n            land.push(empty);\r\n        }\r\n\r\n        uint balance = token.balanceOf(msg.sender);\r\n        Transaction[] memory transactions;\r\n\r\n\r\n        return Farm({\r\n            inventory: inventory,\r\n            land: land,\r\n            balance: balance,\r\n            transactions: transactions\r\n        });\r\n    }\r\n\r\n    function getInventory() public view returns (Inventory memory) {\r\n        return inventories[msg.sender];\r\n    }\r\n\r\n    function getLand() public view returns (Square[] memory) {\r\n        return fields[msg.sender];\r\n    }\r\n\r\n    enum Action { Buy, Sell, Plant, Harvest }\r\n    uint FRUIT_COUNT = 2;\r\n    enum Commodity { AppleSeed, AvocadoSeed, Empty }\r\n\r\n    struct Transaction { \r\n        Action action;\r\n        Commodity commodity;\r\n        uint timestamp;\r\n        uint landIndex;\r\n    }\r\n\r\n    uint MAX_AVOCADO_PRICE = 500;\r\n    uint MIN_AVOCADO_PRICE = 300;\r\n\r\n    struct Prices {\r\n        uint apples;\r\n        uint avocados;\r\n        uint timestamp;\r\n        uint previousTimestamp;\r\n    }\r\n     \r\n    mapping(uint => Prices) market;\r\n\r\n    struct Farm {\r\n        Inventory inventory;\r\n        Square[] land;\r\n        uint balance;\r\n        Transaction[] transactions;\r\n    }\r\n\r\n    uint APPLE_HARVEST_MILLSECONDS = 60 * 1000;\r\n\r\n    function getSeedFromInventory(Inventory memory _inventory, Commodity _commodity) private view returns (uint count) {\r\n        if (_commodity == Commodity.AppleSeed) {\r\n            return _inventory.apples;\r\n        } else if (_commodity == Commodity.AvocadoSeed) {\r\n            return _inventory.avocados;\r\n        }\r\n\r\n        return 0;\r\n    }\r\n\r\n    function getFruitPrice(Prices memory prices, Commodity _commodity) private view returns (uint price) {\r\n        if (_commodity == Commodity.AppleSeed) {\r\n            return prices.apples;\r\n        } else if (_commodity == Commodity.AvocadoSeed) {\r\n            return prices.avocados;\r\n        }\r\n\r\n        return 0;\r\n    }\r\n\r\n    enum InventoryAction {\r\n        Add,\r\n        Subtract\r\n    }\r\n\r\n    function updateInventory(Inventory memory _inventory, Commodity _commodity, InventoryAction _action, uint _change) private view returns (Inventory memory) {\r\n        if (_commodity == Commodity.AppleSeed) {\r\n            if (_action == InventoryAction.Add) {\r\n                _inventory.apples = _inventory.apples.add(_change);\r\n            } else {\r\n                _inventory.apples = _inventory.apples.sub(_change);\r\n            }\r\n        } else if (_commodity == Commodity.AvocadoSeed) {\r\n            if (_action == InventoryAction.Add) {\r\n                _inventory.avocados = _inventory.avocados.add(_change);\r\n            } else {\r\n                _inventory.avocados = _inventory.avocados.sub(_change);\r\n            }\r\n        }\r\n\r\n        return _inventory;\r\n    }\r\n\r\n    function buildFarm(Transaction[] memory _transactions) private view returns (Farm memory currentFarm) {\r\n        Inventory memory inventory = inventories[msg.sender];\r\n\r\n        require(inventory.isInitialized, \"Farm does not exist\");\r\n\r\n        Square[] memory land = fields[msg.sender];\r\n        uint balance = token.balanceOf(msg.sender);\r\n\r\n        for (uint index = 0; index < _transactions.length; index++) {\r\n            Transaction memory transaction = _transactions[index];\r\n            Prices memory prices = market[transaction.timestamp];\r\n            \r\n            uint seedCount = getSeedFromInventory(inventory, transaction.commodity);\r\n            uint price = getFruitPrice(prices, transaction.commodity);\r\n\r\n            if (transaction.action == Action.Sell) {\r\n                require(1 <= seedCount, \"Invalid farm: No seeds to sell\");\r\n\r\n                inventory = updateInventory(inventory, transaction.commodity, InventoryAction.Subtract, 1);\r\n                balance = balance.add(price);\r\n            } else if (transaction.action == Action.Buy) {\r\n                require(balance >= price, \"Invalid farm: Not enough money to buy seeds\");\r\n\r\n                balance = balance.sub(price);\r\n                inventory = updateInventory(inventory, transaction.commodity, InventoryAction.Add, 1);\r\n            } else if (transaction.action == Action.Plant) {\r\n                require(seedCount > 0, \"Invalid farm: Not enough seeds to plant\");\r\n\r\n                Square memory plantedSeed = Square(transaction.commodity, transaction.timestamp);\r\n                land[transaction.landIndex] = plantedSeed;\r\n                inventory = updateInventory(inventory, transaction.commodity, InventoryAction.Subtract, 1);\r\n            } else if (transaction.action == Action.Harvest) {\r\n                Square memory square = land[transaction.landIndex];\r\n                require(square.commodity == transaction.commodity, \"Invalid farm: No fruit exists\");\r\n\r\n                uint duration = block.timestamp - square.createdAt;\r\n                require(duration > APPLE_HARVEST_MILLSECONDS, \"Invalid farm: The fruit is not ripe\");\r\n\r\n                // Clear the land\r\n                Square memory emptyLand = Square(Commodity.Empty, 0);\r\n                land[transaction.landIndex] = emptyLand;\r\n                inventory = updateInventory(inventory, transaction.commodity, InventoryAction.Add, 2);\r\n            }\r\n        }\r\n\r\n        return Farm({\r\n            inventory: inventory,\r\n            land: land,\r\n            balance: balance,\r\n            transactions: _transactions\r\n        });\r\n    }\r\n\r\n    function clamp(uint value, uint minimum, uint maximum) private pure returns (uint clamped) {\r\n        if (value < minimum) {\r\n            return minimum;\r\n        }\r\n\r\n        if (value > maximum) {\r\n            return maximum;\r\n        }\r\n\r\n        return value;\r\n    }\r\n\r\n    // Assume the proportional number of transactions is what influences price\r\n    // Since at the time of transaction, they will likely be buying something and have sold all their seeds\r\n    function moveTheMarket(Transaction[] memory _transactions) public {\r\n        uint apples = 0;\r\n        uint avocados = 0;\r\n\r\n        // What is the biggest mover?\r\n        for (uint i=0; i < _transactions.length; i += 1) {\r\n            if (_transactions[i].commodity == Commodity.AppleSeed) {\r\n                apples += 1;\r\n            } else if ( _transactions[i].commodity == Commodity.AvocadoSeed) {\r\n                avocados += 1;\r\n            }\r\n        }\r\n\r\n        uint totalFruitTransactions = apples + avocados;\r\n\r\n        if (totalFruitTransactions == 0) {\r\n            return;\r\n        }\r\n\r\n        // Percentage of transactions that were apples\r\n        uint applePercentage = 0;\r\n        if (apples > 0) {\r\n            applePercentage = totalFruitTransactions * 100;\r\n        } \r\n        uint avocadoPercentage = 0;\r\n        if (avocados > 0) {\r\n            // 35%\r\n            avocadoPercentage = avocados / totalFruitTransactions * 100;\r\n        } \r\n\r\n        // 30%\r\n        uint expectedTransactions = 100 / FRUIT_COUNT;\r\n\r\n        // 5% \r\n        int avocadoChange = int(avocadoPercentage) - int(expectedTransactions);\r\n\r\n\r\n        //TODO even out the price from the previous hour - store transactions in the last hour?\r\n        int transactionCount = 1;\r\n        uint tenMinutesAgo = block.timestamp - (60 * 10);\r\n        Prices memory prices = market[NOW_TIMESTAMP];\r\n        while (prices.timestamp > tenMinutesAgo) {\r\n            transactionCount++;\r\n            \r\n            // Endless loop if we do not have this???\r\n            if (transactionCount >= 2) {\r\n                break;\r\n            }\r\n\r\n            // Back to the beginining\r\n            if (prices.previousTimestamp == 0) {\r\n                break;\r\n            }\r\n\r\n            prices = market[prices.previousTimestamp];\r\n        }\r\n\r\n        Prices memory currentPrices = market[NOW_TIMESTAMP];\r\n\r\n        // To avoid major market shifts, divide it\r\n        int MARKET_IMPACT = 10;\r\n        // 5% / 3 Transactions = 1.8%\r\n        int relativeAvocadoChange = avocadoChange / transactionCount / MARKET_IMPACT;\r\n        // 98.2% - we want to decrease it a little.\r\n        int percentage = 100 - relativeAvocadoChange;\r\n        // $5.23\r\n        uint avocadoPrice = currentPrices.avocados * uint(percentage) / 100;\r\n        // $5\r\n        uint clampedAvocadoPrice = clamp(avocadoPrice, MIN_AVOCADO_PRICE, MAX_AVOCADO_PRICE);\r\n\r\n        market[currentPrices.timestamp] = currentPrices;\r\n        market[NOW_TIMESTAMP] = Prices({\r\n            // Staple crop\r\n            apples: 100,\r\n            avocados: clampedAvocadoPrice,\r\n            timestamp: block.timestamp,\r\n            previousTimestamp: currentPrices.timestamp\r\n        });\r\n    }\r\n\r\n    function sync(Transaction[] memory _transactions) public {\r\n        uint balance = token.balanceOf(msg.sender);\r\n        Farm memory farm = buildFarm(_transactions);\r\n\r\n        // Update the inventory\r\n        Inventory storage oldInventory = inventories[msg.sender];\r\n\r\n        oldInventory.apples = farm.inventory.apples;\r\n\r\n        // TODO support more land\r\n        Square[] storage land = fields[msg.sender];\r\n        land[0] = farm.land[0];\r\n\r\n\r\n        // Update the balance - mint or burn\r\n        if (balance > farm.balance) {\r\n            uint profit = balance - farm.balance;\r\n            token.mint(msg.sender, profit);\r\n        } else if (farm.balance > balance) {\r\n            uint loss = farm.balance - balance;\r\n            token.burn(loss);\r\n        }\r\n\r\n        moveTheMarket(_transactions);\r\n    }\r\n\r\n    function addTransaction(Transaction[] memory _transactions, Transaction memory _transaction) private view returns (Transaction[] memory) {\r\n        Transaction[] memory newTransactions = new Transaction[](_transactions.length + 1);\r\n        for (uint i=0; i < _transactions.length; i += 1) {\r\n            newTransactions[i] = _transactions[i];\r\n        }\r\n\r\n        // Add the new transaction\r\n        newTransactions[_transactions.length] = _transaction;\r\n\r\n        return newTransactions;\r\n    }\r\n\r\n    function buyAppleSeed(Transaction[] memory _transactions) public view returns (Farm memory farm, uint price) {\r\n        Prices memory currentPrices = market[NOW_TIMESTAMP];\r\n        Transaction memory buyAppleTransaction = Transaction(Action.Buy, Commodity.AppleSeed, currentPrices.timestamp, 0);\r\n        Transaction[] memory newTransactions = addTransaction(_transactions, buyAppleTransaction);\r\n\r\n\r\n        Farm memory updatedFarm = buildFarm(newTransactions);\r\n        return (updatedFarm,currentPrices.apples);\r\n    }\r\n\r\n    function sellAppleSeed(Transaction[] memory _transactions) public view returns (Farm memory farm, uint price) {\r\n        Prices memory currentPrices = market[NOW_TIMESTAMP];\r\n        Transaction memory sellAppleTransaction = Transaction(Action.Sell, Commodity.AppleSeed, currentPrices.timestamp, 0);\r\n        Transaction[] memory newTransactions = addTransaction(_transactions, sellAppleTransaction);\r\n\r\n\r\n        Farm memory updatedFarm = buildFarm(newTransactions);\r\n        return (updatedFarm, currentPrices.apples);\r\n    }\r\n\r\n    function plantAppleSeed(Transaction[] memory _transactions, uint landIndex) public view returns (Farm memory farm) {\r\n        Prices memory currentPrices = market[NOW_TIMESTAMP];\r\n        Transaction memory plantAppleTransaction = Transaction(Action.Plant, Commodity.AppleSeed, currentPrices.timestamp, landIndex);\r\n        Transaction[] memory newTransactions = addTransaction(_transactions, plantAppleTransaction);\r\n\r\n        Farm memory updatedFarm = buildFarm(newTransactions);\r\n        return (updatedFarm);\r\n    }\r\n\r\n    function harvestAppleSeed(Transaction[] memory _transactions, uint landIndex) public view returns (Farm memory farm) {\r\n        // Add the new transaction\r\n        Prices memory currentPrices = market[NOW_TIMESTAMP];\r\n        Transaction memory plantAppleTransaction = Transaction(Action.Harvest, Commodity.AppleSeed, currentPrices.timestamp, 0);\r\n        Transaction[] memory newTransactions = addTransaction(_transactions, plantAppleTransaction);\r\n\r\n        Farm memory updatedFarm = buildFarm(newTransactions);\r\n        return (updatedFarm);\r\n    }\r\n\r\n    function buyAvocadoSeed(Transaction[] memory _transactions) public view returns (Farm memory farm, uint price) {\r\n        Prices memory currentPrices = market[NOW_TIMESTAMP];\r\n        Transaction memory buyAppleTransaction = Transaction(Action.Buy, Commodity.AvocadoSeed, currentPrices.timestamp, 0);\r\n        Transaction[] memory newTransactions = addTransaction(_transactions, buyAppleTransaction);\r\n\r\n\r\n        Farm memory updatedFarm = buildFarm(newTransactions);\r\n        return (updatedFarm,currentPrices.apples);\r\n    }\r\n\r\n    function sellAvocadoSeed(Transaction[] memory _transactions) public view returns (Farm memory farm, uint price) {\r\n        Prices memory currentPrices = market[NOW_TIMESTAMP];\r\n        Transaction memory sellAppleTransaction = Transaction(Action.Sell, Commodity.AvocadoSeed, currentPrices.timestamp, 0);\r\n        Transaction[] memory newTransactions = addTransaction(_transactions, sellAppleTransaction);\r\n\r\n\r\n        Farm memory updatedFarm = buildFarm(newTransactions);\r\n        return (updatedFarm, currentPrices.apples);\r\n    }\r\n\r\n    function getPrices() public view returns (Prices memory price) {\r\n        return market[NOW_TIMESTAMP];\r\n    }\r\n\r\n    function getApplePrice() public view returns (uint price) {\r\n        return market[NOW_TIMESTAMP].apples;\r\n    }\r\n\r\n    function getAvocadoPrice() public view returns (uint price) {\r\n        return market[NOW_TIMESTAMP].avocados;\r\n    }\r\n}\r\n",
  "sourcePath": "/Users/adamhannigan/Documents/workspace/fruit-market/src/contracts/Farm.sol",
  "compiler": {
    "name": "solc",
    "version": "0.7.6+commit.7338295f.Emscripten.clang"
  },
  "schemaVersion": "3.4.0",
  "updatedAt": "2021-05-10T11:26:42.373Z",
  "networkType": "ethereum",
  "devdoc": {
    "kind": "dev",
    "methods": {},
    "version": 1
  },
  "userdoc": {
    "kind": "user",
    "methods": {},
    "version": 1
  }
}