{
  "contractName": "Farm",
  "abi": [
    {
      "inputs": [
        {
          "internalType": "contract Token",
          "name": "_token",
          "type": "address"
        }
      ],
      "stateMutability": "nonpayable",
      "type": "constructor"
    },
    {
      "anonymous": false,
      "inputs": [
        {
          "indexed": true,
          "internalType": "address",
          "name": "_address",
          "type": "address"
        }
      ],
      "name": "FarmCreated",
      "type": "event"
    },
    {
      "anonymous": false,
      "inputs": [
        {
          "indexed": true,
          "internalType": "address",
          "name": "_address",
          "type": "address"
        }
      ],
      "name": "FarmSynced",
      "type": "event"
    },
    {
      "inputs": [],
      "name": "createFarm",
      "outputs": [],
      "stateMutability": "nonpayable",
      "type": "function"
    },
    {
      "inputs": [],
      "name": "getInventory",
      "outputs": [
        {
          "components": [
            {
              "internalType": "bool",
              "name": "isInitialized",
              "type": "bool"
            },
            {
              "internalType": "uint256",
              "name": "apples",
              "type": "uint256"
            },
            {
              "internalType": "uint256",
              "name": "avocados",
              "type": "uint256"
            }
          ],
          "internalType": "struct Farm.Inventory",
          "name": "",
          "type": "tuple"
        }
      ],
      "stateMutability": "view",
      "type": "function",
      "constant": true
    },
    {
      "inputs": [],
      "name": "getLand",
      "outputs": [
        {
          "components": [
            {
              "internalType": "enum Farm.Commodity",
              "name": "commodity",
              "type": "uint8"
            },
            {
              "internalType": "uint256",
              "name": "createdAt",
              "type": "uint256"
            }
          ],
          "internalType": "struct Farm.Square[]",
          "name": "",
          "type": "tuple[]"
        }
      ],
      "stateMutability": "view",
      "type": "function",
      "constant": true
    },
    {
      "inputs": [
        {
          "components": [
            {
              "internalType": "enum Farm.Action",
              "name": "action",
              "type": "uint8"
            },
            {
              "internalType": "enum Farm.Commodity",
              "name": "commodity",
              "type": "uint8"
            },
            {
              "internalType": "uint256",
              "name": "timestamp",
              "type": "uint256"
            },
            {
              "internalType": "uint256",
              "name": "landIndex",
              "type": "uint256"
            },
            {
              "internalType": "uint256",
              "name": "createdAt",
              "type": "uint256"
            }
          ],
          "internalType": "struct Farm.Transaction[]",
          "name": "_transactions",
          "type": "tuple[]"
        }
      ],
      "name": "moveTheMarket",
      "outputs": [],
      "stateMutability": "nonpayable",
      "type": "function"
    },
    {
      "inputs": [
        {
          "components": [
            {
              "internalType": "enum Farm.Action",
              "name": "action",
              "type": "uint8"
            },
            {
              "internalType": "enum Farm.Commodity",
              "name": "commodity",
              "type": "uint8"
            },
            {
              "internalType": "uint256",
              "name": "timestamp",
              "type": "uint256"
            },
            {
              "internalType": "uint256",
              "name": "landIndex",
              "type": "uint256"
            },
            {
              "internalType": "uint256",
              "name": "createdAt",
              "type": "uint256"
            }
          ],
          "internalType": "struct Farm.Transaction[]",
          "name": "_transactions",
          "type": "tuple[]"
        }
      ],
      "name": "sync",
      "outputs": [],
      "stateMutability": "nonpayable",
      "type": "function"
    },
    {
      "inputs": [
        {
          "components": [
            {
              "internalType": "enum Farm.Action",
              "name": "action",
              "type": "uint8"
            },
            {
              "internalType": "enum Farm.Commodity",
              "name": "commodity",
              "type": "uint8"
            },
            {
              "internalType": "uint256",
              "name": "timestamp",
              "type": "uint256"
            },
            {
              "internalType": "uint256",
              "name": "landIndex",
              "type": "uint256"
            },
            {
              "internalType": "uint256",
              "name": "createdAt",
              "type": "uint256"
            }
          ],
          "internalType": "struct Farm.Transaction[]",
          "name": "_transactions",
          "type": "tuple[]"
        },
        {
          "internalType": "enum Farm.Commodity",
          "name": "_commodity",
          "type": "uint8"
        }
      ],
      "name": "buy",
      "outputs": [
        {
          "components": [
            {
              "components": [
                {
                  "internalType": "bool",
                  "name": "isInitialized",
                  "type": "bool"
                },
                {
                  "internalType": "uint256",
                  "name": "apples",
                  "type": "uint256"
                },
                {
                  "internalType": "uint256",
                  "name": "avocados",
                  "type": "uint256"
                }
              ],
              "internalType": "struct Farm.Inventory",
              "name": "inventory",
              "type": "tuple"
            },
            {
              "components": [
                {
                  "internalType": "enum Farm.Commodity",
                  "name": "commodity",
                  "type": "uint8"
                },
                {
                  "internalType": "uint256",
                  "name": "createdAt",
                  "type": "uint256"
                }
              ],
              "internalType": "struct Farm.Square[]",
              "name": "land",
              "type": "tuple[]"
            },
            {
              "internalType": "uint256",
              "name": "balance",
              "type": "uint256"
            },
            {
              "components": [
                {
                  "internalType": "enum Farm.Action",
                  "name": "action",
                  "type": "uint8"
                },
                {
                  "internalType": "enum Farm.Commodity",
                  "name": "commodity",
                  "type": "uint8"
                },
                {
                  "internalType": "uint256",
                  "name": "timestamp",
                  "type": "uint256"
                },
                {
                  "internalType": "uint256",
                  "name": "landIndex",
                  "type": "uint256"
                },
                {
                  "internalType": "uint256",
                  "name": "createdAt",
                  "type": "uint256"
                }
              ],
              "internalType": "struct Farm.Transaction[]",
              "name": "transactions",
              "type": "tuple[]"
            }
          ],
          "internalType": "struct Farm.Farm",
          "name": "farm",
          "type": "tuple"
        },
        {
          "internalType": "uint256",
          "name": "price",
          "type": "uint256"
        }
      ],
      "stateMutability": "view",
      "type": "function",
      "constant": true
    },
    {
      "inputs": [
        {
          "components": [
            {
              "internalType": "enum Farm.Action",
              "name": "action",
              "type": "uint8"
            },
            {
              "internalType": "enum Farm.Commodity",
              "name": "commodity",
              "type": "uint8"
            },
            {
              "internalType": "uint256",
              "name": "timestamp",
              "type": "uint256"
            },
            {
              "internalType": "uint256",
              "name": "landIndex",
              "type": "uint256"
            },
            {
              "internalType": "uint256",
              "name": "createdAt",
              "type": "uint256"
            }
          ],
          "internalType": "struct Farm.Transaction[]",
          "name": "_transactions",
          "type": "tuple[]"
        },
        {
          "internalType": "enum Farm.Commodity",
          "name": "_commodity",
          "type": "uint8"
        }
      ],
      "name": "sell",
      "outputs": [
        {
          "components": [
            {
              "components": [
                {
                  "internalType": "bool",
                  "name": "isInitialized",
                  "type": "bool"
                },
                {
                  "internalType": "uint256",
                  "name": "apples",
                  "type": "uint256"
                },
                {
                  "internalType": "uint256",
                  "name": "avocados",
                  "type": "uint256"
                }
              ],
              "internalType": "struct Farm.Inventory",
              "name": "inventory",
              "type": "tuple"
            },
            {
              "components": [
                {
                  "internalType": "enum Farm.Commodity",
                  "name": "commodity",
                  "type": "uint8"
                },
                {
                  "internalType": "uint256",
                  "name": "createdAt",
                  "type": "uint256"
                }
              ],
              "internalType": "struct Farm.Square[]",
              "name": "land",
              "type": "tuple[]"
            },
            {
              "internalType": "uint256",
              "name": "balance",
              "type": "uint256"
            },
            {
              "components": [
                {
                  "internalType": "enum Farm.Action",
                  "name": "action",
                  "type": "uint8"
                },
                {
                  "internalType": "enum Farm.Commodity",
                  "name": "commodity",
                  "type": "uint8"
                },
                {
                  "internalType": "uint256",
                  "name": "timestamp",
                  "type": "uint256"
                },
                {
                  "internalType": "uint256",
                  "name": "landIndex",
                  "type": "uint256"
                },
                {
                  "internalType": "uint256",
                  "name": "createdAt",
                  "type": "uint256"
                }
              ],
              "internalType": "struct Farm.Transaction[]",
              "name": "transactions",
              "type": "tuple[]"
            }
          ],
          "internalType": "struct Farm.Farm",
          "name": "farm",
          "type": "tuple"
        },
        {
          "internalType": "uint256",
          "name": "price",
          "type": "uint256"
        }
      ],
      "stateMutability": "view",
      "type": "function",
      "constant": true
    },
    {
      "inputs": [
        {
          "components": [
            {
              "internalType": "enum Farm.Action",
              "name": "action",
              "type": "uint8"
            },
            {
              "internalType": "enum Farm.Commodity",
              "name": "commodity",
              "type": "uint8"
            },
            {
              "internalType": "uint256",
              "name": "timestamp",
              "type": "uint256"
            },
            {
              "internalType": "uint256",
              "name": "landIndex",
              "type": "uint256"
            },
            {
              "internalType": "uint256",
              "name": "createdAt",
              "type": "uint256"
            }
          ],
          "internalType": "struct Farm.Transaction[]",
          "name": "_transactions",
          "type": "tuple[]"
        },
        {
          "internalType": "enum Farm.Commodity",
          "name": "_commodity",
          "type": "uint8"
        },
        {
          "internalType": "uint256",
          "name": "landIndex",
          "type": "uint256"
        }
      ],
      "name": "plant",
      "outputs": [
        {
          "components": [
            {
              "components": [
                {
                  "internalType": "bool",
                  "name": "isInitialized",
                  "type": "bool"
                },
                {
                  "internalType": "uint256",
                  "name": "apples",
                  "type": "uint256"
                },
                {
                  "internalType": "uint256",
                  "name": "avocados",
                  "type": "uint256"
                }
              ],
              "internalType": "struct Farm.Inventory",
              "name": "inventory",
              "type": "tuple"
            },
            {
              "components": [
                {
                  "internalType": "enum Farm.Commodity",
                  "name": "commodity",
                  "type": "uint8"
                },
                {
                  "internalType": "uint256",
                  "name": "createdAt",
                  "type": "uint256"
                }
              ],
              "internalType": "struct Farm.Square[]",
              "name": "land",
              "type": "tuple[]"
            },
            {
              "internalType": "uint256",
              "name": "balance",
              "type": "uint256"
            },
            {
              "components": [
                {
                  "internalType": "enum Farm.Action",
                  "name": "action",
                  "type": "uint8"
                },
                {
                  "internalType": "enum Farm.Commodity",
                  "name": "commodity",
                  "type": "uint8"
                },
                {
                  "internalType": "uint256",
                  "name": "timestamp",
                  "type": "uint256"
                },
                {
                  "internalType": "uint256",
                  "name": "landIndex",
                  "type": "uint256"
                },
                {
                  "internalType": "uint256",
                  "name": "createdAt",
                  "type": "uint256"
                }
              ],
              "internalType": "struct Farm.Transaction[]",
              "name": "transactions",
              "type": "tuple[]"
            }
          ],
          "internalType": "struct Farm.Farm",
          "name": "farm",
          "type": "tuple"
        }
      ],
      "stateMutability": "view",
      "type": "function",
      "constant": true
    },
    {
      "inputs": [
        {
          "components": [
            {
              "internalType": "enum Farm.Action",
              "name": "action",
              "type": "uint8"
            },
            {
              "internalType": "enum Farm.Commodity",
              "name": "commodity",
              "type": "uint8"
            },
            {
              "internalType": "uint256",
              "name": "timestamp",
              "type": "uint256"
            },
            {
              "internalType": "uint256",
              "name": "landIndex",
              "type": "uint256"
            },
            {
              "internalType": "uint256",
              "name": "createdAt",
              "type": "uint256"
            }
          ],
          "internalType": "struct Farm.Transaction[]",
          "name": "_transactions",
          "type": "tuple[]"
        },
        {
          "internalType": "enum Farm.Commodity",
          "name": "_commodity",
          "type": "uint8"
        },
        {
          "internalType": "uint256",
          "name": "landIndex",
          "type": "uint256"
        }
      ],
      "name": "harvest",
      "outputs": [
        {
          "components": [
            {
              "components": [
                {
                  "internalType": "bool",
                  "name": "isInitialized",
                  "type": "bool"
                },
                {
                  "internalType": "uint256",
                  "name": "apples",
                  "type": "uint256"
                },
                {
                  "internalType": "uint256",
                  "name": "avocados",
                  "type": "uint256"
                }
              ],
              "internalType": "struct Farm.Inventory",
              "name": "inventory",
              "type": "tuple"
            },
            {
              "components": [
                {
                  "internalType": "enum Farm.Commodity",
                  "name": "commodity",
                  "type": "uint8"
                },
                {
                  "internalType": "uint256",
                  "name": "createdAt",
                  "type": "uint256"
                }
              ],
              "internalType": "struct Farm.Square[]",
              "name": "land",
              "type": "tuple[]"
            },
            {
              "internalType": "uint256",
              "name": "balance",
              "type": "uint256"
            },
            {
              "components": [
                {
                  "internalType": "enum Farm.Action",
                  "name": "action",
                  "type": "uint8"
                },
                {
                  "internalType": "enum Farm.Commodity",
                  "name": "commodity",
                  "type": "uint8"
                },
                {
                  "internalType": "uint256",
                  "name": "timestamp",
                  "type": "uint256"
                },
                {
                  "internalType": "uint256",
                  "name": "landIndex",
                  "type": "uint256"
                },
                {
                  "internalType": "uint256",
                  "name": "createdAt",
                  "type": "uint256"
                }
              ],
              "internalType": "struct Farm.Transaction[]",
              "name": "transactions",
              "type": "tuple[]"
            }
          ],
          "internalType": "struct Farm.Farm",
          "name": "farm",
          "type": "tuple"
        }
      ],
      "stateMutability": "view",
      "type": "function",
      "constant": true
    },
    {
      "inputs": [],
      "name": "getPrices",
      "outputs": [
        {
          "components": [
            {
              "internalType": "uint256",
              "name": "apples",
              "type": "uint256"
            },
            {
              "internalType": "uint256",
              "name": "avocados",
              "type": "uint256"
            },
            {
              "internalType": "uint256",
              "name": "timestamp",
              "type": "uint256"
            },
            {
              "internalType": "uint256",
              "name": "previousTimestamp",
              "type": "uint256"
            }
          ],
          "internalType": "struct Farm.Prices",
          "name": "price",
          "type": "tuple"
        }
      ],
      "stateMutability": "view",
      "type": "function",
      "constant": true
    },
    {
      "inputs": [],
      "name": "getApplePrice",
      "outputs": [
        {
          "internalType": "uint256",
          "name": "price",
          "type": "uint256"
        }
      ],
      "stateMutability": "view",
      "type": "function",
      "constant": true
    },
    {
      "inputs": [],
      "name": "getAvocadoPrice",
      "outputs": [
        {
          "internalType": "uint256",
          "name": "price",
          "type": "uint256"
        }
      ],
      "stateMutability": "view",
      "type": "function",
      "constant": true
    }
  ],
  "bytecode": "0x6080604052604560015560028055600960055560026006556101f460075561012c600855603c600a553480156200003557600080fd5b5060405162002ce638038062002ce683398181016040528101906200005b91906200011e565b806000806101000a81548173ffffffffffffffffffffffffffffffffffffffff021916908373ffffffffffffffffffffffffffffffffffffffff160217905550604051806080016040528060648152602001610190815260200142815260200160008152506009600060015481526020019081526020016000206000820151816000015560208201518160010155604082015181600201556060820151816003015590505050620001ac565b600081519050620001188162000192565b92915050565b6000602082840312156200013157600080fd5b6000620001418482850162000107565b91505092915050565b6000620001578262000172565b9050919050565b60006200016b826200014a565b9050919050565b600073ffffffffffffffffffffffffffffffffffffffff82169050919050565b6200019d816200015e565b8114620001a957600080fd5b50565b612b2a80620001bc6000396000f3fe608060405234801561001057600080fd5b50600436106100b45760003560e01c8063b4d641dc11610071578063b4d641dc1461017c578063ba7d808a14610198578063bc337f78146101c8578063bd9a548b146101e6578063bf78606e14610204578063f683765014610235576100b4565b80631d5ec3cb146100b9578063524a273a146100c35780635690314c146100f35780635d7f850c146101115780636163ec321461012f578063864ccb781461014b575b600080fd5b6100c1610253565b005b6100dd60048036038101906100d8919061200d565b61052a565b6040516100ea91906127bd565b60405180910390f35b6100fb6105ed565b60405161010891906126b9565b60405180910390f35b6101196106c0565b604051610126919061280f565b60405180910390f35b61014960048036038101906101449190611f78565b610746565b005b61016560048036038101906101609190611fb9565b610a71565b6040516101739291906127df565b60405180910390f35b61019660048036038101906101919190611f78565b610b3d565b005b6101b260048036038101906101ad919061200d565b610eb5565b6040516101bf91906127bd565b60405180910390f35b6101d0610f77565b6040516101dd9190612845565b60405180910390f35b6101ee610f97565b6040516101fb919061282a565b60405180910390f35b61021e60048036038101906102199190611fb9565b610fec565b60405161022c9291906127df565b60405180910390f35b61023d6110b8565b60405161024a9190612845565b60405180910390f35b600360003373ffffffffffffffffffffffffffffffffffffffff1673ffffffffffffffffffffffffffffffffffffffff16815260200190815260200160002060000160009054906101000a900460ff16156102e3576040517f08c379a00000000000000000000000000000000000000000000000000000000081526004016102da9061279d565b60405180910390fd5b6000600360003373ffffffffffffffffffffffffffffffffffffffff1673ffffffffffffffffffffffffffffffffffffffff168152602001908152602001600020905060018160000160006101000a81548160ff021916908315150217905550600181600101819055506000600460003373ffffffffffffffffffffffffffffffffffffffff1673ffffffffffffffffffffffffffffffffffffffff1681526020019081526020016000209050600060405180604001604052806002808111156103a957fe5b81526020016000815250905060005b60055481101561042f578282908060018154018082558091505060019003906000526020600020906002020160009091909190915060008201518160000160006101000a81548160ff0219169083600281111561041157fe5b021790555060208201518160010155505080806001019150506103b8565b5060008060009054906101000a900473ffffffffffffffffffffffffffffffffffffffff1673ffffffffffffffffffffffffffffffffffffffff166370a08231336040518263ffffffff1660e01b815260040161048c9190612675565b60206040518083038186803b1580156104a457600080fd5b505afa1580156104b8573d6000803e3d6000fd5b505050506040513d601f19601f820116820180604052508101906104dc9190612074565b905060603373ffffffffffffffffffffffffffffffffffffffff167f46963f16723a084f2199eb74021bd97647aa6c8960612a9a031ce509d40d4ca760405160405180910390a25050505050565b610532611d48565b6000600960006001548152602001908152602001600020604051806080016040529081600082015481526020016001820154815260200160028201548152602001600382015481525050905060006040518060a001604052806002600381111561059857fe5b81526020018660028111156105a957fe5b81526020018360400151815260200185815260200142815250905060006105d087836110d8565b905060006105dd8261119a565b9050809450505050509392505050565b6060600460003373ffffffffffffffffffffffffffffffffffffffff1673ffffffffffffffffffffffffffffffffffffffff168152602001908152602001600020805480602002602001604051908101604052809291908181526020016000905b828210156106b757838290600052602060002090600202016040518060400160405290816000820160009054906101000a900460ff16600281111561068f57fe5b600281111561069a57fe5b81526020016001820154815250508152602001906001019061064e565b50505050905090565b6106c8611d76565b600360003373ffffffffffffffffffffffffffffffffffffffff1673ffffffffffffffffffffffffffffffffffffffff1681526020019081526020016000206040518060600160405290816000820160009054906101000a900460ff1615151515815260200160018201548152602001600282015481525050905090565b60008060005b83518110156107df576000600281111561076257fe5b84828151811061076e57fe5b602002602001015160200151600281111561078557fe5b1415610796576001830192506107d4565b600160028111156107a357fe5b8482815181106107af57fe5b60200260200101516020015160028111156107c657fe5b14156107d3576001820191505b5b60018101905061074c565b506000818301905060008114156107f857505050610a6e565b600080841115610809576064820290505b60008084111561082357606483858161081e57fe5b040290505b600060065460648161083157fe5b04905060008183039050600060019050600061025842039050600060096000600154815260200190815260200160002060405180608001604052908160008201548152602001600182015481526020016002820154815260200160038201548152505090505b818160400151111561091b578280600101935050600283126108b85761091b565b6000816060015114156108ca5761091b565b60096000826060015181526020019081526020016000206040518060800160405290816000820154815260200160018201548152602001600282015481526020016003820154815250509050610897565b600060096000600154815260200190815260200160002060405180608001604052908160008201548152602001600182015481526020016002820154815260200160038201548152505090506000600a905060008186888161097957fe5b058161098157fe5b059050600081606403905060006064828660200151028161099e57fe5b04905060006109b282600854600754611827565b905085600960008860400151815260200190815260200160002060008201518160000155602082015181600101556040820151816002015560608201518160030155905050604051806080016040528060648152602001828152602001428152602001876040015181525060096000600154815260200190815260200160002060008201518160000155602082015181600101556040820151816002015560608201518160030155905050505050505050505050505050505050505b50565b610a79611d48565b600080600960006001548152602001908152602001600020604051806080016040529081600082015481526020016001820154815260200160028201548152602001600382015481525050905060006040518060a0016040528060006003811115610ae057fe5b8152602001866002811115610af157fe5b815260200183604001518152602001600081526020014281525090506000610b1987836110d8565b90506000610b268261119a565b905080846000015195509550505050509250929050565b60008060009054906101000a900473ffffffffffffffffffffffffffffffffffffffff1673ffffffffffffffffffffffffffffffffffffffff166370a08231336040518263ffffffff1660e01b8152600401610b999190612675565b60206040518083038186803b158015610bb157600080fd5b505afa158015610bc5573d6000803e3d6000fd5b505050506040513d601f19601f82011682018060405250810190610be99190612074565b90506000610bf68361119a565b90506000600360003373ffffffffffffffffffffffffffffffffffffffff1673ffffffffffffffffffffffffffffffffffffffff168152602001908152602001600020905081600001516020015181600101819055506000600460003373ffffffffffffffffffffffffffffffffffffffff1673ffffffffffffffffffffffffffffffffffffffff168152602001908152602001600020905060005b836020015151811015610d125783602001518181518110610caf57fe5b6020026020010151828281548110610cc357fe5b906000526020600020906002020160008201518160000160006101000a81548160ff02191690836002811115610cf557fe5b021790555060208201518160010155905050600181019050610c92565b508383604001511115610dbd57600083604001518503905060008054906101000a900473ffffffffffffffffffffffffffffffffffffffff1673ffffffffffffffffffffffffffffffffffffffff166340c10f1933836040518363ffffffff1660e01b8152600401610d85929190612690565b600060405180830381600087803b158015610d9f57600080fd5b505af1158015610db3573d6000803e3d6000fd5b5050505050610e62565b8383604001511015610e6157600084846040015103905060008054906101000a900473ffffffffffffffffffffffffffffffffffffffff1673ffffffffffffffffffffffffffffffffffffffff166342966c68826040518263ffffffff1660e01b8152600401610e2d9190612845565b600060405180830381600087803b158015610e4757600080fd5b505af1158015610e5b573d6000803e3d6000fd5b50505050505b5b610e6b85610746565b3373ffffffffffffffffffffffffffffffffffffffff167fbe35fe23c13a419d565edccb8c8bdedc160c5b9a82873e431b545080d6f3c68860405160405180910390a25050505050565b610ebd611d48565b6000600960006001548152602001908152602001600020604051806080016040529081600082015481526020016001820154815260200160028201548152602001600382015481525050905060006040518060a00160405280600380811115610f2257fe5b8152602001866002811115610f3357fe5b8152602001836040015181526020018581526020014281525090506000610f5a87836110d8565b90506000610f678261119a565b9050809450505050509392505050565b600060096000600154815260200190815260200160002060010154905090565b610f9f611d99565b600960006001548152602001908152602001600020604051806080016040529081600082015481526020016001820154815260200160028201548152602001600382015481525050905090565b610ff4611d48565b600080600960006001548152602001908152602001600020604051806080016040529081600082015481526020016001820154815260200160028201548152602001600382015481525050905060006040518060a001604052806001600381111561105b57fe5b815260200186600281111561106c57fe5b81526020018360400151815260200160008152602001428152509050600061109487836110d8565b905060006110a18261119a565b905080846000015195509550505050509250929050565b600060096000600154815260200190815260200160002060000154905090565b60606000600184510167ffffffffffffffff811180156110f757600080fd5b5060405190808252806020026020018201604052801561113157816020015b61111e611dc1565b8152602001906001900390816111165790505b50905060005b84518110156111765784818151811061114c57fe5b602002602001015182828151811061116057fe5b6020026020010181905250600181019050611137565b50828185518151811061118557fe5b60200260200101819052508091505092915050565b6111a2611d48565b6000600360003373ffffffffffffffffffffffffffffffffffffffff1673ffffffffffffffffffffffffffffffffffffffff1681526020019081526020016000206040518060600160405290816000820160009054906101000a900460ff161515151581526020016001820154815260200160028201548152505090508060000151611263576040517f08c379a000000000000000000000000000000000000000000000000000000000815260040161125a9061273d565b60405180910390fd5b6000600460003373ffffffffffffffffffffffffffffffffffffffff1673ffffffffffffffffffffffffffffffffffffffff168152602001908152602001600020805480602002602001604051908101604052809291908181526020016000905b8282101561132d57838290600052602060002090600202016040518060400160405290816000820160009054906101000a900460ff16600281111561130557fe5b600281111561131057fe5b8152602001600182015481525050815260200190600101906112c4565b50505050905060008060009054906101000a900473ffffffffffffffffffffffffffffffffffffffff1673ffffffffffffffffffffffffffffffffffffffff166370a08231336040518263ffffffff1660e01b815260040161138f9190612675565b60206040518083038186803b1580156113a757600080fd5b505afa1580156113bb573d6000803e3d6000fd5b505050506040513d601f19601f820116820180604052508101906113df9190612074565b905060005b85518110156117fb5760008682815181106113fb57fe5b602002602001015190506000600960008360400151815260200190815260200160002060405180608001604052908160008201548152602001600182015481526020016002820154815260200160038201548152505090506000611463878460200151611854565b905060006114758385602001516118b6565b90506001600381111561148457fe5b8460000151600381111561149457fe5b141561150c5781600111156114de576040517f08c379a00000000000000000000000000000000000000000000000000000000081526004016114d59061277d565b60405180910390fd5b6114ef888560200151600180611918565b9750611505606487611a3a90919063ffffffff16565b95506117ea565b6000600381111561151957fe5b8460000151600381111561152957fe5b14156115a15780861015611572576040517f08c379a0000000000000000000000000000000000000000000000000000000008152600401611569906126fd565b60405180910390fd5b611586606487611ac290919063ffffffff16565b955061159a88856020015160006001611918565b97506117e9565b600260038111156115ae57fe5b846000015160038111156115be57fe5b14156116685760008211611607576040517f08c379a00000000000000000000000000000000000000000000000000000000081526004016115fe9061271d565b60405180910390fd5b600060405180604001604052808660200151600281111561162457fe5b815260200186608001518152509050808886606001518151811061164457fe5b6020026020010181905250611660898660200151600180611918565b9850506117e8565b60038081111561167457fe5b8460000151600381111561168457fe5b14156117e75760008785606001518151811061169c57fe5b60200260200101519050846020015160028111156116b657fe5b816000015160028111156116c657fe5b14611706576040517f08c379a00000000000000000000000000000000000000000000000000000000081526004016116fd9061275d565b60405180910390fd5b6000816020015142039050600061171c82611b0c565b90506000611742604051806060016040528060328152602001612ac36032913983611c5c565b9050600a548311819061178b576040517f08c379a000000000000000000000000000000000000000000000000000000000815260040161178291906126db565b60405180910390fd5b50600060405180604001604052806002808111156117a557fe5b815260200160008152509050808c8a60600151815181106117c257fe5b60200260200101819052506117df8d8a6020015160006002611918565b9c5050505050505b5b5b5b5050505080806001019150506113e4565b506040518060800160405280848152602001838152602001828152602001868152509350505050919050565b6000828410156118395782905061184d565b818411156118495781905061184d565b8390505b9392505050565b600080600281111561186257fe5b82600281111561186e57fe5b141561188057826020015190506118b0565b6001600281111561188d57fe5b82600281111561189957fe5b14156118ab57826040015190506118b0565b600090505b92915050565b60008060028111156118c457fe5b8260028111156118d057fe5b14156118e25782600001519050611912565b600160028111156118ef57fe5b8260028111156118fb57fe5b141561190d5782602001519050611912565b600090505b92915050565b611920611d76565b6000600281111561192d57fe5b84600281111561193957fe5b14156119a9576000600181111561194c57fe5b83600181111561195857fe5b141561198357611975828660200151611a3a90919063ffffffff16565b8560200181815250506119a4565b61199a828660200151611ac290919063ffffffff16565b8560200181815250505b611a2f565b600160028111156119b657fe5b8460028111156119c257fe5b1415611a2e57600060018111156119d557fe5b8360018111156119e157fe5b1415611a0c576119fe828660400151611a3a90919063ffffffff16565b856040018181525050611a2d565b611a23828660400151611ac290919063ffffffff16565b8560400181815250505b5b5b849050949350505050565b600080828401905083811015611ab8576040517f08c379a000000000000000000000000000000000000000000000000000000000815260040180806020018281038252601b8152602001807f536166654d6174683a206164646974696f6e206f766572666c6f77000000000081525060200191505060405180910390fd5b8091505092915050565b6000611b0483836040518060400160405280601e81526020017f536166654d6174683a207375627472616374696f6e206f766572666c6f770000815250611c88565b905092915050565b60606000821415611b54576040518060400160405280600181526020017f30000000000000000000000000000000000000000000000000000000000000008152509050611c57565b600082905060005b60008214611b7e578080600101915050600a8281611b7657fe5b049150611b5c565b60008167ffffffffffffffff81118015611b9757600080fd5b506040519080825280601f01601f191660200182016040528015611bca5781602001600182028036833780820191505090505b50905060008290505b60008614611c4f576001810390506000600a808881611bee57fe5b04028703603001905060008160f81b905080848481518110611c0c57fe5b60200101907effffffffffffffffffffffffffffffffffffffffffffffffffffffffffffff1916908160001a905350600a8881611c4557fe5b0497505050611bd3565b819450505050505b919050565b60608282604051602001611c71929190612651565b604051602081830303815290604052905092915050565b6000838311158290611d35576040517f08c379a00000000000000000000000000000000000000000000000000000000081526004018080602001828103825283818151815260200191508051906020019080838360005b83811015611cfa578082015181840152602081019050611cdf565b50505050905090810190601f168015611d275780820380516001836020036101000a031916815260200191505b509250505060405180910390fd5b5060008385039050809150509392505050565b6040518060800160405280611d5b611d76565b81526020016060815260200160008152602001606081525090565b604051806060016040528060001515815260200160008152602001600081525090565b6040518060800160405280600081526020016000815260200160008152602001600081525090565b6040518060a0016040528060006003811115611dd957fe5b815260200160006002811115611deb57fe5b81526020016000815260200160008152602001600081525090565b6000611e19611e1484612891565b612860565b905080838252602082019050828560a0860282011115611e3857600080fd5b60005b85811015611e685781611e4e8882611ec6565b845260208401935060a08301925050600181019050611e3b565b5050509392505050565b600082601f830112611e8357600080fd5b8135611e93848260208601611e06565b91505092915050565b600081359050611eab81612a8b565b92915050565b600081359050611ec081612a9b565b92915050565b600060a08284031215611ed857600080fd5b611ee260a0612860565b90506000611ef284828501611e9c565b6000830152506020611f0684828501611eb1565b6020830152506040611f1a84828501611f4e565b6040830152506060611f2e84828501611f4e565b6060830152506080611f4284828501611f4e565b60808301525092915050565b600081359050611f5d81612aab565b92915050565b600081519050611f7281612aab565b92915050565b600060208284031215611f8a57600080fd5b600082013567ffffffffffffffff811115611fa457600080fd5b611fb084828501611e72565b91505092915050565b60008060408385031215611fcc57600080fd5b600083013567ffffffffffffffff811115611fe657600080fd5b611ff285828601611e72565b925050602061200385828601611eb1565b9150509250929050565b60008060006060848603121561202257600080fd5b600084013567ffffffffffffffff81111561203c57600080fd5b61204886828701611e72565b935050602061205986828701611eb1565b925050604061206a86828701611f4e565b9150509250925092565b60006020828403121561208657600080fd5b600061209484828501611f63565b91505092915050565b60006120a9838361259c565b60408301905092915050565b60006120c183836125cb565b60a08301905092915050565b6120d6816129c3565b82525050565b60006120e7826128dd565b6120f18185612918565b93506120fc836128bd565b8060005b8381101561212d578151612114888261209d565b975061211f836128fe565b925050600181019050612100565b5085935050505092915050565b6000612145826128dd565b61214f8185612929565b935061215a836128bd565b8060005b8381101561218b578151612172888261209d565b975061217d836128fe565b92505060018101905061215e565b5085935050505092915050565b60006121a3826128e8565b6121ad818561293a565b93506121b8836128cd565b8060005b838110156121e95781516121d088826120b5565b97506121db8361290b565b9250506001810190506121bc565b5085935050505092915050565b6121ff81612967565b82525050565b61220e816129d5565b82525050565b61221d816129e7565b82525050565b600061222e826128f3565b612238818561294b565b9350612248818560208601612a1d565b61225181612a52565b840191505092915050565b6000612267826128f3565b612271818561295c565b9350612281818560208601612a1d565b80840191505092915050565b600061229a602b8361294b565b91507f496e76616c6964206661726d3a204e6f7420656e6f756768206d6f6e6579207460008301527f6f206275792073656564730000000000000000000000000000000000000000006020830152604082019050919050565b600061230060278361294b565b91507f496e76616c6964206661726d3a204e6f7420656e6f756768207365656473207460008301527f6f20706c616e74000000000000000000000000000000000000000000000000006020830152604082019050919050565b600061236660138361294b565b91507f4661726d20646f6573206e6f74206578697374000000000000000000000000006000830152602082019050919050565b60006123a6601d8361294b565b91507f496e76616c6964206661726d3a204e6f206672756974206578697374730000006000830152602082019050919050565b60006123e6601e8361294b565b91507f496e76616c6964206661726d3a204e6f20736565647320746f2073656c6c00006000830152602082019050919050565b600061242660188361294b565b91507f496e76656e746f727920616c72656164792065786973747300000000000000006000830152602082019050919050565b600060c08301600083015161247160008601826124c3565b506020830151848203606086015261248982826120dc565b915050604083015161249e6080860182612633565b50606083015184820360a08601526124b68282612198565b9150508091505092915050565b6060820160008201516124d960008501826121f6565b5060208201516124ec6020850182612633565b5060408201516124ff6040850182612633565b50505050565b60608201600082015161251b60008501826121f6565b50602082015161252e6020850182612633565b5060408201516125416040850182612633565b50505050565b60808201600082015161255d6000850182612633565b5060208201516125706020850182612633565b5060408201516125836040850182612633565b5060608201516125966060850182612633565b50505050565b6040820160008201516125b26000850182612214565b5060208201516125c56020850182612633565b50505050565b60a0820160008201516125e16000850182612205565b5060208201516125f46020850182612214565b5060408201516126076040850182612633565b50606082015161261a6060850182612633565b50608082015161262d6080850182612633565b50505050565b61263c816129b9565b82525050565b61264b816129b9565b82525050565b600061265d828561225c565b9150612669828461225c565b91508190509392505050565b600060208201905061268a60008301846120cd565b92915050565b60006040820190506126a560008301856120cd565b6126b26020830184612642565b9392505050565b600060208201905081810360008301526126d3818461213a565b905092915050565b600060208201905081810360008301526126f58184612223565b905092915050565b600060208201905081810360008301526127168161228d565b9050919050565b60006020820190508181036000830152612736816122f3565b9050919050565b6000602082019050818103600083015261275681612359565b9050919050565b6000602082019050818103600083015261277681612399565b9050919050565b60006020820190508181036000830152612796816123d9565b9050919050565b600060208201905081810360008301526127b681612419565b9050919050565b600060208201905081810360008301526127d78184612459565b905092915050565b600060408201905081810360008301526127f98185612459565b90506128086020830184612642565b9392505050565b60006060820190506128246000830184612505565b92915050565b600060808201905061283f6000830184612547565b92915050565b600060208201905061285a6000830184612642565b92915050565b6000604051905081810181811067ffffffffffffffff8211171561288757612886612a50565b5b8060405250919050565b600067ffffffffffffffff8211156128ac576128ab612a50565b5b602082029050602081019050919050565b6000819050602082019050919050565b6000819050602082019050919050565b600081519050919050565b600081519050919050565b600081519050919050565b6000602082019050919050565b6000602082019050919050565b600082825260208201905092915050565b600082825260208201905092915050565b600082825260208201905092915050565b600082825260208201905092915050565b600081905092915050565b60008115159050919050565b600081905061298182612a63565b919050565b600081905061299482612a77565b919050565b600073ffffffffffffffffffffffffffffffffffffffff82169050919050565b6000819050919050565b60006129ce826129f9565b9050919050565b60006129e082612973565b9050919050565b60006129f282612986565b9050919050565b6000612a0482612a0b565b9050919050565b6000612a1682612999565b9050919050565b60005b83811015612a3b578082015181840152602081019050612a20565b83811115612a4a576000848401525b50505050565bfe5b6000601f19601f8301169050919050565b60048110612a7457612a73612a50565b5b50565b60038110612a8857612a87612a50565b5b50565b60048110612a9857600080fd5b50565b60038110612aa857600080fd5b50565b612ab4816129b9565b8114612abf57600080fd5b5056fe496e76616c6964206661726d3a20546865206672756974206973206e6f7420726970652c20706c6561736520776169743a20a264697066735822122062a0741998dfc595053b3f6b54e68fc92aed09cb3f474e166ef4a1e7322df85f64736f6c63430007060033",
  "immutableReferences": {},
  "source": "pragma solidity >=0.6.0 <0.8.0;\r\npragma experimental ABIEncoderV2;\r\n\r\nimport \"@openzeppelin/contracts/math/Math.sol\";\r\nimport \"./Token.sol\";\r\n\r\ncontract Farm {\r\n    using SafeMath for uint256;\r\n\r\n    //assign Token contract to variable\r\n    Token private token;\r\n    uint NOW_TIMESTAMP = 69;\r\n    uint DECIMAL_PLACES = 2;\r\n\r\n    struct Square {\r\n        Commodity commodity;\r\n        uint createdAt;\r\n    }\r\n\r\n    struct Inventory {\r\n        bool isInitialized;\r\n        uint apples;\r\n        uint avocados;\r\n    }\r\n\r\n\r\n    mapping(address => Inventory) inventories;\r\n    mapping(address => Square[]) fields;\r\n\r\n    //pass as constructor argument deployed Token contract\r\n    constructor(Token _token) public {\r\n        //assign token deployed contract to variable\r\n        token = _token;\r\n\r\n        // Initial prices\r\n        market[NOW_TIMESTAMP] = Prices({\r\n            apples: 100, \r\n            avocados: 400,\r\n            timestamp: block.timestamp,\r\n            previousTimestamp: 0\r\n        });\r\n    }\r\n\r\n    uint INITIAL_FIELD_COUNT = 9;\r\n\r\n    event FarmCreated(address indexed _address);\r\n    event FarmSynced(address indexed _address);\r\n\r\n    function createFarm() public {\r\n        require(!inventories[msg.sender].isInitialized, \"Inventory already exists\");\r\n\r\n        Inventory storage inventory = inventories[msg.sender];\r\n        inventory.isInitialized = true;\r\n        inventory.apples = 1;\r\n\r\n        // Farm only has 1 block\r\n        Square[] storage land = fields[msg.sender];\r\n        Square memory empty = Square(Commodity.Empty, 0);\r\n        for (uint index = 0; index < INITIAL_FIELD_COUNT; index++) {\r\n            land.push(empty);\r\n        }\r\n\r\n        uint balance = token.balanceOf(msg.sender);\r\n        Transaction[] memory transactions;\r\n\r\n        //Emit an event\r\n        emit FarmCreated(msg.sender);\r\n    }\r\n\r\n    function getInventory() public view returns (Inventory memory) {\r\n        return inventories[msg.sender];\r\n    }\r\n\r\n    function getLand() public view returns (Square[] memory) {\r\n        return fields[msg.sender];\r\n    }\r\n\r\n    enum Action { Buy, Sell, Plant, Harvest }\r\n    uint FRUIT_COUNT = 2;\r\n    enum Commodity { AppleSeed, AvocadoSeed, Empty }\r\n\r\n    struct Transaction { \r\n        Action action;\r\n        Commodity commodity;\r\n        // Unique prices key\r\n        uint timestamp;\r\n        uint landIndex;\r\n        uint createdAt;\r\n    }\r\n\r\n    uint MAX_AVOCADO_PRICE = 500;\r\n    uint MIN_AVOCADO_PRICE = 300;\r\n\r\n    struct Prices {\r\n        uint apples;\r\n        uint avocados;\r\n        uint timestamp;\r\n        uint previousTimestamp;\r\n    }\r\n     \r\n    mapping(uint => Prices) market;\r\n\r\n    struct Farm {\r\n        Inventory inventory;\r\n        Square[] land;\r\n        uint balance;\r\n        Transaction[] transactions;\r\n    }\r\n\r\n    uint APPLE_HARVEST_SECONDS = 60;\r\n\r\n    function getSeedFromInventory(Inventory memory _inventory, Commodity _commodity) private view returns (uint count) {\r\n        if (_commodity == Commodity.AppleSeed) {\r\n            return _inventory.apples;\r\n        } else if (_commodity == Commodity.AvocadoSeed) {\r\n            return _inventory.avocados;\r\n        }\r\n\r\n        return 0;\r\n    }\r\n\r\n    function getFruitPrice(Prices memory prices, Commodity _commodity) private view returns (uint price) {\r\n        if (_commodity == Commodity.AppleSeed) {\r\n            return prices.apples;\r\n        } else if (_commodity == Commodity.AvocadoSeed) {\r\n            return prices.avocados;\r\n        }\r\n\r\n        return 0;\r\n    }\r\n\r\n    enum InventoryAction {\r\n        Add,\r\n        Subtract\r\n    }\r\n\r\n    function updateInventory(Inventory memory _inventory, Commodity _commodity, InventoryAction _action, uint _change) private view returns (Inventory memory) {\r\n        if (_commodity == Commodity.AppleSeed) {\r\n            if (_action == InventoryAction.Add) {\r\n                _inventory.apples = _inventory.apples.add(_change);\r\n            } else {\r\n                _inventory.apples = _inventory.apples.sub(_change);\r\n            }\r\n        } else if (_commodity == Commodity.AvocadoSeed) {\r\n            if (_action == InventoryAction.Add) {\r\n                _inventory.avocados = _inventory.avocados.add(_change);\r\n            } else {\r\n                _inventory.avocados = _inventory.avocados.sub(_change);\r\n            }\r\n        }\r\n\r\n        return _inventory;\r\n    }\r\n\r\n    function concatenate(\r\n        string memory a,\r\n        string memory b)\r\n        internal\r\n        pure\r\n        returns(string memory) {\r\n            return string(abi.encodePacked(a, b));\r\n        }\r\n\r\n    function uint2str(uint _i) internal pure returns (string memory _uintAsString) {\r\n        if (_i == 0) {\r\n            return \"0\";\r\n        }\r\n        uint j = _i;\r\n        uint len;\r\n        while (j != 0) {\r\n            len++;\r\n            j /= 10;\r\n        }\r\n        bytes memory bstr = new bytes(len);\r\n        uint k = len;\r\n        while (_i != 0) {\r\n            k = k-1;\r\n            uint8 temp = (48 + uint8(_i - _i / 10 * 10));\r\n            bytes1 b1 = bytes1(temp);\r\n            bstr[k] = b1;\r\n            _i /= 10;\r\n        }\r\n        return string(bstr);\r\n    }\r\n\r\n    function buildFarm(Transaction[] memory _transactions) private view returns (Farm memory currentFarm) {\r\n        Inventory memory inventory = inventories[msg.sender];\r\n\r\n        require(inventory.isInitialized, \"Farm does not exist\");\r\n\r\n        Square[] memory land = fields[msg.sender];\r\n        uint balance = token.balanceOf(msg.sender);\r\n\r\n        for (uint index = 0; index < _transactions.length; index++) {\r\n            Transaction memory transaction = _transactions[index];\r\n            Prices memory prices = market[transaction.timestamp];\r\n            \r\n            uint seedCount = getSeedFromInventory(inventory, transaction.commodity);\r\n            uint price = getFruitPrice(prices, transaction.commodity);\r\n\r\n            if (transaction.action == Action.Sell) {\r\n                require(1 <= seedCount, \"Invalid farm: No seeds to sell\");\r\n\r\n                inventory = updateInventory(inventory, transaction.commodity, InventoryAction.Subtract, 1);\r\n                // TODO price.apple not working\r\n                balance = balance.add(100);\r\n            } else if (transaction.action == Action.Buy) {\r\n                require(balance >= price, \"Invalid farm: Not enough money to buy seeds\");\r\n\r\n                // TODO price.apple not working\r\n                balance = balance.sub(100);\r\n                inventory = updateInventory(inventory, transaction.commodity, InventoryAction.Add, 1);\r\n            } else if (transaction.action == Action.Plant) {\r\n                require(seedCount > 0, \"Invalid farm: Not enough seeds to plant\");\r\n\r\n\r\n                Square memory plantedSeed = Square({\r\n                    commodity: transaction.commodity,\r\n                    // TODO - When they sync the farm, this will be at the time of the farm :(\r\n                    createdAt: transaction.createdAt\r\n                });\r\n                land[transaction.landIndex] = plantedSeed;\r\n                inventory = updateInventory(inventory, transaction.commodity, InventoryAction.Subtract, 1);\r\n            } else if (transaction.action == Action.Harvest) {\r\n                Square memory square = land[transaction.landIndex];\r\n                require(square.commodity == transaction.commodity, \"Invalid farm: No fruit exists\");\r\n\r\n                uint duration = block.timestamp - square.createdAt;\r\n                string memory durationString = uint2str(duration);\r\n                string memory message = concatenate(\"Invalid farm: The fruit is not ripe, please wait: \", durationString);\r\n                require(duration > APPLE_HARVEST_SECONDS, message);\r\n\r\n                // Clear the land\r\n                Square memory emptyLand = Square(Commodity.Empty, 0);\r\n                land[transaction.landIndex] = emptyLand;\r\n                inventory = updateInventory(inventory, transaction.commodity, InventoryAction.Add, 2);\r\n            }\r\n        }\r\n\r\n        return Farm({\r\n            inventory: inventory,\r\n            land: land,\r\n            balance: balance,\r\n            transactions: _transactions\r\n        });\r\n    }\r\n\r\n    function clamp(uint value, uint minimum, uint maximum) private pure returns (uint clamped) {\r\n        if (value < minimum) {\r\n            return minimum;\r\n        }\r\n\r\n        if (value > maximum) {\r\n            return maximum;\r\n        }\r\n\r\n        return value;\r\n    }\r\n\r\n    // Assume the proportional number of transactions is what influences price\r\n    // Since at the time of transaction, they will likely be buying something and have sold all their seeds\r\n    function moveTheMarket(Transaction[] memory _transactions) public {\r\n        uint apples = 0;\r\n        uint avocados = 0;\r\n\r\n        // What is the biggest mover?\r\n        for (uint i=0; i < _transactions.length; i += 1) {\r\n            if (_transactions[i].commodity == Commodity.AppleSeed) {\r\n                apples += 1;\r\n            } else if ( _transactions[i].commodity == Commodity.AvocadoSeed) {\r\n                avocados += 1;\r\n            }\r\n        }\r\n\r\n        uint totalFruitTransactions = apples + avocados;\r\n\r\n        if (totalFruitTransactions == 0) {\r\n            // TODO still update the timestamps being used\r\n            return;\r\n        }\r\n\r\n        // Percentage of transactions that were apples\r\n        uint applePercentage = 0;\r\n        if (apples > 0) {\r\n            applePercentage = totalFruitTransactions * 100;\r\n        } \r\n        uint avocadoPercentage = 0;\r\n        if (avocados > 0) {\r\n            // 35%\r\n            avocadoPercentage = avocados / totalFruitTransactions * 100;\r\n        } \r\n\r\n        // 30%\r\n        uint expectedTransactions = 100 / FRUIT_COUNT;\r\n\r\n        // 5% \r\n        int avocadoChange = int(avocadoPercentage) - int(expectedTransactions);\r\n\r\n\r\n        //TODO even out the price from the previous hour - store transactions in the last hour?\r\n        int transactionCount = 1;\r\n        uint tenMinutesAgo = block.timestamp - (60 * 10);\r\n        Prices memory prices = market[NOW_TIMESTAMP];\r\n        while (prices.timestamp > tenMinutesAgo) {\r\n            transactionCount++;\r\n            \r\n            // Endless loop if we do not have this???\r\n            if (transactionCount >= 2) {\r\n                break;\r\n            }\r\n\r\n            // Back to the beginining\r\n            if (prices.previousTimestamp == 0) {\r\n                break;\r\n            }\r\n\r\n            prices = market[prices.previousTimestamp];\r\n        }\r\n\r\n        Prices memory currentPrices = market[NOW_TIMESTAMP];\r\n\r\n        // To avoid major market shifts, divide it\r\n        int MARKET_IMPACT = 10;\r\n        // 5% / 3 Transactions = 1.8%\r\n        int relativeAvocadoChange = avocadoChange / transactionCount / MARKET_IMPACT;\r\n        // 98.2% - we want to decrease it a little.\r\n        int percentage = 100 - relativeAvocadoChange;\r\n        // $5.23\r\n        uint avocadoPrice = currentPrices.avocados * uint(percentage) / 100;\r\n        // $5\r\n        uint clampedAvocadoPrice = clamp(avocadoPrice, MIN_AVOCADO_PRICE, MAX_AVOCADO_PRICE);\r\n\r\n        market[currentPrices.timestamp] = currentPrices;\r\n        market[NOW_TIMESTAMP] = Prices({\r\n            // Staple crop\r\n            apples: 100,\r\n            avocados: clampedAvocadoPrice,\r\n            timestamp: block.timestamp,\r\n            previousTimestamp: currentPrices.timestamp\r\n        });\r\n    }\r\n\r\n    function sync(Transaction[] memory _transactions) public {\r\n        uint balance = token.balanceOf(msg.sender);\r\n        Farm memory farm = buildFarm(_transactions);\r\n\r\n        // Update the inventory\r\n        Inventory storage oldInventory = inventories[msg.sender];\r\n        oldInventory.apples = farm.inventory.apples;\r\n\r\n        // Update the land\r\n        Square[] storage land = fields[msg.sender];\r\n        for (uint i=0; i < farm.land.length; i += 1) {\r\n            land[i] = farm.land[i];\r\n        }\r\n\r\n\r\n        // Update the balance - mint or burn\r\n        if (farm.balance > balance) {\r\n            uint profit = balance - farm.balance;\r\n            token.mint(msg.sender, profit);\r\n        } else if (farm.balance < balance) {\r\n            uint loss = farm.balance - balance;\r\n            token.burn(loss);\r\n        }\r\n\r\n        moveTheMarket(_transactions);\r\n        emit FarmSynced(msg.sender);\r\n    }\r\n\r\n    function addTransaction(Transaction[] memory _transactions, Transaction memory _transaction) private view returns (Transaction[] memory) {\r\n        Transaction[] memory newTransactions = new Transaction[](_transactions.length + 1);\r\n        for (uint i=0; i < _transactions.length; i += 1) {\r\n            newTransactions[i] = _transactions[i];\r\n        }\r\n\r\n        // Add the new transaction\r\n        newTransactions[_transactions.length] = _transaction;\r\n\r\n        return newTransactions;\r\n    }\r\n\r\n    function buy(Transaction[] memory _transactions, Commodity _commodity) public view returns (Farm memory farm, uint price) {\r\n        Prices memory currentPrices = market[NOW_TIMESTAMP];\r\n        Transaction memory buyAppleTransaction = Transaction({\r\n            action: Action.Buy,\r\n            commodity: _commodity,\r\n            timestamp: currentPrices.timestamp,\r\n            landIndex: 0,\r\n            createdAt: block.timestamp\r\n        });\r\n        Transaction[] memory newTransactions = addTransaction(_transactions, buyAppleTransaction);\r\n\r\n\r\n        Farm memory updatedFarm = buildFarm(newTransactions);\r\n        return (updatedFarm,currentPrices.apples);\r\n    }\r\n\r\n    function sell(Transaction[] memory _transactions, Commodity _commodity) public view returns (Farm memory farm, uint price) {\r\n        Prices memory currentPrices = market[NOW_TIMESTAMP];\r\n        Transaction memory sellAppleTransaction = Transaction({\r\n            action: Action.Sell,\r\n            commodity: _commodity,\r\n            timestamp: currentPrices.timestamp,\r\n            landIndex: 0,\r\n            createdAt: block.timestamp\r\n        });\r\n        Transaction[] memory newTransactions = addTransaction(_transactions, sellAppleTransaction);\r\n\r\n\r\n        Farm memory updatedFarm = buildFarm(newTransactions);\r\n        return (updatedFarm, currentPrices.apples);\r\n    }\r\n\r\n    function plant(Transaction[] memory _transactions, Commodity _commodity, uint landIndex) public view returns (Farm memory farm) {\r\n        Prices memory currentPrices = market[NOW_TIMESTAMP];\r\n        Transaction memory plantAppleTransaction = Transaction({\r\n            action: Action.Plant,\r\n            commodity: _commodity,\r\n            timestamp: currentPrices.timestamp,\r\n            landIndex: landIndex,\r\n            createdAt: block.timestamp\r\n        });\r\n        Transaction[] memory newTransactions = addTransaction(_transactions, plantAppleTransaction);\r\n\r\n        Farm memory updatedFarm = buildFarm(newTransactions);\r\n        return (updatedFarm);\r\n    }\r\n\r\n    function harvest(Transaction[] memory _transactions, Commodity _commodity, uint landIndex) public view returns (Farm memory farm) {\r\n        // Add the new transaction\r\n        Prices memory currentPrices = market[NOW_TIMESTAMP];\r\n        Transaction memory plantAppleTransaction = Transaction({\r\n            action: Action.Harvest,\r\n            commodity: _commodity,\r\n            timestamp: currentPrices.timestamp,\r\n            landIndex: landIndex,\r\n            createdAt: block.timestamp\r\n        });\r\n        Transaction[] memory newTransactions = addTransaction(_transactions, plantAppleTransaction);\r\n\r\n        Farm memory updatedFarm = buildFarm(newTransactions);\r\n        return (updatedFarm);\r\n    }\r\n\r\n    function getPrices() public view returns (Prices memory price) {\r\n        return market[NOW_TIMESTAMP];\r\n    }\r\n\r\n    function getApplePrice() public view returns (uint price) {\r\n        return market[NOW_TIMESTAMP].apples;\r\n    }\r\n\r\n    function getAvocadoPrice() public view returns (uint price) {\r\n        return market[NOW_TIMESTAMP].avocados;\r\n    }\r\n}\r\n",
  "sourcePath": "/Users/adamhannigan/Documents/workspace/fruit-market/src/contracts/Farm.sol",
  "compiler": {
    "name": "solc",
    "version": "0.7.6+commit.7338295f.Emscripten.clang"
  },
  "schemaVersion": "3.4.0",
  "updatedAt": "2021-05-15T02:08:36.304Z",
  "networkType": "ethereum",
  "devdoc": {
    "kind": "dev",
    "methods": {},
    "version": 1
  },
  "userdoc": {
    "kind": "user",
    "methods": {},
    "version": 1
  }
}