{
  "contractName": "Farm",
  "abi": [
    {
      "inputs": [
        {
          "internalType": "contract Token",
          "name": "_token",
          "type": "address"
        }
      ],
      "stateMutability": "nonpayable",
      "type": "constructor"
    },
    {
      "inputs": [],
      "name": "createFarm",
      "outputs": [],
      "stateMutability": "nonpayable",
      "type": "function"
    },
    {
      "inputs": [],
      "name": "getInventory",
      "outputs": [
        {
          "components": [
            {
              "internalType": "bool",
              "name": "isInitialized",
              "type": "bool"
            },
            {
              "internalType": "uint256",
              "name": "apples",
              "type": "uint256"
            },
            {
              "internalType": "uint256",
              "name": "avocados",
              "type": "uint256"
            }
          ],
          "internalType": "struct Farm.Inventory",
          "name": "",
          "type": "tuple"
        }
      ],
      "stateMutability": "view",
      "type": "function"
    },
    {
      "inputs": [],
      "name": "getLand",
      "outputs": [
        {
          "components": [
            {
              "internalType": "enum Farm.Commodity",
              "name": "commodity",
              "type": "uint8"
            },
            {
              "internalType": "uint256",
              "name": "createdAt",
              "type": "uint256"
            }
          ],
          "internalType": "struct Farm.Square[]",
          "name": "",
          "type": "tuple[]"
        }
      ],
      "stateMutability": "view",
      "type": "function"
    },
    {
      "inputs": [
        {
          "components": [
            {
              "internalType": "enum Farm.Action",
              "name": "action",
              "type": "uint8"
            },
            {
              "internalType": "enum Farm.Commodity",
              "name": "commodity",
              "type": "uint8"
            },
            {
              "internalType": "uint256",
              "name": "timestamp",
              "type": "uint256"
            },
            {
              "internalType": "uint256",
              "name": "landIndex",
              "type": "uint256"
            }
          ],
          "internalType": "struct Farm.Transaction[]",
          "name": "_transactions",
          "type": "tuple[]"
        }
      ],
      "name": "getFarm",
      "outputs": [
        {
          "components": [
            {
              "components": [
                {
                  "internalType": "bool",
                  "name": "isInitialized",
                  "type": "bool"
                },
                {
                  "internalType": "uint256",
                  "name": "apples",
                  "type": "uint256"
                },
                {
                  "internalType": "uint256",
                  "name": "avocados",
                  "type": "uint256"
                }
              ],
              "internalType": "struct Farm.Inventory",
              "name": "inventory",
              "type": "tuple"
            },
            {
              "components": [
                {
                  "internalType": "enum Farm.Commodity",
                  "name": "commodity",
                  "type": "uint8"
                },
                {
                  "internalType": "uint256",
                  "name": "createdAt",
                  "type": "uint256"
                }
              ],
              "internalType": "struct Farm.Square[]",
              "name": "land",
              "type": "tuple[]"
            },
            {
              "internalType": "uint256",
              "name": "balance",
              "type": "uint256"
            },
            {
              "components": [
                {
                  "internalType": "enum Farm.Action",
                  "name": "action",
                  "type": "uint8"
                },
                {
                  "internalType": "enum Farm.Commodity",
                  "name": "commodity",
                  "type": "uint8"
                },
                {
                  "internalType": "uint256",
                  "name": "timestamp",
                  "type": "uint256"
                },
                {
                  "internalType": "uint256",
                  "name": "landIndex",
                  "type": "uint256"
                }
              ],
              "internalType": "struct Farm.Transaction[]",
              "name": "transactions",
              "type": "tuple[]"
            }
          ],
          "internalType": "struct Farm.Farm",
          "name": "currentFarm",
          "type": "tuple"
        }
      ],
      "stateMutability": "view",
      "type": "function"
    },
    {
      "inputs": [
        {
          "components": [
            {
              "internalType": "enum Farm.Action",
              "name": "action",
              "type": "uint8"
            },
            {
              "internalType": "enum Farm.Commodity",
              "name": "commodity",
              "type": "uint8"
            },
            {
              "internalType": "uint256",
              "name": "timestamp",
              "type": "uint256"
            },
            {
              "internalType": "uint256",
              "name": "landIndex",
              "type": "uint256"
            }
          ],
          "internalType": "struct Farm.Transaction[]",
          "name": "_transactions",
          "type": "tuple[]"
        }
      ],
      "name": "moveTheMarket",
      "outputs": [],
      "stateMutability": "nonpayable",
      "type": "function"
    },
    {
      "inputs": [
        {
          "components": [
            {
              "internalType": "enum Farm.Action",
              "name": "action",
              "type": "uint8"
            },
            {
              "internalType": "enum Farm.Commodity",
              "name": "commodity",
              "type": "uint8"
            },
            {
              "internalType": "uint256",
              "name": "timestamp",
              "type": "uint256"
            },
            {
              "internalType": "uint256",
              "name": "landIndex",
              "type": "uint256"
            }
          ],
          "internalType": "struct Farm.Transaction[]",
          "name": "_transactions",
          "type": "tuple[]"
        }
      ],
      "name": "sync",
      "outputs": [],
      "stateMutability": "nonpayable",
      "type": "function"
    },
    {
      "inputs": [
        {
          "components": [
            {
              "internalType": "enum Farm.Action",
              "name": "action",
              "type": "uint8"
            },
            {
              "internalType": "enum Farm.Commodity",
              "name": "commodity",
              "type": "uint8"
            },
            {
              "internalType": "uint256",
              "name": "timestamp",
              "type": "uint256"
            },
            {
              "internalType": "uint256",
              "name": "landIndex",
              "type": "uint256"
            }
          ],
          "internalType": "struct Farm.Transaction[]",
          "name": "_transactions",
          "type": "tuple[]"
        }
      ],
      "name": "buyAppleSeed",
      "outputs": [
        {
          "components": [
            {
              "components": [
                {
                  "internalType": "bool",
                  "name": "isInitialized",
                  "type": "bool"
                },
                {
                  "internalType": "uint256",
                  "name": "apples",
                  "type": "uint256"
                },
                {
                  "internalType": "uint256",
                  "name": "avocados",
                  "type": "uint256"
                }
              ],
              "internalType": "struct Farm.Inventory",
              "name": "inventory",
              "type": "tuple"
            },
            {
              "components": [
                {
                  "internalType": "enum Farm.Commodity",
                  "name": "commodity",
                  "type": "uint8"
                },
                {
                  "internalType": "uint256",
                  "name": "createdAt",
                  "type": "uint256"
                }
              ],
              "internalType": "struct Farm.Square[]",
              "name": "land",
              "type": "tuple[]"
            },
            {
              "internalType": "uint256",
              "name": "balance",
              "type": "uint256"
            },
            {
              "components": [
                {
                  "internalType": "enum Farm.Action",
                  "name": "action",
                  "type": "uint8"
                },
                {
                  "internalType": "enum Farm.Commodity",
                  "name": "commodity",
                  "type": "uint8"
                },
                {
                  "internalType": "uint256",
                  "name": "timestamp",
                  "type": "uint256"
                },
                {
                  "internalType": "uint256",
                  "name": "landIndex",
                  "type": "uint256"
                }
              ],
              "internalType": "struct Farm.Transaction[]",
              "name": "transactions",
              "type": "tuple[]"
            }
          ],
          "internalType": "struct Farm.Farm",
          "name": "farm",
          "type": "tuple"
        },
        {
          "internalType": "uint256",
          "name": "price",
          "type": "uint256"
        }
      ],
      "stateMutability": "view",
      "type": "function"
    },
    {
      "inputs": [
        {
          "components": [
            {
              "internalType": "enum Farm.Action",
              "name": "action",
              "type": "uint8"
            },
            {
              "internalType": "enum Farm.Commodity",
              "name": "commodity",
              "type": "uint8"
            },
            {
              "internalType": "uint256",
              "name": "timestamp",
              "type": "uint256"
            },
            {
              "internalType": "uint256",
              "name": "landIndex",
              "type": "uint256"
            }
          ],
          "internalType": "struct Farm.Transaction[]",
          "name": "_transactions",
          "type": "tuple[]"
        }
      ],
      "name": "sellAppleSeed",
      "outputs": [
        {
          "components": [
            {
              "components": [
                {
                  "internalType": "bool",
                  "name": "isInitialized",
                  "type": "bool"
                },
                {
                  "internalType": "uint256",
                  "name": "apples",
                  "type": "uint256"
                },
                {
                  "internalType": "uint256",
                  "name": "avocados",
                  "type": "uint256"
                }
              ],
              "internalType": "struct Farm.Inventory",
              "name": "inventory",
              "type": "tuple"
            },
            {
              "components": [
                {
                  "internalType": "enum Farm.Commodity",
                  "name": "commodity",
                  "type": "uint8"
                },
                {
                  "internalType": "uint256",
                  "name": "createdAt",
                  "type": "uint256"
                }
              ],
              "internalType": "struct Farm.Square[]",
              "name": "land",
              "type": "tuple[]"
            },
            {
              "internalType": "uint256",
              "name": "balance",
              "type": "uint256"
            },
            {
              "components": [
                {
                  "internalType": "enum Farm.Action",
                  "name": "action",
                  "type": "uint8"
                },
                {
                  "internalType": "enum Farm.Commodity",
                  "name": "commodity",
                  "type": "uint8"
                },
                {
                  "internalType": "uint256",
                  "name": "timestamp",
                  "type": "uint256"
                },
                {
                  "internalType": "uint256",
                  "name": "landIndex",
                  "type": "uint256"
                }
              ],
              "internalType": "struct Farm.Transaction[]",
              "name": "transactions",
              "type": "tuple[]"
            }
          ],
          "internalType": "struct Farm.Farm",
          "name": "farm",
          "type": "tuple"
        },
        {
          "internalType": "uint256",
          "name": "price",
          "type": "uint256"
        }
      ],
      "stateMutability": "view",
      "type": "function"
    },
    {
      "inputs": [
        {
          "components": [
            {
              "internalType": "enum Farm.Action",
              "name": "action",
              "type": "uint8"
            },
            {
              "internalType": "enum Farm.Commodity",
              "name": "commodity",
              "type": "uint8"
            },
            {
              "internalType": "uint256",
              "name": "timestamp",
              "type": "uint256"
            },
            {
              "internalType": "uint256",
              "name": "landIndex",
              "type": "uint256"
            }
          ],
          "internalType": "struct Farm.Transaction[]",
          "name": "_transactions",
          "type": "tuple[]"
        },
        {
          "internalType": "uint256",
          "name": "landIndex",
          "type": "uint256"
        }
      ],
      "name": "plantAppleSeed",
      "outputs": [
        {
          "components": [
            {
              "components": [
                {
                  "internalType": "bool",
                  "name": "isInitialized",
                  "type": "bool"
                },
                {
                  "internalType": "uint256",
                  "name": "apples",
                  "type": "uint256"
                },
                {
                  "internalType": "uint256",
                  "name": "avocados",
                  "type": "uint256"
                }
              ],
              "internalType": "struct Farm.Inventory",
              "name": "inventory",
              "type": "tuple"
            },
            {
              "components": [
                {
                  "internalType": "enum Farm.Commodity",
                  "name": "commodity",
                  "type": "uint8"
                },
                {
                  "internalType": "uint256",
                  "name": "createdAt",
                  "type": "uint256"
                }
              ],
              "internalType": "struct Farm.Square[]",
              "name": "land",
              "type": "tuple[]"
            },
            {
              "internalType": "uint256",
              "name": "balance",
              "type": "uint256"
            },
            {
              "components": [
                {
                  "internalType": "enum Farm.Action",
                  "name": "action",
                  "type": "uint8"
                },
                {
                  "internalType": "enum Farm.Commodity",
                  "name": "commodity",
                  "type": "uint8"
                },
                {
                  "internalType": "uint256",
                  "name": "timestamp",
                  "type": "uint256"
                },
                {
                  "internalType": "uint256",
                  "name": "landIndex",
                  "type": "uint256"
                }
              ],
              "internalType": "struct Farm.Transaction[]",
              "name": "transactions",
              "type": "tuple[]"
            }
          ],
          "internalType": "struct Farm.Farm",
          "name": "farm",
          "type": "tuple"
        }
      ],
      "stateMutability": "view",
      "type": "function"
    },
    {
      "inputs": [
        {
          "components": [
            {
              "internalType": "enum Farm.Action",
              "name": "action",
              "type": "uint8"
            },
            {
              "internalType": "enum Farm.Commodity",
              "name": "commodity",
              "type": "uint8"
            },
            {
              "internalType": "uint256",
              "name": "timestamp",
              "type": "uint256"
            },
            {
              "internalType": "uint256",
              "name": "landIndex",
              "type": "uint256"
            }
          ],
          "internalType": "struct Farm.Transaction[]",
          "name": "_transactions",
          "type": "tuple[]"
        },
        {
          "internalType": "uint256",
          "name": "landIndex",
          "type": "uint256"
        }
      ],
      "name": "harvestAppleSeed",
      "outputs": [
        {
          "components": [
            {
              "components": [
                {
                  "internalType": "bool",
                  "name": "isInitialized",
                  "type": "bool"
                },
                {
                  "internalType": "uint256",
                  "name": "apples",
                  "type": "uint256"
                },
                {
                  "internalType": "uint256",
                  "name": "avocados",
                  "type": "uint256"
                }
              ],
              "internalType": "struct Farm.Inventory",
              "name": "inventory",
              "type": "tuple"
            },
            {
              "components": [
                {
                  "internalType": "enum Farm.Commodity",
                  "name": "commodity",
                  "type": "uint8"
                },
                {
                  "internalType": "uint256",
                  "name": "createdAt",
                  "type": "uint256"
                }
              ],
              "internalType": "struct Farm.Square[]",
              "name": "land",
              "type": "tuple[]"
            },
            {
              "internalType": "uint256",
              "name": "balance",
              "type": "uint256"
            },
            {
              "components": [
                {
                  "internalType": "enum Farm.Action",
                  "name": "action",
                  "type": "uint8"
                },
                {
                  "internalType": "enum Farm.Commodity",
                  "name": "commodity",
                  "type": "uint8"
                },
                {
                  "internalType": "uint256",
                  "name": "timestamp",
                  "type": "uint256"
                },
                {
                  "internalType": "uint256",
                  "name": "landIndex",
                  "type": "uint256"
                }
              ],
              "internalType": "struct Farm.Transaction[]",
              "name": "transactions",
              "type": "tuple[]"
            }
          ],
          "internalType": "struct Farm.Farm",
          "name": "farm",
          "type": "tuple"
        }
      ],
      "stateMutability": "view",
      "type": "function"
    },
    {
      "inputs": [],
      "name": "getApplePrice",
      "outputs": [
        {
          "internalType": "uint256",
          "name": "price",
          "type": "uint256"
        }
      ],
      "stateMutability": "view",
      "type": "function"
    }
  ],
  "bytecode": "0x60806040526045600155601260025560026005556005600655600360075561ea606009553480156200003057600080fd5b50604051620022f7380380620022f7833981810160405281019062000056919062000120565b806000806101000a81548173ffffffffffffffffffffffffffffffffffffffff021916908373ffffffffffffffffffffffffffffffffffffffff1602179055506040518060800160405280600254600a188152602001600254601e18815260200142815260200160008152506008600060015481526020019081526020016000206000820151816000015560208201518160010155604082015181600201556060820151816003015590505050620001ae565b6000815190506200011a8162000194565b92915050565b6000602082840312156200013357600080fd5b6000620001438482850162000109565b91505092915050565b6000620001598262000174565b9050919050565b60006200016d826200014c565b9050919050565b600073ffffffffffffffffffffffffffffffffffffffff82169050919050565b6200019f8162000160565b8114620001ab57600080fd5b50565b61213980620001be6000396000f3fe608060405234801561001057600080fd5b50600436106100a95760003560e01c8063865b74d011610071578063865b74d014610140578063868314fa14610171578063942da5dc146101a1578063d53f9c9b146101d2578063f3985959146101ee578063f68376501461021e576100a9565b80630f804b25146100ae5780631d5ec3cb146100ca5780635690314c146100d45780635d7f850c146100f2578063689efec414610110575b600080fd5b6100c860048036038101906100c39190611761565b61023c565b005b6100d2610520565b005b6100dc6106e7565b6040516100e99190611d91565b60405180910390f35b6100fa6107ba565b6040516101079190611ec5565b60405180910390f35b61012a600480360381019061012591906117a2565b610840565b6040516101379190611e73565b60405180910390f35b61015a60048036038101906101559190611761565b6108fd565b604051610168929190611e95565b60405180910390f35b61018b600480360381019061018691906117a2565b6109c2565b6040516101989190611e73565b60405180910390f35b6101bb60048036038101906101b69190611761565b610a7f565b6040516101c9929190611e95565b60405180910390f35b6101ec60048036038101906101e79190611761565b610b44565b005b61020860048036038101906102039190611761565b610e75565b6040516102159190611e73565b60405180910390f35b610226611465565b6040516102339190611ee0565b60405180910390f35b60008060005b83518110156102d5576000600281111561025857fe5b84828151811061026457fe5b602002602001015160200151600281111561027b57fe5b141561028c576001830192506102ca565b6000600281111561029957fe5b8482815181106102a557fe5b60200260200101516020015160028111156102bc57fe5b14156102c9576001820191505b5b600181019050610242565b5060008183019050600060648285816102ea57fe5b04029050600060648385816102fb57fe5b040290506000606460055460018161030f57fe5b04029050600081840390506000828403905060008061025842039050600060086000600154815260200190815260200160002060405180608001604052908160008201548152602001600182015481526020016002820154815260200160038201548152505090505b81816040015111156103f357828060010193505060008160600151146103e957600860008260600151815260200190815260200160002060405180608001604052908160008201548152602001600182015481526020016002820154815260200160038201548152505090506103ee565b6103f3565b610378565b60006008600060015481526020019081526020016000206040518060800160405290816000820154815260200160018201548152602001600282015481526020016003820154815250509050600084868161044a57fe5b049050600061046482846020015102600754600654611485565b905082600860008560400151815260200190815260200160002060008201518160000155602082015181600101556040820151816002015560608201518160030155905050604051806080016040528060018152602001828152602001428152602001846040015181525060086000600154815260200190815260200160002060008201518160000155602082015181600101556040820151816002015560608201518160030155905050505050505050505050505050505050565b600360003373ffffffffffffffffffffffffffffffffffffffff1673ffffffffffffffffffffffffffffffffffffffff16815260200190815260200160002060000160009054906101000a900460ff16156105b0576040517f08c379a00000000000000000000000000000000000000000000000000000000081526004016105a790611e53565b60405180910390fd5b6000600360003373ffffffffffffffffffffffffffffffffffffffff1673ffffffffffffffffffffffffffffffffffffffff168152602001908152602001600020905060018160000160006101000a81548160ff021916908315150217905550600181600101819055506000600460003373ffffffffffffffffffffffffffffffffffffffff1673ffffffffffffffffffffffffffffffffffffffff16815260200190815260200160002090506000604051806040016040528060028081111561067657fe5b8152602001600081525090508181908060018154018082558091505060019003906000526020600020906002020160009091909190915060008201518160000160006101000a81548160ff021916908360028111156106d157fe5b0217905550602082015181600101555050505050565b6060600460003373ffffffffffffffffffffffffffffffffffffffff1673ffffffffffffffffffffffffffffffffffffffff168152602001908152602001600020805480602002602001604051908101604052809291908181526020016000905b828210156107b157838290600052602060002090600202016040518060400160405290816000820160009054906101000a900460ff16600281111561078957fe5b600281111561079457fe5b815260200160018201548152505081526020019060010190610748565b50505050905090565b6107c2611574565b600360003373ffffffffffffffffffffffffffffffffffffffff1673ffffffffffffffffffffffffffffffffffffffff1681526020019081526020016000206040518060600160405290816000820160009054906101000a900460ff1615151515815260200160018201548152602001600282015481525050905090565b610848611597565b60006008600060015481526020019081526020016000206040518060800160405290816000820154815260200160018201548152602001600282015481526020016003820154815250509050600060405180608001604052806003808111156108ad57fe5b8152602001600060028111156108bf57fe5b8152602001836040015181526020016000815250905060006108e186836114b2565b905060006108ee82610e75565b90508094505050505092915050565b610905611597565b6000806008600060015481526020019081526020016000206040518060800160405290816000820154815260200160018201548152602001600282015481526020016003820154815250509050600060405180608001604052806000600381111561096c57fe5b81526020016000600281111561097e57fe5b8152602001836040015181526020016000815250905060006109a086836114b2565b905060006109ad82610e75565b90508084600001519550955050505050915091565b6109ca611597565b600060086000600154815260200190815260200160002060405180608001604052908160008201548152602001600182015481526020016002820154815260200160038201548152505090506000604051806080016040528060026003811115610a3057fe5b815260200160006002811115610a4257fe5b8152602001836040015181526020018581525090506000610a6386836114b2565b90506000610a7082610e75565b90508094505050505092915050565b610a87611597565b60008060086000600154815260200190815260200160002060405180608001604052908160008201548152602001600182015481526020016002820154815260200160038201548152505090506000604051806080016040528060016003811115610aee57fe5b815260200160006002811115610b0057fe5b815260200183604001518152602001600081525090506000610b2286836114b2565b90506000610b2f82610e75565b90508084600001519550955050505050915091565b60008060009054906101000a900473ffffffffffffffffffffffffffffffffffffffff1673ffffffffffffffffffffffffffffffffffffffff166370a08231336040518263ffffffff1660e01b8152600401610ba09190611d4d565b60206040518083038186803b158015610bb857600080fd5b505afa158015610bcc573d6000803e3d6000fd5b505050506040513d601f19601f82011682018060405250810190610bf091906117f6565b90506000610bfd83610e75565b90506000600360003373ffffffffffffffffffffffffffffffffffffffff1673ffffffffffffffffffffffffffffffffffffffff168152602001908152602001600020905081600001516020015181600101819055506000600460003373ffffffffffffffffffffffffffffffffffffffff1673ffffffffffffffffffffffffffffffffffffffff16815260200190815260200160002090508260200151600081518110610ca757fe5b602002602001015181600081548110610cbc57fe5b906000526020600020906002020160008201518160000160006101000a81548160ff02191690836002811115610cee57fe5b02179055506020820151816001015590505060008484604001510390506000811315610da65760008054906101000a900473ffffffffffffffffffffffffffffffffffffffff1673ffffffffffffffffffffffffffffffffffffffff166340c10f1933836040518363ffffffff1660e01b8152600401610d6f929190611d68565b600060405180830381600087803b158015610d8957600080fd5b505af1158015610d9d573d6000803e3d6000fd5b50505050610e64565b6000811215610e63576000817fffffffffffffffffffffffffffffffffffffffffffffffffffffffffffffffff02905060008054906101000a900473ffffffffffffffffffffffffffffffffffffffff1673ffffffffffffffffffffffffffffffffffffffff166342966c68826040518263ffffffff1660e01b8152600401610e2f9190611ee0565b600060405180830381600087803b158015610e4957600080fd5b505af1158015610e5d573d6000803e3d6000fd5b50505050505b5b610e6d8661023c565b505050505050565b610e7d611597565b6000600360003373ffffffffffffffffffffffffffffffffffffffff1673ffffffffffffffffffffffffffffffffffffffff1681526020019081526020016000206040518060600160405290816000820160009054906101000a900460ff161515151581526020016001820154815260200160028201548152505090506000600460003373ffffffffffffffffffffffffffffffffffffffff1673ffffffffffffffffffffffffffffffffffffffff168152602001908152602001600020805480602002602001604051908101604052809291908181526020016000905b82821015610fc457838290600052602060002090600202016040518060400160405290816000820160009054906101000a900460ff166002811115610f9c57fe5b6002811115610fa757fe5b815260200160018201548152505081526020019060010190610f5b565b50505050905060008060009054906101000a900473ffffffffffffffffffffffffffffffffffffffff1673ffffffffffffffffffffffffffffffffffffffff166370a08231336040518263ffffffff1660e01b81526004016110269190611d4d565b60206040518083038186803b15801561103e57600080fd5b505afa158015611052573d6000803e3d6000fd5b505050506040513d601f19601f8201168201806040525081019061107691906117f6565b905060005b855181101561143957600086828151811061109257fe5b60200260200101519050600060086000836040015181526020019081526020016000206040518060800160405290816000820154815260200160018201548152602001600282015481526020016003820154815250509050600060028111156110f757fe5b8260200151600281111561110757fe5b141561142a576001600381111561111a57fe5b8260000151600381111561112a57fe5b141561119757856020015160011115611178576040517f08c379a000000000000000000000000000000000000000000000000000000000815260040161116f90611df3565b60405180910390fd5b6001866020018181510391508181525050806000015184019350611429565b600060038111156111a457fe5b826000015160038111156111b457fe5b1415611220578060000151841015611201576040517f08c379a00000000000000000000000000000000000000000000000000000000081526004016111f890611db3565b60405180910390fd5b8060000151840393506001866020018181510191508181525050611428565b6002600381111561122d57fe5b8260000151600381111561123d57fe5b14156112e657600086602001511161128a576040517f08c379a000000000000000000000000000000000000000000000000000000000815260040161128190611dd3565b60405180910390fd5b60006040518060400160405280600060028111156112a457fe5b81526020018460400151815250905080868460600151815181106112c457fe5b6020026020010181905250600187602001818151039150818152505050611427565b6003808111156112f257fe5b8260000151600381111561130257fe5b14156114265760008583606001518151811061131a57fe5b602002602001015190506000600281111561133157fe5b8160000151600281111561134157fe5b14611381576040517f08c379a000000000000000000000000000000000000000000000000000000000815260040161137890611e33565b60405180910390fd5b600081602001514203905060095481116113d0576040517f08c379a00000000000000000000000000000000000000000000000000000000081526004016113c790611e13565b60405180910390fd5b600060405180604001604052806002808111156113e957fe5b815260200160008152509050808886606001518151811061140657fe5b602002602001018190525060028960200181815101915081815250505050505b5b5b5b5b5050808060010191505061107b565b506040518060800160405280848152602001838152602001828152602001868152509350505050919050565b600060086000600154815260200190815260200160002060000154905090565b600082841015611497578290506114ab565b818411156114a7578190506114ab565b8390505b9392505050565b60606000600184510167ffffffffffffffff811180156114d157600080fd5b5060405190808252806020026020018201604052801561150b57816020015b6114f86115c5565b8152602001906001900390816114f05790505b50905060005b84518110156115505784818151811061152657fe5b602002602001015182828151811061153a57fe5b6020026020010181905250600181019050611511565b50828185518151811061155f57fe5b60200260200101819052508091505092915050565b604051806060016040528060001515815260200160008152602001600081525090565b60405180608001604052806115aa611574565b81526020016060815260200160008152602001606081525090565b6040518060800160405280600060038111156115dd57fe5b8152602001600060028111156115ef57fe5b815260200160008152602001600081525090565b600061161661161184611f2c565b611efb565b9050808382526020820190508285608086028201111561163557600080fd5b60005b85811015611665578161164b88826116c3565b845260208401935060808301925050600181019050611638565b5050509392505050565b600082601f83011261168057600080fd5b8135611690848260208601611603565b91505092915050565b6000813590506116a8816120cc565b92915050565b6000813590506116bd816120dc565b92915050565b6000608082840312156116d557600080fd5b6116df6080611efb565b905060006116ef84828501611699565b6000830152506020611703848285016116ae565b602083015250604061171784828501611737565b604083015250606061172b84828501611737565b60608301525092915050565b600081359050611746816120ec565b92915050565b60008151905061175b816120ec565b92915050565b60006020828403121561177357600080fd5b600082013567ffffffffffffffff81111561178d57600080fd5b6117998482850161166f565b91505092915050565b600080604083850312156117b557600080fd5b600083013567ffffffffffffffff8111156117cf57600080fd5b6117db8582860161166f565b92505060206117ec85828601611737565b9150509250929050565b60006020828403121561180857600080fd5b60006118168482850161174c565b91505092915050565b600061182b8383611cab565b60408301905092915050565b60006118438383611cda565b60808301905092915050565b61185881612048565b82525050565b600061186982611f78565b6118738185611fa8565b935061187e83611f58565b8060005b838110156118af578151611896888261181f565b97506118a183611f8e565b925050600181019050611882565b5085935050505092915050565b60006118c782611f78565b6118d18185611fb9565b93506118dc83611f58565b8060005b8381101561190d5781516118f4888261181f565b97506118ff83611f8e565b9250506001810190506118e0565b5085935050505092915050565b600061192582611f83565b61192f8185611fca565b935061193a83611f68565b8060005b8381101561196b5781516119528882611837565b975061195d83611f9b565b92505060018101905061193e565b5085935050505092915050565b61198181611fec565b82525050565b6119908161205a565b82525050565b61199f8161206c565b82525050565b60006119b2602c83611fdb565b91507f496e76616c6964206661726d3a204e6f7420656e6f756768206d6f6e6579207460008301527f6f20627579206170706c657300000000000000000000000000000000000000006020830152604082019050919050565b6000611a18602d83611fdb565b91507f496e76616c6964206661726d3a204e6f7420656e6f756768206170706c65207360008301527f6565647320746f20706c616e74000000000000000000000000000000000000006020830152604082019050919050565b6000611a7e601f83611fdb565b91507f496e76616c6964206661726d3a204e6f206170706c657320746f2073656c6c006000830152602082019050919050565b6000611abe603883611fdb565b91507f496e76616c6964206661726d3a596f7520646f206e6f74206861766520616e7960008301527f206170706c6573207269706520666f72206861727665737400000000000000006020830152604082019050919050565b6000611b24602283611fdb565b91507f496e76616c6964206661726d3a2054686174206973206e6f7420616e2061707060008301527f6c650000000000000000000000000000000000000000000000000000000000006020830152604082019050919050565b6000611b8a601883611fdb565b91507f496e76656e746f727920616c72656164792065786973747300000000000000006000830152602082019050919050565b600060c083016000830151611bd56000860182611c27565b5060208301518482036060860152611bed828261185e565b9150506040830151611c026080860182611d2f565b50606083015184820360a0860152611c1a828261191a565b9150508091505092915050565b606082016000820151611c3d6000850182611978565b506020820151611c506020850182611d2f565b506040820151611c636040850182611d2f565b50505050565b606082016000820151611c7f6000850182611978565b506020820151611c926020850182611d2f565b506040820151611ca56040850182611d2f565b50505050565b604082016000820151611cc16000850182611996565b506020820151611cd46020850182611d2f565b50505050565b608082016000820151611cf06000850182611987565b506020820151611d036020850182611996565b506040820151611d166040850182611d2f565b506060820151611d296060850182611d2f565b50505050565b611d388161203e565b82525050565b611d478161203e565b82525050565b6000602082019050611d62600083018461184f565b92915050565b6000604082019050611d7d600083018561184f565b611d8a6020830184611d3e565b9392505050565b60006020820190508181036000830152611dab81846118bc565b905092915050565b60006020820190508181036000830152611dcc816119a5565b9050919050565b60006020820190508181036000830152611dec81611a0b565b9050919050565b60006020820190508181036000830152611e0c81611a71565b9050919050565b60006020820190508181036000830152611e2c81611ab1565b9050919050565b60006020820190508181036000830152611e4c81611b17565b9050919050565b60006020820190508181036000830152611e6c81611b7d565b9050919050565b60006020820190508181036000830152611e8d8184611bbd565b905092915050565b60006040820190508181036000830152611eaf8185611bbd565b9050611ebe6020830184611d3e565b9392505050565b6000606082019050611eda6000830184611c69565b92915050565b6000602082019050611ef56000830184611d3e565b92915050565b6000604051905081810181811067ffffffffffffffff82111715611f2257611f216120a2565b5b8060405250919050565b600067ffffffffffffffff821115611f4757611f466120a2565b5b602082029050602081019050919050565b6000819050602082019050919050565b6000819050602082019050919050565b600081519050919050565b600081519050919050565b6000602082019050919050565b6000602082019050919050565b600082825260208201905092915050565b600082825260208201905092915050565b600082825260208201905092915050565b600082825260208201905092915050565b60008115159050919050565b6000819050612006826120a4565b919050565b6000819050612019826120b8565b919050565b600073ffffffffffffffffffffffffffffffffffffffff82169050919050565b6000819050919050565b60006120538261207e565b9050919050565b600061206582611ff8565b9050919050565b60006120778261200b565b9050919050565b600061208982612090565b9050919050565b600061209b8261201e565b9050919050565bfe5b600481106120b5576120b46120a2565b5b50565b600381106120c9576120c86120a2565b5b50565b600481106120d957600080fd5b50565b600381106120e957600080fd5b50565b6120f58161203e565b811461210057600080fd5b5056fea2646970667358221220e6b51edb3f6c5da15ae28c093fb05ccc75271650ea2fa810a1e9b8a84de3970464736f6c63430007060033",
  "immutableReferences": {},
  "source": "pragma solidity >=0.6.0 <0.8.0;\r\npragma experimental ABIEncoderV2;\r\n\r\nimport \"./Token.sol\";\r\n\r\ncontract Farm {\r\n    //assign Token contract to variable\r\n    Token private token;\r\n    uint NOW_TIMESTAMP = 69;\r\n    uint DECIMAL_PLACES = 18;\r\n\r\n    struct Square {\r\n        Commodity commodity;\r\n        uint createdAt;\r\n    }\r\n\r\n    struct Inventory {\r\n        bool isInitialized;\r\n        uint apples;\r\n        uint avocados;\r\n    }\r\n\r\n\r\n    mapping(address => Inventory) inventories;\r\n    mapping(address => Square[]) fields;\r\n\r\n    //pass as constructor argument deployed Token contract\r\n    constructor(Token _token) public {\r\n        //assign token deployed contract to variable\r\n        token = _token;\r\n\r\n        // Initial prices\r\n        market[NOW_TIMESTAMP] = Prices({\r\n            apples: 1 * 10^DECIMAL_PLACES, \r\n            avocados: 3 * 10^DECIMAL_PLACES,\r\n            timestamp: block.timestamp,\r\n            previousTimestamp: 0\r\n        });\r\n    }\r\n\r\n    function createFarm() public {\r\n        require(!inventories[msg.sender].isInitialized, \"Inventory already exists\");\r\n\r\n        Inventory storage inventory = inventories[msg.sender];\r\n        inventory.isInitialized = true;\r\n        inventory.apples = 1;\r\n\r\n        Square[] storage land = fields[msg.sender];\r\n        Square memory empty = Square(Commodity.Empty, 0);\r\n        land.push(empty);\r\n    }\r\n\r\n    function getInventory() public view returns (Inventory memory) {\r\n        return inventories[msg.sender];\r\n    }\r\n\r\n    function getLand() public view returns (Square[] memory) {\r\n        return fields[msg.sender];\r\n    }\r\n\r\n    enum Action { Buy, Sell, Plant, Harvest }\r\n    uint FRUIT_COUNT = 2;\r\n    enum Commodity { AppleSeed, AvocadoSeed, Empty }\r\n\r\n    struct Transaction { \r\n        Action action;\r\n        Commodity commodity;\r\n        uint timestamp;\r\n        uint landIndex;\r\n    }\r\n\r\n    uint MAX_AVOCADO_PRICE = 5;\r\n    uint MIN_AVOCADO_PRICE = 3;\r\n\r\n    struct Prices {\r\n        uint apples;\r\n        uint avocados;\r\n        uint timestamp;\r\n        uint previousTimestamp;\r\n    }\r\n     \r\n    mapping(uint => Prices) market;\r\n\r\n    struct Farm {\r\n        Inventory inventory;\r\n        Square[] land;\r\n        uint balance;\r\n        Transaction[] transactions;\r\n    }\r\n\r\n    uint APPLE_HARVEST_MILLSECONDS = 60 * 1000;\r\n\r\n    function getFarm(Transaction[] memory _transactions) public view returns (Farm memory currentFarm) {\r\n        Inventory memory inventory = inventories[msg.sender];\r\n        Square[] memory land = fields[msg.sender];\r\n        uint fmc = token.balanceOf(msg.sender);\r\n\r\n        for (uint index = 0; index < _transactions.length; index++) {\r\n            Transaction memory transaction = _transactions[index];\r\n            Prices memory pricesAtTime = market[transaction.timestamp];\r\n\r\n            if (transaction.commodity == Commodity.AppleSeed) {\r\n                if (transaction.action == Action.Sell) {\r\n                    require(1 <= inventory.apples, \"Invalid farm: No apples to sell\");\r\n\r\n                    inventory.apples -= 1;\r\n                    fmc += pricesAtTime.apples;\r\n                } else if (transaction.action == Action.Buy) {\r\n                    require(fmc >= pricesAtTime.apples, \"Invalid farm: Not enough money to buy apples\");\r\n\r\n                    fmc -= pricesAtTime.apples;\r\n                    inventory.apples += 1;\r\n                } else if (transaction.action == Action.Plant) {\r\n                    require(inventory.apples > 0, \"Invalid farm: Not enough apple seeds to plant\");\r\n\r\n                    Square memory plantedApple = Square(Commodity.AppleSeed, transaction.timestamp);\r\n                    land[transaction.landIndex] = plantedApple;\r\n                    inventory.apples -= 1;\r\n                } else if (transaction.action == Action.Harvest) {\r\n                    Square memory square = land[transaction.landIndex];\r\n                    require(square.commodity == Commodity.AppleSeed, \"Invalid farm: That is not an apple\");\r\n\r\n                    uint duration = block.timestamp - square.createdAt;\r\n                    require(duration > APPLE_HARVEST_MILLSECONDS, \"Invalid farm:You do not have any apples ripe for harvest\");\r\n\r\n                    // Clear the land\r\n                    Square memory emptyLand = Square(Commodity.Empty, 0);\r\n                    land[transaction.landIndex] = emptyLand;\r\n                    inventory.apples += 2;\r\n                }\r\n            }\r\n        }\r\n\r\n        return Farm({\r\n            inventory: inventory,\r\n            land: land,\r\n            balance: fmc,\r\n            transactions: _transactions\r\n        });\r\n    }\r\n\r\n    function clamp(uint value, uint minimum, uint maximum) private pure returns (uint clamped) {\r\n        if (value < minimum) {\r\n            return minimum;\r\n        }\r\n\r\n        if (value > maximum) {\r\n            return maximum;\r\n        }\r\n\r\n        return value;\r\n    }\r\n\r\n    // Assume the proportional number of transactions is what influences price\r\n    // Since at the time of transaction, they will likely be buying something and have sold all their seeds\r\n    function moveTheMarket(Transaction[] memory _transactions) public {\r\n        uint apples = 0;\r\n        uint avocados = 0;\r\n\r\n        // What is the biggest mover?\r\n        for (uint i=0; i < _transactions.length; i += 1) {\r\n            if ( _transactions[i].commodity == Commodity.AppleSeed) {\r\n                apples += 1;\r\n            } else if ( _transactions[i].commodity == Commodity.AppleSeed) {\r\n                avocados += 1;\r\n            }\r\n        }\r\n\r\n        uint totalFruitTransactions = apples + avocados;\r\n\r\n        // Percentage of transactions that were apples\r\n        uint applePercentage = apples / totalFruitTransactions * 100;\r\n        uint avocadoPercentage = avocados / totalFruitTransactions * 100;\r\n        uint expectedTransactions = 1 / FRUIT_COUNT * 100;\r\n\r\n        uint appleChange = applePercentage - expectedTransactions;\r\n        uint avocadoChange = avocadoPercentage - expectedTransactions;\r\n\r\n\r\n        // TODO even out the price from the previous hour - store transactions in the last hour?\r\n        uint transactionCount = 0;\r\n        uint tenMinutesAgo = block.timestamp - (60 * 10);\r\n        Prices memory prices = market[NOW_TIMESTAMP];\r\n        while (prices.timestamp > tenMinutesAgo) {\r\n            transactionCount++;\r\n            \r\n            if (prices.previousTimestamp != 0) {\r\n                prices = market[prices.previousTimestamp];\r\n            } else {\r\n                break;\r\n            }\r\n        }\r\n\r\n        Prices memory currentPrices = market[NOW_TIMESTAMP];\r\n\r\n        // Apples are staple, they always stay at 1 FMC\r\n        uint relativeAvocadoChange = avocadoChange / transactionCount;\r\n        uint newAvocadoPrice = clamp(currentPrices.avocados * relativeAvocadoChange, MIN_AVOCADO_PRICE, MAX_AVOCADO_PRICE);\r\n\r\n        market[currentPrices.timestamp] = currentPrices;\r\n        market[NOW_TIMESTAMP] = Prices({\r\n            apples: 1,\r\n            avocados: newAvocadoPrice,\r\n            timestamp: block.timestamp,\r\n            previousTimestamp: currentPrices.timestamp\r\n        });\r\n    }\r\n\r\n    function sync(Transaction[] memory _transactions) public {\r\n        uint balance = token.balanceOf(msg.sender);\r\n        Farm memory farm = getFarm(_transactions);\r\n\r\n        // Update the inventory\r\n        Inventory storage oldInventory = inventories[msg.sender];\r\n\r\n        oldInventory.apples = farm.inventory.apples;\r\n\r\n        // TODO support more land\r\n        Square[] storage land = fields[msg.sender];\r\n        land[0] = farm.land[0];\r\n\r\n\r\n        // Update the users FMC - mint or burn\r\n        int balanceChange = int(farm.balance) - int(balance);\r\n        if (balanceChange > 0) {\r\n            token.mint(msg.sender, uint(balanceChange));\r\n        } else if (balanceChange < 0) {\r\n            int amountToBurn = -1 * int(balanceChange);\r\n            token.burn(uint(amountToBurn));\r\n        }\r\n\r\n        // TODO - update the prices\r\n        moveTheMarket(_transactions);\r\n\r\n    }\r\n\r\n    function addTransaction(Transaction[] memory _transactions, Transaction memory _transaction) private view returns (Transaction[] memory) {\r\n        Transaction[] memory newTransactions = new Transaction[](_transactions.length + 1);\r\n        for (uint i=0; i < _transactions.length; i += 1) {\r\n            newTransactions[i] = _transactions[i];\r\n        }\r\n\r\n        // Add the new transaction\r\n        newTransactions[_transactions.length] = _transaction;\r\n\r\n        return newTransactions;\r\n    }\r\n\r\n    function buyAppleSeed(Transaction[] memory _transactions) public view returns (Farm memory farm, uint price) {\r\n        Prices memory currentPrices = market[NOW_TIMESTAMP];\r\n        Transaction memory buyAppleTransaction = Transaction(Action.Buy, Commodity.AppleSeed, currentPrices.timestamp, 0);\r\n        Transaction[] memory newTransactions = addTransaction(_transactions, buyAppleTransaction);\r\n\r\n\r\n        Farm memory updatedFarm = getFarm(newTransactions);\r\n        return (updatedFarm,currentPrices.apples);\r\n    }\r\n\r\n    function sellAppleSeed(Transaction[] memory _transactions) public view returns (Farm memory farm, uint price) {\r\n        Prices memory currentPrices = market[NOW_TIMESTAMP];\r\n        Transaction memory sellAppleTransaction = Transaction(Action.Sell, Commodity.AppleSeed, currentPrices.timestamp, 0);\r\n        Transaction[] memory newTransactions = addTransaction(_transactions, sellAppleTransaction);\r\n\r\n\r\n        Farm memory updatedFarm = getFarm(newTransactions);\r\n        return (updatedFarm, currentPrices.apples);\r\n    }\r\n\r\n    function plantAppleSeed(Transaction[] memory _transactions, uint landIndex) public view returns (Farm memory farm) {\r\n        Prices memory currentPrices = market[NOW_TIMESTAMP];\r\n        Transaction memory plantAppleTransaction = Transaction(Action.Plant, Commodity.AppleSeed, currentPrices.timestamp, landIndex);\r\n        Transaction[] memory newTransactions = addTransaction(_transactions, plantAppleTransaction);\r\n\r\n        Farm memory updatedFarm = getFarm(newTransactions);\r\n        return (updatedFarm);\r\n    }\r\n\r\n    function harvestAppleSeed(Transaction[] memory _transactions, uint landIndex) public view returns (Farm memory farm) {\r\n        // Add the new transaction\r\n        Prices memory currentPrices = market[NOW_TIMESTAMP];\r\n        Transaction memory plantAppleTransaction = Transaction(Action.Harvest, Commodity.AppleSeed, currentPrices.timestamp, 0);\r\n        Transaction[] memory newTransactions = addTransaction(_transactions, plantAppleTransaction);\r\n\r\n        Farm memory updatedFarm = getFarm(newTransactions);\r\n        return (updatedFarm);\r\n    }\r\n\r\n    function getApplePrice() public view returns (uint price) {\r\n        return market[NOW_TIMESTAMP].apples;\r\n    }\r\n}\r\n",
  "sourcePath": "/Users/adamhannigan/Documents/workspace/fruit-market/src/contracts/Farm.sol",
  "compiler": {
    "name": "solc",
    "version": "0.7.6+commit.7338295f.Emscripten.clang"
  },
  "schemaVersion": "3.4.0",
  "updatedAt": "2021-05-08T22:19:07.930Z",
  "devdoc": {
    "kind": "dev",
    "methods": {},
    "version": 1
  },
  "userdoc": {
    "kind": "user",
    "methods": {},
    "version": 1
  }
}