{
  "contractName": "Farm",
  "abi": [
    {
      "inputs": [
        {
          "internalType": "contract Token",
          "name": "_token",
          "type": "address"
        }
      ],
      "stateMutability": "nonpayable",
      "type": "constructor"
    },
    {
      "anonymous": false,
      "inputs": [
        {
          "indexed": true,
          "internalType": "address",
          "name": "_address",
          "type": "address"
        }
      ],
      "name": "FarmCreated",
      "type": "event"
    },
    {
      "anonymous": false,
      "inputs": [
        {
          "indexed": true,
          "internalType": "address",
          "name": "_address",
          "type": "address"
        }
      ],
      "name": "FarmSynced",
      "type": "event"
    },
    {
      "inputs": [],
      "name": "createFarm",
      "outputs": [],
      "stateMutability": "nonpayable",
      "type": "function"
    },
    {
      "inputs": [
        {
          "components": [
            {
              "internalType": "enum Farm.Action",
              "name": "action",
              "type": "uint8"
            },
            {
              "internalType": "enum Farm.Commodity",
              "name": "commodity",
              "type": "uint8"
            },
            {
              "internalType": "uint256",
              "name": "timestamp",
              "type": "uint256"
            },
            {
              "internalType": "uint256",
              "name": "landIndex",
              "type": "uint256"
            },
            {
              "internalType": "uint256",
              "name": "createdAt",
              "type": "uint256"
            }
          ],
          "internalType": "struct Farm.Transaction[]",
          "name": "_transactions",
          "type": "tuple[]"
        }
      ],
      "name": "buyMoreSpace",
      "outputs": [],
      "stateMutability": "nonpayable",
      "type": "function"
    },
    {
      "inputs": [],
      "name": "getInventory",
      "outputs": [
        {
          "components": [
            {
              "internalType": "bool",
              "name": "isInitialized",
              "type": "bool"
            },
            {
              "internalType": "uint256",
              "name": "apples",
              "type": "uint256"
            },
            {
              "internalType": "uint256",
              "name": "avocados",
              "type": "uint256"
            }
          ],
          "internalType": "struct Farm.Inventory",
          "name": "",
          "type": "tuple"
        }
      ],
      "stateMutability": "view",
      "type": "function"
    },
    {
      "inputs": [],
      "name": "getLand",
      "outputs": [
        {
          "components": [
            {
              "internalType": "enum Farm.Commodity",
              "name": "commodity",
              "type": "uint8"
            },
            {
              "internalType": "uint256",
              "name": "createdAt",
              "type": "uint256"
            }
          ],
          "internalType": "struct Farm.Square[]",
          "name": "",
          "type": "tuple[]"
        }
      ],
      "stateMutability": "view",
      "type": "function"
    },
    {
      "inputs": [
        {
          "components": [
            {
              "internalType": "enum Farm.Action",
              "name": "action",
              "type": "uint8"
            },
            {
              "internalType": "enum Farm.Commodity",
              "name": "commodity",
              "type": "uint8"
            },
            {
              "internalType": "uint256",
              "name": "timestamp",
              "type": "uint256"
            },
            {
              "internalType": "uint256",
              "name": "landIndex",
              "type": "uint256"
            },
            {
              "internalType": "uint256",
              "name": "createdAt",
              "type": "uint256"
            }
          ],
          "internalType": "struct Farm.Transaction[]",
          "name": "_transactions",
          "type": "tuple[]"
        }
      ],
      "name": "moveTheMarket",
      "outputs": [],
      "stateMutability": "nonpayable",
      "type": "function"
    },
    {
      "inputs": [
        {
          "components": [
            {
              "internalType": "enum Farm.Action",
              "name": "action",
              "type": "uint8"
            },
            {
              "internalType": "enum Farm.Commodity",
              "name": "commodity",
              "type": "uint8"
            },
            {
              "internalType": "uint256",
              "name": "timestamp",
              "type": "uint256"
            },
            {
              "internalType": "uint256",
              "name": "landIndex",
              "type": "uint256"
            },
            {
              "internalType": "uint256",
              "name": "createdAt",
              "type": "uint256"
            }
          ],
          "internalType": "struct Farm.Transaction[]",
          "name": "_transactions",
          "type": "tuple[]"
        }
      ],
      "name": "sync",
      "outputs": [
        {
          "components": [
            {
              "components": [
                {
                  "internalType": "bool",
                  "name": "isInitialized",
                  "type": "bool"
                },
                {
                  "internalType": "uint256",
                  "name": "apples",
                  "type": "uint256"
                },
                {
                  "internalType": "uint256",
                  "name": "avocados",
                  "type": "uint256"
                }
              ],
              "internalType": "struct Farm.Inventory",
              "name": "inventory",
              "type": "tuple"
            },
            {
              "components": [
                {
                  "internalType": "enum Farm.Commodity",
                  "name": "commodity",
                  "type": "uint8"
                },
                {
                  "internalType": "uint256",
                  "name": "createdAt",
                  "type": "uint256"
                }
              ],
              "internalType": "struct Farm.Square[]",
              "name": "land",
              "type": "tuple[]"
            },
            {
              "internalType": "uint256",
              "name": "balance",
              "type": "uint256"
            },
            {
              "components": [
                {
                  "internalType": "enum Farm.Action",
                  "name": "action",
                  "type": "uint8"
                },
                {
                  "internalType": "enum Farm.Commodity",
                  "name": "commodity",
                  "type": "uint8"
                },
                {
                  "internalType": "uint256",
                  "name": "timestamp",
                  "type": "uint256"
                },
                {
                  "internalType": "uint256",
                  "name": "landIndex",
                  "type": "uint256"
                },
                {
                  "internalType": "uint256",
                  "name": "createdAt",
                  "type": "uint256"
                }
              ],
              "internalType": "struct Farm.Transaction[]",
              "name": "transactions",
              "type": "tuple[]"
            }
          ],
          "internalType": "struct Farm.Farm",
          "name": "",
          "type": "tuple"
        }
      ],
      "stateMutability": "nonpayable",
      "type": "function"
    },
    {
      "inputs": [],
      "name": "getBalance",
      "outputs": [
        {
          "internalType": "uint256",
          "name": "balance",
          "type": "uint256"
        }
      ],
      "stateMutability": "view",
      "type": "function"
    },
    {
      "inputs": [
        {
          "components": [
            {
              "internalType": "enum Farm.Action",
              "name": "action",
              "type": "uint8"
            },
            {
              "internalType": "enum Farm.Commodity",
              "name": "commodity",
              "type": "uint8"
            },
            {
              "internalType": "uint256",
              "name": "timestamp",
              "type": "uint256"
            },
            {
              "internalType": "uint256",
              "name": "landIndex",
              "type": "uint256"
            },
            {
              "internalType": "uint256",
              "name": "createdAt",
              "type": "uint256"
            }
          ],
          "internalType": "struct Farm.Transaction[]",
          "name": "_transactions",
          "type": "tuple[]"
        },
        {
          "internalType": "enum Farm.Commodity",
          "name": "_commodity",
          "type": "uint8"
        }
      ],
      "name": "buy",
      "outputs": [
        {
          "components": [
            {
              "components": [
                {
                  "internalType": "bool",
                  "name": "isInitialized",
                  "type": "bool"
                },
                {
                  "internalType": "uint256",
                  "name": "apples",
                  "type": "uint256"
                },
                {
                  "internalType": "uint256",
                  "name": "avocados",
                  "type": "uint256"
                }
              ],
              "internalType": "struct Farm.Inventory",
              "name": "inventory",
              "type": "tuple"
            },
            {
              "components": [
                {
                  "internalType": "enum Farm.Commodity",
                  "name": "commodity",
                  "type": "uint8"
                },
                {
                  "internalType": "uint256",
                  "name": "createdAt",
                  "type": "uint256"
                }
              ],
              "internalType": "struct Farm.Square[]",
              "name": "land",
              "type": "tuple[]"
            },
            {
              "internalType": "uint256",
              "name": "balance",
              "type": "uint256"
            },
            {
              "components": [
                {
                  "internalType": "enum Farm.Action",
                  "name": "action",
                  "type": "uint8"
                },
                {
                  "internalType": "enum Farm.Commodity",
                  "name": "commodity",
                  "type": "uint8"
                },
                {
                  "internalType": "uint256",
                  "name": "timestamp",
                  "type": "uint256"
                },
                {
                  "internalType": "uint256",
                  "name": "landIndex",
                  "type": "uint256"
                },
                {
                  "internalType": "uint256",
                  "name": "createdAt",
                  "type": "uint256"
                }
              ],
              "internalType": "struct Farm.Transaction[]",
              "name": "transactions",
              "type": "tuple[]"
            }
          ],
          "internalType": "struct Farm.Farm",
          "name": "farm",
          "type": "tuple"
        },
        {
          "internalType": "uint256",
          "name": "price",
          "type": "uint256"
        }
      ],
      "stateMutability": "view",
      "type": "function"
    },
    {
      "inputs": [
        {
          "components": [
            {
              "internalType": "enum Farm.Action",
              "name": "action",
              "type": "uint8"
            },
            {
              "internalType": "enum Farm.Commodity",
              "name": "commodity",
              "type": "uint8"
            },
            {
              "internalType": "uint256",
              "name": "timestamp",
              "type": "uint256"
            },
            {
              "internalType": "uint256",
              "name": "landIndex",
              "type": "uint256"
            },
            {
              "internalType": "uint256",
              "name": "createdAt",
              "type": "uint256"
            }
          ],
          "internalType": "struct Farm.Transaction[]",
          "name": "_transactions",
          "type": "tuple[]"
        },
        {
          "internalType": "enum Farm.Commodity",
          "name": "_commodity",
          "type": "uint8"
        }
      ],
      "name": "sell",
      "outputs": [
        {
          "components": [
            {
              "components": [
                {
                  "internalType": "bool",
                  "name": "isInitialized",
                  "type": "bool"
                },
                {
                  "internalType": "uint256",
                  "name": "apples",
                  "type": "uint256"
                },
                {
                  "internalType": "uint256",
                  "name": "avocados",
                  "type": "uint256"
                }
              ],
              "internalType": "struct Farm.Inventory",
              "name": "inventory",
              "type": "tuple"
            },
            {
              "components": [
                {
                  "internalType": "enum Farm.Commodity",
                  "name": "commodity",
                  "type": "uint8"
                },
                {
                  "internalType": "uint256",
                  "name": "createdAt",
                  "type": "uint256"
                }
              ],
              "internalType": "struct Farm.Square[]",
              "name": "land",
              "type": "tuple[]"
            },
            {
              "internalType": "uint256",
              "name": "balance",
              "type": "uint256"
            },
            {
              "components": [
                {
                  "internalType": "enum Farm.Action",
                  "name": "action",
                  "type": "uint8"
                },
                {
                  "internalType": "enum Farm.Commodity",
                  "name": "commodity",
                  "type": "uint8"
                },
                {
                  "internalType": "uint256",
                  "name": "timestamp",
                  "type": "uint256"
                },
                {
                  "internalType": "uint256",
                  "name": "landIndex",
                  "type": "uint256"
                },
                {
                  "internalType": "uint256",
                  "name": "createdAt",
                  "type": "uint256"
                }
              ],
              "internalType": "struct Farm.Transaction[]",
              "name": "transactions",
              "type": "tuple[]"
            }
          ],
          "internalType": "struct Farm.Farm",
          "name": "farm",
          "type": "tuple"
        },
        {
          "internalType": "uint256",
          "name": "price",
          "type": "uint256"
        }
      ],
      "stateMutability": "view",
      "type": "function"
    },
    {
      "inputs": [
        {
          "components": [
            {
              "internalType": "enum Farm.Action",
              "name": "action",
              "type": "uint8"
            },
            {
              "internalType": "enum Farm.Commodity",
              "name": "commodity",
              "type": "uint8"
            },
            {
              "internalType": "uint256",
              "name": "timestamp",
              "type": "uint256"
            },
            {
              "internalType": "uint256",
              "name": "landIndex",
              "type": "uint256"
            },
            {
              "internalType": "uint256",
              "name": "createdAt",
              "type": "uint256"
            }
          ],
          "internalType": "struct Farm.Transaction[]",
          "name": "_transactions",
          "type": "tuple[]"
        },
        {
          "internalType": "enum Farm.Commodity",
          "name": "_commodity",
          "type": "uint8"
        },
        {
          "internalType": "uint256",
          "name": "landIndex",
          "type": "uint256"
        }
      ],
      "name": "plant",
      "outputs": [
        {
          "components": [
            {
              "components": [
                {
                  "internalType": "bool",
                  "name": "isInitialized",
                  "type": "bool"
                },
                {
                  "internalType": "uint256",
                  "name": "apples",
                  "type": "uint256"
                },
                {
                  "internalType": "uint256",
                  "name": "avocados",
                  "type": "uint256"
                }
              ],
              "internalType": "struct Farm.Inventory",
              "name": "inventory",
              "type": "tuple"
            },
            {
              "components": [
                {
                  "internalType": "enum Farm.Commodity",
                  "name": "commodity",
                  "type": "uint8"
                },
                {
                  "internalType": "uint256",
                  "name": "createdAt",
                  "type": "uint256"
                }
              ],
              "internalType": "struct Farm.Square[]",
              "name": "land",
              "type": "tuple[]"
            },
            {
              "internalType": "uint256",
              "name": "balance",
              "type": "uint256"
            },
            {
              "components": [
                {
                  "internalType": "enum Farm.Action",
                  "name": "action",
                  "type": "uint8"
                },
                {
                  "internalType": "enum Farm.Commodity",
                  "name": "commodity",
                  "type": "uint8"
                },
                {
                  "internalType": "uint256",
                  "name": "timestamp",
                  "type": "uint256"
                },
                {
                  "internalType": "uint256",
                  "name": "landIndex",
                  "type": "uint256"
                },
                {
                  "internalType": "uint256",
                  "name": "createdAt",
                  "type": "uint256"
                }
              ],
              "internalType": "struct Farm.Transaction[]",
              "name": "transactions",
              "type": "tuple[]"
            }
          ],
          "internalType": "struct Farm.Farm",
          "name": "farm",
          "type": "tuple"
        }
      ],
      "stateMutability": "view",
      "type": "function"
    },
    {
      "inputs": [
        {
          "components": [
            {
              "internalType": "enum Farm.Action",
              "name": "action",
              "type": "uint8"
            },
            {
              "internalType": "enum Farm.Commodity",
              "name": "commodity",
              "type": "uint8"
            },
            {
              "internalType": "uint256",
              "name": "timestamp",
              "type": "uint256"
            },
            {
              "internalType": "uint256",
              "name": "landIndex",
              "type": "uint256"
            },
            {
              "internalType": "uint256",
              "name": "createdAt",
              "type": "uint256"
            }
          ],
          "internalType": "struct Farm.Transaction[]",
          "name": "_transactions",
          "type": "tuple[]"
        },
        {
          "internalType": "enum Farm.Commodity",
          "name": "_commodity",
          "type": "uint8"
        },
        {
          "internalType": "uint256",
          "name": "landIndex",
          "type": "uint256"
        }
      ],
      "name": "harvest",
      "outputs": [
        {
          "components": [
            {
              "components": [
                {
                  "internalType": "bool",
                  "name": "isInitialized",
                  "type": "bool"
                },
                {
                  "internalType": "uint256",
                  "name": "apples",
                  "type": "uint256"
                },
                {
                  "internalType": "uint256",
                  "name": "avocados",
                  "type": "uint256"
                }
              ],
              "internalType": "struct Farm.Inventory",
              "name": "inventory",
              "type": "tuple"
            },
            {
              "components": [
                {
                  "internalType": "enum Farm.Commodity",
                  "name": "commodity",
                  "type": "uint8"
                },
                {
                  "internalType": "uint256",
                  "name": "createdAt",
                  "type": "uint256"
                }
              ],
              "internalType": "struct Farm.Square[]",
              "name": "land",
              "type": "tuple[]"
            },
            {
              "internalType": "uint256",
              "name": "balance",
              "type": "uint256"
            },
            {
              "components": [
                {
                  "internalType": "enum Farm.Action",
                  "name": "action",
                  "type": "uint8"
                },
                {
                  "internalType": "enum Farm.Commodity",
                  "name": "commodity",
                  "type": "uint8"
                },
                {
                  "internalType": "uint256",
                  "name": "timestamp",
                  "type": "uint256"
                },
                {
                  "internalType": "uint256",
                  "name": "landIndex",
                  "type": "uint256"
                },
                {
                  "internalType": "uint256",
                  "name": "createdAt",
                  "type": "uint256"
                }
              ],
              "internalType": "struct Farm.Transaction[]",
              "name": "transactions",
              "type": "tuple[]"
            }
          ],
          "internalType": "struct Farm.Farm",
          "name": "farm",
          "type": "tuple"
        }
      ],
      "stateMutability": "view",
      "type": "function"
    },
    {
      "inputs": [],
      "name": "getPrices",
      "outputs": [
        {
          "components": [
            {
              "internalType": "uint256",
              "name": "apples",
              "type": "uint256"
            },
            {
              "internalType": "uint256",
              "name": "avocados",
              "type": "uint256"
            },
            {
              "internalType": "uint256",
              "name": "timestamp",
              "type": "uint256"
            },
            {
              "internalType": "uint256",
              "name": "previousTimestamp",
              "type": "uint256"
            }
          ],
          "internalType": "struct Farm.Prices",
          "name": "price",
          "type": "tuple"
        }
      ],
      "stateMutability": "view",
      "type": "function"
    },
    {
      "inputs": [],
      "name": "getApplePrice",
      "outputs": [
        {
          "internalType": "uint256",
          "name": "price",
          "type": "uint256"
        }
      ],
      "stateMutability": "view",
      "type": "function"
    },
    {
      "inputs": [],
      "name": "getAvocadoPrice",
      "outputs": [
        {
          "internalType": "uint256",
          "name": "price",
          "type": "uint256"
        }
      ],
      "stateMutability": "view",
      "type": "function"
    }
  ],
  "bytecode": "0x60806040526045600155600960045560026005556101f460065561012c60075560066009553480156200003157600080fd5b506040516200317f3803806200317f83398181016040528101906200005791906200011a565b806000806101000a81548173ffffffffffffffffffffffffffffffffffffffff021916908373ffffffffffffffffffffffffffffffffffffffff160217905550604051806080016040528060648152602001610190815260200142815260200160008152506008600060015481526020019081526020016000206000820151816000015560208201518160010155604082015181600201556060820151816003015590505050620001a8565b60008151905062000114816200018e565b92915050565b6000602082840312156200012d57600080fd5b60006200013d8482850162000103565b91505092915050565b600062000153826200016e565b9050919050565b6000620001678262000146565b9050919050565b600073ffffffffffffffffffffffffffffffffffffffff82169050919050565b62000199816200015a565b8114620001a557600080fd5b50565b612fc780620001b86000396000f3fe608060405234801561001057600080fd5b50600436106100ea5760003560e01c8063b4d641dc1161008c578063bd9a548b11610066578063bd9a548b1461024e578063bf78606e1461026c578063d60039ff1461029d578063f6837650146102b9576100ea565b8063b4d641dc146101d0578063ba7d808a14610200578063bc337f7814610230576100ea565b80635690314c116100c85780635690314c146101475780635d7f850c146101655780636163ec3214610183578063864ccb781461019f576100ea565b806312065fe0146100ef5780631d5ec3cb1461010d578063524a273a14610117575b600080fd5b6100f76102d7565b6040516101049190612ce2565b60405180910390f35b610115610388565b005b610131600480360381019061012c91906124aa565b61065f565b60405161013e9190612c5a565b60405180910390f35b61014f610722565b60405161015c9190612b56565b60405180910390f35b61016d6107f5565b60405161017a9190612cac565b60405180910390f35b61019d60048036038101906101989190612415565b61087b565b005b6101b960048036038101906101b49190612456565b610ba6565b6040516101c7929190612c7c565b60405180910390f35b6101ea60048036038101906101e59190612415565b610c72565b6040516101f79190612c5a565b60405180910390f35b61021a600480360381019061021591906124aa565b610ff9565b6040516102279190612c5a565b60405180910390f35b6102386110bb565b6040516102459190612ce2565b60405180910390f35b6102566110db565b6040516102639190612cc7565b60405180910390f35b61028660048036038101906102819190612456565b611130565b604051610294929190612c7c565b60405180910390f35b6102b760048036038101906102b29190612415565b6111fc565b005b6102c1611510565b6040516102ce9190612ce2565b60405180910390f35b60008060009054906101000a900473ffffffffffffffffffffffffffffffffffffffff1673ffffffffffffffffffffffffffffffffffffffff166370a08231336040518263ffffffff1660e01b81526004016103339190612b12565b60206040518083038186803b15801561034b57600080fd5b505afa15801561035f573d6000803e3d6000fd5b505050506040513d601f19601f820116820180604052508101906103839190612511565b905090565b600260003373ffffffffffffffffffffffffffffffffffffffff1673ffffffffffffffffffffffffffffffffffffffff16815260200190815260200160002060000160009054906101000a900460ff1615610418576040517f08c379a000000000000000000000000000000000000000000000000000000000815260040161040f90612c3a565b60405180910390fd5b6000600260003373ffffffffffffffffffffffffffffffffffffffff1673ffffffffffffffffffffffffffffffffffffffff168152602001908152602001600020905060018160000160006101000a81548160ff021916908315150217905550600181600101819055506000600360003373ffffffffffffffffffffffffffffffffffffffff1673ffffffffffffffffffffffffffffffffffffffff1681526020019081526020016000209050600060405180604001604052806002808111156104de57fe5b81526020016000815250905060005b600454811015610564578282908060018154018082558091505060019003906000526020600020906002020160009091909190915060008201518160000160006101000a81548160ff0219169083600281111561054657fe5b021790555060208201518160010155505080806001019150506104ed565b5060008060009054906101000a900473ffffffffffffffffffffffffffffffffffffffff1673ffffffffffffffffffffffffffffffffffffffff166370a08231336040518263ffffffff1660e01b81526004016105c19190612b12565b60206040518083038186803b1580156105d957600080fd5b505afa1580156105ed573d6000803e3d6000fd5b505050506040513d601f19601f820116820180604052508101906106119190612511565b905060603373ffffffffffffffffffffffffffffffffffffffff167f46963f16723a084f2199eb74021bd97647aa6c8960612a9a031ce509d40d4ca760405160405180910390a25050505050565b6106676121e5565b6000600860006001548152602001908152602001600020604051806080016040529081600082015481526020016001820154815260200160028201548152602001600382015481525050905060006040518060a00160405280600260038111156106cd57fe5b81526020018660028111156106de57fe5b81526020018360400151815260200185815260200142815250905060006107058783611530565b90506000610712826115f2565b9050809450505050509392505050565b6060600360003373ffffffffffffffffffffffffffffffffffffffff1673ffffffffffffffffffffffffffffffffffffffff168152602001908152602001600020805480602002602001604051908101604052809291908181526020016000905b828210156107ec57838290600052602060002090600202016040518060400160405290816000820160009054906101000a900460ff1660028111156107c457fe5b60028111156107cf57fe5b815260200160018201548152505081526020019060010190610783565b50505050905090565b6107fd612213565b600260003373ffffffffffffffffffffffffffffffffffffffff1673ffffffffffffffffffffffffffffffffffffffff1681526020019081526020016000206040518060600160405290816000820160009054906101000a900460ff1615151515815260200160018201548152602001600282015481525050905090565b60008060005b8351811015610914576000600281111561089757fe5b8482815181106108a357fe5b60200260200101516020015160028111156108ba57fe5b14156108cb57600183019250610909565b600160028111156108d857fe5b8482815181106108e457fe5b60200260200101516020015160028111156108fb57fe5b1415610908576001820191505b5b600181019050610881565b5060008183019050600081141561092d57505050610ba3565b60008084111561093e576064820290505b60008084111561095857606483858161095357fe5b040290505b600060055460648161096657fe5b04905060008183039050600060019050600061025842039050600060086000600154815260200190815260200160002060405180608001604052908160008201548152602001600182015481526020016002820154815260200160038201548152505090505b8181604001511115610a50578280600101935050600283126109ed57610a50565b6000816060015114156109ff57610a50565b600860008260600151815260200190815260200160002060405180608001604052908160008201548152602001600182015481526020016002820154815260200160038201548152505090506109cc565b600060086000600154815260200190815260200160002060405180608001604052908160008201548152602001600182015481526020016002820154815260200160038201548152505090506000600a9050600081868881610aae57fe5b0581610ab657fe5b0590506000816064039050600060648286602001510281610ad357fe5b0490506000610ae782600754600654611c7f565b905085600860008860400151815260200190815260200160002060008201518160000155602082015181600101556040820151816002015560608201518160030155905050604051806080016040528060648152602001828152602001428152602001876040015181525060086000600154815260200190815260200160002060008201518160000155602082015181600101556040820151816002015560608201518160030155905050505050505050505050505050505050505b50565b610bae6121e5565b600080600860006001548152602001908152602001600020604051806080016040529081600082015481526020016001820154815260200160028201548152602001600382015481525050905060006040518060a0016040528060006003811115610c1557fe5b8152602001866002811115610c2657fe5b815260200183604001518152602001600081526020014281525090506000610c4e8783611530565b90506000610c5b826115f2565b905080846000015195509550505050509250929050565b610c7a6121e5565b60008060009054906101000a900473ffffffffffffffffffffffffffffffffffffffff1673ffffffffffffffffffffffffffffffffffffffff166370a08231336040518263ffffffff1660e01b8152600401610cd69190612b12565b60206040518083038186803b158015610cee57600080fd5b505afa158015610d02573d6000803e3d6000fd5b505050506040513d601f19601f82011682018060405250810190610d269190612511565b90506000610d33846115f2565b90506000600260003373ffffffffffffffffffffffffffffffffffffffff1673ffffffffffffffffffffffffffffffffffffffff168152602001908152602001600020905081600001516020015181600101819055506000600360003373ffffffffffffffffffffffffffffffffffffffff1673ffffffffffffffffffffffffffffffffffffffff168152602001908152602001600020905060005b836020015151811015610e4f5783602001518181518110610dec57fe5b6020026020010151828281548110610e0057fe5b906000526020600020906002020160008201518160000160006101000a81548160ff02191690836002811115610e3257fe5b021790555060208201518160010155905050600181019050610dcf565b508383604001511115610efa57600084846040015103905060008054906101000a900473ffffffffffffffffffffffffffffffffffffffff1673ffffffffffffffffffffffffffffffffffffffff166340c10f1933836040518363ffffffff1660e01b8152600401610ec2929190612b2d565b600060405180830381600087803b158015610edc57600080fd5b505af1158015610ef0573d6000803e3d6000fd5b5050505050610fa1565b8383604001511015610fa057600083604001518503905060008054906101000a900473ffffffffffffffffffffffffffffffffffffffff1673ffffffffffffffffffffffffffffffffffffffff16639dc29fac33836040518363ffffffff1660e01b8152600401610f6c929190612b2d565b600060405180830381600087803b158015610f8657600080fd5b505af1158015610f9a573d6000803e3d6000fd5b50505050505b5b610faa8661087b565b3373ffffffffffffffffffffffffffffffffffffffff167fbe35fe23c13a419d565edccb8c8bdedc160c5b9a82873e431b545080d6f3c68860405160405180910390a282945050505050919050565b6110016121e5565b6000600860006001548152602001908152602001600020604051806080016040529081600082015481526020016001820154815260200160028201548152602001600382015481525050905060006040518060a0016040528060038081111561106657fe5b815260200186600281111561107757fe5b815260200183604001518152602001858152602001428152509050600061109e8783611530565b905060006110ab826115f2565b9050809450505050509392505050565b600060086000600154815260200190815260200160002060010154905090565b6110e3612236565b600860006001548152602001908152602001600020604051806080016040529081600082015481526020016001820154815260200160028201548152602001600382015481525050905090565b6111386121e5565b600080600860006001548152602001908152602001600020604051806080016040529081600082015481526020016001820154815260200160028201548152602001600382015481525050905060006040518060a001604052806001600381111561119f57fe5b81526020018660028111156111b057fe5b8152602001836040015181526020016000815260200142815250905060006111d88783611530565b905060006111e5826115f2565b905080846000015195509550505050509250929050565b600061120782610c72565b90506000600260003373ffffffffffffffffffffffffffffffffffffffff1673ffffffffffffffffffffffffffffffffffffffff1681526020019081526020016000206040518060600160405290816000820160009054906101000a900460ff1615151515815260200160018201548152602001600282015481525050905080600001516112ca576040517f08c379a00000000000000000000000000000000000000000000000000000000081526004016112c190612bda565b60405180910390fd5b6000600360003373ffffffffffffffffffffffffffffffffffffffff1673ffffffffffffffffffffffffffffffffffffffff16815260200190815260200160002090506000600161131e8380549050611cac565b01905060008182029050600081848054905003905060006003840382189050600061134882611cf1565b9050600061138b6040518060400160405280601281526020017f4e6f7420656e6f756768206d6f6e65793a20000000000000000000000000000081525083611e41565b9050828960400151101581906113d7576040517f08c379a00000000000000000000000000000000000000000000000000000000081526004016113ce9190612b78565b60405180910390fd5b50600060405180604001604052806002808111156113f157fe5b81526020016000815250905060005b85811015611475578882908060018154018082558091505060019003906000526020600020906002020160009091909190915060008201518160000160006101000a81548160ff0219169083600281111561145757fe5b02179055506020820151816001015550508080600101915050611400565b5060008054906101000a900473ffffffffffffffffffffffffffffffffffffffff1673ffffffffffffffffffffffffffffffffffffffff16639dc29fac33866040518363ffffffff1660e01b81526004016114d1929190612b2d565b600060405180830381600087803b1580156114eb57600080fd5b505af11580156114ff573d6000803e3d6000fd5b505050505050505050505050505050565b600060086000600154815260200190815260200160002060000154905090565b60606000600184510167ffffffffffffffff8111801561154f57600080fd5b5060405190808252806020026020018201604052801561158957816020015b61157661225e565b81526020019060019003908161156e5790505b50905060005b84518110156115ce578481815181106115a457fe5b60200260200101518282815181106115b857fe5b602002602001018190525060018101905061158f565b5082818551815181106115dd57fe5b60200260200101819052508091505092915050565b6115fa6121e5565b6000600260003373ffffffffffffffffffffffffffffffffffffffff1673ffffffffffffffffffffffffffffffffffffffff1681526020019081526020016000206040518060600160405290816000820160009054906101000a900460ff1615151515815260200160018201548152602001600282015481525050905080600001516116bb576040517f08c379a00000000000000000000000000000000000000000000000000000000081526004016116b290612bda565b60405180910390fd5b6000600360003373ffffffffffffffffffffffffffffffffffffffff1673ffffffffffffffffffffffffffffffffffffffff168152602001908152602001600020805480602002602001604051908101604052809291908181526020016000905b8282101561178557838290600052602060002090600202016040518060400160405290816000820160009054906101000a900460ff16600281111561175d57fe5b600281111561176857fe5b81526020016001820154815250508152602001906001019061171c565b50505050905060008060009054906101000a900473ffffffffffffffffffffffffffffffffffffffff1673ffffffffffffffffffffffffffffffffffffffff166370a08231336040518263ffffffff1660e01b81526004016117e79190612b12565b60206040518083038186803b1580156117ff57600080fd5b505afa158015611813573d6000803e3d6000fd5b505050506040513d601f19601f820116820180604052508101906118379190612511565b905060005b8551811015611c5357600086828151811061185357fe5b6020026020010151905060006008600083604001518152602001908152602001600020604051806080016040529081600082015481526020016001820154815260200160028201548152602001600382015481525050905060006118bb878460200151611e6d565b905060006118cd838560200151611ecf565b9050600160038111156118dc57fe5b846000015160038111156118ec57fe5b1415611964578160011115611936576040517f08c379a000000000000000000000000000000000000000000000000000000000815260040161192d90612c1a565b60405180910390fd5b611947888560200151600180611f31565b975061195d60648761205390919063ffffffff16565b9550611c42565b6000600381111561197157fe5b8460000151600381111561198157fe5b14156119f957808610156119ca576040517f08c379a00000000000000000000000000000000000000000000000000000000081526004016119c190612b9a565b60405180910390fd5b6119de6064876120db90919063ffffffff16565b95506119f288856020015160006001611f31565b9750611c41565b60026003811115611a0657fe5b84600001516003811115611a1657fe5b1415611ac05760008211611a5f576040517f08c379a0000000000000000000000000000000000000000000000000000000008152600401611a5690612bba565b60405180910390fd5b6000604051806040016040528086602001516002811115611a7c57fe5b8152602001866080015181525090508088866060015181518110611a9c57fe5b6020026020010181905250611ab8898660200151600180611f31565b985050611c40565b600380811115611acc57fe5b84600001516003811115611adc57fe5b1415611c3f57600087856060015181518110611af457fe5b6020026020010151905084602001516002811115611b0e57fe5b81600001516002811115611b1e57fe5b14611b5e576040517f08c379a0000000000000000000000000000000000000000000000000000000008152600401611b5590612bfa565b60405180910390fd5b60008160200151420390506000611b7482611cf1565b90506000611b9a604051806060016040528060328152602001612f606032913983611e41565b905060095483118190611be3576040517f08c379a0000000000000000000000000000000000000000000000000000000008152600401611bda9190612b78565b60405180910390fd5b5060006040518060400160405280600280811115611bfd57fe5b815260200160008152509050808c8a6060015181518110611c1a57fe5b6020026020010181905250611c378d8a6020015160006002611f31565b9c5050505050505b5b5b5b50505050808060010191505061183c565b506040518060800160405280848152602001838152602001828152602001868152509350505050919050565b600082841015611c9157829050611ca5565b81841115611ca157819050611ca5565b8390505b9392505050565b60008060026001840181611cbc57fe5b0490508291505b81811015611ceb57809150600281828581611cda57fe5b040181611ce357fe5b049050611cc3565b50919050565b60606000821415611d39576040518060400160405280600181526020017f30000000000000000000000000000000000000000000000000000000000000008152509050611e3c565b600082905060005b60008214611d63578080600101915050600a8281611d5b57fe5b049150611d41565b60008167ffffffffffffffff81118015611d7c57600080fd5b506040519080825280601f01601f191660200182016040528015611daf5781602001600182028036833780820191505090505b50905060008290505b60008614611e34576001810390506000600a808881611dd357fe5b04028703603001905060008160f81b905080848481518110611df157fe5b60200101907effffffffffffffffffffffffffffffffffffffffffffffffffffffffffffff1916908160001a905350600a8881611e2a57fe5b0497505050611db8565b819450505050505b919050565b60608282604051602001611e56929190612aee565b604051602081830303815290604052905092915050565b6000806002811115611e7b57fe5b826002811115611e8757fe5b1415611e995782602001519050611ec9565b60016002811115611ea657fe5b826002811115611eb257fe5b1415611ec45782604001519050611ec9565b600090505b92915050565b6000806002811115611edd57fe5b826002811115611ee957fe5b1415611efb5782600001519050611f2b565b60016002811115611f0857fe5b826002811115611f1457fe5b1415611f265782602001519050611f2b565b600090505b92915050565b611f39612213565b60006002811115611f4657fe5b846002811115611f5257fe5b1415611fc25760006001811115611f6557fe5b836001811115611f7157fe5b1415611f9c57611f8e82866020015161205390919063ffffffff16565b856020018181525050611fbd565b611fb38286602001516120db90919063ffffffff16565b8560200181815250505b612048565b60016002811115611fcf57fe5b846002811115611fdb57fe5b14156120475760006001811115611fee57fe5b836001811115611ffa57fe5b14156120255761201782866040015161205390919063ffffffff16565b856040018181525050612046565b61203c8286604001516120db90919063ffffffff16565b8560400181815250505b5b5b849050949350505050565b6000808284019050838110156120d1576040517f08c379a000000000000000000000000000000000000000000000000000000000815260040180806020018281038252601b8152602001807f536166654d6174683a206164646974696f6e206f766572666c6f77000000000081525060200191505060405180910390fd5b8091505092915050565b600061211d83836040518060400160405280601e81526020017f536166654d6174683a207375627472616374696f6e206f766572666c6f770000815250612125565b905092915050565b60008383111582906121d2576040517f08c379a00000000000000000000000000000000000000000000000000000000081526004018080602001828103825283818151815260200191508051906020019080838360005b8381101561219757808201518184015260208101905061217c565b50505050905090810190601f1680156121c45780820380516001836020036101000a031916815260200191505b509250505060405180910390fd5b5060008385039050809150509392505050565b60405180608001604052806121f8612213565b81526020016060815260200160008152602001606081525090565b604051806060016040528060001515815260200160008152602001600081525090565b6040518060800160405280600081526020016000815260200160008152602001600081525090565b6040518060a001604052806000600381111561227657fe5b81526020016000600281111561228857fe5b81526020016000815260200160008152602001600081525090565b60006122b66122b184612d2e565b612cfd565b905080838252602082019050828560a08602820111156122d557600080fd5b60005b8581101561230557816122eb8882612363565b845260208401935060a083019250506001810190506122d8565b5050509392505050565b600082601f83011261232057600080fd5b81356123308482602086016122a3565b91505092915050565b60008135905061234881612f28565b92915050565b60008135905061235d81612f38565b92915050565b600060a0828403121561237557600080fd5b61237f60a0612cfd565b9050600061238f84828501612339565b60008301525060206123a38482850161234e565b60208301525060406123b7848285016123eb565b60408301525060606123cb848285016123eb565b60608301525060806123df848285016123eb565b60808301525092915050565b6000813590506123fa81612f48565b92915050565b60008151905061240f81612f48565b92915050565b60006020828403121561242757600080fd5b600082013567ffffffffffffffff81111561244157600080fd5b61244d8482850161230f565b91505092915050565b6000806040838503121561246957600080fd5b600083013567ffffffffffffffff81111561248357600080fd5b61248f8582860161230f565b92505060206124a08582860161234e565b9150509250929050565b6000806000606084860312156124bf57600080fd5b600084013567ffffffffffffffff8111156124d957600080fd5b6124e58682870161230f565b93505060206124f68682870161234e565b9250506040612507868287016123eb565b9150509250925092565b60006020828403121561252357600080fd5b600061253184828501612400565b91505092915050565b60006125468383612a39565b60408301905092915050565b600061255e8383612a68565b60a08301905092915050565b61257381612e60565b82525050565b600061258482612d7a565b61258e8185612db5565b935061259983612d5a565b8060005b838110156125ca5781516125b1888261253a565b97506125bc83612d9b565b92505060018101905061259d565b5085935050505092915050565b60006125e282612d7a565b6125ec8185612dc6565b93506125f783612d5a565b8060005b8381101561262857815161260f888261253a565b975061261a83612d9b565b9250506001810190506125fb565b5085935050505092915050565b600061264082612d85565b61264a8185612dd7565b935061265583612d6a565b8060005b8381101561268657815161266d8882612552565b975061267883612da8565b925050600181019050612659565b5085935050505092915050565b61269c81612e04565b82525050565b6126ab81612e72565b82525050565b6126ba81612e84565b82525050565b60006126cb82612d90565b6126d58185612de8565b93506126e5818560208601612eba565b6126ee81612eef565b840191505092915050565b600061270482612d90565b61270e8185612df9565b935061271e818560208601612eba565b80840191505092915050565b6000612737602b83612de8565b91507f496e76616c6964206661726d3a204e6f7420656e6f756768206d6f6e6579207460008301527f6f206275792073656564730000000000000000000000000000000000000000006020830152604082019050919050565b600061279d602783612de8565b91507f496e76616c6964206661726d3a204e6f7420656e6f756768207365656473207460008301527f6f20706c616e74000000000000000000000000000000000000000000000000006020830152604082019050919050565b6000612803601383612de8565b91507f4661726d20646f6573206e6f74206578697374000000000000000000000000006000830152602082019050919050565b6000612843601d83612de8565b91507f496e76616c6964206661726d3a204e6f206672756974206578697374730000006000830152602082019050919050565b6000612883601e83612de8565b91507f496e76616c6964206661726d3a204e6f20736565647320746f2073656c6c00006000830152602082019050919050565b60006128c3601883612de8565b91507f496e76656e746f727920616c72656164792065786973747300000000000000006000830152602082019050919050565b600060c08301600083015161290e6000860182612960565b50602083015184820360608601526129268282612579565b915050604083015161293b6080860182612ad0565b50606083015184820360a08601526129538282612635565b9150508091505092915050565b6060820160008201516129766000850182612693565b5060208201516129896020850182612ad0565b50604082015161299c6040850182612ad0565b50505050565b6060820160008201516129b86000850182612693565b5060208201516129cb6020850182612ad0565b5060408201516129de6040850182612ad0565b50505050565b6080820160008201516129fa6000850182612ad0565b506020820151612a0d6020850182612ad0565b506040820151612a206040850182612ad0565b506060820151612a336060850182612ad0565b50505050565b604082016000820151612a4f60008501826126b1565b506020820151612a626020850182612ad0565b50505050565b60a082016000820151612a7e60008501826126a2565b506020820151612a9160208501826126b1565b506040820151612aa46040850182612ad0565b506060820151612ab76060850182612ad0565b506080820151612aca6080850182612ad0565b50505050565b612ad981612e56565b82525050565b612ae881612e56565b82525050565b6000612afa82856126f9565b9150612b0682846126f9565b91508190509392505050565b6000602082019050612b27600083018461256a565b92915050565b6000604082019050612b42600083018561256a565b612b4f6020830184612adf565b9392505050565b60006020820190508181036000830152612b7081846125d7565b905092915050565b60006020820190508181036000830152612b9281846126c0565b905092915050565b60006020820190508181036000830152612bb38161272a565b9050919050565b60006020820190508181036000830152612bd381612790565b9050919050565b60006020820190508181036000830152612bf3816127f6565b9050919050565b60006020820190508181036000830152612c1381612836565b9050919050565b60006020820190508181036000830152612c3381612876565b9050919050565b60006020820190508181036000830152612c53816128b6565b9050919050565b60006020820190508181036000830152612c7481846128f6565b905092915050565b60006040820190508181036000830152612c9681856128f6565b9050612ca56020830184612adf565b9392505050565b6000606082019050612cc160008301846129a2565b92915050565b6000608082019050612cdc60008301846129e4565b92915050565b6000602082019050612cf76000830184612adf565b92915050565b6000604051905081810181811067ffffffffffffffff82111715612d2457612d23612eed565b5b8060405250919050565b600067ffffffffffffffff821115612d4957612d48612eed565b5b602082029050602081019050919050565b6000819050602082019050919050565b6000819050602082019050919050565b600081519050919050565b600081519050919050565b600081519050919050565b6000602082019050919050565b6000602082019050919050565b600082825260208201905092915050565b600082825260208201905092915050565b600082825260208201905092915050565b600082825260208201905092915050565b600081905092915050565b60008115159050919050565b6000819050612e1e82612f00565b919050565b6000819050612e3182612f14565b919050565b600073ffffffffffffffffffffffffffffffffffffffff82169050919050565b6000819050919050565b6000612e6b82612e96565b9050919050565b6000612e7d82612e10565b9050919050565b6000612e8f82612e23565b9050919050565b6000612ea182612ea8565b9050919050565b6000612eb382612e36565b9050919050565b60005b83811015612ed8578082015181840152602081019050612ebd565b83811115612ee7576000848401525b50505050565bfe5b6000601f19601f8301169050919050565b60048110612f1157612f10612eed565b5b50565b60038110612f2557612f24612eed565b5b50565b60048110612f3557600080fd5b50565b60038110612f4557600080fd5b50565b612f5181612e56565b8114612f5c57600080fd5b5056fe496e76616c6964206661726d3a20546865206672756974206973206e6f7420726970652c20706c6561736520776169743a20a2646970667358221220686ad9553f6502d0502975e683f16aea938fd2c518e0520caa160c90f3b779ab64736f6c63430007060033",
  "immutableReferences": {},
  "source": "pragma solidity >=0.6.0 <0.8.0;\r\npragma experimental ABIEncoderV2;\r\n\r\nimport \"@openzeppelin/contracts/math/Math.sol\";\r\nimport \"./Token.sol\";\r\n\r\ncontract Farm {\r\n    using SafeMath for uint256;\r\n\r\n    //assign Token contract to variable\r\n    Token private token;\r\n    uint NOW_TIMESTAMP = 69;\r\n    //uint DECIMAL_PLACES = 2;\r\n\r\n    struct Square {\r\n        Commodity commodity;\r\n        uint createdAt;\r\n    }\r\n\r\n    struct Inventory {\r\n        bool isInitialized;\r\n        uint apples;\r\n        uint avocados;\r\n    }\r\n\r\n\r\n    mapping(address => Inventory) inventories;\r\n    mapping(address => Square[]) fields;\r\n\r\n    //pass as constructor argument deployed Token contract\r\n    constructor(Token _token) public {\r\n        //assign token deployed contract to variable\r\n        token = _token;\r\n\r\n        // Initial prices\r\n        market[NOW_TIMESTAMP] = Prices({\r\n            apples: 100, \r\n            avocados: 400,\r\n            timestamp: block.timestamp,\r\n            previousTimestamp: 0\r\n        });\r\n    }\r\n\r\n    uint INITIAL_FIELD_COUNT = 9;\r\n\r\n    event FarmCreated(address indexed _address);\r\n    event FarmSynced(address indexed _address);\r\n\r\n    function createFarm() public {\r\n        require(!inventories[msg.sender].isInitialized, \"Inventory already exists\");\r\n\r\n        Inventory storage inventory = inventories[msg.sender];\r\n        inventory.isInitialized = true;\r\n        inventory.apples = 1;\r\n\r\n        // Farm only has 1 block\r\n        Square[] storage land = fields[msg.sender];\r\n        Square memory empty = Square(Commodity.Empty, 0);\r\n        for (uint index = 0; index < INITIAL_FIELD_COUNT; index++) {\r\n            land.push(empty);\r\n        }\r\n\r\n        uint balance = token.balanceOf(msg.sender);\r\n        Transaction[] memory transactions;\r\n\r\n        //Emit an event\r\n        emit FarmCreated(msg.sender);\r\n    }\r\n\r\n    function sqrt(uint x) private returns (uint y) {\r\n        uint z = (x + 1) / 2;\r\n        y = x;\r\n        while (z < y) {\r\n            y = z;\r\n            z = (x / z + z) / 2;\r\n        }\r\n    }\r\n\r\n    function buyMoreSpace(Transaction[] memory _transactions) public {\r\n        Farm memory farm = sync(_transactions);\r\n        Inventory memory inventory = inventories[msg.sender];\r\n        require(inventory.isInitialized, \"Farm does not exist\");\r\n\r\n        Square[] storage land = fields[msg.sender];\r\n        uint newWidth = sqrt(land.length) + 1;\r\n        uint newSize = newWidth * newWidth;\r\n        uint newFields = land.length - newSize;\r\n\r\n        uint price = newFields ^ (newWidth - 3);\r\n\r\n        string memory priceString = uint2str(price);\r\n        string memory message = concatenate(\"Not enough money: \", priceString);\r\n        require(farm.balance >= price, message);\r\n\r\n        Square memory empty = Square(Commodity.Empty, 0);\r\n        // Do not bother rearranging the array - it is already in a strange square!\r\n        for (uint index = 0; index < newFields; index++) {\r\n            land.push(empty);\r\n        }\r\n\r\n\r\n        // TODO - Add the new spots\r\n        token.burn(msg.sender, price);\r\n    }\r\n\r\n    function getInventory() public view returns (Inventory memory) {\r\n        return inventories[msg.sender];\r\n    }\r\n\r\n    function getLand() public view returns (Square[] memory) {\r\n        return fields[msg.sender];\r\n    }\r\n\r\n    enum Action { Buy, Sell, Plant, Harvest }\r\n    uint FRUIT_COUNT = 2;\r\n    enum Commodity { AppleSeed, AvocadoSeed, Empty }\r\n\r\n    struct Transaction { \r\n        Action action;\r\n        Commodity commodity;\r\n        // Unique prices key\r\n        uint timestamp;\r\n        uint landIndex;\r\n        uint createdAt;\r\n    }\r\n\r\n    uint MAX_AVOCADO_PRICE = 500;\r\n    uint MIN_AVOCADO_PRICE = 300;\r\n\r\n    struct Prices {\r\n        uint apples;\r\n        uint avocados;\r\n        uint timestamp;\r\n        uint previousTimestamp;\r\n    }\r\n     \r\n    mapping(uint => Prices) market;\r\n\r\n    struct Farm {\r\n        Inventory inventory;\r\n        Square[] land;\r\n        uint balance;\r\n        Transaction[] transactions;\r\n    }\r\n\r\n    uint APPLE_HARVEST_SECONDS = 6;\r\n\r\n    function getSeedFromInventory(Inventory memory _inventory, Commodity _commodity) private view returns (uint count) {\r\n        if (_commodity == Commodity.AppleSeed) {\r\n            return _inventory.apples;\r\n        } else if (_commodity == Commodity.AvocadoSeed) {\r\n            return _inventory.avocados;\r\n        }\r\n\r\n        return 0;\r\n    }\r\n\r\n    function getFruitPrice(Prices memory prices, Commodity _commodity) private view returns (uint price) {\r\n        if (_commodity == Commodity.AppleSeed) {\r\n            return prices.apples;\r\n        } else if (_commodity == Commodity.AvocadoSeed) {\r\n            return prices.avocados;\r\n        }\r\n\r\n        return 0;\r\n    }\r\n\r\n    enum InventoryAction {\r\n        Add,\r\n        Subtract\r\n    }\r\n\r\n    function updateInventory(Inventory memory _inventory, Commodity _commodity, InventoryAction _action, uint _change) private view returns (Inventory memory) {\r\n        if (_commodity == Commodity.AppleSeed) {\r\n            if (_action == InventoryAction.Add) {\r\n                _inventory.apples = _inventory.apples.add(_change);\r\n            } else {\r\n                _inventory.apples = _inventory.apples.sub(_change);\r\n            }\r\n        } else if (_commodity == Commodity.AvocadoSeed) {\r\n            if (_action == InventoryAction.Add) {\r\n                _inventory.avocados = _inventory.avocados.add(_change);\r\n            } else {\r\n                _inventory.avocados = _inventory.avocados.sub(_change);\r\n            }\r\n        }\r\n\r\n        return _inventory;\r\n    }\r\n\r\n    function concatenate(\r\n        string memory a,\r\n        string memory b)\r\n        internal\r\n        pure\r\n        returns(string memory) {\r\n            return string(abi.encodePacked(a, b));\r\n        }\r\n\r\n    function uint2str(uint _i) internal pure returns (string memory _uintAsString) {\r\n        if (_i == 0) {\r\n            return \"0\";\r\n        }\r\n        uint j = _i;\r\n        uint len;\r\n        while (j != 0) {\r\n            len++;\r\n            j /= 10;\r\n        }\r\n        bytes memory bstr = new bytes(len);\r\n        uint k = len;\r\n        while (_i != 0) {\r\n            k = k-1;\r\n            uint8 temp = (48 + uint8(_i - _i / 10 * 10));\r\n            bytes1 b1 = bytes1(temp);\r\n            bstr[k] = b1;\r\n            _i /= 10;\r\n        }\r\n        return string(bstr);\r\n    }\r\n\r\n    function buildFarm(Transaction[] memory _transactions) private view returns (Farm memory currentFarm) {\r\n        Inventory memory inventory = inventories[msg.sender];\r\n\r\n        require(inventory.isInitialized, \"Farm does not exist\");\r\n\r\n        Square[] memory land = fields[msg.sender];\r\n        uint balance = token.balanceOf(msg.sender);\r\n\r\n        for (uint index = 0; index < _transactions.length; index++) {\r\n            Transaction memory transaction = _transactions[index];\r\n            Prices memory prices = market[transaction.timestamp];\r\n            \r\n            uint seedCount = getSeedFromInventory(inventory, transaction.commodity);\r\n            uint price = getFruitPrice(prices, transaction.commodity);\r\n\r\n            if (transaction.action == Action.Sell) {\r\n                require(1 <= seedCount, \"Invalid farm: No seeds to sell\");\r\n\r\n                inventory = updateInventory(inventory, transaction.commodity, InventoryAction.Subtract, 1);\r\n                // TODO USE REAL PRICES\r\n                balance = balance.add(100);\r\n            } else if (transaction.action == Action.Buy) {\r\n                require(balance >= price, \"Invalid farm: Not enough money to buy seeds\");\r\n\r\n                // TODO USE REAL PRICES\r\n                balance = balance.sub(100);\r\n                inventory = updateInventory(inventory, transaction.commodity, InventoryAction.Add, 1);\r\n            } else if (transaction.action == Action.Plant) {\r\n                require(seedCount > 0, \"Invalid farm: Not enough seeds to plant\");\r\n\r\n\r\n                Square memory plantedSeed = Square({\r\n                    commodity: transaction.commodity,\r\n                    // TODO - When they sync the farm, this will be at the time of the farm :(\r\n                    createdAt: transaction.createdAt\r\n                });\r\n                land[transaction.landIndex] = plantedSeed;\r\n                inventory = updateInventory(inventory, transaction.commodity, InventoryAction.Subtract, 1);\r\n            } else if (transaction.action == Action.Harvest) {\r\n                Square memory square = land[transaction.landIndex];\r\n                require(square.commodity == transaction.commodity, \"Invalid farm: No fruit exists\");\r\n\r\n                uint duration = block.timestamp - square.createdAt;\r\n                string memory durationString = uint2str(duration);\r\n                string memory message = concatenate(\"Invalid farm: The fruit is not ripe, please wait: \", durationString);\r\n                // TODO - normal times\r\n                require(duration > APPLE_HARVEST_SECONDS, message);\r\n\r\n                // Clear the land\r\n                Square memory emptyLand = Square(Commodity.Empty, 0);\r\n                land[transaction.landIndex] = emptyLand;\r\n                inventory = updateInventory(inventory, transaction.commodity, InventoryAction.Add, 2);\r\n            }\r\n        }\r\n\r\n        return Farm({\r\n            inventory: inventory,\r\n            land: land,\r\n            balance: balance,\r\n            transactions: _transactions\r\n        });\r\n    }\r\n\r\n    function clamp(uint value, uint minimum, uint maximum) private pure returns (uint clamped) {\r\n        if (value < minimum) {\r\n            return minimum;\r\n        }\r\n\r\n        if (value > maximum) {\r\n            return maximum;\r\n        }\r\n\r\n        return value;\r\n    }\r\n\r\n    // Assume the proportional number of transactions is what influences price\r\n    // Since at the time of transaction, they will likely be buying something and have sold all their seeds\r\n    function moveTheMarket(Transaction[] memory _transactions) public {\r\n        uint apples = 0;\r\n        uint avocados = 0;\r\n\r\n        // What is the biggest mover?\r\n        for (uint i=0; i < _transactions.length; i += 1) {\r\n            if (_transactions[i].commodity == Commodity.AppleSeed) {\r\n                apples += 1;\r\n            } else if ( _transactions[i].commodity == Commodity.AvocadoSeed) {\r\n                avocados += 1;\r\n            }\r\n        }\r\n\r\n        uint totalFruitTransactions = apples + avocados;\r\n\r\n        if (totalFruitTransactions == 0) {\r\n            // TODO still update the timestamps being used\r\n            return;\r\n        }\r\n\r\n        // Percentage of transactions that were apples\r\n        uint applePercentage = 0;\r\n        if (apples > 0) {\r\n            applePercentage = totalFruitTransactions * 100;\r\n        } \r\n        uint avocadoPercentage = 0;\r\n        if (avocados > 0) {\r\n            // 35%\r\n            avocadoPercentage = avocados / totalFruitTransactions * 100;\r\n        } \r\n\r\n        // 30%\r\n        uint expectedTransactions = 100 / FRUIT_COUNT;\r\n\r\n        // 5% \r\n        int avocadoChange = int(avocadoPercentage) - int(expectedTransactions);\r\n\r\n\r\n        //TODO even out the price from the previous hour - store transactions in the last hour?\r\n        int transactionCount = 1;\r\n        uint tenMinutesAgo = block.timestamp - (60 * 10);\r\n        Prices memory prices = market[NOW_TIMESTAMP];\r\n        while (prices.timestamp > tenMinutesAgo) {\r\n            transactionCount++;\r\n            \r\n            // Endless loop if we do not have this???\r\n            if (transactionCount >= 2) {\r\n                break;\r\n            }\r\n\r\n            // Back to the beginining\r\n            if (prices.previousTimestamp == 0) {\r\n                break;\r\n            }\r\n\r\n            prices = market[prices.previousTimestamp];\r\n        }\r\n\r\n        Prices memory currentPrices = market[NOW_TIMESTAMP];\r\n\r\n        // To avoid major market shifts, divide it\r\n        int MARKET_IMPACT = 10;\r\n        // 5% / 3 Transactions = 1.8%\r\n        int relativeAvocadoChange = avocadoChange / transactionCount / MARKET_IMPACT;\r\n        // 98.2% - we want to decrease it a little.\r\n        int percentage = 100 - relativeAvocadoChange;\r\n        // $5.23\r\n        uint avocadoPrice = currentPrices.avocados * uint(percentage) / 100;\r\n        // $5\r\n        uint clampedAvocadoPrice = clamp(avocadoPrice, MIN_AVOCADO_PRICE, MAX_AVOCADO_PRICE);\r\n\r\n        market[currentPrices.timestamp] = currentPrices;\r\n        market[NOW_TIMESTAMP] = Prices({\r\n            // Staple crop\r\n            apples: 100,\r\n            avocados: clampedAvocadoPrice,\r\n            timestamp: block.timestamp,\r\n            previousTimestamp: currentPrices.timestamp\r\n        });\r\n    }\r\n\r\n    function sync(Transaction[] memory _transactions) public returns (Farm memory) {\r\n        uint balance = token.balanceOf(msg.sender);\r\n        Farm memory farm = buildFarm(_transactions);\r\n\r\n        // Update the inventory\r\n        Inventory storage oldInventory = inventories[msg.sender];\r\n        oldInventory.apples = farm.inventory.apples;\r\n\r\n        // Update the land\r\n        Square[] storage land = fields[msg.sender];\r\n        for (uint i=0; i < farm.land.length; i += 1) {\r\n            land[i] = farm.land[i];\r\n        }\r\n\r\n\r\n        // Update the balance - mint or burn\r\n        if (farm.balance > balance) {\r\n            uint profit = farm.balance - balance;\r\n            token.mint(msg.sender, profit);\r\n        } else if (farm.balance < balance) {\r\n            uint loss = balance - farm.balance;\r\n            token.burn(msg.sender, loss);\r\n        }\r\n\r\n        moveTheMarket(_transactions);\r\n        emit FarmSynced(msg.sender);\r\n        return farm;\r\n    }\r\n\r\n    function getBalance() public view returns (uint balance) {\r\n        return token.balanceOf(msg.sender);\r\n    }\r\n\r\n    function addTransaction(Transaction[] memory _transactions, Transaction memory _transaction) private view returns (Transaction[] memory) {\r\n        Transaction[] memory newTransactions = new Transaction[](_transactions.length + 1);\r\n        for (uint i=0; i < _transactions.length; i += 1) {\r\n            newTransactions[i] = _transactions[i];\r\n        }\r\n\r\n        // Add the new transaction\r\n        newTransactions[_transactions.length] = _transaction;\r\n\r\n        return newTransactions;\r\n    }\r\n\r\n    function buy(Transaction[] memory _transactions, Commodity _commodity) public view returns (Farm memory farm, uint price) {\r\n        Prices memory currentPrices = market[NOW_TIMESTAMP];\r\n        Transaction memory buyAppleTransaction = Transaction({\r\n            action: Action.Buy,\r\n            commodity: _commodity,\r\n            timestamp: currentPrices.timestamp,\r\n            landIndex: 0,\r\n            createdAt: block.timestamp\r\n        });\r\n        Transaction[] memory newTransactions = addTransaction(_transactions, buyAppleTransaction);\r\n\r\n\r\n        Farm memory updatedFarm = buildFarm(newTransactions);\r\n        return (updatedFarm,currentPrices.apples);\r\n    }\r\n\r\n    function sell(Transaction[] memory _transactions, Commodity _commodity) public view returns (Farm memory farm, uint price) {\r\n        Prices memory currentPrices = market[NOW_TIMESTAMP];\r\n        Transaction memory sellAppleTransaction = Transaction({\r\n            action: Action.Sell,\r\n            commodity: _commodity,\r\n            timestamp: currentPrices.timestamp,\r\n            landIndex: 0,\r\n            createdAt: block.timestamp\r\n        });\r\n        Transaction[] memory newTransactions = addTransaction(_transactions, sellAppleTransaction);\r\n\r\n\r\n        Farm memory updatedFarm = buildFarm(newTransactions);\r\n        return (updatedFarm, currentPrices.apples);\r\n    }\r\n\r\n    function plant(Transaction[] memory _transactions, Commodity _commodity, uint landIndex) public view returns (Farm memory farm) {\r\n        Prices memory currentPrices = market[NOW_TIMESTAMP];\r\n        Transaction memory plantAppleTransaction = Transaction({\r\n            action: Action.Plant,\r\n            commodity: _commodity,\r\n            timestamp: currentPrices.timestamp,\r\n            landIndex: landIndex,\r\n            createdAt: block.timestamp\r\n        });\r\n        Transaction[] memory newTransactions = addTransaction(_transactions, plantAppleTransaction);\r\n\r\n        Farm memory updatedFarm = buildFarm(newTransactions);\r\n        return (updatedFarm);\r\n    }\r\n\r\n    function harvest(Transaction[] memory _transactions, Commodity _commodity, uint landIndex) public view returns (Farm memory farm) {\r\n        // Add the new transaction\r\n        Prices memory currentPrices = market[NOW_TIMESTAMP];\r\n        Transaction memory plantAppleTransaction = Transaction({\r\n            action: Action.Harvest,\r\n            commodity: _commodity,\r\n            timestamp: currentPrices.timestamp,\r\n            landIndex: landIndex,\r\n            createdAt: block.timestamp\r\n        });\r\n        Transaction[] memory newTransactions = addTransaction(_transactions, plantAppleTransaction);\r\n\r\n        Farm memory updatedFarm = buildFarm(newTransactions);\r\n        return (updatedFarm);\r\n    }\r\n\r\n    function getPrices() public view returns (Prices memory price) {\r\n        return market[NOW_TIMESTAMP];\r\n    }\r\n\r\n    function getApplePrice() public view returns (uint price) {\r\n        return market[NOW_TIMESTAMP].apples;\r\n    }\r\n\r\n    function getAvocadoPrice() public view returns (uint price) {\r\n        return market[NOW_TIMESTAMP].avocados;\r\n    }\r\n}\r\n",
  "sourcePath": "/Users/adamhannigan/Documents/workspace/fruit-market/src/contracts/Farm.sol",
  "compiler": {
    "name": "solc",
    "version": "0.7.6+commit.7338295f.Emscripten.clang"
  },
  "schemaVersion": "3.3.3",
  "updatedAt": "2021-05-17T08:56:38.696Z",
  "devdoc": {
    "kind": "dev",
    "methods": {},
    "version": 1
  },
  "userdoc": {
    "kind": "user",
    "methods": {},
    "version": 1
  }
}