{
  "contractName": "Farm",
  "abi": [
    {
      "inputs": [
        {
          "internalType": "contract Token",
          "name": "_token",
          "type": "address"
        }
      ],
      "stateMutability": "nonpayable",
      "type": "constructor"
    },
    {
      "anonymous": false,
      "inputs": [
        {
          "indexed": true,
          "internalType": "address",
          "name": "_address",
          "type": "address"
        }
      ],
      "name": "FarmCreated",
      "type": "event"
    },
    {
      "anonymous": false,
      "inputs": [
        {
          "indexed": true,
          "internalType": "address",
          "name": "_address",
          "type": "address"
        }
      ],
      "name": "FarmSynced",
      "type": "event"
    },
    {
      "inputs": [],
      "name": "createFarm",
      "outputs": [],
      "stateMutability": "nonpayable",
      "type": "function"
    },
    {
      "inputs": [],
      "name": "getLand",
      "outputs": [
        {
          "components": [
            {
              "internalType": "enum Farm.Fruit",
              "name": "fruit",
              "type": "uint8"
            },
            {
              "internalType": "uint256",
              "name": "createdAt",
              "type": "uint256"
            }
          ],
          "internalType": "struct Farm.Square[]",
          "name": "",
          "type": "tuple[]"
        }
      ],
      "stateMutability": "view",
      "type": "function"
    },
    {
      "inputs": [
        {
          "components": [
            {
              "internalType": "enum Farm.Action",
              "name": "action",
              "type": "uint8"
            },
            {
              "internalType": "enum Farm.Fruit",
              "name": "fruit",
              "type": "uint8"
            },
            {
              "internalType": "uint256",
              "name": "landIndex",
              "type": "uint256"
            },
            {
              "internalType": "uint256",
              "name": "createdAt",
              "type": "uint256"
            }
          ],
          "internalType": "struct Farm.Event[]",
          "name": "_events",
          "type": "tuple[]"
        }
      ],
      "name": "buildFarm",
      "outputs": [
        {
          "components": [
            {
              "components": [
                {
                  "internalType": "enum Farm.Fruit",
                  "name": "fruit",
                  "type": "uint8"
                },
                {
                  "internalType": "uint256",
                  "name": "createdAt",
                  "type": "uint256"
                }
              ],
              "internalType": "struct Farm.Square[]",
              "name": "land",
              "type": "tuple[]"
            },
            {
              "internalType": "uint256",
              "name": "balance",
              "type": "uint256"
            }
          ],
          "internalType": "struct Farm.Farm",
          "name": "currentFarm",
          "type": "tuple"
        }
      ],
      "stateMutability": "view",
      "type": "function"
    },
    {
      "inputs": [
        {
          "components": [
            {
              "internalType": "enum Farm.Action",
              "name": "action",
              "type": "uint8"
            },
            {
              "internalType": "enum Farm.Fruit",
              "name": "fruit",
              "type": "uint8"
            },
            {
              "internalType": "uint256",
              "name": "landIndex",
              "type": "uint256"
            },
            {
              "internalType": "uint256",
              "name": "createdAt",
              "type": "uint256"
            }
          ],
          "internalType": "struct Farm.Event[]",
          "name": "_events",
          "type": "tuple[]"
        }
      ],
      "name": "sync",
      "outputs": [
        {
          "components": [
            {
              "components": [
                {
                  "internalType": "enum Farm.Fruit",
                  "name": "fruit",
                  "type": "uint8"
                },
                {
                  "internalType": "uint256",
                  "name": "createdAt",
                  "type": "uint256"
                }
              ],
              "internalType": "struct Farm.Square[]",
              "name": "land",
              "type": "tuple[]"
            },
            {
              "internalType": "uint256",
              "name": "balance",
              "type": "uint256"
            }
          ],
          "internalType": "struct Farm.Farm",
          "name": "",
          "type": "tuple"
        }
      ],
      "stateMutability": "nonpayable",
      "type": "function"
    },
    {
      "inputs": [],
      "name": "levelUp",
      "outputs": [],
      "stateMutability": "nonpayable",
      "type": "function"
    },
    {
      "inputs": [
        {
          "internalType": "uint256",
          "name": "price",
          "type": "uint256"
        }
      ],
      "name": "getMarketPrice",
      "outputs": [
        {
          "internalType": "uint256",
          "name": "conversion",
          "type": "uint256"
        }
      ],
      "stateMutability": "view",
      "type": "function"
    }
  ],
  "bytecode": "0x60806040526107086003553480156200001757600080fd5b5060405162002e8a38038062002e8a83398181016040528101906200003d91906200009b565b806000806101000a81548173ffffffffffffffffffffffffffffffffffffffff021916908373ffffffffffffffffffffffffffffffffffffffff1602179055505062000129565b60008151905062000095816200010f565b92915050565b600060208284031215620000ae57600080fd5b6000620000be8482850162000084565b91505092915050565b6000620000d482620000ef565b9050919050565b6000620000e882620000c7565b9050919050565b600073ffffffffffffffffffffffffffffffffffffffff82169050919050565b6200011a81620000db565b81146200012657600080fd5b50565b612d5180620001396000396000f3fe608060405234801561001057600080fd5b50600436106100625760003560e01c80631d5ec3cb146100675780634ea1ecf9146100715780635690314c1461007b57806377577840146100995780638928378e146100c9578063d53f9c9b146100f9575b600080fd5b61006f610129565b005b6100796104a4565b005b61008361097f565b6040516100909190612965565b60405180910390f35b6100b360048036038101906100ae91906123b1565b610a52565b6040516100c09190612b07565b60405180910390f35b6100e360048036038101906100de91906123f2565b611099565b6040516100f09190612b29565b60405180910390f35b610113600480360381019061010e91906123b1565b6110c1565b6040516101209190612b07565b60405180910390f35b6000600260003373ffffffffffffffffffffffffffffffffffffffff1673ffffffffffffffffffffffffffffffffffffffff16815260200190815260200160002054146101ab576040517f08c379a00000000000000000000000000000000000000000000000000000000081526004016101a2906129a7565b60405180910390fd5b6000600160003373ffffffffffffffffffffffffffffffffffffffff1673ffffffffffffffffffffffffffffffffffffffff1681526020019081526020016000209050600060405180604001604052806000600781111561020857fe5b8152602001428152509050600060405180604001604052806001600781111561022d57fe5b81526020014281525090508282908060018154018082558091505060019003906000526020600020906002020160009091909190915060008201518160000160006101000a81548160ff0219169083600781111561028757fe5b02179055506020820151816001015550508281908060018154018082558091505060019003906000526020600020906002020160009091909190915060008201518160000160006101000a81548160ff021916908360078111156102e757fe5b02179055506020820151816001015550508281908060018154018082558091505060019003906000526020600020906002020160009091909190915060008201518160000160006101000a81548160ff0219169083600781111561034757fe5b02179055506020820151816001015550508281908060018154018082558091505060019003906000526020600020906002020160009091909190915060008201518160000160006101000a81548160ff021916908360078111156103a757fe5b02179055506020820151816001015550508282908060018154018082558091505060019003906000526020600020906002020160009091909190915060008201518160000160006101000a81548160ff0219169083600781111561040757fe5b021790555060208201518160010155505042600260003373ffffffffffffffffffffffffffffffffffffffff1673ffffffffffffffffffffffffffffffffffffffff168152602001908152602001600020819055503373ffffffffffffffffffffffffffffffffffffffff167f46963f16723a084f2199eb74021bd97647aa6c8960612a9a031ce509d40d4ca760405160405180910390a2505050565b60006104ae611498565b116104ee576040517f08c379a00000000000000000000000000000000000000000000000000000000081526004016104e590612ae7565b60405180910390fd5b6011600160003373ffffffffffffffffffffffffffffffffffffffff1673ffffffffffffffffffffffffffffffffffffffff168152602001908152602001600020805490501115610574576040517f08c379a000000000000000000000000000000000000000000000000000000000815260040161056b90612a07565b60405180910390fd5b3373ffffffffffffffffffffffffffffffffffffffff167fbe35fe23c13a419d565edccb8c8bdedc160c5b9a82873e431b545080d6f3c68860405160405180910390a26000600160003373ffffffffffffffffffffffffffffffffffffffff1673ffffffffffffffffffffffffffffffffffffffff1681526020019081526020016000209050600061060982805490506114df565b9050600061061682611099565b905060008060009054906101000a900473ffffffffffffffffffffffffffffffffffffffff1673ffffffffffffffffffffffffffffffffffffffff166370a08231336040518263ffffffff1660e01b815260040161067491906128f8565b60206040518083038186803b15801561068c57600080fd5b505afa1580156106a0573d6000803e3d6000fd5b505050506040513d601f19601f820116820180604052508101906106c4919061241b565b905081811015610709576040517f08c379a000000000000000000000000000000000000000000000000000000000815260040161070090612987565b60405180910390fd5b600060405180604001604052806000600781111561072357fe5b815260200142815250905060005b60038110156107a7578582908060018154018082558091505060019003906000526020600020906002020160009091909190915060008201518160000160006101000a81548160ff0219169083600781111561078957fe5b02179055506020820151816001015550508080600101915050610731565b5060008054906101000a900473ffffffffffffffffffffffffffffffffffffffff1673ffffffffffffffffffffffffffffffffffffffff16639dc29fac33856040518363ffffffff1660e01b8152600401610803929190612913565b600060405180830381600087803b15801561081d57600080fd5b505af1158015610831573d6000803e3d6000fd5b50505050600061084b6001856115da90919063ffffffff16565b905060008054906101000a900473ffffffffffffffffffffffffffffffffffffffff1673ffffffffffffffffffffffffffffffffffffffff166340c10f1960008054906101000a900473ffffffffffffffffffffffffffffffffffffffff1673ffffffffffffffffffffffffffffffffffffffff1663893d20e86040518163ffffffff1660e01b815260040160206040518083038186803b1580156108ef57600080fd5b505afa158015610903573d6000803e3d6000fd5b505050506040513d601f19601f820116820180604052508101906109279190612388565b836040518363ffffffff1660e01b815260040161094592919061293c565b600060405180830381600087803b15801561095f57600080fd5b505af1158015610973573d6000803e3d6000fd5b50505050505050505050565b6060600160003373ffffffffffffffffffffffffffffffffffffffff1673ffffffffffffffffffffffffffffffffffffffff168152602001908152602001600020805480602002602001604051908101604052809291908181526020016000905b82821015610a4957838290600052602060002090600202016040518060400160405290816000820160009054906101000a900460ff166007811115610a2157fe5b6007811115610a2c57fe5b8152602001600182015481525050815260200190600101906109e0565b50505050905090565b610a5a6121e6565b6000610a64611498565b11610aa4576040517f08c379a0000000000000000000000000000000000000000000000000000000008152600401610a9b90612ae7565b60405180910390fd5b6000600160003373ffffffffffffffffffffffffffffffffffffffff1673ffffffffffffffffffffffffffffffffffffffff168152602001908152602001600020805480602002602001604051908101604052809291908181526020016000905b82821015610b6e57838290600052602060002090600202016040518060400160405290816000820160009054906101000a900460ff166007811115610b4657fe5b6007811115610b5157fe5b815260200160018201548152505081526020019060010190610b05565b50505050905060008060009054906101000a900473ffffffffffffffffffffffffffffffffffffffff1673ffffffffffffffffffffffffffffffffffffffff166370a08231336040518263ffffffff1660e01b8152600401610bd091906128f8565b60206040518083038186803b158015610be857600080fd5b505afa158015610bfc573d6000803e3d6000fd5b505050506040513d601f19601f82011682018060405250810190610c20919061241b565b905060005b845181101561107a576000858281518110610c3c57fe5b602002602001015190506000610c5d6003544261162490919063ffffffff16565b90508082606001511015610ca6576040517f08c379a0000000000000000000000000000000000000000000000000000000008152600401610c9d90612a67565b60405180910390fd5b610cae611498565b82606001511015610cf4576040517f08c379a0000000000000000000000000000000000000000000000000000000008152600401610ceb906129c7565b60405180910390fd5b4282606001511115610d3b576040517f08c379a0000000000000000000000000000000000000000000000000000000008152600401610d3290612a27565b60405180910390fd5b6000831115610da657866001840381518110610d5357fe5b60200260200101516060015182606001511015610da5576040517f08c379a0000000000000000000000000000000000000000000000000000000008152600401610d9c90612a47565b60405180910390fd5b5b60006001811115610db357fe5b82600001516001811115610dc357fe5b1415610edf57610dd6826020015161166e565b85511015610e19576040517f08c379a0000000000000000000000000000000000000000000000000000000008152600401610e1090612aa7565b60405180910390fd5b6000610e2883602001516117c4565b90506000610e3582611099565b905080861015610e7a576040517f08c379a0000000000000000000000000000000000000000000000000000000008152600401610e7190612987565b60405180910390fd5b610e8d818761162490919063ffffffff16565b95506000604051806040016040528086602001516007811115610eac57fe5b8152602001866060015181525090508088866040015181518110610ecc57fe5b602002602001018190525050505061106b565b600180811115610eeb57fe5b82600001516001811115610efb57fe5b141561106a57600085836040015181518110610f1357fe5b6020026020010151905060006007811115610f2a57fe5b81600001516007811115610f3a57fe5b1415610f7b576040517f08c379a0000000000000000000000000000000000000000000000000000000008152600401610f7290612ac7565b60405180910390fd5b6000610f988260200151856060015161162490919063ffffffff16565b90506000610fa98360000151611a1c565b905080821015610fee576040517f08c379a0000000000000000000000000000000000000000000000000000000008152600401610fe590612a87565b60405180910390fd5b600060405180604001604052806000600781111561100857fe5b815260200160008152509050808987604001518151811061102557fe5b6020026020010181905250600061103f8560000151611b83565b9050600061104c82611099565b9050611061818b611de990919063ffffffff16565b99505050505050505b5b50508080600101915050610c25565b5060405180604001604052808381526020018281525092505050919050565b6000806110a4611e71565b90506110b981846115da90919063ffffffff16565b915050919050565b6110c96121e6565b60006110d3611498565b11611113576040517f08c379a000000000000000000000000000000000000000000000000000000000815260040161110a90612ae7565b60405180910390fd5b600061111e83610a52565b90506000600160003373ffffffffffffffffffffffffffffffffffffffff1673ffffffffffffffffffffffffffffffffffffffff168152602001908152602001600020905060005b8260000151518110156111e6578260000151818151811061118357fe5b602002602001015182828154811061119757fe5b906000526020600020906002020160008201518160000160006101000a81548160ff021916908360078111156111c957fe5b021790555060208201518160010155905050600181019050611166565b5042600260003373ffffffffffffffffffffffffffffffffffffffff1673ffffffffffffffffffffffffffffffffffffffff168152602001908152602001600020819055503373ffffffffffffffffffffffffffffffffffffffff167fbe35fe23c13a419d565edccb8c8bdedc160c5b9a82873e431b545080d6f3c68860405160405180910390a260008060009054906101000a900473ffffffffffffffffffffffffffffffffffffffff1673ffffffffffffffffffffffffffffffffffffffff166370a08231336040518263ffffffff1660e01b81526004016112ca91906128f8565b60206040518083038186803b1580156112e257600080fd5b505afa1580156112f6573d6000803e3d6000fd5b505050506040513d601f19601f8201168201806040525081019061131a919061241b565b905080836020015111156113d657600061134182856020015161162490919063ffffffff16565b905060008054906101000a900473ffffffffffffffffffffffffffffffffffffffff1673ffffffffffffffffffffffffffffffffffffffff166340c10f1933836040518363ffffffff1660e01b815260040161139e929190612913565b600060405180830381600087803b1580156113b857600080fd5b505af11580156113cc573d6000803e3d6000fd5b505050505061148d565b808360200151101561148c5760006113fb84602001518361162490919063ffffffff16565b905060008054906101000a900473ffffffffffffffffffffffffffffffffffffffff1673ffffffffffffffffffffffffffffffffffffffff16639dc29fac33836040518363ffffffff1660e01b8152600401611458929190612913565b600060405180830381600087803b15801561147257600080fd5b505af1158015611486573d6000803e3d6000fd5b50505050505b5b829350505050919050565b6000600260003373ffffffffffffffffffffffffffffffffffffffff1673ffffffffffffffffffffffffffffffffffffffff16815260200190815260200160002054905090565b60008060008054906101000a900473ffffffffffffffffffffffffffffffffffffffff1673ffffffffffffffffffffffffffffffffffffffff1663313ce5676040518163ffffffff1660e01b815260040160206040518083038186803b15801561154857600080fd5b505afa15801561155c573d6000803e3d6000fd5b505050506040513d601f19601f820116820180604052508101906115809190612444565b60ff1690506005831161159c5780600a0a6001029150506115d5565b600883116115b35780600a0a600a029150506115d5565b600b83116115ca5780600a0a6032029150506115d5565b80600a0a60fa029150505b919050565b600061161c83836040518060400160405280601a81526020017f536166654d6174683a206469766973696f6e206279207a65726f000000000000815250612060565b905092915050565b600061166683836040518060400160405280601e81526020017f536166654d6174683a207375627472616374696f6e206f766572666c6f770000815250612126565b905092915050565b60006001600781111561167d57fe5b82600781111561168957fe5b14806116ab57506002600781111561169d57fe5b8260078111156116a957fe5b145b156116b957600590506117bf565b600360078111156116c657fe5b8260078111156116d257fe5b14806116f45750600460078111156116e657fe5b8260078111156116f257fe5b145b1561170257600890506117bf565b6005600781111561170f57fe5b82600781111561171b57fe5b141561172a57600b90506117bf565b6006600781111561173757fe5b82600781111561174357fe5b141561175257600e90506117bf565b60078081111561175e57fe5b82600781111561176a57fe5b141561177957601190506117bf565b60006117ba576040517f08c379a00000000000000000000000000000000000000000000000000000000081526004016117b1906129e7565b60405180910390fd5b606390505b919050565b60008060008054906101000a900473ffffffffffffffffffffffffffffffffffffffff1673ffffffffffffffffffffffffffffffffffffffff1663313ce5676040518163ffffffff1660e01b815260040160206040518083038186803b15801561182d57600080fd5b505afa158015611841573d6000803e3d6000fd5b505050506040513d601f19601f820116820180604052508101906118659190612444565b60ff1690506001600781111561187757fe5b83600781111561188357fe5b14156118a257606481600a0a6001028161189957fe5b04915050611a17565b600260078111156118af57fe5b8360078111156118bb57fe5b14156118da57606481600a0a600602816118d157fe5b04915050611a17565b600360078111156118e757fe5b8360078111156118f357fe5b141561191257606481600a0a6014028161190957fe5b04915050611a17565b6004600781111561191f57fe5b83600781111561192b57fe5b14156119405780600a0a600102915050611a17565b6005600781111561194d57fe5b83600781111561195957fe5b141561196e5780600a0a600202915050611a17565b6006600781111561197b57fe5b83600781111561198757fe5b141561199c5780600a0a600a02915050611a17565b6007808111156119a857fe5b8360078111156119b457fe5b14156119c95780600a0a60c802915050611a17565b6000611a0a576040517f08c379a0000000000000000000000000000000000000000000000000000000008152600401611a01906129e7565b60405180910390fd5b80600a0a620186a0029150505b919050565b600060016007811115611a2b57fe5b826007811115611a3757fe5b1415611a465760019050611b7e565b60026007811115611a5357fe5b826007811115611a5f57fe5b1415611a6e5760039050611b7e565b60036007811115611a7b57fe5b826007811115611a8757fe5b1415611a965760089050611b7e565b60046007811115611aa357fe5b826007811115611aaf57fe5b1415611abe5760189050611b7e565b60056007811115611acb57fe5b826007811115611ad757fe5b1415611ae65760489050611b7e565b60066007811115611af357fe5b826007811115611aff57fe5b1415611b0e5760a89050611b7e565b600780811115611b1a57fe5b826007811115611b2657fe5b1415611b36576102a09050611b7e565b6000611b77576040517f08c379a0000000000000000000000000000000000000000000000000000000008152600401611b6e906129e7565b60405180910390fd5b6298967f90505b919050565b60008060008054906101000a900473ffffffffffffffffffffffffffffffffffffffff1673ffffffffffffffffffffffffffffffffffffffff1663313ce5676040518163ffffffff1660e01b815260040160206040518083038186803b158015611bec57600080fd5b505afa158015611c00573d6000803e3d6000fd5b505050506040513d601f19601f82011682018060405250810190611c249190612444565b60ff16905060016007811115611c3657fe5b836007811115611c4257fe5b1415611c6157606481600a0a60020281611c5857fe5b04915050611de4565b60026007811115611c6e57fe5b836007811115611c7a57fe5b1415611c9957606481600a0a600c0281611c9057fe5b04915050611de4565b60036007811115611ca657fe5b836007811115611cb257fe5b1415611cd157606481600a0a60380281611cc857fe5b04915050611de4565b60046007811115611cde57fe5b836007811115611cea57fe5b1415611d0957606481600a0a60e60281611d0057fe5b04915050611de4565b60056007811115611d1657fe5b836007811115611d2257fe5b1415611d4257606481600a0a6102800281611d3957fe5b04915050611de4565b60066007811115611d4f57fe5b836007811115611d5b57fe5b1415611d705780600a0a601402915050611de4565b600780811115611d7c57fe5b836007811115611d8857fe5b1415611d9d5780600a0a60fa02915050611de4565b6000611dde576040517f08c379a0000000000000000000000000000000000000000000000000000000008152600401611dd5906129e7565b60405180910390fd5b60009150505b919050565b600080828401905083811015611e67576040517f08c379a000000000000000000000000000000000000000000000000000000000815260040180806020018281038252601b8152602001807f536166654d6174683a206164646974696f6e206f766572666c6f77000000000081525060200191505060405180910390fd5b8091505092915050565b60008060008054906101000a900473ffffffffffffffffffffffffffffffffffffffff1673ffffffffffffffffffffffffffffffffffffffff1663313ce5676040518163ffffffff1660e01b815260040160206040518083038186803b158015611eda57600080fd5b505afa158015611eee573d6000803e3d6000fd5b505050506040513d601f19601f82011682018060405250810190611f129190612444565b60ff16905060008060009054906101000a900473ffffffffffffffffffffffffffffffffffffffff1673ffffffffffffffffffffffffffffffffffffffff166318160ddd6040518163ffffffff1660e01b815260040160206040518083038186803b158015611f8057600080fd5b505afa158015611f94573d6000803e3d6000fd5b505050506040513d601f19601f82011682018060405250810190611fb8919061241b565b905081600a0a61271002811015611fd45760019250505061205d565b81600a0a620186a002811015611fef57600a9250505061205d565b81600a0a620f42400281101561200a5760649250505061205d565b81600a0a6298968002811015612026576103e89250505061205d565b81600a0a6305f5e10002811015612043576127109250505061205d565b612058612710826115da90919063ffffffff16565b925050505b90565b6000808311829061210c576040517f08c379a00000000000000000000000000000000000000000000000000000000081526004018080602001828103825283818151815260200191508051906020019080838360005b838110156120d15780820151818401526020810190506120b6565b50505050905090810190601f1680156120fe5780820380516001836020036101000a031916815260200191505b509250505060405180910390fd5b50600083858161211857fe5b049050809150509392505050565b60008383111582906121d3576040517f08c379a00000000000000000000000000000000000000000000000000000000081526004018080602001828103825283818151815260200191508051906020019080838360005b8381101561219857808201518184015260208101905061217d565b50505050905090810190601f1680156121c55780820380516001836020036101000a031916815260200191505b509250505060405180910390fd5b5060008385039050809150509392505050565b604051806040016040528060608152602001600081525090565b600061221361220e84612b75565b612b44565b9050808382526020820190508285608086028201111561223257600080fd5b60005b85811015612262578161224888826122d5565b845260208401935060808301925050600181019050612235565b5050509392505050565b60008151905061227b81612cb6565b92915050565b600082601f83011261229257600080fd5b81356122a2848260208601612200565b91505092915050565b6000813590506122ba81612ccd565b92915050565b6000813590506122cf81612cdd565b92915050565b6000608082840312156122e757600080fd5b6122f16080612b44565b90506000612301848285016122ab565b6000830152506020612315848285016122c0565b602083015250604061232984828501612349565b604083015250606061233d84828501612349565b60608301525092915050565b60008135905061235881612ced565b92915050565b60008151905061236d81612ced565b92915050565b60008151905061238281612d04565b92915050565b60006020828403121561239a57600080fd5b60006123a88482850161226c565b91505092915050565b6000602082840312156123c357600080fd5b600082013567ffffffffffffffff8111156123dd57600080fd5b6123e984828501612281565b91505092915050565b60006020828403121561240457600080fd5b600061241284828501612349565b91505092915050565b60006020828403121561242d57600080fd5b600061243b8482850161235e565b91505092915050565b60006020828403121561245657600080fd5b600061246484828501612373565b91505092915050565b600061247983836128ab565b60408301905092915050565b61248e81612c58565b82525050565b61249d81612bfc565b82525050565b60006124ae82612bb1565b6124b88185612bc9565b93506124c383612ba1565b8060005b838110156124f45781516124db888261246d565b97506124e683612bbc565b9250506001810190506124c7565b5085935050505092915050565b600061250c82612bb1565b6125168185612bda565b935061252183612ba1565b8060005b83811015612552578151612539888261246d565b975061254483612bbc565b925050600181019050612525565b5085935050505092915050565b61256881612c6a565b82525050565b600061257b601283612beb565b91507f494e53554646494349454e545f46554e445300000000000000000000000000006000830152602082019050919050565b60006125bb600b83612beb565b91507f4641524d5f4558495354530000000000000000000000000000000000000000006000830152602082019050919050565b60006125fb600d83612beb565b91507f4556454e545f494e5f50415354000000000000000000000000000000000000006000830152602082019050919050565b600061263b600d83612beb565b91507f494e56414c49445f4652554954000000000000000000000000000000000000006000830152602082019050919050565b600061267b600983612beb565b91507f4d41585f4c4556454c00000000000000000000000000000000000000000000006000830152602082019050919050565b60006126bb600f83612beb565b91507f4556454e545f494e5f46555455524500000000000000000000000000000000006000830152602082019050919050565b60006126fb600d83612beb565b91507f494e56414c49445f4f52444552000000000000000000000000000000000000006000830152602082019050919050565b600061273b600d83612beb565b91507f4556454e545f45585049524544000000000000000000000000000000000000006000830152602082019050919050565b600061277b600883612beb565b91507f4e4f545f524950450000000000000000000000000000000000000000000000006000830152602082019050919050565b60006127bb600d83612beb565b91507f494e56414c49445f4c4556454c000000000000000000000000000000000000006000830152602082019050919050565b60006127fb600883612beb565b91507f4e4f5f46525549540000000000000000000000000000000000000000000000006000830152602082019050919050565b600061283b600783612beb565b91507f4e4f5f4641524d000000000000000000000000000000000000000000000000006000830152602082019050919050565b6000604083016000830151848203600086015261288b82826124a3565b91505060208301516128a060208601826128da565b508091505092915050565b6040820160008201516128c1600085018261255f565b5060208201516128d460208501826128da565b50505050565b6128e381612c41565b82525050565b6128f281612c41565b82525050565b600060208201905061290d6000830184612485565b92915050565b60006040820190506129286000830185612485565b61293560208301846128e9565b9392505050565b60006040820190506129516000830185612494565b61295e60208301846128e9565b9392505050565b6000602082019050818103600083015261297f8184612501565b905092915050565b600060208201905081810360008301526129a08161256e565b9050919050565b600060208201905081810360008301526129c0816125ae565b9050919050565b600060208201905081810360008301526129e0816125ee565b9050919050565b60006020820190508181036000830152612a008161262e565b9050919050565b60006020820190508181036000830152612a208161266e565b9050919050565b60006020820190508181036000830152612a40816126ae565b9050919050565b60006020820190508181036000830152612a60816126ee565b9050919050565b60006020820190508181036000830152612a808161272e565b9050919050565b60006020820190508181036000830152612aa08161276e565b9050919050565b60006020820190508181036000830152612ac0816127ae565b9050919050565b60006020820190508181036000830152612ae0816127ee565b9050919050565b60006020820190508181036000830152612b008161282e565b9050919050565b60006020820190508181036000830152612b21818461286e565b905092915050565b6000602082019050612b3e60008301846128e9565b92915050565b6000604051905081810181811067ffffffffffffffff82111715612b6b57612b6a612ca0565b5b8060405250919050565b600067ffffffffffffffff821115612b9057612b8f612ca0565b5b602082029050602081019050919050565b6000819050602082019050919050565b600081519050919050565b6000602082019050919050565b600082825260208201905092915050565b600082825260208201905092915050565b600082825260208201905092915050565b6000612c0782612c21565b9050919050565b6000819050612c1c82612ca2565b919050565b600073ffffffffffffffffffffffffffffffffffffffff82169050919050565b6000819050919050565b600060ff82169050919050565b6000612c6382612c7c565b9050919050565b6000612c7582612c0e565b9050919050565b6000612c8782612c8e565b9050919050565b6000612c9982612c21565b9050919050565bfe5b60088110612cb357612cb2612ca0565b5b50565b612cbf81612bfc565b8114612cca57600080fd5b50565b60028110612cda57600080fd5b50565b60088110612cea57600080fd5b50565b612cf681612c41565b8114612d0157600080fd5b50565b612d0d81612c4b565b8114612d1857600080fd5b5056fea2646970667358221220dc7b23a763258fd37d53bb28f4e8f52e3b3bb7146797d71f1023eca00141e73464736f6c63430007060033",
  "immutableReferences": {},
  "source": "pragma solidity >=0.6.0 <0.8.0;\r\npragma experimental ABIEncoderV2;\r\n\r\nimport \"@openzeppelin/contracts/math/Math.sol\";\r\nimport \"./Token.sol\";\r\n\r\ncontract Farm {\r\n    using SafeMath for uint256;\r\n\r\n    Token private token;\r\n\r\n    struct Square {\r\n        Fruit fruit;\r\n        uint createdAt;\r\n    }\r\n\r\n    mapping(address => Square[]) fields;\r\n    mapping(address => uint) syncedAt;\r\n\r\n    constructor(Token _token) public {\r\n        token = _token;\r\n    }\r\n\r\n    event FarmCreated(address indexed _address);\r\n    event FarmSynced(address indexed _address);\r\n\r\n    function createFarm() public {\r\n        require(syncedAt[msg.sender] == 0, \"FARM_EXISTS\");\r\n\r\n        Square[] storage land = fields[msg.sender];\r\n        Square memory empty = Square({\r\n            fruit: Fruit.None,\r\n            createdAt: block.timestamp\r\n        });\r\n        Square memory apple = Square({\r\n            fruit: Fruit.Apple,\r\n            createdAt: block.timestamp\r\n        });\r\n\r\n        // Each farmer starts with 5 fields & 3 apples\r\n        land.push(empty);\r\n        land.push(apple);\r\n        land.push(apple);\r\n        land.push(apple);\r\n        land.push(empty);\r\n\r\n        syncedAt[msg.sender] = block.timestamp;\r\n\r\n        //Emit an event\r\n        emit FarmCreated(msg.sender);\r\n    }\r\n    \r\n    function lastSyncedAt() private view returns(uint) {\r\n        return syncedAt[msg.sender];\r\n    }\r\n\r\n\r\n    function getLand() public view returns (Square[] memory) {\r\n        return fields[msg.sender];\r\n    }\r\n\r\n    enum Action { Plant, Harvest }\r\n    enum Fruit { None, Apple, Avocado, Banana, Coconut, Pineapple, Money, Diamond }\r\n\r\n    struct Event { \r\n        Action action;\r\n        Fruit fruit;\r\n        uint landIndex;\r\n        uint createdAt;\r\n    }\r\n\r\n    struct Farm {\r\n        Square[] land;\r\n        uint balance;\r\n    }\r\n\r\n    function getHarvestHours(Fruit _fruit) private pure returns (uint) {\r\n        if (_fruit == Fruit.Apple) {\r\n            return 1;\r\n        } else if (_fruit == Fruit.Avocado) {\r\n            return 3;\r\n        } else if (_fruit == Fruit.Banana) {\r\n            return 8;\r\n        } else if (_fruit == Fruit.Coconut) {\r\n            // 1 Day\r\n            return 24;\r\n        } else if (_fruit == Fruit.Pineapple) {\r\n            // 3 days\r\n            return 72;\r\n        } else if (_fruit == Fruit.Money) {\r\n            // 1 week\r\n            return 168;\r\n        } else if (_fruit == Fruit.Diamond) {\r\n            // 4 weeks\r\n            return 672;\r\n        }\r\n\r\n        require(false, \"INVALID_FRUIT\");\r\n        return 9999999;\r\n    }\r\n\r\n    function getSeedPrice(Fruit _fruit) private view returns (uint price) {\r\n        uint decimals = token.decimals();\r\n\r\n        if (_fruit == Fruit.Apple) {\r\n            //$0.01\r\n            return 1 * 10**decimals / 100;\r\n        } else if (_fruit == Fruit.Avocado) {\r\n            // $0.06\r\n            return 6 * 10**decimals / 100;\r\n        } else if (_fruit == Fruit.Banana) {\r\n            // $0.20\r\n            return 20 * 10**decimals / 100;\r\n        } else if (_fruit == Fruit.Coconut) {\r\n            // $1\r\n            return 1 * 10**decimals;\r\n        } else if (_fruit == Fruit.Pineapple) {\r\n            // $2\r\n            return 2 * 10**decimals;\r\n        } else if (_fruit == Fruit.Money) {\r\n            // $10\r\n            return 10 * 10**decimals;\r\n        } else if (_fruit == Fruit.Diamond) {\r\n            // $200\r\n            return 200 * 10**decimals;\r\n        }\r\n\r\n        require(false, \"INVALID_FRUIT\");\r\n\r\n        return 100000 * 10**decimals;\r\n    }\r\n\r\n    function getFruitPrice(Fruit _fruit) private view returns (uint price) {\r\n        uint decimals = token.decimals();\r\n\r\n        if (_fruit == Fruit.Apple) {\r\n            // $0.02\r\n            return 2 * 10**decimals / 100;\r\n        } else if (_fruit == Fruit.Avocado) {\r\n            // $0.12\r\n            return 12 * 10**decimals / 100;\r\n        } else if (_fruit == Fruit.Banana) {\r\n            // $0.56\r\n            return 56 * 10**decimals / 100;\r\n        } else if (_fruit == Fruit.Coconut) {\r\n            // $2.30\r\n            return 230 * 10**decimals / 100;\r\n        } else if (_fruit == Fruit.Pineapple) {\r\n            // $6.40\r\n            return 640 * 10**decimals / 100;\r\n        } else if (_fruit == Fruit.Money) {\r\n            // $20\r\n            return 20 * 10**decimals;\r\n        } else if (_fruit == Fruit.Diamond) {\r\n            // $250\r\n            return 250 * 10**decimals;\r\n        }\r\n\r\n        require(false, \"INVALID_FRUIT\");\r\n\r\n        return 0;\r\n    }\r\n    \r\n    function requiredLandSize(Fruit _fruit) private pure returns (uint size) {\r\n        if (_fruit == Fruit.Apple || _fruit == Fruit.Avocado) {\r\n            return 5;\r\n        } else if (_fruit == Fruit.Banana || _fruit == Fruit.Coconut) {\r\n            return 8;\r\n        } else if (_fruit == Fruit.Pineapple) {\r\n            return 11;\r\n        } else if (_fruit == Fruit.Money) {\r\n            return 14;\r\n        } else if (_fruit == Fruit.Diamond) {\r\n            return 17;\r\n        }\r\n\r\n        require(false, \"INVALID_FRUIT\");\r\n\r\n        return 99;\r\n    }\r\n    \r\n       \r\n    function getLandPrice(uint landSize) private view returns (uint price) {\r\n        uint decimals = token.decimals();\r\n        if (landSize <= 5) {\r\n            // $1\r\n            return 1 * 10**decimals;\r\n        } else if (landSize <= 8) {\r\n            // $30\r\n            return 10 * 10**decimals;\r\n        } else if (landSize <= 11) {\r\n            // $1000\r\n            return 50 * 10**decimals;\r\n        }\r\n        \r\n        return 250 * 10**decimals;\r\n    }\r\n\r\n    modifier hasFarm {\r\n        require(lastSyncedAt() > 0, \"NO_FARM\");\r\n        _;\r\n    }\r\n     \r\n    uint private THIRTY_MINUTES = 30 * 60;\r\n\r\n    function buildFarm(Event[] memory _events) public view hasFarm returns (Farm memory currentFarm) {\r\n        Square[] memory land = fields[msg.sender];\r\n        uint balance = token.balanceOf(msg.sender);\r\n        \r\n        for (uint index = 0; index < _events.length; index++) {\r\n            Event memory farmEvent = _events[index];\r\n\r\n            uint thirtyMinutesAgo = block.timestamp.sub(THIRTY_MINUTES); \r\n            require(farmEvent.createdAt >= thirtyMinutesAgo, \"EVENT_EXPIRED\");\r\n            require(farmEvent.createdAt >= lastSyncedAt(), \"EVENT_IN_PAST\");\r\n            require(farmEvent.createdAt <= block.timestamp, \"EVENT_IN_FUTURE\");\r\n\r\n            if (index > 0) {\r\n                require(farmEvent.createdAt >= _events[index - 1].createdAt, \"INVALID_ORDER\");\r\n            }\r\n\r\n\r\n            if (farmEvent.action == Action.Plant) {\r\n                require(land.length >= requiredLandSize(farmEvent.fruit), \"INVALID_LEVEL\");\r\n                \r\n                uint price = getSeedPrice(farmEvent.fruit);\r\n                uint fmcPrice = getMarketPrice(price);\r\n                require(balance >= fmcPrice, \"INSUFFICIENT_FUNDS\");\r\n\r\n                balance = balance.sub(fmcPrice);\r\n\r\n                Square memory plantedSeed = Square({\r\n                    fruit: farmEvent.fruit,\r\n                    createdAt: farmEvent.createdAt\r\n                });\r\n                land[farmEvent.landIndex] = plantedSeed;\r\n            } else if (farmEvent.action == Action.Harvest) {\r\n                Square memory square = land[farmEvent.landIndex];\r\n                require(square.fruit != Fruit.None, \"NO_FRUIT\");\r\n\r\n                uint duration = farmEvent.createdAt.sub(square.createdAt);\r\n                // Currently seconds\r\n                uint hoursToHarvest = getHarvestHours(square.fruit);\r\n                require(duration >= hoursToHarvest, \"NOT_RIPE\");\r\n\r\n                // Clear the land\r\n                Square memory emptyLand = Square({\r\n                    fruit: Fruit.None,\r\n                    createdAt: 0\r\n                });\r\n                land[farmEvent.landIndex] = emptyLand;\r\n\r\n                uint price = getFruitPrice(square.fruit);\r\n                uint fmcPrice = getMarketPrice(price);\r\n\r\n                balance = balance.add(fmcPrice);\r\n            }\r\n        }\r\n\r\n        return Farm({\r\n            land: land,\r\n            balance: balance\r\n        });\r\n    }\r\n\r\n\r\n    function sync(Event[] memory _events) public hasFarm returns (Farm memory) {\r\n        Farm memory farm = buildFarm(_events);\r\n\r\n        // Update the land\r\n        Square[] storage land = fields[msg.sender];\r\n        for (uint i=0; i < farm.land.length; i += 1) {\r\n            land[i] = farm.land[i];\r\n        }\r\n        \r\n        syncedAt[msg.sender] = block.timestamp;\r\n        \r\n        emit FarmSynced(msg.sender);\r\n        \r\n        uint balance = token.balanceOf(msg.sender);\r\n        // Update the balance - mint or burn\r\n        if (farm.balance > balance) {\r\n            uint profit = farm.balance.sub(balance);\r\n            token.mint(msg.sender, profit);\r\n        } else if (farm.balance < balance) {\r\n            uint loss = balance.sub(farm.balance);\r\n            token.burn(msg.sender, loss);\r\n        }\r\n        \r\n\r\n        return farm;\r\n    }\r\n\r\n    function levelUp() public hasFarm {\r\n        require(fields[msg.sender].length <= 17, \"MAX_LEVEL\");\r\n\r\n        emit FarmSynced(msg.sender);\r\n        \r\n        Square[] storage land = fields[msg.sender];\r\n\r\n        uint price = getLandPrice(land.length);\r\n        uint fmcPrice = getMarketPrice(price);\r\n        uint balance = token.balanceOf(msg.sender);\r\n\r\n        require(balance >= fmcPrice, \"INSUFFICIENT_FUNDS\");\r\n        \r\n        Square memory empty = Square({\r\n            fruit: Fruit.None,\r\n            createdAt: block.timestamp\r\n        });\r\n\r\n        // Do not bother rearranging the array - it is already in a strange square - Add 3 fields\r\n        for (uint index = 0; index < 3; index++) {\r\n            land.push(empty);\r\n        }\r\n\r\n        token.burn(msg.sender, fmcPrice);\r\n\r\n        // Land tax - An additional 5% of profit goes to maintainers of Fruit Market\r\n        uint commission = fmcPrice.div(1);\r\n        token.mint(token.getOwner(), commission);\r\n    }\r\n\r\n    // How many FMC do you get per dollar\r\n    // Algorithm is totalSupply / 10000 but we do this in gradual steps to avoid widly flucating prices between plant & harvest\r\n    function getMarketRate() private view returns (uint conversion) {\r\n        uint decimals = token.decimals();\r\n        uint totalSupply = token.totalSupply();\r\n\r\n        // Less than 10, 000 FMC tokens\r\n        if (totalSupply < (10000 * 10**decimals)) {\r\n            // 1 Farm Dollar gets you a FMC token\r\n            return 1;\r\n        }\r\n\r\n        // Less than 100, 000 FMC tokens\r\n        if (totalSupply < (100000 * 10**decimals)) {\r\n            return 10;\r\n        }\r\n        // Less than 1, 000, 000 FMC tokens\r\n        if (totalSupply < (1000000 * 10**decimals)) {\r\n            return 100;\r\n        }\r\n\r\n        // Less than 10, 000, 000 FMC tokens\r\n        if (totalSupply < (10000000 * 10**decimals)) {\r\n            return 1000;\r\n        }\r\n\r\n        // Less than 100, 000, 000 FMC tokens\r\n        if (totalSupply < (100000000 * 10**decimals)) {\r\n            return 10000;\r\n        }\r\n\r\n        // 200, 000, 000 -> \r\n        // 1 Farm Dollar gets you a 0.00001 of FMC - Linear growth from here\r\n        return totalSupply.div(10000);\r\n    }\r\n\r\n    function getMarketPrice(uint price) public view returns (uint conversion) {\r\n        uint marketRate = getMarketRate();\r\n\r\n        return price.div(marketRate);\r\n    }\r\n}\r\n",
  "sourcePath": "/Users/adamhannigan/Documents/workspace/fruit-market/src/contracts/Farm.sol",
  "compiler": {
    "name": "solc",
    "version": "0.7.6+commit.7338295f.Emscripten.clang"
  },
  "schemaVersion": "3.4.0",
  "updatedAt": "2021-06-12T00:50:20.779Z",
  "devdoc": {
    "kind": "dev",
    "methods": {},
    "version": 1
  },
  "userdoc": {
    "kind": "user",
    "methods": {},
    "version": 1
  }
}