{
  "contractName": "Farm",
  "abi": [
    {
      "inputs": [
        {
          "internalType": "contract Token",
          "name": "_token",
          "type": "address"
        }
      ],
      "stateMutability": "nonpayable",
      "type": "constructor"
    },
    {
      "inputs": [],
      "name": "createFarm",
      "outputs": [],
      "stateMutability": "nonpayable",
      "type": "function"
    },
    {
      "inputs": [],
      "name": "getInventory",
      "outputs": [
        {
          "components": [
            {
              "internalType": "bool",
              "name": "isInitialized",
              "type": "bool"
            },
            {
              "internalType": "uint256",
              "name": "apples",
              "type": "uint256"
            },
            {
              "internalType": "uint256",
              "name": "avocados",
              "type": "uint256"
            }
          ],
          "internalType": "struct Farm.Inventory",
          "name": "",
          "type": "tuple"
        }
      ],
      "stateMutability": "view",
      "type": "function"
    },
    {
      "inputs": [],
      "name": "getLand",
      "outputs": [
        {
          "components": [
            {
              "internalType": "enum Farm.Commodity",
              "name": "commodity",
              "type": "uint8"
            },
            {
              "internalType": "uint256",
              "name": "createdAt",
              "type": "uint256"
            }
          ],
          "internalType": "struct Farm.Square[]",
          "name": "",
          "type": "tuple[]"
        }
      ],
      "stateMutability": "view",
      "type": "function"
    },
    {
      "inputs": [
        {
          "components": [
            {
              "internalType": "enum Farm.Action",
              "name": "action",
              "type": "uint8"
            },
            {
              "internalType": "enum Farm.Commodity",
              "name": "commodity",
              "type": "uint8"
            },
            {
              "internalType": "uint256",
              "name": "timestamp",
              "type": "uint256"
            },
            {
              "internalType": "uint256",
              "name": "landIndex",
              "type": "uint256"
            }
          ],
          "internalType": "struct Farm.Transaction[]",
          "name": "_transactions",
          "type": "tuple[]"
        }
      ],
      "name": "getFarm",
      "outputs": [
        {
          "components": [
            {
              "components": [
                {
                  "internalType": "bool",
                  "name": "isInitialized",
                  "type": "bool"
                },
                {
                  "internalType": "uint256",
                  "name": "apples",
                  "type": "uint256"
                },
                {
                  "internalType": "uint256",
                  "name": "avocados",
                  "type": "uint256"
                }
              ],
              "internalType": "struct Farm.Inventory",
              "name": "inventory",
              "type": "tuple"
            },
            {
              "components": [
                {
                  "internalType": "enum Farm.Commodity",
                  "name": "commodity",
                  "type": "uint8"
                },
                {
                  "internalType": "uint256",
                  "name": "createdAt",
                  "type": "uint256"
                }
              ],
              "internalType": "struct Farm.Square[]",
              "name": "land",
              "type": "tuple[]"
            },
            {
              "internalType": "uint256",
              "name": "balance",
              "type": "uint256"
            },
            {
              "components": [
                {
                  "internalType": "enum Farm.Action",
                  "name": "action",
                  "type": "uint8"
                },
                {
                  "internalType": "enum Farm.Commodity",
                  "name": "commodity",
                  "type": "uint8"
                },
                {
                  "internalType": "uint256",
                  "name": "timestamp",
                  "type": "uint256"
                },
                {
                  "internalType": "uint256",
                  "name": "landIndex",
                  "type": "uint256"
                }
              ],
              "internalType": "struct Farm.Transaction[]",
              "name": "transactions",
              "type": "tuple[]"
            }
          ],
          "internalType": "struct Farm.Farm",
          "name": "currentFarm",
          "type": "tuple"
        }
      ],
      "stateMutability": "view",
      "type": "function"
    },
    {
      "inputs": [
        {
          "components": [
            {
              "internalType": "enum Farm.Action",
              "name": "action",
              "type": "uint8"
            },
            {
              "internalType": "enum Farm.Commodity",
              "name": "commodity",
              "type": "uint8"
            },
            {
              "internalType": "uint256",
              "name": "timestamp",
              "type": "uint256"
            },
            {
              "internalType": "uint256",
              "name": "landIndex",
              "type": "uint256"
            }
          ],
          "internalType": "struct Farm.Transaction[]",
          "name": "_transactions",
          "type": "tuple[]"
        }
      ],
      "name": "moveTheMarket",
      "outputs": [],
      "stateMutability": "nonpayable",
      "type": "function"
    },
    {
      "inputs": [
        {
          "components": [
            {
              "internalType": "enum Farm.Action",
              "name": "action",
              "type": "uint8"
            },
            {
              "internalType": "enum Farm.Commodity",
              "name": "commodity",
              "type": "uint8"
            },
            {
              "internalType": "uint256",
              "name": "timestamp",
              "type": "uint256"
            },
            {
              "internalType": "uint256",
              "name": "landIndex",
              "type": "uint256"
            }
          ],
          "internalType": "struct Farm.Transaction[]",
          "name": "_transactions",
          "type": "tuple[]"
        }
      ],
      "name": "sync",
      "outputs": [],
      "stateMutability": "nonpayable",
      "type": "function"
    },
    {
      "inputs": [
        {
          "components": [
            {
              "internalType": "enum Farm.Action",
              "name": "action",
              "type": "uint8"
            },
            {
              "internalType": "enum Farm.Commodity",
              "name": "commodity",
              "type": "uint8"
            },
            {
              "internalType": "uint256",
              "name": "timestamp",
              "type": "uint256"
            },
            {
              "internalType": "uint256",
              "name": "landIndex",
              "type": "uint256"
            }
          ],
          "internalType": "struct Farm.Transaction[]",
          "name": "_transactions",
          "type": "tuple[]"
        }
      ],
      "name": "buyAppleSeed",
      "outputs": [
        {
          "components": [
            {
              "components": [
                {
                  "internalType": "bool",
                  "name": "isInitialized",
                  "type": "bool"
                },
                {
                  "internalType": "uint256",
                  "name": "apples",
                  "type": "uint256"
                },
                {
                  "internalType": "uint256",
                  "name": "avocados",
                  "type": "uint256"
                }
              ],
              "internalType": "struct Farm.Inventory",
              "name": "inventory",
              "type": "tuple"
            },
            {
              "components": [
                {
                  "internalType": "enum Farm.Commodity",
                  "name": "commodity",
                  "type": "uint8"
                },
                {
                  "internalType": "uint256",
                  "name": "createdAt",
                  "type": "uint256"
                }
              ],
              "internalType": "struct Farm.Square[]",
              "name": "land",
              "type": "tuple[]"
            },
            {
              "internalType": "uint256",
              "name": "balance",
              "type": "uint256"
            },
            {
              "components": [
                {
                  "internalType": "enum Farm.Action",
                  "name": "action",
                  "type": "uint8"
                },
                {
                  "internalType": "enum Farm.Commodity",
                  "name": "commodity",
                  "type": "uint8"
                },
                {
                  "internalType": "uint256",
                  "name": "timestamp",
                  "type": "uint256"
                },
                {
                  "internalType": "uint256",
                  "name": "landIndex",
                  "type": "uint256"
                }
              ],
              "internalType": "struct Farm.Transaction[]",
              "name": "transactions",
              "type": "tuple[]"
            }
          ],
          "internalType": "struct Farm.Farm",
          "name": "farm",
          "type": "tuple"
        },
        {
          "internalType": "uint256",
          "name": "price",
          "type": "uint256"
        }
      ],
      "stateMutability": "view",
      "type": "function"
    },
    {
      "inputs": [
        {
          "components": [
            {
              "internalType": "enum Farm.Action",
              "name": "action",
              "type": "uint8"
            },
            {
              "internalType": "enum Farm.Commodity",
              "name": "commodity",
              "type": "uint8"
            },
            {
              "internalType": "uint256",
              "name": "timestamp",
              "type": "uint256"
            },
            {
              "internalType": "uint256",
              "name": "landIndex",
              "type": "uint256"
            }
          ],
          "internalType": "struct Farm.Transaction[]",
          "name": "_transactions",
          "type": "tuple[]"
        }
      ],
      "name": "sellAppleSeed",
      "outputs": [
        {
          "components": [
            {
              "components": [
                {
                  "internalType": "bool",
                  "name": "isInitialized",
                  "type": "bool"
                },
                {
                  "internalType": "uint256",
                  "name": "apples",
                  "type": "uint256"
                },
                {
                  "internalType": "uint256",
                  "name": "avocados",
                  "type": "uint256"
                }
              ],
              "internalType": "struct Farm.Inventory",
              "name": "inventory",
              "type": "tuple"
            },
            {
              "components": [
                {
                  "internalType": "enum Farm.Commodity",
                  "name": "commodity",
                  "type": "uint8"
                },
                {
                  "internalType": "uint256",
                  "name": "createdAt",
                  "type": "uint256"
                }
              ],
              "internalType": "struct Farm.Square[]",
              "name": "land",
              "type": "tuple[]"
            },
            {
              "internalType": "uint256",
              "name": "balance",
              "type": "uint256"
            },
            {
              "components": [
                {
                  "internalType": "enum Farm.Action",
                  "name": "action",
                  "type": "uint8"
                },
                {
                  "internalType": "enum Farm.Commodity",
                  "name": "commodity",
                  "type": "uint8"
                },
                {
                  "internalType": "uint256",
                  "name": "timestamp",
                  "type": "uint256"
                },
                {
                  "internalType": "uint256",
                  "name": "landIndex",
                  "type": "uint256"
                }
              ],
              "internalType": "struct Farm.Transaction[]",
              "name": "transactions",
              "type": "tuple[]"
            }
          ],
          "internalType": "struct Farm.Farm",
          "name": "farm",
          "type": "tuple"
        },
        {
          "internalType": "uint256",
          "name": "price",
          "type": "uint256"
        }
      ],
      "stateMutability": "view",
      "type": "function"
    },
    {
      "inputs": [
        {
          "components": [
            {
              "internalType": "enum Farm.Action",
              "name": "action",
              "type": "uint8"
            },
            {
              "internalType": "enum Farm.Commodity",
              "name": "commodity",
              "type": "uint8"
            },
            {
              "internalType": "uint256",
              "name": "timestamp",
              "type": "uint256"
            },
            {
              "internalType": "uint256",
              "name": "landIndex",
              "type": "uint256"
            }
          ],
          "internalType": "struct Farm.Transaction[]",
          "name": "_transactions",
          "type": "tuple[]"
        },
        {
          "internalType": "uint256",
          "name": "landIndex",
          "type": "uint256"
        }
      ],
      "name": "plantAppleSeed",
      "outputs": [
        {
          "components": [
            {
              "components": [
                {
                  "internalType": "bool",
                  "name": "isInitialized",
                  "type": "bool"
                },
                {
                  "internalType": "uint256",
                  "name": "apples",
                  "type": "uint256"
                },
                {
                  "internalType": "uint256",
                  "name": "avocados",
                  "type": "uint256"
                }
              ],
              "internalType": "struct Farm.Inventory",
              "name": "inventory",
              "type": "tuple"
            },
            {
              "components": [
                {
                  "internalType": "enum Farm.Commodity",
                  "name": "commodity",
                  "type": "uint8"
                },
                {
                  "internalType": "uint256",
                  "name": "createdAt",
                  "type": "uint256"
                }
              ],
              "internalType": "struct Farm.Square[]",
              "name": "land",
              "type": "tuple[]"
            },
            {
              "internalType": "uint256",
              "name": "balance",
              "type": "uint256"
            },
            {
              "components": [
                {
                  "internalType": "enum Farm.Action",
                  "name": "action",
                  "type": "uint8"
                },
                {
                  "internalType": "enum Farm.Commodity",
                  "name": "commodity",
                  "type": "uint8"
                },
                {
                  "internalType": "uint256",
                  "name": "timestamp",
                  "type": "uint256"
                },
                {
                  "internalType": "uint256",
                  "name": "landIndex",
                  "type": "uint256"
                }
              ],
              "internalType": "struct Farm.Transaction[]",
              "name": "transactions",
              "type": "tuple[]"
            }
          ],
          "internalType": "struct Farm.Farm",
          "name": "farm",
          "type": "tuple"
        }
      ],
      "stateMutability": "view",
      "type": "function"
    },
    {
      "inputs": [
        {
          "components": [
            {
              "internalType": "enum Farm.Action",
              "name": "action",
              "type": "uint8"
            },
            {
              "internalType": "enum Farm.Commodity",
              "name": "commodity",
              "type": "uint8"
            },
            {
              "internalType": "uint256",
              "name": "timestamp",
              "type": "uint256"
            },
            {
              "internalType": "uint256",
              "name": "landIndex",
              "type": "uint256"
            }
          ],
          "internalType": "struct Farm.Transaction[]",
          "name": "_transactions",
          "type": "tuple[]"
        },
        {
          "internalType": "uint256",
          "name": "landIndex",
          "type": "uint256"
        }
      ],
      "name": "harvestAppleSeed",
      "outputs": [
        {
          "components": [
            {
              "components": [
                {
                  "internalType": "bool",
                  "name": "isInitialized",
                  "type": "bool"
                },
                {
                  "internalType": "uint256",
                  "name": "apples",
                  "type": "uint256"
                },
                {
                  "internalType": "uint256",
                  "name": "avocados",
                  "type": "uint256"
                }
              ],
              "internalType": "struct Farm.Inventory",
              "name": "inventory",
              "type": "tuple"
            },
            {
              "components": [
                {
                  "internalType": "enum Farm.Commodity",
                  "name": "commodity",
                  "type": "uint8"
                },
                {
                  "internalType": "uint256",
                  "name": "createdAt",
                  "type": "uint256"
                }
              ],
              "internalType": "struct Farm.Square[]",
              "name": "land",
              "type": "tuple[]"
            },
            {
              "internalType": "uint256",
              "name": "balance",
              "type": "uint256"
            },
            {
              "components": [
                {
                  "internalType": "enum Farm.Action",
                  "name": "action",
                  "type": "uint8"
                },
                {
                  "internalType": "enum Farm.Commodity",
                  "name": "commodity",
                  "type": "uint8"
                },
                {
                  "internalType": "uint256",
                  "name": "timestamp",
                  "type": "uint256"
                },
                {
                  "internalType": "uint256",
                  "name": "landIndex",
                  "type": "uint256"
                }
              ],
              "internalType": "struct Farm.Transaction[]",
              "name": "transactions",
              "type": "tuple[]"
            }
          ],
          "internalType": "struct Farm.Farm",
          "name": "farm",
          "type": "tuple"
        }
      ],
      "stateMutability": "view",
      "type": "function"
    },
    {
      "inputs": [],
      "name": "getApplePrice",
      "outputs": [
        {
          "internalType": "uint256",
          "name": "price",
          "type": "uint256"
        }
      ],
      "stateMutability": "view",
      "type": "function"
    }
  ],
  "bytecode": "0x60806040526045600155601260025560026005556005600655600360075561ea606009553480156200003057600080fd5b506040516200266d3803806200266d833981810160405281019062000056919062000120565b806000806101000a81548173ffffffffffffffffffffffffffffffffffffffff021916908373ffffffffffffffffffffffffffffffffffffffff1602179055506040518060800160405280600254600a188152602001600254601e18815260200142815260200160008152506008600060015481526020019081526020016000206000820151816000015560208201518160010155604082015181600201556060820151816003015590505050620001ae565b6000815190506200011a8162000194565b92915050565b6000602082840312156200013357600080fd5b6000620001438482850162000109565b91505092915050565b6000620001598262000174565b9050919050565b60006200016d826200014c565b9050919050565b600073ffffffffffffffffffffffffffffffffffffffff82169050919050565b6200019f8162000160565b8114620001ab57600080fd5b50565b6124af80620001be6000396000f3fe608060405234801561001057600080fd5b50600436106100a95760003560e01c8063865b74d011610071578063865b74d014610140578063868314fa14610171578063942da5dc146101a1578063d53f9c9b146101d2578063f3985959146101ee578063f68376501461021e576100a9565b80630f804b25146100ae5780631d5ec3cb146100ca5780635690314c146100d45780635d7f850c146100f2578063689efec414610110575b600080fd5b6100c860048036038101906100c39190611ad7565b61023c565b005b6100d2610520565b005b6100dc6106e7565b6040516100e99190612107565b60405180910390f35b6100fa6107ba565b604051610107919061223b565b60405180910390f35b61012a60048036038101906101259190611b18565b610840565b60405161013791906121e9565b60405180910390f35b61015a60048036038101906101559190611ad7565b6108fd565b60405161016892919061220b565b60405180910390f35b61018b60048036038101906101869190611b18565b6109c2565b60405161019891906121e9565b60405180910390f35b6101bb60048036038101906101b69190611ad7565b610a7f565b6040516101c992919061220b565b60405180910390f35b6101ec60048036038101906101e79190611ad7565b610b44565b005b61020860048036038101906102039190611ad7565b610e75565b60405161021591906121e9565b60405180910390f35b610226611463565b6040516102339190612256565b60405180910390f35b60008060005b83518110156102d5576000600281111561025857fe5b84828151811061026457fe5b602002602001015160200151600281111561027b57fe5b141561028c576001830192506102ca565b6000600281111561029957fe5b8482815181106102a557fe5b60200260200101516020015160028111156102bc57fe5b14156102c9576001820191505b5b600181019050610242565b5060008183019050600060648285816102ea57fe5b04029050600060648385816102fb57fe5b040290506000606460055460018161030f57fe5b04029050600081840390506000828403905060008061025842039050600060086000600154815260200190815260200160002060405180608001604052908160008201548152602001600182015481526020016002820154815260200160038201548152505090505b81816040015111156103f357828060010193505060008160600151146103e957600860008260600151815260200190815260200160002060405180608001604052908160008201548152602001600182015481526020016002820154815260200160038201548152505090506103ee565b6103f3565b610378565b60006008600060015481526020019081526020016000206040518060800160405290816000820154815260200160018201548152602001600282015481526020016003820154815250509050600084868161044a57fe5b049050600061046482846020015102600754600654611483565b905082600860008560400151815260200190815260200160002060008201518160000155602082015181600101556040820151816002015560608201518160030155905050604051806080016040528060018152602001828152602001428152602001846040015181525060086000600154815260200190815260200160002060008201518160000155602082015181600101556040820151816002015560608201518160030155905050505050505050505050505050505050565b600360003373ffffffffffffffffffffffffffffffffffffffff1673ffffffffffffffffffffffffffffffffffffffff16815260200190815260200160002060000160009054906101000a900460ff16156105b0576040517f08c379a00000000000000000000000000000000000000000000000000000000081526004016105a7906121c9565b60405180910390fd5b6000600360003373ffffffffffffffffffffffffffffffffffffffff1673ffffffffffffffffffffffffffffffffffffffff168152602001908152602001600020905060018160000160006101000a81548160ff021916908315150217905550600181600101819055506000600460003373ffffffffffffffffffffffffffffffffffffffff1673ffffffffffffffffffffffffffffffffffffffff16815260200190815260200160002090506000604051806040016040528060028081111561067657fe5b8152602001600081525090508181908060018154018082558091505060019003906000526020600020906002020160009091909190915060008201518160000160006101000a81548160ff021916908360028111156106d157fe5b0217905550602082015181600101555050505050565b6060600460003373ffffffffffffffffffffffffffffffffffffffff1673ffffffffffffffffffffffffffffffffffffffff168152602001908152602001600020805480602002602001604051908101604052809291908181526020016000905b828210156107b157838290600052602060002090600202016040518060400160405290816000820160009054906101000a900460ff16600281111561078957fe5b600281111561079457fe5b815260200160018201548152505081526020019060010190610748565b50505050905090565b6107c26118ea565b600360003373ffffffffffffffffffffffffffffffffffffffff1673ffffffffffffffffffffffffffffffffffffffff1681526020019081526020016000206040518060600160405290816000820160009054906101000a900460ff1615151515815260200160018201548152602001600282015481525050905090565b61084861190d565b60006008600060015481526020019081526020016000206040518060800160405290816000820154815260200160018201548152602001600282015481526020016003820154815250509050600060405180608001604052806003808111156108ad57fe5b8152602001600060028111156108bf57fe5b8152602001836040015181526020016000815250905060006108e186836114b0565b905060006108ee82610e75565b90508094505050505092915050565b61090561190d565b6000806008600060015481526020019081526020016000206040518060800160405290816000820154815260200160018201548152602001600282015481526020016003820154815250509050600060405180608001604052806000600381111561096c57fe5b81526020016000600281111561097e57fe5b8152602001836040015181526020016000815250905060006109a086836114b0565b905060006109ad82610e75565b90508084600001519550955050505050915091565b6109ca61190d565b600060086000600154815260200190815260200160002060405180608001604052908160008201548152602001600182015481526020016002820154815260200160038201548152505090506000604051806080016040528060026003811115610a3057fe5b815260200160006002811115610a4257fe5b8152602001836040015181526020018581525090506000610a6386836114b0565b90506000610a7082610e75565b90508094505050505092915050565b610a8761190d565b60008060086000600154815260200190815260200160002060405180608001604052908160008201548152602001600182015481526020016002820154815260200160038201548152505090506000604051806080016040528060016003811115610aee57fe5b815260200160006002811115610b0057fe5b815260200183604001518152602001600081525090506000610b2286836114b0565b90506000610b2f82610e75565b90508084600001519550955050505050915091565b60008060009054906101000a900473ffffffffffffffffffffffffffffffffffffffff1673ffffffffffffffffffffffffffffffffffffffff166370a08231336040518263ffffffff1660e01b8152600401610ba091906120c3565b60206040518083038186803b158015610bb857600080fd5b505afa158015610bcc573d6000803e3d6000fd5b505050506040513d601f19601f82011682018060405250810190610bf09190611b6c565b90506000610bfd83610e75565b90506000600360003373ffffffffffffffffffffffffffffffffffffffff1673ffffffffffffffffffffffffffffffffffffffff168152602001908152602001600020905081600001516020015181600101819055506000600460003373ffffffffffffffffffffffffffffffffffffffff1673ffffffffffffffffffffffffffffffffffffffff16815260200190815260200160002090508260200151600081518110610ca757fe5b602002602001015181600081548110610cbc57fe5b906000526020600020906002020160008201518160000160006101000a81548160ff02191690836002811115610cee57fe5b02179055506020820151816001015590505060008484604001510390506000811315610da65760008054906101000a900473ffffffffffffffffffffffffffffffffffffffff1673ffffffffffffffffffffffffffffffffffffffff166340c10f1933836040518363ffffffff1660e01b8152600401610d6f9291906120de565b600060405180830381600087803b158015610d8957600080fd5b505af1158015610d9d573d6000803e3d6000fd5b50505050610e64565b6000811215610e63576000817fffffffffffffffffffffffffffffffffffffffffffffffffffffffffffffffff02905060008054906101000a900473ffffffffffffffffffffffffffffffffffffffff1673ffffffffffffffffffffffffffffffffffffffff166342966c68826040518263ffffffff1660e01b8152600401610e2f9190612256565b600060405180830381600087803b158015610e4957600080fd5b505af1158015610e5d573d6000803e3d6000fd5b50505050505b5b610e6d8661023c565b505050505050565b610e7d61190d565b6000600360003373ffffffffffffffffffffffffffffffffffffffff1673ffffffffffffffffffffffffffffffffffffffff1681526020019081526020016000206040518060600160405290816000820160009054906101000a900460ff161515151581526020016001820154815260200160028201548152505090506000600460003373ffffffffffffffffffffffffffffffffffffffff1673ffffffffffffffffffffffffffffffffffffffff168152602001908152602001600020805480602002602001604051908101604052809291908181526020016000905b82821015610fc457838290600052602060002090600202016040518060400160405290816000820160009054906101000a900460ff166002811115610f9c57fe5b6002811115610fa757fe5b815260200160018201548152505081526020019060010190610f5b565b50505050905060008060009054906101000a900473ffffffffffffffffffffffffffffffffffffffff1673ffffffffffffffffffffffffffffffffffffffff166370a08231336040518263ffffffff1660e01b815260040161102691906120c3565b60206040518083038186803b15801561103e57600080fd5b505afa158015611052573d6000803e3d6000fd5b505050506040513d601f19601f820116820180604052508101906110769190611b6c565b905060005b855181101561143757600086828151811061109257fe5b6020026020010151905060006008600083604001518152602001908152602001600020604051806080016040529081600082015481526020016001820154815260200160028201548152602001600382015481525050905060006110fa878460200151611572565b9050600061110c8385602001516115d4565b90506001600381111561111b57fe5b8460000151600381111561112b57fe5b1415611192578160011115611175576040517f08c379a000000000000000000000000000000000000000000000000000000000815260040161116c906121a9565b60405180910390fd5b611186888560200151600180611636565b97508086019550611426565b6000600381111561119f57fe5b846000015160038111156111af57fe5b141561121657808610156111f8576040517f08c379a00000000000000000000000000000000000000000000000000000000081526004016111ef90612129565b60405180910390fd5b808603955061120f88856020015160006001611636565b9750611425565b6002600381111561122357fe5b8460000151600381111561123357fe5b14156112dd576000821161127c576040517f08c379a000000000000000000000000000000000000000000000000000000000815260040161127390612149565b60405180910390fd5b600060405180604001604052808660200151600281111561129957fe5b81526020018660400151815250905080888660600151815181106112b957fe5b60200260200101819052506112d5898660200151600180611636565b985050611424565b6003808111156112e957fe5b846000015160038111156112f957fe5b14156114235760008785606001518151811061131157fe5b602002602001015190508460200151600281111561132b57fe5b8160000151600281111561133b57fe5b1461137b576040517f08c379a000000000000000000000000000000000000000000000000000000000815260040161137290612169565b60405180910390fd5b600081602001514203905060095481116113ca576040517f08c379a00000000000000000000000000000000000000000000000000000000081526004016113c190612189565b60405180910390fd5b600060405180604001604052806002808111156113e357fe5b815260200160008152509050808a88606001518151811061140057fe5b602002602001018190525061141d8b886020015160006002611636565b9a505050505b5b5b5b50505050808060010191505061107b565b506040518060800160405280848152602001838152602001828152602001868152509350505050919050565b600060086000600154815260200190815260200160002060000154905090565b600082841015611495578290506114a9565b818411156114a5578190506114a9565b8390505b9392505050565b60606000600184510167ffffffffffffffff811180156114cf57600080fd5b5060405190808252806020026020018201604052801561150957816020015b6114f661193b565b8152602001906001900390816114ee5790505b50905060005b845181101561154e5784818151811061152457fe5b602002602001015182828151811061153857fe5b602002602001018190525060018101905061150f565b50828185518151811061155d57fe5b60200260200101819052508091505092915050565b600080600281111561158057fe5b82600281111561158c57fe5b141561159e57826020015190506115ce565b600160028111156115ab57fe5b8260028111156115b757fe5b14156115c957826040015190506115ce565b600090505b92915050565b60008060028111156115e257fe5b8260028111156115ee57fe5b14156116005782600001519050611630565b6001600281111561160d57fe5b82600281111561161957fe5b141561162b5782602001519050611630565b600090505b92915050565b61163e6118ea565b6000600281111561164b57fe5b84600281111561165757fe5b14156116c7576000600181111561166a57fe5b83600181111561167657fe5b14156116a15761169382866020015161175890919063ffffffff16565b8560200181815250506116c2565b6116b88286602001516117e090919063ffffffff16565b8560200181815250505b61174d565b600160028111156116d457fe5b8460028111156116e057fe5b141561174c57600060018111156116f357fe5b8360018111156116ff57fe5b141561172a5761171c82866040015161175890919063ffffffff16565b85604001818152505061174b565b6117418286604001516117e090919063ffffffff16565b8560400181815250505b5b5b849050949350505050565b6000808284019050838110156117d6576040517f08c379a000000000000000000000000000000000000000000000000000000000815260040180806020018281038252601b8152602001807f536166654d6174683a206164646974696f6e206f766572666c6f77000000000081525060200191505060405180910390fd5b8091505092915050565b600061182283836040518060400160405280601e81526020017f536166654d6174683a207375627472616374696f6e206f766572666c6f77000081525061182a565b905092915050565b60008383111582906118d7576040517f08c379a00000000000000000000000000000000000000000000000000000000081526004018080602001828103825283818151815260200191508051906020019080838360005b8381101561189c578082015181840152602081019050611881565b50505050905090810190601f1680156118c95780820380516001836020036101000a031916815260200191505b509250505060405180910390fd5b5060008385039050809150509392505050565b604051806060016040528060001515815260200160008152602001600081525090565b60405180608001604052806119206118ea565b81526020016060815260200160008152602001606081525090565b60405180608001604052806000600381111561195357fe5b81526020016000600281111561196557fe5b815260200160008152602001600081525090565b600061198c611987846122a2565b612271565b905080838252602082019050828560808602820111156119ab57600080fd5b60005b858110156119db57816119c18882611a39565b8452602084019350608083019250506001810190506119ae565b5050509392505050565b600082601f8301126119f657600080fd5b8135611a06848260208601611979565b91505092915050565b600081359050611a1e81612442565b92915050565b600081359050611a3381612452565b92915050565b600060808284031215611a4b57600080fd5b611a556080612271565b90506000611a6584828501611a0f565b6000830152506020611a7984828501611a24565b6020830152506040611a8d84828501611aad565b6040830152506060611aa184828501611aad565b60608301525092915050565b600081359050611abc81612462565b92915050565b600081519050611ad181612462565b92915050565b600060208284031215611ae957600080fd5b600082013567ffffffffffffffff811115611b0357600080fd5b611b0f848285016119e5565b91505092915050565b60008060408385031215611b2b57600080fd5b600083013567ffffffffffffffff811115611b4557600080fd5b611b51858286016119e5565b9250506020611b6285828601611aad565b9150509250929050565b600060208284031215611b7e57600080fd5b6000611b8c84828501611ac2565b91505092915050565b6000611ba18383612021565b60408301905092915050565b6000611bb98383612050565b60808301905092915050565b611bce816123be565b82525050565b6000611bdf826122ee565b611be9818561231e565b9350611bf4836122ce565b8060005b83811015611c25578151611c0c8882611b95565b9750611c1783612304565b925050600181019050611bf8565b5085935050505092915050565b6000611c3d826122ee565b611c47818561232f565b9350611c52836122ce565b8060005b83811015611c83578151611c6a8882611b95565b9750611c7583612304565b925050600181019050611c56565b5085935050505092915050565b6000611c9b826122f9565b611ca58185612340565b9350611cb0836122de565b8060005b83811015611ce1578151611cc88882611bad565b9750611cd383612311565b925050600181019050611cb4565b5085935050505092915050565b611cf781612362565b82525050565b611d06816123d0565b82525050565b611d15816123e2565b82525050565b6000611d28602c83612351565b91507f496e76616c6964206661726d3a204e6f7420656e6f756768206d6f6e6579207460008301527f6f20627579206170706c657300000000000000000000000000000000000000006020830152604082019050919050565b6000611d8e602d83612351565b91507f496e76616c6964206661726d3a204e6f7420656e6f756768206170706c65207360008301527f6565647320746f20706c616e74000000000000000000000000000000000000006020830152604082019050919050565b6000611df4602983612351565b91507f496e76616c6964206661726d3a2054686174206973206e6f742074686520726960008301527f67687420667275697400000000000000000000000000000000000000000000006020830152604082019050919050565b6000611e5a603883612351565b91507f496e76616c6964206661726d3a596f7520646f206e6f74206861766520616e7960008301527f206170706c6573207269706520666f72206861727665737400000000000000006020830152604082019050919050565b6000611ec0601e83612351565b91507f496e76616c6964206661726d3a204e6f20736565647320746f2073656c6c00006000830152602082019050919050565b6000611f00601883612351565b91507f496e76656e746f727920616c72656164792065786973747300000000000000006000830152602082019050919050565b600060c083016000830151611f4b6000860182611f9d565b5060208301518482036060860152611f638282611bd4565b9150506040830151611f7860808601826120a5565b50606083015184820360a0860152611f908282611c90565b9150508091505092915050565b606082016000820151611fb36000850182611cee565b506020820151611fc660208501826120a5565b506040820151611fd960408501826120a5565b50505050565b606082016000820151611ff56000850182611cee565b50602082015161200860208501826120a5565b50604082015161201b60408501826120a5565b50505050565b6040820160008201516120376000850182611d0c565b50602082015161204a60208501826120a5565b50505050565b6080820160008201516120666000850182611cfd565b5060208201516120796020850182611d0c565b50604082015161208c60408501826120a5565b50606082015161209f60608501826120a5565b50505050565b6120ae816123b4565b82525050565b6120bd816123b4565b82525050565b60006020820190506120d86000830184611bc5565b92915050565b60006040820190506120f36000830185611bc5565b61210060208301846120b4565b9392505050565b600060208201905081810360008301526121218184611c32565b905092915050565b6000602082019050818103600083015261214281611d1b565b9050919050565b6000602082019050818103600083015261216281611d81565b9050919050565b6000602082019050818103600083015261218281611de7565b9050919050565b600060208201905081810360008301526121a281611e4d565b9050919050565b600060208201905081810360008301526121c281611eb3565b9050919050565b600060208201905081810360008301526121e281611ef3565b9050919050565b600060208201905081810360008301526122038184611f33565b905092915050565b600060408201905081810360008301526122258185611f33565b905061223460208301846120b4565b9392505050565b60006060820190506122506000830184611fdf565b92915050565b600060208201905061226b60008301846120b4565b92915050565b6000604051905081810181811067ffffffffffffffff8211171561229857612297612418565b5b8060405250919050565b600067ffffffffffffffff8211156122bd576122bc612418565b5b602082029050602081019050919050565b6000819050602082019050919050565b6000819050602082019050919050565b600081519050919050565b600081519050919050565b6000602082019050919050565b6000602082019050919050565b600082825260208201905092915050565b600082825260208201905092915050565b600082825260208201905092915050565b600082825260208201905092915050565b60008115159050919050565b600081905061237c8261241a565b919050565b600081905061238f8261242e565b919050565b600073ffffffffffffffffffffffffffffffffffffffff82169050919050565b6000819050919050565b60006123c9826123f4565b9050919050565b60006123db8261236e565b9050919050565b60006123ed82612381565b9050919050565b60006123ff82612406565b9050919050565b600061241182612394565b9050919050565bfe5b6004811061242b5761242a612418565b5b50565b6003811061243f5761243e612418565b5b50565b6004811061244f57600080fd5b50565b6003811061245f57600080fd5b50565b61246b816123b4565b811461247657600080fd5b5056fea2646970667358221220e3e53390cc05b184dff417225766c5620156eb5a76b6b1269790fef0108ad57464736f6c63430007060033",
  "immutableReferences": {},
  "source": "pragma solidity >=0.6.0 <0.8.0;\r\npragma experimental ABIEncoderV2;\r\n\r\nimport \"@openzeppelin/contracts/math/Math.sol\";\r\nimport \"./Token.sol\";\r\n\r\ncontract Farm {\r\n    using SafeMath for uint256;\r\n\r\n    //assign Token contract to variable\r\n    Token private token;\r\n    uint NOW_TIMESTAMP = 69;\r\n    uint DECIMAL_PLACES = 18;\r\n\r\n    struct Square {\r\n        Commodity commodity;\r\n        uint createdAt;\r\n    }\r\n\r\n    struct Inventory {\r\n        bool isInitialized;\r\n        uint apples;\r\n        uint avocados;\r\n    }\r\n\r\n\r\n    mapping(address => Inventory) inventories;\r\n    mapping(address => Square[]) fields;\r\n\r\n    //pass as constructor argument deployed Token contract\r\n    constructor(Token _token) public {\r\n        //assign token deployed contract to variable\r\n        token = _token;\r\n\r\n        // Initial prices\r\n        market[NOW_TIMESTAMP] = Prices({\r\n            apples: 1 * 10^DECIMAL_PLACES, \r\n            avocados: 3 * 10^DECIMAL_PLACES,\r\n            timestamp: block.timestamp,\r\n            previousTimestamp: 0\r\n        });\r\n    }\r\n\r\n    function createFarm() public {\r\n        require(!inventories[msg.sender].isInitialized, \"Inventory already exists\");\r\n\r\n        Inventory storage inventory = inventories[msg.sender];\r\n        inventory.isInitialized = true;\r\n        inventory.apples = 1;\r\n\r\n        Square[] storage land = fields[msg.sender];\r\n        Square memory empty = Square(Commodity.Empty, 0);\r\n        land.push(empty);\r\n    }\r\n\r\n    function getInventory() public view returns (Inventory memory) {\r\n        return inventories[msg.sender];\r\n    }\r\n\r\n    function getLand() public view returns (Square[] memory) {\r\n        return fields[msg.sender];\r\n    }\r\n\r\n    enum Action { Buy, Sell, Plant, Harvest }\r\n    uint FRUIT_COUNT = 2;\r\n    enum Commodity { AppleSeed, AvocadoSeed, Empty }\r\n\r\n    struct Transaction { \r\n        Action action;\r\n        Commodity commodity;\r\n        uint timestamp;\r\n        uint landIndex;\r\n    }\r\n\r\n    uint MAX_AVOCADO_PRICE = 5;\r\n    uint MIN_AVOCADO_PRICE = 3;\r\n\r\n    struct Prices {\r\n        uint apples;\r\n        uint avocados;\r\n        uint timestamp;\r\n        uint previousTimestamp;\r\n    }\r\n     \r\n    mapping(uint => Prices) market;\r\n\r\n    struct Farm {\r\n        Inventory inventory;\r\n        Square[] land;\r\n        uint balance;\r\n        Transaction[] transactions;\r\n    }\r\n\r\n    uint APPLE_HARVEST_MILLSECONDS = 60 * 1000;\r\n\r\n    function getSeedFromInventory(Inventory memory _inventory, Commodity _commodity) private view returns (uint count) {\r\n        if (_commodity == Commodity.AppleSeed) {\r\n            return _inventory.apples;\r\n        } else if (_commodity == Commodity.AvocadoSeed) {\r\n            return _inventory.avocados;\r\n        }\r\n\r\n        return 0;\r\n    }\r\n\r\n    function getFruitPrice(Prices memory prices, Commodity _commodity) private view returns (uint price) {\r\n        if (_commodity == Commodity.AppleSeed) {\r\n            return prices.apples;\r\n        } else if (_commodity == Commodity.AvocadoSeed) {\r\n            return prices.avocados;\r\n        }\r\n\r\n        return 0;\r\n    }\r\n\r\n    enum InventoryAction {\r\n        Add,\r\n        Subtract\r\n    }\r\n\r\n    function updateInventory(Inventory memory _inventory, Commodity _commodity, InventoryAction _action, uint _change) private view returns (Inventory memory) {\r\n        if (_commodity == Commodity.AppleSeed) {\r\n            if (_action == InventoryAction.Add) {\r\n                _inventory.apples = _inventory.apples.add(_change);\r\n            } else {\r\n                _inventory.apples = _inventory.apples.sub(_change);\r\n            }\r\n        } else if (_commodity == Commodity.AvocadoSeed) {\r\n            if (_action == InventoryAction.Add) {\r\n                _inventory.avocados = _inventory.avocados.add(_change);\r\n            } else {\r\n                _inventory.avocados = _inventory.avocados.sub(_change);\r\n            }\r\n        }\r\n\r\n        return _inventory;\r\n    }\r\n\r\n    function getFarm(Transaction[] memory _transactions) public view returns (Farm memory currentFarm) {\r\n        Inventory memory inventory = inventories[msg.sender];\r\n        Square[] memory land = fields[msg.sender];\r\n        uint fmc = token.balanceOf(msg.sender);\r\n\r\n        for (uint index = 0; index < _transactions.length; index++) {\r\n            Transaction memory transaction = _transactions[index];\r\n            Prices memory prices = market[transaction.timestamp];\r\n            \r\n            uint seedCount = getSeedFromInventory(inventory, transaction.commodity);\r\n            uint price = getFruitPrice(prices, transaction.commodity);\r\n\r\n            if (transaction.action == Action.Sell) {\r\n                require(1 <= seedCount, \"Invalid farm: No seeds to sell\");\r\n\r\n                inventory = updateInventory(inventory, transaction.commodity, InventoryAction.Subtract, 1);\r\n                fmc += price;\r\n            } else if (transaction.action == Action.Buy) {\r\n                require(fmc >= price, \"Invalid farm: Not enough money to buy apples\");\r\n\r\n                fmc -= price;\r\n                inventory = updateInventory(inventory, transaction.commodity, InventoryAction.Add, 1);\r\n            } else if (transaction.action == Action.Plant) {\r\n                require(seedCount > 0, \"Invalid farm: Not enough apple seeds to plant\");\r\n\r\n                Square memory plantedSeed = Square(transaction.commodity, transaction.timestamp);\r\n                land[transaction.landIndex] = plantedSeed;\r\n                inventory = updateInventory(inventory, transaction.commodity, InventoryAction.Subtract, 1);\r\n            } else if (transaction.action == Action.Harvest) {\r\n                Square memory square = land[transaction.landIndex];\r\n                require(square.commodity == transaction.commodity, \"Invalid farm: That is not the right fruit\");\r\n\r\n                uint duration = block.timestamp - square.createdAt;\r\n                require(duration > APPLE_HARVEST_MILLSECONDS, \"Invalid farm:You do not have any apples ripe for harvest\");\r\n\r\n                // Clear the land\r\n                Square memory emptyLand = Square(Commodity.Empty, 0);\r\n                land[transaction.landIndex] = emptyLand;\r\n                inventory = updateInventory(inventory, transaction.commodity, InventoryAction.Add, 2);\r\n            }\r\n        }\r\n\r\n        return Farm({\r\n            inventory: inventory,\r\n            land: land,\r\n            balance: fmc,\r\n            transactions: _transactions\r\n        });\r\n    }\r\n\r\n    function clamp(uint value, uint minimum, uint maximum) private pure returns (uint clamped) {\r\n        if (value < minimum) {\r\n            return minimum;\r\n        }\r\n\r\n        if (value > maximum) {\r\n            return maximum;\r\n        }\r\n\r\n        return value;\r\n    }\r\n\r\n    // Assume the proportional number of transactions is what influences price\r\n    // Since at the time of transaction, they will likely be buying something and have sold all their seeds\r\n    function moveTheMarket(Transaction[] memory _transactions) public {\r\n        uint apples = 0;\r\n        uint avocados = 0;\r\n\r\n        // What is the biggest mover?\r\n        for (uint i=0; i < _transactions.length; i += 1) {\r\n            if ( _transactions[i].commodity == Commodity.AppleSeed) {\r\n                apples += 1;\r\n            } else if ( _transactions[i].commodity == Commodity.AppleSeed) {\r\n                avocados += 1;\r\n            }\r\n        }\r\n\r\n        uint totalFruitTransactions = apples + avocados;\r\n\r\n        // Percentage of transactions that were apples\r\n        uint applePercentage = apples / totalFruitTransactions * 100;\r\n        uint avocadoPercentage = avocados / totalFruitTransactions * 100;\r\n        uint expectedTransactions = 1 / FRUIT_COUNT * 100;\r\n\r\n        uint appleChange = applePercentage - expectedTransactions;\r\n        uint avocadoChange = avocadoPercentage - expectedTransactions;\r\n\r\n\r\n        // TODO even out the price from the previous hour - store transactions in the last hour?\r\n        uint transactionCount = 0;\r\n        uint tenMinutesAgo = block.timestamp - (60 * 10);\r\n        Prices memory prices = market[NOW_TIMESTAMP];\r\n        while (prices.timestamp > tenMinutesAgo) {\r\n            transactionCount++;\r\n            \r\n            if (prices.previousTimestamp != 0) {\r\n                prices = market[prices.previousTimestamp];\r\n            } else {\r\n                break;\r\n            }\r\n        }\r\n\r\n        Prices memory currentPrices = market[NOW_TIMESTAMP];\r\n\r\n        // Apples are staple, they always stay at 1 FMC\r\n        uint relativeAvocadoChange = avocadoChange / transactionCount;\r\n        uint newAvocadoPrice = clamp(currentPrices.avocados * relativeAvocadoChange, MIN_AVOCADO_PRICE, MAX_AVOCADO_PRICE);\r\n\r\n        market[currentPrices.timestamp] = currentPrices;\r\n        market[NOW_TIMESTAMP] = Prices({\r\n            apples: 1,\r\n            avocados: newAvocadoPrice,\r\n            timestamp: block.timestamp,\r\n            previousTimestamp: currentPrices.timestamp\r\n        });\r\n    }\r\n\r\n    function sync(Transaction[] memory _transactions) public {\r\n        uint balance = token.balanceOf(msg.sender);\r\n        Farm memory farm = getFarm(_transactions);\r\n\r\n        // Update the inventory\r\n        Inventory storage oldInventory = inventories[msg.sender];\r\n\r\n        oldInventory.apples = farm.inventory.apples;\r\n\r\n        // TODO support more land\r\n        Square[] storage land = fields[msg.sender];\r\n        land[0] = farm.land[0];\r\n\r\n\r\n        // Update the users FMC - mint or burn\r\n        int balanceChange = int(farm.balance) - int(balance);\r\n        if (balanceChange > 0) {\r\n            token.mint(msg.sender, uint(balanceChange));\r\n        } else if (balanceChange < 0) {\r\n            int amountToBurn = -1 * int(balanceChange);\r\n            token.burn(uint(amountToBurn));\r\n        }\r\n\r\n        // TODO - update the prices\r\n        moveTheMarket(_transactions);\r\n\r\n    }\r\n\r\n    function addTransaction(Transaction[] memory _transactions, Transaction memory _transaction) private view returns (Transaction[] memory) {\r\n        Transaction[] memory newTransactions = new Transaction[](_transactions.length + 1);\r\n        for (uint i=0; i < _transactions.length; i += 1) {\r\n            newTransactions[i] = _transactions[i];\r\n        }\r\n\r\n        // Add the new transaction\r\n        newTransactions[_transactions.length] = _transaction;\r\n\r\n        return newTransactions;\r\n    }\r\n\r\n    function buyAppleSeed(Transaction[] memory _transactions) public view returns (Farm memory farm, uint price) {\r\n        Prices memory currentPrices = market[NOW_TIMESTAMP];\r\n        Transaction memory buyAppleTransaction = Transaction(Action.Buy, Commodity.AppleSeed, currentPrices.timestamp, 0);\r\n        Transaction[] memory newTransactions = addTransaction(_transactions, buyAppleTransaction);\r\n\r\n\r\n        Farm memory updatedFarm = getFarm(newTransactions);\r\n        return (updatedFarm,currentPrices.apples);\r\n    }\r\n\r\n    function sellAppleSeed(Transaction[] memory _transactions) public view returns (Farm memory farm, uint price) {\r\n        Prices memory currentPrices = market[NOW_TIMESTAMP];\r\n        Transaction memory sellAppleTransaction = Transaction(Action.Sell, Commodity.AppleSeed, currentPrices.timestamp, 0);\r\n        Transaction[] memory newTransactions = addTransaction(_transactions, sellAppleTransaction);\r\n\r\n\r\n        Farm memory updatedFarm = getFarm(newTransactions);\r\n        return (updatedFarm, currentPrices.apples);\r\n    }\r\n\r\n    function plantAppleSeed(Transaction[] memory _transactions, uint landIndex) public view returns (Farm memory farm) {\r\n        Prices memory currentPrices = market[NOW_TIMESTAMP];\r\n        Transaction memory plantAppleTransaction = Transaction(Action.Plant, Commodity.AppleSeed, currentPrices.timestamp, landIndex);\r\n        Transaction[] memory newTransactions = addTransaction(_transactions, plantAppleTransaction);\r\n\r\n        Farm memory updatedFarm = getFarm(newTransactions);\r\n        return (updatedFarm);\r\n    }\r\n\r\n    function harvestAppleSeed(Transaction[] memory _transactions, uint landIndex) public view returns (Farm memory farm) {\r\n        // Add the new transaction\r\n        Prices memory currentPrices = market[NOW_TIMESTAMP];\r\n        Transaction memory plantAppleTransaction = Transaction(Action.Harvest, Commodity.AppleSeed, currentPrices.timestamp, 0);\r\n        Transaction[] memory newTransactions = addTransaction(_transactions, plantAppleTransaction);\r\n\r\n        Farm memory updatedFarm = getFarm(newTransactions);\r\n        return (updatedFarm);\r\n    }\r\n\r\n    function getApplePrice() public view returns (uint price) {\r\n        return market[NOW_TIMESTAMP].apples;\r\n    }\r\n}\r\n",
  "sourcePath": "/Users/adamhannigan/Documents/workspace/fruit-market/src/contracts/Farm.sol",
  "compiler": {
    "name": "solc",
    "version": "0.7.6+commit.7338295f.Emscripten.clang"
  },
  "schemaVersion": "3.4.0",
  "updatedAt": "2021-05-08T23:56:35.883Z",
  "devdoc": {
    "kind": "dev",
    "methods": {},
    "version": 1
  },
  "userdoc": {
    "kind": "user",
    "methods": {},
    "version": 1
  }
}