{
  "contractName": "Farm",
  "abi": [
    {
      "inputs": [
        {
          "internalType": "contract Token",
          "name": "_token",
          "type": "address"
        }
      ],
      "stateMutability": "nonpayable",
      "type": "constructor"
    },
    {
      "anonymous": false,
      "inputs": [
        {
          "indexed": true,
          "internalType": "address",
          "name": "_address",
          "type": "address"
        }
      ],
      "name": "FarmCreated",
      "type": "event"
    },
    {
      "anonymous": false,
      "inputs": [
        {
          "indexed": true,
          "internalType": "address",
          "name": "_address",
          "type": "address"
        }
      ],
      "name": "FarmSynced",
      "type": "event"
    },
    {
      "stateMutability": "payable",
      "type": "receive"
    },
    {
      "inputs": [
        {
          "internalType": "address payable",
          "name": "_charity",
          "type": "address"
        }
      ],
      "name": "createFarm",
      "outputs": [],
      "stateMutability": "payable",
      "type": "function"
    },
    {
      "inputs": [],
      "name": "getLand",
      "outputs": [
        {
          "components": [
            {
              "internalType": "enum Farm.Fruit",
              "name": "fruit",
              "type": "uint8"
            },
            {
              "internalType": "uint256",
              "name": "createdAt",
              "type": "uint256"
            }
          ],
          "internalType": "struct Farm.Square[]",
          "name": "",
          "type": "tuple[]"
        }
      ],
      "stateMutability": "view",
      "type": "function"
    },
    {
      "inputs": [
        {
          "components": [
            {
              "internalType": "enum Farm.Action",
              "name": "action",
              "type": "uint8"
            },
            {
              "internalType": "enum Farm.Fruit",
              "name": "fruit",
              "type": "uint8"
            },
            {
              "internalType": "uint256",
              "name": "landIndex",
              "type": "uint256"
            },
            {
              "internalType": "uint256",
              "name": "createdAt",
              "type": "uint256"
            }
          ],
          "internalType": "struct Farm.Event[]",
          "name": "_events",
          "type": "tuple[]"
        }
      ],
      "name": "sync",
      "outputs": [
        {
          "components": [
            {
              "components": [
                {
                  "internalType": "enum Farm.Fruit",
                  "name": "fruit",
                  "type": "uint8"
                },
                {
                  "internalType": "uint256",
                  "name": "createdAt",
                  "type": "uint256"
                }
              ],
              "internalType": "struct Farm.Square[]",
              "name": "land",
              "type": "tuple[]"
            },
            {
              "internalType": "uint256",
              "name": "balance",
              "type": "uint256"
            }
          ],
          "internalType": "struct Farm.Farm",
          "name": "",
          "type": "tuple"
        }
      ],
      "stateMutability": "nonpayable",
      "type": "function"
    },
    {
      "inputs": [],
      "name": "levelUp",
      "outputs": [],
      "stateMutability": "nonpayable",
      "type": "function"
    },
    {
      "inputs": [
        {
          "internalType": "uint256",
          "name": "price",
          "type": "uint256"
        }
      ],
      "name": "getMarketPrice",
      "outputs": [
        {
          "internalType": "uint256",
          "name": "conversion",
          "type": "uint256"
        }
      ],
      "stateMutability": "view",
      "type": "function"
    }
  ],
  "bytecode": "0x60806040526107086003553480156200001757600080fd5b50604051620033163803806200331683398181016040528101906200003d91906200009b565b806000806101000a81548173ffffffffffffffffffffffffffffffffffffffff021916908373ffffffffffffffffffffffffffffffffffffffff1602179055505062000129565b60008151905062000095816200010f565b92915050565b600060208284031215620000ae57600080fd5b6000620000be8482850162000084565b91505092915050565b6000620000d482620000ef565b9050919050565b6000620000e882620000c7565b9050919050565b600073ffffffffffffffffffffffffffffffffffffffff82169050919050565b6200011a81620000db565b81146200012657600080fd5b50565b6131dd80620001396000396000f3fe60806040526004361061004e5760003560e01c8063061278c01461005a5780634ea1ecf9146100765780635690314c1461008d5780638928378e146100b8578063d53f9c9b146100f557610055565b3661005557005b600080fd5b610074600480360381019061006f9190612691565b610132565b005b34801561008257600080fd5b5061008b610769565b005b34801561009957600080fd5b506100a2610c44565b6040516100af9190612d5d565b60405180910390f35b3480156100c457600080fd5b506100df60048036038101906100da91906126fb565b610d17565b6040516100ec9190612f81565b60405180910390f35b34801561010157600080fd5b5061011c600480360381019061011791906126ba565b610d3f565b6040516101299190612f5f565b60405180910390f35b6000600260003373ffffffffffffffffffffffffffffffffffffffff1673ffffffffffffffffffffffffffffffffffffffff16815260200190815260200160002054146101b4576040517f08c379a00000000000000000000000000000000000000000000000000000000081526004016101ab90612d9f565b60405180910390fd5b60008060009054906101000a900473ffffffffffffffffffffffffffffffffffffffff1673ffffffffffffffffffffffffffffffffffffffff1663313ce5676040518163ffffffff1660e01b815260040160206040518083038186803b15801561021d57600080fd5b505afa158015610231573d6000803e3d6000fd5b505050506040513d601f19601f82011682018060405250810190610255919061274d565b60ff16905060028103600a0a6001023410156102a6576040517f08c379a000000000000000000000000000000000000000000000000000000000815260040161029d90612e9f565b60405180910390fd5b73060697e9d4eea886ebece57a974facd53a40865b73ffffffffffffffffffffffffffffffffffffffff168273ffffffffffffffffffffffffffffffffffffffff161480610333575073d3f81260a44a1df7a7269cf66abd9c7e4f8cdcd173ffffffffffffffffffffffffffffffffffffffff168273ffffffffffffffffffffffffffffffffffffffff16145b8061037d5750733c8cb169281196737c493affa8f49a9d823bb9c573ffffffffffffffffffffffffffffffffffffffff168273ffffffffffffffffffffffffffffffffffffffff16145b6103bc576040517f08c379a00000000000000000000000000000000000000000000000000000000081526004016103b390612edf565b60405180910390fd5b6000808373ffffffffffffffffffffffffffffffffffffffff16346040516103e390612cdb565b60006040518083038185875af1925050503d8060008114610420576040519150601f19603f3d011682016040523d82523d6000602084013e610425565b606091505b50915091508161046a576040517f08c379a000000000000000000000000000000000000000000000000000000000815260040161046190612e1f565b60405180910390fd5b6000600160003373ffffffffffffffffffffffffffffffffffffffff1673ffffffffffffffffffffffffffffffffffffffff168152602001908152602001600020905060006040518060400160405280600060078111156104c757fe5b81526020016000815250905060006040518060400160405280600160078111156104ed57fe5b8152602001600081525090508282908060018154018082558091505060019003906000526020600020906002020160009091909190915060008201518160000160006101000a81548160ff0219169083600781111561054857fe5b02179055506020820151816001015550508281908060018154018082558091505060019003906000526020600020906002020160009091909190915060008201518160000160006101000a81548160ff021916908360078111156105a857fe5b02179055506020820151816001015550508281908060018154018082558091505060019003906000526020600020906002020160009091909190915060008201518160000160006101000a81548160ff0219169083600781111561060857fe5b02179055506020820151816001015550508281908060018154018082558091505060019003906000526020600020906002020160009091909190915060008201518160000160006101000a81548160ff0219169083600781111561066857fe5b02179055506020820151816001015550508282908060018154018082558091505060019003906000526020600020906002020160009091909190915060008201518160000160006101000a81548160ff021916908360078111156106c857fe5b021790555060208201518160010155505042600260003373ffffffffffffffffffffffffffffffffffffffff1673ffffffffffffffffffffffffffffffffffffffff168152602001908152602001600020819055503373ffffffffffffffffffffffffffffffffffffffff167f46963f16723a084f2199eb74021bd97647aa6c8960612a9a031ce509d40d4ca760405160405180910390a250505050505050565b6000610773611116565b116107b3576040517f08c379a00000000000000000000000000000000000000000000000000000000081526004016107aa90612f3f565b60405180910390fd5b6011600160003373ffffffffffffffffffffffffffffffffffffffff1673ffffffffffffffffffffffffffffffffffffffff168152602001908152602001600020805490501115610839576040517f08c379a000000000000000000000000000000000000000000000000000000000815260040161083090612dff565b60405180910390fd5b3373ffffffffffffffffffffffffffffffffffffffff167fbe35fe23c13a419d565edccb8c8bdedc160c5b9a82873e431b545080d6f3c68860405160405180910390a26000600160003373ffffffffffffffffffffffffffffffffffffffff1673ffffffffffffffffffffffffffffffffffffffff168152602001908152602001600020905060006108ce828054905061115d565b905060006108db82610d17565b905060008060009054906101000a900473ffffffffffffffffffffffffffffffffffffffff1673ffffffffffffffffffffffffffffffffffffffff166370a08231336040518263ffffffff1660e01b81526004016109399190612cf0565b60206040518083038186803b15801561095157600080fd5b505afa158015610965573d6000803e3d6000fd5b505050506040513d601f19601f820116820180604052508101906109899190612724565b9050818110156109ce576040517f08c379a00000000000000000000000000000000000000000000000000000000081526004016109c590612d7f565b60405180910390fd5b60006040518060400160405280600060078111156109e857fe5b815260200142815250905060005b6003811015610a6c578582908060018154018082558091505060019003906000526020600020906002020160009091909190915060008201518160000160006101000a81548160ff02191690836007811115610a4e57fe5b021790555060208201518160010155505080806001019150506109f6565b5060008054906101000a900473ffffffffffffffffffffffffffffffffffffffff1673ffffffffffffffffffffffffffffffffffffffff16639dc29fac33856040518363ffffffff1660e01b8152600401610ac8929190612d0b565b600060405180830381600087803b158015610ae257600080fd5b505af1158015610af6573d6000803e3d6000fd5b505050506000610b1060648561125a90919063ffffffff16565b905060008054906101000a900473ffffffffffffffffffffffffffffffffffffffff1673ffffffffffffffffffffffffffffffffffffffff166340c10f1960008054906101000a900473ffffffffffffffffffffffffffffffffffffffff1673ffffffffffffffffffffffffffffffffffffffff1663893d20e86040518163ffffffff1660e01b815260040160206040518083038186803b158015610bb457600080fd5b505afa158015610bc8573d6000803e3d6000fd5b505050506040513d601f19601f82011682018060405250810190610bec9190612668565b836040518363ffffffff1660e01b8152600401610c0a929190612d34565b600060405180830381600087803b158015610c2457600080fd5b505af1158015610c38573d6000803e3d6000fd5b50505050505050505050565b6060600160003373ffffffffffffffffffffffffffffffffffffffff1673ffffffffffffffffffffffffffffffffffffffff168152602001908152602001600020805480602002602001604051908101604052809291908181526020016000905b82821015610d0e57838290600052602060002090600202016040518060400160405290816000820160009054906101000a900460ff166007811115610ce657fe5b6007811115610cf157fe5b815260200160018201548152505081526020019060010190610ca5565b50505050905090565b600080610d226112a4565b9050610d37818461125a90919063ffffffff16565b915050919050565b610d476124b1565b6000610d51611116565b11610d91576040517f08c379a0000000000000000000000000000000000000000000000000000000008152600401610d8890612f3f565b60405180910390fd5b6000610d9c83611493565b90506000600160003373ffffffffffffffffffffffffffffffffffffffff1673ffffffffffffffffffffffffffffffffffffffff168152602001908152602001600020905060005b826000015151811015610e645782600001518181518110610e0157fe5b6020026020010151828281548110610e1557fe5b906000526020600020906002020160008201518160000160006101000a81548160ff02191690836007811115610e4757fe5b021790555060208201518160010155905050600181019050610de4565b5042600260003373ffffffffffffffffffffffffffffffffffffffff1673ffffffffffffffffffffffffffffffffffffffff168152602001908152602001600020819055503373ffffffffffffffffffffffffffffffffffffffff167fbe35fe23c13a419d565edccb8c8bdedc160c5b9a82873e431b545080d6f3c68860405160405180910390a260008060009054906101000a900473ffffffffffffffffffffffffffffffffffffffff1673ffffffffffffffffffffffffffffffffffffffff166370a08231336040518263ffffffff1660e01b8152600401610f489190612cf0565b60206040518083038186803b158015610f6057600080fd5b505afa158015610f74573d6000803e3d6000fd5b505050506040513d601f19601f82011682018060405250810190610f989190612724565b90508083602001511115611054576000610fbf828560200151611ada90919063ffffffff16565b905060008054906101000a900473ffffffffffffffffffffffffffffffffffffffff1673ffffffffffffffffffffffffffffffffffffffff166340c10f1933836040518363ffffffff1660e01b815260040161101c929190612d0b565b600060405180830381600087803b15801561103657600080fd5b505af115801561104a573d6000803e3d6000fd5b505050505061110b565b808360200151101561110a576000611079846020015183611ada90919063ffffffff16565b905060008054906101000a900473ffffffffffffffffffffffffffffffffffffffff1673ffffffffffffffffffffffffffffffffffffffff16639dc29fac33836040518363ffffffff1660e01b81526004016110d6929190612d0b565b600060405180830381600087803b1580156110f057600080fd5b505af1158015611104573d6000803e3d6000fd5b50505050505b5b829350505050919050565b6000600260003373ffffffffffffffffffffffffffffffffffffffff1673ffffffffffffffffffffffffffffffffffffffff16815260200190815260200160002054905090565b60008060008054906101000a900473ffffffffffffffffffffffffffffffffffffffff1673ffffffffffffffffffffffffffffffffffffffff1663313ce5676040518163ffffffff1660e01b815260040160206040518083038186803b1580156111c657600080fd5b505afa1580156111da573d6000803e3d6000fd5b505050506040513d601f19601f820116820180604052508101906111fe919061274d565b60ff1690506005831161121a5780600a0a600102915050611255565b600883116112315780600a0a601e02915050611255565b600b83116112495780600a0a61012c02915050611255565b80600a0a6103e8029150505b919050565b600061129c83836040518060400160405280601a81526020017f536166654d6174683a206469766973696f6e206279207a65726f000000000000815250611b24565b905092915050565b60008060008054906101000a900473ffffffffffffffffffffffffffffffffffffffff1673ffffffffffffffffffffffffffffffffffffffff1663313ce5676040518163ffffffff1660e01b815260040160206040518083038186803b15801561130d57600080fd5b505afa158015611321573d6000803e3d6000fd5b505050506040513d601f19601f82011682018060405250810190611345919061274d565b60ff16905060008060009054906101000a900473ffffffffffffffffffffffffffffffffffffffff1673ffffffffffffffffffffffffffffffffffffffff166318160ddd6040518163ffffffff1660e01b815260040160206040518083038186803b1580156113b357600080fd5b505afa1580156113c7573d6000803e3d6000fd5b505050506040513d601f19601f820116820180604052508101906113eb9190612724565b905081600a0a6127100281101561140757600192505050611490565b81600a0a620186a00281101561142257600a92505050611490565b81600a0a620f42400281101561143d57606492505050611490565b81600a0a6298968002811015611459576103e892505050611490565b81600a0a6305f5e100028110156114765761271092505050611490565b61148b6127108261125a90919063ffffffff16565b925050505b90565b61149b6124b1565b60006114a5611116565b116114e5576040517f08c379a00000000000000000000000000000000000000000000000000000000081526004016114dc90612f3f565b60405180910390fd5b6000600160003373ffffffffffffffffffffffffffffffffffffffff1673ffffffffffffffffffffffffffffffffffffffff168152602001908152602001600020805480602002602001604051908101604052809291908181526020016000905b828210156115af57838290600052602060002090600202016040518060400160405290816000820160009054906101000a900460ff16600781111561158757fe5b600781111561159257fe5b815260200160018201548152505081526020019060010190611546565b50505050905060008060009054906101000a900473ffffffffffffffffffffffffffffffffffffffff1673ffffffffffffffffffffffffffffffffffffffff166370a08231336040518263ffffffff1660e01b81526004016116119190612cf0565b60206040518083038186803b15801561162957600080fd5b505afa15801561163d573d6000803e3d6000fd5b505050506040513d601f19601f820116820180604052508101906116619190612724565b905060005b8451811015611abb57600085828151811061167d57fe5b60200260200101519050600061169e60035442611ada90919063ffffffff16565b905080826060015110156116e7576040517f08c379a00000000000000000000000000000000000000000000000000000000081526004016116de90612e7f565b60405180910390fd5b6116ef611116565b82606001511015611735576040517f08c379a000000000000000000000000000000000000000000000000000000000815260040161172c90612dbf565b60405180910390fd5b428260600151111561177c576040517f08c379a000000000000000000000000000000000000000000000000000000000815260040161177390612e3f565b60405180910390fd5b60008311156117e75786600184038151811061179457fe5b602002602001015160600151826060015110156117e6576040517f08c379a00000000000000000000000000000000000000000000000000000000081526004016117dd90612e5f565b60405180910390fd5b5b600060018111156117f457fe5b8260000151600181111561180457fe5b1415611920576118178260200151611bea565b8551101561185a576040517f08c379a000000000000000000000000000000000000000000000000000000000815260040161185190612eff565b60405180910390fd5b60006118698360200151611d40565b9050600061187682610d17565b9050808610156118bb576040517f08c379a00000000000000000000000000000000000000000000000000000000081526004016118b290612d7f565b60405180910390fd5b6118ce8187611ada90919063ffffffff16565b955060006040518060400160405280866020015160078111156118ed57fe5b815260200186606001518152509050808886604001518151811061190d57fe5b6020026020010181905250505050611aac565b60018081111561192c57fe5b8260000151600181111561193c57fe5b1415611aab5760008583604001518151811061195457fe5b602002602001015190506000600781111561196b57fe5b8160000151600781111561197b57fe5b14156119bc576040517f08c379a00000000000000000000000000000000000000000000000000000000081526004016119b390612f1f565b60405180910390fd5b60006119d982602001518560600151611ada90919063ffffffff16565b905060006119ea8360000151611f98565b905080821015611a2f576040517f08c379a0000000000000000000000000000000000000000000000000000000008152600401611a2690612ebf565b60405180910390fd5b6000604051806040016040528060006007811115611a4957fe5b8152602001600081525090508089876040015181518110611a6657fe5b60200260200101819052506000611a808560000151612103565b90506000611a8d82610d17565b9050611aa2818b61236990919063ffffffff16565b99505050505050505b5b50508080600101915050611666565b5060405180604001604052808381526020018281525092505050919050565b6000611b1c83836040518060400160405280601e81526020017f536166654d6174683a207375627472616374696f6e206f766572666c6f7700008152506123f1565b905092915050565b60008083118290611bd0576040517f08c379a00000000000000000000000000000000000000000000000000000000081526004018080602001828103825283818151815260200191508051906020019080838360005b83811015611b95578082015181840152602081019050611b7a565b50505050905090810190601f168015611bc25780820380516001836020036101000a031916815260200191505b509250505060405180910390fd5b506000838581611bdc57fe5b049050809150509392505050565b600060016007811115611bf957fe5b826007811115611c0557fe5b1480611c27575060026007811115611c1957fe5b826007811115611c2557fe5b145b15611c355760059050611d3b565b60036007811115611c4257fe5b826007811115611c4e57fe5b1480611c70575060046007811115611c6257fe5b826007811115611c6e57fe5b145b15611c7e5760089050611d3b565b60056007811115611c8b57fe5b826007811115611c9757fe5b1415611ca657600b9050611d3b565b60066007811115611cb357fe5b826007811115611cbf57fe5b1415611cce57600e9050611d3b565b600780811115611cda57fe5b826007811115611ce657fe5b1415611cf55760119050611d3b565b6000611d36576040517f08c379a0000000000000000000000000000000000000000000000000000000008152600401611d2d90612ddf565b60405180910390fd5b606390505b919050565b60008060008054906101000a900473ffffffffffffffffffffffffffffffffffffffff1673ffffffffffffffffffffffffffffffffffffffff1663313ce5676040518163ffffffff1660e01b815260040160206040518083038186803b158015611da957600080fd5b505afa158015611dbd573d6000803e3d6000fd5b505050506040513d601f19601f82011682018060405250810190611de1919061274d565b60ff16905060016007811115611df357fe5b836007811115611dff57fe5b1415611e1e57606481600a0a60010281611e1557fe5b04915050611f93565b60026007811115611e2b57fe5b836007811115611e3757fe5b1415611e5657606481600a0a60060281611e4d57fe5b04915050611f93565b60036007811115611e6357fe5b836007811115611e6f57fe5b1415611e8e57606481600a0a60140281611e8557fe5b04915050611f93565b60046007811115611e9b57fe5b836007811115611ea757fe5b1415611ebc5780600a0a600102915050611f93565b60056007811115611ec957fe5b836007811115611ed557fe5b1415611eea5780600a0a600202915050611f93565b60066007811115611ef757fe5b836007811115611f0357fe5b1415611f185780600a0a600a02915050611f93565b600780811115611f2457fe5b836007811115611f3057fe5b1415611f455780600a0a60c802915050611f93565b6000611f86576040517f08c379a0000000000000000000000000000000000000000000000000000000008152600401611f7d90612ddf565b60405180910390fd5b80600a0a620186a0029150505b919050565b600060016007811115611fa757fe5b826007811115611fb357fe5b1415611fc257603c90506120fe565b60026007811115611fcf57fe5b826007811115611fdb57fe5b1415611fea5760b490506120fe565b60036007811115611ff757fe5b82600781111561200357fe5b1415612013576101e090506120fe565b6004600781111561202057fe5b82600781111561202c57fe5b141561203c576105a090506120fe565b6005600781111561204957fe5b82600781111561205557fe5b1415612065576110e090506120fe565b6006600781111561207257fe5b82600781111561207e57fe5b141561208e5761276090506120fe565b60078081111561209a57fe5b8260078111156120a657fe5b14156120b657619d8090506120fe565b60006120f7576040517f08c379a00000000000000000000000000000000000000000000000000000000081526004016120ee90612ddf565b60405180910390fd5b6298967f90505b919050565b60008060008054906101000a900473ffffffffffffffffffffffffffffffffffffffff1673ffffffffffffffffffffffffffffffffffffffff1663313ce5676040518163ffffffff1660e01b815260040160206040518083038186803b15801561216c57600080fd5b505afa158015612180573d6000803e3d6000fd5b505050506040513d601f19601f820116820180604052508101906121a4919061274d565b60ff169050600160078111156121b657fe5b8360078111156121c257fe5b14156121e157606481600a0a600202816121d857fe5b04915050612364565b600260078111156121ee57fe5b8360078111156121fa57fe5b141561221957606481600a0a600c028161221057fe5b04915050612364565b6003600781111561222657fe5b83600781111561223257fe5b141561225157606481600a0a6038028161224857fe5b04915050612364565b6004600781111561225e57fe5b83600781111561226a57fe5b141561228957606481600a0a60e6028161228057fe5b04915050612364565b6005600781111561229657fe5b8360078111156122a257fe5b14156122c257606481600a0a61028002816122b957fe5b04915050612364565b600660078111156122cf57fe5b8360078111156122db57fe5b14156122f05780600a0a601402915050612364565b6007808111156122fc57fe5b83600781111561230857fe5b141561231d5780600a0a60fa02915050612364565b600061235e576040517f08c379a000000000000000000000000000000000000000000000000000000000815260040161235590612ddf565b60405180910390fd5b60009150505b919050565b6000808284019050838110156123e7576040517f08c379a000000000000000000000000000000000000000000000000000000000815260040180806020018281038252601b8152602001807f536166654d6174683a206164646974696f6e206f766572666c6f77000000000081525060200191505060405180910390fd5b8091505092915050565b600083831115829061249e576040517f08c379a00000000000000000000000000000000000000000000000000000000081526004018080602001828103825283818151815260200191508051906020019080838360005b83811015612463578082015181840152602081019050612448565b50505050905090810190601f1680156124905780820380516001836020036101000a031916815260200191505b509250505060405180910390fd5b5060008385039050809150509392505050565b604051806040016040528060608152602001600081525090565b60006124de6124d984612fcd565b612f9c565b905080838252602082019050828560808602820111156124fd57600080fd5b60005b8581101561252d578161251388826125b5565b845260208401935060808301925050600181019050612500565b5050509392505050565b6000815190506125468161312b565b92915050565b60008135905061255b81613142565b92915050565b600082601f83011261257257600080fd5b81356125828482602086016124cb565b91505092915050565b60008135905061259a81613159565b92915050565b6000813590506125af81613169565b92915050565b6000608082840312156125c757600080fd5b6125d16080612f9c565b905060006125e18482850161258b565b60008301525060206125f5848285016125a0565b602083015250604061260984828501612629565b604083015250606061261d84828501612629565b60608301525092915050565b60008135905061263881613179565b92915050565b60008151905061264d81613179565b92915050565b60008151905061266281613190565b92915050565b60006020828403121561267a57600080fd5b600061268884828501612537565b91505092915050565b6000602082840312156126a357600080fd5b60006126b18482850161254c565b91505092915050565b6000602082840312156126cc57600080fd5b600082013567ffffffffffffffff8111156126e657600080fd5b6126f284828501612561565b91505092915050565b60006020828403121561270d57600080fd5b600061271b84828501612629565b91505092915050565b60006020828403121561273657600080fd5b60006127448482850161263e565b91505092915050565b60006020828403121561275f57600080fd5b600061276d84828501612653565b91505092915050565b60006127828383612c8e565b60408301905092915050565b612797816130cd565b82525050565b6127a68161305f565b82525050565b60006127b782613009565b6127c18185613021565b93506127cc83612ff9565b8060005b838110156127fd5781516127e48882612776565b97506127ef83613014565b9250506001810190506127d0565b5085935050505092915050565b600061281582613009565b61281f8185613032565b935061282a83612ff9565b8060005b8381101561285b5781516128428882612776565b975061284d83613014565b92505060018101905061282e565b5085935050505092915050565b612871816130df565b82525050565b600061288460128361304e565b91507f494e53554646494349454e545f46554e445300000000000000000000000000006000830152602082019050919050565b60006128c4600b8361304e565b91507f4641524d5f4558495354530000000000000000000000000000000000000000006000830152602082019050919050565b6000612904600d8361304e565b91507f4556454e545f494e5f50415354000000000000000000000000000000000000006000830152602082019050919050565b6000612944600d8361304e565b91507f494e56414c49445f4652554954000000000000000000000000000000000000006000830152602082019050919050565b600061298460098361304e565b91507f4d41585f4c4556454c00000000000000000000000000000000000000000000006000830152602082019050919050565b60006129c4600f8361304e565b91507f444f4e4154494f4e5f4641494c454400000000000000000000000000000000006000830152602082019050919050565b6000612a04600f8361304e565b91507f4556454e545f494e5f46555455524500000000000000000000000000000000006000830152602082019050919050565b6000612a44600d8361304e565b91507f494e56414c49445f4f52444552000000000000000000000000000000000000006000830152602082019050919050565b6000612a84600d8361304e565b91507f4556454e545f45585049524544000000000000000000000000000000000000006000830152602082019050919050565b6000612ac460158361304e565b91507f494e53554646494349454e545f444f4e4154494f4e00000000000000000000006000830152602082019050919050565b6000612b04600083613043565b9150600082019050919050565b6000612b1e60088361304e565b91507f4e4f545f524950450000000000000000000000000000000000000000000000006000830152602082019050919050565b6000612b5e600f8361304e565b91507f494e56414c49445f4348415249545900000000000000000000000000000000006000830152602082019050919050565b6000612b9e600d8361304e565b91507f494e56414c49445f4c4556454c000000000000000000000000000000000000006000830152602082019050919050565b6000612bde60088361304e565b91507f4e4f5f46525549540000000000000000000000000000000000000000000000006000830152602082019050919050565b6000612c1e60078361304e565b91507f4e4f5f4641524d000000000000000000000000000000000000000000000000006000830152602082019050919050565b60006040830160008301518482036000860152612c6e82826127ac565b9150506020830151612c836020860182612cbd565b508091505092915050565b604082016000820151612ca46000850182612868565b506020820151612cb76020850182612cbd565b50505050565b612cc6816130b6565b82525050565b612cd5816130b6565b82525050565b6000612ce682612af7565b9150819050919050565b6000602082019050612d05600083018461278e565b92915050565b6000604082019050612d20600083018561278e565b612d2d6020830184612ccc565b9392505050565b6000604082019050612d49600083018561279d565b612d566020830184612ccc565b9392505050565b60006020820190508181036000830152612d77818461280a565b905092915050565b60006020820190508181036000830152612d9881612877565b9050919050565b60006020820190508181036000830152612db8816128b7565b9050919050565b60006020820190508181036000830152612dd8816128f7565b9050919050565b60006020820190508181036000830152612df881612937565b9050919050565b60006020820190508181036000830152612e1881612977565b9050919050565b60006020820190508181036000830152612e38816129b7565b9050919050565b60006020820190508181036000830152612e58816129f7565b9050919050565b60006020820190508181036000830152612e7881612a37565b9050919050565b60006020820190508181036000830152612e9881612a77565b9050919050565b60006020820190508181036000830152612eb881612ab7565b9050919050565b60006020820190508181036000830152612ed881612b11565b9050919050565b60006020820190508181036000830152612ef881612b51565b9050919050565b60006020820190508181036000830152612f1881612b91565b9050919050565b60006020820190508181036000830152612f3881612bd1565b9050919050565b60006020820190508181036000830152612f5881612c11565b9050919050565b60006020820190508181036000830152612f798184612c51565b905092915050565b6000602082019050612f966000830184612ccc565b92915050565b6000604051905081810181811067ffffffffffffffff82111715612fc357612fc2613115565b5b8060405250919050565b600067ffffffffffffffff821115612fe857612fe7613115565b5b602082029050602081019050919050565b6000819050602082019050919050565b600081519050919050565b6000602082019050919050565b600082825260208201905092915050565b600082825260208201905092915050565b600081905092915050565b600082825260208201905092915050565b600061306a82613096565b9050919050565b600061307c82613096565b9050919050565b600081905061309182613117565b919050565b600073ffffffffffffffffffffffffffffffffffffffff82169050919050565b6000819050919050565b600060ff82169050919050565b60006130d8826130f1565b9050919050565b60006130ea82613083565b9050919050565b60006130fc82613103565b9050919050565b600061310e82613096565b9050919050565bfe5b6008811061312857613127613115565b5b50565b6131348161305f565b811461313f57600080fd5b50565b61314b81613071565b811461315657600080fd5b50565b6002811061316657600080fd5b50565b6008811061317657600080fd5b50565b613182816130b6565b811461318d57600080fd5b50565b613199816130c0565b81146131a457600080fd5b5056fea264697066735822122079388c901328d57a2a1a911541794da24cda65464d667b3b55e198987d942fe764736f6c63430007060033",
  "immutableReferences": {},
  "source": "pragma solidity >=0.6.0 <0.8.0;\r\npragma experimental ABIEncoderV2;\r\n\r\nimport \"@openzeppelin/contracts/math/Math.sol\";\r\nimport \"./Token.sol\";\r\n\r\ncontract Farm {\r\n    using SafeMath for uint256;\r\n\r\n    Token private token;\r\n\r\n    struct Square {\r\n        Fruit fruit;\r\n        uint createdAt;\r\n    }\r\n\r\n    mapping(address => Square[]) fields;\r\n    mapping(address => uint) syncedAt;\r\n\r\n    constructor(Token _token) public {\r\n        token = _token;\r\n    }\r\n\r\n    event FarmCreated(address indexed _address);\r\n    event FarmSynced(address indexed _address);\r\n\r\n    // Function to receive Ether. msg.data must be empty\r\n    receive() external payable {}\r\n\r\n    // Fallback function is called when msg.data is not empty\r\n    //fallback() external payable {}\r\n\r\n\r\n    function createFarm(address payable _charity) public payable {\r\n        require(syncedAt[msg.sender] == 0, \"FARM_EXISTS\");\r\n\r\n        uint decimals = token.decimals();\r\n\r\n        require(\r\n            // TODO use $1 in production\r\n            msg.value >= 1 * 10**(decimals - 2),\r\n            \"INSUFFICIENT_DONATION\"\r\n        );\r\n\r\n        require(\r\n            // The Water Project - double check\r\n            _charity == address(0x060697E9d4EEa886EbeCe57A974Facd53A40865B)\r\n            // Heifer\r\n            || _charity == address(0xD3F81260a44A1df7A7269CF66Abd9c7e4f8CdcD1)\r\n            // Cool Earth\r\n            || _charity == address(0x3c8cB169281196737c493AfFA8F49a9d823bB9c5),\r\n            \"INVALID_CHARITY\"\r\n        );\r\n\r\n        (bool sent, bytes memory data) = _charity.call{value: msg.value}(\"\");\r\n        require(sent, \"DONATION_FAILED\");\r\n\r\n\r\n        Square[] storage land = fields[msg.sender];\r\n        Square memory empty = Square({\r\n            fruit: Fruit.None,\r\n            createdAt: 0\r\n        });\r\n        Square memory sunflower = Square({\r\n            fruit: Fruit.Sunflower,\r\n            createdAt: 0\r\n        });\r\n\r\n        // Each farmer starts with 5 fields & 3 Sunflowers\r\n        land.push(empty);\r\n        land.push(sunflower);\r\n        land.push(sunflower);\r\n        land.push(sunflower);\r\n        land.push(empty);\r\n\r\n        syncedAt[msg.sender] = block.timestamp;\r\n\r\n        //Emit an event\r\n        emit FarmCreated(msg.sender);\r\n    }\r\n    \r\n    function lastSyncedAt() private view returns(uint) {\r\n        return syncedAt[msg.sender];\r\n    }\r\n\r\n\r\n    function getLand() public view returns (Square[] memory) {\r\n        return fields[msg.sender];\r\n    }\r\n\r\n    enum Action { Plant, Harvest }\r\n    enum Fruit { None, Sunflower, Potato, Pumpkin, Beetroot, Cauliflower, Money, Diamond }\r\n\r\n    struct Event { \r\n        Action action;\r\n        Fruit fruit;\r\n        uint landIndex;\r\n        uint createdAt;\r\n    }\r\n\r\n    struct Farm {\r\n        Square[] land;\r\n        uint balance;\r\n    }\r\n\r\n    // TODO this is currently in minutes\r\n    function getHarvestHours(Fruit _fruit) private pure returns (uint) {\r\n        if (_fruit == Fruit.Sunflower) {\r\n            return 1 * 60;\r\n        } else if (_fruit == Fruit.Potato) {\r\n            return 3 * 60;\r\n        } else if (_fruit == Fruit.Pumpkin) {\r\n            return 8 * 60;\r\n        } else if (_fruit == Fruit.Beetroot) {\r\n            // 1 Day\r\n            return 24 * 60;\r\n        } else if (_fruit == Fruit.Cauliflower) {\r\n            // 3 days\r\n            return 72 * 60;\r\n        } else if (_fruit == Fruit.Money) {\r\n            // 1 week\r\n            return 168 * 60;\r\n        } else if (_fruit == Fruit.Diamond) {\r\n            // 4 weeks\r\n            return 672 * 60;\r\n        }\r\n\r\n        require(false, \"INVALID_FRUIT\");\r\n        return 9999999;\r\n    }\r\n\r\n    function getSeedPrice(Fruit _fruit) private view returns (uint price) {\r\n        uint decimals = token.decimals();\r\n\r\n        if (_fruit == Fruit.Sunflower) {\r\n            //$0.01\r\n            return 1 * 10**decimals / 100;\r\n        } else if (_fruit == Fruit.Potato) {\r\n            // $0.06\r\n            return 6 * 10**decimals / 100;\r\n        } else if (_fruit == Fruit.Pumpkin) {\r\n            // $0.20\r\n            return 20 * 10**decimals / 100;\r\n        } else if (_fruit == Fruit.Beetroot) {\r\n            // $1\r\n            return 1 * 10**decimals;\r\n        } else if (_fruit == Fruit.Cauliflower) {\r\n            // $2\r\n            return 2 * 10**decimals;\r\n        } else if (_fruit == Fruit.Money) {\r\n            // $10\r\n            return 10 * 10**decimals;\r\n        } else if (_fruit == Fruit.Diamond) {\r\n            // $200\r\n            return 200 * 10**decimals;\r\n        }\r\n\r\n        require(false, \"INVALID_FRUIT\");\r\n\r\n        return 100000 * 10**decimals;\r\n    }\r\n\r\n    function getFruitPrice(Fruit _fruit) private view returns (uint price) {\r\n        uint decimals = token.decimals();\r\n\r\n        if (_fruit == Fruit.Sunflower) {\r\n            // $0.02\r\n            return 2 * 10**decimals / 100;\r\n        } else if (_fruit == Fruit.Potato) {\r\n            // $0.12\r\n            return 12 * 10**decimals / 100;\r\n        } else if (_fruit == Fruit.Pumpkin) {\r\n            // $0.56\r\n            return 56 * 10**decimals / 100;\r\n        } else if (_fruit == Fruit.Beetroot) {\r\n            // $2.30\r\n            return 230 * 10**decimals / 100;\r\n        } else if (_fruit == Fruit.Cauliflower) {\r\n            // $6.40\r\n            return 640 * 10**decimals / 100;\r\n        } else if (_fruit == Fruit.Money) {\r\n            // $20\r\n            return 20 * 10**decimals;\r\n        } else if (_fruit == Fruit.Diamond) {\r\n            // $250\r\n            return 250 * 10**decimals;\r\n        }\r\n\r\n        require(false, \"INVALID_FRUIT\");\r\n\r\n        return 0;\r\n    }\r\n    \r\n    function requiredLandSize(Fruit _fruit) private pure returns (uint size) {\r\n        if (_fruit == Fruit.Sunflower || _fruit == Fruit.Potato) {\r\n            return 5;\r\n        } else if (_fruit == Fruit.Pumpkin || _fruit == Fruit.Beetroot) {\r\n            return 8;\r\n        } else if (_fruit == Fruit.Cauliflower) {\r\n            return 11;\r\n        } else if (_fruit == Fruit.Money) {\r\n            return 14;\r\n        } else if (_fruit == Fruit.Diamond) {\r\n            return 17;\r\n        }\r\n\r\n        require(false, \"INVALID_FRUIT\");\r\n\r\n        return 99;\r\n    }\r\n    \r\n       \r\n    function getLandPrice(uint landSize) private view returns (uint price) {\r\n        uint decimals = token.decimals();\r\n        if (landSize <= 5) {\r\n            // $1\r\n            return 1 * 10**decimals;\r\n        } else if (landSize <= 8) {\r\n            // $30\r\n            return 30 * 10**decimals;\r\n        } else if (landSize <= 11) {\r\n            // $300\r\n            return 300 * 10**decimals;\r\n        }\r\n        \r\n        // $1000\r\n        return 1000 * 10**decimals;\r\n    }\r\n\r\n    modifier hasFarm {\r\n        require(lastSyncedAt() > 0, \"NO_FARM\");\r\n        _;\r\n    }\r\n     \r\n    uint private THIRTY_MINUTES = 30 * 60;\r\n\r\n    function buildFarm(Event[] memory _events) private view hasFarm returns (Farm memory currentFarm) {\r\n        Square[] memory land = fields[msg.sender];\r\n        uint balance = token.balanceOf(msg.sender);\r\n        \r\n        for (uint index = 0; index < _events.length; index++) {\r\n            Event memory farmEvent = _events[index];\r\n\r\n            uint thirtyMinutesAgo = block.timestamp.sub(THIRTY_MINUTES); \r\n            require(farmEvent.createdAt >= thirtyMinutesAgo, \"EVENT_EXPIRED\");\r\n            require(farmEvent.createdAt >= lastSyncedAt(), \"EVENT_IN_PAST\");\r\n            require(farmEvent.createdAt <= block.timestamp, \"EVENT_IN_FUTURE\");\r\n\r\n            if (index > 0) {\r\n                require(farmEvent.createdAt >= _events[index - 1].createdAt, \"INVALID_ORDER\");\r\n            }\r\n\r\n            if (farmEvent.action == Action.Plant) {\r\n                require(land.length >= requiredLandSize(farmEvent.fruit), \"INVALID_LEVEL\");\r\n                \r\n                uint price = getSeedPrice(farmEvent.fruit);\r\n                uint fmcPrice = getMarketPrice(price);\r\n                require(balance >= fmcPrice, \"INSUFFICIENT_FUNDS\");\r\n\r\n                balance = balance.sub(fmcPrice);\r\n\r\n                Square memory plantedSeed = Square({\r\n                    fruit: farmEvent.fruit,\r\n                    createdAt: farmEvent.createdAt\r\n                });\r\n                land[farmEvent.landIndex] = plantedSeed;\r\n            } else if (farmEvent.action == Action.Harvest) {\r\n                Square memory square = land[farmEvent.landIndex];\r\n                require(square.fruit != Fruit.None, \"NO_FRUIT\");\r\n\r\n                uint duration = farmEvent.createdAt.sub(square.createdAt);\r\n                // Currently seconds\r\n                uint hoursToHarvest = getHarvestHours(square.fruit);\r\n                require(duration >= hoursToHarvest, \"NOT_RIPE\");\r\n\r\n                // Clear the land\r\n                Square memory emptyLand = Square({\r\n                    fruit: Fruit.None,\r\n                    createdAt: 0\r\n                });\r\n                land[farmEvent.landIndex] = emptyLand;\r\n\r\n                uint price = getFruitPrice(square.fruit);\r\n                uint fmcPrice = getMarketPrice(price);\r\n\r\n                balance = balance.add(fmcPrice);\r\n            }\r\n        }\r\n\r\n        return Farm({\r\n            land: land,\r\n            balance: balance\r\n        });\r\n    }\r\n\r\n\r\n    function sync(Event[] memory _events) public hasFarm returns (Farm memory) {\r\n        Farm memory farm = buildFarm(_events);\r\n\r\n        // Update the land\r\n        Square[] storage land = fields[msg.sender];\r\n        for (uint i=0; i < farm.land.length; i += 1) {\r\n            land[i] = farm.land[i];\r\n        }\r\n        \r\n        syncedAt[msg.sender] = block.timestamp;\r\n        \r\n        emit FarmSynced(msg.sender);\r\n        \r\n        uint balance = token.balanceOf(msg.sender);\r\n        // Update the balance - mint or burn\r\n        if (farm.balance > balance) {\r\n            uint profit = farm.balance.sub(balance);\r\n            token.mint(msg.sender, profit);\r\n        } else if (farm.balance < balance) {\r\n            uint loss = balance.sub(farm.balance);\r\n            token.burn(msg.sender, loss);\r\n        }\r\n        \r\n\r\n        return farm;\r\n    }\r\n\r\n    function levelUp() public hasFarm {\r\n        require(fields[msg.sender].length <= 17, \"MAX_LEVEL\");\r\n\r\n        emit FarmSynced(msg.sender);\r\n        \r\n        Square[] storage land = fields[msg.sender];\r\n\r\n        uint price = getLandPrice(land.length);\r\n        uint fmcPrice = getMarketPrice(price);\r\n        uint balance = token.balanceOf(msg.sender);\r\n\r\n        require(balance >= fmcPrice, \"INSUFFICIENT_FUNDS\");\r\n        \r\n        Square memory empty = Square({\r\n            fruit: Fruit.None,\r\n            createdAt: block.timestamp\r\n        });\r\n\r\n        // Do not bother rearranging the array - it is already in a strange square - Add 3 fields\r\n        for (uint index = 0; index < 3; index++) {\r\n            land.push(empty);\r\n        }\r\n\r\n        token.burn(msg.sender, fmcPrice);\r\n\r\n        // Land tax - An additional 1% of profit goes to maintainers of Fruit Market\r\n        uint commission = fmcPrice.div(100);\r\n        token.mint(token.getOwner(), commission);\r\n    }\r\n\r\n    // How many FMC do you get per dollar\r\n    // Algorithm is totalSupply / 10000 but we do this in gradual steps to avoid widly flucating prices between plant & harvest\r\n    function getMarketRate() private view returns (uint conversion) {\r\n        uint decimals = token.decimals();\r\n        uint totalSupply = token.totalSupply();\r\n\r\n        // Less than 10, 000 FMC tokens\r\n        if (totalSupply < (10000 * 10**decimals)) {\r\n            // 1 Farm Dollar gets you a FMC token\r\n            return 1;\r\n        }\r\n\r\n        // Less than 100, 000 FMC tokens\r\n        if (totalSupply < (100000 * 10**decimals)) {\r\n            return 10;\r\n        }\r\n        // Less than 1, 000, 000 FMC tokens\r\n        if (totalSupply < (1000000 * 10**decimals)) {\r\n            return 100;\r\n        }\r\n\r\n        // Less than 10, 000, 000 FMC tokens\r\n        if (totalSupply < (10000000 * 10**decimals)) {\r\n            return 1000;\r\n        }\r\n\r\n        // Less than 100, 000, 000 FMC tokens\r\n        if (totalSupply < (100000000 * 10**decimals)) {\r\n            return 10000;\r\n        }\r\n\r\n        // 200, 000, 000 -> \r\n        // 1 Farm Dollar gets you a 0.00001 of FMC - Linear growth from here\r\n        return totalSupply.div(10000);\r\n    }\r\n\r\n    function getMarketPrice(uint price) public view returns (uint conversion) {\r\n        uint marketRate = getMarketRate();\r\n\r\n        return price.div(marketRate);\r\n    }\r\n}\r\n",
  "sourcePath": "/Users/adamhannigan/Documents/workspace/fruit-market/src/contracts/Farm.sol",
  "compiler": {
    "name": "solc",
    "version": "0.7.6+commit.7338295f.Emscripten.clang"
  },
  "schemaVersion": "3.4.0",
  "updatedAt": "2021-07-08T07:16:52.597Z",
  "devdoc": {
    "kind": "dev",
    "methods": {},
    "version": 1
  },
  "userdoc": {
    "kind": "user",
    "methods": {},
    "version": 1
  }
}