{
  "contractName": "Farm",
  "abi": [
    {
      "inputs": [
        {
          "internalType": "contract Token",
          "name": "_token",
          "type": "address"
        }
      ],
      "stateMutability": "nonpayable",
      "type": "constructor"
    },
    {
      "anonymous": false,
      "inputs": [
        {
          "indexed": true,
          "internalType": "address",
          "name": "_address",
          "type": "address"
        }
      ],
      "name": "FarmCreated",
      "type": "event"
    },
    {
      "anonymous": false,
      "inputs": [
        {
          "indexed": true,
          "internalType": "address",
          "name": "_address",
          "type": "address"
        }
      ],
      "name": "FarmSynced",
      "type": "event"
    },
    {
      "stateMutability": "payable",
      "type": "receive"
    },
    {
      "inputs": [
        {
          "internalType": "address payable",
          "name": "_charity",
          "type": "address"
        }
      ],
      "name": "createFarm",
      "outputs": [],
      "stateMutability": "payable",
      "type": "function"
    },
    {
      "inputs": [],
      "name": "getLand",
      "outputs": [
        {
          "components": [
            {
              "internalType": "enum Farm.Fruit",
              "name": "fruit",
              "type": "uint8"
            },
            {
              "internalType": "uint256",
              "name": "createdAt",
              "type": "uint256"
            }
          ],
          "internalType": "struct Farm.Square[]",
          "name": "",
          "type": "tuple[]"
        }
      ],
      "stateMutability": "view",
      "type": "function"
    },
    {
      "inputs": [
        {
          "components": [
            {
              "internalType": "enum Farm.Action",
              "name": "action",
              "type": "uint8"
            },
            {
              "internalType": "enum Farm.Fruit",
              "name": "fruit",
              "type": "uint8"
            },
            {
              "internalType": "uint256",
              "name": "landIndex",
              "type": "uint256"
            },
            {
              "internalType": "uint256",
              "name": "createdAt",
              "type": "uint256"
            }
          ],
          "internalType": "struct Farm.Event[]",
          "name": "_events",
          "type": "tuple[]"
        }
      ],
      "name": "sync",
      "outputs": [
        {
          "components": [
            {
              "components": [
                {
                  "internalType": "enum Farm.Fruit",
                  "name": "fruit",
                  "type": "uint8"
                },
                {
                  "internalType": "uint256",
                  "name": "createdAt",
                  "type": "uint256"
                }
              ],
              "internalType": "struct Farm.Square[]",
              "name": "land",
              "type": "tuple[]"
            },
            {
              "internalType": "uint256",
              "name": "balance",
              "type": "uint256"
            }
          ],
          "internalType": "struct Farm.Farm",
          "name": "",
          "type": "tuple"
        }
      ],
      "stateMutability": "nonpayable",
      "type": "function"
    },
    {
      "inputs": [],
      "name": "levelUp",
      "outputs": [],
      "stateMutability": "nonpayable",
      "type": "function"
    },
    {
      "inputs": [
        {
          "internalType": "uint256",
          "name": "price",
          "type": "uint256"
        }
      ],
      "name": "getMarketPrice",
      "outputs": [
        {
          "internalType": "uint256",
          "name": "conversion",
          "type": "uint256"
        }
      ],
      "stateMutability": "view",
      "type": "function"
    }
  ],
  "bytecode": "0x60806040526107086003553480156200001757600080fd5b50604051620032603803806200326083398181016040528101906200003d91906200009b565b806000806101000a81548173ffffffffffffffffffffffffffffffffffffffff021916908373ffffffffffffffffffffffffffffffffffffffff1602179055505062000129565b60008151905062000095816200010f565b92915050565b600060208284031215620000ae57600080fd5b6000620000be8482850162000084565b91505092915050565b6000620000d482620000ef565b9050919050565b6000620000e882620000c7565b9050919050565b600073ffffffffffffffffffffffffffffffffffffffff82169050919050565b6200011a81620000db565b81146200012657600080fd5b50565b61312780620001396000396000f3fe60806040526004361061004e5760003560e01c8063061278c01461005a5780634ea1ecf9146100765780635690314c1461008d5780638928378e146100b8578063d53f9c9b146100f557610055565b3661005557005b600080fd5b610074600480360381019061006f91906125db565b610132565b005b34801561008257600080fd5b5061008b6106b7565b005b34801561009957600080fd5b506100a2610b92565b6040516100af9190612ca7565b60405180910390f35b3480156100c457600080fd5b506100df60048036038101906100da9190612645565b610c65565b6040516100ec9190612ecb565b60405180910390f35b34801561010157600080fd5b5061011c60048036038101906101179190612604565b610c8d565b6040516101299190612ea9565b60405180910390f35b6000600260003373ffffffffffffffffffffffffffffffffffffffff1673ffffffffffffffffffffffffffffffffffffffff16815260200190815260200160002054146101b4576040517f08c379a00000000000000000000000000000000000000000000000000000000081526004016101ab90612ce9565b60405180910390fd5b600134116101f7576040517f08c379a00000000000000000000000000000000000000000000000000000000081526004016101ee90612de9565b60405180910390fd5b73060697e9d4eea886ebece57a974facd53a40865b73ffffffffffffffffffffffffffffffffffffffff168173ffffffffffffffffffffffffffffffffffffffff161480610284575073d3f81260a44a1df7a7269cf66abd9c7e4f8cdcd173ffffffffffffffffffffffffffffffffffffffff168173ffffffffffffffffffffffffffffffffffffffff16145b806102ce5750733c8cb169281196737c493affa8f49a9d823bb9c573ffffffffffffffffffffffffffffffffffffffff168173ffffffffffffffffffffffffffffffffffffffff16145b61030d576040517f08c379a000000000000000000000000000000000000000000000000000000000815260040161030490612e29565b60405180910390fd5b6000808273ffffffffffffffffffffffffffffffffffffffff163460405161033490612c25565b60006040518083038185875af1925050503d8060008114610371576040519150601f19603f3d011682016040523d82523d6000602084013e610376565b606091505b5091509150816103bb576040517f08c379a00000000000000000000000000000000000000000000000000000000081526004016103b290612d69565b60405180910390fd5b6000600160003373ffffffffffffffffffffffffffffffffffffffff1673ffffffffffffffffffffffffffffffffffffffff1681526020019081526020016000209050600060405180604001604052806000600781111561041857fe5b8152602001428152509050600060405180604001604052806001600781111561043d57fe5b81526020014281525090508282908060018154018082558091505060019003906000526020600020906002020160009091909190915060008201518160000160006101000a81548160ff0219169083600781111561049757fe5b02179055506020820151816001015550508281908060018154018082558091505060019003906000526020600020906002020160009091909190915060008201518160000160006101000a81548160ff021916908360078111156104f757fe5b02179055506020820151816001015550508281908060018154018082558091505060019003906000526020600020906002020160009091909190915060008201518160000160006101000a81548160ff0219169083600781111561055757fe5b02179055506020820151816001015550508281908060018154018082558091505060019003906000526020600020906002020160009091909190915060008201518160000160006101000a81548160ff021916908360078111156105b757fe5b02179055506020820151816001015550508282908060018154018082558091505060019003906000526020600020906002020160009091909190915060008201518160000160006101000a81548160ff0219169083600781111561061757fe5b021790555060208201518160010155505042600260003373ffffffffffffffffffffffffffffffffffffffff1673ffffffffffffffffffffffffffffffffffffffff168152602001908152602001600020819055503373ffffffffffffffffffffffffffffffffffffffff167f46963f16723a084f2199eb74021bd97647aa6c8960612a9a031ce509d40d4ca760405160405180910390a2505050505050565b60006106c1611064565b11610701576040517f08c379a00000000000000000000000000000000000000000000000000000000081526004016106f890612e89565b60405180910390fd5b6011600160003373ffffffffffffffffffffffffffffffffffffffff1673ffffffffffffffffffffffffffffffffffffffff168152602001908152602001600020805490501115610787576040517f08c379a000000000000000000000000000000000000000000000000000000000815260040161077e90612d49565b60405180910390fd5b3373ffffffffffffffffffffffffffffffffffffffff167fbe35fe23c13a419d565edccb8c8bdedc160c5b9a82873e431b545080d6f3c68860405160405180910390a26000600160003373ffffffffffffffffffffffffffffffffffffffff1673ffffffffffffffffffffffffffffffffffffffff1681526020019081526020016000209050600061081c82805490506110ab565b9050600061082982610c65565b905060008060009054906101000a900473ffffffffffffffffffffffffffffffffffffffff1673ffffffffffffffffffffffffffffffffffffffff166370a08231336040518263ffffffff1660e01b81526004016108879190612c3a565b60206040518083038186803b15801561089f57600080fd5b505afa1580156108b3573d6000803e3d6000fd5b505050506040513d601f19601f820116820180604052508101906108d7919061266e565b90508181101561091c576040517f08c379a000000000000000000000000000000000000000000000000000000000815260040161091390612cc9565b60405180910390fd5b600060405180604001604052806000600781111561093657fe5b815260200142815250905060005b60038110156109ba578582908060018154018082558091505060019003906000526020600020906002020160009091909190915060008201518160000160006101000a81548160ff0219169083600781111561099c57fe5b02179055506020820151816001015550508080600101915050610944565b5060008054906101000a900473ffffffffffffffffffffffffffffffffffffffff1673ffffffffffffffffffffffffffffffffffffffff16639dc29fac33856040518363ffffffff1660e01b8152600401610a16929190612c55565b600060405180830381600087803b158015610a3057600080fd5b505af1158015610a44573d6000803e3d6000fd5b505050506000610a5e6001856111a890919063ffffffff16565b905060008054906101000a900473ffffffffffffffffffffffffffffffffffffffff1673ffffffffffffffffffffffffffffffffffffffff166340c10f1960008054906101000a900473ffffffffffffffffffffffffffffffffffffffff1673ffffffffffffffffffffffffffffffffffffffff1663893d20e86040518163ffffffff1660e01b815260040160206040518083038186803b158015610b0257600080fd5b505afa158015610b16573d6000803e3d6000fd5b505050506040513d601f19601f82011682018060405250810190610b3a91906125b2565b836040518363ffffffff1660e01b8152600401610b58929190612c7e565b600060405180830381600087803b158015610b7257600080fd5b505af1158015610b86573d6000803e3d6000fd5b50505050505050505050565b6060600160003373ffffffffffffffffffffffffffffffffffffffff1673ffffffffffffffffffffffffffffffffffffffff168152602001908152602001600020805480602002602001604051908101604052809291908181526020016000905b82821015610c5c57838290600052602060002090600202016040518060400160405290816000820160009054906101000a900460ff166007811115610c3457fe5b6007811115610c3f57fe5b815260200160018201548152505081526020019060010190610bf3565b50505050905090565b600080610c706111f2565b9050610c8581846111a890919063ffffffff16565b915050919050565b610c956123fb565b6000610c9f611064565b11610cdf576040517f08c379a0000000000000000000000000000000000000000000000000000000008152600401610cd690612e89565b60405180910390fd5b6000610cea836113e1565b90506000600160003373ffffffffffffffffffffffffffffffffffffffff1673ffffffffffffffffffffffffffffffffffffffff168152602001908152602001600020905060005b826000015151811015610db25782600001518181518110610d4f57fe5b6020026020010151828281548110610d6357fe5b906000526020600020906002020160008201518160000160006101000a81548160ff02191690836007811115610d9557fe5b021790555060208201518160010155905050600181019050610d32565b5042600260003373ffffffffffffffffffffffffffffffffffffffff1673ffffffffffffffffffffffffffffffffffffffff168152602001908152602001600020819055503373ffffffffffffffffffffffffffffffffffffffff167fbe35fe23c13a419d565edccb8c8bdedc160c5b9a82873e431b545080d6f3c68860405160405180910390a260008060009054906101000a900473ffffffffffffffffffffffffffffffffffffffff1673ffffffffffffffffffffffffffffffffffffffff166370a08231336040518263ffffffff1660e01b8152600401610e969190612c3a565b60206040518083038186803b158015610eae57600080fd5b505afa158015610ec2573d6000803e3d6000fd5b505050506040513d601f19601f82011682018060405250810190610ee6919061266e565b90508083602001511115610fa2576000610f0d828560200151611a2890919063ffffffff16565b905060008054906101000a900473ffffffffffffffffffffffffffffffffffffffff1673ffffffffffffffffffffffffffffffffffffffff166340c10f1933836040518363ffffffff1660e01b8152600401610f6a929190612c55565b600060405180830381600087803b158015610f8457600080fd5b505af1158015610f98573d6000803e3d6000fd5b5050505050611059565b8083602001511015611058576000610fc7846020015183611a2890919063ffffffff16565b905060008054906101000a900473ffffffffffffffffffffffffffffffffffffffff1673ffffffffffffffffffffffffffffffffffffffff16639dc29fac33836040518363ffffffff1660e01b8152600401611024929190612c55565b600060405180830381600087803b15801561103e57600080fd5b505af1158015611052573d6000803e3d6000fd5b50505050505b5b829350505050919050565b6000600260003373ffffffffffffffffffffffffffffffffffffffff1673ffffffffffffffffffffffffffffffffffffffff16815260200190815260200160002054905090565b60008060008054906101000a900473ffffffffffffffffffffffffffffffffffffffff1673ffffffffffffffffffffffffffffffffffffffff1663313ce5676040518163ffffffff1660e01b815260040160206040518083038186803b15801561111457600080fd5b505afa158015611128573d6000803e3d6000fd5b505050506040513d601f19601f8201168201806040525081019061114c9190612697565b60ff169050600583116111685780600a0a6001029150506111a3565b6008831161117f5780600a0a601e029150506111a3565b600b83116111975780600a0a61012c029150506111a3565b80600a0a6103e8029150505b919050565b60006111ea83836040518060400160405280601a81526020017f536166654d6174683a206469766973696f6e206279207a65726f000000000000815250611a72565b905092915050565b60008060008054906101000a900473ffffffffffffffffffffffffffffffffffffffff1673ffffffffffffffffffffffffffffffffffffffff1663313ce5676040518163ffffffff1660e01b815260040160206040518083038186803b15801561125b57600080fd5b505afa15801561126f573d6000803e3d6000fd5b505050506040513d601f19601f820116820180604052508101906112939190612697565b60ff16905060008060009054906101000a900473ffffffffffffffffffffffffffffffffffffffff1673ffffffffffffffffffffffffffffffffffffffff166318160ddd6040518163ffffffff1660e01b815260040160206040518083038186803b15801561130157600080fd5b505afa158015611315573d6000803e3d6000fd5b505050506040513d601f19601f82011682018060405250810190611339919061266e565b905081600a0a61271002811015611355576001925050506113de565b81600a0a620186a00281101561137057600a925050506113de565b81600a0a620f42400281101561138b576064925050506113de565b81600a0a62989680028110156113a7576103e8925050506113de565b81600a0a6305f5e100028110156113c457612710925050506113de565b6113d9612710826111a890919063ffffffff16565b925050505b90565b6113e96123fb565b60006113f3611064565b11611433576040517f08c379a000000000000000000000000000000000000000000000000000000000815260040161142a90612e89565b60405180910390fd5b6000600160003373ffffffffffffffffffffffffffffffffffffffff1673ffffffffffffffffffffffffffffffffffffffff168152602001908152602001600020805480602002602001604051908101604052809291908181526020016000905b828210156114fd57838290600052602060002090600202016040518060400160405290816000820160009054906101000a900460ff1660078111156114d557fe5b60078111156114e057fe5b815260200160018201548152505081526020019060010190611494565b50505050905060008060009054906101000a900473ffffffffffffffffffffffffffffffffffffffff1673ffffffffffffffffffffffffffffffffffffffff166370a08231336040518263ffffffff1660e01b815260040161155f9190612c3a565b60206040518083038186803b15801561157757600080fd5b505afa15801561158b573d6000803e3d6000fd5b505050506040513d601f19601f820116820180604052508101906115af919061266e565b905060005b8451811015611a095760008582815181106115cb57fe5b6020026020010151905060006115ec60035442611a2890919063ffffffff16565b90508082606001511015611635576040517f08c379a000000000000000000000000000000000000000000000000000000000815260040161162c90612dc9565b60405180910390fd5b61163d611064565b82606001511015611683576040517f08c379a000000000000000000000000000000000000000000000000000000000815260040161167a90612d09565b60405180910390fd5b42826060015111156116ca576040517f08c379a00000000000000000000000000000000000000000000000000000000081526004016116c190612d89565b60405180910390fd5b6000831115611735578660018403815181106116e257fe5b60200260200101516060015182606001511015611734576040517f08c379a000000000000000000000000000000000000000000000000000000000815260040161172b90612da9565b60405180910390fd5b5b6000600181111561174257fe5b8260000151600181111561175257fe5b141561186e576117658260200151611b38565b855110156117a8576040517f08c379a000000000000000000000000000000000000000000000000000000000815260040161179f90612e49565b60405180910390fd5b60006117b78360200151611c8e565b905060006117c482610c65565b905080861015611809576040517f08c379a000000000000000000000000000000000000000000000000000000000815260040161180090612cc9565b60405180910390fd5b61181c8187611a2890919063ffffffff16565b9550600060405180604001604052808660200151600781111561183b57fe5b815260200186606001518152509050808886604001518151811061185b57fe5b60200260200101819052505050506119fa565b60018081111561187a57fe5b8260000151600181111561188a57fe5b14156119f9576000858360400151815181106118a257fe5b60200260200101519050600060078111156118b957fe5b816000015160078111156118c957fe5b141561190a576040517f08c379a000000000000000000000000000000000000000000000000000000000815260040161190190612e69565b60405180910390fd5b600061192782602001518560600151611a2890919063ffffffff16565b905060006119388360000151611ee6565b90508082101561197d576040517f08c379a000000000000000000000000000000000000000000000000000000000815260040161197490612e09565b60405180910390fd5b600060405180604001604052806000600781111561199757fe5b81526020016000815250905080898760400151815181106119b457fe5b602002602001018190525060006119ce856000015161204d565b905060006119db82610c65565b90506119f0818b6122b390919063ffffffff16565b99505050505050505b5b505080806001019150506115b4565b5060405180604001604052808381526020018281525092505050919050565b6000611a6a83836040518060400160405280601e81526020017f536166654d6174683a207375627472616374696f6e206f766572666c6f77000081525061233b565b905092915050565b60008083118290611b1e576040517f08c379a00000000000000000000000000000000000000000000000000000000081526004018080602001828103825283818151815260200191508051906020019080838360005b83811015611ae3578082015181840152602081019050611ac8565b50505050905090810190601f168015611b105780820380516001836020036101000a031916815260200191505b509250505060405180910390fd5b506000838581611b2a57fe5b049050809150509392505050565b600060016007811115611b4757fe5b826007811115611b5357fe5b1480611b75575060026007811115611b6757fe5b826007811115611b7357fe5b145b15611b835760059050611c89565b60036007811115611b9057fe5b826007811115611b9c57fe5b1480611bbe575060046007811115611bb057fe5b826007811115611bbc57fe5b145b15611bcc5760089050611c89565b60056007811115611bd957fe5b826007811115611be557fe5b1415611bf457600b9050611c89565b60066007811115611c0157fe5b826007811115611c0d57fe5b1415611c1c57600e9050611c89565b600780811115611c2857fe5b826007811115611c3457fe5b1415611c435760119050611c89565b6000611c84576040517f08c379a0000000000000000000000000000000000000000000000000000000008152600401611c7b90612d29565b60405180910390fd5b606390505b919050565b60008060008054906101000a900473ffffffffffffffffffffffffffffffffffffffff1673ffffffffffffffffffffffffffffffffffffffff1663313ce5676040518163ffffffff1660e01b815260040160206040518083038186803b158015611cf757600080fd5b505afa158015611d0b573d6000803e3d6000fd5b505050506040513d601f19601f82011682018060405250810190611d2f9190612697565b60ff16905060016007811115611d4157fe5b836007811115611d4d57fe5b1415611d6c57606481600a0a60010281611d6357fe5b04915050611ee1565b60026007811115611d7957fe5b836007811115611d8557fe5b1415611da457606481600a0a60060281611d9b57fe5b04915050611ee1565b60036007811115611db157fe5b836007811115611dbd57fe5b1415611ddc57606481600a0a60140281611dd357fe5b04915050611ee1565b60046007811115611de957fe5b836007811115611df557fe5b1415611e0a5780600a0a600102915050611ee1565b60056007811115611e1757fe5b836007811115611e2357fe5b1415611e385780600a0a600202915050611ee1565b60066007811115611e4557fe5b836007811115611e5157fe5b1415611e665780600a0a600a02915050611ee1565b600780811115611e7257fe5b836007811115611e7e57fe5b1415611e935780600a0a60c802915050611ee1565b6000611ed4576040517f08c379a0000000000000000000000000000000000000000000000000000000008152600401611ecb90612d29565b60405180910390fd5b80600a0a620186a0029150505b919050565b600060016007811115611ef557fe5b826007811115611f0157fe5b1415611f105760019050612048565b60026007811115611f1d57fe5b826007811115611f2957fe5b1415611f385760039050612048565b60036007811115611f4557fe5b826007811115611f5157fe5b1415611f605760089050612048565b60046007811115611f6d57fe5b826007811115611f7957fe5b1415611f885760189050612048565b60056007811115611f9557fe5b826007811115611fa157fe5b1415611fb05760489050612048565b60066007811115611fbd57fe5b826007811115611fc957fe5b1415611fd85760a89050612048565b600780811115611fe457fe5b826007811115611ff057fe5b1415612000576102a09050612048565b6000612041576040517f08c379a000000000000000000000000000000000000000000000000000000000815260040161203890612d29565b60405180910390fd5b6298967f90505b919050565b60008060008054906101000a900473ffffffffffffffffffffffffffffffffffffffff1673ffffffffffffffffffffffffffffffffffffffff1663313ce5676040518163ffffffff1660e01b815260040160206040518083038186803b1580156120b657600080fd5b505afa1580156120ca573d6000803e3d6000fd5b505050506040513d601f19601f820116820180604052508101906120ee9190612697565b60ff1690506001600781111561210057fe5b83600781111561210c57fe5b141561212b57606481600a0a6002028161212257fe5b049150506122ae565b6002600781111561213857fe5b83600781111561214457fe5b141561216357606481600a0a600c028161215a57fe5b049150506122ae565b6003600781111561217057fe5b83600781111561217c57fe5b141561219b57606481600a0a6038028161219257fe5b049150506122ae565b600460078111156121a857fe5b8360078111156121b457fe5b14156121d357606481600a0a60e602816121ca57fe5b049150506122ae565b600560078111156121e057fe5b8360078111156121ec57fe5b141561220c57606481600a0a610280028161220357fe5b049150506122ae565b6006600781111561221957fe5b83600781111561222557fe5b141561223a5780600a0a6014029150506122ae565b60078081111561224657fe5b83600781111561225257fe5b14156122675780600a0a60fa029150506122ae565b60006122a8576040517f08c379a000000000000000000000000000000000000000000000000000000000815260040161229f90612d29565b60405180910390fd5b60009150505b919050565b600080828401905083811015612331576040517f08c379a000000000000000000000000000000000000000000000000000000000815260040180806020018281038252601b8152602001807f536166654d6174683a206164646974696f6e206f766572666c6f77000000000081525060200191505060405180910390fd5b8091505092915050565b60008383111582906123e8576040517f08c379a00000000000000000000000000000000000000000000000000000000081526004018080602001828103825283818151815260200191508051906020019080838360005b838110156123ad578082015181840152602081019050612392565b50505050905090810190601f1680156123da5780820380516001836020036101000a031916815260200191505b509250505060405180910390fd5b5060008385039050809150509392505050565b604051806040016040528060608152602001600081525090565b600061242861242384612f17565b612ee6565b9050808382526020820190508285608086028201111561244757600080fd5b60005b85811015612477578161245d88826124ff565b84526020840193506080830192505060018101905061244a565b5050509392505050565b60008151905061249081613075565b92915050565b6000813590506124a58161308c565b92915050565b600082601f8301126124bc57600080fd5b81356124cc848260208601612415565b91505092915050565b6000813590506124e4816130a3565b92915050565b6000813590506124f9816130b3565b92915050565b60006080828403121561251157600080fd5b61251b6080612ee6565b9050600061252b848285016124d5565b600083015250602061253f848285016124ea565b602083015250604061255384828501612573565b604083015250606061256784828501612573565b60608301525092915050565b600081359050612582816130c3565b92915050565b600081519050612597816130c3565b92915050565b6000815190506125ac816130da565b92915050565b6000602082840312156125c457600080fd5b60006125d284828501612481565b91505092915050565b6000602082840312156125ed57600080fd5b60006125fb84828501612496565b91505092915050565b60006020828403121561261657600080fd5b600082013567ffffffffffffffff81111561263057600080fd5b61263c848285016124ab565b91505092915050565b60006020828403121561265757600080fd5b600061266584828501612573565b91505092915050565b60006020828403121561268057600080fd5b600061268e84828501612588565b91505092915050565b6000602082840312156126a957600080fd5b60006126b78482850161259d565b91505092915050565b60006126cc8383612bd8565b60408301905092915050565b6126e181613017565b82525050565b6126f081612fa9565b82525050565b600061270182612f53565b61270b8185612f6b565b935061271683612f43565b8060005b8381101561274757815161272e88826126c0565b975061273983612f5e565b92505060018101905061271a565b5085935050505092915050565b600061275f82612f53565b6127698185612f7c565b935061277483612f43565b8060005b838110156127a557815161278c88826126c0565b975061279783612f5e565b925050600181019050612778565b5085935050505092915050565b6127bb81613029565b82525050565b60006127ce601283612f98565b91507f494e53554646494349454e545f46554e445300000000000000000000000000006000830152602082019050919050565b600061280e600b83612f98565b91507f4641524d5f4558495354530000000000000000000000000000000000000000006000830152602082019050919050565b600061284e600d83612f98565b91507f4556454e545f494e5f50415354000000000000000000000000000000000000006000830152602082019050919050565b600061288e600d83612f98565b91507f494e56414c49445f4652554954000000000000000000000000000000000000006000830152602082019050919050565b60006128ce600983612f98565b91507f4d41585f4c4556454c00000000000000000000000000000000000000000000006000830152602082019050919050565b600061290e600f83612f98565b91507f444f4e4154494f4e5f4641494c454400000000000000000000000000000000006000830152602082019050919050565b600061294e600f83612f98565b91507f4556454e545f494e5f46555455524500000000000000000000000000000000006000830152602082019050919050565b600061298e600d83612f98565b91507f494e56414c49445f4f52444552000000000000000000000000000000000000006000830152602082019050919050565b60006129ce600d83612f98565b91507f4556454e545f45585049524544000000000000000000000000000000000000006000830152602082019050919050565b6000612a0e601583612f98565b91507f494e53554646494349454e545f444f4e4154494f4e00000000000000000000006000830152602082019050919050565b6000612a4e600083612f8d565b9150600082019050919050565b6000612a68600883612f98565b91507f4e4f545f524950450000000000000000000000000000000000000000000000006000830152602082019050919050565b6000612aa8600f83612f98565b91507f494e56414c49445f4348415249545900000000000000000000000000000000006000830152602082019050919050565b6000612ae8600d83612f98565b91507f494e56414c49445f4c4556454c000000000000000000000000000000000000006000830152602082019050919050565b6000612b28600883612f98565b91507f4e4f5f46525549540000000000000000000000000000000000000000000000006000830152602082019050919050565b6000612b68600783612f98565b91507f4e4f5f4641524d000000000000000000000000000000000000000000000000006000830152602082019050919050565b60006040830160008301518482036000860152612bb882826126f6565b9150506020830151612bcd6020860182612c07565b508091505092915050565b604082016000820151612bee60008501826127b2565b506020820151612c016020850182612c07565b50505050565b612c1081613000565b82525050565b612c1f81613000565b82525050565b6000612c3082612a41565b9150819050919050565b6000602082019050612c4f60008301846126d8565b92915050565b6000604082019050612c6a60008301856126d8565b612c776020830184612c16565b9392505050565b6000604082019050612c9360008301856126e7565b612ca06020830184612c16565b9392505050565b60006020820190508181036000830152612cc18184612754565b905092915050565b60006020820190508181036000830152612ce2816127c1565b9050919050565b60006020820190508181036000830152612d0281612801565b9050919050565b60006020820190508181036000830152612d2281612841565b9050919050565b60006020820190508181036000830152612d4281612881565b9050919050565b60006020820190508181036000830152612d62816128c1565b9050919050565b60006020820190508181036000830152612d8281612901565b9050919050565b60006020820190508181036000830152612da281612941565b9050919050565b60006020820190508181036000830152612dc281612981565b9050919050565b60006020820190508181036000830152612de2816129c1565b9050919050565b60006020820190508181036000830152612e0281612a01565b9050919050565b60006020820190508181036000830152612e2281612a5b565b9050919050565b60006020820190508181036000830152612e4281612a9b565b9050919050565b60006020820190508181036000830152612e6281612adb565b9050919050565b60006020820190508181036000830152612e8281612b1b565b9050919050565b60006020820190508181036000830152612ea281612b5b565b9050919050565b60006020820190508181036000830152612ec38184612b9b565b905092915050565b6000602082019050612ee06000830184612c16565b92915050565b6000604051905081810181811067ffffffffffffffff82111715612f0d57612f0c61305f565b5b8060405250919050565b600067ffffffffffffffff821115612f3257612f3161305f565b5b602082029050602081019050919050565b6000819050602082019050919050565b600081519050919050565b6000602082019050919050565b600082825260208201905092915050565b600082825260208201905092915050565b600081905092915050565b600082825260208201905092915050565b6000612fb482612fe0565b9050919050565b6000612fc682612fe0565b9050919050565b6000819050612fdb82613061565b919050565b600073ffffffffffffffffffffffffffffffffffffffff82169050919050565b6000819050919050565b600060ff82169050919050565b60006130228261303b565b9050919050565b600061303482612fcd565b9050919050565b60006130468261304d565b9050919050565b600061305882612fe0565b9050919050565bfe5b600881106130725761307161305f565b5b50565b61307e81612fa9565b811461308957600080fd5b50565b61309581612fbb565b81146130a057600080fd5b50565b600281106130b057600080fd5b50565b600881106130c057600080fd5b50565b6130cc81613000565b81146130d757600080fd5b50565b6130e38161300a565b81146130ee57600080fd5b5056fea26469706673582212205b2bdd44185a637ebbc67ebe204d2d4dcaece00606de2206535bc6a3b7b7be5064736f6c63430007060033",
  "immutableReferences": {},
  "source": "pragma solidity >=0.6.0 <0.8.0;\r\npragma experimental ABIEncoderV2;\r\n\r\nimport \"@openzeppelin/contracts/math/Math.sol\";\r\nimport \"./Token.sol\";\r\n\r\ncontract Farm {\r\n    using SafeMath for uint256;\r\n\r\n    Token private token;\r\n\r\n    struct Square {\r\n        Fruit fruit;\r\n        uint createdAt;\r\n    }\r\n\r\n    mapping(address => Square[]) fields;\r\n    mapping(address => uint) syncedAt;\r\n\r\n    constructor(Token _token) public {\r\n        token = _token;\r\n    }\r\n\r\n    event FarmCreated(address indexed _address);\r\n    event FarmSynced(address indexed _address);\r\n\r\n    // Function to receive Ether. msg.data must be empty\r\n    receive() external payable {}\r\n\r\n    // Fallback function is called when msg.data is not empty\r\n    //fallback() external payable {}\r\n\r\n\r\n    function createFarm(address payable _charity) public payable {\r\n        require(syncedAt[msg.sender] == 0, \"FARM_EXISTS\");\r\n\r\n        require(\r\n            msg.value > 1,\r\n            \"INSUFFICIENT_DONATION\"\r\n        );\r\n\r\n        require(\r\n            // The Water Project\r\n            _charity == address(0x060697E9d4EEa886EbeCe57A974Facd53A40865B)\r\n            // Heifer\r\n            || _charity == address(0xD3F81260a44A1df7A7269CF66Abd9c7e4f8CdcD1)\r\n            // Cool Earth\r\n            || _charity == address(0x3c8cB169281196737c493AfFA8F49a9d823bB9c5),\r\n            \"INVALID_CHARITY\"\r\n        );\r\n\r\n        (bool sent, bytes memory data) = _charity.call{value: msg.value}(\"\");\r\n        require(sent, \"DONATION_FAILED\");\r\n\r\n\r\n        Square[] storage land = fields[msg.sender];\r\n        Square memory empty = Square({\r\n            fruit: Fruit.None,\r\n            createdAt: block.timestamp\r\n        });\r\n        Square memory apple = Square({\r\n            fruit: Fruit.Apple,\r\n            createdAt: block.timestamp\r\n        });\r\n\r\n        // Each farmer starts with 5 fields & 3 apples\r\n        land.push(empty);\r\n        land.push(apple);\r\n        land.push(apple);\r\n        land.push(apple);\r\n        land.push(empty);\r\n\r\n        syncedAt[msg.sender] = block.timestamp;\r\n\r\n        //Emit an event\r\n        emit FarmCreated(msg.sender);\r\n    }\r\n    \r\n    function lastSyncedAt() private view returns(uint) {\r\n        return syncedAt[msg.sender];\r\n    }\r\n\r\n\r\n    function getLand() public view returns (Square[] memory) {\r\n        return fields[msg.sender];\r\n    }\r\n\r\n    enum Action { Plant, Harvest }\r\n    enum Fruit { None, Apple, Avocado, Banana, Coconut, Pineapple, Money, Diamond }\r\n\r\n    struct Event { \r\n        Action action;\r\n        Fruit fruit;\r\n        uint landIndex;\r\n        uint createdAt;\r\n    }\r\n\r\n    struct Farm {\r\n        Square[] land;\r\n        uint balance;\r\n    }\r\n\r\n    function getHarvestHours(Fruit _fruit) private pure returns (uint) {\r\n        if (_fruit == Fruit.Apple) {\r\n            return 1;\r\n        } else if (_fruit == Fruit.Avocado) {\r\n            return 3;\r\n        } else if (_fruit == Fruit.Banana) {\r\n            return 8;\r\n        } else if (_fruit == Fruit.Coconut) {\r\n            // 1 Day\r\n            return 24;\r\n        } else if (_fruit == Fruit.Pineapple) {\r\n            // 3 days\r\n            return 72;\r\n        } else if (_fruit == Fruit.Money) {\r\n            // 1 week\r\n            return 168;\r\n        } else if (_fruit == Fruit.Diamond) {\r\n            // 4 weeks\r\n            return 672;\r\n        }\r\n\r\n        require(false, \"INVALID_FRUIT\");\r\n        return 9999999;\r\n    }\r\n\r\n    function getSeedPrice(Fruit _fruit) private view returns (uint price) {\r\n        uint decimals = token.decimals();\r\n\r\n        if (_fruit == Fruit.Apple) {\r\n            //$0.01\r\n            return 1 * 10**decimals / 100;\r\n        } else if (_fruit == Fruit.Avocado) {\r\n            // $0.06\r\n            return 6 * 10**decimals / 100;\r\n        } else if (_fruit == Fruit.Banana) {\r\n            // $0.20\r\n            return 20 * 10**decimals / 100;\r\n        } else if (_fruit == Fruit.Coconut) {\r\n            // $1\r\n            return 1 * 10**decimals;\r\n        } else if (_fruit == Fruit.Pineapple) {\r\n            // $2\r\n            return 2 * 10**decimals;\r\n        } else if (_fruit == Fruit.Money) {\r\n            // $10\r\n            return 10 * 10**decimals;\r\n        } else if (_fruit == Fruit.Diamond) {\r\n            // $200\r\n            return 200 * 10**decimals;\r\n        }\r\n\r\n        require(false, \"INVALID_FRUIT\");\r\n\r\n        return 100000 * 10**decimals;\r\n    }\r\n\r\n    function getFruitPrice(Fruit _fruit) private view returns (uint price) {\r\n        uint decimals = token.decimals();\r\n\r\n        if (_fruit == Fruit.Apple) {\r\n            // $0.02\r\n            return 2 * 10**decimals / 100;\r\n        } else if (_fruit == Fruit.Avocado) {\r\n            // $0.12\r\n            return 12 * 10**decimals / 100;\r\n        } else if (_fruit == Fruit.Banana) {\r\n            // $0.56\r\n            return 56 * 10**decimals / 100;\r\n        } else if (_fruit == Fruit.Coconut) {\r\n            // $2.30\r\n            return 230 * 10**decimals / 100;\r\n        } else if (_fruit == Fruit.Pineapple) {\r\n            // $6.40\r\n            return 640 * 10**decimals / 100;\r\n        } else if (_fruit == Fruit.Money) {\r\n            // $20\r\n            return 20 * 10**decimals;\r\n        } else if (_fruit == Fruit.Diamond) {\r\n            // $250\r\n            return 250 * 10**decimals;\r\n        }\r\n\r\n        require(false, \"INVALID_FRUIT\");\r\n\r\n        return 0;\r\n    }\r\n    \r\n    function requiredLandSize(Fruit _fruit) private pure returns (uint size) {\r\n        if (_fruit == Fruit.Apple || _fruit == Fruit.Avocado) {\r\n            return 5;\r\n        } else if (_fruit == Fruit.Banana || _fruit == Fruit.Coconut) {\r\n            return 8;\r\n        } else if (_fruit == Fruit.Pineapple) {\r\n            return 11;\r\n        } else if (_fruit == Fruit.Money) {\r\n            return 14;\r\n        } else if (_fruit == Fruit.Diamond) {\r\n            return 17;\r\n        }\r\n\r\n        require(false, \"INVALID_FRUIT\");\r\n\r\n        return 99;\r\n    }\r\n    \r\n       \r\n    function getLandPrice(uint landSize) private view returns (uint price) {\r\n        uint decimals = token.decimals();\r\n        if (landSize <= 5) {\r\n            // $1\r\n            return 1 * 10**decimals;\r\n        } else if (landSize <= 8) {\r\n            // $30\r\n            return 30 * 10**decimals;\r\n        } else if (landSize <= 11) {\r\n            // $300\r\n            return 300 * 10**decimals;\r\n        }\r\n        \r\n        return 1000 * 10**decimals;\r\n    }\r\n\r\n    modifier hasFarm {\r\n        require(lastSyncedAt() > 0, \"NO_FARM\");\r\n        _;\r\n    }\r\n     \r\n    uint private THIRTY_MINUTES = 30 * 60;\r\n\r\n    function buildFarm(Event[] memory _events) private view hasFarm returns (Farm memory currentFarm) {\r\n        Square[] memory land = fields[msg.sender];\r\n        uint balance = token.balanceOf(msg.sender);\r\n        \r\n        for (uint index = 0; index < _events.length; index++) {\r\n            Event memory farmEvent = _events[index];\r\n\r\n            uint thirtyMinutesAgo = block.timestamp.sub(THIRTY_MINUTES); \r\n            require(farmEvent.createdAt >= thirtyMinutesAgo, \"EVENT_EXPIRED\");\r\n            require(farmEvent.createdAt >= lastSyncedAt(), \"EVENT_IN_PAST\");\r\n            require(farmEvent.createdAt <= block.timestamp, \"EVENT_IN_FUTURE\");\r\n\r\n            if (index > 0) {\r\n                require(farmEvent.createdAt >= _events[index - 1].createdAt, \"INVALID_ORDER\");\r\n            }\r\n\r\n\r\n            if (farmEvent.action == Action.Plant) {\r\n                require(land.length >= requiredLandSize(farmEvent.fruit), \"INVALID_LEVEL\");\r\n                \r\n                uint price = getSeedPrice(farmEvent.fruit);\r\n                uint fmcPrice = getMarketPrice(price);\r\n                require(balance >= fmcPrice, \"INSUFFICIENT_FUNDS\");\r\n\r\n                balance = balance.sub(fmcPrice);\r\n\r\n                Square memory plantedSeed = Square({\r\n                    fruit: farmEvent.fruit,\r\n                    createdAt: farmEvent.createdAt\r\n                });\r\n                land[farmEvent.landIndex] = plantedSeed;\r\n            } else if (farmEvent.action == Action.Harvest) {\r\n                Square memory square = land[farmEvent.landIndex];\r\n                require(square.fruit != Fruit.None, \"NO_FRUIT\");\r\n\r\n                uint duration = farmEvent.createdAt.sub(square.createdAt);\r\n                // Currently seconds\r\n                uint hoursToHarvest = getHarvestHours(square.fruit);\r\n                require(duration >= hoursToHarvest, \"NOT_RIPE\");\r\n\r\n                // Clear the land\r\n                Square memory emptyLand = Square({\r\n                    fruit: Fruit.None,\r\n                    createdAt: 0\r\n                });\r\n                land[farmEvent.landIndex] = emptyLand;\r\n\r\n                uint price = getFruitPrice(square.fruit);\r\n                uint fmcPrice = getMarketPrice(price);\r\n\r\n                balance = balance.add(fmcPrice);\r\n            }\r\n        }\r\n\r\n        return Farm({\r\n            land: land,\r\n            balance: balance\r\n        });\r\n    }\r\n\r\n\r\n    function sync(Event[] memory _events) public hasFarm returns (Farm memory) {\r\n        Farm memory farm = buildFarm(_events);\r\n\r\n        // Update the land\r\n        Square[] storage land = fields[msg.sender];\r\n        for (uint i=0; i < farm.land.length; i += 1) {\r\n            land[i] = farm.land[i];\r\n        }\r\n        \r\n        syncedAt[msg.sender] = block.timestamp;\r\n        \r\n        emit FarmSynced(msg.sender);\r\n        \r\n        uint balance = token.balanceOf(msg.sender);\r\n        // Update the balance - mint or burn\r\n        if (farm.balance > balance) {\r\n            uint profit = farm.balance.sub(balance);\r\n            token.mint(msg.sender, profit);\r\n        } else if (farm.balance < balance) {\r\n            uint loss = balance.sub(farm.balance);\r\n            token.burn(msg.sender, loss);\r\n        }\r\n        \r\n\r\n        return farm;\r\n    }\r\n\r\n    function levelUp() public hasFarm {\r\n        require(fields[msg.sender].length <= 17, \"MAX_LEVEL\");\r\n\r\n        emit FarmSynced(msg.sender);\r\n        \r\n        Square[] storage land = fields[msg.sender];\r\n\r\n        uint price = getLandPrice(land.length);\r\n        uint fmcPrice = getMarketPrice(price);\r\n        uint balance = token.balanceOf(msg.sender);\r\n\r\n        require(balance >= fmcPrice, \"INSUFFICIENT_FUNDS\");\r\n        \r\n        Square memory empty = Square({\r\n            fruit: Fruit.None,\r\n            createdAt: block.timestamp\r\n        });\r\n\r\n        // Do not bother rearranging the array - it is already in a strange square - Add 3 fields\r\n        for (uint index = 0; index < 3; index++) {\r\n            land.push(empty);\r\n        }\r\n\r\n        token.burn(msg.sender, fmcPrice);\r\n\r\n        // Land tax - An additional 5% of profit goes to maintainers of Fruit Market\r\n        uint commission = fmcPrice.div(1);\r\n        token.mint(token.getOwner(), commission);\r\n    }\r\n\r\n    // How many FMC do you get per dollar\r\n    // Algorithm is totalSupply / 10000 but we do this in gradual steps to avoid widly flucating prices between plant & harvest\r\n    function getMarketRate() private view returns (uint conversion) {\r\n        uint decimals = token.decimals();\r\n        uint totalSupply = token.totalSupply();\r\n\r\n        // Less than 10, 000 FMC tokens\r\n        if (totalSupply < (10000 * 10**decimals)) {\r\n            // 1 Farm Dollar gets you a FMC token\r\n            return 1;\r\n        }\r\n\r\n        // Less than 100, 000 FMC tokens\r\n        if (totalSupply < (100000 * 10**decimals)) {\r\n            return 10;\r\n        }\r\n        // Less than 1, 000, 000 FMC tokens\r\n        if (totalSupply < (1000000 * 10**decimals)) {\r\n            return 100;\r\n        }\r\n\r\n        // Less than 10, 000, 000 FMC tokens\r\n        if (totalSupply < (10000000 * 10**decimals)) {\r\n            return 1000;\r\n        }\r\n\r\n        // Less than 100, 000, 000 FMC tokens\r\n        if (totalSupply < (100000000 * 10**decimals)) {\r\n            return 10000;\r\n        }\r\n\r\n        // 200, 000, 000 -> \r\n        // 1 Farm Dollar gets you a 0.00001 of FMC - Linear growth from here\r\n        return totalSupply.div(10000);\r\n    }\r\n\r\n    function getMarketPrice(uint price) public view returns (uint conversion) {\r\n        uint marketRate = getMarketRate();\r\n\r\n        return price.div(marketRate);\r\n    }\r\n}\r\n",
  "sourcePath": "/Users/adamhannigan/Documents/workspace/fruit-market/src/contracts/Farm.sol",
  "compiler": {
    "name": "solc",
    "version": "0.7.6+commit.7338295f.Emscripten.clang"
  },
  "schemaVersion": "3.4.0",
  "updatedAt": "2021-06-18T09:43:30.849Z",
  "devdoc": {
    "kind": "dev",
    "methods": {},
    "version": 1
  },
  "userdoc": {
    "kind": "user",
    "methods": {},
    "version": 1
  }
}