{
  "contractName": "Farm",
  "abi": [
    {
      "inputs": [
        {
          "internalType": "contract Token",
          "name": "_token",
          "type": "address"
        }
      ],
      "stateMutability": "nonpayable",
      "type": "constructor"
    },
    {
      "anonymous": false,
      "inputs": [
        {
          "indexed": true,
          "internalType": "address",
          "name": "_address",
          "type": "address"
        }
      ],
      "name": "FarmCreated",
      "type": "event"
    },
    {
      "anonymous": false,
      "inputs": [
        {
          "indexed": true,
          "internalType": "address",
          "name": "_address",
          "type": "address"
        }
      ],
      "name": "FarmSynced",
      "type": "event"
    },
    {
      "inputs": [],
      "name": "createFarm",
      "outputs": [],
      "stateMutability": "nonpayable",
      "type": "function"
    },
    {
      "inputs": [
        {
          "components": [
            {
              "internalType": "enum Farm.Action",
              "name": "action",
              "type": "uint8"
            },
            {
              "internalType": "enum Farm.Commodity",
              "name": "commodity",
              "type": "uint8"
            },
            {
              "internalType": "uint256",
              "name": "timestamp",
              "type": "uint256"
            },
            {
              "internalType": "uint256",
              "name": "landIndex",
              "type": "uint256"
            },
            {
              "internalType": "uint256",
              "name": "createdAt",
              "type": "uint256"
            }
          ],
          "internalType": "struct Farm.Transaction[]",
          "name": "_transactions",
          "type": "tuple[]"
        }
      ],
      "name": "buyMoreSpace",
      "outputs": [],
      "stateMutability": "nonpayable",
      "type": "function"
    },
    {
      "inputs": [],
      "name": "getInventory",
      "outputs": [
        {
          "components": [
            {
              "internalType": "bool",
              "name": "isInitialized",
              "type": "bool"
            },
            {
              "internalType": "uint256",
              "name": "apples",
              "type": "uint256"
            },
            {
              "internalType": "uint256",
              "name": "avocados",
              "type": "uint256"
            }
          ],
          "internalType": "struct Farm.Inventory",
          "name": "",
          "type": "tuple"
        }
      ],
      "stateMutability": "view",
      "type": "function",
      "constant": true
    },
    {
      "inputs": [],
      "name": "getLand",
      "outputs": [
        {
          "components": [
            {
              "internalType": "enum Farm.Commodity",
              "name": "commodity",
              "type": "uint8"
            },
            {
              "internalType": "uint256",
              "name": "createdAt",
              "type": "uint256"
            }
          ],
          "internalType": "struct Farm.Square[]",
          "name": "",
          "type": "tuple[]"
        }
      ],
      "stateMutability": "view",
      "type": "function",
      "constant": true
    },
    {
      "inputs": [
        {
          "components": [
            {
              "internalType": "enum Farm.Action",
              "name": "action",
              "type": "uint8"
            },
            {
              "internalType": "enum Farm.Commodity",
              "name": "commodity",
              "type": "uint8"
            },
            {
              "internalType": "uint256",
              "name": "timestamp",
              "type": "uint256"
            },
            {
              "internalType": "uint256",
              "name": "landIndex",
              "type": "uint256"
            },
            {
              "internalType": "uint256",
              "name": "createdAt",
              "type": "uint256"
            }
          ],
          "internalType": "struct Farm.Transaction[]",
          "name": "_transactions",
          "type": "tuple[]"
        }
      ],
      "name": "moveTheMarket",
      "outputs": [],
      "stateMutability": "nonpayable",
      "type": "function"
    },
    {
      "inputs": [
        {
          "components": [
            {
              "internalType": "enum Farm.Action",
              "name": "action",
              "type": "uint8"
            },
            {
              "internalType": "enum Farm.Commodity",
              "name": "commodity",
              "type": "uint8"
            },
            {
              "internalType": "uint256",
              "name": "timestamp",
              "type": "uint256"
            },
            {
              "internalType": "uint256",
              "name": "landIndex",
              "type": "uint256"
            },
            {
              "internalType": "uint256",
              "name": "createdAt",
              "type": "uint256"
            }
          ],
          "internalType": "struct Farm.Transaction[]",
          "name": "_transactions",
          "type": "tuple[]"
        }
      ],
      "name": "sync",
      "outputs": [
        {
          "components": [
            {
              "components": [
                {
                  "internalType": "bool",
                  "name": "isInitialized",
                  "type": "bool"
                },
                {
                  "internalType": "uint256",
                  "name": "apples",
                  "type": "uint256"
                },
                {
                  "internalType": "uint256",
                  "name": "avocados",
                  "type": "uint256"
                }
              ],
              "internalType": "struct Farm.Inventory",
              "name": "inventory",
              "type": "tuple"
            },
            {
              "components": [
                {
                  "internalType": "enum Farm.Commodity",
                  "name": "commodity",
                  "type": "uint8"
                },
                {
                  "internalType": "uint256",
                  "name": "createdAt",
                  "type": "uint256"
                }
              ],
              "internalType": "struct Farm.Square[]",
              "name": "land",
              "type": "tuple[]"
            },
            {
              "internalType": "uint256",
              "name": "balance",
              "type": "uint256"
            },
            {
              "components": [
                {
                  "internalType": "enum Farm.Action",
                  "name": "action",
                  "type": "uint8"
                },
                {
                  "internalType": "enum Farm.Commodity",
                  "name": "commodity",
                  "type": "uint8"
                },
                {
                  "internalType": "uint256",
                  "name": "timestamp",
                  "type": "uint256"
                },
                {
                  "internalType": "uint256",
                  "name": "landIndex",
                  "type": "uint256"
                },
                {
                  "internalType": "uint256",
                  "name": "createdAt",
                  "type": "uint256"
                }
              ],
              "internalType": "struct Farm.Transaction[]",
              "name": "transactions",
              "type": "tuple[]"
            }
          ],
          "internalType": "struct Farm.Farm",
          "name": "",
          "type": "tuple"
        }
      ],
      "stateMutability": "nonpayable",
      "type": "function"
    },
    {
      "inputs": [],
      "name": "getConversion",
      "outputs": [
        {
          "internalType": "uint256",
          "name": "conversion",
          "type": "uint256"
        }
      ],
      "stateMutability": "view",
      "type": "function",
      "constant": true
    },
    {
      "inputs": [
        {
          "internalType": "uint256",
          "name": "dollars",
          "type": "uint256"
        }
      ],
      "name": "dollarToFMC",
      "outputs": [
        {
          "internalType": "uint256",
          "name": "fmc",
          "type": "uint256"
        }
      ],
      "stateMutability": "view",
      "type": "function",
      "constant": true
    },
    {
      "inputs": [
        {
          "internalType": "uint256",
          "name": "fmc",
          "type": "uint256"
        }
      ],
      "name": "FMCToDollar",
      "outputs": [
        {
          "internalType": "uint256",
          "name": "dollars",
          "type": "uint256"
        }
      ],
      "stateMutability": "view",
      "type": "function",
      "constant": true
    },
    {
      "inputs": [],
      "name": "getBalance",
      "outputs": [
        {
          "internalType": "uint256",
          "name": "balance",
          "type": "uint256"
        }
      ],
      "stateMutability": "view",
      "type": "function",
      "constant": true
    },
    {
      "inputs": [
        {
          "components": [
            {
              "internalType": "enum Farm.Action",
              "name": "action",
              "type": "uint8"
            },
            {
              "internalType": "enum Farm.Commodity",
              "name": "commodity",
              "type": "uint8"
            },
            {
              "internalType": "uint256",
              "name": "timestamp",
              "type": "uint256"
            },
            {
              "internalType": "uint256",
              "name": "landIndex",
              "type": "uint256"
            },
            {
              "internalType": "uint256",
              "name": "createdAt",
              "type": "uint256"
            }
          ],
          "internalType": "struct Farm.Transaction[]",
          "name": "_transactions",
          "type": "tuple[]"
        },
        {
          "internalType": "enum Farm.Commodity",
          "name": "_commodity",
          "type": "uint8"
        }
      ],
      "name": "buy",
      "outputs": [
        {
          "components": [
            {
              "components": [
                {
                  "internalType": "bool",
                  "name": "isInitialized",
                  "type": "bool"
                },
                {
                  "internalType": "uint256",
                  "name": "apples",
                  "type": "uint256"
                },
                {
                  "internalType": "uint256",
                  "name": "avocados",
                  "type": "uint256"
                }
              ],
              "internalType": "struct Farm.Inventory",
              "name": "inventory",
              "type": "tuple"
            },
            {
              "components": [
                {
                  "internalType": "enum Farm.Commodity",
                  "name": "commodity",
                  "type": "uint8"
                },
                {
                  "internalType": "uint256",
                  "name": "createdAt",
                  "type": "uint256"
                }
              ],
              "internalType": "struct Farm.Square[]",
              "name": "land",
              "type": "tuple[]"
            },
            {
              "internalType": "uint256",
              "name": "balance",
              "type": "uint256"
            },
            {
              "components": [
                {
                  "internalType": "enum Farm.Action",
                  "name": "action",
                  "type": "uint8"
                },
                {
                  "internalType": "enum Farm.Commodity",
                  "name": "commodity",
                  "type": "uint8"
                },
                {
                  "internalType": "uint256",
                  "name": "timestamp",
                  "type": "uint256"
                },
                {
                  "internalType": "uint256",
                  "name": "landIndex",
                  "type": "uint256"
                },
                {
                  "internalType": "uint256",
                  "name": "createdAt",
                  "type": "uint256"
                }
              ],
              "internalType": "struct Farm.Transaction[]",
              "name": "transactions",
              "type": "tuple[]"
            }
          ],
          "internalType": "struct Farm.Farm",
          "name": "farm",
          "type": "tuple"
        },
        {
          "internalType": "uint256",
          "name": "price",
          "type": "uint256"
        }
      ],
      "stateMutability": "view",
      "type": "function",
      "constant": true
    },
    {
      "inputs": [
        {
          "components": [
            {
              "internalType": "enum Farm.Action",
              "name": "action",
              "type": "uint8"
            },
            {
              "internalType": "enum Farm.Commodity",
              "name": "commodity",
              "type": "uint8"
            },
            {
              "internalType": "uint256",
              "name": "timestamp",
              "type": "uint256"
            },
            {
              "internalType": "uint256",
              "name": "landIndex",
              "type": "uint256"
            },
            {
              "internalType": "uint256",
              "name": "createdAt",
              "type": "uint256"
            }
          ],
          "internalType": "struct Farm.Transaction[]",
          "name": "_transactions",
          "type": "tuple[]"
        },
        {
          "internalType": "enum Farm.Commodity",
          "name": "_commodity",
          "type": "uint8"
        }
      ],
      "name": "sell",
      "outputs": [
        {
          "components": [
            {
              "components": [
                {
                  "internalType": "bool",
                  "name": "isInitialized",
                  "type": "bool"
                },
                {
                  "internalType": "uint256",
                  "name": "apples",
                  "type": "uint256"
                },
                {
                  "internalType": "uint256",
                  "name": "avocados",
                  "type": "uint256"
                }
              ],
              "internalType": "struct Farm.Inventory",
              "name": "inventory",
              "type": "tuple"
            },
            {
              "components": [
                {
                  "internalType": "enum Farm.Commodity",
                  "name": "commodity",
                  "type": "uint8"
                },
                {
                  "internalType": "uint256",
                  "name": "createdAt",
                  "type": "uint256"
                }
              ],
              "internalType": "struct Farm.Square[]",
              "name": "land",
              "type": "tuple[]"
            },
            {
              "internalType": "uint256",
              "name": "balance",
              "type": "uint256"
            },
            {
              "components": [
                {
                  "internalType": "enum Farm.Action",
                  "name": "action",
                  "type": "uint8"
                },
                {
                  "internalType": "enum Farm.Commodity",
                  "name": "commodity",
                  "type": "uint8"
                },
                {
                  "internalType": "uint256",
                  "name": "timestamp",
                  "type": "uint256"
                },
                {
                  "internalType": "uint256",
                  "name": "landIndex",
                  "type": "uint256"
                },
                {
                  "internalType": "uint256",
                  "name": "createdAt",
                  "type": "uint256"
                }
              ],
              "internalType": "struct Farm.Transaction[]",
              "name": "transactions",
              "type": "tuple[]"
            }
          ],
          "internalType": "struct Farm.Farm",
          "name": "farm",
          "type": "tuple"
        },
        {
          "internalType": "uint256",
          "name": "price",
          "type": "uint256"
        }
      ],
      "stateMutability": "view",
      "type": "function",
      "constant": true
    },
    {
      "inputs": [
        {
          "components": [
            {
              "internalType": "enum Farm.Action",
              "name": "action",
              "type": "uint8"
            },
            {
              "internalType": "enum Farm.Commodity",
              "name": "commodity",
              "type": "uint8"
            },
            {
              "internalType": "uint256",
              "name": "timestamp",
              "type": "uint256"
            },
            {
              "internalType": "uint256",
              "name": "landIndex",
              "type": "uint256"
            },
            {
              "internalType": "uint256",
              "name": "createdAt",
              "type": "uint256"
            }
          ],
          "internalType": "struct Farm.Transaction[]",
          "name": "_transactions",
          "type": "tuple[]"
        },
        {
          "internalType": "enum Farm.Commodity",
          "name": "_commodity",
          "type": "uint8"
        },
        {
          "internalType": "uint256",
          "name": "landIndex",
          "type": "uint256"
        }
      ],
      "name": "plant",
      "outputs": [
        {
          "components": [
            {
              "components": [
                {
                  "internalType": "bool",
                  "name": "isInitialized",
                  "type": "bool"
                },
                {
                  "internalType": "uint256",
                  "name": "apples",
                  "type": "uint256"
                },
                {
                  "internalType": "uint256",
                  "name": "avocados",
                  "type": "uint256"
                }
              ],
              "internalType": "struct Farm.Inventory",
              "name": "inventory",
              "type": "tuple"
            },
            {
              "components": [
                {
                  "internalType": "enum Farm.Commodity",
                  "name": "commodity",
                  "type": "uint8"
                },
                {
                  "internalType": "uint256",
                  "name": "createdAt",
                  "type": "uint256"
                }
              ],
              "internalType": "struct Farm.Square[]",
              "name": "land",
              "type": "tuple[]"
            },
            {
              "internalType": "uint256",
              "name": "balance",
              "type": "uint256"
            },
            {
              "components": [
                {
                  "internalType": "enum Farm.Action",
                  "name": "action",
                  "type": "uint8"
                },
                {
                  "internalType": "enum Farm.Commodity",
                  "name": "commodity",
                  "type": "uint8"
                },
                {
                  "internalType": "uint256",
                  "name": "timestamp",
                  "type": "uint256"
                },
                {
                  "internalType": "uint256",
                  "name": "landIndex",
                  "type": "uint256"
                },
                {
                  "internalType": "uint256",
                  "name": "createdAt",
                  "type": "uint256"
                }
              ],
              "internalType": "struct Farm.Transaction[]",
              "name": "transactions",
              "type": "tuple[]"
            }
          ],
          "internalType": "struct Farm.Farm",
          "name": "farm",
          "type": "tuple"
        }
      ],
      "stateMutability": "view",
      "type": "function",
      "constant": true
    },
    {
      "inputs": [
        {
          "components": [
            {
              "internalType": "enum Farm.Action",
              "name": "action",
              "type": "uint8"
            },
            {
              "internalType": "enum Farm.Commodity",
              "name": "commodity",
              "type": "uint8"
            },
            {
              "internalType": "uint256",
              "name": "timestamp",
              "type": "uint256"
            },
            {
              "internalType": "uint256",
              "name": "landIndex",
              "type": "uint256"
            },
            {
              "internalType": "uint256",
              "name": "createdAt",
              "type": "uint256"
            }
          ],
          "internalType": "struct Farm.Transaction[]",
          "name": "_transactions",
          "type": "tuple[]"
        },
        {
          "internalType": "enum Farm.Commodity",
          "name": "_commodity",
          "type": "uint8"
        },
        {
          "internalType": "uint256",
          "name": "landIndex",
          "type": "uint256"
        }
      ],
      "name": "harvest",
      "outputs": [
        {
          "components": [
            {
              "components": [
                {
                  "internalType": "bool",
                  "name": "isInitialized",
                  "type": "bool"
                },
                {
                  "internalType": "uint256",
                  "name": "apples",
                  "type": "uint256"
                },
                {
                  "internalType": "uint256",
                  "name": "avocados",
                  "type": "uint256"
                }
              ],
              "internalType": "struct Farm.Inventory",
              "name": "inventory",
              "type": "tuple"
            },
            {
              "components": [
                {
                  "internalType": "enum Farm.Commodity",
                  "name": "commodity",
                  "type": "uint8"
                },
                {
                  "internalType": "uint256",
                  "name": "createdAt",
                  "type": "uint256"
                }
              ],
              "internalType": "struct Farm.Square[]",
              "name": "land",
              "type": "tuple[]"
            },
            {
              "internalType": "uint256",
              "name": "balance",
              "type": "uint256"
            },
            {
              "components": [
                {
                  "internalType": "enum Farm.Action",
                  "name": "action",
                  "type": "uint8"
                },
                {
                  "internalType": "enum Farm.Commodity",
                  "name": "commodity",
                  "type": "uint8"
                },
                {
                  "internalType": "uint256",
                  "name": "timestamp",
                  "type": "uint256"
                },
                {
                  "internalType": "uint256",
                  "name": "landIndex",
                  "type": "uint256"
                },
                {
                  "internalType": "uint256",
                  "name": "createdAt",
                  "type": "uint256"
                }
              ],
              "internalType": "struct Farm.Transaction[]",
              "name": "transactions",
              "type": "tuple[]"
            }
          ],
          "internalType": "struct Farm.Farm",
          "name": "farm",
          "type": "tuple"
        }
      ],
      "stateMutability": "view",
      "type": "function",
      "constant": true
    },
    {
      "inputs": [],
      "name": "getPrices",
      "outputs": [
        {
          "components": [
            {
              "internalType": "uint256",
              "name": "apples",
              "type": "uint256"
            },
            {
              "internalType": "uint256",
              "name": "avocados",
              "type": "uint256"
            },
            {
              "internalType": "uint256",
              "name": "timestamp",
              "type": "uint256"
            },
            {
              "internalType": "uint256",
              "name": "previousTimestamp",
              "type": "uint256"
            }
          ],
          "internalType": "struct Farm.Prices",
          "name": "price",
          "type": "tuple"
        }
      ],
      "stateMutability": "view",
      "type": "function",
      "constant": true
    },
    {
      "inputs": [],
      "name": "getApplePrice",
      "outputs": [
        {
          "internalType": "uint256",
          "name": "price",
          "type": "uint256"
        }
      ],
      "stateMutability": "view",
      "type": "function",
      "constant": true
    },
    {
      "inputs": [],
      "name": "getAvocadoPrice",
      "outputs": [
        {
          "internalType": "uint256",
          "name": "price",
          "type": "uint256"
        }
      ],
      "stateMutability": "view",
      "type": "function",
      "constant": true
    }
  ],
  "bytecode": "0x608060405260456001556000600255600960055560026006556101f460075561012c6008556305f5e100600a5562989680600b55620f4240600c553480156200004757600080fd5b50604051620033db380380620033db83398181016040528101906200006d919062000130565b806000806101000a81548173ffffffffffffffffffffffffffffffffffffffff021916908373ffffffffffffffffffffffffffffffffffffffff160217905550604051806080016040528060648152602001610190815260200142815260200160008152506009600060015481526020019081526020016000206000820151816000015560208201518160010155604082015181600201556060820151816003015590505050620001be565b6000815190506200012a81620001a4565b92915050565b6000602082840312156200014357600080fd5b6000620001538482850162000119565b91505092915050565b6000620001698262000184565b9050919050565b60006200017d826200015c565b9050919050565b600073ffffffffffffffffffffffffffffffffffffffff82169050919050565b620001af8162000170565b8114620001bb57600080fd5b50565b61320d80620001ce6000396000f3fe608060405234801561001057600080fd5b506004361061010b5760003560e01c8063900a6d3c116100a2578063bd9a548b11610071578063bd9a548b146102bd578063bf78606e146102db578063cc709ca71461030c578063d60039ff1461033c578063f6837650146103585761010b565b8063900a6d3c14610221578063b4d641dc1461023f578063ba7d808a1461026f578063bc337f781461029f5761010b565b80635690314c116100de5780635690314c146101985780635d7f850c146101b65780636163ec32146101d4578063864ccb78146101f05761010b565b806312065fe0146101105780631d5ec3cb1461012e578063218e55e414610138578063524a273a14610168575b600080fd5b610118610376565b6040516101259190612f04565b60405180910390f35b610136610427565b005b610152600480360381019061014d919061270a565b6106fe565b60405161015f9190612f04565b60405180910390f35b610182600480360381019061017d91906126a3565b61071f565b60405161018f9190612e7c565b60405180910390f35b6101a06107e2565b6040516101ad9190612d78565b60405180910390f35b6101be6108b5565b6040516101cb9190612ece565b60405180910390f35b6101ee60048036038101906101e9919061260e565b61093b565b005b61020a6004803603810190610205919061264f565b610c66565b604051610218929190612e9e565b60405180910390f35b610229610d32565b6040516102369190612f04565b60405180910390f35b6102596004803603810190610254919061260e565b610d77565b6040516102669190612e7c565b60405180910390f35b610289600480360381019061028491906126a3565b61110d565b6040516102969190612e7c565b60405180910390f35b6102a76111cf565b6040516102b49190612f04565b60405180910390f35b6102c56111ef565b6040516102d29190612ee9565b60405180910390f35b6102f560048036038101906102f0919061264f565b611244565b604051610303929190612e9e565b60405180910390f35b6103266004803603810190610321919061270a565b611310565b6040516103339190612f04565b60405180910390f35b6103566004803603810190610351919061260e565b611338565b005b61036061164f565b60405161036d9190612f04565b60405180910390f35b60008060009054906101000a900473ffffffffffffffffffffffffffffffffffffffff1673ffffffffffffffffffffffffffffffffffffffff166370a08231336040518263ffffffff1660e01b81526004016103d29190612d34565b60206040518083038186803b1580156103ea57600080fd5b505afa1580156103fe573d6000803e3d6000fd5b505050506040513d601f19601f820116820180604052508101906104229190612733565b905090565b600360003373ffffffffffffffffffffffffffffffffffffffff1673ffffffffffffffffffffffffffffffffffffffff16815260200190815260200160002060000160009054906101000a900460ff16156104b7576040517f08c379a00000000000000000000000000000000000000000000000000000000081526004016104ae90612e5c565b60405180910390fd5b6000600360003373ffffffffffffffffffffffffffffffffffffffff1673ffffffffffffffffffffffffffffffffffffffff168152602001908152602001600020905060018160000160006101000a81548160ff021916908315150217905550600181600101819055506000600460003373ffffffffffffffffffffffffffffffffffffffff1673ffffffffffffffffffffffffffffffffffffffff16815260200190815260200160002090506000604051806040016040528060028081111561057d57fe5b81526020016000815250905060005b600554811015610603578282908060018154018082558091505060019003906000526020600020906002020160009091909190915060008201518160000160006101000a81548160ff021916908360028111156105e557fe5b0217905550602082015181600101555050808060010191505061058c565b5060008060009054906101000a900473ffffffffffffffffffffffffffffffffffffffff1673ffffffffffffffffffffffffffffffffffffffff166370a08231336040518263ffffffff1660e01b81526004016106609190612d34565b60206040518083038186803b15801561067857600080fd5b505afa15801561068c573d6000803e3d6000fd5b505050506040513d601f19601f820116820180604052508101906106b09190612733565b905060603373ffffffffffffffffffffffffffffffffffffffff167f46963f16723a084f2199eb74021bd97647aa6c8960612a9a031ce509d40d4ca760405160405180910390a25050505050565b600080610709610d32565b9050600081840290506064810292505050919050565b6107276123de565b6000600960006001548152602001908152602001600020604051806080016040529081600082015481526020016001820154815260200160028201548152602001600382015481525050905060006040518060a001604052806002600381111561078d57fe5b815260200186600281111561079e57fe5b81526020018360400151815260200185815260200142815250905060006107c5878361166f565b905060006107d282611731565b9050809450505050509392505050565b6060600460003373ffffffffffffffffffffffffffffffffffffffff1673ffffffffffffffffffffffffffffffffffffffff168152602001908152602001600020805480602002602001604051908101604052809291908181526020016000905b828210156108ac57838290600052602060002090600202016040518060400160405290816000820160009054906101000a900460ff16600281111561088457fe5b600281111561088f57fe5b815260200160018201548152505081526020019060010190610843565b50505050905090565b6108bd61240c565b600360003373ffffffffffffffffffffffffffffffffffffffff1673ffffffffffffffffffffffffffffffffffffffff1681526020019081526020016000206040518060600160405290816000820160009054906101000a900460ff1615151515815260200160018201548152602001600282015481525050905090565b60008060005b83518110156109d4576000600281111561095757fe5b84828151811061096357fe5b602002602001015160200151600281111561097a57fe5b141561098b576001830192506109c9565b6001600281111561099857fe5b8482815181106109a457fe5b60200260200101516020015160028111156109bb57fe5b14156109c8576001820191505b5b600181019050610941565b506000818301905060008114156109ed57505050610c63565b6000808411156109fe576064820290505b600080841115610a18576064838581610a1357fe5b040290505b6000600654606481610a2657fe5b04905060008183039050600060019050600061025842039050600060096000600154815260200190815260200160002060405180608001604052908160008201548152602001600182015481526020016002820154815260200160038201548152505090505b8181604001511115610b1057828060010193505060028312610aad57610b10565b600081606001511415610abf57610b10565b60096000826060015181526020019081526020016000206040518060800160405290816000820154815260200160018201548152602001600282015481526020016003820154815250509050610a8c565b600060096000600154815260200190815260200160002060405180608001604052908160008201548152602001600182015481526020016002820154815260200160038201548152505090506000600a9050600081868881610b6e57fe5b0581610b7657fe5b0590506000816064039050600060648286602001510281610b9357fe5b0490506000610ba782600854600754611dce565b905085600960008860400151815260200190815260200160002060008201518160000155602082015181600101556040820151816002015560608201518160030155905050604051806080016040528060648152602001828152602001428152602001876040015181525060096000600154815260200190815260200160002060008201518160000155602082015181600101556040820151816002015560608201518160030155905050505050505050505050505050505050505b50565b610c6e6123de565b600080600960006001548152602001908152602001600020604051806080016040529081600082015481526020016001820154815260200160028201548152602001600382015481525050905060006040518060a0016040528060006003811115610cd557fe5b8152602001866002811115610ce657fe5b815260200183604001518152602001600081526020014281525090506000610d0e878361166f565b90506000610d1b82611731565b905080846000015195509550505050509250929050565b6000806002541415610d4857600c549050610d74565b6000610d55600254611dfb565b9050600c54811115610d6b576001915050610d74565b80600c54039150505b90565b610d7f6123de565b60008060009054906101000a900473ffffffffffffffffffffffffffffffffffffffff1673ffffffffffffffffffffffffffffffffffffffff166370a08231336040518263ffffffff1660e01b8152600401610ddb9190612d34565b60206040518083038186803b158015610df357600080fd5b505afa158015610e07573d6000803e3d6000fd5b505050506040513d601f19601f82011682018060405250810190610e2b9190612733565b90506000610e3884611731565b90506000600360003373ffffffffffffffffffffffffffffffffffffffff1673ffffffffffffffffffffffffffffffffffffffff168152602001908152602001600020905081600001516020015181600101819055506000600460003373ffffffffffffffffffffffffffffffffffffffff1673ffffffffffffffffffffffffffffffffffffffff168152602001908152602001600020905060005b836020015151811015610f545783602001518181518110610ef157fe5b6020026020010151828281548110610f0557fe5b906000526020600020906002020160008201518160000160006101000a81548160ff02191690836002811115610f3757fe5b021790555060208201518160010155905050600181019050610ed4565b508383604001511115610fff57600084846040015103905060008054906101000a900473ffffffffffffffffffffffffffffffffffffffff1673ffffffffffffffffffffffffffffffffffffffff166340c10f1933836040518363ffffffff1660e01b8152600401610fc7929190612d4f565b600060405180830381600087803b158015610fe157600080fd5b505af1158015610ff5573d6000803e3d6000fd5b50505050506110a6565b83836040015110156110a557600083604001518503905060008054906101000a900473ffffffffffffffffffffffffffffffffffffffff1673ffffffffffffffffffffffffffffffffffffffff16639dc29fac33836040518363ffffffff1660e01b8152600401611071929190612d4f565b600060405180830381600087803b15801561108b57600080fd5b505af115801561109f573d6000803e3d6000fd5b50505050505b5b6110af86611e40565b6002600082825401925050819055503373ffffffffffffffffffffffffffffffffffffffff167fbe35fe23c13a419d565edccb8c8bdedc160c5b9a82873e431b545080d6f3c68860405160405180910390a282945050505050919050565b6111156123de565b6000600960006001548152602001908152602001600020604051806080016040529081600082015481526020016001820154815260200160028201548152602001600382015481525050905060006040518060a0016040528060038081111561117a57fe5b815260200186600281111561118b57fe5b81526020018360400151815260200185815260200142815250905060006111b2878361166f565b905060006111bf82611731565b9050809450505050509392505050565b600060096000600154815260200190815260200160002060010154905090565b6111f761242f565b600960006001548152602001908152602001600020604051806080016040529081600082015481526020016001820154815260200160028201548152602001600382015481525050905090565b61124c6123de565b600080600960006001548152602001908152602001600020604051806080016040529081600082015481526020016001820154815260200160028201548152602001600382015481525050905060006040518060a00160405280600160038111156112b357fe5b81526020018660028111156112c457fe5b8152602001836040015181526020016000815260200142815250905060006112ec878361166f565b905060006112f982611731565b905080846000015195509550505050509250929050565b60008061131b610d32565b9050600081840290506064818161132e57fe5b0492505050919050565b600061134382610d77565b90506000600360003373ffffffffffffffffffffffffffffffffffffffff1673ffffffffffffffffffffffffffffffffffffffff1681526020019081526020016000206040518060600160405290816000820160009054906101000a900460ff161515151581526020016001820154815260200160028201548152505090508060000151611406576040517f08c379a00000000000000000000000000000000000000000000000000000000081526004016113fd90612dfc565b60405180910390fd5b6000600460003373ffffffffffffffffffffffffffffffffffffffff1673ffffffffffffffffffffffffffffffffffffffff16815260200190815260200160002090506000600390505b81805490506002820a1161146957600181019050611450565b60006002820a9050600061148a848054905083611e8f90919063ffffffff16565b90506000600a60038503831802905060006114a482611ed9565b905060006114ca6040518060600160405280602481526020016131826024913983612029565b905082896040015110158190611516576040517f08c379a000000000000000000000000000000000000000000000000000000000815260040161150d9190612d9a565b60405180910390fd5b506000604051806040016040528060028081111561153057fe5b81526020016000815250905060005b858110156115b4578882908060018154018082558091505060019003906000526020600020906002020160009091909190915060008201518160000160006101000a81548160ff0219169083600281111561159657fe5b0217905550602082015181600101555050808060010191505061153f565b5060008054906101000a900473ffffffffffffffffffffffffffffffffffffffff1673ffffffffffffffffffffffffffffffffffffffff16639dc29fac33866040518363ffffffff1660e01b8152600401611610929190612d4f565b600060405180830381600087803b15801561162a57600080fd5b505af115801561163e573d6000803e3d6000fd5b505050505050505050505050505050565b600060096000600154815260200190815260200160002060000154905090565b60606000600184510167ffffffffffffffff8111801561168e57600080fd5b506040519080825280602002602001820160405280156116c857816020015b6116b5612457565b8152602001906001900390816116ad5790505b50905060005b845181101561170d578481815181106116e357fe5b60200260200101518282815181106116f757fe5b60200260200101819052506001810190506116ce565b50828185518151811061171c57fe5b60200260200101819052508091505092915050565b6117396123de565b6000600360003373ffffffffffffffffffffffffffffffffffffffff1673ffffffffffffffffffffffffffffffffffffffff1681526020019081526020016000206040518060600160405290816000820160009054906101000a900460ff1615151515815260200160018201548152602001600282015481525050905080600001516117fa576040517f08c379a00000000000000000000000000000000000000000000000000000000081526004016117f190612dfc565b60405180910390fd5b6000600460003373ffffffffffffffffffffffffffffffffffffffff1673ffffffffffffffffffffffffffffffffffffffff168152602001908152602001600020805480602002602001604051908101604052809291908181526020016000905b828210156118c457838290600052602060002090600202016040518060400160405290816000820160009054906101000a900460ff16600281111561189c57fe5b60028111156118a757fe5b81526020016001820154815250508152602001906001019061185b565b50505050905060008060009054906101000a900473ffffffffffffffffffffffffffffffffffffffff1673ffffffffffffffffffffffffffffffffffffffff166370a08231336040518263ffffffff1660e01b81526004016119269190612d34565b60206040518083038186803b15801561193e57600080fd5b505afa158015611952573d6000803e3d6000fd5b505050506040513d601f19601f820116820180604052508101906119769190612733565b905060005b8551811015611da257600086828151811061199257fe5b6020026020010151905060006009600083604001518152602001908152602001600020604051806080016040529081600082015481526020016001820154815260200160028201548152602001600382015481525050905060006119fa878460200151612055565b90506000611a0c8385602001516120b7565b905060016003811115611a1b57fe5b84600001516003811115611a2b57fe5b1415611aa3578160011115611a75576040517f08c379a0000000000000000000000000000000000000000000000000000000008152600401611a6c90612e3c565b60405180910390fd5b611a86888560200151600180612119565b9750611a9c60648761223b90919063ffffffff16565b9550611d91565b60006003811115611ab057fe5b84600001516003811115611ac057fe5b1415611b385780861015611b09576040517f08c379a0000000000000000000000000000000000000000000000000000000008152600401611b0090612dbc565b60405180910390fd5b611b1d606487611e8f90919063ffffffff16565b9550611b3188856020015160006001612119565b9750611d90565b60026003811115611b4557fe5b84600001516003811115611b5557fe5b1415611bff5760008211611b9e576040517f08c379a0000000000000000000000000000000000000000000000000000000008152600401611b9590612ddc565b60405180910390fd5b6000604051806040016040528086602001516002811115611bbb57fe5b8152602001866080015181525090508088866060015181518110611bdb57fe5b6020026020010181905250611bf7898660200151600180612119565b985050611d8f565b600380811115611c0b57fe5b84600001516003811115611c1b57fe5b1415611d8e57600087856060015181518110611c3357fe5b6020026020010151905084602001516002811115611c4d57fe5b81600001516002811115611c5d57fe5b14611c9d576040517f08c379a0000000000000000000000000000000000000000000000000000000008152600401611c9490612e1c565b60405180910390fd5b60008160200151420390506000611cb382611ed9565b90506000611cd96040518060600160405280603281526020016131a66032913983612029565b90506000611cea89602001516122c3565b90508084118290611d31576040517f08c379a0000000000000000000000000000000000000000000000000000000008152600401611d289190612d9a565b60405180910390fd5b5060006040518060400160405280600280811115611d4b57fe5b815260200160008152509050808d8b6060015181518110611d6857fe5b6020026020010181905250611d858e8b6020015160006002612119565b9d505050505050505b5b5b5b50505050808060010191505061197b565b506040518060800160405280848152602001838152602001828152602001868152509350505050919050565b600082841015611de057829050611df4565b81841115611df057819050611df4565b8390505b9392505050565b60008060026001840181611e0b57fe5b0490508291505b81811015611e3a57809150600281828581611e2957fe5b040181611e3257fe5b049050611e12565b50919050565b6000806000905060005b8351811015611e8257611e73848281518110611e6257fe5b6020026020010151602001516122c3565b82019150600181019050611e4a565b50600a8102915050919050565b6000611ed183836040518060400160405280601e81526020017f536166654d6174683a207375627472616374696f6e206f766572666c6f77000081525061231e565b905092915050565b60606000821415611f21576040518060400160405280600181526020017f30000000000000000000000000000000000000000000000000000000000000008152509050612024565b600082905060005b60008214611f4b578080600101915050600a8281611f4357fe5b049150611f29565b60008167ffffffffffffffff81118015611f6457600080fd5b506040519080825280601f01601f191660200182016040528015611f975781602001600182028036833780820191505090505b50905060008290505b6000861461201c576001810390506000600a808881611fbb57fe5b04028703603001905060008160f81b905080848481518110611fd957fe5b60200101907effffffffffffffffffffffffffffffffffffffffffffffffffffffffffffff1916908160001a905350600a888161201257fe5b0497505050611fa0565b819450505050505b919050565b6060828260405160200161203e929190612d10565b604051602081830303815290604052905092915050565b600080600281111561206357fe5b82600281111561206f57fe5b141561208157826020015190506120b1565b6001600281111561208e57fe5b82600281111561209a57fe5b14156120ac57826040015190506120b1565b600090505b92915050565b60008060028111156120c557fe5b8260028111156120d157fe5b14156120e35782600001519050612113565b600160028111156120f057fe5b8260028111156120fc57fe5b141561210e5782602001519050612113565b600090505b92915050565b61212161240c565b6000600281111561212e57fe5b84600281111561213a57fe5b14156121aa576000600181111561214d57fe5b83600181111561215957fe5b14156121845761217682866020015161223b90919063ffffffff16565b8560200181815250506121a5565b61219b828660200151611e8f90919063ffffffff16565b8560200181815250505b612230565b600160028111156121b757fe5b8460028111156121c357fe5b141561222f57600060018111156121d657fe5b8360018111156121e257fe5b141561220d576121ff82866040015161223b90919063ffffffff16565b85604001818152505061222e565b612224828660400151611e8f90919063ffffffff16565b8560400181815250505b5b5b849050949350505050565b6000808284019050838110156122b9576040517f08c379a000000000000000000000000000000000000000000000000000000000815260040180806020018281038252601b8152602001807f536166654d6174683a206164646974696f6e206f766572666c6f77000000000081525060200191505060405180910390fd5b8091505092915050565b60008060028111156122d157fe5b8260028111156122dd57fe5b14156122ec5760069050612319565b600160028111156122f957fe5b82600281111561230557fe5b14156123145760149050612319565b600090505b919050565b60008383111582906123cb576040517f08c379a00000000000000000000000000000000000000000000000000000000081526004018080602001828103825283818151815260200191508051906020019080838360005b83811015612390578082015181840152602081019050612375565b50505050905090810190601f1680156123bd5780820380516001836020036101000a031916815260200191505b509250505060405180910390fd5b5060008385039050809150509392505050565b60405180608001604052806123f161240c565b81526020016060815260200160008152602001606081525090565b604051806060016040528060001515815260200160008152602001600081525090565b6040518060800160405280600081526020016000815260200160008152602001600081525090565b6040518060a001604052806000600381111561246f57fe5b81526020016000600281111561248157fe5b81526020016000815260200160008152602001600081525090565b60006124af6124aa84612f50565b612f1f565b905080838252602082019050828560a08602820111156124ce57600080fd5b60005b858110156124fe57816124e4888261255c565b845260208401935060a083019250506001810190506124d1565b5050509392505050565b600082601f83011261251957600080fd5b813561252984826020860161249c565b91505092915050565b6000813590506125418161314a565b92915050565b6000813590506125568161315a565b92915050565b600060a0828403121561256e57600080fd5b61257860a0612f1f565b9050600061258884828501612532565b600083015250602061259c84828501612547565b60208301525060406125b0848285016125e4565b60408301525060606125c4848285016125e4565b60608301525060806125d8848285016125e4565b60808301525092915050565b6000813590506125f38161316a565b92915050565b6000815190506126088161316a565b92915050565b60006020828403121561262057600080fd5b600082013567ffffffffffffffff81111561263a57600080fd5b61264684828501612508565b91505092915050565b6000806040838503121561266257600080fd5b600083013567ffffffffffffffff81111561267c57600080fd5b61268885828601612508565b925050602061269985828601612547565b9150509250929050565b6000806000606084860312156126b857600080fd5b600084013567ffffffffffffffff8111156126d257600080fd5b6126de86828701612508565b93505060206126ef86828701612547565b9250506040612700868287016125e4565b9150509250925092565b60006020828403121561271c57600080fd5b600061272a848285016125e4565b91505092915050565b60006020828403121561274557600080fd5b6000612753848285016125f9565b91505092915050565b60006127688383612c5b565b60408301905092915050565b60006127808383612c8a565b60a08301905092915050565b61279581613082565b82525050565b60006127a682612f9c565b6127b08185612fd7565b93506127bb83612f7c565b8060005b838110156127ec5781516127d3888261275c565b97506127de83612fbd565b9250506001810190506127bf565b5085935050505092915050565b600061280482612f9c565b61280e8185612fe8565b935061281983612f7c565b8060005b8381101561284a578151612831888261275c565b975061283c83612fbd565b92505060018101905061281d565b5085935050505092915050565b600061286282612fa7565b61286c8185612ff9565b935061287783612f8c565b8060005b838110156128a857815161288f8882612774565b975061289a83612fca565b92505060018101905061287b565b5085935050505092915050565b6128be81613026565b82525050565b6128cd81613094565b82525050565b6128dc816130a6565b82525050565b60006128ed82612fb2565b6128f7818561300a565b93506129078185602086016130dc565b61291081613111565b840191505092915050565b600061292682612fb2565b612930818561301b565b93506129408185602086016130dc565b80840191505092915050565b6000612959602b8361300a565b91507f496e76616c6964206661726d3a204e6f7420656e6f756768206d6f6e6579207460008301527f6f206275792073656564730000000000000000000000000000000000000000006020830152604082019050919050565b60006129bf60278361300a565b91507f496e76616c6964206661726d3a204e6f7420656e6f756768207365656473207460008301527f6f20706c616e74000000000000000000000000000000000000000000000000006020830152604082019050919050565b6000612a2560138361300a565b91507f4661726d20646f6573206e6f74206578697374000000000000000000000000006000830152602082019050919050565b6000612a65601d8361300a565b91507f496e76616c6964206661726d3a204e6f206672756974206578697374730000006000830152602082019050919050565b6000612aa5601e8361300a565b91507f496e76616c6964206661726d3a204e6f20736565647320746f2073656c6c00006000830152602082019050919050565b6000612ae560188361300a565b91507f496e76656e746f727920616c72656164792065786973747300000000000000006000830152602082019050919050565b600060c083016000830151612b306000860182612b82565b5060208301518482036060860152612b48828261279b565b9150506040830151612b5d6080860182612cf2565b50606083015184820360a0860152612b758282612857565b9150508091505092915050565b606082016000820151612b9860008501826128b5565b506020820151612bab6020850182612cf2565b506040820151612bbe6040850182612cf2565b50505050565b606082016000820151612bda60008501826128b5565b506020820151612bed6020850182612cf2565b506040820151612c006040850182612cf2565b50505050565b608082016000820151612c1c6000850182612cf2565b506020820151612c2f6020850182612cf2565b506040820151612c426040850182612cf2565b506060820151612c556060850182612cf2565b50505050565b604082016000820151612c7160008501826128d3565b506020820151612c846020850182612cf2565b50505050565b60a082016000820151612ca060008501826128c4565b506020820151612cb360208501826128d3565b506040820151612cc66040850182612cf2565b506060820151612cd96060850182612cf2565b506080820151612cec6080850182612cf2565b50505050565b612cfb81613078565b82525050565b612d0a81613078565b82525050565b6000612d1c828561291b565b9150612d28828461291b565b91508190509392505050565b6000602082019050612d49600083018461278c565b92915050565b6000604082019050612d64600083018561278c565b612d716020830184612d01565b9392505050565b60006020820190508181036000830152612d9281846127f9565b905092915050565b60006020820190508181036000830152612db481846128e2565b905092915050565b60006020820190508181036000830152612dd58161294c565b9050919050565b60006020820190508181036000830152612df5816129b2565b9050919050565b60006020820190508181036000830152612e1581612a18565b9050919050565b60006020820190508181036000830152612e3581612a58565b9050919050565b60006020820190508181036000830152612e5581612a98565b9050919050565b60006020820190508181036000830152612e7581612ad8565b9050919050565b60006020820190508181036000830152612e968184612b18565b905092915050565b60006040820190508181036000830152612eb88185612b18565b9050612ec76020830184612d01565b9392505050565b6000606082019050612ee36000830184612bc4565b92915050565b6000608082019050612efe6000830184612c06565b92915050565b6000602082019050612f196000830184612d01565b92915050565b6000604051905081810181811067ffffffffffffffff82111715612f4657612f4561310f565b5b8060405250919050565b600067ffffffffffffffff821115612f6b57612f6a61310f565b5b602082029050602081019050919050565b6000819050602082019050919050565b6000819050602082019050919050565b600081519050919050565b600081519050919050565b600081519050919050565b6000602082019050919050565b6000602082019050919050565b600082825260208201905092915050565b600082825260208201905092915050565b600082825260208201905092915050565b600082825260208201905092915050565b600081905092915050565b60008115159050919050565b600081905061304082613122565b919050565b600081905061305382613136565b919050565b600073ffffffffffffffffffffffffffffffffffffffff82169050919050565b6000819050919050565b600061308d826130b8565b9050919050565b600061309f82613032565b9050919050565b60006130b182613045565b9050919050565b60006130c3826130ca565b9050919050565b60006130d582613058565b9050919050565b60005b838110156130fa5780820151818401526020810190506130df565b83811115613109576000848401525b50505050565bfe5b6000601f19601f8301169050919050565b600481106131335761313261310f565b5b50565b600381106131475761314661310f565b5b50565b6004811061315757600080fd5b50565b6003811061316757600080fd5b50565b61317381613078565b811461317e57600080fd5b5056fe4e6f7420656e6f756768206d6f6e657920746f20627579206e6577206669656c64733a20496e76616c6964206661726d3a20546865206672756974206973206e6f7420726970652c20706c6561736520776169743a20a264697066735822122069aaa3b08b38f4917ce4b9ec1c9cf165f597c7a09edc4fde457fe0b75f8e944f64736f6c63430007060033",
  "immutableReferences": {},
  "source": "pragma solidity >=0.6.0 <0.8.0;\r\npragma experimental ABIEncoderV2;\r\n\r\nimport \"@openzeppelin/contracts/math/Math.sol\";\r\nimport \"./Token.sol\";\r\n\r\ncontract Farm {\r\n    using SafeMath for uint256;\r\n\r\n    //assign Token contract to variable\r\n    Token private token;\r\n    uint NOW_TIMESTAMP = 69;\r\n    uint hoursHarvested = 0;\r\n    //uint DECIMAL_PLACES = 2;\r\n\r\n    struct Square {\r\n        Commodity commodity;\r\n        uint createdAt;\r\n    }\r\n\r\n    struct Inventory {\r\n        bool isInitialized;\r\n        uint apples;\r\n        uint avocados;\r\n        // Last synced price - Limit rewards to last synced price = keeps \r\n    }\r\n\r\n\r\n    mapping(address => Inventory) inventories;\r\n    mapping(address => Square[]) fields;\r\n\r\n    //pass as constructor argument deployed Token contract\r\n    constructor(Token _token) public {\r\n        //assign token deployed contract to variable\r\n        token = _token;\r\n\r\n        // Initial prices\r\n        market[NOW_TIMESTAMP] = Prices({\r\n            apples: 100, \r\n            avocados: 400,\r\n            timestamp: block.timestamp,\r\n            previousTimestamp: 0\r\n        });\r\n    }\r\n\r\n    uint INITIAL_FIELD_COUNT = 9;\r\n\r\n    event FarmCreated(address indexed _address);\r\n    event FarmSynced(address indexed _address);\r\n\r\n    function createFarm() public {\r\n        require(!inventories[msg.sender].isInitialized, \"Inventory already exists\");\r\n\r\n        Inventory storage inventory = inventories[msg.sender];\r\n        inventory.isInitialized = true;\r\n        inventory.apples = 1;\r\n\r\n        // Farm only has 1 block\r\n        Square[] storage land = fields[msg.sender];\r\n        Square memory empty = Square(Commodity.Empty, 0);\r\n        for (uint index = 0; index < INITIAL_FIELD_COUNT; index++) {\r\n            land.push(empty);\r\n        }\r\n\r\n        uint balance = token.balanceOf(msg.sender);\r\n        Transaction[] memory transactions;\r\n\r\n        //Emit an event\r\n        emit FarmCreated(msg.sender);\r\n    }\r\n\r\n    function sqrt(uint x) private pure returns (uint y) {\r\n        uint z = (x + 1) / 2;\r\n        y = x;\r\n        while (z < y) {\r\n            y = z;\r\n            z = (x / z + z) / 2;\r\n        }\r\n    }\r\n\r\n    function buyMoreSpace(Transaction[] memory _transactions) public {\r\n        Farm memory farm = sync(_transactions);\r\n        Inventory memory inventory = inventories[msg.sender];\r\n        require(inventory.isInitialized, \"Farm does not exist\");\r\n\r\n        Square[] storage land = fields[msg.sender];\r\n        // 4\r\n        uint newWidth = 3;\r\n        while (newWidth**2 <= land.length) {\r\n            newWidth = newWidth + 1;\r\n        }\r\n\r\n        // 16\r\n        uint newSize = newWidth**2;\r\n        uint newFields = newSize.sub(land.length);\r\n\r\n        // TODO safemath\r\n        uint price = (newFields ^ (newWidth - 3)) * 10;\r\n\r\n        string memory priceString = uint2str(price);\r\n        string memory message = concatenate(\"Not enough money to buy new fields: \", priceString);\r\n        require(farm.balance >= price, message);\r\n\r\n        Square memory empty = Square(Commodity.Empty, 0);\r\n        // Do not bother rearranging the array - it is already in a strange square!\r\n        for (uint index = 0; index < newFields; index++) {\r\n            land.push(empty);\r\n        }\r\n\r\n\r\n        // TODO - Add the new spots\r\n        token.burn(msg.sender, price);\r\n    }\r\n\r\n    function getInventory() public view returns (Inventory memory) {\r\n        return inventories[msg.sender];\r\n    }\r\n\r\n    function getLand() public view returns (Square[] memory) {\r\n        return fields[msg.sender];\r\n    }\r\n\r\n    enum Action { Buy, Sell, Plant, Harvest }\r\n    uint FRUIT_COUNT = 2;\r\n    enum Commodity { AppleSeed, AvocadoSeed, Empty }\r\n\r\n    struct Transaction { \r\n        Action action;\r\n        Commodity commodity;\r\n        // Unique prices key\r\n        uint timestamp;\r\n        uint landIndex;\r\n        uint createdAt;\r\n    }\r\n\r\n    uint MAX_AVOCADO_PRICE = 500;\r\n    uint MIN_AVOCADO_PRICE = 300;\r\n\r\n    struct Prices {\r\n        uint apples;\r\n        uint avocados;\r\n        uint timestamp;\r\n        uint previousTimestamp;\r\n    }\r\n     \r\n    mapping(uint => Prices) market;\r\n\r\n    struct Farm {\r\n        Inventory inventory;\r\n        Square[] land;\r\n        uint balance;\r\n        Transaction[] transactions;\r\n    }\r\n\r\n    function getHarvestSeconds(Commodity _commodity) private view returns (uint) {\r\n        if (_commodity == Commodity.AppleSeed) {\r\n            return 6;\r\n        } else if (_commodity == Commodity.AvocadoSeed) {\r\n            return 20;\r\n        }\r\n\r\n        return 0;\r\n    }\r\n\r\n    function getSeedFromInventory(Inventory memory _inventory, Commodity _commodity) private view returns (uint count) {\r\n        if (_commodity == Commodity.AppleSeed) {\r\n            return _inventory.apples;\r\n        } else if (_commodity == Commodity.AvocadoSeed) {\r\n            return _inventory.avocados;\r\n        }\r\n\r\n        return 0;\r\n    }\r\n\r\n    function getFruitPrice(Prices memory prices, Commodity _commodity) private view returns (uint price) {\r\n        if (_commodity == Commodity.AppleSeed) {\r\n            return prices.apples;\r\n        } else if (_commodity == Commodity.AvocadoSeed) {\r\n            return prices.avocados;\r\n        }\r\n\r\n        return 0;\r\n    }\r\n\r\n    enum InventoryAction {\r\n        Add,\r\n        Subtract\r\n    }\r\n\r\n    function updateInventory(Inventory memory _inventory, Commodity _commodity, InventoryAction _action, uint _change) private view returns (Inventory memory) {\r\n        if (_commodity == Commodity.AppleSeed) {\r\n            if (_action == InventoryAction.Add) {\r\n                _inventory.apples = _inventory.apples.add(_change);\r\n            } else {\r\n                _inventory.apples = _inventory.apples.sub(_change);\r\n            }\r\n        } else if (_commodity == Commodity.AvocadoSeed) {\r\n            if (_action == InventoryAction.Add) {\r\n                _inventory.avocados = _inventory.avocados.add(_change);\r\n            } else {\r\n                _inventory.avocados = _inventory.avocados.sub(_change);\r\n            }\r\n        }\r\n\r\n        return _inventory;\r\n    }\r\n\r\n    function concatenate(\r\n        string memory a,\r\n        string memory b)\r\n        internal\r\n        pure\r\n        returns(string memory) {\r\n            return string(abi.encodePacked(a, b));\r\n        }\r\n\r\n    function uint2str(uint _i) internal pure returns (string memory _uintAsString) {\r\n        if (_i == 0) {\r\n            return \"0\";\r\n        }\r\n        uint j = _i;\r\n        uint len;\r\n        while (j != 0) {\r\n            len++;\r\n            j /= 10;\r\n        }\r\n        bytes memory bstr = new bytes(len);\r\n        uint k = len;\r\n        while (_i != 0) {\r\n            k = k-1;\r\n            uint8 temp = (48 + uint8(_i - _i / 10 * 10));\r\n            bytes1 b1 = bytes1(temp);\r\n            bstr[k] = b1;\r\n            _i /= 10;\r\n        }\r\n        return string(bstr);\r\n    }\r\n\r\n    function buildFarm(Transaction[] memory _transactions) private view returns (Farm memory currentFarm) {\r\n        Inventory memory inventory = inventories[msg.sender];\r\n\r\n        require(inventory.isInitialized, \"Farm does not exist\");\r\n\r\n        Square[] memory land = fields[msg.sender];\r\n        uint balance = token.balanceOf(msg.sender);\r\n\r\n        for (uint index = 0; index < _transactions.length; index++) {\r\n            Transaction memory transaction = _transactions[index];\r\n            Prices memory prices = market[transaction.timestamp];\r\n            \r\n            uint seedCount = getSeedFromInventory(inventory, transaction.commodity);\r\n            uint price = getFruitPrice(prices, transaction.commodity);\r\n\r\n            if (transaction.action == Action.Sell) {\r\n                require(1 <= seedCount, \"Invalid farm: No seeds to sell\");\r\n\r\n                inventory = updateInventory(inventory, transaction.commodity, InventoryAction.Subtract, 1);\r\n                // TODO USE REAL PRICES\r\n                balance = balance.add(100);\r\n            } else if (transaction.action == Action.Buy) {\r\n                require(balance >= price, \"Invalid farm: Not enough money to buy seeds\");\r\n\r\n                // TODO USE REAL PRICES\r\n                balance = balance.sub(100);\r\n                inventory = updateInventory(inventory, transaction.commodity, InventoryAction.Add, 1);\r\n            } else if (transaction.action == Action.Plant) {\r\n                require(seedCount > 0, \"Invalid farm: Not enough seeds to plant\");\r\n\r\n\r\n                Square memory plantedSeed = Square({\r\n                    commodity: transaction.commodity,\r\n                    // TODO - When they sync the far6 will be at the time of the farm :(\r\n                    createdAt: transaction.createdAt\r\n                });\r\n                land[transaction.landIndex] = plantedSeed;\r\n                inventory = updateInventory(inventory, transaction.commodity, InventoryAction.Subtract, 1);\r\n            } else if (transaction.action == Action.Harvest) {\r\n                Square memory square = land[transaction.landIndex];\r\n                require(square.commodity == transaction.commodity, \"Invalid farm: No fruit exists\");\r\n\r\n                uint duration = block.timestamp - square.createdAt;\r\n                string memory durationString = uint2str(duration);\r\n                string memory message = concatenate(\"Invalid farm: The fruit is not ripe, please wait: \", durationString);\r\n                uint fruitHarvesetSeconds = getHarvestSeconds(transaction.commodity);\r\n                require(duration > fruitHarvesetSeconds, message);\r\n\r\n                // Clear the land\r\n                Square memory emptyLand = Square(Commodity.Empty, 0);\r\n                land[transaction.landIndex] = emptyLand;\r\n                inventory = updateInventory(inventory, transaction.commodity, InventoryAction.Add, 2);\r\n            }\r\n        }\r\n\r\n        return Farm({\r\n            inventory: inventory,\r\n            land: land,\r\n            balance: balance,\r\n            transactions: _transactions\r\n        });\r\n    }\r\n\r\n    function clamp(uint value, uint minimum, uint maximum) private pure returns (uint clamped) {\r\n        if (value < minimum) {\r\n            return minimum;\r\n        }\r\n\r\n        if (value > maximum) {\r\n            return maximum;\r\n        }\r\n\r\n        return value;\r\n    }\r\n\r\n    // Assume the proportional number of transactions is what influences price\r\n    // Since at the time of transaction, they will likely be buying something and have sold all their seeds\r\n    function moveTheMarket(Transaction[] memory _transactions) public {\r\n        uint apples = 0;\r\n        uint avocados = 0;\r\n\r\n        // What is the biggest mover?\r\n        for (uint i=0; i < _transactions.length; i += 1) {\r\n            if (_transactions[i].commodity == Commodity.AppleSeed) {\r\n                apples += 1;\r\n            } else if ( _transactions[i].commodity == Commodity.AvocadoSeed) {\r\n                avocados += 1;\r\n            }\r\n        }\r\n\r\n        uint totalFruitTransactions = apples + avocados;\r\n\r\n        if (totalFruitTransactions == 0) {\r\n            // TODO still update the timestamps being used\r\n            return;\r\n        }\r\n\r\n        // Percentage of transactions that were apples\r\n        uint applePercentage = 0;\r\n        if (apples > 0) {\r\n            applePercentage = totalFruitTransactions * 100;\r\n        } \r\n        uint avocadoPercentage = 0;\r\n        if (avocados > 0) {\r\n            // 35%\r\n            avocadoPercentage = avocados / totalFruitTransactions * 100;\r\n        } \r\n\r\n        // 30%\r\n        uint expectedTransactions = 100 / FRUIT_COUNT;\r\n\r\n        // 5% \r\n        int avocadoChange = int(avocadoPercentage) - int(expectedTransactions);\r\n\r\n\r\n        //TODO even out the price from the previous hour - store transactions in the last hour?\r\n        int transactionCount = 1;\r\n        uint tenMinutesAgo = block.timestamp - (60 * 10);\r\n        Prices memory prices = market[NOW_TIMESTAMP];\r\n        while (prices.timestamp > tenMinutesAgo) {\r\n            transactionCount++;\r\n            \r\n            // Endless loop if we do not have this???\r\n            if (transactionCount >= 2) {\r\n                break;\r\n            }\r\n\r\n            // Back to the beginining\r\n            if (prices.previousTimestamp == 0) {\r\n                break;\r\n            }\r\n\r\n            prices = market[prices.previousTimestamp];\r\n        }\r\n\r\n        Prices memory currentPrices = market[NOW_TIMESTAMP];\r\n\r\n        // To avoid major market shifts, divide it\r\n        int MARKET_IMPACT = 10;\r\n        // 5% / 3 Transactions = 1.8%\r\n        int relativeAvocadoChange = avocadoChange / transactionCount / MARKET_IMPACT;\r\n        // 98.2% - we want to decrease it a little.\r\n        int percentage = 100 - relativeAvocadoChange;\r\n        // $5.23\r\n        uint avocadoPrice = currentPrices.avocados * uint(percentage) / 100;\r\n        // $5\r\n        uint clampedAvocadoPrice = clamp(avocadoPrice, MIN_AVOCADO_PRICE, MAX_AVOCADO_PRICE);\r\n\r\n        market[currentPrices.timestamp] = currentPrices;\r\n        market[NOW_TIMESTAMP] = Prices({\r\n            // Staple crop\r\n            apples: 100,\r\n            avocados: clampedAvocadoPrice,\r\n            timestamp: block.timestamp,\r\n            previousTimestamp: currentPrices.timestamp\r\n        });\r\n    }\r\n\r\n    function getHoursHarvested(Transaction[] memory _transactions) private view returns (uint) {\r\n        uint secondsHarvested = 0;\r\n        for (uint i=0; i < _transactions.length; i += 1) {\r\n            secondsHarvested = secondsHarvested + getHarvestSeconds(_transactions[i].commodity);\r\n        }\r\n\r\n        // Solidity uses integer division, which is equivalent to floored division.\r\n        // TESTING - return secondsHarvested / 3600;\r\n        return secondsHarvested * 10;\r\n    }\r\n\r\n    function sync(Transaction[] memory _transactions) public returns (Farm memory) {\r\n        uint balance = token.balanceOf(msg.sender);\r\n        Farm memory farm = buildFarm(_transactions);\r\n\r\n        // Update the inventory\r\n        Inventory storage oldInventory = inventories[msg.sender];\r\n        oldInventory.apples = farm.inventory.apples;\r\n\r\n        // Update the land\r\n        Square[] storage land = fields[msg.sender];\r\n        for (uint i=0; i < farm.land.length; i += 1) {\r\n            land[i] = farm.land[i];\r\n        }\r\n\r\n\r\n        // Update the balance - mint or burn\r\n        if (farm.balance > balance) {\r\n            uint profit = farm.balance - balance;\r\n            token.mint(msg.sender, profit);\r\n        } else if (farm.balance < balance) {\r\n            uint loss = balance - farm.balance;\r\n            token.burn(msg.sender, loss);\r\n        }\r\n\r\n        hoursHarvested += getHoursHarvested(_transactions);\r\n\r\n        emit FarmSynced(msg.sender);\r\n        return farm;\r\n    }\r\n\r\n    uint limit = 100000000;\r\n    uint multiplier = 10000000;\r\n\r\n    uint ORIGINAL_CONVERSION = 1000000;\r\n\r\n    function getConversion() public view returns (uint conversion) {\r\n        if (hoursHarvested == 0) {\r\n            return ORIGINAL_CONVERSION;\r\n        }\r\n\r\n        uint hourRoot = sqrt(hoursHarvested);\r\n\r\n        // We are at the maximum conversion rate, now it is 1:1\r\n        // This is when 1e+12 hours have been harvested\r\n        if (hourRoot > ORIGINAL_CONVERSION) {\r\n            return 1;\r\n        }\r\n\r\n        return ORIGINAL_CONVERSION - hourRoot;\r\n    }\r\n\r\n    function dollarToFMC(uint dollars) public view returns (uint fmc) {\r\n        uint conversion = getConversion();\r\n        uint realFMC = dollars * conversion;\r\n\r\n        // Remove the decimal points\r\n        return realFMC / 100;\r\n    }\r\n\r\n    // Decimal places to multiple by 100\r\n    function FMCToDollar(uint fmc) public view returns (uint dollars) {\r\n        uint conversion = getConversion();\r\n        uint realDollars = fmc * conversion;\r\n        // Support for decimal points\r\n        return realDollars * 100;\r\n    }\r\n\r\n    function getBalance() public view returns (uint balance) {\r\n        return token.balanceOf(msg.sender);\r\n    }\r\n\r\n    function addTransaction(Transaction[] memory _transactions, Transaction memory _transaction) private view returns (Transaction[] memory) {\r\n        Transaction[] memory newTransactions = new Transaction[](_transactions.length + 1);\r\n        for (uint i=0; i < _transactions.length; i += 1) {\r\n            newTransactions[i] = _transactions[i];\r\n        }\r\n\r\n        // Add the new transaction\r\n        newTransactions[_transactions.length] = _transaction;\r\n\r\n        return newTransactions;\r\n    }\r\n\r\n    function buy(Transaction[] memory _transactions, Commodity _commodity) public view returns (Farm memory farm, uint price) {\r\n        Prices memory currentPrices = market[NOW_TIMESTAMP];\r\n        Transaction memory buyAppleTransaction = Transaction({\r\n            action: Action.Buy,\r\n            commodity: _commodity,\r\n            timestamp: currentPrices.timestamp,\r\n            landIndex: 0,\r\n            createdAt: block.timestamp\r\n        });\r\n        Transaction[] memory newTransactions = addTransaction(_transactions, buyAppleTransaction);\r\n\r\n\r\n        Farm memory updatedFarm = buildFarm(newTransactions);\r\n        return (updatedFarm,currentPrices.apples);\r\n    }\r\n\r\n    function sell(Transaction[] memory _transactions, Commodity _commodity) public view returns (Farm memory farm, uint price) {\r\n        Prices memory currentPrices = market[NOW_TIMESTAMP];\r\n        Transaction memory sellAppleTransaction = Transaction({\r\n            action: Action.Sell,\r\n            commodity: _commodity,\r\n            timestamp: currentPrices.timestamp,\r\n            landIndex: 0,\r\n            createdAt: block.timestamp\r\n        });\r\n        Transaction[] memory newTransactions = addTransaction(_transactions, sellAppleTransaction);\r\n\r\n\r\n        Farm memory updatedFarm = buildFarm(newTransactions);\r\n        return (updatedFarm, currentPrices.apples);\r\n    }\r\n\r\n    function plant(Transaction[] memory _transactions, Commodity _commodity, uint landIndex) public view returns (Farm memory farm) {\r\n        Prices memory currentPrices = market[NOW_TIMESTAMP];\r\n        Transaction memory plantAppleTransaction = Transaction({\r\n            action: Action.Plant,\r\n            commodity: _commodity,\r\n            timestamp: currentPrices.timestamp,\r\n            landIndex: landIndex,\r\n            createdAt: block.timestamp\r\n        });\r\n        Transaction[] memory newTransactions = addTransaction(_transactions, plantAppleTransaction);\r\n\r\n        Farm memory updatedFarm = buildFarm(newTransactions);\r\n        return (updatedFarm);\r\n    }\r\n\r\n    function harvest(Transaction[] memory _transactions, Commodity _commodity, uint landIndex) public view returns (Farm memory farm) {\r\n        // Add the new transaction\r\n        Prices memory currentPrices = market[NOW_TIMESTAMP];\r\n        Transaction memory plantAppleTransaction = Transaction({\r\n            action: Action.Harvest,\r\n            commodity: _commodity,\r\n            timestamp: currentPrices.timestamp,\r\n            landIndex: landIndex,\r\n            createdAt: block.timestamp\r\n        });\r\n        Transaction[] memory newTransactions = addTransaction(_transactions, plantAppleTransaction);\r\n\r\n        Farm memory updatedFarm = buildFarm(newTransactions);\r\n        return (updatedFarm);\r\n    }\r\n\r\n    function getPrices() public view returns (Prices memory price) {\r\n        return market[NOW_TIMESTAMP];\r\n    }\r\n\r\n    function getApplePrice() public view returns (uint price) {\r\n        return market[NOW_TIMESTAMP].apples;\r\n    }\r\n\r\n    function getAvocadoPrice() public view returns (uint price) {\r\n        return market[NOW_TIMESTAMP].avocados;\r\n    }\r\n}\r\n",
  "sourcePath": "/Users/adamhannigan/Documents/workspace/fruit-market/src/contracts/Farm.sol",
  "compiler": {
    "name": "solc",
    "version": "0.7.6+commit.7338295f.Emscripten.clang"
  },
  "schemaVersion": "3.4.0",
  "updatedAt": "2021-05-21T11:16:31.649Z",
  "networkType": "ethereum",
  "devdoc": {
    "kind": "dev",
    "methods": {},
    "version": 1
  },
  "userdoc": {
    "kind": "user",
    "methods": {},
    "version": 1
  }
}