{
  "contractName": "Farm",
  "abi": [
    {
      "inputs": [
        {
          "internalType": "contract Token",
          "name": "_token",
          "type": "address"
        }
      ],
      "stateMutability": "nonpayable",
      "type": "constructor"
    },
    {
      "anonymous": false,
      "inputs": [
        {
          "indexed": true,
          "internalType": "address",
          "name": "_address",
          "type": "address"
        }
      ],
      "name": "FarmCreated",
      "type": "event"
    },
    {
      "anonymous": false,
      "inputs": [
        {
          "indexed": true,
          "internalType": "address",
          "name": "_address",
          "type": "address"
        }
      ],
      "name": "FarmSynced",
      "type": "event"
    },
    {
      "inputs": [],
      "name": "createFarm",
      "outputs": [],
      "stateMutability": "nonpayable",
      "type": "function"
    },
    {
      "inputs": [],
      "name": "getLevel",
      "outputs": [
        {
          "internalType": "uint256",
          "name": "level",
          "type": "uint256"
        }
      ],
      "stateMutability": "view",
      "type": "function",
      "constant": true
    },
    {
      "inputs": [
        {
          "components": [
            {
              "internalType": "enum Farm.Action",
              "name": "action",
              "type": "uint8"
            },
            {
              "internalType": "enum Farm.Fruit",
              "name": "commodity",
              "type": "uint8"
            },
            {
              "internalType": "uint256",
              "name": "timestamp",
              "type": "uint256"
            },
            {
              "internalType": "uint256",
              "name": "landIndex",
              "type": "uint256"
            },
            {
              "internalType": "uint256",
              "name": "createdAt",
              "type": "uint256"
            }
          ],
          "internalType": "struct Farm.Transaction[]",
          "name": "_transactions",
          "type": "tuple[]"
        }
      ],
      "name": "buyMoreSpace",
      "outputs": [],
      "stateMutability": "nonpayable",
      "type": "function"
    },
    {
      "inputs": [],
      "name": "getLand",
      "outputs": [
        {
          "components": [
            {
              "internalType": "enum Farm.Fruit",
              "name": "commodity",
              "type": "uint8"
            },
            {
              "internalType": "uint256",
              "name": "createdAt",
              "type": "uint256"
            }
          ],
          "internalType": "struct Farm.Square[]",
          "name": "",
          "type": "tuple[]"
        }
      ],
      "stateMutability": "view",
      "type": "function",
      "constant": true
    },
    {
      "inputs": [
        {
          "components": [
            {
              "internalType": "enum Farm.Action",
              "name": "action",
              "type": "uint8"
            },
            {
              "internalType": "enum Farm.Fruit",
              "name": "commodity",
              "type": "uint8"
            },
            {
              "internalType": "uint256",
              "name": "timestamp",
              "type": "uint256"
            },
            {
              "internalType": "uint256",
              "name": "landIndex",
              "type": "uint256"
            },
            {
              "internalType": "uint256",
              "name": "createdAt",
              "type": "uint256"
            }
          ],
          "internalType": "struct Farm.Transaction[]",
          "name": "_transactions",
          "type": "tuple[]"
        }
      ],
      "name": "sync",
      "outputs": [
        {
          "components": [
            {
              "components": [
                {
                  "internalType": "enum Farm.Fruit",
                  "name": "commodity",
                  "type": "uint8"
                },
                {
                  "internalType": "uint256",
                  "name": "createdAt",
                  "type": "uint256"
                }
              ],
              "internalType": "struct Farm.Square[]",
              "name": "land",
              "type": "tuple[]"
            },
            {
              "internalType": "uint256",
              "name": "balance",
              "type": "uint256"
            },
            {
              "components": [
                {
                  "internalType": "enum Farm.Action",
                  "name": "action",
                  "type": "uint8"
                },
                {
                  "internalType": "enum Farm.Fruit",
                  "name": "commodity",
                  "type": "uint8"
                },
                {
                  "internalType": "uint256",
                  "name": "timestamp",
                  "type": "uint256"
                },
                {
                  "internalType": "uint256",
                  "name": "landIndex",
                  "type": "uint256"
                },
                {
                  "internalType": "uint256",
                  "name": "createdAt",
                  "type": "uint256"
                }
              ],
              "internalType": "struct Farm.Transaction[]",
              "name": "transactions",
              "type": "tuple[]"
            },
            {
              "internalType": "uint256",
              "name": "level",
              "type": "uint256"
            }
          ],
          "internalType": "struct Farm.Farm",
          "name": "",
          "type": "tuple"
        }
      ],
      "stateMutability": "nonpayable",
      "type": "function"
    },
    {
      "inputs": [],
      "name": "getConversion",
      "outputs": [
        {
          "internalType": "uint256",
          "name": "conversion",
          "type": "uint256"
        }
      ],
      "stateMutability": "view",
      "type": "function",
      "constant": true
    },
    {
      "inputs": [
        {
          "internalType": "uint256",
          "name": "dollars",
          "type": "uint256"
        }
      ],
      "name": "dollarToFMC",
      "outputs": [
        {
          "internalType": "uint256",
          "name": "fmc",
          "type": "uint256"
        }
      ],
      "stateMutability": "view",
      "type": "function",
      "constant": true
    },
    {
      "inputs": [
        {
          "internalType": "uint256",
          "name": "fmc",
          "type": "uint256"
        }
      ],
      "name": "FMCToDollar",
      "outputs": [
        {
          "internalType": "uint256",
          "name": "dollars",
          "type": "uint256"
        }
      ],
      "stateMutability": "view",
      "type": "function",
      "constant": true
    },
    {
      "inputs": [],
      "name": "getBalance",
      "outputs": [
        {
          "internalType": "uint256",
          "name": "balance",
          "type": "uint256"
        }
      ],
      "stateMutability": "view",
      "type": "function",
      "constant": true
    },
    {
      "inputs": [
        {
          "components": [
            {
              "internalType": "enum Farm.Action",
              "name": "action",
              "type": "uint8"
            },
            {
              "internalType": "enum Farm.Fruit",
              "name": "commodity",
              "type": "uint8"
            },
            {
              "internalType": "uint256",
              "name": "timestamp",
              "type": "uint256"
            },
            {
              "internalType": "uint256",
              "name": "landIndex",
              "type": "uint256"
            },
            {
              "internalType": "uint256",
              "name": "createdAt",
              "type": "uint256"
            }
          ],
          "internalType": "struct Farm.Transaction[]",
          "name": "_transactions",
          "type": "tuple[]"
        },
        {
          "internalType": "enum Farm.Fruit",
          "name": "_commodity",
          "type": "uint8"
        },
        {
          "internalType": "uint256",
          "name": "landIndex",
          "type": "uint256"
        }
      ],
      "name": "plant",
      "outputs": [
        {
          "components": [
            {
              "components": [
                {
                  "internalType": "enum Farm.Fruit",
                  "name": "commodity",
                  "type": "uint8"
                },
                {
                  "internalType": "uint256",
                  "name": "createdAt",
                  "type": "uint256"
                }
              ],
              "internalType": "struct Farm.Square[]",
              "name": "land",
              "type": "tuple[]"
            },
            {
              "internalType": "uint256",
              "name": "balance",
              "type": "uint256"
            },
            {
              "components": [
                {
                  "internalType": "enum Farm.Action",
                  "name": "action",
                  "type": "uint8"
                },
                {
                  "internalType": "enum Farm.Fruit",
                  "name": "commodity",
                  "type": "uint8"
                },
                {
                  "internalType": "uint256",
                  "name": "timestamp",
                  "type": "uint256"
                },
                {
                  "internalType": "uint256",
                  "name": "landIndex",
                  "type": "uint256"
                },
                {
                  "internalType": "uint256",
                  "name": "createdAt",
                  "type": "uint256"
                }
              ],
              "internalType": "struct Farm.Transaction[]",
              "name": "transactions",
              "type": "tuple[]"
            },
            {
              "internalType": "uint256",
              "name": "level",
              "type": "uint256"
            }
          ],
          "internalType": "struct Farm.Farm",
          "name": "farm",
          "type": "tuple"
        }
      ],
      "stateMutability": "view",
      "type": "function",
      "constant": true
    },
    {
      "inputs": [
        {
          "components": [
            {
              "internalType": "enum Farm.Action",
              "name": "action",
              "type": "uint8"
            },
            {
              "internalType": "enum Farm.Fruit",
              "name": "commodity",
              "type": "uint8"
            },
            {
              "internalType": "uint256",
              "name": "timestamp",
              "type": "uint256"
            },
            {
              "internalType": "uint256",
              "name": "landIndex",
              "type": "uint256"
            },
            {
              "internalType": "uint256",
              "name": "createdAt",
              "type": "uint256"
            }
          ],
          "internalType": "struct Farm.Transaction[]",
          "name": "_transactions",
          "type": "tuple[]"
        },
        {
          "internalType": "enum Farm.Fruit",
          "name": "_commodity",
          "type": "uint8"
        },
        {
          "internalType": "uint256",
          "name": "landIndex",
          "type": "uint256"
        }
      ],
      "name": "harvest",
      "outputs": [
        {
          "components": [
            {
              "components": [
                {
                  "internalType": "enum Farm.Fruit",
                  "name": "commodity",
                  "type": "uint8"
                },
                {
                  "internalType": "uint256",
                  "name": "createdAt",
                  "type": "uint256"
                }
              ],
              "internalType": "struct Farm.Square[]",
              "name": "land",
              "type": "tuple[]"
            },
            {
              "internalType": "uint256",
              "name": "balance",
              "type": "uint256"
            },
            {
              "components": [
                {
                  "internalType": "enum Farm.Action",
                  "name": "action",
                  "type": "uint8"
                },
                {
                  "internalType": "enum Farm.Fruit",
                  "name": "commodity",
                  "type": "uint8"
                },
                {
                  "internalType": "uint256",
                  "name": "timestamp",
                  "type": "uint256"
                },
                {
                  "internalType": "uint256",
                  "name": "landIndex",
                  "type": "uint256"
                },
                {
                  "internalType": "uint256",
                  "name": "createdAt",
                  "type": "uint256"
                }
              ],
              "internalType": "struct Farm.Transaction[]",
              "name": "transactions",
              "type": "tuple[]"
            },
            {
              "internalType": "uint256",
              "name": "level",
              "type": "uint256"
            }
          ],
          "internalType": "struct Farm.Farm",
          "name": "farm",
          "type": "tuple"
        }
      ],
      "stateMutability": "view",
      "type": "function",
      "constant": true
    },
    {
      "inputs": [],
      "name": "getPrices",
      "outputs": [
        {
          "components": [
            {
              "internalType": "uint256",
              "name": "apples",
              "type": "uint256"
            },
            {
              "internalType": "uint256",
              "name": "avocados",
              "type": "uint256"
            },
            {
              "internalType": "uint256",
              "name": "timestamp",
              "type": "uint256"
            },
            {
              "internalType": "uint256",
              "name": "previousTimestamp",
              "type": "uint256"
            }
          ],
          "internalType": "struct Farm.Prices",
          "name": "price",
          "type": "tuple"
        }
      ],
      "stateMutability": "view",
      "type": "function",
      "constant": true
    },
    {
      "inputs": [],
      "name": "getApplePrice",
      "outputs": [
        {
          "internalType": "uint256",
          "name": "price",
          "type": "uint256"
        }
      ],
      "stateMutability": "view",
      "type": "function",
      "constant": true
    },
    {
      "inputs": [],
      "name": "getAvocadoPrice",
      "outputs": [
        {
          "internalType": "uint256",
          "name": "price",
          "type": "uint256"
        }
      ],
      "stateMutability": "view",
      "type": "function",
      "constant": true
    }
  ],
  "bytecode": "0x60806040526045600155600060025560026005556101f460065561012c600755620186a06009553480156200003357600080fd5b50604051620030883803806200308883398181016040528101906200005991906200011c565b806000806101000a81548173ffffffffffffffffffffffffffffffffffffffff021916908373ffffffffffffffffffffffffffffffffffffffff160217905550604051806080016040528060648152602001610190815260200142815260200160008152506008600060015481526020019081526020016000206000820151816000015560208201518160010155604082015181600201556060820151816003015590505050620001aa565b600081519050620001168162000190565b92915050565b6000602082840312156200012f57600080fd5b60006200013f8482850162000105565b91505092915050565b6000620001558262000170565b9050919050565b6000620001698262000148565b9050919050565b600073ffffffffffffffffffffffffffffffffffffffff82169050919050565b6200019b816200015c565b8114620001a757600080fd5b50565b612ece80620001ba6000396000f3fe608060405234801561001057600080fd5b50600436106100ea5760003560e01c8063b4d641dc1161008c578063bd9a548b11610066578063bd9a548b1461024f578063cc709ca71461026d578063d60039ff1461029d578063f6837650146102b9576100ea565b8063b4d641dc146101d1578063ba7d808a14610201578063bc337f7814610231576100ea565b8063524a273a116100c8578063524a273a146101475780635690314c14610177578063900a6d3c14610195578063a5985e8c146101b3576100ea565b806312065fe0146100ef5780631d5ec3cb1461010d578063218e55e414610117575b600080fd5b6100f76102d7565b6040516101049190612bd1565b60405180910390f35b610115610394565b005b610131600480360381019061012c919061236f565b6106d2565b60405161013e9190612bd1565b60405180910390f35b610161600480360381019061015c9190612308565b6106fa565b60405161016e9190612b94565b60405180910390f35b61017f6107bd565b60405161018c9190612a30565b60405180910390f35b61019d610890565b6040516101aa9190612bd1565b60405180910390f35b6101bb6108d5565b6040516101c89190612bd1565b60405180910390f35b6101eb60048036038101906101e691906122c7565b610929565b6040516101f89190612b94565b60405180910390f35b61021b60048036038101906102169190612308565b610c37565b6040516102289190612b94565b60405180910390f35b610239610cf9565b6040516102469190612bd1565b60405180910390f35b610257610d19565b6040516102649190612bb6565b60405180910390f35b6102876004803603810190610282919061236f565b610d6e565b6040516102949190612bd1565b60405180910390f35b6102b760048036038101906102b291906122c7565b610d96565b005b6102c1611107565b6040516102ce9190612bd1565b60405180910390f35b60008060008054906101000a900473ffffffffffffffffffffffffffffffffffffffff1673ffffffffffffffffffffffffffffffffffffffff166370a08231336040518263ffffffff1660e01b815260040161033391906129ec565b60206040518083038186803b15801561034b57600080fd5b505afa15801561035f573d6000803e3d6000fd5b505050506040513d601f19601f820116820180604052508101906103839190612398565b905061038e816106d2565b91505090565b6000600360003373ffffffffffffffffffffffffffffffffffffffff1673ffffffffffffffffffffffffffffffffffffffff1681526020019081526020016000208054905014610419576040517f08c379a000000000000000000000000000000000000000000000000000000000815260040161041090612a74565b60405180910390fd5b6000600360003373ffffffffffffffffffffffffffffffffffffffff1673ffffffffffffffffffffffffffffffffffffffff1681526020019081526020016000209050600060405180604001604052806000600781111561047657fe5b815260200160008152509050600060405180604001604052806001600781111561049c57fe5b81526020014281525090508282908060018154018082558091505060019003906000526020600020906002020160009091909190915060008201518160000160006101000a81548160ff021916908360078111156104f657fe5b02179055506020820151816001015550508281908060018154018082558091505060019003906000526020600020906002020160009091909190915060008201518160000160006101000a81548160ff0219169083600781111561055657fe5b02179055506020820151816001015550508281908060018154018082558091505060019003906000526020600020906002020160009091909190915060008201518160000160006101000a81548160ff021916908360078111156105b657fe5b02179055506020820151816001015550508281908060018154018082558091505060019003906000526020600020906002020160009091909190915060008201518160000160006101000a81548160ff0219169083600781111561061657fe5b02179055506020820151816001015550508282908060018154018082558091505060019003906000526020600020906002020160009091909190915060008201518160000160006101000a81548160ff0219169083600781111561067657fe5b021790555060208201518160010155505060603373ffffffffffffffffffffffffffffffffffffffff167f46963f16723a084f2199eb74021bd97647aa6c8960612a9a031ce509d40d4ca760405160405180910390a250505050565b6000806106dd610890565b905060006064840290508181816106f057fe5b0492505050919050565b6107026120c0565b6000600860006001548152602001908152602001600020604051806080016040529081600082015481526020016001820154815260200160028201548152602001600382015481525050905060006040518060a001604052806000600181111561076857fe5b815260200186600781111561077957fe5b81526020018360400151815260200185815260200142815250905060006107a08783611127565b905060006107ad826111e9565b9050809450505050509392505050565b6060600360003373ffffffffffffffffffffffffffffffffffffffff1673ffffffffffffffffffffffffffffffffffffffff168152602001908152602001600020805480602002602001604051908101604052809291908181526020016000905b8282101561088757838290600052602060002090600202016040518060400160405290816000820160009054906101000a900460ff16600781111561085f57fe5b600781111561086a57fe5b81526020016001820154815250508152602001906001019061081e565b50505050905090565b60008060025414156108a65760095490506108d2565b60006108b36002546117ea565b90506009548111156108c95760019150506108d2565b80600954039150505b90565b600080600460003373ffffffffffffffffffffffffffffffffffffffff1673ffffffffffffffffffffffffffffffffffffffff1681526020019081526020016000205490506109238161182f565b91505090565b6109316120c0565b600061093b6102d7565b90506000610948846111e9565b90506000600360003373ffffffffffffffffffffffffffffffffffffffff1673ffffffffffffffffffffffffffffffffffffffff168152602001908152602001600020905060005b826000015151811015610a1057826000015181815181106109ad57fe5b60200260200101518282815481106109c157fe5b906000526020600020906002020160008201518160000160006101000a81548160ff021916908360078111156109f357fe5b021790555060208201518160010155905050600181019050610990565b508282602001511115610ac95760008383602001510390506000610a3382610d6e565b905060008054906101000a900473ffffffffffffffffffffffffffffffffffffffff1673ffffffffffffffffffffffffffffffffffffffff166340c10f1933836040518363ffffffff1660e01b8152600401610a90929190612a07565b600060405180830381600087803b158015610aaa57600080fd5b505af1158015610abe573d6000803e3d6000fd5b505050505050610b7e565b8282602001511015610b7d5760008260200151840390506000610aeb82610d6e565b905060008054906101000a900473ffffffffffffffffffffffffffffffffffffffff1673ffffffffffffffffffffffffffffffffffffffff16639dc29fac33836040518363ffffffff1660e01b8152600401610b48929190612a07565b600060405180830381600087803b158015610b6257600080fd5b505af1158015610b76573d6000803e3d6000fd5b5050505050505b5b6000610b89866118ac565b905080600460003373ffffffffffffffffffffffffffffffffffffffff1673ffffffffffffffffffffffffffffffffffffffff16815260200190815260200160002060008282540192505081905550806002600082825401925050819055503373ffffffffffffffffffffffffffffffffffffffff167fbe35fe23c13a419d565edccb8c8bdedc160c5b9a82873e431b545080d6f3c68860405160405180910390a282945050505050919050565b610c3f6120c0565b6000600860006001548152602001908152602001600020604051806080016040529081600082015481526020016001820154815260200160028201548152602001600382015481525050905060006040518060a00160405280600180811115610ca457fe5b8152602001866007811115610cb557fe5b8152602001836040015181526020018581526020014281525090506000610cdc8783611127565b90506000610ce9826111e9565b9050809450505050509392505050565b600060086000600154815260200190815260200160002060010154905090565b610d216120e8565b600860006001548152602001908152602001600020604051806080016040529081600082015481526020016001820154815260200160028201548152602001600382015481525050905090565b600080610d79610890565b90506000818402905060648181610d8c57fe5b0492505050919050565b6000610da182610929565b90506000600360003373ffffffffffffffffffffffffffffffffffffffff1673ffffffffffffffffffffffffffffffffffffffff1681526020019081526020016000208054905011610e28576040517f08c379a0000000000000000000000000000000000000000000000000000000008152600401610e1f90612af4565b60405180910390fd5b6011600360003373ffffffffffffffffffffffffffffffffffffffff1673ffffffffffffffffffffffffffffffffffffffff168152602001908152602001600020805490501115610eae576040517f08c379a0000000000000000000000000000000000000000000000000000000008152600401610ea590612b54565b60405180910390fd5b6000600360003373ffffffffffffffffffffffffffffffffffffffff1673ffffffffffffffffffffffffffffffffffffffff16815260200190815260200160002090506000610f008280549050611931565b90506000610f0d82611976565b90506000610f33604051806060016040528060248152602001612e436024913983611ac6565b905082856020015110158190610f7f576040517f08c379a0000000000000000000000000000000000000000000000000000000008152600401610f769190612a52565b60405180910390fd5b506000604051806040016040528060006007811115610f9a57fe5b81526020016000815250905060005b600381101561101f578582908060018154018082558091505060019003906000526020600020906002020160009091909190915060008201518160000160006101000a81548160ff0219169083600781111561100157fe5b02179055506020820151816001015550508080600101915050610fa9565b50600061102b85610d6e565b905060008054906101000a900473ffffffffffffffffffffffffffffffffffffffff1673ffffffffffffffffffffffffffffffffffffffff16639dc29fac33836040518363ffffffff1660e01b8152600401611088929190612a07565b600060405180830381600087803b1580156110a257600080fd5b505af11580156110b6573d6000803e3d6000fd5b505050503373ffffffffffffffffffffffffffffffffffffffff167fbe35fe23c13a419d565edccb8c8bdedc160c5b9a82873e431b545080d6f3c68860405160405180910390a25050505050505050565b600060086000600154815260200190815260200160002060000154905090565b60606000600184510167ffffffffffffffff8111801561114657600080fd5b5060405190808252806020026020018201604052801561118057816020015b61116d612110565b8152602001906001900390816111655790505b50905060005b84518110156111c55784818151811061119b57fe5b60200260200101518282815181106111af57fe5b6020026020010181905250600181019050611186565b5082818551815181106111d457fe5b60200260200101819052508091505092915050565b6111f16120c0565b6000600360003373ffffffffffffffffffffffffffffffffffffffff1673ffffffffffffffffffffffffffffffffffffffff1681526020019081526020016000208054905011611276576040517f08c379a000000000000000000000000000000000000000000000000000000000815260040161126d90612af4565b60405180910390fd5b6000600360003373ffffffffffffffffffffffffffffffffffffffff1673ffffffffffffffffffffffffffffffffffffffff168152602001908152602001600020805480602002602001604051908101604052809291908181526020016000905b8282101561134057838290600052602060002090600202016040518060400160405290816000820160009054906101000a900460ff16600781111561131857fe5b600781111561132357fe5b8152602001600182015481525050815260200190600101906112d7565b50505050905060006113506102d7565b90506000600460003373ffffffffffffffffffffffffffffffffffffffff1673ffffffffffffffffffffffffffffffffffffffff16815260200190815260200160002054905060006113a18261182f565b905060005b86518110156117bd576113b88361182f565b915060008782815181106113c857fe5b602002602001015190504281608001511115611419576040517f08c379a000000000000000000000000000000000000000000000000000000000815260040161141090612ad4565b60405180910390fd5b60008211156114845787600183038151811061143157fe5b60200260200101516080015181608001511015611483576040517f08c379a000000000000000000000000000000000000000000000000000000000815260040161147a90612a94565b60405180910390fd5b5b8060200151600781111561149457fe5b8310156114d6576040517f08c379a00000000000000000000000000000000000000000000000000000000081526004016114cd90612b34565b60405180910390fd5b6000600860008360400151815260200190815260200160002060405180608001604052908160008201548152602001600182015481526020016002820154815260200160038201548152505090506000600181111561153157fe5b8260000151600181111561154157fe5b1415611600576000611557828460200151611af2565b90508087101561159c576040517f08c379a000000000000000000000000000000000000000000000000000000000815260040161159390612ab4565b60405180910390fd5b6115af8188611c5c90919063ffffffff16565b965060006040518060400160405280856020015160078111156115ce57fe5b81526020018560800151815250905080898560600151815181106115ee57fe5b602002602001018190525050506117ae565b60018081111561160c57fe5b8260000151600181111561161c57fe5b14156117ad5760008783606001518151811061163457fe5b602002602001015190508260200151600781111561164e57fe5b8160000151600781111561165e57fe5b1461169e576040517f08c379a000000000000000000000000000000000000000000000000000000000815260040161169590612b14565b60405180910390fd5b60008160200151846080015103905060006116b882611976565b905060006116de604051806060016040528060328152602001612e676032913983611ac6565b905060006116ef8760200151611ca6565b90508084118290611736576040517f08c379a000000000000000000000000000000000000000000000000000000000815260040161172d9190612a52565b60405180910390fd5b50600060405180604001604052806000600781111561175157fe5b815260200160008152509050808d89606001518151811061176e57fe5b60200260200101819052506000611789888a60200151611e0d565b905061179e818e611f7890919063ffffffff16565b9c50828c019b50505050505050505b5b505080806001019150506113a6565b50604051806080016040528085815260200184815260200187815260200182815250945050505050919050565b600080600260018401816117fa57fe5b0490508291505b818110156118295780915060028182858161181857fe5b04018161182157fe5b049050611801565b50919050565b6000600382101561184357600190506118a7565b603282101561185557600290506118a7565b61035282101561186857600390506118a7565b611b5882101561187b57600490506118a7565b61492082101561188e57600590506118a7565b620245b88210156118a257600690506118a7565b600790505b919050565b6000806000905060005b8351811015611924576001808111156118cb57fe5b8482815181106118d757fe5b60200260200101516000015160018111156118ee57fe5b14156119195761191484828151811061190357fe5b602002602001015160200151611ca6565b820191505b6001810190506118b6565b50600a8102915050919050565b600060058211611945576113889050611971565b600882116119575761c3509050611971565b600b821161196a576207a1209050611971565b624c4b4090505b919050565b606060008214156119be576040518060400160405280600181526020017f30000000000000000000000000000000000000000000000000000000000000008152509050611ac1565b600082905060005b600082146119e8578080600101915050600a82816119e057fe5b0491506119c6565b60008167ffffffffffffffff81118015611a0157600080fd5b506040519080825280601f01601f191660200182016040528015611a345781602001600182028036833780820191505090505b50905060008290505b60008614611ab9576001810390506000600a808881611a5857fe5b04028703603001905060008160f81b905080848481518110611a7657fe5b60200101907effffffffffffffffffffffffffffffffffffffffffffffffffffffffffffff1916908160001a905350600a8881611aaf57fe5b0497505050611a3d565b819450505050505b919050565b60608282604051602001611adb9291906129c8565b604051602081830303815290604052905092915050565b600060016007811115611b0157fe5b826007811115611b0d57fe5b1415611b1c5760059050611c56565b60026007811115611b2957fe5b826007811115611b3557fe5b1415611b4457601e9050611c56565b60036007811115611b5157fe5b826007811115611b5d57fe5b1415611b6c5760649050611c56565b60046007811115611b7957fe5b826007811115611b8557fe5b1415611b95576101f49050611c56565b60056007811115611ba257fe5b826007811115611bae57fe5b1415611bbe576103e89050611c56565b60066007811115611bcb57fe5b826007811115611bd757fe5b1415611be7576113889050611c56565b600780811115611bf357fe5b826007811115611bff57fe5b1415611c1057620186a09050611c56565b6000611c51576040517f08c379a0000000000000000000000000000000000000000000000000000000008152600401611c4890612b74565b60405180910390fd5b600090505b92915050565b6000611c9e83836040518060400160405280601e81526020017f536166654d6174683a207375627472616374696f6e206f766572666c6f770000815250612000565b905092915050565b600060016007811115611cb557fe5b826007811115611cc157fe5b1415611cd05760019050611e08565b60026007811115611cdd57fe5b826007811115611ce957fe5b1415611cf85760039050611e08565b60036007811115611d0557fe5b826007811115611d1157fe5b1415611d205760089050611e08565b60046007811115611d2d57fe5b826007811115611d3957fe5b1415611d485760189050611e08565b60056007811115611d5557fe5b826007811115611d6157fe5b1415611d705760489050611e08565b60066007811115611d7d57fe5b826007811115611d8957fe5b1415611d985760a89050611e08565b600780811115611da457fe5b826007811115611db057fe5b1415611dc0576102a09050611e08565b6000611e01576040517f08c379a0000000000000000000000000000000000000000000000000000000008152600401611df890612b74565b60405180910390fd5b6298967f90505b919050565b600060016007811115611e1c57fe5b826007811115611e2857fe5b1415611e3757600a9050611f72565b60026007811115611e4457fe5b826007811115611e5057fe5b1415611e5f57603c9050611f72565b60036007811115611e6c57fe5b826007811115611e7857fe5b1415611e88576101189050611f72565b60046007811115611e9557fe5b826007811115611ea157fe5b1415611eb15761047e9050611f72565b60056007811115611ebe57fe5b826007811115611eca57fe5b1415611eda57610c809050611f72565b60066007811115611ee757fe5b826007811115611ef357fe5b1415611f03576127109050611f72565b600780811115611f0f57fe5b826007811115611f1b57fe5b1415611f2c576201f20c9050611f72565b6000611f6d576040517f08c379a0000000000000000000000000000000000000000000000000000000008152600401611f6490612b74565b60405180910390fd5b600090505b92915050565b600080828401905083811015611ff6576040517f08c379a000000000000000000000000000000000000000000000000000000000815260040180806020018281038252601b8152602001807f536166654d6174683a206164646974696f6e206f766572666c6f77000000000081525060200191505060405180910390fd5b8091505092915050565b60008383111582906120ad576040517f08c379a00000000000000000000000000000000000000000000000000000000081526004018080602001828103825283818151815260200191508051906020019080838360005b83811015612072578082015181840152602081019050612057565b50505050905090810190601f16801561209f5780820380516001836020036101000a031916815260200191505b509250505060405180910390fd5b5060008385039050809150509392505050565b6040518060800160405280606081526020016000815260200160608152602001600081525090565b6040518060800160405280600081526020016000815260200160008152602001600081525090565b6040518060a001604052806000600181111561212857fe5b81526020016000600781111561213a57fe5b81526020016000815260200160008152602001600081525090565b600061216861216384612c1d565b612bec565b905080838252602082019050828560a086028201111561218757600080fd5b60005b858110156121b7578161219d8882612215565b845260208401935060a0830192505060018101905061218a565b5050509392505050565b600082601f8301126121d257600080fd5b81356121e2848260208601612155565b91505092915050565b6000813590506121fa81612e0b565b92915050565b60008135905061220f81612e1b565b92915050565b600060a0828403121561222757600080fd5b61223160a0612bec565b90506000612241848285016121eb565b600083015250602061225584828501612200565b60208301525060406122698482850161229d565b604083015250606061227d8482850161229d565b60608301525060806122918482850161229d565b60808301525092915050565b6000813590506122ac81612e2b565b92915050565b6000815190506122c181612e2b565b92915050565b6000602082840312156122d957600080fd5b600082013567ffffffffffffffff8111156122f357600080fd5b6122ff848285016121c1565b91505092915050565b60008060006060848603121561231d57600080fd5b600084013567ffffffffffffffff81111561233757600080fd5b612343868287016121c1565b935050602061235486828701612200565b92505060406123658682870161229d565b9150509250925092565b60006020828403121561238157600080fd5b600061238f8482850161229d565b91505092915050565b6000602082840312156123aa57600080fd5b60006123b8848285016122b2565b91505092915050565b60006123cd8383612913565b60408301905092915050565b60006123e58383612942565b60a08301905092915050565b6123fa81612d43565b82525050565b600061240b82612c69565b6124158185612ca4565b935061242083612c49565b8060005b8381101561245157815161243888826123c1565b975061244383612c8a565b925050600181019050612424565b5085935050505092915050565b600061246982612c69565b6124738185612cb5565b935061247e83612c49565b8060005b838110156124af57815161249688826123c1565b97506124a183612c8a565b925050600181019050612482565b5085935050505092915050565b60006124c782612c74565b6124d18185612cc6565b93506124dc83612c59565b8060005b8381101561250d5781516124f488826123d9565b97506124ff83612c97565b9250506001810190506124e0565b5085935050505092915050565b61252381612d55565b82525050565b61253281612d67565b82525050565b600061254382612c7f565b61254d8185612cd7565b935061255d818560208601612d9d565b61256681612dd2565b840191505092915050565b600061257c82612c7f565b6125868185612ce8565b9350612596818560208601612d9d565b80840191505092915050565b60006125af601383612cd7565b91507f4661726d20616c726561647920657869737473000000000000000000000000006000830152602082019050919050565b60006125ef601d83612cd7565b91507f5472616e73616374696f6e7320617265206e6f7420696e206f726465720000006000830152602082019050919050565b600061262f602b83612cd7565b91507f496e76616c6964206661726d3a204e6f7420656e6f756768206d6f6e6579207460008301527f6f206275792073656564730000000000000000000000000000000000000000006020830152604082019050919050565b6000612695602b83612cd7565b91507f596f752063616e206e6f7420706572666f726d20616e20616374696f6e20696e60008301527f20746865206675747572650000000000000000000000000000000000000000006020830152604082019050919050565b60006126fb601383612cd7565b91507f4661726d20646f6573206e6f74206578697374000000000000000000000000006000830152602082019050919050565b600061273b601d83612cd7565b91507f496e76616c6964206661726d3a204e6f206672756974206578697374730000006000830152602082019050919050565b600061277b603283612cd7565b91507f596f7520617265206e6f7420657870657269656e63656420656e6f756768207460008301527f6f20706c616e74207468697320667275697400000000000000000000000000006020830152604082019050919050565b60006127e1601c83612cd7565b91507f4661726d2063616e206e6f742067726f7720616e7920626967676572000000006000830152602082019050919050565b6000612821600d83612cd7565b91507f496e76616c6964206672756974000000000000000000000000000000000000006000830152602082019050919050565b600060808301600083015184820360008601526128718282612400565b915050602083015161288660208601826129aa565b506040830151848203604086015261289e82826124bc565b91505060608301516128b360608601826129aa565b508091505092915050565b6080820160008201516128d460008501826129aa565b5060208201516128e760208501826129aa565b5060408201516128fa60408501826129aa565b50606082015161290d60608501826129aa565b50505050565b6040820160008201516129296000850182612529565b50602082015161293c60208501826129aa565b50505050565b60a082016000820151612958600085018261251a565b50602082015161296b6020850182612529565b50604082015161297e60408501826129aa565b50606082015161299160608501826129aa565b5060808201516129a460808501826129aa565b50505050565b6129b381612d39565b82525050565b6129c281612d39565b82525050565b60006129d48285612571565b91506129e08284612571565b91508190509392505050565b6000602082019050612a0160008301846123f1565b92915050565b6000604082019050612a1c60008301856123f1565b612a2960208301846129b9565b9392505050565b60006020820190508181036000830152612a4a818461245e565b905092915050565b60006020820190508181036000830152612a6c8184612538565b905092915050565b60006020820190508181036000830152612a8d816125a2565b9050919050565b60006020820190508181036000830152612aad816125e2565b9050919050565b60006020820190508181036000830152612acd81612622565b9050919050565b60006020820190508181036000830152612aed81612688565b9050919050565b60006020820190508181036000830152612b0d816126ee565b9050919050565b60006020820190508181036000830152612b2d8161272e565b9050919050565b60006020820190508181036000830152612b4d8161276e565b9050919050565b60006020820190508181036000830152612b6d816127d4565b9050919050565b60006020820190508181036000830152612b8d81612814565b9050919050565b60006020820190508181036000830152612bae8184612854565b905092915050565b6000608082019050612bcb60008301846128be565b92915050565b6000602082019050612be660008301846129b9565b92915050565b6000604051905081810181811067ffffffffffffffff82111715612c1357612c12612dd0565b5b8060405250919050565b600067ffffffffffffffff821115612c3857612c37612dd0565b5b602082029050602081019050919050565b6000819050602082019050919050565b6000819050602082019050919050565b600081519050919050565b600081519050919050565b600081519050919050565b6000602082019050919050565b6000602082019050919050565b600082825260208201905092915050565b600082825260208201905092915050565b600082825260208201905092915050565b600082825260208201905092915050565b600081905092915050565b6000819050612d0182612de3565b919050565b6000819050612d1482612df7565b919050565b600073ffffffffffffffffffffffffffffffffffffffff82169050919050565b6000819050919050565b6000612d4e82612d79565b9050919050565b6000612d6082612cf3565b9050919050565b6000612d7282612d06565b9050919050565b6000612d8482612d8b565b9050919050565b6000612d9682612d19565b9050919050565b60005b83811015612dbb578082015181840152602081019050612da0565b83811115612dca576000848401525b50505050565bfe5b6000601f19601f8301169050919050565b60028110612df457612df3612dd0565b5b50565b60088110612e0857612e07612dd0565b5b50565b60028110612e1857600080fd5b50565b60088110612e2857600080fd5b50565b612e3481612d39565b8114612e3f57600080fd5b5056fe4e6f7420656e6f756768206d6f6e657920746f20627579206e6577206669656c64733a20496e76616c6964206661726d3a20546865206672756974206973206e6f7420726970652c20706c6561736520776169743a20a26469706673582212201a95cd75f7525e6965db5ec4b00168e5a72e503c05d1cd6f1f6d89940848895c64736f6c63430007060033",
  "immutableReferences": {},
  "source": "pragma solidity >=0.6.0 <0.8.0;\r\npragma experimental ABIEncoderV2;\r\n\r\nimport \"@openzeppelin/contracts/math/Math.sol\";\r\nimport \"./Token.sol\";\r\n\r\ncontract Farm {\r\n    using SafeMath for uint256;\r\n\r\n    //assign Token contract to variable\r\n    Token private token;\r\n    uint NOW_TIMESTAMP = 69;\r\n    uint totalHoursHarvested = 0;\r\n    //uint DECIMAL_PLACES = 2;\r\n\r\n    struct Square {\r\n        Fruit commodity;\r\n        uint createdAt;\r\n    }\r\n\r\n    mapping(address => Square[]) fields;\r\n    mapping(address => uint) playersExperience;\r\n\r\n    //pass as constructor argument deployed Token contract\r\n    constructor(Token _token) public {\r\n        //assign token deployed contract to variable\r\n        token = _token;\r\n\r\n        // Initial prices\r\n        market[NOW_TIMESTAMP] = Prices({\r\n            apples: 100, \r\n            avocados: 400,\r\n            timestamp: block.timestamp,\r\n            previousTimestamp: 0\r\n        });\r\n    }\r\n\r\n    event FarmCreated(address indexed _address);\r\n    event FarmSynced(address indexed _address);\r\n\r\n    function createFarm() public {\r\n        require(fields[msg.sender].length == 0, \"Farm already exists\");\r\n\r\n        Square[] storage land = fields[msg.sender];\r\n        Square memory empty = Square(Fruit.None, 0);\r\n        Square memory apple = Square(Fruit.Apple, block.timestamp);\r\n\r\n        land.push(empty);\r\n        land.push(apple);\r\n        land.push(apple);\r\n        land.push(apple);\r\n        land.push(empty);\r\n\r\n        Transaction[] memory transactions;\r\n\r\n        //Emit an event\r\n        emit FarmCreated(msg.sender);\r\n    }\r\n\r\n    function sqrt(uint x) private pure returns (uint y) {\r\n        uint z = (x + 1) / 2;\r\n        y = x;\r\n        while (z < y) {\r\n            y = z;\r\n            z = (x / z + z) / 2;\r\n        }\r\n    }\r\n\r\n    function experienceToLevel(uint experience) private view returns (uint level) {\r\n        if (experience < 3) {\r\n            return 1;\r\n        } else if (experience < 50) {\r\n            return 2;\r\n        } else if (experience < 850) {\r\n            return 3;\r\n        } else if (experience < 7000) {\r\n            return 4;\r\n        } else if (experience < 18720) {\r\n            return 5;\r\n        } else if (experience < 148920) {\r\n            return 6;\r\n        }\r\n\r\n        return 7;\r\n    }\r\n\r\n    function getLevel() public view returns (uint level) {\r\n        uint experience = playersExperience[msg.sender];\r\n\r\n        return experienceToLevel(experience);\r\n    }\r\n\r\n    function getLandPrice(uint landSize) private view returns (uint price) {\r\n        if (landSize <= 5) {\r\n            // $50\r\n            return 5000;\r\n        } else if (landSize <= 8) {\r\n            // $500\r\n            return 50000;\r\n        } else if (landSize <= 11) {\r\n            // $5000\r\n            return 500000;\r\n        }\r\n\r\n        // $50,000\r\n        return 5000000;\r\n    }\r\n\r\n    function buyMoreSpace(Transaction[] memory _transactions) public {\r\n        Farm memory farm = sync(_transactions);\r\n        require(fields[msg.sender].length > 0, \"Farm does not exist\");\r\n        require(fields[msg.sender].length <= 17, \"Farm can not grow any bigger\");\r\n\r\n        Square[] storage land = fields[msg.sender];\r\n\r\n        uint price = getLandPrice(land.length);\r\n        string memory priceString = uint2str(price);\r\n        string memory message = concatenate(\"Not enough money to buy new fields: \", priceString);\r\n        require(farm.balance >= price, message);\r\n\r\n        Square memory empty = Square(Fruit.None, 0);\r\n        // Do not bother rearranging the array - it is already in a strange square!\r\n        // Add 3 fields\r\n        for (uint index = 0; index < 3; index++) {\r\n            land.push(empty);\r\n        }\r\n\r\n        // TODO can we include this in the sync burn?\r\n        uint fmc = dollarToFMC(price);\r\n        token.burn(msg.sender, fmc);\r\n        emit FarmSynced(msg.sender);\r\n    }\r\n\r\n    function getLand() public view returns (Square[] memory) {\r\n        return fields[msg.sender];\r\n    }\r\n\r\n    enum Action { Plant, Harvest }\r\n    uint FRUIT_COUNT = 2;\r\n    enum Fruit { None, Apple, Avocado, Banana, Coconut, Pineapple, Money, Diamond }\r\n\r\n    struct Transaction { \r\n        Action action;\r\n        Fruit commodity;\r\n        // Unique prices key\r\n        uint timestamp;\r\n        uint landIndex;\r\n        uint createdAt;\r\n    }\r\n\r\n    uint MAX_AVOCADO_PRICE = 500;\r\n    uint MIN_AVOCADO_PRICE = 300;\r\n\r\n    struct Prices {\r\n        uint apples;\r\n        uint avocados;\r\n        uint timestamp;\r\n        uint previousTimestamp;\r\n    }\r\n     \r\n    mapping(uint => Prices) market;\r\n\r\n    struct Farm {\r\n        Square[] land;\r\n        uint balance;\r\n        Transaction[] transactions;\r\n        uint level;\r\n    }\r\n\r\n    function getHarvestHours(Fruit _commodity) private view returns (uint) {\r\n        if (_commodity == Fruit.Apple) {\r\n            return 1;\r\n        } else if (_commodity == Fruit.Avocado) {\r\n            return 3;\r\n        } else if (_commodity == Fruit.Banana) {\r\n            return 8;\r\n        } else if (_commodity == Fruit.Coconut) {\r\n            // 1 Day\r\n            return 24;\r\n        } else if (_commodity == Fruit.Pineapple) {\r\n            // 3 days\r\n            return 72;\r\n        } else if (_commodity == Fruit.Money) {\r\n            // 1 week\r\n            return 168;\r\n        } else if (_commodity == Fruit.Diamond) {\r\n            // 4 weeks\r\n            return 672;\r\n        }\r\n\r\n        require(false, \"Invalid fruit\");\r\n        return 9999999;\r\n    }\r\n\r\n    function getSeedPrice(Prices memory prices, Fruit _commodity) private view returns (uint price) {\r\n        if (_commodity == Fruit.Apple) {\r\n            // $0.05\r\n            return 5;\r\n        } else if (_commodity == Fruit.Avocado) {\r\n            // $0.30\r\n            return 30;\r\n        } else if (_commodity == Fruit.Banana) {\r\n            // $1\r\n            return 100;\r\n        } else if (_commodity == Fruit.Coconut) {\r\n            // $5\r\n            return 500;\r\n        } else if (_commodity == Fruit.Pineapple) {\r\n            // $10\r\n            return 1000;\r\n        } else if (_commodity == Fruit.Money) {\r\n            // $50\r\n            return 5000;\r\n        } else if (_commodity == Fruit.Diamond) {\r\n            // $1000\r\n            return 100000;\r\n        }\r\n\r\n        require(false, \"Invalid fruit\");\r\n\r\n        return 0;\r\n    }\r\n\r\n    function getFruitPrice(Prices memory prices, Fruit _commodity) private view returns (uint price) {\r\n        if (_commodity == Fruit.Apple) {\r\n            // $0.10\r\n            return 10;\r\n        } else if (_commodity == Fruit.Avocado) {\r\n            // $0.60\r\n            return 60;\r\n        } else if (_commodity == Fruit.Banana) {\r\n            // $2.8\r\n            return 280;\r\n        } else if (_commodity == Fruit.Coconut) {\r\n            // $11.5\r\n            return 1150;\r\n        } else if (_commodity == Fruit.Pineapple) {\r\n            // $32\r\n            return 3200;\r\n        } else if (_commodity == Fruit.Money) {\r\n            // $100\r\n            return 10000;\r\n        } else if (_commodity == Fruit.Diamond) {\r\n            // $1275\r\n            return 127500;\r\n        }\r\n\r\n        require(false, \"Invalid fruit\");\r\n\r\n        return 0;\r\n    }\r\n\r\n    function concatenate(\r\n        string memory a,\r\n        string memory b)\r\n        internal\r\n        pure\r\n        returns(string memory) {\r\n            return string(abi.encodePacked(a, b));\r\n        }\r\n\r\n    function uint2str(uint _i) internal pure returns (string memory _uintAsString) {\r\n        if (_i == 0) {\r\n            return \"0\";\r\n        }\r\n        uint j = _i;\r\n        uint len;\r\n        while (j != 0) {\r\n            len++;\r\n            j /= 10;\r\n        }\r\n        bytes memory bstr = new bytes(len);\r\n        uint k = len;\r\n        while (_i != 0) {\r\n            k = k-1;\r\n            uint8 temp = (48 + uint8(_i - _i / 10 * 10));\r\n            bytes1 b1 = bytes1(temp);\r\n            bstr[k] = b1;\r\n            _i /= 10;\r\n        }\r\n        return string(bstr);\r\n    }\r\n\r\n    function buildFarm(Transaction[] memory _transactions) private view returns (Farm memory currentFarm) {\r\n        require(fields[msg.sender].length > 0, \"Farm does not exist\");\r\n\r\n        Square[] memory land = fields[msg.sender];\r\n        uint balance = getBalance();\r\n        uint experience = playersExperience[msg.sender];\r\n        uint level = experienceToLevel(experience);\r\n\r\n        for (uint index = 0; index < _transactions.length; index++) {\r\n            level = experienceToLevel(experience);\r\n\r\n            Transaction memory transaction = _transactions[index];\r\n\r\n            require(transaction.createdAt <= block.timestamp, \"You can not perform an action in the future\");\r\n\r\n            if (index > 0) {\r\n                require(transaction.createdAt >= _transactions[index - 1].createdAt, \"Transactions are not in order\");\r\n            }\r\n\r\n            require(level >= uint(transaction.commodity), \"You are not experienced enough to plant this fruit\");\r\n\r\n            Prices memory prices = market[transaction.timestamp];\r\n            \r\n            if (transaction.action == Action.Plant) {\r\n                uint price = getSeedPrice(prices, transaction.commodity);\r\n\r\n                require(balance >= price, \"Invalid farm: Not enough money to buy seeds\");\r\n                balance = balance.sub(price);\r\n\r\n                Square memory plantedSeed = Square({\r\n                    commodity: transaction.commodity,\r\n                    // TODO - When they sync the far6 will be at the time of the farm :(\r\n                    createdAt: transaction.createdAt\r\n                });\r\n                land[transaction.landIndex] = plantedSeed;\r\n            } else if (transaction.action == Action.Harvest) {\r\n                Square memory square = land[transaction.landIndex];\r\n                require(square.commodity == transaction.commodity, \"Invalid farm: No fruit exists\");\r\n\r\n                // TODO - fraud detection?\r\n                uint duration = transaction.createdAt - square.createdAt;\r\n                string memory durationString = uint2str(duration);\r\n                string memory message = concatenate(\"Invalid farm: The fruit is not ripe, please wait: \", durationString);\r\n                uint hoursToHarvest = getHarvestHours(transaction.commodity);\r\n                require(duration > hoursToHarvest, message);\r\n\r\n                // Clear the land\r\n                Square memory emptyLand = Square(Fruit.None, 0);\r\n                land[transaction.landIndex] = emptyLand;\r\n\r\n                uint price = getFruitPrice(prices, transaction.commodity);\r\n\r\n                balance = balance.add(price);\r\n                experience += hoursToHarvest;\r\n            }\r\n        }\r\n\r\n        return Farm({\r\n            land: land,\r\n            balance: balance,\r\n            transactions: _transactions,\r\n            level: level\r\n        });\r\n    }\r\n\r\n    function clamp(uint value, uint minimum, uint maximum) private pure returns (uint clamped) {\r\n        if (value < minimum) {\r\n            return minimum;\r\n        }\r\n\r\n        if (value > maximum) {\r\n            return maximum;\r\n        }\r\n\r\n        return value;\r\n    }\r\n\r\n    // Assume the proportional number of transactions is what influences price\r\n    // Since at the time of transaction, they will likely be buying something and have sold all their seeds\r\n    // function moveTheMarket(Transaction[] memory _transactions) public {\r\n    //     uint apples = 0;\r\n    //     uint avocados = 0;\r\n\r\n    //     // What is the biggest mover?\r\n    //     for (uint i=0; i < _transactions.length; i += 1) {\r\n    //         if (_transactions[i].commodity == Fruit.Apple) {\r\n    //             apples += 1;\r\n    //         } else if ( _transactions[i].commodity == Fruit.Avocado) {\r\n    //             avocados += 1;\r\n    //         }\r\n    //     }\r\n\r\n    //     uint totalFruitTransactions = apples + avocados;\r\n\r\n    //     if (totalFruitTransactions == 0) {\r\n    //         // TODO still update the timestamps being used\r\n    //         return;\r\n    //     }\r\n\r\n    //     // Percentage of transactions that were apples\r\n    //     uint applePercentage = 0;\r\n    //     if (apples > 0) {\r\n    //         applePercentage = totalFruitTransactions * 100;\r\n    //     } \r\n    //     uint avocadoPercentage = 0;\r\n    //     if (avocados > 0) {\r\n    //         // 35%\r\n    //         avocadoPercentage = avocados / totalFruitTransactions * 100;\r\n    //     } \r\n\r\n    //     // 30%\r\n    //     uint expectedTransactions = 100 / FRUIT_COUNT;\r\n\r\n    //     // 5% \r\n    //     int avocadoChange = int(avocadoPercentage) - int(expectedTransactions);\r\n\r\n\r\n    //     //TODO even out the price from the previous hour - store transactions in the last hour?\r\n    //     int transactionCount = 1;\r\n    //     uint tenMinutesAgo = block.timestamp - (60 * 10);\r\n    //     Prices memory prices = market[NOW_TIMESTAMP];\r\n    //     while (prices.timestamp > tenMinutesAgo) {\r\n    //         transactionCount++;\r\n            \r\n    //         // Endless loop if we do not have this???\r\n    //         if (transactionCount >= 2) {\r\n    //             break;\r\n    //         }\r\n\r\n    //         // Back to the beginining\r\n    //         if (prices.previousTimestamp == 0) {\r\n    //             break;\r\n    //         }\r\n\r\n    //         prices = market[prices.previousTimestamp];\r\n    //     }\r\n\r\n    //     Prices memory currentPrices = market[NOW_TIMESTAMP];\r\n\r\n    //     // To avoid major market shifts, divide it\r\n    //     int MARKET_IMPACT = 10;\r\n    //     // 5% / 3 Transactions = 1.8%\r\n    //     int relativeAvocadoChange = avocadoChange / transactionCount / MARKET_IMPACT;\r\n    //     // 98.2% - we want to decrease it a little.\r\n    //     int percentage = 100 - relativeAvocadoChange;\r\n    //     // $5.23\r\n    //     uint avocadoPrice = currentPrices.avocados * uint(percentage) / 100;\r\n    //     // $5\r\n    //     uint clampedAvocadoPrice = clamp(avocadoPrice, MIN_AVOCADO_PRICE, MAX_AVOCADO_PRICE);\r\n\r\n    //     market[currentPrices.timestamp] = currentPrices;\r\n    //     market[NOW_TIMESTAMP] = Prices({\r\n    //         // Staple crop\r\n    //         apples: 100,\r\n    //         avocados: clampedAvocadoPrice,\r\n    //         timestamp: block.timestamp,\r\n    //         previousTimestamp: currentPrices.timestamp\r\n    //     });\r\n    // }\r\n\r\n    function getHoursHarvested(Transaction[] memory _transactions) private view returns (uint) {\r\n        uint secondsHarvested = 0;\r\n        for (uint i=0; i < _transactions.length; i += 1) {\r\n            if (_transactions[i].action == Action.Harvest) {\r\n                secondsHarvested = secondsHarvested + getHarvestHours(_transactions[i].commodity);\r\n            }\r\n        }\r\n\r\n        // Solidity uses integer division, which is equivalent to floored division.\r\n        // TESTING - return secondsHarvested / 3600;\r\n        return secondsHarvested * 10;\r\n    }\r\n\r\n    function sync(Transaction[] memory _transactions) public returns (Farm memory) {\r\n        uint balance = getBalance();\r\n        Farm memory farm = buildFarm(_transactions);\r\n\r\n        // Update the land\r\n        Square[] storage land = fields[msg.sender];\r\n        for (uint i=0; i < farm.land.length; i += 1) {\r\n            land[i] = farm.land[i];\r\n        }\r\n\r\n\r\n        // Update the balance - mint or burn\r\n        if (farm.balance > balance) {\r\n            uint profit = farm.balance - balance;\r\n            uint fmc = dollarToFMC(profit);\r\n            token.mint(msg.sender, fmc);\r\n        } else if (farm.balance < balance) {\r\n            uint loss = balance - farm.balance;\r\n            uint fmc = dollarToFMC(loss);\r\n            token.burn(msg.sender, fmc);\r\n        }\r\n\r\n        uint hoursFarmed = getHoursHarvested(_transactions);\r\n        playersExperience[msg.sender] += hoursFarmed;\r\n\r\n        totalHoursHarvested += hoursFarmed;\r\n\r\n        emit FarmSynced(msg.sender);\r\n        return farm;\r\n    }\r\n\r\n    // TODO - store the conversion & prices together on chain\r\n    // With 17 fields 24/7 for 1 year a user would harvest 148920 hours\r\n    // This would need 67,150 harvesters for 1 year to get to this threshold\r\n    uint ORIGINAL_CONVERSION = 100000;\r\n\r\n    function getConversion() public view returns (uint conversion) {\r\n        if (totalHoursHarvested == 0) {\r\n            return ORIGINAL_CONVERSION;\r\n        }\r\n\r\n        uint hourRoot = sqrt(totalHoursHarvested);\r\n\r\n        // We are at the maximum conversion rate, now it is 1:1\r\n        // This is when 10000000000 hours have been harvested\r\n        if (hourRoot > ORIGINAL_CONVERSION) {\r\n            return 1;\r\n        }\r\n\r\n        return ORIGINAL_CONVERSION - hourRoot;\r\n    }\r\n\r\n    function dollarToFMC(uint dollars) public view returns (uint fmc) {\r\n        uint conversion = getConversion();\r\n        uint realFMC = dollars * conversion;\r\n\r\n        // Remove the decimal points\r\n        return realFMC / 100;\r\n    }\r\n\r\n    // Decimal places to multiple by 100\r\n    function FMCToDollar(uint fmc) public view returns (uint dollars) {\r\n        uint conversion = getConversion();\r\n        uint fmcWithDecimals = fmc * 100;\r\n        return fmcWithDecimals / conversion;\r\n    }\r\n\r\n    function getBalance() public view returns (uint balance) {\r\n        uint fmc = token.balanceOf(msg.sender);\r\n        return FMCToDollar(fmc);\r\n    }\r\n\r\n    function addTransaction(Transaction[] memory _transactions, Transaction memory _transaction) private view returns (Transaction[] memory) {\r\n        Transaction[] memory newTransactions = new Transaction[](_transactions.length + 1);\r\n        for (uint i=0; i < _transactions.length; i += 1) {\r\n            newTransactions[i] = _transactions[i];\r\n        }\r\n\r\n        // Add the new transaction\r\n        newTransactions[_transactions.length] = _transaction;\r\n\r\n        return newTransactions;\r\n    }\r\n\r\n    function plant(Transaction[] memory _transactions, Fruit _commodity, uint landIndex) public view returns (Farm memory farm) {\r\n        Prices memory currentPrices = market[NOW_TIMESTAMP];\r\n        Transaction memory plantAppleTransaction = Transaction({\r\n            action: Action.Plant,\r\n            commodity: _commodity,\r\n            timestamp: currentPrices.timestamp,\r\n            landIndex: landIndex,\r\n            createdAt: block.timestamp\r\n        });\r\n        Transaction[] memory newTransactions = addTransaction(_transactions, plantAppleTransaction);\r\n\r\n        Farm memory updatedFarm = buildFarm(newTransactions);\r\n        return (updatedFarm);\r\n    }\r\n\r\n    function harvest(Transaction[] memory _transactions, Fruit _commodity, uint landIndex) public view returns (Farm memory farm) {\r\n        // Add the new transaction\r\n        Prices memory currentPrices = market[NOW_TIMESTAMP];\r\n        Transaction memory plantAppleTransaction = Transaction({\r\n            action: Action.Harvest,\r\n            commodity: _commodity,\r\n            timestamp: currentPrices.timestamp,\r\n            landIndex: landIndex,\r\n            createdAt: block.timestamp\r\n        });\r\n        Transaction[] memory newTransactions = addTransaction(_transactions, plantAppleTransaction);\r\n\r\n        Farm memory updatedFarm = buildFarm(newTransactions);\r\n        return (updatedFarm);\r\n    }\r\n\r\n    function getPrices() public view returns (Prices memory price) {\r\n        return market[NOW_TIMESTAMP];\r\n    }\r\n\r\n    function getApplePrice() public view returns (uint price) {\r\n        return market[NOW_TIMESTAMP].apples;\r\n    }\r\n\r\n    function getAvocadoPrice() public view returns (uint price) {\r\n        return market[NOW_TIMESTAMP].avocados;\r\n    }\r\n}\r\n",
  "sourcePath": "/Users/adamhannigan/Documents/workspace/fruit-market/src/contracts/Farm.sol",
  "compiler": {
    "name": "solc",
    "version": "0.7.6+commit.7338295f.Emscripten.clang"
  },
  "schemaVersion": "3.4.0",
  "updatedAt": "2021-05-25T10:41:27.799Z",
  "networkType": "ethereum",
  "devdoc": {
    "kind": "dev",
    "methods": {},
    "version": 1
  },
  "userdoc": {
    "kind": "user",
    "methods": {},
    "version": 1
  }
}